{
  "contractName": "BasicCrowdsale",
  "abi": [
    {
      "constant": true,
      "inputs": [],
      "name": "hasClosed",
      "outputs": [
        {
          "name": "",
          "type": "bool"
        }
      ],
      "payable": false,
      "stateMutability": "view",
      "type": "function"
    },
    {
      "constant": true,
      "inputs": [],
      "name": "totalSupply",
      "outputs": [
        {
          "name": "",
          "type": "uint256"
        }
      ],
      "payable": false,
      "stateMutability": "view",
      "type": "function"
    },
    {
      "constant": true,
      "inputs": [],
      "name": "currentTierHardcap",
      "outputs": [
        {
          "name": "",
          "type": "uint256"
        }
      ],
      "payable": false,
      "stateMutability": "view",
      "type": "function"
    },
    {
      "constant": true,
      "inputs": [],
      "name": "decimals",
      "outputs": [
        {
          "name": "",
          "type": "uint256"
        }
      ],
      "payable": false,
      "stateMutability": "view",
      "type": "function"
    },
    {
      "constant": true,
      "inputs": [],
      "name": "weiRaised",
      "outputs": [
        {
          "name": "",
          "type": "uint256"
        }
      ],
      "payable": false,
      "stateMutability": "view",
      "type": "function"
    },
    {
      "constant": true,
      "inputs": [],
      "name": "wallet",
      "outputs": [
        {
          "name": "",
          "type": "address"
        }
      ],
      "payable": false,
      "stateMutability": "view",
      "type": "function"
    },
    {
      "constant": false,
      "inputs": [
        {
          "name": "_vc",
          "type": "address"
        }
      ],
      "name": "addToVC",
      "outputs": [],
      "payable": false,
      "stateMutability": "nonpayable",
      "type": "function"
    },
    {
      "constant": true,
      "inputs": [],
      "name": "tokenName",
      "outputs": [
        {
          "name": "",
          "type": "string"
        }
      ],
      "payable": false,
      "stateMutability": "view",
      "type": "function"
    },
    {
      "constant": false,
      "inputs": [],
      "name": "renounceOwnership",
      "outputs": [],
      "payable": false,
      "stateMutability": "nonpayable",
      "type": "function"
    },
    {
      "constant": true,
      "inputs": [
        {
          "name": "_vc",
          "type": "address"
        }
      ],
      "name": "whtielistedAsVC",
      "outputs": [
        {
          "name": "",
          "type": "bool"
        }
      ],
      "payable": false,
      "stateMutability": "view",
      "type": "function"
    },
    {
      "constant": true,
      "inputs": [],
      "name": "tokenSymbol",
      "outputs": [
        {
          "name": "",
          "type": "string"
        }
      ],
      "payable": false,
      "stateMutability": "view",
      "type": "function"
    },
    {
      "constant": true,
      "inputs": [],
      "name": "owner",
      "outputs": [
        {
          "name": "",
          "type": "address"
        }
      ],
      "payable": false,
      "stateMutability": "view",
      "type": "function"
    },
    {
      "constant": false,
      "inputs": [
        {
          "name": "_vc",
          "type": "address"
        }
      ],
      "name": "removeFromVC",
      "outputs": [],
      "payable": false,
      "stateMutability": "nonpayable",
      "type": "function"
    },
    {
      "constant": true,
      "inputs": [],
      "name": "currentSaleTokenWeiHardcap",
      "outputs": [
        {
          "name": "",
          "type": "uint256"
        }
      ],
      "payable": false,
      "stateMutability": "view",
      "type": "function"
    },
    {
      "constant": true,
      "inputs": [],
      "name": "currentTierTokenWeisPerEth",
      "outputs": [
        {
          "name": "",
          "type": "uint256"
        }
      ],
      "payable": false,
      "stateMutability": "view",
      "type": "function"
    },
    {
      "constant": true,
      "inputs": [],
      "name": "hasOpened",
      "outputs": [
        {
          "name": "",
          "type": "bool"
        }
      ],
      "payable": false,
      "stateMutability": "view",
      "type": "function"
    },
    {
      "constant": true,
      "inputs": [],
      "name": "currentTier",
      "outputs": [
        {
          "name": "",
          "type": "uint8"
        }
      ],
      "payable": false,
      "stateMutability": "view",
      "type": "function"
    },
    {
      "constant": true,
      "inputs": [],
      "name": "tokenWeisSold",
      "outputs": [
        {
          "name": "",
          "type": "uint256"
        }
      ],
      "payable": false,
      "stateMutability": "view",
      "type": "function"
    },
    {
      "constant": false,
      "inputs": [
        {
          "name": "newOwner",
          "type": "address"
        }
      ],
      "name": "transferOwnership",
      "outputs": [],
      "payable": false,
      "stateMutability": "nonpayable",
      "type": "function"
    },
    {
      "constant": true,
      "inputs": [],
      "name": "token",
      "outputs": [
        {
          "name": "",
          "type": "address"
        }
      ],
      "payable": false,
      "stateMutability": "view",
      "type": "function"
    },
    {
      "anonymous": false,
      "inputs": [
        {
          "indexed": true,
          "name": "purchaser",
          "type": "address"
        },
        {
          "indexed": true,
          "name": "beneficiary",
          "type": "address"
        },
        {
          "indexed": false,
          "name": "value",
          "type": "uint256"
        },
        {
          "indexed": false,
          "name": "amount",
          "type": "uint256"
        }
      ],
      "name": "TokenPurchase",
      "type": "event"
    },
    {
      "anonymous": false,
      "inputs": [
        {
          "indexed": true,
          "name": "previousOwner",
          "type": "address"
        }
      ],
      "name": "OwnershipRenounced",
      "type": "event"
    },
    {
      "anonymous": false,
      "inputs": [
        {
          "indexed": true,
          "name": "previousOwner",
          "type": "address"
        },
        {
          "indexed": true,
          "name": "newOwner",
          "type": "address"
        }
      ],
      "name": "OwnershipTransferred",
      "type": "event"
    },
    {
      "constant": false,
      "inputs": [
        {
          "name": "_beneficiary",
          "type": "address"
        }
      ],
      "name": "buyTokens",
      "outputs": [
        {
          "name": "",
          "type": "uint256"
        }
      ],
      "payable": true,
      "stateMutability": "payable",
      "type": "function"
    },
    {
      "constant": true,
      "inputs": [],
      "name": "minVestingWei",
      "outputs": [
        {
          "name": "",
          "type": "uint256"
        }
      ],
      "payable": false,
      "stateMutability": "view",
      "type": "function"
    },
    {
      "constant": true,
      "inputs": [],
      "name": "maxVestingWei",
      "outputs": [
        {
          "name": "",
          "type": "uint256"
        }
      ],
      "payable": false,
      "stateMutability": "view",
      "type": "function"
    },
    {
      "constant": true,
      "inputs": [],
      "name": "getWeiRaised",
      "outputs": [
        {
          "name": "",
          "type": "uint256"
        }
      ],
      "payable": false,
      "stateMutability": "view",
      "type": "function"
    },
    {
      "constant": false,
      "inputs": [
        {
          "name": "_wallet",
          "type": "address"
        },
        {
          "name": "_weiAmount",
          "type": "uint256"
        }
      ],
      "name": "withdraw",
      "outputs": [],
      "payable": false,
      "stateMutability": "nonpayable",
      "type": "function"
    }
  ],
  "bytecode": "0x608060405233600160006101000a81548173ffffffffffffffffffffffffffffffffffffffff021916908373ffffffffffffffffffffffffffffffffffffffff1602179055506118b0806100546000396000f300608060405260043610610149576000357c0100000000000000000000000000000000000000000000000000000000900463ffffffff16806306c365811461014e5780631515bc2b1461017957806318160ddd146101a8578063301df9dd146101d3578063313ce567146101fe5780634042b66f1461022957806340582f1314610254578063521eb2731461027f57806353fe21ad146102d65780636c02a93114610319578063715018a6146103a9578063792d7ec3146103c05780637b61c3201461041b5780638da5cb5b146104ab5780639fb160aa146105025780639fc2e24f14610545578063bbe8a46614610570578063be8eef8e1461059b578063ce7f3a27146105ca578063d679677a146105f5578063e184a5151461062e578063ec8ac4d814610659578063f2fde38b146106a3578063f3fef3a3146106e6578063fc0c546a14610733575b600080fd5b34801561015a57600080fd5b5061016361078a565b6040518082815260200191505060405180910390f35b34801561018557600080fd5b5061018e61082c565b604051808215151515815260200191505060405180910390f35b3480156101b457600080fd5b506101bd61085d565b6040518082815260200191505060405180910390f35b3480156101df57600080fd5b506101e8610863565b6040518082815260200191505060405180910390f35b34801561020a57600080fd5b50610213610891565b6040518082815260200191505060405180910390f35b34801561023557600080fd5b5061023e610897565b6040518082815260200191505060405180910390f35b34801561026057600080fd5b5061026961089d565b6040518082815260200191505060405180910390f35b34801561028b57600080fd5b506102946108a7565b604051808273ffffffffffffffffffffffffffffffffffffffff1673ffffffffffffffffffffffffffffffffffffffff16815260200191505060405180910390f35b3480156102e257600080fd5b50610317600480360381019080803573ffffffffffffffffffffffffffffffffffffffff1690602001909291905050506108cd565b005b34801561032557600080fd5b5061032e6109ee565b6040518080602001828103825283818151815260200191508051906020019080838360005b8381101561036e578082015181840152602081019050610353565b50505050905090810190601f16801561039b5780820380516001836020036101000a031916815260200191505b509250505060405180910390f35b3480156103b557600080fd5b506103be610a8c565b005b3480156103cc57600080fd5b50610401600480360381019080803573ffffffffffffffffffffffffffffffffffffffff169060200190929190505050610b91565b604051808215151515815260200191505060405180910390f35b34801561042757600080fd5b50610430610bae565b6040518080602001828103825283818151815260200191508051906020019080838360005b83811015610470578082015181840152602081019050610455565b50505050905090810190601f16801561049d5780820380516001836020036101000a031916815260200191505b509250505060405180910390f35b3480156104b757600080fd5b506104c0610c4c565b604051808273ffffffffffffffffffffffffffffffffffffffff1673ffffffffffffffffffffffffffffffffffffffff16815260200191505060405180910390f35b34801561050e57600080fd5b50610543600480360381019080803573ffffffffffffffffffffffffffffffffffffffff169060200190929190505050610c72565b005b34801561055157600080fd5b5061055a610d93565b6040518082815260200191505060405180910390f35b34801561057c57600080fd5b50610585610df6565b6040518082815260200191505060405180910390f35b3480156105a757600080fd5b506105b0610e24565b604051808215151515815260200191505060405180910390f35b3480156105d657600080fd5b506105df610e4f565b6040518082815260200191505060405180910390f35b34801561060157600080fd5b5061060a610ef1565b6040518082600681111561061a57fe5b60ff16815260200191505060405180910390f35b34801561063a57600080fd5b50610643610f2c565b6040518082815260200191505060405180910390f35b61068d600480360381019080803573ffffffffffffffffffffffffffffffffffffffff169060200190929190505050610f32565b6040518082815260200191505060405180910390f35b3480156106af57600080fd5b506106e4600480360381019080803573ffffffffffffffffffffffffffffffffffffffff169060200190929190505050611040565b005b3480156106f257600080fd5b50610731600480360381019080803573ffffffffffffffffffffffffffffffffffffffff16906020019092919080359060200190929190505050611198565b005b34801561073f57600080fd5b5061074861129c565b604051808273ffffffffffffffffffffffffffffffffffffffff1673ffffffffffffffffffffffffffffffffffffffff16815260200191505060405180910390f35b6000610794610e24565b151561079f57600080fd5b6107a761082c565b1515156107b357600080fd5b60006107bd6112c2565b8154811015156107c957fe5b906000526020600020906006020160050160009054906101000a900460ff1615156107f357600080fd5b6001600681111561080057fe5b610808610ef1565b600681111561081357fe5b141561082357600b549050610829565b600d5490505b90565b60008060016000805490500381548110151561084457fe5b9060005260206000209060060201600201544211905090565b60065481565b60008061086e6112c2565b81548110151561087a57fe5b906000526020600020906006020160030154905090565b60075481565b600f5481565b6000600f54905090565b600460009054906101000a900473ffffffffffffffffffffffffffffffffffffffff1681565b600160009054906101000a900473ffffffffffffffffffffffffffffffffffffffff1673ffffffffffffffffffffffffffffffffffffffff163373ffffffffffffffffffffffffffffffffffffffff1614151561092957600080fd5b6000600681111561093657fe5b60006109406112c2565b81548110151561094c57fe5b906000526020600020906006020160000160009054906101000a900460ff16600681111561097657fe5b14806109cc57506002600681111561098a57fe5b60006109946112c2565b8154811015156109a057fe5b906000526020600020906006020160000160009054906101000a900460ff1660068111156109ca57fe5b145b15156109d757600080fd5b6109eb81600261136d90919063ffffffff16565b50565b60088054600181600116156101000203166002900480601f016020809104026020016040519081016040528092919081815260200182805460018160011615610100020316600290048015610a845780601f10610a5957610100808354040283529160200191610a84565b820191906000526020600020905b815481529060010190602001808311610a6757829003601f168201915b505050505081565b600160009054906101000a900473ffffffffffffffffffffffffffffffffffffffff1673ffffffffffffffffffffffffffffffffffffffff163373ffffffffffffffffffffffffffffffffffffffff16141515610ae857600080fd5b600160009054906101000a900473ffffffffffffffffffffffffffffffffffffffff1673ffffffffffffffffffffffffffffffffffffffff167ff8df31144d9c2f0f6b59d69b8b98abd5459d07f2742c4df920b25aae33c6482060405160405180910390a26000600160006101000a81548173ffffffffffffffffffffffffffffffffffffffff021916908373ffffffffffffffffffffffffffffffffffffffff160217905550565b6000610ba78260026113cb90919063ffffffff16565b9050919050565b60098054600181600116156101000203166002900480601f016020809104026020016040519081016040528092919081815260200182805460018160011615610100020316600290048015610c445780601f10610c1957610100808354040283529160200191610c44565b820191906000526020600020905b815481529060010190602001808311610c2757829003601f168201915b505050505081565b600160009054906101000a900473ffffffffffffffffffffffffffffffffffffffff1681565b600160009054906101000a900473ffffffffffffffffffffffffffffffffffffffff1673ffffffffffffffffffffffffffffffffffffffff163373ffffffffffffffffffffffffffffffffffffffff16141515610cce57600080fd5b60006006811115610cdb57fe5b6000610ce56112c2565b815481101515610cf157fe5b906000526020600020906006020160000160009054906101000a900460ff166006811115610d1b57fe5b1480610d71575060026006811115610d2f57fe5b6000610d396112c2565b815481101515610d4557fe5b906000526020600020906006020160000160009054906101000a900460ff166006811115610d6f57fe5b145b1515610d7c57600080fd5b610d9081600261142490919063ffffffff16565b50565b60008060008090505b610da46112c2565b81111515610dee57610ddf600082815481101515610dbe57fe5b9060005260206000209060060201600301548361148290919063ffffffff16565b91508080600101915050610d9c565b819250505090565b600080610e016112c2565b815481101515610e0d57fe5b906000526020600020906006020160040154905090565b6000806000815481101515610e3557fe5b906000526020600020906006020160010154421015905090565b6000610e59610e24565b1515610e6457600080fd5b610e6c61082c565b151515610e7857600080fd5b6000610e826112c2565b815481101515610e8e57fe5b906000526020600020906006020160050160009054906101000a900460ff161515610eb857600080fd5b60016006811115610ec557fe5b610ecd610ef1565b6006811115610ed857fe5b1415610ee857600a549050610eee565b600c5490505b90565b600080610efc6112c2565b815481101515610f0857fe5b906000526020600020906006020160000160009054906101000a900460ff16905090565b60115481565b6000806000610f3f610e24565b1515610f4a57600080fd5b610f5261082c565b151515610f5e57600080fd5b6000610f686112c2565b815481101515610f7457fe5b906000526020600020906006020160050160009054906101000a900460ff161515610f9e57600080fd5b349150610faa8261149e565b9050610fb78483836114dd565b610fc2848383611661565b610fcc8482611731565b8373ffffffffffffffffffffffffffffffffffffffff163373ffffffffffffffffffffffffffffffffffffffff167f623b3804fa71d67900d064613da8f94b9617215ee90799290593e1745087ad188484604051808381526020018281526020019250505060405180910390a35050919050565b600160009054906101000a900473ffffffffffffffffffffffffffffffffffffffff1673ffffffffffffffffffffffffffffffffffffffff163373ffffffffffffffffffffffffffffffffffffffff1614151561109c57600080fd5b600073ffffffffffffffffffffffffffffffffffffffff168173ffffffffffffffffffffffffffffffffffffffff16141515156110d857600080fd5b8073ffffffffffffffffffffffffffffffffffffffff16600160009054906101000a900473ffffffffffffffffffffffffffffffffffffffff1673ffffffffffffffffffffffffffffffffffffffff167f8be0079c531659141344cd1fd0a4f28419497f9722a3daafe3b4186f6b6457e060405160405180910390a380600160006101000a81548173ffffffffffffffffffffffffffffffffffffffff021916908373ffffffffffffffffffffffffffffffffffffffff16021790555050565b600160009054906101000a900473ffffffffffffffffffffffffffffffffffffffff1673ffffffffffffffffffffffffffffffffffffffff163373ffffffffffffffffffffffffffffffffffffffff161415156111f457600080fd5b600073ffffffffffffffffffffffffffffffffffffffff168273ffffffffffffffffffffffffffffffffffffffff161415151561123057600080fd5b6000811415151561124057600080fd5b600f54811115151561125157600080fd5b8173ffffffffffffffffffffffffffffffffffffffff166108fc829081150290604051600060405180830381858888f19350505050158015611297573d6000803e3d6000fd5b505050565b600360009054906101000a900473ffffffffffffffffffffffffffffffffffffffff1681565b6000806112cd610e24565b15156112d857600080fd5b6112e061082c565b1515156112ec57600080fd5b600090505b6000805490508110156113685760008181548110151561130d57fe5b906000526020600020906006020160010154421015801561134e575060008181548110151561133857fe5b9060005260206000209060060201600201544211155b1561135b57809150611369565b80806001019150506112f1565b5b5090565b60018260000160008373ffffffffffffffffffffffffffffffffffffffff1673ffffffffffffffffffffffffffffffffffffffff16815260200190815260200160002060006101000a81548160ff0219169083151502179055505050565b60008260000160008373ffffffffffffffffffffffffffffffffffffffff1673ffffffffffffffffffffffffffffffffffffffff16815260200190815260200160002060009054906101000a900460ff16905092915050565b60008260000160008373ffffffffffffffffffffffffffffffffffffffff1673ffffffffffffffffffffffffffffffffffffffff16815260200190815260200160002060006101000a81548160ff0219169083151502179055505050565b6000818301905082811015151561149557fe5b80905092915050565b6000806114a9610df6565b90506114d5600754600a0a6114c7838661183690919063ffffffff16565b61186e90919063ffffffff16565b915050919050565b600073ffffffffffffffffffffffffffffffffffffffff168373ffffffffffffffffffffffffffffffffffffffff161415151561151957600080fd5b6000821415151561152957600080fd5b611531610d93565b6115468260115461148290919063ffffffff16565b1115151561155357600080fd5b61155b610e4f565b6115ad83601060008773ffffffffffffffffffffffffffffffffffffffff1673ffffffffffffffffffffffffffffffffffffffff1681526020019081526020016000205461148290919063ffffffff16565b101515156115ba57600080fd5b6115c261078a565b61161483601060008773ffffffffffffffffffffffffffffffffffffffff1673ffffffffffffffffffffffffffffffffffffffff1681526020019081526020016000205461148290919063ffffffff16565b1115151561162157600080fd5b6001600681111561162e57fe5b611636610ef1565b600681111561164157fe5b141561165c5761165083610b91565b151561165b57600080fd5b5b505050565b6116b382601060008673ffffffffffffffffffffffffffffffffffffffff1673ffffffffffffffffffffffffffffffffffffffff1681526020019081526020016000205461148290919063ffffffff16565b601060008573ffffffffffffffffffffffffffffffffffffffff1673ffffffffffffffffffffffffffffffffffffffff1681526020019081526020016000208190555061170b8160115461148290919063ffffffff16565b60118190555061172682600f5461148290919063ffffffff16565b600f81905550505050565b600360009054906101000a900473ffffffffffffffffffffffffffffffffffffffff1673ffffffffffffffffffffffffffffffffffffffff1663a9059cbb83836040518363ffffffff167c0100000000000000000000000000000000000000000000000000000000028152600401808373ffffffffffffffffffffffffffffffffffffffff1673ffffffffffffffffffffffffffffffffffffffff16815260200182815260200192505050602060405180830381600087803b1580156117f657600080fd5b505af115801561180a573d6000803e3d6000fd5b505050506040513d602081101561182057600080fd5b8101908080519060200190929190505050505050565b6000808314156118495760009050611868565b818302905081838281151561185a57fe5b0414151561186457fe5b8090505b92915050565b6000818381151561187b57fe5b049050929150505600a165627a7a7230582060c2b347484262a63fe8a931024977db68cbb35546f4094dd60616540c30c89d0029",
  "source": "pragma solidity ^0.4.23;\n\nimport \"../Token/ERC223/woxToken.sol\";\nimport \"../Math/SafeMath.sol\";\nimport \"./WhitelistedVC.sol\";\n\n/**\n * @title BasicCrowdsale\n * @dev BasicCrowdsale is the base contract of managing woxTeoken crowdsale,\n * allowing investors purchasing tokens with ether.  This contract implements\n * such functionality in its most fundamental form and can be extended to provide additional\n * functionality and/or custom behavior.\n * This code is developed based on OpenZeppelin Crowdsale code: \n * https://github.com/OpenZeppelin/openzeppelin-solidity/blob/master/contracts/crowdsale/Crowdsale.sol\n */\ncontract BasicCrowdsale is WhtielistedVC {\n    using SafeMath for uint256;\n\n    woxToken public token;\n\n    address public wallet;\n\n    uint256 internal softcapWei;\n\n    uint256 public totalSupply;\n    uint256 public decimals;\n    string public tokenName;\n    string public tokenSymbol;\n\n    uint256 minVestingWeiPreICO;\n    uint256 maxVestingWeiPreICO;\n    uint256 minVestingWeiICO;\n    uint256 maxVestingWeiICO;\n\n    uint256 internal USD_PER_ETH;\n \n    uint256 public weiRaised;\n    mapping(address => uint256) depositedWei;\n\n    uint256 public tokenWeisSold;\n\n    event TokenPurchase(address indexed purchaser, address indexed beneficiary, uint256 value, uint256 amount);\n\n    /**\n     * @dev low level token purchase.\n     * @param _beneficiary Address performs token purchase with ether. \n     * Note: Token purchase only allowed while ICO is running in pre-ICO and ICO rounds.\n     */\n    function buyTokens(address _beneficiary) \n    public \n    payable\n    onlyWhileIsOpened\n    onlyWhileNotClosed\n    purchaseAllowed\n    returns (uint256)\n    {\n        uint256 weiAmount = msg.value;\n        uint256 tokenWeis = _getTokenAmount(weiAmount);\n\n        _preValidatePurchase(_beneficiary, weiAmount, tokenWeis);\n\n        _updatePurchasingState(_beneficiary, weiAmount, tokenWeis);\n\n        _processPurchase(_beneficiary, tokenWeis);\n\n        emit TokenPurchase(msg.sender, _beneficiary, weiAmount, tokenWeis);\n    }\n\n    /**\n     * @dev Requirements for validation of token purchase.\n     * Note: At each round of ICO crowdsale only a limitted amount of tokens could be sold.\n     * Note: Each purchaser must buy a minimum and can buy a maximum amount of tokens.\n     * Note: Mentioned limitations depends on that round of ICO.\n     * Note: Only whitelisted VCs can purchase tokens in pre-ICO round.\n     * Note: Will revert on violation of required conditions.\n     * @param _beneficiary Address performing token purchase. \n     * @param _weiAmount Value in wei paid for token purchase.\n     * @param _tokenAmount Number of tokens will be sold to purchase.\n     */\n    function _preValidatePurchase(address _beneficiary, uint256 _weiAmount, uint256 _tokenAmount) internal view {\n        require(_beneficiary != address(0));\n        require(_weiAmount != 0);\n        require(tokenWeisSold.add(_tokenAmount) <= currentSaleTokenWeiHardcap());\n        require(depositedWei[_beneficiary].add(_weiAmount) >= minVestingWei());\n        require(depositedWei[_beneficiary].add(_weiAmount) <= maxVestingWei());\n        if (currentTier() == TierStates.preICO) {\n            require(whtielistedAsVC(_beneficiary));\n        }\n    }\n\n    /**\n     * @dev Executes a validated token purchase.\n     * @param _beneficiary Address performing token purchase. \n     * @param _tokenAmount Number of tokens will be sold to purchase.\n     */\n    function _processPurchase(address _beneficiary, uint256 _tokenAmount) internal {\n        token.transfer(_beneficiary, _tokenAmount);\n    }\n\n    /**\n     * @dev Updates relevant pusrchase states:\n     * Total number of tokens sold,\n     * Total amount of Wies raised,\n     * Total amount of Weis depositted by the passed address.\n     * @param _beneficiary Address performing token purchase. \n     * @param _weiAmount Value in wei paid for token purchase.\n     * @param _tokenAmount Number of tokens will be sold to purchase.\n     */\n    function _updatePurchasingState(address _beneficiary, uint256 _weiAmount, uint256 _tokenAmount) internal {\n        depositedWei[_beneficiary] = depositedWei[_beneficiary].add(_weiAmount);\n        tokenWeisSold = tokenWeisSold.add(_tokenAmount);\n        weiRaised = weiRaised.add(_weiAmount);\n    }\n\n    /**\n     * @dev Returns minimum amount of weis must be depositted by each purchaser at each ICO round.\n     * Note: Will revert on calling the function in rounds which puchase is not allowed.\n     * @return A uint256 specifying minimum value of wei must be depositted.\n     */\n    function minVestingWei() public view onlyWhileIsOpened onlyWhileNotClosed purchaseAllowed returns (uint256) {\n        if (currentTier() == TierStates.preICO) {\n            return minVestingWeiPreICO;\n        } else {\n            return minVestingWeiICO;\n        }\n    }\n\n    /**\n     * @dev Returns maximum amount of weis could be depositted by each purchaser at each ICO round.\n     * Note: Will revert on calling the function in rounds which puchase is not allowed.\n     * @return A uint256 specifying maximum value of wei could be depositted.\n     */\n    function maxVestingWei() public view onlyWhileIsOpened onlyWhileNotClosed purchaseAllowed returns (uint256) {\n        if (currentTier() == TierStates.preICO) {\n            return maxVestingWeiPreICO;\n        } else {\n            return maxVestingWeiICO;\n        }\n    }\n\n    /**\n     * @dev Returns number of tokens could be purchased with respect to a specified amiunt of weis.\n     * @param _weiAmount An amount wei to be converted into number of tokens.\n     * @return A uint256 specifying number of tokens could be purchased with the specified _weiAmount.\n     */\n    function _getTokenAmount(uint256 _weiAmount) internal view returns (uint256) {\n        uint256 _tokeWeisPerEth = currentTierTokenWeisPerEth();\n        return _weiAmount.mul(_tokeWeisPerEth).div(10 ** decimals);\n    }\n\n    /**\n     * @dev Returns total value depositted in weis.\n     * @return A uint256 specifying depositted values in wei.\n     */\n    function getWeiRaised() public view returns(uint256) {\n        return weiRaised;\n    }\n\n    /**\n     * @dev Transfer a specified amount of values depositted in wei to passed address.\n     * Note: Only the contract owner can withdraw values.\n     * @param _wallet The address to which a specified amount of depositted values must be transfered.\n     * @param _weiAmount Amount values in wei must be withdrawn.\n    */\n    function withdraw(address _wallet, uint256 _weiAmount) onlyOwner {\n        require(_wallet != address(0));\n        require(_weiAmount != 0);\n        require(_weiAmount <= weiRaised);\n        _wallet.transfer(_weiAmount);\n    }\n}\n",
  "sourcePath": "G:\\Root\\Blockchain\\WOX\\contracts\\crowdSale\\BasicCrowdsale.sol",
  "compiler": {
    "name": "solc",
    "version": "0.4.23+commit.124ca40d.Emscripten.clang"
  },
  "schemaVersion": "2.0.0",
  "updatedAt": "2018-06-27T04:31:22.431Z"
}