{
  "contractName": "BasicCrowdsale",
  "abi": [
    {
      "constant": true,
      "inputs": [],
      "name": "hasClosed",
      "outputs": [
        {
          "name": "",
          "type": "bool"
        }
      ],
      "payable": false,
      "stateMutability": "view",
      "type": "function"
    },
    {
      "constant": true,
      "inputs": [],
      "name": "totalSupply",
      "outputs": [
        {
          "name": "",
          "type": "uint256"
        }
      ],
      "payable": false,
      "stateMutability": "view",
      "type": "function"
    },
    {
      "constant": true,
      "inputs": [],
      "name": "currentTierHardcap",
      "outputs": [
        {
          "name": "",
          "type": "uint256"
        }
      ],
      "payable": false,
      "stateMutability": "view",
      "type": "function"
    },
    {
      "constant": true,
      "inputs": [],
      "name": "decimals",
      "outputs": [
        {
          "name": "",
          "type": "uint256"
        }
      ],
      "payable": false,
      "stateMutability": "view",
      "type": "function"
    },
    {
      "constant": true,
      "inputs": [],
      "name": "weiRaised",
      "outputs": [
        {
          "name": "",
          "type": "uint256"
        }
      ],
      "payable": false,
      "stateMutability": "view",
      "type": "function"
    },
    {
      "constant": true,
      "inputs": [],
      "name": "wallet",
      "outputs": [
        {
          "name": "",
          "type": "address"
        }
      ],
      "payable": false,
      "stateMutability": "view",
      "type": "function"
    },
    {
      "constant": false,
      "inputs": [
        {
          "name": "_vc",
          "type": "address"
        }
      ],
      "name": "addToVC",
      "outputs": [],
      "payable": false,
      "stateMutability": "nonpayable",
      "type": "function"
    },
    {
      "constant": true,
      "inputs": [],
      "name": "tokenName",
      "outputs": [
        {
          "name": "",
          "type": "string"
        }
      ],
      "payable": false,
      "stateMutability": "view",
      "type": "function"
    },
    {
      "constant": false,
      "inputs": [],
      "name": "renounceOwnership",
      "outputs": [],
      "payable": false,
      "stateMutability": "nonpayable",
      "type": "function"
    },
    {
      "constant": true,
      "inputs": [
        {
          "name": "_vc",
          "type": "address"
        }
      ],
      "name": "whtielistedAsVC",
      "outputs": [
        {
          "name": "",
          "type": "bool"
        }
      ],
      "payable": false,
      "stateMutability": "view",
      "type": "function"
    },
    {
      "constant": true,
      "inputs": [],
      "name": "tokenSymbol",
      "outputs": [
        {
          "name": "",
          "type": "string"
        }
      ],
      "payable": false,
      "stateMutability": "view",
      "type": "function"
    },
    {
      "constant": true,
      "inputs": [],
      "name": "owner",
      "outputs": [
        {
          "name": "",
          "type": "address"
        }
      ],
      "payable": false,
      "stateMutability": "view",
      "type": "function"
    },
    {
      "constant": false,
      "inputs": [
        {
          "name": "_vc",
          "type": "address"
        }
      ],
      "name": "removeFromVC",
      "outputs": [],
      "payable": false,
      "stateMutability": "nonpayable",
      "type": "function"
    },
    {
      "constant": true,
      "inputs": [],
      "name": "currentSaleTokenWeiHardcap",
      "outputs": [
        {
          "name": "",
          "type": "uint256"
        }
      ],
      "payable": false,
      "stateMutability": "view",
      "type": "function"
    },
    {
      "constant": true,
      "inputs": [],
      "name": "currentTierTokenWeisPerEth",
      "outputs": [
        {
          "name": "",
          "type": "uint256"
        }
      ],
      "payable": false,
      "stateMutability": "view",
      "type": "function"
    },
    {
      "constant": true,
      "inputs": [],
      "name": "hasOpened",
      "outputs": [
        {
          "name": "",
          "type": "bool"
        }
      ],
      "payable": false,
      "stateMutability": "view",
      "type": "function"
    },
    {
      "constant": true,
      "inputs": [],
      "name": "currentTier",
      "outputs": [
        {
          "name": "",
          "type": "uint8"
        }
      ],
      "payable": false,
      "stateMutability": "view",
      "type": "function"
    },
    {
      "constant": true,
      "inputs": [],
      "name": "tokenWeisSold",
      "outputs": [
        {
          "name": "",
          "type": "uint256"
        }
      ],
      "payable": false,
      "stateMutability": "view",
      "type": "function"
    },
    {
      "constant": false,
      "inputs": [
        {
          "name": "newOwner",
          "type": "address"
        }
      ],
      "name": "transferOwnership",
      "outputs": [],
      "payable": false,
      "stateMutability": "nonpayable",
      "type": "function"
    },
    {
      "constant": true,
      "inputs": [],
      "name": "token",
      "outputs": [
        {
          "name": "",
          "type": "address"
        }
      ],
      "payable": false,
      "stateMutability": "view",
      "type": "function"
    },
    {
      "payable": true,
      "stateMutability": "payable",
      "type": "fallback"
    },
    {
      "anonymous": false,
      "inputs": [
        {
          "indexed": true,
          "name": "purchaser",
          "type": "address"
        },
        {
          "indexed": true,
          "name": "beneficiary",
          "type": "address"
        },
        {
          "indexed": false,
          "name": "value",
          "type": "uint256"
        },
        {
          "indexed": false,
          "name": "amount",
          "type": "uint256"
        }
      ],
      "name": "TokenPurchase",
      "type": "event"
    },
    {
      "anonymous": false,
      "inputs": [
        {
          "indexed": true,
          "name": "previousOwner",
          "type": "address"
        }
      ],
      "name": "OwnershipRenounced",
      "type": "event"
    },
    {
      "anonymous": false,
      "inputs": [
        {
          "indexed": true,
          "name": "previousOwner",
          "type": "address"
        },
        {
          "indexed": true,
          "name": "newOwner",
          "type": "address"
        }
      ],
      "name": "OwnershipTransferred",
      "type": "event"
    },
    {
      "constant": false,
      "inputs": [
        {
          "name": "_beneficiary",
          "type": "address"
        }
      ],
      "name": "buyTokens",
      "outputs": [
        {
          "name": "",
          "type": "uint256"
        }
      ],
      "payable": true,
      "stateMutability": "payable",
      "type": "function"
    },
    {
      "constant": true,
      "inputs": [],
      "name": "minVestingWei",
      "outputs": [
        {
          "name": "",
          "type": "uint256"
        }
      ],
      "payable": false,
      "stateMutability": "view",
      "type": "function"
    },
    {
      "constant": true,
      "inputs": [],
      "name": "maxVestingWei",
      "outputs": [
        {
          "name": "",
          "type": "uint256"
        }
      ],
      "payable": false,
      "stateMutability": "view",
      "type": "function"
    },
    {
      "constant": true,
      "inputs": [],
      "name": "getWeiRaised",
      "outputs": [
        {
          "name": "",
          "type": "uint256"
        }
      ],
      "payable": false,
      "stateMutability": "view",
      "type": "function"
    },
    {
      "constant": false,
      "inputs": [
        {
          "name": "_wallet",
          "type": "address"
        },
        {
          "name": "_weiAmount",
          "type": "uint256"
        }
      ],
      "name": "withdraw",
      "outputs": [],
      "payable": false,
      "stateMutability": "nonpayable",
      "type": "function"
    }
  ],
  "bytecode": "0x608060405233600160006101000a81548173ffffffffffffffffffffffffffffffffffffffff021916908373ffffffffffffffffffffffffffffffffffffffff1602179055506118b7806100546000396000f300608060405260043610610149576000357c0100000000000000000000000000000000000000000000000000000000900463ffffffff16806306c36581146101555780631515bc2b1461018057806318160ddd146101af578063301df9dd146101da578063313ce567146102055780634042b66f1461023057806340582f131461025b578063521eb2731461028657806353fe21ad146102dd5780636c02a93114610320578063715018a6146103b0578063792d7ec3146103c75780637b61c320146104225780638da5cb5b146104b25780639fb160aa146105095780639fc2e24f1461054c578063bbe8a46614610577578063be8eef8e146105a2578063ce7f3a27146105d1578063d679677a146105fc578063e184a51514610635578063ec8ac4d814610660578063f2fde38b146106aa578063f3fef3a3146106ed578063fc0c546a1461073a575b61015233610791565b50005b34801561016157600080fd5b5061016a61089f565b6040518082815260200191505060405180910390f35b34801561018c57600080fd5b50610195610941565b604051808215151515815260200191505060405180910390f35b3480156101bb57600080fd5b506101c4610972565b6040518082815260200191505060405180910390f35b3480156101e657600080fd5b506101ef610978565b6040518082815260200191505060405180910390f35b34801561021157600080fd5b5061021a6109a6565b6040518082815260200191505060405180910390f35b34801561023c57600080fd5b506102456109ac565b6040518082815260200191505060405180910390f35b34801561026757600080fd5b506102706109b2565b6040518082815260200191505060405180910390f35b34801561029257600080fd5b5061029b6109bc565b604051808273ffffffffffffffffffffffffffffffffffffffff1673ffffffffffffffffffffffffffffffffffffffff16815260200191505060405180910390f35b3480156102e957600080fd5b5061031e600480360381019080803573ffffffffffffffffffffffffffffffffffffffff1690602001909291905050506109e2565b005b34801561032c57600080fd5b50610335610b03565b6040518080602001828103825283818151815260200191508051906020019080838360005b8381101561037557808201518184015260208101905061035a565b50505050905090810190601f1680156103a25780820380516001836020036101000a031916815260200191505b509250505060405180910390f35b3480156103bc57600080fd5b506103c5610ba1565b005b3480156103d357600080fd5b50610408600480360381019080803573ffffffffffffffffffffffffffffffffffffffff169060200190929190505050610ca6565b604051808215151515815260200191505060405180910390f35b34801561042e57600080fd5b50610437610cc3565b6040518080602001828103825283818151815260200191508051906020019080838360005b8381101561047757808201518184015260208101905061045c565b50505050905090810190601f1680156104a45780820380516001836020036101000a031916815260200191505b509250505060405180910390f35b3480156104be57600080fd5b506104c7610d61565b604051808273ffffffffffffffffffffffffffffffffffffffff1673ffffffffffffffffffffffffffffffffffffffff16815260200191505060405180910390f35b34801561051557600080fd5b5061054a600480360381019080803573ffffffffffffffffffffffffffffffffffffffff169060200190929190505050610d87565b005b34801561055857600080fd5b50610561610ea8565b6040518082815260200191505060405180910390f35b34801561058357600080fd5b5061058c610f0b565b6040518082815260200191505060405180910390f35b3480156105ae57600080fd5b506105b7610f39565b604051808215151515815260200191505060405180910390f35b3480156105dd57600080fd5b506105e6610f64565b6040518082815260200191505060405180910390f35b34801561060857600080fd5b50610611611006565b6040518082600681111561062157fe5b60ff16815260200191505060405180910390f35b34801561064157600080fd5b5061064a611041565b6040518082815260200191505060405180910390f35b610694600480360381019080803573ffffffffffffffffffffffffffffffffffffffff169060200190929190505050610791565b6040518082815260200191505060405180910390f35b3480156106b657600080fd5b506106eb600480360381019080803573ffffffffffffffffffffffffffffffffffffffff169060200190929190505050611047565b005b3480156106f957600080fd5b50610738600480360381019080803573ffffffffffffffffffffffffffffffffffffffff1690602001909291908035906020019092919050505061119f565b005b34801561074657600080fd5b5061074f6112a3565b604051808273ffffffffffffffffffffffffffffffffffffffff1673ffffffffffffffffffffffffffffffffffffffff16815260200191505060405180910390f35b600080600061079e610f39565b15156107a957600080fd5b6107b1610941565b1515156107bd57600080fd5b60006107c76112c9565b8154811015156107d357fe5b906000526020600020906006020160050160009054906101000a900460ff1615156107fd57600080fd5b34915061080982611374565b90506108168483836113b3565b610821848383611537565b61082b8482611607565b8373ffffffffffffffffffffffffffffffffffffffff163373ffffffffffffffffffffffffffffffffffffffff167f623b3804fa71d67900d064613da8f94b9617215ee90799290593e1745087ad188484604051808381526020018281526020019250505060405180910390a35050919050565b60006108a9610f39565b15156108b457600080fd5b6108bc610941565b1515156108c857600080fd5b60006108d26112c9565b8154811015156108de57fe5b906000526020600020906006020160050160009054906101000a900460ff16151561090857600080fd5b6001600681111561091557fe5b61091d611006565b600681111561092857fe5b141561093857600b54905061093e565b600d5490505b90565b60008060016000805490500381548110151561095957fe5b9060005260206000209060060201600201544211905090565b60065481565b6000806109836112c9565b81548110151561098f57fe5b906000526020600020906006020160030154905090565b60075481565b600f5481565b6000600f54905090565b600460009054906101000a900473ffffffffffffffffffffffffffffffffffffffff1681565b600160009054906101000a900473ffffffffffffffffffffffffffffffffffffffff1673ffffffffffffffffffffffffffffffffffffffff163373ffffffffffffffffffffffffffffffffffffffff16141515610a3e57600080fd5b60006006811115610a4b57fe5b6000610a556112c9565b815481101515610a6157fe5b906000526020600020906006020160000160009054906101000a900460ff166006811115610a8b57fe5b1480610ae1575060026006811115610a9f57fe5b6000610aa96112c9565b815481101515610ab557fe5b906000526020600020906006020160000160009054906101000a900460ff166006811115610adf57fe5b145b1515610aec57600080fd5b610b0081600261170c90919063ffffffff16565b50565b60088054600181600116156101000203166002900480601f016020809104026020016040519081016040528092919081815260200182805460018160011615610100020316600290048015610b995780601f10610b6e57610100808354040283529160200191610b99565b820191906000526020600020905b815481529060010190602001808311610b7c57829003601f168201915b505050505081565b600160009054906101000a900473ffffffffffffffffffffffffffffffffffffffff1673ffffffffffffffffffffffffffffffffffffffff163373ffffffffffffffffffffffffffffffffffffffff16141515610bfd57600080fd5b600160009054906101000a900473ffffffffffffffffffffffffffffffffffffffff1673ffffffffffffffffffffffffffffffffffffffff167ff8df31144d9c2f0f6b59d69b8b98abd5459d07f2742c4df920b25aae33c6482060405160405180910390a26000600160006101000a81548173ffffffffffffffffffffffffffffffffffffffff021916908373ffffffffffffffffffffffffffffffffffffffff160217905550565b6000610cbc82600261176a90919063ffffffff16565b9050919050565b60098054600181600116156101000203166002900480601f016020809104026020016040519081016040528092919081815260200182805460018160011615610100020316600290048015610d595780601f10610d2e57610100808354040283529160200191610d59565b820191906000526020600020905b815481529060010190602001808311610d3c57829003601f168201915b505050505081565b600160009054906101000a900473ffffffffffffffffffffffffffffffffffffffff1681565b600160009054906101000a900473ffffffffffffffffffffffffffffffffffffffff1673ffffffffffffffffffffffffffffffffffffffff163373ffffffffffffffffffffffffffffffffffffffff16141515610de357600080fd5b60006006811115610df057fe5b6000610dfa6112c9565b815481101515610e0657fe5b906000526020600020906006020160000160009054906101000a900460ff166006811115610e3057fe5b1480610e86575060026006811115610e4457fe5b6000610e4e6112c9565b815481101515610e5a57fe5b906000526020600020906006020160000160009054906101000a900460ff166006811115610e8457fe5b145b1515610e9157600080fd5b610ea58160026117c390919063ffffffff16565b50565b60008060008090505b610eb96112c9565b81111515610f0357610ef4600082815481101515610ed357fe5b9060005260206000209060060201600301548361182190919063ffffffff16565b91508080600101915050610eb1565b819250505090565b600080610f166112c9565b815481101515610f2257fe5b906000526020600020906006020160040154905090565b6000806000815481101515610f4a57fe5b906000526020600020906006020160010154421015905090565b6000610f6e610f39565b1515610f7957600080fd5b610f81610941565b151515610f8d57600080fd5b6000610f976112c9565b815481101515610fa357fe5b906000526020600020906006020160050160009054906101000a900460ff161515610fcd57600080fd5b60016006811115610fda57fe5b610fe2611006565b6006811115610fed57fe5b1415610ffd57600a549050611003565b600c5490505b90565b6000806110116112c9565b81548110151561101d57fe5b906000526020600020906006020160000160009054906101000a900460ff16905090565b60115481565b600160009054906101000a900473ffffffffffffffffffffffffffffffffffffffff1673ffffffffffffffffffffffffffffffffffffffff163373ffffffffffffffffffffffffffffffffffffffff161415156110a357600080fd5b600073ffffffffffffffffffffffffffffffffffffffff168173ffffffffffffffffffffffffffffffffffffffff16141515156110df57600080fd5b8073ffffffffffffffffffffffffffffffffffffffff16600160009054906101000a900473ffffffffffffffffffffffffffffffffffffffff1673ffffffffffffffffffffffffffffffffffffffff167f8be0079c531659141344cd1fd0a4f28419497f9722a3daafe3b4186f6b6457e060405160405180910390a380600160006101000a81548173ffffffffffffffffffffffffffffffffffffffff021916908373ffffffffffffffffffffffffffffffffffffffff16021790555050565b600160009054906101000a900473ffffffffffffffffffffffffffffffffffffffff1673ffffffffffffffffffffffffffffffffffffffff163373ffffffffffffffffffffffffffffffffffffffff161415156111fb57600080fd5b600073ffffffffffffffffffffffffffffffffffffffff168273ffffffffffffffffffffffffffffffffffffffff161415151561123757600080fd5b6000811415151561124757600080fd5b600f54811115151561125857600080fd5b8173ffffffffffffffffffffffffffffffffffffffff166108fc829081150290604051600060405180830381858888f1935050505015801561129e573d6000803e3d6000fd5b505050565b600360009054906101000a900473ffffffffffffffffffffffffffffffffffffffff1681565b6000806112d4610f39565b15156112df57600080fd5b6112e7610941565b1515156112f357600080fd5b600090505b60008054905081101561136f5760008181548110151561131457fe5b9060005260206000209060060201600101544210158015611355575060008181548110151561133f57fe5b9060005260206000209060060201600201544211155b1561136257809150611370565b80806001019150506112f8565b5b5090565b60008061137f610f0b565b90506113ab600754600a0a61139d838661183d90919063ffffffff16565b61187590919063ffffffff16565b915050919050565b600073ffffffffffffffffffffffffffffffffffffffff168373ffffffffffffffffffffffffffffffffffffffff16141515156113ef57600080fd5b600082141515156113ff57600080fd5b611407610ea8565b61141c8260115461182190919063ffffffff16565b1115151561142957600080fd5b611431610f64565b61148383601060008773ffffffffffffffffffffffffffffffffffffffff1673ffffffffffffffffffffffffffffffffffffffff1681526020019081526020016000205461182190919063ffffffff16565b1015151561149057600080fd5b61149861089f565b6114ea83601060008773ffffffffffffffffffffffffffffffffffffffff1673ffffffffffffffffffffffffffffffffffffffff1681526020019081526020016000205461182190919063ffffffff16565b111515156114f757600080fd5b6001600681111561150457fe5b61150c611006565b600681111561151757fe5b14156115325761152683610ca6565b151561153157600080fd5b5b505050565b61158982601060008673ffffffffffffffffffffffffffffffffffffffff1673ffffffffffffffffffffffffffffffffffffffff1681526020019081526020016000205461182190919063ffffffff16565b601060008573ffffffffffffffffffffffffffffffffffffffff1673ffffffffffffffffffffffffffffffffffffffff168152602001908152602001600020819055506115e18160115461182190919063ffffffff16565b6011819055506115fc82600f5461182190919063ffffffff16565b600f81905550505050565b600360009054906101000a900473ffffffffffffffffffffffffffffffffffffffff1673ffffffffffffffffffffffffffffffffffffffff1663a9059cbb83836040518363ffffffff167c0100000000000000000000000000000000000000000000000000000000028152600401808373ffffffffffffffffffffffffffffffffffffffff1673ffffffffffffffffffffffffffffffffffffffff16815260200182815260200192505050602060405180830381600087803b1580156116cc57600080fd5b505af11580156116e0573d6000803e3d6000fd5b505050506040513d60208110156116f657600080fd5b8101908080519060200190929190505050505050565b60018260000160008373ffffffffffffffffffffffffffffffffffffffff1673ffffffffffffffffffffffffffffffffffffffff16815260200190815260200160002060006101000a81548160ff0219169083151502179055505050565b60008260000160008373ffffffffffffffffffffffffffffffffffffffff1673ffffffffffffffffffffffffffffffffffffffff16815260200190815260200160002060009054906101000a900460ff16905092915050565b60008260000160008373ffffffffffffffffffffffffffffffffffffffff1673ffffffffffffffffffffffffffffffffffffffff16815260200190815260200160002060006101000a81548160ff0219169083151502179055505050565b6000818301905082811015151561183457fe5b80905092915050565b600080831415611850576000905061186f565b818302905081838281151561186157fe5b0414151561186b57fe5b8090505b92915050565b6000818381151561188257fe5b049050929150505600a165627a7a72305820ba1583a6b48d416d6425d142f299124457317103ba94981e4840335d583597a30029",
  "source": "pragma solidity ^0.4.23;\n\nimport \"../Token/ERC223/woxToken.sol\";\nimport \"../Math/SafeMath.sol\";\nimport \"./WhitelistedVC.sol\";\n\ncontract BasicCrowdsale is WhtielistedVC {\n    using SafeMath for uint256;\n\n    woxToken public token;\n\n    address public wallet;\n\n    uint256 internal softcapWei;\n\n    uint256 public totalSupply;\n    uint256 public decimals;\n    string public tokenName;\n    string public tokenSymbol;\n\n    uint256 minVestingWeiPreICO;\n    uint256 maxVestingWeiPreICO;\n    uint256 minVestingWeiICO;\n    uint256 maxVestingWeiICO;\n\n    uint256 internal USD_PER_ETH;\n \n    uint256 public weiRaised;\n    mapping(address => uint256) depositedWei;\n\n    uint256 public tokenWeisSold;\n\n    event TokenPurchase(address indexed purchaser, address indexed beneficiary, uint256 value, uint256 amount);\n\n    // only owner should be able to send ether to this fallback\n    function () external payable {\n        buyTokens(msg.sender);\n    }\n\n    function buyTokens(address _beneficiary) \n    public \n    payable\n    onlyWhileIsOpened\n    onlyWhileNotClosed\n    purchaseAllowed\n    returns (uint256)\n    {\n        uint256 weiAmount = msg.value;\n        uint256 tokenWeis = _getTokenAmount(weiAmount);\n\n        _preValidatePurchase(_beneficiary, weiAmount, tokenWeis);\n\n        _updatePurchasingState(_beneficiary, weiAmount, tokenWeis);\n\n        _processPurchase(_beneficiary, tokenWeis);\n\n        emit TokenPurchase(msg.sender, _beneficiary, weiAmount, tokenWeis);\n    }\n\n    function _preValidatePurchase(address _beneficiary, uint256 _weiAmount, uint256 _tokenAmount) internal view {\n        require(_beneficiary != address(0));\n        require(_weiAmount != 0);\n        require(tokenWeisSold.add(_tokenAmount) <= currentSaleTokenWeiHardcap());\n        require(depositedWei[_beneficiary].add(_weiAmount) >= minVestingWei());\n        require(depositedWei[_beneficiary].add(_weiAmount) <= maxVestingWei());\n        if (currentTier() == TierStates.preICO) {\n            require(whtielistedAsVC(_beneficiary));\n        }\n    }\n\n    function _processPurchase(address _beneficiary, uint256 _tokenAmount) internal {\n        token.transfer(_beneficiary, _tokenAmount);\n    }\n\n    function _updatePurchasingState(address _beneficiary, uint256 _weiAmount, uint256 _tokenAmount) internal {\n        depositedWei[_beneficiary] = depositedWei[_beneficiary].add(_weiAmount);\n        tokenWeisSold = tokenWeisSold.add(_tokenAmount);\n        weiRaised = weiRaised.add(_weiAmount);\n    }\n\n    function minVestingWei() public view onlyWhileIsOpened onlyWhileNotClosed purchaseAllowed returns (uint256) {\n        if (currentTier() == TierStates.preICO) {\n            return minVestingWeiPreICO;\n        } else {\n            return minVestingWeiICO;\n        }\n    }\n\n    function maxVestingWei() public view onlyWhileIsOpened onlyWhileNotClosed purchaseAllowed returns (uint256) {\n        if (currentTier() == TierStates.preICO) {\n            return maxVestingWeiPreICO;\n        } else {\n            return maxVestingWeiICO;\n        }\n    }\n\n    function _getTokenAmount(uint256 _weiAmount) internal view returns (uint256) {\n        uint256 _tokeWeisPerEth = currentTierTokenWeisPerEth();\n        return _weiAmount.mul(_tokeWeisPerEth).div(10 ** decimals);\n    }\n\n    function getWeiRaised() public view returns(uint256) {\n        return weiRaised;\n    }\n\n    function withdraw(address _wallet, uint256 _weiAmount) onlyOwner {\n        require(_wallet != address(0));\n        require(_weiAmount != 0);\n        require(_weiAmount <= weiRaised);\n        _wallet.transfer(_weiAmount);\n    }\n}\n",
  "sourcePath": "G:\\Root\\Blockchain\\BAX\\contracts\\crowdSale\\BasicCrowdsale.sol",
  "compiler": {
    "name": "solc",
    "version": "0.4.23+commit.124ca40d.Emscripten.clang"
  },
  "schemaVersion": "2.0.0",
  "updatedAt": "2018-06-07T05:53:54.983Z"
}