{
  "contractName": "BAXCrowdsale",
  "abi": [
    {
      "constant": false,
      "inputs": [
        {
          "name": "_grantee",
          "type": "address"
        }
      ],
      "name": "removeFromGrantees",
      "outputs": [],
      "payable": false,
      "stateMutability": "nonpayable",
      "type": "function"
    },
    {
      "constant": true,
      "inputs": [],
      "name": "currentSaleHardcap",
      "outputs": [
        {
          "name": "",
          "type": "uint256"
        }
      ],
      "payable": false,
      "stateMutability": "view",
      "type": "function"
    },
    {
      "constant": true,
      "inputs": [],
      "name": "hasClosed",
      "outputs": [
        {
          "name": "",
          "type": "bool"
        }
      ],
      "payable": false,
      "stateMutability": "view",
      "type": "function"
    },
    {
      "constant": true,
      "inputs": [],
      "name": "grantedTokens",
      "outputs": [
        {
          "name": "",
          "type": "uint256"
        }
      ],
      "payable": false,
      "stateMutability": "view",
      "type": "function"
    },
    {
      "constant": true,
      "inputs": [],
      "name": "currentTierHardcap",
      "outputs": [
        {
          "name": "",
          "type": "uint256"
        }
      ],
      "payable": false,
      "stateMutability": "view",
      "type": "function"
    },
    {
      "constant": true,
      "inputs": [],
      "name": "maxVestingEth",
      "outputs": [
        {
          "name": "",
          "type": "uint256"
        }
      ],
      "payable": false,
      "stateMutability": "view",
      "type": "function"
    },
    {
      "constant": true,
      "inputs": [],
      "name": "weiRaised",
      "outputs": [
        {
          "name": "",
          "type": "uint256"
        }
      ],
      "payable": false,
      "stateMutability": "view",
      "type": "function"
    },
    {
      "constant": false,
      "inputs": [],
      "name": "finalize",
      "outputs": [],
      "payable": false,
      "stateMutability": "nonpayable",
      "type": "function"
    },
    {
      "constant": true,
      "inputs": [],
      "name": "tokenSold",
      "outputs": [
        {
          "name": "",
          "type": "uint256"
        }
      ],
      "payable": false,
      "stateMutability": "view",
      "type": "function"
    },
    {
      "constant": true,
      "inputs": [],
      "name": "wallet",
      "outputs": [
        {
          "name": "",
          "type": "address"
        }
      ],
      "payable": false,
      "stateMutability": "view",
      "type": "function"
    },
    {
      "constant": true,
      "inputs": [],
      "name": "grantHardcapToken",
      "outputs": [
        {
          "name": "",
          "type": "uint256"
        }
      ],
      "payable": false,
      "stateMutability": "view",
      "type": "function"
    },
    {
      "constant": false,
      "inputs": [
        {
          "name": "_vc",
          "type": "address"
        }
      ],
      "name": "addToVC",
      "outputs": [],
      "payable": false,
      "stateMutability": "nonpayable",
      "type": "function"
    },
    {
      "constant": false,
      "inputs": [],
      "name": "renounceOwnership",
      "outputs": [],
      "payable": false,
      "stateMutability": "nonpayable",
      "type": "function"
    },
    {
      "constant": true,
      "inputs": [
        {
          "name": "_vc",
          "type": "address"
        }
      ],
      "name": "whtielistedAsVC",
      "outputs": [
        {
          "name": "",
          "type": "bool"
        }
      ],
      "payable": false,
      "stateMutability": "view",
      "type": "function"
    },
    {
      "constant": true,
      "inputs": [],
      "name": "goalReached",
      "outputs": [
        {
          "name": "",
          "type": "bool"
        }
      ],
      "payable": false,
      "stateMutability": "view",
      "type": "function"
    },
    {
      "constant": true,
      "inputs": [],
      "name": "grantHardcapTokenPerEach",
      "outputs": [
        {
          "name": "",
          "type": "uint256"
        }
      ],
      "payable": false,
      "stateMutability": "view",
      "type": "function"
    },
    {
      "constant": true,
      "inputs": [],
      "name": "owner",
      "outputs": [
        {
          "name": "",
          "type": "address"
        }
      ],
      "payable": false,
      "stateMutability": "view",
      "type": "function"
    },
    {
      "constant": true,
      "inputs": [],
      "name": "minVestingEth",
      "outputs": [
        {
          "name": "",
          "type": "uint256"
        }
      ],
      "payable": false,
      "stateMutability": "view",
      "type": "function"
    },
    {
      "constant": true,
      "inputs": [],
      "name": "referralTokens",
      "outputs": [
        {
          "name": "",
          "type": "uint256"
        }
      ],
      "payable": false,
      "stateMutability": "view",
      "type": "function"
    },
    {
      "constant": false,
      "inputs": [
        {
          "name": "_referrer",
          "type": "address"
        },
        {
          "name": "_amount",
          "type": "uint256"
        }
      ],
      "name": "PayReferrals",
      "outputs": [],
      "payable": false,
      "stateMutability": "nonpayable",
      "type": "function"
    },
    {
      "constant": false,
      "inputs": [
        {
          "name": "_vc",
          "type": "address"
        }
      ],
      "name": "removeFromVC",
      "outputs": [],
      "payable": false,
      "stateMutability": "nonpayable",
      "type": "function"
    },
    {
      "constant": true,
      "inputs": [],
      "name": "currentTierTokenPerEth",
      "outputs": [
        {
          "name": "",
          "type": "uint256"
        }
      ],
      "payable": false,
      "stateMutability": "view",
      "type": "function"
    },
    {
      "constant": true,
      "inputs": [],
      "name": "MaxReferralTokens",
      "outputs": [
        {
          "name": "",
          "type": "uint256"
        }
      ],
      "payable": false,
      "stateMutability": "view",
      "type": "function"
    },
    {
      "constant": true,
      "inputs": [],
      "name": "hasOpened",
      "outputs": [
        {
          "name": "",
          "type": "bool"
        }
      ],
      "payable": false,
      "stateMutability": "view",
      "type": "function"
    },
    {
      "constant": false,
      "inputs": [
        {
          "name": "_grantee",
          "type": "address"
        },
        {
          "name": "_tokenAmount",
          "type": "uint256"
        }
      ],
      "name": "grantTokens",
      "outputs": [],
      "payable": false,
      "stateMutability": "nonpayable",
      "type": "function"
    },
    {
      "constant": true,
      "inputs": [],
      "name": "currentTier",
      "outputs": [
        {
          "name": "",
          "type": "uint8"
        }
      ],
      "payable": false,
      "stateMutability": "view",
      "type": "function"
    },
    {
      "constant": true,
      "inputs": [],
      "name": "hardcapTokens",
      "outputs": [
        {
          "name": "",
          "type": "uint256"
        }
      ],
      "payable": false,
      "stateMutability": "view",
      "type": "function"
    },
    {
      "constant": false,
      "inputs": [
        {
          "name": "_grantee",
          "type": "address"
        }
      ],
      "name": "addToGrantees",
      "outputs": [],
      "payable": false,
      "stateMutability": "nonpayable",
      "type": "function"
    },
    {
      "constant": false,
      "inputs": [
        {
          "name": "_beneficiary",
          "type": "address"
        }
      ],
      "name": "buyTokens",
      "outputs": [],
      "payable": true,
      "stateMutability": "payable",
      "type": "function"
    },
    {
      "constant": false,
      "inputs": [
        {
          "name": "newOwner",
          "type": "address"
        }
      ],
      "name": "transferOwnership",
      "outputs": [],
      "payable": false,
      "stateMutability": "nonpayable",
      "type": "function"
    },
    {
      "constant": true,
      "inputs": [
        {
          "name": "_grantee",
          "type": "address"
        }
      ],
      "name": "whitelistedAsGrantee",
      "outputs": [
        {
          "name": "",
          "type": "bool"
        }
      ],
      "payable": false,
      "stateMutability": "view",
      "type": "function"
    },
    {
      "constant": false,
      "inputs": [
        {
          "name": "_investor",
          "type": "address"
        }
      ],
      "name": "refund",
      "outputs": [],
      "payable": false,
      "stateMutability": "nonpayable",
      "type": "function"
    },
    {
      "constant": true,
      "inputs": [],
      "name": "token",
      "outputs": [
        {
          "name": "",
          "type": "address"
        }
      ],
      "payable": false,
      "stateMutability": "view",
      "type": "function"
    },
    {
      "inputs": [
        {
          "name": "_cliff",
          "type": "uint256"
        },
        {
          "name": "_ETH_USD",
          "type": "uint256"
        },
        {
          "name": "_wallet",
          "type": "address"
        },
        {
          "name": "_tokenAddress",
          "type": "address"
        }
      ],
      "payable": false,
      "stateMutability": "nonpayable",
      "type": "constructor"
    },
    {
      "payable": true,
      "stateMutability": "payable",
      "type": "fallback"
    },
    {
      "anonymous": false,
      "inputs": [
        {
          "indexed": true,
          "name": "sender",
          "type": "address"
        },
        {
          "indexed": true,
          "name": "referre",
          "type": "address"
        },
        {
          "indexed": false,
          "name": "amount",
          "type": "uint256"
        }
      ],
      "name": "ReferralTokenPaid",
      "type": "event"
    },
    {
      "anonymous": false,
      "inputs": [
        {
          "indexed": false,
          "name": "_investor",
          "type": "address"
        },
        {
          "indexed": false,
          "name": "_depositedValue",
          "type": "uint256"
        }
      ],
      "name": "Refunded",
      "type": "event"
    },
    {
      "anonymous": false,
      "inputs": [
        {
          "indexed": true,
          "name": "sender",
          "type": "address"
        },
        {
          "indexed": true,
          "name": "grantee",
          "type": "address"
        },
        {
          "indexed": false,
          "name": "amount",
          "type": "uint256"
        }
      ],
      "name": "TokenGranted",
      "type": "event"
    },
    {
      "anonymous": false,
      "inputs": [],
      "name": "Finalized",
      "type": "event"
    },
    {
      "anonymous": false,
      "inputs": [],
      "name": "Closed",
      "type": "event"
    },
    {
      "anonymous": false,
      "inputs": [
        {
          "indexed": true,
          "name": "purchaser",
          "type": "address"
        },
        {
          "indexed": true,
          "name": "beneficiary",
          "type": "address"
        },
        {
          "indexed": false,
          "name": "value",
          "type": "uint256"
        },
        {
          "indexed": false,
          "name": "amount",
          "type": "uint256"
        }
      ],
      "name": "TokenPurchase",
      "type": "event"
    },
    {
      "anonymous": false,
      "inputs": [
        {
          "indexed": true,
          "name": "previousOwner",
          "type": "address"
        }
      ],
      "name": "OwnershipRenounced",
      "type": "event"
    },
    {
      "anonymous": false,
      "inputs": [
        {
          "indexed": true,
          "name": "previousOwner",
          "type": "address"
        },
        {
          "indexed": true,
          "name": "newOwner",
          "type": "address"
        }
      ],
      "name": "OwnershipTransferred",
      "type": "event"
    }
  ],
  "bytecode": "0x60806040526a18d0bf423c03d8de0000006015553480156200002057600080fd5b5060405160808062002ff983398101806040528101908080519060200190929190805190602001909291908051906020019092919080519060200190929190505050600033600160006101000a81548173ffffffffffffffffffffffffffffffffffffffff021916908373ffffffffffffffffffffffffffffffffffffffff160217905550600073ffffffffffffffffffffffffffffffffffffffff168373ffffffffffffffffffffffffffffffffffffffff1614151515620000e257600080fd5b600073ffffffffffffffffffffffffffffffffffffffff168273ffffffffffffffffffffffffffffffffffffffff16141515156200011f57600080fd5b844201905083600b81905550633b9aca006006819055506200015e600b54622dc6c0620008436401000000000262002563179091906401000000009004565b600581905550620001b5670de0b6b3a764000062000198600b5461c350620008436401000000000262002563179091906401000000009004565b6200085a640100000000026200252b179091906401000000009004565b6007819055506200020d670de0b6b3a7640000620001f0600b546207a120620008436401000000000262002563179091906401000000009004565b6200085a640100000000026200252b179091906401000000009004565b60088190555067016345785d8a0000600981905550681043561a8829300000600a819055506200025881620d2f00830160008060008062000896640100000000026401000000009004565b6200034560006001600080549050038154811015156200027457fe5b90600052602060002090600602016002015462278d006000600160008054905003815481101515620002a257fe5b90600052602060002090600602016002015401620002e4670de0b6b3a76400006307270e006200085a640100000000026200252b179091906401000000009004565b6200032d6064620003106008600b54620008436401000000000262002563179091906401000000009004565b6200085a640100000000026200252b179091906401000000009004565b60018062000896640100000000026401000000009004565b620003be60006001600080549050038154811015156200036157fe5b906000526020600020906006020160020154620d2f0060006001600080549050038154811015156200038f57fe5b906000526020600020906006020160020154016000806000600262000896640100000000026401000000009004565b620004ac6000600160008054905003815481101515620003da57fe5b90600052602060002090600602016002015462093a8060006001600080549050038154811015156200040857fe5b906000526020600020906006020160020154016200044a670de0b6b3a764000063077359406200085a640100000000026200252b179091906401000000009004565b62000493606462000476600c600b54620008436401000000000262002563179091906401000000009004565b6200085a640100000000026200252b179091906401000000009004565b6001600362000896640100000000026401000000009004565b6200059a6000600160008054905003815481101515620004c857fe5b90600052602060002090600602016002015462093a806000600160008054905003815481101515620004f657fe5b9060005260206000209060060201600201540162000538670de0b6b3a764000063077359406200085a640100000000026200252b179091906401000000009004565b62000581606462000564600d600b54620008436401000000000262002563179091906401000000009004565b6200085a640100000000026200252b179091906401000000009004565b6001600462000896640100000000026401000000009004565b620006886000600160008054905003815481101515620005b657fe5b90600052602060002090600602016002015462093a806000600160008054905003815481101515620005e457fe5b9060005260206000209060060201600201540162000626670de0b6b3a764000063077359406200085a640100000000026200252b179091906401000000009004565b6200066f606462000652600e600b54620008436401000000000262002563179091906401000000009004565b6200085a640100000000026200252b179091906401000000009004565b6001600562000896640100000000026401000000009004565b620007766000600160008054905003815481101515620006a457fe5b90600052602060002090600602016002015462093a806000600160008054905003815481101515620006d257fe5b9060005260206000209060060201600201540162000714670de0b6b3a764000063077359406200085a640100000000026200252b179091906401000000009004565b6200075d606462000740600f600b54620008436401000000000262002563179091906401000000009004565b6200085a640100000000026200252b179091906401000000009004565b6001600662000896640100000000026401000000009004565b82600460006101000a81548173ffffffffffffffffffffffffffffffffffffffff021916908373ffffffffffffffffffffffffffffffffffffffff1602179055506000600f60006101000a81548160ff02191690836002811115620007d757fe5b02179055506000600f60016101000a81548160ff02191690831515021790555081600360006101000a81548173ffffffffffffffffffffffffffffffffffffffff021916908373ffffffffffffffffffffffffffffffffffffffff160217905550505050505062000a44565b600081838115156200085157fe5b04905092915050565b6000808314156200086f576000905062000890565b81830290508183828115156200088157fe5b041415156200088c57fe5b8090505b92915050565b620008a0620009ff565b600080805490501115620008f7576000600160008054905003815481101515620008c657fe5b9060005260206000209060060201600201548710151515620008e757600080fd5b8686111515620008f657600080fd5b5b81816000019060068111156200090957fe5b908160068111156200091757fe5b8152505086816020018181525050858160400181815250508481606001818152505083816080018181525050828160a00190151590811515815250506000819080600181540180825580915050906001820390600052602060002090600602016000909192909190915060008201518160000160006101000a81548160ff02191690836006811115620009a657fe5b02179055506020820151816001015560408201518160020155606082015181600301556080820151816004015560a08201518160050160006101000a81548160ff02191690831515021790555050505050505050505050565b60c0604051908101604052806000600681111562000a1957fe5b8152602001600081526020016000815260200160008152602001600081526020016000151581525090565b6125a58062000a546000396000f3006080604052600436106101a1576000357c0100000000000000000000000000000000000000000000000000000000900463ffffffff1680630425b553146101ac578063125ff682146101ef5780631515bc2b1461021a5780631ee42bcf14610249578063301df9dd146102745780633dd2b7ae1461029f5780634042b66f146102ca5780634bb278f3146102f5578063519ee19e1461030c578063521eb2731461033757806352f646811461038e57806353fe21ad146103b9578063715018a6146103fc578063792d7ec3146104135780637d3d65221461046e578063893796401461049d5780638da5cb5b146104c8578063918f72c51461051f5780639303b0b81461054a5780639a543d4f146105755780639fb160aa146105c2578063a80baef514610605578063b64657a714610630578063be8eef8e1461065b578063c94e643c1461068a578063d679677a146106d7578063e2ff3ddc14610710578063e996a3dd1461073b578063ec8ac4d81461077e578063f2fde38b146107b4578063f556f4f7146107f7578063fa89401a14610852578063fc0c546a14610895575b6101aa336108ec565b005b3480156101b857600080fd5b506101ed600480360381019080803573ffffffffffffffffffffffffffffffffffffffff169060200190929190505050610989565b005b3480156101fb57600080fd5b50610204610aaa565b6040518082815260200191505060405180910390f35b34801561022657600080fd5b5061022f610b0d565b604051808215151515815260200191505060405180910390f35b34801561025557600080fd5b5061025e610b3e565b6040518082815260200191505060405180910390f35b34801561028057600080fd5b50610289610b44565b6040518082815260200191505060405180910390f35b3480156102ab57600080fd5b506102b4610b72565b6040518082815260200191505060405180910390f35b3480156102d657600080fd5b506102df610c14565b6040518082815260200191505060405180910390f35b34801561030157600080fd5b5061030a610c1a565b005b34801561031857600080fd5b50610321610cf6565b6040518082815260200191505060405180910390f35b34801561034357600080fd5b5061034c610cfc565b604051808273ffffffffffffffffffffffffffffffffffffffff1673ffffffffffffffffffffffffffffffffffffffff16815260200191505060405180910390f35b34801561039a57600080fd5b506103a3610d22565b6040518082815260200191505060405180910390f35b3480156103c557600080fd5b506103fa600480360381019080803573ffffffffffffffffffffffffffffffffffffffff169060200190929190505050610d28565b005b34801561040857600080fd5b50610411610e49565b005b34801561041f57600080fd5b50610454600480360381019080803573ffffffffffffffffffffffffffffffffffffffff169060200190929190505050610f4e565b604051808215151515815260200191505060405180910390f35b34801561047a57600080fd5b50610483610f6b565b604051808215151515815260200191505060405180910390f35b3480156104a957600080fd5b506104b2610f7a565b6040518082815260200191505060405180910390f35b3480156104d457600080fd5b506104dd610f80565b604051808273ffffffffffffffffffffffffffffffffffffffff1673ffffffffffffffffffffffffffffffffffffffff16815260200191505060405180910390f35b34801561052b57600080fd5b50610534610fa6565b6040518082815260200191505060405180910390f35b34801561055657600080fd5b5061055f611048565b6040518082815260200191505060405180910390f35b34801561058157600080fd5b506105c0600480360381019080803573ffffffffffffffffffffffffffffffffffffffff1690602001909291908035906020019092919050505061104e565b005b3480156105ce57600080fd5b50610603600480360381019080803573ffffffffffffffffffffffffffffffffffffffff1690602001909291905050506112ba565b005b34801561061157600080fd5b5061061a6113db565b6040518082815260200191505060405180910390f35b34801561063c57600080fd5b50610645611409565b6040518082815260200191505060405180910390f35b34801561066757600080fd5b5061067061140f565b604051808215151515815260200191505060405180910390f35b34801561069657600080fd5b506106d5600480360381019080803573ffffffffffffffffffffffffffffffffffffffff1690602001909291908035906020019092919050505061143a565b005b3480156106e357600080fd5b506106ec6119b9565b604051808260068111156106fc57fe5b60ff16815260200191505060405180910390f35b34801561071c57600080fd5b506107256119f4565b6040518082815260200191505060405180910390f35b34801561074757600080fd5b5061077c600480360381019080803573ffffffffffffffffffffffffffffffffffffffff1690602001909291905050506119fa565b005b6107b2600480360381019080803573ffffffffffffffffffffffffffffffffffffffff1690602001909291905050506108ec565b005b3480156107c057600080fd5b506107f5600480360381019080803573ffffffffffffffffffffffffffffffffffffffff169060200190929190505050611b1b565b005b34801561080357600080fd5b50610838600480360381019080803573ffffffffffffffffffffffffffffffffffffffff169060200190929190505050611c73565b604051808215151515815260200191505060405180910390f35b34801561085e57600080fd5b50610893600480360381019080803573ffffffffffffffffffffffffffffffffffffffff169060200190929190505050611c90565b005b3480156108a157600080fd5b506108aa611e6d565b604051808273ffffffffffffffffffffffffffffffffffffffff1673ffffffffffffffffffffffffffffffffffffffff16815260200191505060405180910390f35b6000806108f761140f565b151561090257600080fd5b61090a610b0d565b15151561091657600080fd5b6000610920611e93565b81548110151561092c57fe5b906000526020600020906006020160050160009054906101000a900460ff16151561095657600080fd5b34915061096282611f3c565b905061096f838383611f64565b61097a8383836120e8565b61098483826121b8565b505050565b6000600681111561099657fe5b60006109a0611e93565b8154811015156109ac57fe5b906000526020600020906006020160000160009054906101000a900460ff1660068111156109d657fe5b1480610a2c5750600260068111156109ea57fe5b60006109f4611e93565b815481101515610a0057fe5b906000526020600020906006020160000160009054906101000a900460ff166006811115610a2a57fe5b145b1515610a3757600080fd5b600160009054906101000a900473ffffffffffffffffffffffffffffffffffffffff1673ffffffffffffffffffffffffffffffffffffffff163373ffffffffffffffffffffffffffffffffffffffff16141515610a9357600080fd5b610aa78160126122bd90919063ffffffff16565b50565b60008060008090505b610abb611e93565b81111515610b0557610af6600082815481101515610ad557fe5b9060005260206000209060060201600301548361231b90919063ffffffff16565b91508080600101915050610ab3565b819250505090565b600080600160008054905003815481101515610b2557fe5b9060005260206000209060060201600201544211905090565b60135481565b600080610b4f611e93565b815481101515610b5b57fe5b906000526020600020906006020160030154905090565b6000610b7c61140f565b1515610b8757600080fd5b610b8f610b0d565b151515610b9b57600080fd5b6000610ba5611e93565b815481101515610bb157fe5b906000526020600020906006020160050160009054906101000a900460ff161515610bdb57600080fd5b60016006811115610be857fe5b610bf06119b9565b6006811115610bfb57fe5b1415610c0b576008549050610c11565b600a5490505b90565b600c5481565b600160009054906101000a900473ffffffffffffffffffffffffffffffffffffffff1673ffffffffffffffffffffffffffffffffffffffff163373ffffffffffffffffffffffffffffffffffffffff16141515610c7657600080fd5b600f60019054906101000a900460ff16151515610c9257600080fd5b610c9a610b0d565b1515610ca557600080fd5b610cad612337565b6001600f60016101000a81548160ff0219169083151502179055507f6823b073d48d6e3a7d385eeb601452d680e74bb46afe3255a7d778f3a9b1768160405160405180910390a1565b600e5481565b600460009054906101000a900473ffffffffffffffffffffffffffffffffffffffff1681565b60105481565b600160009054906101000a900473ffffffffffffffffffffffffffffffffffffffff1673ffffffffffffffffffffffffffffffffffffffff163373ffffffffffffffffffffffffffffffffffffffff16141515610d8457600080fd5b60006006811115610d9157fe5b6000610d9b611e93565b815481101515610da757fe5b906000526020600020906006020160000160009054906101000a900460ff166006811115610dd157fe5b1480610e27575060026006811115610de557fe5b6000610def611e93565b815481101515610dfb57fe5b906000526020600020906006020160000160009054906101000a900460ff166006811115610e2557fe5b145b1515610e3257600080fd5b610e4681600261247490919063ffffffff16565b50565b600160009054906101000a900473ffffffffffffffffffffffffffffffffffffffff1673ffffffffffffffffffffffffffffffffffffffff163373ffffffffffffffffffffffffffffffffffffffff16141515610ea557600080fd5b600160009054906101000a900473ffffffffffffffffffffffffffffffffffffffff1673ffffffffffffffffffffffffffffffffffffffff167ff8df31144d9c2f0f6b59d69b8b98abd5459d07f2742c4df920b25aae33c6482060405160405180910390a26000600160006101000a81548173ffffffffffffffffffffffffffffffffffffffff021916908373ffffffffffffffffffffffffffffffffffffffff160217905550565b6000610f648260026124d290919063ffffffff16565b9050919050565b6000600554600c541015905090565b60115481565b600160009054906101000a900473ffffffffffffffffffffffffffffffffffffffff1681565b6000610fb061140f565b1515610fbb57600080fd5b610fc3610b0d565b151515610fcf57600080fd5b6000610fd9611e93565b815481101515610fe557fe5b906000526020600020906006020160050160009054906101000a900460ff16151561100f57600080fd5b6001600681111561101c57fe5b6110246119b9565b600681111561102f57fe5b141561103f576007549050611045565b60095490505b90565b60165481565b600160009054906101000a900473ffffffffffffffffffffffffffffffffffffffff1673ffffffffffffffffffffffffffffffffffffffff163373ffffffffffffffffffffffffffffffffffffffff161415156110aa57600080fd5b60006110b4611e93565b8154811015156110c057fe5b906000526020600020906006020160050160009054906101000a900460ff1615156110ea57600080fd5b600073ffffffffffffffffffffffffffffffffffffffff168273ffffffffffffffffffffffffffffffffffffffff161415151561112657600080fd5b6000811415151561113657600080fd5b60155461114e8260165461231b90919063ffffffff16565b1115151561115b57600080fd5b6111ad81601760008573ffffffffffffffffffffffffffffffffffffffff1673ffffffffffffffffffffffffffffffffffffffff1681526020019081526020016000205461231b90919063ffffffff16565b601760008473ffffffffffffffffffffffffffffffffffffffff1673ffffffffffffffffffffffffffffffffffffffff168152602001908152602001600020819055506112058160165461231b90919063ffffffff16565b60168190555061122f8261122a670de0b6b3a76400008461252b90919063ffffffff16565b6121b8565b8173ffffffffffffffffffffffffffffffffffffffff16600160009054906101000a900473ffffffffffffffffffffffffffffffffffffffff1673ffffffffffffffffffffffffffffffffffffffff167f3dd247ca176cfa1531a4faf4ef926c52f3201b3056f8d738306f4383fa700d04836040518082815260200191505060405180910390a35050565b600160009054906101000a900473ffffffffffffffffffffffffffffffffffffffff1673ffffffffffffffffffffffffffffffffffffffff163373ffffffffffffffffffffffffffffffffffffffff1614151561131657600080fd5b6000600681111561132357fe5b600061132d611e93565b81548110151561133957fe5b906000526020600020906006020160000160009054906101000a900460ff16600681111561136357fe5b14806113b957506002600681111561137757fe5b6000611381611e93565b81548110151561138d57fe5b906000526020600020906006020160000160009054906101000a900460ff1660068111156113b757fe5b145b15156113c457600080fd5b6113d88160026122bd90919063ffffffff16565b50565b6000806113e6611e93565b8154811015156113f257fe5b906000526020600020906006020160040154905090565b60155481565b600080600081548110151561142057fe5b906000526020600020906006020160010154421015905090565b600160009054906101000a900473ffffffffffffffffffffffffffffffffffffffff1673ffffffffffffffffffffffffffffffffffffffff163373ffffffffffffffffffffffffffffffffffffffff1614151561149657600080fd5b61149e61140f565b15156114a957600080fd5b6114b1610b0d565b1515156114bd57600080fd5b600060068111156114ca57fe5b6114d26119b9565b60068111156114dd57fe5b141515156114ea57600080fd5b600160068111156114f757fe5b6114ff6119b9565b600681111561150a57fe5b1415151561151757600080fd5b8161152181611c73565b151561152c57600080fd5b600073ffffffffffffffffffffffffffffffffffffffff168373ffffffffffffffffffffffffffffffffffffffff161415151561156857600080fd5b6000821415151561157857600080fd5b6011546115cd83601460008773ffffffffffffffffffffffffffffffffffffffff1673ffffffffffffffffffffffffffffffffffffffff1681526020019081526020016000205461231b90919063ffffffff16565b111515156115da57600080fd5b6010546115f28360135461231b90919063ffffffff16565b111515156115ff57600080fd5b61165182601460008673ffffffffffffffffffffffffffffffffffffffff1673ffffffffffffffffffffffffffffffffffffffff1681526020019081526020016000205461231b90919063ffffffff16565b601460008573ffffffffffffffffffffffffffffffffffffffff1673ffffffffffffffffffffffffffffffffffffffff168152602001908152602001600020819055506116a98260135461231b90919063ffffffff16565b601381905550600360009054906101000a900473ffffffffffffffffffffffffffffffffffffffff1673ffffffffffffffffffffffffffffffffffffffff166343af57d68461172f600a6117216003611713670de0b6b3a76400008a61252b90919063ffffffff16565b61252b90919063ffffffff16565b61256390919063ffffffff16565b600060016000805490500381548110151561174657fe5b9060005260206000209060060201600201546040518463ffffffff167c0100000000000000000000000000000000000000000000000000000000028152600401808473ffffffffffffffffffffffffffffffffffffffff1673ffffffffffffffffffffffffffffffffffffffff1681526020018381526020018281526020019350505050600060405180830381600087803b1580156117e457600080fd5b505af11580156117f8573d6000803e3d6000fd5b50505050600360009054906101000a900473ffffffffffffffffffffffffffffffffffffffff1673ffffffffffffffffffffffffffffffffffffffff166343af57d68461187c600a61186e6007611860670de0b6b3a76400008a61252b90919063ffffffff16565b61252b90919063ffffffff16565b61256390919063ffffffff16565b6301e13380600060016000805490500381548110151561189857fe5b906000526020600020906006020160020154016040518463ffffffff167c0100000000000000000000000000000000000000000000000000000000028152600401808473ffffffffffffffffffffffffffffffffffffffff1673ffffffffffffffffffffffffffffffffffffffff1681526020018381526020018281526020019350505050600060405180830381600087803b15801561193757600080fd5b505af115801561194b573d6000803e3d6000fd5b505050508273ffffffffffffffffffffffffffffffffffffffff163373ffffffffffffffffffffffffffffffffffffffff167fa6e5a578d42fd913bd5bad70a2ae524a02ea5bcfa6ca06b309333095c155b84e846040518082815260200191505060405180910390a3505050565b6000806119c4611e93565b8154811015156119d057fe5b906000526020600020906006020160000160009054906101000a900460ff16905090565b60065481565b60006006811115611a0757fe5b6000611a11611e93565b815481101515611a1d57fe5b906000526020600020906006020160000160009054906101000a900460ff166006811115611a4757fe5b1480611a9d575060026006811115611a5b57fe5b6000611a65611e93565b815481101515611a7157fe5b906000526020600020906006020160000160009054906101000a900460ff166006811115611a9b57fe5b145b1515611aa857600080fd5b600160009054906101000a900473ffffffffffffffffffffffffffffffffffffffff1673ffffffffffffffffffffffffffffffffffffffff163373ffffffffffffffffffffffffffffffffffffffff16141515611b0457600080fd5b611b1881601261247490919063ffffffff16565b50565b600160009054906101000a900473ffffffffffffffffffffffffffffffffffffffff1673ffffffffffffffffffffffffffffffffffffffff163373ffffffffffffffffffffffffffffffffffffffff16141515611b7757600080fd5b600073ffffffffffffffffffffffffffffffffffffffff168173ffffffffffffffffffffffffffffffffffffffff1614151515611bb357600080fd5b8073ffffffffffffffffffffffffffffffffffffffff16600160009054906101000a900473ffffffffffffffffffffffffffffffffffffffff1673ffffffffffffffffffffffffffffffffffffffff167f8be0079c531659141344cd1fd0a4f28419497f9722a3daafe3b4186f6b6457e060405160405180910390a380600160006101000a81548173ffffffffffffffffffffffffffffffffffffffff021916908373ffffffffffffffffffffffffffffffffffffffff16021790555050565b6000611c898260126124d290919063ffffffff16565b9050919050565b6000600f60019054906101000a900460ff161515611cad57600080fd5b60016002811115611cba57fe5b600f60009054906101000a900460ff166002811115611cd557fe5b141515611ce157600080fd5b6000600d60008473ffffffffffffffffffffffffffffffffffffffff1673ffffffffffffffffffffffffffffffffffffffff1681526020019081526020016000205414151515611d3057600080fd5b600d60008373ffffffffffffffffffffffffffffffffffffffff1673ffffffffffffffffffffffffffffffffffffffff1681526020019081526020016000205490506000600d60008473ffffffffffffffffffffffffffffffffffffffff1673ffffffffffffffffffffffffffffffffffffffff168152602001908152602001600020819055508173ffffffffffffffffffffffffffffffffffffffff166108fc829081150290604051600060405180830381858888f19350505050158015611dfd573d6000803e3d6000fd5b507fd7dee2702d63ad89917b6a4da9981c90c4d24f8c2bdfd64c604ecae57d8d06518282604051808373ffffffffffffffffffffffffffffffffffffffff1673ffffffffffffffffffffffffffffffffffffffff1681526020018281526020019250505060405180910390a15050565b600360009054906101000a900473ffffffffffffffffffffffffffffffffffffffff1681565b600080611e9e61140f565b1515611ea957600080fd5b611eb1610b0d565b151515611ebd57600080fd5b600090505b600080549050811015611f3757600081815481101515611ede57fe5b90600052602060002090600602016001015442118015611f1d5750600081815481101515611f0857fe5b90600052602060002090600602016002015442105b15611f2a57809150611f38565b8080600101915050611ec2565b5b5090565b600080611f476113db565b9050611f5c818461252b90919063ffffffff16565b915050919050565b600073ffffffffffffffffffffffffffffffffffffffff168373ffffffffffffffffffffffffffffffffffffffff1614151515611fa057600080fd5b60008214151515611fb057600080fd5b611fb8610aaa565b611fcd82600e5461231b90919063ffffffff16565b11151515611fda57600080fd5b611fe2610fa6565b61203483600d60008773ffffffffffffffffffffffffffffffffffffffff1673ffffffffffffffffffffffffffffffffffffffff1681526020019081526020016000205461231b90919063ffffffff16565b1015151561204157600080fd5b612049610b72565b61209b83600d60008773ffffffffffffffffffffffffffffffffffffffff1673ffffffffffffffffffffffffffffffffffffffff1681526020019081526020016000205461231b90919063ffffffff16565b111515156120a857600080fd5b600160068111156120b557fe5b6120bd6119b9565b60068111156120c857fe5b14156120e3576120d783610f4e565b15156120e257600080fd5b5b505050565b61213a82600d60008673ffffffffffffffffffffffffffffffffffffffff1673ffffffffffffffffffffffffffffffffffffffff1681526020019081526020016000205461231b90919063ffffffff16565b600d60008573ffffffffffffffffffffffffffffffffffffffff1673ffffffffffffffffffffffffffffffffffffffff1681526020019081526020016000208190555061219281600e5461231b90919063ffffffff16565b600e819055506121ad82600c5461231b90919063ffffffff16565b600c81905550505050565b600360009054906101000a900473ffffffffffffffffffffffffffffffffffffffff1673ffffffffffffffffffffffffffffffffffffffff1663a9059cbb83836040518363ffffffff167c0100000000000000000000000000000000000000000000000000000000028152600401808373ffffffffffffffffffffffffffffffffffffffff1673ffffffffffffffffffffffffffffffffffffffff16815260200182815260200192505050602060405180830381600087803b15801561227d57600080fd5b505af1158015612291573d6000803e3d6000fd5b505050506040513d60208110156122a757600080fd5b8101908080519060200190929190505050505050565b60008260000160008373ffffffffffffffffffffffffffffffffffffffff1673ffffffffffffffffffffffffffffffffffffffff16815260200190815260200160002060006101000a81548160ff0219169083151502179055505050565b6000818301905082811015151561232e57fe5b80905092915050565b6000600281111561234457fe5b600f60009054906101000a900460ff16600281111561235f57fe5b14151561236b57600080fd5b612373610f6b565b1561244d576002600f60006101000a81548160ff0219169083600281111561239757fe5b0217905550600460009054906101000a900473ffffffffffffffffffffffffffffffffffffffff1673ffffffffffffffffffffffffffffffffffffffff166108fc3073ffffffffffffffffffffffffffffffffffffffff16319081150290604051600060405180830381858888f1935050505015801561241b573d6000803e3d6000fd5b507f1cdde67b72a90f19919ac732a437ac2f7a10fc128d28c2a6e525d89ce5cd9d3a60405160405180910390a1612472565b6001600f60006101000a81548160ff0219169083600281111561246c57fe5b02179055505b565b60018260000160008373ffffffffffffffffffffffffffffffffffffffff1673ffffffffffffffffffffffffffffffffffffffff16815260200190815260200160002060006101000a81548160ff0219169083151502179055505050565b60008260000160008373ffffffffffffffffffffffffffffffffffffffff1673ffffffffffffffffffffffffffffffffffffffff16815260200190815260200160002060009054906101000a900460ff16905092915050565b60008083141561253e576000905061255d565b818302905081838281151561254f57fe5b0414151561255957fe5b8090505b92915050565b6000818381151561257057fe5b049050929150505600a165627a7a72305820e148579c87043d7fadc419c411658f55757305d1efbe2e347b65ed8d96a692ac0029",
  "source": "pragma solidity ^0.4.23;\r\n\r\nimport \"./BasicCrowdsale.sol\";\r\nimport \"./FinalizableCrowdsale.sol\";\r\nimport \"./GrantedCrowdsale.sol\";\r\nimport \"./RefundableCrowdsale.sol\";\r\nimport \"./ReferralCorwdsale.sol\";\r\n\r\ncontract BAXCrowdsale is \r\n    BasicCrowdsale,\r\n    FinalizableCrowdsale,\r\n    GrantedCrowdsale,\r\n    RefundableCrowdsale,\r\n    ReferralCrowdsale \r\n{\r\n    constructor(\r\n        uint256 _cliff,\r\n        uint256 _ETH_USD,\r\n        address _wallet,\r\n        address _tokenAddress\r\n        ) \r\n        public \r\n    {\r\n        require(_wallet != address(0));\r\n        require(_tokenAddress != address(0));\r\n\r\n        uint256 _openingTime = now + _cliff;\r\n        \r\n        ETH_USD = _ETH_USD;\r\n\r\n        hardcapTokens = 1e9;\r\n        softcapEth = uint256(3e6).div(ETH_USD);\r\n\r\n        minVestingEthPreICO = uint256(50e3).div(ETH_USD).mul(1 ether);\r\n        maxVestingEthPreICO = uint256(500e3).div(ETH_USD).mul(1 ether);\r\n        minVestingEthICO = 0.1 ether;\r\n        maxVestingEthICO = 300 ether;\r\n\r\n        addTier(\r\n            _openingTime, \r\n            _openingTime + 10 days, \r\n            0, \r\n            0,\r\n            false, \r\n            TierStates.preWhitelist);\r\n\r\n        addTier(\r\n            Tiers[Tiers.length-1].ending, \r\n            Tiers[Tiers.length-1].ending + 30 days, \r\n            uint256(120e6).mul(10 ** 18), \r\n            ETH_USD.div(8).mul(100),            \r\n            true, \r\n            TierStates.preICO);\r\n\r\n        addTier(\r\n            Tiers[Tiers.length-1].ending, \r\n            Tiers[Tiers.length-1].ending + 10 days, \r\n            0, \r\n            0, \r\n            false, \r\n            TierStates.Whitelist);\r\n\r\n        addTier(\r\n            Tiers[Tiers.length-1].ending, \r\n            Tiers[Tiers.length-1].ending + 7 days, \r\n            uint256(125e6).mul(10 ** 18), \r\n            ETH_USD.div(12).mul(100), \r\n            true, \r\n            TierStates.ICORound1);\r\n\r\n        addTier(\r\n            Tiers[Tiers.length-1].ending, \r\n            Tiers[Tiers.length-1].ending + 7 days, \r\n            uint256(125e6).mul(10 ** 18), \r\n            ETH_USD.div(13).mul(100), \r\n            true, \r\n            TierStates.ICORound2);\r\n\r\n        addTier(\r\n            Tiers[Tiers.length-1].ending, \r\n            Tiers[Tiers.length-1].ending + 7 days, \r\n            uint256(125e6).mul(10 ** 18), \r\n            ETH_USD.div(14).mul(100), \r\n            true, \r\n            TierStates.ICORound3);\r\n\r\n        addTier(\r\n            Tiers[Tiers.length-1].ending, \r\n            Tiers[Tiers.length-1].ending + 7 days, \r\n            uint256(125e6).mul(10 ** 18), \r\n            ETH_USD.div(15).mul(100), \r\n            true, \r\n            TierStates.ICORound4);\r\n\r\n        wallet = _wallet;\r\n        state = State.Active;\r\n        isFinalized = false;\r\n        token = baxToken(_tokenAddress);\r\n    }\r\n}",
  "sourcePath": "G:\\Root\\Blockchain\\BAX\\contracts\\crowdSale\\WOXCrowdsale.sol",
  "compiler": {
    "name": "solc",
    "version": "0.4.23+commit.124ca40d.Emscripten.clang"
  },
  "schemaVersion": "2.0.0",
  "updatedAt": "2018-06-04T04:28:57.400Z"
}