{
  "contractName": "ContributorsWhitelist",
  "abi": [
    {
      "constant": false,
      "inputs": [],
      "name": "renounceOwnership",
      "outputs": [],
      "payable": false,
      "stateMutability": "nonpayable",
      "type": "function"
    },
    {
      "constant": true,
      "inputs": [],
      "name": "owner",
      "outputs": [
        {
          "name": "",
          "type": "address"
        }
      ],
      "payable": false,
      "stateMutability": "view",
      "type": "function"
    },
    {
      "constant": false,
      "inputs": [
        {
          "name": "newOwner",
          "type": "address"
        }
      ],
      "name": "transferOwnership",
      "outputs": [],
      "payable": false,
      "stateMutability": "nonpayable",
      "type": "function"
    },
    {
      "anonymous": false,
      "inputs": [
        {
          "indexed": true,
          "name": "previousOwner",
          "type": "address"
        }
      ],
      "name": "OwnershipRenounced",
      "type": "event"
    },
    {
      "anonymous": false,
      "inputs": [
        {
          "indexed": true,
          "name": "previousOwner",
          "type": "address"
        },
        {
          "indexed": true,
          "name": "newOwner",
          "type": "address"
        }
      ],
      "name": "OwnershipTransferred",
      "type": "event"
    },
    {
      "constant": false,
      "inputs": [
        {
          "name": "_address",
          "type": "address"
        }
      ],
      "name": "addToVC",
      "outputs": [],
      "payable": false,
      "stateMutability": "nonpayable",
      "type": "function"
    },
    {
      "constant": false,
      "inputs": [
        {
          "name": "_address",
          "type": "address"
        }
      ],
      "name": "addToDevelopers",
      "outputs": [],
      "payable": false,
      "stateMutability": "nonpayable",
      "type": "function"
    },
    {
      "constant": false,
      "inputs": [
        {
          "name": "_address",
          "type": "address"
        }
      ],
      "name": "removeFromVC",
      "outputs": [],
      "payable": false,
      "stateMutability": "nonpayable",
      "type": "function"
    },
    {
      "constant": false,
      "inputs": [
        {
          "name": "_address",
          "type": "address"
        }
      ],
      "name": "removeFromDevelopers",
      "outputs": [],
      "payable": false,
      "stateMutability": "nonpayable",
      "type": "function"
    },
    {
      "constant": true,
      "inputs": [
        {
          "name": "_address",
          "type": "address"
        }
      ],
      "name": "checkVC",
      "outputs": [
        {
          "name": "",
          "type": "bool"
        }
      ],
      "payable": false,
      "stateMutability": "view",
      "type": "function"
    },
    {
      "constant": true,
      "inputs": [
        {
          "name": "_address",
          "type": "address"
        }
      ],
      "name": "checkDeveloper",
      "outputs": [
        {
          "name": "",
          "type": "bool"
        }
      ],
      "payable": false,
      "stateMutability": "view",
      "type": "function"
    }
  ],
  "bytecode": "0x6080604052336000806101000a81548173ffffffffffffffffffffffffffffffffffffffff021916908373ffffffffffffffffffffffffffffffffffffffff1602179055506108e5806100536000396000f300608060405260043610610099576000357c0100000000000000000000000000000000000000000000000000000000900463ffffffff1680632f5380da1461009e57806353fe21ad146100e1578063715018a6146101245780638da5cb5b1461013b5780639fb160aa14610192578063b59d0017146101d5578063bedad7ce14610230578063ea9dc4971461028b578063f2fde38b146102ce575b600080fd5b3480156100aa57600080fd5b506100df600480360381019080803573ffffffffffffffffffffffffffffffffffffffff169060200190929190505050610311565b005b3480156100ed57600080fd5b50610122600480360381019080803573ffffffffffffffffffffffffffffffffffffffff169060200190929190505050610383565b005b34801561013057600080fd5b506101396103f5565b005b34801561014757600080fd5b506101506104f7565b604051808273ffffffffffffffffffffffffffffffffffffffff1673ffffffffffffffffffffffffffffffffffffffff16815260200191505060405180910390f35b34801561019e57600080fd5b506101d3600480360381019080803573ffffffffffffffffffffffffffffffffffffffff16906020019092919050505061051c565b005b3480156101e157600080fd5b50610216600480360381019080803573ffffffffffffffffffffffffffffffffffffffff16906020019092919050505061058e565b604051808215151515815260200191505060405180910390f35b34801561023c57600080fd5b50610271600480360381019080803573ffffffffffffffffffffffffffffffffffffffff1690602001909291905050506105a9565b604051808215151515815260200191505060405180910390f35b34801561029757600080fd5b506102cc600480360381019080803573ffffffffffffffffffffffffffffffffffffffff1690602001909291905050506105c4565b005b3480156102da57600080fd5b5061030f600480360381019080803573ffffffffffffffffffffffffffffffffffffffff169060200190929190505050610636565b005b6000809054906101000a900473ffffffffffffffffffffffffffffffffffffffff1673ffffffffffffffffffffffffffffffffffffffff163373ffffffffffffffffffffffffffffffffffffffff1614151561036c57600080fd5b61038081600261078b90919063ffffffff16565b50565b6000809054906101000a900473ffffffffffffffffffffffffffffffffffffffff1673ffffffffffffffffffffffffffffffffffffffff163373ffffffffffffffffffffffffffffffffffffffff161415156103de57600080fd5b6103f281600161078b90919063ffffffff16565b50565b6000809054906101000a900473ffffffffffffffffffffffffffffffffffffffff1673ffffffffffffffffffffffffffffffffffffffff163373ffffffffffffffffffffffffffffffffffffffff1614151561045057600080fd5b6000809054906101000a900473ffffffffffffffffffffffffffffffffffffffff1673ffffffffffffffffffffffffffffffffffffffff167ff8df31144d9c2f0f6b59d69b8b98abd5459d07f2742c4df920b25aae33c6482060405160405180910390a260008060006101000a81548173ffffffffffffffffffffffffffffffffffffffff021916908373ffffffffffffffffffffffffffffffffffffffff160217905550565b6000809054906101000a900473ffffffffffffffffffffffffffffffffffffffff1681565b6000809054906101000a900473ffffffffffffffffffffffffffffffffffffffff1673ffffffffffffffffffffffffffffffffffffffff163373ffffffffffffffffffffffffffffffffffffffff1614151561057757600080fd5b61058b8160016107e990919063ffffffff16565b50565b60006105a482600161084790919063ffffffff16565b919050565b60006105bf82600261084790919063ffffffff16565b919050565b6000809054906101000a900473ffffffffffffffffffffffffffffffffffffffff1673ffffffffffffffffffffffffffffffffffffffff163373ffffffffffffffffffffffffffffffffffffffff1614151561061f57600080fd5b6106338160026107e990919063ffffffff16565b50565b6000809054906101000a900473ffffffffffffffffffffffffffffffffffffffff1673ffffffffffffffffffffffffffffffffffffffff163373ffffffffffffffffffffffffffffffffffffffff1614151561069157600080fd5b600073ffffffffffffffffffffffffffffffffffffffff168173ffffffffffffffffffffffffffffffffffffffff16141515156106cd57600080fd5b8073ffffffffffffffffffffffffffffffffffffffff166000809054906101000a900473ffffffffffffffffffffffffffffffffffffffff1673ffffffffffffffffffffffffffffffffffffffff167f8be0079c531659141344cd1fd0a4f28419497f9722a3daafe3b4186f6b6457e060405160405180910390a3806000806101000a81548173ffffffffffffffffffffffffffffffffffffffff021916908373ffffffffffffffffffffffffffffffffffffffff16021790555050565b60018260000160008373ffffffffffffffffffffffffffffffffffffffff1673ffffffffffffffffffffffffffffffffffffffff16815260200190815260200160002060006101000a81548160ff0219169083151502179055505050565b60008260000160008373ffffffffffffffffffffffffffffffffffffffff1673ffffffffffffffffffffffffffffffffffffffff16815260200190815260200160002060006101000a81548160ff0219169083151502179055505050565b6108518282610860565b151561085c57600080fd5b5050565b60008260000160008373ffffffffffffffffffffffffffffffffffffffff1673ffffffffffffffffffffffffffffffffffffffff16815260200190815260200160002060009054906101000a900460ff169050929150505600a165627a7a72305820735314726f384b2f51f168a2b056e6823fa57796f358311abf131ce7fde024040029",
  "source": "pragma solidity ^0.4.23;\r\n\r\nimport \"./Contributions.sol\";\r\nimport \"../ownership/Ownable.sol\";\r\n\r\ncontract ContributorsWhitelist is Ownable {\r\n    using Contributions for Contributions.Contribution;\r\n\r\n    Contributions.Contribution VCContributors;\r\n    Contributions.Contribution DeveloperContributors;\r\n\r\n    function addToVC(address _address) public onlyOwner {\r\n        VCContributors.add(_address);\r\n    }\r\n\r\n    function addToDevelopers(address _address) public onlyOwner {\r\n        DeveloperContributors.add(_address);\r\n    }\r\n\r\n    function removeFromVC(address _address) public onlyOwner {\r\n        VCContributors.remove(_address);\r\n    }\r\n\r\n    function removeFromDevelopers(address _address) public onlyOwner {\r\n        DeveloperContributors.remove(_address);\r\n    }\r\n\r\n    function checkVC(address _address) public view returns (bool){\r\n        VCContributors.check(_address);\r\n    }\r\n\r\n    function checkDeveloper(address _address) public view returns (bool) {\r\n        DeveloperContributors.check(_address);\r\n    }\r\n\r\n    modifier onlyVC(address _address) {\r\n        require(checkVC(_address));\r\n        _;\r\n    }\r\n\r\n    modifier onlyDeveloper(address _address) {\r\n        require(checkDeveloper(_address));\r\n        _;\r\n    }\r\n\r\n}",
  "sourcePath": "G:\\Root\\Blockchain\\BAX\\contracts\\crowdSale\\ContributorsWhitelist.sol",
  "compiler": {
    "name": "solc",
    "version": "0.4.23+commit.124ca40d.Emscripten.clang"
  },
  "schemaVersion": "2.0.0",
  "updatedAt": "2018-05-25T13:35:00.504Z"
}