{
  "contractName": "crowdsaleRounding",
  "abi": [
    {
      "inputs": [
        {
          "name": "cliff",
          "type": "uint256"
        },
        {
          "name": "_ETH_USD_RATE",
          "type": "uint256"
        }
      ],
      "payable": false,
      "stateMutability": "nonpayable",
      "type": "constructor"
    },
    {
      "constant": true,
      "inputs": [],
      "name": "getRoundIndex",
      "outputs": [
        {
          "name": "",
          "type": "uint8"
        }
      ],
      "payable": false,
      "stateMutability": "view",
      "type": "function"
    },
    {
      "constant": true,
      "inputs": [],
      "name": "getCrowdsaleRound",
      "outputs": [
        {
          "name": "",
          "type": "uint8"
        }
      ],
      "payable": false,
      "stateMutability": "view",
      "type": "function"
    },
    {
      "constant": true,
      "inputs": [],
      "name": "getPermission",
      "outputs": [
        {
          "name": "",
          "type": "uint8"
        }
      ],
      "payable": false,
      "stateMutability": "view",
      "type": "function"
    },
    {
      "constant": true,
      "inputs": [],
      "name": "getTokenPerETH",
      "outputs": [
        {
          "name": "",
          "type": "uint256"
        }
      ],
      "payable": false,
      "stateMutability": "view",
      "type": "function"
    },
    {
      "constant": true,
      "inputs": [],
      "name": "getMinVestingETH",
      "outputs": [
        {
          "name": "",
          "type": "uint256"
        }
      ],
      "payable": false,
      "stateMutability": "view",
      "type": "function"
    },
    {
      "constant": true,
      "inputs": [],
      "name": "getMaxVestingETH",
      "outputs": [
        {
          "name": "",
          "type": "uint256"
        }
      ],
      "payable": false,
      "stateMutability": "view",
      "type": "function"
    },
    {
      "constant": true,
      "inputs": [],
      "name": "isPurchaseAllowed",
      "outputs": [
        {
          "name": "",
          "type": "bool"
        }
      ],
      "payable": false,
      "stateMutability": "view",
      "type": "function"
    },
    {
      "constant": true,
      "inputs": [],
      "name": "getTimedHardcapToken",
      "outputs": [
        {
          "name": "",
          "type": "uint256"
        }
      ],
      "payable": false,
      "stateMutability": "view",
      "type": "function"
    }
  ],
  "bytecode": "0x60806040523480156200001157600080fd5b5060405160408062001679833981018060405281019080805190602001909291908051906020019092919050505060056000808154811015156200005157fe5b906000526020600020906008020160000160006101000a81548160ff021916908360068111156200007e57fe5b02179055508142016000808154811015156200009657fe5b906000526020600020906008020160010181905550620d2f00600080815481101515620000bf57fe5b90600052602060002090600802016001015401600080815481101515620000e257fe5b90600052602060002090600802016002018190555060036000808154811015156200010957fe5b906000526020600020906008020160070160006101000a81548160ff021916908360038111156200013657fe5b021790555060008060008154811015156200014d57fe5b90600052602060002090600802016006018190555060008060008154811015156200017457fe5b906000526020600020906008020160070160016101000a81548160ff0219169083151502179055506000806001815481101515620001ae57fe5b906000526020600020906008020160000160006101000a81548160ff02191690836006811115620001db57fe5b0217905550600080815481101515620001f057fe5b906000526020600020906008020160020154600060018154811015156200021357fe5b90600052602060002090600802016001018190555062278d00600060018154811015156200023d57fe5b90600052602060002090600802016001015401600060018154811015156200026157fe5b9060005260206000209060080201600201819055506001600060018154811015156200028957fe5b906000526020600020906008020160070160006101000a81548160ff02191690836003811115620002b657fe5b0217905550620003026064620002e560088462000f92640100000000026200060a179091906401000000009004565b62000fa96401000000000262000620179091906401000000009004565b600060018154811015156200031357fe5b90600052602060002090600802016003018190555062000377670de0b6b3a76400006200035a8361c35062000f92640100000000026200060a179091906401000000009004565b62000fa96401000000000262000620179091906401000000009004565b600060018154811015156200038857fe5b90600052602060002090600802016004018190555062000434670de0b6b3a76400006200041783620003fa6064620003dd60086307270e0062000fa96401000000000262000620179091906401000000009004565b62000f92640100000000026200060a179091906401000000009004565b62000f92640100000000026200060a179091906401000000009004565b62000fa96401000000000262000620179091906401000000009004565b600060018154811015156200044557fe5b9060005260206000209060080201600501819055506307270e00600060018154811015156200047057fe5b9060005260206000209060080201600601819055506001600060018154811015156200049857fe5b906000526020600020906008020160070160016101000a81548160ff021916908315150217905550600660006002815481101515620004d357fe5b906000526020600020906008020160000160006101000a81548160ff021916908360068111156200050057fe5b0217905550600060018154811015156200051657fe5b906000526020600020906008020160020154600060028154811015156200053957fe5b906000526020600020906008020160010181905550620d2f00600060028154811015156200056357fe5b90600052602060002090600802016001015401600060028154811015156200058757fe5b906000526020600020906008020160020181905550600360006002815481101515620005af57fe5b906000526020600020906008020160070160006101000a81548160ff02191690836003811115620005dc57fe5b02179055506000806002815481101515620005f357fe5b90600052602060002090600802016006018190555060008060028154811015156200061a57fe5b906000526020600020906008020160070160016101000a81548160ff0219169083151502179055506001600060038154811015156200065557fe5b906000526020600020906008020160000160006101000a81548160ff021916908360068111156200068257fe5b0217905550600060028154811015156200069857fe5b90600052602060002090600802016002015460006003815481101515620006bb57fe5b90600052602060002090600802016001018190555062093a8060006003815481101515620006e557fe5b90600052602060002090600802016001015401600060038154811015156200070957fe5b90600052602060002090600802016002018190555060008060038154811015156200073057fe5b906000526020600020906008020160070160006101000a81548160ff021916908360038111156200075d57fe5b0217905550620007a960646200078c600c8462000f92640100000000026200060a179091906401000000009004565b62000fa96401000000000262000620179091906401000000009004565b60006003815481101515620007ba57fe5b90600052602060002090600802016003018190555067016345785d8a000060006003815481101515620007e957fe5b906000526020600020906008020160040181905550681043561a8829300000600060038154811015156200081957fe5b9060005260206000209060080201600501819055506307735940600060038154811015156200084457fe5b9060005260206000209060080201600601819055506001600060038154811015156200086c57fe5b906000526020600020906008020160070160016101000a81548160ff021916908315150217905550600260006004815481101515620008a757fe5b906000526020600020906008020160000160006101000a81548160ff02191690836006811115620008d457fe5b021790555060006003815481101515620008ea57fe5b906000526020600020906008020160020154600060048154811015156200090d57fe5b90600052602060002090600802016001018190555062093a80600060048154811015156200093757fe5b90600052602060002090600802016001015401600060048154811015156200095b57fe5b90600052602060002090600802016002018190555060008060048154811015156200098257fe5b906000526020600020906008020160070160006101000a81548160ff02191690836003811115620009af57fe5b0217905550620009fb6064620009de600d8462000f92640100000000026200060a179091906401000000009004565b62000fa96401000000000262000620179091906401000000009004565b6000600481548110151562000a0c57fe5b90600052602060002090600802016003018190555067016345785d8a00006000600481548110151562000a3b57fe5b906000526020600020906008020160040181905550681043561a88293000006000600481548110151562000a6b57fe5b90600052602060002090600802016005018190555063077359406000600481548110151562000a9657fe5b90600052602060002090600802016006018190555060016000600481548110151562000abe57fe5b906000526020600020906008020160070160016101000a81548160ff02191690831515021790555060036000600581548110151562000af957fe5b906000526020600020906008020160000160006101000a81548160ff0219169083600681111562000b2657fe5b02179055506000600481548110151562000b3c57fe5b9060005260206000209060080201600201546000600581548110151562000b5f57fe5b90600052602060002090600802016001018190555062093a806000600581548110151562000b8957fe5b906000526020600020906008020160010154016000600581548110151562000bad57fe5b906000526020600020906008020160020181905550600080600581548110151562000bd457fe5b906000526020600020906008020160070160006101000a81548160ff0219169083600381111562000c0157fe5b021790555062000c4d606462000c30600e8462000f92640100000000026200060a179091906401000000009004565b62000fa96401000000000262000620179091906401000000009004565b6000600581548110151562000c5e57fe5b90600052602060002090600802016003018190555067016345785d8a00006000600581548110151562000c8d57fe5b906000526020600020906008020160040181905550681043561a88293000006000600581548110151562000cbd57fe5b90600052602060002090600802016005018190555063077359406000600581548110151562000ce857fe5b90600052602060002090600802016006018190555060016000600581548110151562000d1057fe5b906000526020600020906008020160070160016101000a81548160ff02191690831515021790555060046000600681548110151562000d4b57fe5b906000526020600020906008020160000160006101000a81548160ff0219169083600681111562000d7857fe5b02179055506000600581548110151562000d8e57fe5b9060005260206000209060080201600201546000600681548110151562000db157fe5b90600052602060002090600802016001018190555062093a806000600681548110151562000ddb57fe5b906000526020600020906008020160010154016000600681548110151562000dff57fe5b906000526020600020906008020160020181905550600080600681548110151562000e2657fe5b906000526020600020906008020160070160006101000a81548160ff0219169083600381111562000e5357fe5b021790555062000e9f606462000e82600f8462000f92640100000000026200060a179091906401000000009004565b62000fa96401000000000262000620179091906401000000009004565b6000600681548110151562000eb057fe5b90600052602060002090600802016003018190555067016345785d8a00006000600681548110151562000edf57fe5b906000526020600020906008020160040181905550681043561a88293000006000600681548110151562000f0f57fe5b90600052602060002090600802016005018190555063077359406000600681548110151562000f3a57fe5b90600052602060002090600802016006018190555060016000600681548110151562000f6257fe5b906000526020600020906008020160070160016101000a81548160ff021916908315150217905550505062000fe5565b6000818381151562000fa057fe5b04905092915050565b60008083141562000fbe576000905062000fdf565b818302905081838281151562000fd057fe5b0414151562000fdb57fe5b8090505b92915050565b6106848062000ff56000396000f30060806040526004361061008e576000357c0100000000000000000000000000000000000000000000000000000000900463ffffffff168063388eea56146100935780634486b3e7146100c257806367af1c81146100ed578063807ba3e01461011e5780639dc95d6314610157578063bddeab7714610182578063d8731080146101bb578063e78b3bc2146101e6575b600080fd5b34801561009f57600080fd5b506100a8610211565b604051808215151515815260200191505060405180910390f35b3480156100ce57600080fd5b506100d7610255565b6040518082815260200191505060405180910390f35b3480156100f957600080fd5b5061010261028c565b604051808260ff1660ff16815260200191505060405180910390f35b34801561012a57600080fd5b50610133610378565b6040518082600681111561014357fe5b60ff16815260200191505060405180910390f35b34801561016357600080fd5b5061016c610494565b6040518082815260200191505060405180910390f35b34801561018e57600080fd5b506101976104cb565b604051808260038111156101a757fe5b60ff16815260200191505060405180910390f35b3480156101c757600080fd5b506101d061050f565b6040518082815260200191505060405180910390f35b3480156101f257600080fd5b506101fb610546565b6040518082815260200191505060405180910390f35b60008061021c61028c565b905060008160ff1681548110151561023057fe5b906000526020600020906008020160070160019054906101000a900460ff1691505090565b60008061026061028c565b905060008160ff1681548110151561027457fe5b90600052602060002090600802016005015491505090565b60008060008081548110151561029e57fe5b906000526020600020906008020160010154421180156102e5575060006001600080549050038154811015156102d057fe5b90600052602060002090600802016002015442105b15156102f057600080fd5b600090505b6000805490508160ff1610156103735760008160ff1681548110151561031757fe5b90600052602060002090600802016001015442118015610359575060008160ff1681548110151561034457fe5b90600052602060002090600802016002015442105b1561036657809150610374565b80806001019150506102f5565b5b5090565b60008060008081548110151561038a57fe5b906000526020600020906008020160010154421180156103d1575060006001600080549050038154811015156103bc57fe5b90600052602060002090600802016002015442105b15156103dc57600080fd5b600090505b6000805490508160ff16101561048f5760008160ff1681548110151561040357fe5b90600052602060002090600802016001015442118015610445575060008160ff1681548110151561043057fe5b90600052602060002090600802016002015442105b156104825760008160ff1681548110151561045c57fe5b906000526020600020906008020160000160009054906101000a900460ff169150610490565b80806001019150506103e1565b5b5090565b60008061049f61028c565b905060008160ff168154811015156104b357fe5b90600052602060002090600802016004015491505090565b6000806104d661028c565b905060008160ff168154811015156104ea57fe5b906000526020600020906008020160070160009054906101000a900460ff1691505090565b60008061051a61028c565b905060008160ff1681548110151561052e57fe5b90600052602060002090600802016003015491505090565b60008060008061055461028c565b9250600090505b8260ff168160ff1610156105e55760008160ff1681548110151561057b57fe5b906000526020600020906008020160070160019054906101000a900460ff16156105d8576105d560008260ff168154811015156105b457fe5b906000526020600020906008020160060154836105ee90919063ffffffff16565b91505b808060010191505061055b565b81935050505090565b6000818301905082811015151561060157fe5b80905092915050565b6000818381151561061757fe5b04905092915050565b6000808314156106335760009050610652565b818302905081838281151561064457fe5b0414151561064e57fe5b8090505b929150505600a165627a7a723058202ccb9fe1c9ab0dcd9fe6220d8ba5ebd8979d471a0238a559178a401c8e7682060029",
  "source": "pragma solidity ^0.4.23;\r\n\r\nimport \"../Math/SafeMath.sol\";\r\n\r\ncontract crowdsaleRounding {\r\n    using SafeMath for uint256;\r\n\r\n    enum rounds {preICO, ICORound1, ICORound2, ICORound3, ICORound4, preWhitelist, Whitelist}\r\n    enum buyerPermission {publicVestors, privateVestors, developerVestors, AccessDenied}\r\n\r\n    struct Round {\r\n        rounds round;\r\n        uint256 startTime;\r\n        uint256 endTime;\r\n        uint256 tokensPerETH;\r\n        uint256 minVestingETH;\r\n        uint256 maxVestingETH;\r\n        uint256 HardcapToken;\r\n        buyerPermission permission;\r\n        bool purchaseAllowed;\r\n    }\r\n\r\n    Round[] crowdsaleRounds;\r\n\r\n    constructor(\r\n        uint256 cliff,\r\n        uint256 _ETH_USD_RATE\r\n    ) \r\n    public \r\n    {\r\n        crowdsaleRounds[0].round = rounds.preWhitelist;\r\n        crowdsaleRounds[0].startTime = now + cliff;\r\n        crowdsaleRounds[0].endTime = crowdsaleRounds[0].startTime + 10 days;\r\n        crowdsaleRounds[0].permission = buyerPermission.AccessDenied;\r\n        crowdsaleRounds[0].HardcapToken = 0;\r\n        crowdsaleRounds[0].purchaseAllowed = false;\r\n\r\n        crowdsaleRounds[1].round = rounds.preICO;\r\n        crowdsaleRounds[1].startTime = crowdsaleRounds[0].endTime;\r\n        crowdsaleRounds[1].endTime = crowdsaleRounds[1].startTime + 30 days;\r\n        crowdsaleRounds[1].permission = buyerPermission.privateVestors;\r\n        crowdsaleRounds[1].tokensPerETH = _ETH_USD_RATE.div(8).mul(100);\r\n        crowdsaleRounds[1].minVestingETH = uint256(50e3).div(_ETH_USD_RATE).mul(1 ether);\r\n        crowdsaleRounds[1].maxVestingETH = uint256(120e6).mul(8).div(100).div(_ETH_USD_RATE).mul(1 ether);\r\n        crowdsaleRounds[1].HardcapToken = 120e6;\r\n        crowdsaleRounds[1].purchaseAllowed = true;\r\n\r\n        crowdsaleRounds[2].round = rounds.Whitelist;\r\n        crowdsaleRounds[2].startTime = crowdsaleRounds[1].endTime;\r\n        crowdsaleRounds[2].endTime = crowdsaleRounds[2].startTime + 10 days;\r\n        crowdsaleRounds[2].permission = buyerPermission.AccessDenied;\r\n        crowdsaleRounds[2].HardcapToken = 0;\r\n        crowdsaleRounds[2].purchaseAllowed = false;\r\n\r\n        crowdsaleRounds[3].round = rounds.ICORound1;\r\n        crowdsaleRounds[3].startTime = crowdsaleRounds[2].endTime;\r\n        crowdsaleRounds[3].endTime = crowdsaleRounds[3].startTime + 1 weeks;\r\n        crowdsaleRounds[3].permission = buyerPermission.publicVestors;\r\n        crowdsaleRounds[3].tokensPerETH = _ETH_USD_RATE.div(12).mul(100);\r\n        crowdsaleRounds[3].minVestingETH = 0.1 ether;\r\n        crowdsaleRounds[3].maxVestingETH = 300 ether;\r\n        crowdsaleRounds[3].HardcapToken = 125e6;\r\n        crowdsaleRounds[3].purchaseAllowed = true;\r\n\r\n        crowdsaleRounds[4].round = rounds.ICORound2;\r\n        crowdsaleRounds[4].startTime = crowdsaleRounds[3].endTime;\r\n        crowdsaleRounds[4].endTime = crowdsaleRounds[4].startTime + 1 weeks;\r\n        crowdsaleRounds[4].permission = buyerPermission.publicVestors;\r\n        crowdsaleRounds[4].tokensPerETH = _ETH_USD_RATE.div(13).mul(100);\r\n        crowdsaleRounds[4].minVestingETH = 0.1 ether;\r\n        crowdsaleRounds[4].maxVestingETH = 300 ether;\r\n        crowdsaleRounds[4].HardcapToken = 125e6;\r\n        crowdsaleRounds[4].purchaseAllowed = true;\r\n\r\n        crowdsaleRounds[5].round = rounds.ICORound3;\r\n        crowdsaleRounds[5].startTime = crowdsaleRounds[4].endTime;\r\n        crowdsaleRounds[5].endTime = crowdsaleRounds[5].startTime + 1 weeks;\r\n        crowdsaleRounds[5].permission = buyerPermission.publicVestors;\r\n        crowdsaleRounds[5].tokensPerETH = _ETH_USD_RATE.div(14).mul(100);\r\n        crowdsaleRounds[5].minVestingETH = 0.1 ether;\r\n        crowdsaleRounds[5].maxVestingETH = 300 ether;\r\n        crowdsaleRounds[5].HardcapToken = 125e6;\r\n        crowdsaleRounds[5].purchaseAllowed = true;\r\n\r\n        crowdsaleRounds[6].round = rounds.ICORound4;\r\n        crowdsaleRounds[6].startTime = crowdsaleRounds[5].endTime;\r\n        crowdsaleRounds[6].endTime = crowdsaleRounds[6].startTime + 1 weeks;\r\n        crowdsaleRounds[6].permission = buyerPermission.publicVestors;\r\n        crowdsaleRounds[6].tokensPerETH = _ETH_USD_RATE.div(15).mul(100);\r\n        crowdsaleRounds[6].minVestingETH = 0.1 ether;\r\n        crowdsaleRounds[6].maxVestingETH = 300 ether;\r\n        crowdsaleRounds[6].HardcapToken = 125e6;\r\n        crowdsaleRounds[6].purchaseAllowed = true;\r\n    }\r\n\r\n    function getRoundIndex() public view OnlyWhileCrowdsaleNotTimedout returns (uint8) {\r\n        for(uint8 i=0; i < crowdsaleRounds.length; i++) {\r\n            if (now > crowdsaleRounds[i].startTime && now < crowdsaleRounds[i].endTime) {\r\n                return i;\r\n            }\r\n        }\r\n    }\r\n\r\n    function getCrowdsaleRound() public view OnlyWhileCrowdsaleNotTimedout returns (rounds) {\r\n        for(uint8 i=0; i < crowdsaleRounds.length; i++) {\r\n            if (now > crowdsaleRounds[i].startTime && now < crowdsaleRounds[i].endTime) {\r\n                return crowdsaleRounds[i].round;\r\n            }\r\n        }\r\n    }\r\n\r\n    function getPermission() public view returns (buyerPermission) {\r\n        uint8 roundIndex = getRoundIndex();\r\n        return crowdsaleRounds[roundIndex].permission;\r\n    }\r\n\r\n    function getTokenPerETH() public view returns (uint256) {\r\n        uint8 roundIndex = getRoundIndex();\r\n        return crowdsaleRounds[roundIndex].tokensPerETH;\r\n    }\r\n\r\n    function getMinVestingETH() public view returns (uint256) {\r\n        uint8 roundIndex = getRoundIndex();\r\n        return crowdsaleRounds[roundIndex].minVestingETH;\r\n    }\r\n\r\n    function getMaxVestingETH() public view returns (uint256) {\r\n        uint8 roundIndex = getRoundIndex();\r\n        return crowdsaleRounds[roundIndex].maxVestingETH;\r\n    }\r\n\r\n    function isPurchaseAllowed() public view returns (bool) {\r\n        uint8 roundIndex = getRoundIndex();\r\n        return crowdsaleRounds[roundIndex].purchaseAllowed;\r\n    }\r\n\r\n    function getTimedHardcapToken() public view returns (uint256) {\r\n        uint8 roundIndex = getRoundIndex();\r\n        uint256 hardCap;\r\n        for (uint8 i = 0; i < roundIndex; i++) {\r\n            if (crowdsaleRounds[i].purchaseAllowed) {\r\n                hardCap = hardCap.add(crowdsaleRounds[i].HardcapToken);\r\n            }\r\n        }\r\n        return hardCap;\r\n    }\r\n\r\n    modifier onlyWhilePurchaseAllowed() {\r\n        require(isPurchaseAllowed());\r\n        _;\r\n    }\r\n\r\n    modifier OnlyWhileCrowdsaleNotTimedout() {\r\n        require(now > crowdsaleRounds[0].startTime && now < crowdsaleRounds[crowdsaleRounds.length-1].endTime);\r\n        _;\r\n    }\r\n}\r\n",
  "sourcePath": "G:\\Root\\Blockchain\\BAX\\contracts\\crowdSale\\crowdsaleRounding.sol",
  "compiler": {
    "name": "solc",
    "version": "0.4.23+commit.124ca40d.Emscripten.clang"
  },
  "schemaVersion": "2.0.0",
  "updatedAt": "2018-05-26T16:34:50.035Z"
}