{
  "contractName": "dummy",
  "abi": [
    {
      "constant": false,
      "inputs": [],
      "name": "claimHeirOwnership",
      "outputs": [],
      "payable": false,
      "stateMutability": "nonpayable",
      "type": "function"
    },
    {
      "constant": false,
      "inputs": [
        {
          "name": "newHeir",
          "type": "address"
        }
      ],
      "name": "setHeir",
      "outputs": [],
      "payable": false,
      "stateMutability": "nonpayable",
      "type": "function"
    },
    {
      "constant": false,
      "inputs": [],
      "name": "proclaimDeath",
      "outputs": [],
      "payable": false,
      "stateMutability": "nonpayable",
      "type": "function"
    },
    {
      "constant": false,
      "inputs": [],
      "name": "heartbeat",
      "outputs": [],
      "payable": false,
      "stateMutability": "nonpayable",
      "type": "function"
    },
    {
      "constant": false,
      "inputs": [],
      "name": "renounceOwnership",
      "outputs": [],
      "payable": false,
      "stateMutability": "nonpayable",
      "type": "function"
    },
    {
      "constant": true,
      "inputs": [],
      "name": "heartbeatTimeout",
      "outputs": [
        {
          "name": "",
          "type": "uint256"
        }
      ],
      "payable": false,
      "stateMutability": "view",
      "type": "function"
    },
    {
      "constant": true,
      "inputs": [],
      "name": "owner",
      "outputs": [
        {
          "name": "",
          "type": "address"
        }
      ],
      "payable": false,
      "stateMutability": "view",
      "type": "function"
    },
    {
      "constant": true,
      "inputs": [],
      "name": "heir",
      "outputs": [
        {
          "name": "",
          "type": "address"
        }
      ],
      "payable": false,
      "stateMutability": "view",
      "type": "function"
    },
    {
      "constant": true,
      "inputs": [],
      "name": "timeOfDeath",
      "outputs": [
        {
          "name": "",
          "type": "uint256"
        }
      ],
      "payable": false,
      "stateMutability": "view",
      "type": "function"
    },
    {
      "constant": false,
      "inputs": [],
      "name": "removeHeir",
      "outputs": [],
      "payable": false,
      "stateMutability": "nonpayable",
      "type": "function"
    },
    {
      "constant": false,
      "inputs": [
        {
          "name": "newOwner",
          "type": "address"
        }
      ],
      "name": "transferOwnership",
      "outputs": [],
      "payable": false,
      "stateMutability": "nonpayable",
      "type": "function"
    },
    {
      "anonymous": false,
      "inputs": [
        {
          "indexed": true,
          "name": "owner",
          "type": "address"
        },
        {
          "indexed": true,
          "name": "newHeir",
          "type": "address"
        }
      ],
      "name": "HeirChanged",
      "type": "event"
    },
    {
      "anonymous": false,
      "inputs": [
        {
          "indexed": true,
          "name": "owner",
          "type": "address"
        }
      ],
      "name": "OwnerHeartbeated",
      "type": "event"
    },
    {
      "anonymous": false,
      "inputs": [
        {
          "indexed": true,
          "name": "owner",
          "type": "address"
        },
        {
          "indexed": true,
          "name": "heir",
          "type": "address"
        },
        {
          "indexed": false,
          "name": "timeOfDeath",
          "type": "uint256"
        }
      ],
      "name": "OwnerProclaimedDead",
      "type": "event"
    },
    {
      "anonymous": false,
      "inputs": [
        {
          "indexed": true,
          "name": "previousOwner",
          "type": "address"
        },
        {
          "indexed": true,
          "name": "newOwner",
          "type": "address"
        }
      ],
      "name": "HeirOwnershipClaimed",
      "type": "event"
    },
    {
      "anonymous": false,
      "inputs": [
        {
          "indexed": true,
          "name": "previousOwner",
          "type": "address"
        }
      ],
      "name": "OwnershipRenounced",
      "type": "event"
    },
    {
      "anonymous": false,
      "inputs": [
        {
          "indexed": true,
          "name": "previousOwner",
          "type": "address"
        },
        {
          "indexed": true,
          "name": "newOwner",
          "type": "address"
        }
      ],
      "name": "OwnershipTransferred",
      "type": "event"
    }
  ],
  "bytecode": "0x60806040526000600455336000806101000a81548173ffffffffffffffffffffffffffffffffffffffff021916908373ffffffffffffffffffffffffffffffffffffffff160217905550610bde806100586000396000f3006080604052600436106100af576000357c0100000000000000000000000000000000000000000000000000000000900463ffffffff1680631c921e16146100b457806323defc77146100cb578063248451311461010e5780633defb96214610125578063715018a61461013c5780637bca38be146101535780638da5cb5b1461017e57806391f2ebb8146101d5578063b4a8f3e61461022c578063ebf88de414610257578063f2fde38b1461026e575b600080fd5b3480156100c057600080fd5b506100c96102b1565b005b3480156100d757600080fd5b5061010c600480360381019080803573ffffffffffffffffffffffffffffffffffffffff1690602001909291905050506104dc565b005b34801561011a57600080fd5b5061012361065a565b005b34801561013157600080fd5b5061013a61077c565b005b34801561014857600080fd5b50610151610845565b005b34801561015f57600080fd5b50610168610947565b6040518082815260200191505060405180910390f35b34801561018a57600080fd5b50610193610951565b604051808273ffffffffffffffffffffffffffffffffffffffff1673ffffffffffffffffffffffffffffffffffffffff16815260200191505060405180910390f35b3480156101e157600080fd5b506101ea610976565b604051808273ffffffffffffffffffffffffffffffffffffffff1673ffffffffffffffffffffffffffffffffffffffff16815260200191505060405180910390f35b34801561023857600080fd5b506102416109a0565b6040518082815260200191505060405180910390f35b34801561026357600080fd5b5061026c6109aa565b005b34801561027a57600080fd5b506102af600480360381019080803573ffffffffffffffffffffffffffffffffffffffff169060200190929190505050610a51565b005b600160009054906101000a900473ffffffffffffffffffffffffffffffffffffffff1673ffffffffffffffffffffffffffffffffffffffff163373ffffffffffffffffffffffffffffffffffffffff1614151561030d57600080fd5b610315610ba6565b15151561032157600080fd5b60025460035401421015151561033657600080fd5b600160009054906101000a900473ffffffffffffffffffffffffffffffffffffffff1673ffffffffffffffffffffffffffffffffffffffff166000809054906101000a900473ffffffffffffffffffffffffffffffffffffffff1673ffffffffffffffffffffffffffffffffffffffff167f8be0079c531659141344cd1fd0a4f28419497f9722a3daafe3b4186f6b6457e060405160405180910390a3600160009054906101000a900473ffffffffffffffffffffffffffffffffffffffff1673ffffffffffffffffffffffffffffffffffffffff166000809054906101000a900473ffffffffffffffffffffffffffffffffffffffff1673ffffffffffffffffffffffffffffffffffffffff167f1017a357e19071e4408dbd385f24e591aa5bcee52b444dc0c8abddbe6ad29de660405160405180910390a3600160009054906101000a900473ffffffffffffffffffffffffffffffffffffffff166000806101000a81548173ffffffffffffffffffffffffffffffffffffffff021916908373ffffffffffffffffffffffffffffffffffffffff1602179055506000600381905550565b6000809054906101000a900473ffffffffffffffffffffffffffffffffffffffff1673ffffffffffffffffffffffffffffffffffffffff163373ffffffffffffffffffffffffffffffffffffffff1614151561053757600080fd5b6000809054906101000a900473ffffffffffffffffffffffffffffffffffffffff1673ffffffffffffffffffffffffffffffffffffffff168173ffffffffffffffffffffffffffffffffffffffff161415151561059357600080fd5b61059b61077c565b8073ffffffffffffffffffffffffffffffffffffffff166000809054906101000a900473ffffffffffffffffffffffffffffffffffffffff1673ffffffffffffffffffffffffffffffffffffffff167f4e6093f85fa64484abd692810d8a44d508792ff7b7a021d9fbd69fa1c6ff18a060405160405180910390a380600160006101000a81548173ffffffffffffffffffffffffffffffffffffffff021916908373ffffffffffffffffffffffffffffffffffffffff16021790555050565b600160009054906101000a900473ffffffffffffffffffffffffffffffffffffffff1673ffffffffffffffffffffffffffffffffffffffff163373ffffffffffffffffffffffffffffffffffffffff161415156106b657600080fd5b6106be610ba6565b15156106c957600080fd5b600160009054906101000a900473ffffffffffffffffffffffffffffffffffffffff1673ffffffffffffffffffffffffffffffffffffffff166000809054906101000a900473ffffffffffffffffffffffffffffffffffffffff1673ffffffffffffffffffffffffffffffffffffffff167f66389f1f3251c39e71cb18351daefea45bda23e98df0767266b8aed4ff9382776003546040518082815260200191505060405180910390a342600381905550565b6000809054906101000a900473ffffffffffffffffffffffffffffffffffffffff1673ffffffffffffffffffffffffffffffffffffffff163373ffffffffffffffffffffffffffffffffffffffff161415156107d757600080fd5b6000809054906101000a900473ffffffffffffffffffffffffffffffffffffffff1673ffffffffffffffffffffffffffffffffffffffff167fd40b9d9a7572411aff4bbb95ba7bd9a9d4e9b70747ec46f8fe7913c309b6845260405160405180910390a26000600381905550565b6000809054906101000a900473ffffffffffffffffffffffffffffffffffffffff1673ffffffffffffffffffffffffffffffffffffffff163373ffffffffffffffffffffffffffffffffffffffff161415156108a057600080fd5b6000809054906101000a900473ffffffffffffffffffffffffffffffffffffffff1673ffffffffffffffffffffffffffffffffffffffff167ff8df31144d9c2f0f6b59d69b8b98abd5459d07f2742c4df920b25aae33c6482060405160405180910390a260008060006101000a81548173ffffffffffffffffffffffffffffffffffffffff021916908373ffffffffffffffffffffffffffffffffffffffff160217905550565b6000600254905090565b6000809054906101000a900473ffffffffffffffffffffffffffffffffffffffff1681565b6000600160009054906101000a900473ffffffffffffffffffffffffffffffffffffffff16905090565b6000600354905090565b6000809054906101000a900473ffffffffffffffffffffffffffffffffffffffff1673ffffffffffffffffffffffffffffffffffffffff163373ffffffffffffffffffffffffffffffffffffffff16141515610a0557600080fd5b610a0d61077c565b6000600160006101000a81548173ffffffffffffffffffffffffffffffffffffffff021916908373ffffffffffffffffffffffffffffffffffffffff160217905550565b6000809054906101000a900473ffffffffffffffffffffffffffffffffffffffff1673ffffffffffffffffffffffffffffffffffffffff163373ffffffffffffffffffffffffffffffffffffffff16141515610aac57600080fd5b600073ffffffffffffffffffffffffffffffffffffffff168173ffffffffffffffffffffffffffffffffffffffff1614151515610ae857600080fd5b8073ffffffffffffffffffffffffffffffffffffffff166000809054906101000a900473ffffffffffffffffffffffffffffffffffffffff1673ffffffffffffffffffffffffffffffffffffffff167f8be0079c531659141344cd1fd0a4f28419497f9722a3daafe3b4186f6b6457e060405160405180910390a3806000806101000a81548173ffffffffffffffffffffffffffffffffffffffff021916908373ffffffffffffffffffffffffffffffffffffffff16021790555050565b600080600354149050905600a165627a7a72305820c0c86a83ba4a92dd3e0489cc0bb67b98fc169dcd8024aae55ee37169ce45fa350029",
  "source": "pragma solidity ^0.4.23;\r\n\r\n\r\nimport \"./ownership/Ownable.sol\";\r\n\r\ncontract Heritable is Ownable {\r\n    address private heir_;\r\n\r\n    uint256 private heartbeatTimeout_;\r\n\r\n    uint256 private timeOfDeath_;\r\n\r\n    event HeirChanged(address indexed owner, address indexed newHeir);\r\n    event OwnerHeartbeated(address indexed owner);\r\n    event OwnerProclaimedDead(address indexed owner, address indexed heir, uint256 timeOfDeath);\r\n    event HeirOwnershipClaimed(address indexed previousOwner, address indexed newOwner);\r\n\r\n    modifier onlyHeir() {\r\n        require(msg.sender == heir_);\r\n        _;\r\n    }\r\n\r\n    // constructor(uint256 _heartbeatTimeout) public {\r\n    //     setHeartbeatTimeout(_heartbeatTimeout);\r\n    // }\r\n\r\n    function setHeir(address newHeir) public onlyOwner {\r\n        require(newHeir != owner);\r\n        heartbeat();\r\n        emit HeirChanged(owner, newHeir);\r\n        heir_ = newHeir;\r\n    }\r\n\r\n    function heir() public view returns(address) {\r\n        return heir_;\r\n    }\r\n\r\n    function heartbeatTimeout() public view returns(uint256) {\r\n        return heartbeatTimeout_;\r\n    }\r\n\r\n    function timeOfDeath() public view returns(uint256) {\r\n        return timeOfDeath_;\r\n    }\r\n\r\n    function removeHeir() public onlyOwner {\r\n        heartbeat();\r\n        heir_ = 0;\r\n    }\r\n\r\n    function proclaimDeath() public onlyHeir {\r\n        require(ownerLives());\r\n        emit OwnerProclaimedDead(owner, heir_, timeOfDeath_);\r\n        // solium-disable-next-line security/no-block-members\r\n        timeOfDeath_ = block.timestamp;\r\n    }\r\n\r\n    function heartbeat() public onlyOwner {\r\n        emit OwnerHeartbeated(owner);\r\n        timeOfDeath_ = 0;\r\n    }\r\n\r\n    function claimHeirOwnership() public onlyHeir {\r\n        require(!ownerLives());\r\n        // solium-disable-next-line security/no-block-members\r\n        require(block.timestamp >= timeOfDeath_ + heartbeatTimeout_);\r\n        emit OwnershipTransferred(owner, heir_);\r\n        emit HeirOwnershipClaimed(owner, heir_);\r\n        owner = heir_;\r\n        timeOfDeath_ = 0;\r\n    }\r\n\r\n    function setHeartbeatTimeout(uint256 newHeartbeatTimeout) internal onlyOwner {\r\n        require(ownerLives());\r\n        heartbeatTimeout_ = newHeartbeatTimeout;\r\n    }\r\n\r\n    function ownerLives() internal view returns (bool) {\r\n        return timeOfDeath_ == 0;\r\n    }\r\n}\r\n\r\n\r\ncontract dummy is Heritable {\r\n    uint x = 0;\r\n}",
  "sourcePath": "G:\\Root\\Blockchain\\WOX\\contracts\\dummy.sol",
  "compiler": {
    "name": "solc",
    "version": "0.4.23+commit.124ca40d.Emscripten.clang"
  },
  "schemaVersion": "2.0.0",
  "updatedAt": "2018-06-27T06:53:27.175Z"
}