{
  "contractName": "FinalizableCrowdsale",
  "abi": [
    {
      "constant": true,
      "inputs": [],
      "name": "maxVestingWei",
      "outputs": [
        {
          "name": "",
          "type": "uint256"
        }
      ],
      "payable": false,
      "stateMutability": "view",
      "type": "function"
    },
    {
      "constant": true,
      "inputs": [],
      "name": "hasClosed",
      "outputs": [
        {
          "name": "",
          "type": "bool"
        }
      ],
      "payable": false,
      "stateMutability": "view",
      "type": "function"
    },
    {
      "constant": true,
      "inputs": [],
      "name": "totalSupply",
      "outputs": [
        {
          "name": "",
          "type": "uint256"
        }
      ],
      "payable": false,
      "stateMutability": "view",
      "type": "function"
    },
    {
      "constant": true,
      "inputs": [],
      "name": "currentTierHardcap",
      "outputs": [
        {
          "name": "",
          "type": "uint256"
        }
      ],
      "payable": false,
      "stateMutability": "view",
      "type": "function"
    },
    {
      "constant": true,
      "inputs": [],
      "name": "decimals",
      "outputs": [
        {
          "name": "",
          "type": "uint256"
        }
      ],
      "payable": false,
      "stateMutability": "view",
      "type": "function"
    },
    {
      "constant": true,
      "inputs": [],
      "name": "weiRaised",
      "outputs": [
        {
          "name": "",
          "type": "uint256"
        }
      ],
      "payable": false,
      "stateMutability": "view",
      "type": "function"
    },
    {
      "constant": true,
      "inputs": [],
      "name": "getWeiRaised",
      "outputs": [
        {
          "name": "",
          "type": "uint256"
        }
      ],
      "payable": false,
      "stateMutability": "view",
      "type": "function"
    },
    {
      "constant": true,
      "inputs": [],
      "name": "wallet",
      "outputs": [
        {
          "name": "",
          "type": "address"
        }
      ],
      "payable": false,
      "stateMutability": "view",
      "type": "function"
    },
    {
      "constant": false,
      "inputs": [
        {
          "name": "_vc",
          "type": "address"
        }
      ],
      "name": "addToVC",
      "outputs": [],
      "payable": false,
      "stateMutability": "nonpayable",
      "type": "function"
    },
    {
      "constant": true,
      "inputs": [],
      "name": "tokenName",
      "outputs": [
        {
          "name": "",
          "type": "string"
        }
      ],
      "payable": false,
      "stateMutability": "view",
      "type": "function"
    },
    {
      "constant": false,
      "inputs": [],
      "name": "renounceOwnership",
      "outputs": [],
      "payable": false,
      "stateMutability": "nonpayable",
      "type": "function"
    },
    {
      "constant": true,
      "inputs": [
        {
          "name": "_vc",
          "type": "address"
        }
      ],
      "name": "whtielistedAsVC",
      "outputs": [
        {
          "name": "",
          "type": "bool"
        }
      ],
      "payable": false,
      "stateMutability": "view",
      "type": "function"
    },
    {
      "constant": true,
      "inputs": [],
      "name": "tokenSymbol",
      "outputs": [
        {
          "name": "",
          "type": "string"
        }
      ],
      "payable": false,
      "stateMutability": "view",
      "type": "function"
    },
    {
      "constant": true,
      "inputs": [],
      "name": "owner",
      "outputs": [
        {
          "name": "",
          "type": "address"
        }
      ],
      "payable": false,
      "stateMutability": "view",
      "type": "function"
    },
    {
      "constant": false,
      "inputs": [
        {
          "name": "_vc",
          "type": "address"
        }
      ],
      "name": "removeFromVC",
      "outputs": [],
      "payable": false,
      "stateMutability": "nonpayable",
      "type": "function"
    },
    {
      "constant": true,
      "inputs": [],
      "name": "currentSaleTokenWeiHardcap",
      "outputs": [
        {
          "name": "",
          "type": "uint256"
        }
      ],
      "payable": false,
      "stateMutability": "view",
      "type": "function"
    },
    {
      "constant": true,
      "inputs": [],
      "name": "currentTierTokenWeisPerEth",
      "outputs": [
        {
          "name": "",
          "type": "uint256"
        }
      ],
      "payable": false,
      "stateMutability": "view",
      "type": "function"
    },
    {
      "constant": true,
      "inputs": [],
      "name": "hasOpened",
      "outputs": [
        {
          "name": "",
          "type": "bool"
        }
      ],
      "payable": false,
      "stateMutability": "view",
      "type": "function"
    },
    {
      "constant": true,
      "inputs": [],
      "name": "minVestingWei",
      "outputs": [
        {
          "name": "",
          "type": "uint256"
        }
      ],
      "payable": false,
      "stateMutability": "view",
      "type": "function"
    },
    {
      "constant": true,
      "inputs": [],
      "name": "currentTier",
      "outputs": [
        {
          "name": "",
          "type": "uint8"
        }
      ],
      "payable": false,
      "stateMutability": "view",
      "type": "function"
    },
    {
      "constant": true,
      "inputs": [],
      "name": "tokenWeisSold",
      "outputs": [
        {
          "name": "",
          "type": "uint256"
        }
      ],
      "payable": false,
      "stateMutability": "view",
      "type": "function"
    },
    {
      "constant": false,
      "inputs": [
        {
          "name": "_beneficiary",
          "type": "address"
        }
      ],
      "name": "buyTokens",
      "outputs": [
        {
          "name": "",
          "type": "uint256"
        }
      ],
      "payable": true,
      "stateMutability": "payable",
      "type": "function"
    },
    {
      "constant": false,
      "inputs": [
        {
          "name": "newOwner",
          "type": "address"
        }
      ],
      "name": "transferOwnership",
      "outputs": [],
      "payable": false,
      "stateMutability": "nonpayable",
      "type": "function"
    },
    {
      "constant": false,
      "inputs": [
        {
          "name": "_wallet",
          "type": "address"
        },
        {
          "name": "_weiAmount",
          "type": "uint256"
        }
      ],
      "name": "withdraw",
      "outputs": [],
      "payable": false,
      "stateMutability": "nonpayable",
      "type": "function"
    },
    {
      "constant": true,
      "inputs": [],
      "name": "token",
      "outputs": [
        {
          "name": "",
          "type": "address"
        }
      ],
      "payable": false,
      "stateMutability": "view",
      "type": "function"
    },
    {
      "anonymous": false,
      "inputs": [],
      "name": "Finalized",
      "type": "event"
    },
    {
      "anonymous": false,
      "inputs": [],
      "name": "Closed",
      "type": "event"
    },
    {
      "anonymous": false,
      "inputs": [
        {
          "indexed": true,
          "name": "purchaser",
          "type": "address"
        },
        {
          "indexed": true,
          "name": "beneficiary",
          "type": "address"
        },
        {
          "indexed": false,
          "name": "value",
          "type": "uint256"
        },
        {
          "indexed": false,
          "name": "amount",
          "type": "uint256"
        }
      ],
      "name": "TokenPurchase",
      "type": "event"
    },
    {
      "anonymous": false,
      "inputs": [
        {
          "indexed": true,
          "name": "previousOwner",
          "type": "address"
        }
      ],
      "name": "OwnershipRenounced",
      "type": "event"
    },
    {
      "anonymous": false,
      "inputs": [
        {
          "indexed": true,
          "name": "previousOwner",
          "type": "address"
        },
        {
          "indexed": true,
          "name": "newOwner",
          "type": "address"
        }
      ],
      "name": "OwnershipTransferred",
      "type": "event"
    },
    {
      "constant": true,
      "inputs": [],
      "name": "goalReached",
      "outputs": [
        {
          "name": "",
          "type": "bool"
        }
      ],
      "payable": false,
      "stateMutability": "view",
      "type": "function"
    },
    {
      "constant": false,
      "inputs": [
        {
          "name": "toBeClosed",
          "type": "bool"
        }
      ],
      "name": "finalize",
      "outputs": [],
      "payable": false,
      "stateMutability": "nonpayable",
      "type": "function"
    }
  ],
  "bytecode": "0x608060405233600160006101000a81548173ffffffffffffffffffffffffffffffffffffffff021916908373ffffffffffffffffffffffffffffffffffffffff160217905550611b48806100546000396000f30060806040526004361061015f576000357c0100000000000000000000000000000000000000000000000000000000900463ffffffff16806306c36581146101645780631515bc2b1461018f57806318160ddd146101be578063301df9dd146101e9578063313ce567146102145780634042b66f1461023f57806340582f131461026a578063521eb2731461029557806353fe21ad146102ec5780636c02a9311461032f5780636c9789b0146103bf578063715018a6146103ee578063792d7ec3146104055780637b61c320146104605780637d3d6522146104f05780638da5cb5b1461051f5780639fb160aa146105765780639fc2e24f146105b9578063bbe8a466146105e4578063be8eef8e1461060f578063ce7f3a271461063e578063d679677a14610669578063e184a515146106a2578063ec8ac4d8146106cd578063f2fde38b14610717578063f3fef3a31461075a578063fc0c546a146107a7575b600080fd5b34801561017057600080fd5b506101796107fe565b6040518082815260200191505060405180910390f35b34801561019b57600080fd5b506101a46108a0565b604051808215151515815260200191505060405180910390f35b3480156101ca57600080fd5b506101d36108d1565b6040518082815260200191505060405180910390f35b3480156101f557600080fd5b506101fe6108d7565b6040518082815260200191505060405180910390f35b34801561022057600080fd5b50610229610905565b6040518082815260200191505060405180910390f35b34801561024b57600080fd5b5061025461090b565b6040518082815260200191505060405180910390f35b34801561027657600080fd5b5061027f610911565b6040518082815260200191505060405180910390f35b3480156102a157600080fd5b506102aa61091b565b604051808273ffffffffffffffffffffffffffffffffffffffff1673ffffffffffffffffffffffffffffffffffffffff16815260200191505060405180910390f35b3480156102f857600080fd5b5061032d600480360381019080803573ffffffffffffffffffffffffffffffffffffffff169060200190929190505050610941565b005b34801561033b57600080fd5b50610344610a62565b6040518080602001828103825283818151815260200191508051906020019080838360005b83811015610384578082015181840152602081019050610369565b50505050905090810190601f1680156103b15780820380516001836020036101000a031916815260200191505b509250505060405180910390f35b3480156103cb57600080fd5b506103ec600480360381019080803515159060200190929190505050610b00565b005b3480156103fa57600080fd5b50610403610bde565b005b34801561041157600080fd5b50610446600480360381019080803573ffffffffffffffffffffffffffffffffffffffff169060200190929190505050610ce3565b604051808215151515815260200191505060405180910390f35b34801561046c57600080fd5b50610475610d00565b6040518080602001828103825283818151815260200191508051906020019080838360005b838110156104b557808201518184015260208101905061049a565b50505050905090810190601f1680156104e25780820380516001836020036101000a031916815260200191505b509250505060405180910390f35b3480156104fc57600080fd5b50610505610d9e565b604051808215151515815260200191505060405180910390f35b34801561052b57600080fd5b50610534610dad565b604051808273ffffffffffffffffffffffffffffffffffffffff1673ffffffffffffffffffffffffffffffffffffffff16815260200191505060405180910390f35b34801561058257600080fd5b506105b7600480360381019080803573ffffffffffffffffffffffffffffffffffffffff169060200190929190505050610dd3565b005b3480156105c557600080fd5b506105ce610ef4565b6040518082815260200191505060405180910390f35b3480156105f057600080fd5b506105f9610f57565b6040518082815260200191505060405180910390f35b34801561061b57600080fd5b50610624610f85565b604051808215151515815260200191505060405180910390f35b34801561064a57600080fd5b50610653610fb0565b6040518082815260200191505060405180910390f35b34801561067557600080fd5b5061067e611052565b6040518082600681111561068e57fe5b60ff16815260200191505060405180910390f35b3480156106ae57600080fd5b506106b761108d565b6040518082815260200191505060405180910390f35b610701600480360381019080803573ffffffffffffffffffffffffffffffffffffffff169060200190929190505050611093565b6040518082815260200191505060405180910390f35b34801561072357600080fd5b50610758600480360381019080803573ffffffffffffffffffffffffffffffffffffffff1690602001909291905050506111a1565b005b34801561076657600080fd5b506107a5600480360381019080803573ffffffffffffffffffffffffffffffffffffffff169060200190929190803590602001909291905050506112f9565b005b3480156107b357600080fd5b506107bc6113fd565b604051808273ffffffffffffffffffffffffffffffffffffffff1673ffffffffffffffffffffffffffffffffffffffff16815260200191505060405180910390f35b6000610808610f85565b151561081357600080fd5b61081b6108a0565b15151561082757600080fd5b6000610831611423565b81548110151561083d57fe5b906000526020600020906006020160050160009054906101000a900460ff16151561086757600080fd5b6001600681111561087457fe5b61087c611052565b600681111561088757fe5b141561089757600b54905061089d565b600d5490505b90565b6000806001600080549050038154811015156108b857fe5b9060005260206000209060060201600201544211905090565b60065481565b6000806108e2611423565b8154811015156108ee57fe5b906000526020600020906006020160030154905090565b60075481565b600f5481565b6000600f54905090565b600460009054906101000a900473ffffffffffffffffffffffffffffffffffffffff1681565b600160009054906101000a900473ffffffffffffffffffffffffffffffffffffffff1673ffffffffffffffffffffffffffffffffffffffff163373ffffffffffffffffffffffffffffffffffffffff1614151561099d57600080fd5b600060068111156109aa57fe5b60006109b4611423565b8154811015156109c057fe5b906000526020600020906006020160000160009054906101000a900460ff1660068111156109ea57fe5b1480610a405750600260068111156109fe57fe5b6000610a08611423565b815481101515610a1457fe5b906000526020600020906006020160000160009054906101000a900460ff166006811115610a3e57fe5b145b1515610a4b57600080fd5b610a5f8160026114ce90919063ffffffff16565b50565b60088054600181600116156101000203166002900480601f016020809104026020016040519081016040528092919081815260200182805460018160011615610100020316600290048015610af85780601f10610acd57610100808354040283529160200191610af8565b820191906000526020600020905b815481529060010190602001808311610adb57829003601f168201915b505050505081565b600160009054906101000a900473ffffffffffffffffffffffffffffffffffffffff1673ffffffffffffffffffffffffffffffffffffffff163373ffffffffffffffffffffffffffffffffffffffff16141515610b5c57600080fd5b601260019054906101000a900460ff16151515610b7857600080fd5b610b806108a0565b1515610b8b57600080fd5b610b948161152c565b6001601260016101000a81548160ff0219169083151502179055507f6823b073d48d6e3a7d385eeb601452d680e74bb46afe3255a7d778f3a9b1768160405160405180910390a150565b600160009054906101000a900473ffffffffffffffffffffffffffffffffffffffff1673ffffffffffffffffffffffffffffffffffffffff163373ffffffffffffffffffffffffffffffffffffffff16141515610c3a57600080fd5b600160009054906101000a900473ffffffffffffffffffffffffffffffffffffffff1673ffffffffffffffffffffffffffffffffffffffff167ff8df31144d9c2f0f6b59d69b8b98abd5459d07f2742c4df920b25aae33c6482060405160405180910390a26000600160006101000a81548173ffffffffffffffffffffffffffffffffffffffff021916908373ffffffffffffffffffffffffffffffffffffffff160217905550565b6000610cf982600261166390919063ffffffff16565b9050919050565b60098054600181600116156101000203166002900480601f016020809104026020016040519081016040528092919081815260200182805460018160011615610100020316600290048015610d965780601f10610d6b57610100808354040283529160200191610d96565b820191906000526020600020905b815481529060010190602001808311610d7957829003601f168201915b505050505081565b6000600554600f541015905090565b600160009054906101000a900473ffffffffffffffffffffffffffffffffffffffff1681565b600160009054906101000a900473ffffffffffffffffffffffffffffffffffffffff1673ffffffffffffffffffffffffffffffffffffffff163373ffffffffffffffffffffffffffffffffffffffff16141515610e2f57600080fd5b60006006811115610e3c57fe5b6000610e46611423565b815481101515610e5257fe5b906000526020600020906006020160000160009054906101000a900460ff166006811115610e7c57fe5b1480610ed2575060026006811115610e9057fe5b6000610e9a611423565b815481101515610ea657fe5b906000526020600020906006020160000160009054906101000a900460ff166006811115610ed057fe5b145b1515610edd57600080fd5b610ef18160026116bc90919063ffffffff16565b50565b60008060008090505b610f05611423565b81111515610f4f57610f40600082815481101515610f1f57fe5b9060005260206000209060060201600301548361171a90919063ffffffff16565b91508080600101915050610efd565b819250505090565b600080610f62611423565b815481101515610f6e57fe5b906000526020600020906006020160040154905090565b6000806000815481101515610f9657fe5b906000526020600020906006020160010154421015905090565b6000610fba610f85565b1515610fc557600080fd5b610fcd6108a0565b151515610fd957600080fd5b6000610fe3611423565b815481101515610fef57fe5b906000526020600020906006020160050160009054906101000a900460ff16151561101957600080fd5b6001600681111561102657fe5b61102e611052565b600681111561103957fe5b141561104957600a54905061104f565b600c5490505b90565b60008061105d611423565b81548110151561106957fe5b906000526020600020906006020160000160009054906101000a900460ff16905090565b60115481565b60008060006110a0610f85565b15156110ab57600080fd5b6110b36108a0565b1515156110bf57600080fd5b60006110c9611423565b8154811015156110d557fe5b906000526020600020906006020160050160009054906101000a900460ff1615156110ff57600080fd5b34915061110b82611736565b9050611118848383611775565b6111238483836118f9565b61112d84826119c9565b8373ffffffffffffffffffffffffffffffffffffffff163373ffffffffffffffffffffffffffffffffffffffff167f623b3804fa71d67900d064613da8f94b9617215ee90799290593e1745087ad188484604051808381526020018281526020019250505060405180910390a35050919050565b600160009054906101000a900473ffffffffffffffffffffffffffffffffffffffff1673ffffffffffffffffffffffffffffffffffffffff163373ffffffffffffffffffffffffffffffffffffffff161415156111fd57600080fd5b600073ffffffffffffffffffffffffffffffffffffffff168173ffffffffffffffffffffffffffffffffffffffff161415151561123957600080fd5b8073ffffffffffffffffffffffffffffffffffffffff16600160009054906101000a900473ffffffffffffffffffffffffffffffffffffffff1673ffffffffffffffffffffffffffffffffffffffff167f8be0079c531659141344cd1fd0a4f28419497f9722a3daafe3b4186f6b6457e060405160405180910390a380600160006101000a81548173ffffffffffffffffffffffffffffffffffffffff021916908373ffffffffffffffffffffffffffffffffffffffff16021790555050565b600160009054906101000a900473ffffffffffffffffffffffffffffffffffffffff1673ffffffffffffffffffffffffffffffffffffffff163373ffffffffffffffffffffffffffffffffffffffff1614151561135557600080fd5b600073ffffffffffffffffffffffffffffffffffffffff168273ffffffffffffffffffffffffffffffffffffffff161415151561139157600080fd5b600081141515156113a157600080fd5b600f5481111515156113b257600080fd5b8173ffffffffffffffffffffffffffffffffffffffff166108fc829081150290604051600060405180830381858888f193505050501580156113f8573d6000803e3d6000fd5b505050565b600360009054906101000a900473ffffffffffffffffffffffffffffffffffffffff1681565b60008061142e610f85565b151561143957600080fd5b6114416108a0565b15151561144d57600080fd5b600090505b6000805490508110156114c95760008181548110151561146e57fe5b90600052602060002090600602016001015442101580156114af575060008181548110151561149957fe5b9060005260206000209060060201600201544211155b156114bc578091506114ca565b8080600101915050611452565b5b5090565b60018260000160008373ffffffffffffffffffffffffffffffffffffffff1673ffffffffffffffffffffffffffffffffffffffff16815260200190815260200160002060006101000a81548160ff0219169083151502179055505050565b6000600281111561153957fe5b601260009054906101000a900460ff16600281111561155457fe5b14151561156057600080fd5b801561163b576002601260006101000a81548160ff0219169083600281111561158557fe5b0217905550600460009054906101000a900473ffffffffffffffffffffffffffffffffffffffff1673ffffffffffffffffffffffffffffffffffffffff166108fc3073ffffffffffffffffffffffffffffffffffffffff16319081150290604051600060405180830381858888f19350505050158015611609573d6000803e3d6000fd5b507f1cdde67b72a90f19919ac732a437ac2f7a10fc128d28c2a6e525d89ce5cd9d3a60405160405180910390a1611660565b6001601260006101000a81548160ff0219169083600281111561165a57fe5b02179055505b50565b60008260000160008373ffffffffffffffffffffffffffffffffffffffff1673ffffffffffffffffffffffffffffffffffffffff16815260200190815260200160002060009054906101000a900460ff16905092915050565b60008260000160008373ffffffffffffffffffffffffffffffffffffffff1673ffffffffffffffffffffffffffffffffffffffff16815260200190815260200160002060006101000a81548160ff0219169083151502179055505050565b6000818301905082811015151561172d57fe5b80905092915050565b600080611741610f57565b905061176d600754600a0a61175f8386611ace90919063ffffffff16565b611b0690919063ffffffff16565b915050919050565b600073ffffffffffffffffffffffffffffffffffffffff168373ffffffffffffffffffffffffffffffffffffffff16141515156117b157600080fd5b600082141515156117c157600080fd5b6117c9610ef4565b6117de8260115461171a90919063ffffffff16565b111515156117eb57600080fd5b6117f3610fb0565b61184583601060008773ffffffffffffffffffffffffffffffffffffffff1673ffffffffffffffffffffffffffffffffffffffff1681526020019081526020016000205461171a90919063ffffffff16565b1015151561185257600080fd5b61185a6107fe565b6118ac83601060008773ffffffffffffffffffffffffffffffffffffffff1673ffffffffffffffffffffffffffffffffffffffff1681526020019081526020016000205461171a90919063ffffffff16565b111515156118b957600080fd5b600160068111156118c657fe5b6118ce611052565b60068111156118d957fe5b14156118f4576118e883610ce3565b15156118f357600080fd5b5b505050565b61194b82601060008673ffffffffffffffffffffffffffffffffffffffff1673ffffffffffffffffffffffffffffffffffffffff1681526020019081526020016000205461171a90919063ffffffff16565b601060008573ffffffffffffffffffffffffffffffffffffffff1673ffffffffffffffffffffffffffffffffffffffff168152602001908152602001600020819055506119a38160115461171a90919063ffffffff16565b6011819055506119be82600f5461171a90919063ffffffff16565b600f81905550505050565b600360009054906101000a900473ffffffffffffffffffffffffffffffffffffffff1673ffffffffffffffffffffffffffffffffffffffff1663a9059cbb83836040518363ffffffff167c0100000000000000000000000000000000000000000000000000000000028152600401808373ffffffffffffffffffffffffffffffffffffffff1673ffffffffffffffffffffffffffffffffffffffff16815260200182815260200192505050602060405180830381600087803b158015611a8e57600080fd5b505af1158015611aa2573d6000803e3d6000fd5b505050506040513d6020811015611ab857600080fd5b8101908080519060200190929190505050505050565b600080831415611ae15760009050611b00565b8183029050818382811515611af257fe5b04141515611afc57fe5b8090505b92915050565b60008183811515611b1357fe5b049050929150505600a165627a7a723058207f976191ce69f8802ed5965356b6181782c947dcb64459e6563ddf182d12d4cb0029",
  "source": "pragma solidity ^0.4.23;\r\n\r\nimport \"./BasicCrowdsale.sol\";\r\n\r\n/**\r\n * @title FinalizableCrowdsale\r\n * @dev FinalizableCrowdsale inherits BasicCrowdsale and intended to manage finalization process.\r\n */\r\ncontract FinalizableCrowdsale is BasicCrowdsale {\r\n    enum State {Active, Refunding, Closed}\r\n    State state;   \r\n    bool isFinalized;\r\n    \r\n    event Finalized();\r\n    event Closed();\r\n\r\n    /**\r\n     * @dev Checks if softcap goal is reached.\r\n     * @return A bool showing whether the softcap goal is reached.\r\n     */\r\n    function goalReached() public view returns(bool) {\r\n        return weiRaised >= softcapWei;\r\n    }\r\n\r\n    /**\r\n     * @dev Finalizes the ICO.\r\n     * @dev note Only owner is allowed to finalizing the crowdsale.\r\n     * @dev note Only when the crowdsale is reached to its ending, finalization is allowed.\r\n     * @param toBeClosed A bool determines crowdsale must be colsed or refunded.\r\n     */\r\n    function finalize(bool toBeClosed) public onlyOwner {\r\n        require(!isFinalized);\r\n        require(hasClosed());\r\n        finalization(toBeClosed);\r\n        isFinalized = true;\r\n        emit Finalized();\r\n    }\r\n\r\n    /**\r\n     * @dev Internal function executes the finalization process.\r\n     * @dev note If the softcap goal is reached this action would change the crowdsale state to 'Closed' state.\r\n     * @dev note If the desired softcap goal is not raised this action would change the crowdsale state to 'Rfunding' state.\r\n     * and since then every participant could refund his/her invests back.\r\n     * @param toBeClosed A bool determines crowdsale must be colsed or refunded.\r\n     */\r\n    function finalization(bool toBeClosed) internal {\r\n        require(state == State.Active);\r\n        if (toBeClosed) {\r\n            state = State.Closed;\r\n            wallet.transfer(address(this).balance);\r\n            emit Closed();\r\n        } else {\r\n            state = State.Refunding;\r\n        }\r\n    }\r\n}",
  "sourcePath": "G:\\Root\\Blockchain\\WOX\\contracts\\crowdSale\\FinalizableCrowdsale.sol",
  "compiler": {
    "name": "solc",
    "version": "0.4.23+commit.124ca40d.Emscripten.clang"
  },
  "schemaVersion": "2.0.0",
  "updatedAt": "2018-06-27T06:56:02.079Z"
}