{
  "contractName": "FinalizableCrowdsale",
  "abi": [
    {
      "constant": true,
      "inputs": [],
      "name": "maxVestingWei",
      "outputs": [
        {
          "name": "",
          "type": "uint256"
        }
      ],
      "payable": false,
      "stateMutability": "view",
      "type": "function"
    },
    {
      "constant": true,
      "inputs": [],
      "name": "hasClosed",
      "outputs": [
        {
          "name": "",
          "type": "bool"
        }
      ],
      "payable": false,
      "stateMutability": "view",
      "type": "function"
    },
    {
      "constant": true,
      "inputs": [],
      "name": "totalSupply",
      "outputs": [
        {
          "name": "",
          "type": "uint256"
        }
      ],
      "payable": false,
      "stateMutability": "view",
      "type": "function"
    },
    {
      "constant": true,
      "inputs": [],
      "name": "currentTierHardcap",
      "outputs": [
        {
          "name": "",
          "type": "uint256"
        }
      ],
      "payable": false,
      "stateMutability": "view",
      "type": "function"
    },
    {
      "constant": true,
      "inputs": [],
      "name": "decimals",
      "outputs": [
        {
          "name": "",
          "type": "uint256"
        }
      ],
      "payable": false,
      "stateMutability": "view",
      "type": "function"
    },
    {
      "constant": true,
      "inputs": [],
      "name": "weiRaised",
      "outputs": [
        {
          "name": "",
          "type": "uint256"
        }
      ],
      "payable": false,
      "stateMutability": "view",
      "type": "function"
    },
    {
      "constant": true,
      "inputs": [],
      "name": "getWeiRaised",
      "outputs": [
        {
          "name": "",
          "type": "uint256"
        }
      ],
      "payable": false,
      "stateMutability": "view",
      "type": "function"
    },
    {
      "constant": true,
      "inputs": [],
      "name": "wallet",
      "outputs": [
        {
          "name": "",
          "type": "address"
        }
      ],
      "payable": false,
      "stateMutability": "view",
      "type": "function"
    },
    {
      "constant": false,
      "inputs": [
        {
          "name": "_vc",
          "type": "address"
        }
      ],
      "name": "addToVC",
      "outputs": [],
      "payable": false,
      "stateMutability": "nonpayable",
      "type": "function"
    },
    {
      "constant": true,
      "inputs": [],
      "name": "tokenName",
      "outputs": [
        {
          "name": "",
          "type": "string"
        }
      ],
      "payable": false,
      "stateMutability": "view",
      "type": "function"
    },
    {
      "constant": false,
      "inputs": [],
      "name": "renounceOwnership",
      "outputs": [],
      "payable": false,
      "stateMutability": "nonpayable",
      "type": "function"
    },
    {
      "constant": true,
      "inputs": [
        {
          "name": "_vc",
          "type": "address"
        }
      ],
      "name": "whtielistedAsVC",
      "outputs": [
        {
          "name": "",
          "type": "bool"
        }
      ],
      "payable": false,
      "stateMutability": "view",
      "type": "function"
    },
    {
      "constant": true,
      "inputs": [],
      "name": "tokenSymbol",
      "outputs": [
        {
          "name": "",
          "type": "string"
        }
      ],
      "payable": false,
      "stateMutability": "view",
      "type": "function"
    },
    {
      "constant": true,
      "inputs": [],
      "name": "owner",
      "outputs": [
        {
          "name": "",
          "type": "address"
        }
      ],
      "payable": false,
      "stateMutability": "view",
      "type": "function"
    },
    {
      "constant": false,
      "inputs": [
        {
          "name": "_vc",
          "type": "address"
        }
      ],
      "name": "removeFromVC",
      "outputs": [],
      "payable": false,
      "stateMutability": "nonpayable",
      "type": "function"
    },
    {
      "constant": true,
      "inputs": [],
      "name": "currentSaleTokenWeiHardcap",
      "outputs": [
        {
          "name": "",
          "type": "uint256"
        }
      ],
      "payable": false,
      "stateMutability": "view",
      "type": "function"
    },
    {
      "constant": true,
      "inputs": [],
      "name": "currentTierTokenWeisPerEth",
      "outputs": [
        {
          "name": "",
          "type": "uint256"
        }
      ],
      "payable": false,
      "stateMutability": "view",
      "type": "function"
    },
    {
      "constant": true,
      "inputs": [],
      "name": "hasOpened",
      "outputs": [
        {
          "name": "",
          "type": "bool"
        }
      ],
      "payable": false,
      "stateMutability": "view",
      "type": "function"
    },
    {
      "constant": true,
      "inputs": [],
      "name": "minVestingWei",
      "outputs": [
        {
          "name": "",
          "type": "uint256"
        }
      ],
      "payable": false,
      "stateMutability": "view",
      "type": "function"
    },
    {
      "constant": true,
      "inputs": [],
      "name": "currentTier",
      "outputs": [
        {
          "name": "",
          "type": "uint8"
        }
      ],
      "payable": false,
      "stateMutability": "view",
      "type": "function"
    },
    {
      "constant": true,
      "inputs": [],
      "name": "tokenWeisSold",
      "outputs": [
        {
          "name": "",
          "type": "uint256"
        }
      ],
      "payable": false,
      "stateMutability": "view",
      "type": "function"
    },
    {
      "constant": false,
      "inputs": [
        {
          "name": "_beneficiary",
          "type": "address"
        }
      ],
      "name": "buyTokens",
      "outputs": [
        {
          "name": "",
          "type": "uint256"
        }
      ],
      "payable": true,
      "stateMutability": "payable",
      "type": "function"
    },
    {
      "constant": false,
      "inputs": [
        {
          "name": "newOwner",
          "type": "address"
        }
      ],
      "name": "transferOwnership",
      "outputs": [],
      "payable": false,
      "stateMutability": "nonpayable",
      "type": "function"
    },
    {
      "constant": false,
      "inputs": [
        {
          "name": "_wallet",
          "type": "address"
        },
        {
          "name": "_weiAmount",
          "type": "uint256"
        }
      ],
      "name": "withdraw",
      "outputs": [],
      "payable": false,
      "stateMutability": "nonpayable",
      "type": "function"
    },
    {
      "constant": true,
      "inputs": [],
      "name": "token",
      "outputs": [
        {
          "name": "",
          "type": "address"
        }
      ],
      "payable": false,
      "stateMutability": "view",
      "type": "function"
    },
    {
      "payable": true,
      "stateMutability": "payable",
      "type": "fallback"
    },
    {
      "anonymous": false,
      "inputs": [],
      "name": "Finalized",
      "type": "event"
    },
    {
      "anonymous": false,
      "inputs": [],
      "name": "Closed",
      "type": "event"
    },
    {
      "anonymous": false,
      "inputs": [
        {
          "indexed": true,
          "name": "purchaser",
          "type": "address"
        },
        {
          "indexed": true,
          "name": "beneficiary",
          "type": "address"
        },
        {
          "indexed": false,
          "name": "value",
          "type": "uint256"
        },
        {
          "indexed": false,
          "name": "amount",
          "type": "uint256"
        }
      ],
      "name": "TokenPurchase",
      "type": "event"
    },
    {
      "anonymous": false,
      "inputs": [
        {
          "indexed": true,
          "name": "previousOwner",
          "type": "address"
        }
      ],
      "name": "OwnershipRenounced",
      "type": "event"
    },
    {
      "anonymous": false,
      "inputs": [
        {
          "indexed": true,
          "name": "previousOwner",
          "type": "address"
        },
        {
          "indexed": true,
          "name": "newOwner",
          "type": "address"
        }
      ],
      "name": "OwnershipTransferred",
      "type": "event"
    },
    {
      "constant": true,
      "inputs": [],
      "name": "goalReached",
      "outputs": [
        {
          "name": "",
          "type": "bool"
        }
      ],
      "payable": false,
      "stateMutability": "view",
      "type": "function"
    },
    {
      "constant": false,
      "inputs": [],
      "name": "finalize",
      "outputs": [],
      "payable": false,
      "stateMutability": "nonpayable",
      "type": "function"
    }
  ],
  "bytecode": "0x608060405233600160006101000a81548173ffffffffffffffffffffffffffffffffffffffff021916908373ffffffffffffffffffffffffffffffffffffffff160217905550611b3b806100546000396000f30060806040526004361061015f576000357c0100000000000000000000000000000000000000000000000000000000900463ffffffff16806306c365811461016b5780631515bc2b1461019657806318160ddd146101c5578063301df9dd146101f0578063313ce5671461021b5780634042b66f1461024657806340582f13146102715780634bb278f31461029c578063521eb273146102b357806353fe21ad1461030a5780636c02a9311461034d578063715018a6146103dd578063792d7ec3146103f45780637b61c3201461044f5780637d3d6522146104df5780638da5cb5b1461050e5780639fb160aa146105655780639fc2e24f146105a8578063bbe8a466146105d3578063be8eef8e146105fe578063ce7f3a271461062d578063d679677a14610658578063e184a51514610691578063ec8ac4d8146106bc578063f2fde38b14610706578063f3fef3a314610749578063fc0c546a14610796575b610168336107ed565b50005b34801561017757600080fd5b506101806108fb565b6040518082815260200191505060405180910390f35b3480156101a257600080fd5b506101ab61099d565b604051808215151515815260200191505060405180910390f35b3480156101d157600080fd5b506101da6109ce565b6040518082815260200191505060405180910390f35b3480156101fc57600080fd5b506102056109d4565b6040518082815260200191505060405180910390f35b34801561022757600080fd5b50610230610a02565b6040518082815260200191505060405180910390f35b34801561025257600080fd5b5061025b610a08565b6040518082815260200191505060405180910390f35b34801561027d57600080fd5b50610286610a0e565b6040518082815260200191505060405180910390f35b3480156102a857600080fd5b506102b1610a18565b005b3480156102bf57600080fd5b506102c8610af4565b604051808273ffffffffffffffffffffffffffffffffffffffff1673ffffffffffffffffffffffffffffffffffffffff16815260200191505060405180910390f35b34801561031657600080fd5b5061034b600480360381019080803573ffffffffffffffffffffffffffffffffffffffff169060200190929190505050610b1a565b005b34801561035957600080fd5b50610362610c3b565b6040518080602001828103825283818151815260200191508051906020019080838360005b838110156103a2578082015181840152602081019050610387565b50505050905090810190601f1680156103cf5780820380516001836020036101000a031916815260200191505b509250505060405180910390f35b3480156103e957600080fd5b506103f2610cd9565b005b34801561040057600080fd5b50610435600480360381019080803573ffffffffffffffffffffffffffffffffffffffff169060200190929190505050610dde565b604051808215151515815260200191505060405180910390f35b34801561045b57600080fd5b50610464610dfb565b6040518080602001828103825283818151815260200191508051906020019080838360005b838110156104a4578082015181840152602081019050610489565b50505050905090810190601f1680156104d15780820380516001836020036101000a031916815260200191505b509250505060405180910390f35b3480156104eb57600080fd5b506104f4610e99565b604051808215151515815260200191505060405180910390f35b34801561051a57600080fd5b50610523610ea8565b604051808273ffffffffffffffffffffffffffffffffffffffff1673ffffffffffffffffffffffffffffffffffffffff16815260200191505060405180910390f35b34801561057157600080fd5b506105a6600480360381019080803573ffffffffffffffffffffffffffffffffffffffff169060200190929190505050610ece565b005b3480156105b457600080fd5b506105bd610fef565b6040518082815260200191505060405180910390f35b3480156105df57600080fd5b506105e8611052565b6040518082815260200191505060405180910390f35b34801561060a57600080fd5b50610613611080565b604051808215151515815260200191505060405180910390f35b34801561063957600080fd5b506106426110ab565b6040518082815260200191505060405180910390f35b34801561066457600080fd5b5061066d61114d565b6040518082600681111561067d57fe5b60ff16815260200191505060405180910390f35b34801561069d57600080fd5b506106a6611188565b6040518082815260200191505060405180910390f35b6106f0600480360381019080803573ffffffffffffffffffffffffffffffffffffffff1690602001909291905050506107ed565b6040518082815260200191505060405180910390f35b34801561071257600080fd5b50610747600480360381019080803573ffffffffffffffffffffffffffffffffffffffff16906020019092919050505061118e565b005b34801561075557600080fd5b50610794600480360381019080803573ffffffffffffffffffffffffffffffffffffffff169060200190929190803590602001909291905050506112e6565b005b3480156107a257600080fd5b506107ab6113ea565b604051808273ffffffffffffffffffffffffffffffffffffffff1673ffffffffffffffffffffffffffffffffffffffff16815260200191505060405180910390f35b60008060006107fa611080565b151561080557600080fd5b61080d61099d565b15151561081957600080fd5b6000610823611410565b81548110151561082f57fe5b906000526020600020906006020160050160009054906101000a900460ff16151561085957600080fd5b349150610865826114bb565b90506108728483836114fa565b61087d84838361167e565b610887848261174e565b8373ffffffffffffffffffffffffffffffffffffffff163373ffffffffffffffffffffffffffffffffffffffff167f623b3804fa71d67900d064613da8f94b9617215ee90799290593e1745087ad188484604051808381526020018281526020019250505060405180910390a35050919050565b6000610905611080565b151561091057600080fd5b61091861099d565b15151561092457600080fd5b600061092e611410565b81548110151561093a57fe5b906000526020600020906006020160050160009054906101000a900460ff16151561096457600080fd5b6001600681111561097157fe5b61097961114d565b600681111561098457fe5b141561099457600b54905061099a565b600d5490505b90565b6000806001600080549050038154811015156109b557fe5b9060005260206000209060060201600201544211905090565b60065481565b6000806109df611410565b8154811015156109eb57fe5b906000526020600020906006020160030154905090565b60075481565b600f5481565b6000600f54905090565b600160009054906101000a900473ffffffffffffffffffffffffffffffffffffffff1673ffffffffffffffffffffffffffffffffffffffff163373ffffffffffffffffffffffffffffffffffffffff16141515610a7457600080fd5b601260019054906101000a900460ff16151515610a9057600080fd5b610a9861099d565b1515610aa357600080fd5b610aab611853565b6001601260016101000a81548160ff0219169083151502179055507f6823b073d48d6e3a7d385eeb601452d680e74bb46afe3255a7d778f3a9b1768160405160405180910390a1565b600460009054906101000a900473ffffffffffffffffffffffffffffffffffffffff1681565b600160009054906101000a900473ffffffffffffffffffffffffffffffffffffffff1673ffffffffffffffffffffffffffffffffffffffff163373ffffffffffffffffffffffffffffffffffffffff16141515610b7657600080fd5b60006006811115610b8357fe5b6000610b8d611410565b815481101515610b9957fe5b906000526020600020906006020160000160009054906101000a900460ff166006811115610bc357fe5b1480610c19575060026006811115610bd757fe5b6000610be1611410565b815481101515610bed57fe5b906000526020600020906006020160000160009054906101000a900460ff166006811115610c1757fe5b145b1515610c2457600080fd5b610c3881600261199090919063ffffffff16565b50565b60088054600181600116156101000203166002900480601f016020809104026020016040519081016040528092919081815260200182805460018160011615610100020316600290048015610cd15780601f10610ca657610100808354040283529160200191610cd1565b820191906000526020600020905b815481529060010190602001808311610cb457829003601f168201915b505050505081565b600160009054906101000a900473ffffffffffffffffffffffffffffffffffffffff1673ffffffffffffffffffffffffffffffffffffffff163373ffffffffffffffffffffffffffffffffffffffff16141515610d3557600080fd5b600160009054906101000a900473ffffffffffffffffffffffffffffffffffffffff1673ffffffffffffffffffffffffffffffffffffffff167ff8df31144d9c2f0f6b59d69b8b98abd5459d07f2742c4df920b25aae33c6482060405160405180910390a26000600160006101000a81548173ffffffffffffffffffffffffffffffffffffffff021916908373ffffffffffffffffffffffffffffffffffffffff160217905550565b6000610df48260026119ee90919063ffffffff16565b9050919050565b60098054600181600116156101000203166002900480601f016020809104026020016040519081016040528092919081815260200182805460018160011615610100020316600290048015610e915780601f10610e6657610100808354040283529160200191610e91565b820191906000526020600020905b815481529060010190602001808311610e7457829003601f168201915b505050505081565b6000600554600f541015905090565b600160009054906101000a900473ffffffffffffffffffffffffffffffffffffffff1681565b600160009054906101000a900473ffffffffffffffffffffffffffffffffffffffff1673ffffffffffffffffffffffffffffffffffffffff163373ffffffffffffffffffffffffffffffffffffffff16141515610f2a57600080fd5b60006006811115610f3757fe5b6000610f41611410565b815481101515610f4d57fe5b906000526020600020906006020160000160009054906101000a900460ff166006811115610f7757fe5b1480610fcd575060026006811115610f8b57fe5b6000610f95611410565b815481101515610fa157fe5b906000526020600020906006020160000160009054906101000a900460ff166006811115610fcb57fe5b145b1515610fd857600080fd5b610fec816002611a4790919063ffffffff16565b50565b60008060008090505b611000611410565b8111151561104a5761103b60008281548110151561101a57fe5b90600052602060002090600602016003015483611aa590919063ffffffff16565b91508080600101915050610ff8565b819250505090565b60008061105d611410565b81548110151561106957fe5b906000526020600020906006020160040154905090565b600080600081548110151561109157fe5b906000526020600020906006020160010154421015905090565b60006110b5611080565b15156110c057600080fd5b6110c861099d565b1515156110d457600080fd5b60006110de611410565b8154811015156110ea57fe5b906000526020600020906006020160050160009054906101000a900460ff16151561111457600080fd5b6001600681111561112157fe5b61112961114d565b600681111561113457fe5b141561114457600a54905061114a565b600c5490505b90565b600080611158611410565b81548110151561116457fe5b906000526020600020906006020160000160009054906101000a900460ff16905090565b60115481565b600160009054906101000a900473ffffffffffffffffffffffffffffffffffffffff1673ffffffffffffffffffffffffffffffffffffffff163373ffffffffffffffffffffffffffffffffffffffff161415156111ea57600080fd5b600073ffffffffffffffffffffffffffffffffffffffff168173ffffffffffffffffffffffffffffffffffffffff161415151561122657600080fd5b8073ffffffffffffffffffffffffffffffffffffffff16600160009054906101000a900473ffffffffffffffffffffffffffffffffffffffff1673ffffffffffffffffffffffffffffffffffffffff167f8be0079c531659141344cd1fd0a4f28419497f9722a3daafe3b4186f6b6457e060405160405180910390a380600160006101000a81548173ffffffffffffffffffffffffffffffffffffffff021916908373ffffffffffffffffffffffffffffffffffffffff16021790555050565b600160009054906101000a900473ffffffffffffffffffffffffffffffffffffffff1673ffffffffffffffffffffffffffffffffffffffff163373ffffffffffffffffffffffffffffffffffffffff1614151561134257600080fd5b600073ffffffffffffffffffffffffffffffffffffffff168273ffffffffffffffffffffffffffffffffffffffff161415151561137e57600080fd5b6000811415151561138e57600080fd5b600f54811115151561139f57600080fd5b8173ffffffffffffffffffffffffffffffffffffffff166108fc829081150290604051600060405180830381858888f193505050501580156113e5573d6000803e3d6000fd5b505050565b600360009054906101000a900473ffffffffffffffffffffffffffffffffffffffff1681565b60008061141b611080565b151561142657600080fd5b61142e61099d565b15151561143a57600080fd5b600090505b6000805490508110156114b65760008181548110151561145b57fe5b906000526020600020906006020160010154421015801561149c575060008181548110151561148657fe5b9060005260206000209060060201600201544211155b156114a9578091506114b7565b808060010191505061143f565b5b5090565b6000806114c6611052565b90506114f2600754600a0a6114e48386611ac190919063ffffffff16565b611af990919063ffffffff16565b915050919050565b600073ffffffffffffffffffffffffffffffffffffffff168373ffffffffffffffffffffffffffffffffffffffff161415151561153657600080fd5b6000821415151561154657600080fd5b61154e610fef565b61156382601154611aa590919063ffffffff16565b1115151561157057600080fd5b6115786110ab565b6115ca83601060008773ffffffffffffffffffffffffffffffffffffffff1673ffffffffffffffffffffffffffffffffffffffff16815260200190815260200160002054611aa590919063ffffffff16565b101515156115d757600080fd5b6115df6108fb565b61163183601060008773ffffffffffffffffffffffffffffffffffffffff1673ffffffffffffffffffffffffffffffffffffffff16815260200190815260200160002054611aa590919063ffffffff16565b1115151561163e57600080fd5b6001600681111561164b57fe5b61165361114d565b600681111561165e57fe5b14156116795761166d83610dde565b151561167857600080fd5b5b505050565b6116d082601060008673ffffffffffffffffffffffffffffffffffffffff1673ffffffffffffffffffffffffffffffffffffffff16815260200190815260200160002054611aa590919063ffffffff16565b601060008573ffffffffffffffffffffffffffffffffffffffff1673ffffffffffffffffffffffffffffffffffffffff1681526020019081526020016000208190555061172881601154611aa590919063ffffffff16565b60118190555061174382600f54611aa590919063ffffffff16565b600f81905550505050565b600360009054906101000a900473ffffffffffffffffffffffffffffffffffffffff1673ffffffffffffffffffffffffffffffffffffffff1663a9059cbb83836040518363ffffffff167c0100000000000000000000000000000000000000000000000000000000028152600401808373ffffffffffffffffffffffffffffffffffffffff1673ffffffffffffffffffffffffffffffffffffffff16815260200182815260200192505050602060405180830381600087803b15801561181357600080fd5b505af1158015611827573d6000803e3d6000fd5b505050506040513d602081101561183d57600080fd5b8101908080519060200190929190505050505050565b6000600281111561186057fe5b601260009054906101000a900460ff16600281111561187b57fe5b14151561188757600080fd5b61188f610e99565b15611969576002601260006101000a81548160ff021916908360028111156118b357fe5b0217905550600460009054906101000a900473ffffffffffffffffffffffffffffffffffffffff1673ffffffffffffffffffffffffffffffffffffffff166108fc3073ffffffffffffffffffffffffffffffffffffffff16319081150290604051600060405180830381858888f19350505050158015611937573d6000803e3d6000fd5b507f1cdde67b72a90f19919ac732a437ac2f7a10fc128d28c2a6e525d89ce5cd9d3a60405160405180910390a161198e565b6001601260006101000a81548160ff0219169083600281111561198857fe5b02179055505b565b60018260000160008373ffffffffffffffffffffffffffffffffffffffff1673ffffffffffffffffffffffffffffffffffffffff16815260200190815260200160002060006101000a81548160ff0219169083151502179055505050565b60008260000160008373ffffffffffffffffffffffffffffffffffffffff1673ffffffffffffffffffffffffffffffffffffffff16815260200190815260200160002060009054906101000a900460ff16905092915050565b60008260000160008373ffffffffffffffffffffffffffffffffffffffff1673ffffffffffffffffffffffffffffffffffffffff16815260200190815260200160002060006101000a81548160ff0219169083151502179055505050565b60008183019050828110151515611ab857fe5b80905092915050565b600080831415611ad45760009050611af3565b8183029050818382811515611ae557fe5b04141515611aef57fe5b8090505b92915050565b60008183811515611b0657fe5b049050929150505600a165627a7a723058208a0161822ee110f3a76b507b2dc77d51cb0acb101ee0adfcb8cebcc13ab037f10029",
  "source": "pragma solidity ^0.4.23;\r\n\r\nimport \"./BasicCrowdsale.sol\";\r\n\r\ncontract FinalizableCrowdsale is BasicCrowdsale {\r\n    enum State {Active, Refunding, Closed}\r\n    State state;   \r\n    bool isFinalized;\r\n    \r\n    event Finalized();\r\n    event Closed();\r\n\r\n    function goalReached() public view returns(bool) {\r\n        return weiRaised >= softcapWei;\r\n    }\r\n\r\n    function finalize() public onlyOwner {\r\n        require(!isFinalized);\r\n        require(hasClosed());\r\n        finalization();\r\n        isFinalized = true;\r\n        emit Finalized();\r\n    }\r\n\r\n    function finalization() internal {\r\n        require(state == State.Active);\r\n        if (goalReached()) {\r\n            state = State.Closed;\r\n            wallet.transfer(address(this).balance);\r\n            emit Closed();\r\n        } else {\r\n            state = State.Refunding;\r\n        }\r\n    }\r\n}",
  "sourcePath": "G:\\Root\\Blockchain\\BAX\\contracts\\crowdSale\\FinalizableCrowdsale.sol",
  "compiler": {
    "name": "solc",
    "version": "0.4.23+commit.124ca40d.Emscripten.clang"
  },
  "schemaVersion": "2.0.0",
  "updatedAt": "2018-06-07T05:53:54.981Z"
}