{
  "contractName": "FinalizableCrowdsale",
  "abi": [
    {
      "constant": true,
      "inputs": [],
      "name": "maxVestingWei",
      "outputs": [
        {
          "name": "",
          "type": "uint256"
        }
      ],
      "payable": false,
      "stateMutability": "view",
      "type": "function"
    },
    {
      "constant": true,
      "inputs": [],
      "name": "hasClosed",
      "outputs": [
        {
          "name": "",
          "type": "bool"
        }
      ],
      "payable": false,
      "stateMutability": "view",
      "type": "function"
    },
    {
      "constant": true,
      "inputs": [],
      "name": "totalSupply",
      "outputs": [
        {
          "name": "",
          "type": "uint256"
        }
      ],
      "payable": false,
      "stateMutability": "view",
      "type": "function"
    },
    {
      "constant": true,
      "inputs": [],
      "name": "currentTierHardcap",
      "outputs": [
        {
          "name": "",
          "type": "uint256"
        }
      ],
      "payable": false,
      "stateMutability": "view",
      "type": "function"
    },
    {
      "constant": true,
      "inputs": [],
      "name": "decimals",
      "outputs": [
        {
          "name": "",
          "type": "uint256"
        }
      ],
      "payable": false,
      "stateMutability": "view",
      "type": "function"
    },
    {
      "constant": true,
      "inputs": [],
      "name": "weiRaised",
      "outputs": [
        {
          "name": "",
          "type": "uint256"
        }
      ],
      "payable": false,
      "stateMutability": "view",
      "type": "function"
    },
    {
      "constant": true,
      "inputs": [],
      "name": "getWeiRaised",
      "outputs": [
        {
          "name": "",
          "type": "uint256"
        }
      ],
      "payable": false,
      "stateMutability": "view",
      "type": "function"
    },
    {
      "constant": true,
      "inputs": [],
      "name": "wallet",
      "outputs": [
        {
          "name": "",
          "type": "address"
        }
      ],
      "payable": false,
      "stateMutability": "view",
      "type": "function"
    },
    {
      "constant": false,
      "inputs": [
        {
          "name": "_vc",
          "type": "address"
        }
      ],
      "name": "addToVC",
      "outputs": [],
      "payable": false,
      "stateMutability": "nonpayable",
      "type": "function"
    },
    {
      "constant": true,
      "inputs": [],
      "name": "tokenName",
      "outputs": [
        {
          "name": "",
          "type": "string"
        }
      ],
      "payable": false,
      "stateMutability": "view",
      "type": "function"
    },
    {
      "constant": false,
      "inputs": [],
      "name": "renounceOwnership",
      "outputs": [],
      "payable": false,
      "stateMutability": "nonpayable",
      "type": "function"
    },
    {
      "constant": true,
      "inputs": [
        {
          "name": "_vc",
          "type": "address"
        }
      ],
      "name": "whtielistedAsVC",
      "outputs": [
        {
          "name": "",
          "type": "bool"
        }
      ],
      "payable": false,
      "stateMutability": "view",
      "type": "function"
    },
    {
      "constant": true,
      "inputs": [],
      "name": "tokenSymbol",
      "outputs": [
        {
          "name": "",
          "type": "string"
        }
      ],
      "payable": false,
      "stateMutability": "view",
      "type": "function"
    },
    {
      "constant": true,
      "inputs": [],
      "name": "owner",
      "outputs": [
        {
          "name": "",
          "type": "address"
        }
      ],
      "payable": false,
      "stateMutability": "view",
      "type": "function"
    },
    {
      "constant": false,
      "inputs": [
        {
          "name": "_vc",
          "type": "address"
        }
      ],
      "name": "removeFromVC",
      "outputs": [],
      "payable": false,
      "stateMutability": "nonpayable",
      "type": "function"
    },
    {
      "constant": true,
      "inputs": [],
      "name": "currentSaleTokenWeiHardcap",
      "outputs": [
        {
          "name": "",
          "type": "uint256"
        }
      ],
      "payable": false,
      "stateMutability": "view",
      "type": "function"
    },
    {
      "constant": true,
      "inputs": [],
      "name": "currentTierTokenWeisPerEth",
      "outputs": [
        {
          "name": "",
          "type": "uint256"
        }
      ],
      "payable": false,
      "stateMutability": "view",
      "type": "function"
    },
    {
      "constant": true,
      "inputs": [],
      "name": "hasOpened",
      "outputs": [
        {
          "name": "",
          "type": "bool"
        }
      ],
      "payable": false,
      "stateMutability": "view",
      "type": "function"
    },
    {
      "constant": true,
      "inputs": [],
      "name": "minVestingWei",
      "outputs": [
        {
          "name": "",
          "type": "uint256"
        }
      ],
      "payable": false,
      "stateMutability": "view",
      "type": "function"
    },
    {
      "constant": true,
      "inputs": [],
      "name": "currentTier",
      "outputs": [
        {
          "name": "",
          "type": "uint8"
        }
      ],
      "payable": false,
      "stateMutability": "view",
      "type": "function"
    },
    {
      "constant": true,
      "inputs": [],
      "name": "tokenWeisSold",
      "outputs": [
        {
          "name": "",
          "type": "uint256"
        }
      ],
      "payable": false,
      "stateMutability": "view",
      "type": "function"
    },
    {
      "constant": false,
      "inputs": [
        {
          "name": "_beneficiary",
          "type": "address"
        }
      ],
      "name": "buyTokens",
      "outputs": [
        {
          "name": "",
          "type": "uint256"
        }
      ],
      "payable": true,
      "stateMutability": "payable",
      "type": "function"
    },
    {
      "constant": false,
      "inputs": [
        {
          "name": "newOwner",
          "type": "address"
        }
      ],
      "name": "transferOwnership",
      "outputs": [],
      "payable": false,
      "stateMutability": "nonpayable",
      "type": "function"
    },
    {
      "constant": false,
      "inputs": [
        {
          "name": "_wallet",
          "type": "address"
        },
        {
          "name": "_weiAmount",
          "type": "uint256"
        }
      ],
      "name": "withdraw",
      "outputs": [],
      "payable": false,
      "stateMutability": "nonpayable",
      "type": "function"
    },
    {
      "constant": true,
      "inputs": [],
      "name": "token",
      "outputs": [
        {
          "name": "",
          "type": "address"
        }
      ],
      "payable": false,
      "stateMutability": "view",
      "type": "function"
    },
    {
      "anonymous": false,
      "inputs": [],
      "name": "Finalized",
      "type": "event"
    },
    {
      "anonymous": false,
      "inputs": [],
      "name": "Closed",
      "type": "event"
    },
    {
      "anonymous": false,
      "inputs": [
        {
          "indexed": true,
          "name": "purchaser",
          "type": "address"
        },
        {
          "indexed": true,
          "name": "beneficiary",
          "type": "address"
        },
        {
          "indexed": false,
          "name": "value",
          "type": "uint256"
        },
        {
          "indexed": false,
          "name": "amount",
          "type": "uint256"
        }
      ],
      "name": "TokenPurchase",
      "type": "event"
    },
    {
      "anonymous": false,
      "inputs": [
        {
          "indexed": true,
          "name": "previousOwner",
          "type": "address"
        }
      ],
      "name": "OwnershipRenounced",
      "type": "event"
    },
    {
      "anonymous": false,
      "inputs": [
        {
          "indexed": true,
          "name": "previousOwner",
          "type": "address"
        },
        {
          "indexed": true,
          "name": "newOwner",
          "type": "address"
        }
      ],
      "name": "OwnershipTransferred",
      "type": "event"
    },
    {
      "constant": true,
      "inputs": [],
      "name": "goalReached",
      "outputs": [
        {
          "name": "",
          "type": "bool"
        }
      ],
      "payable": false,
      "stateMutability": "view",
      "type": "function"
    },
    {
      "constant": false,
      "inputs": [],
      "name": "finalize",
      "outputs": [],
      "payable": false,
      "stateMutability": "nonpayable",
      "type": "function"
    }
  ],
  "bytecode": "0x608060405233600160006101000a81548173ffffffffffffffffffffffffffffffffffffffff021916908373ffffffffffffffffffffffffffffffffffffffff160217905550611b34806100546000396000f30060806040526004361061015f576000357c0100000000000000000000000000000000000000000000000000000000900463ffffffff16806306c36581146101645780631515bc2b1461018f57806318160ddd146101be578063301df9dd146101e9578063313ce567146102145780634042b66f1461023f57806340582f131461026a5780634bb278f314610295578063521eb273146102ac57806353fe21ad146103035780636c02a93114610346578063715018a6146103d6578063792d7ec3146103ed5780637b61c320146104485780637d3d6522146104d85780638da5cb5b146105075780639fb160aa1461055e5780639fc2e24f146105a1578063bbe8a466146105cc578063be8eef8e146105f7578063ce7f3a2714610626578063d679677a14610651578063e184a5151461068a578063ec8ac4d8146106b5578063f2fde38b146106ff578063f3fef3a314610742578063fc0c546a1461078f575b600080fd5b34801561017057600080fd5b506101796107e6565b6040518082815260200191505060405180910390f35b34801561019b57600080fd5b506101a4610888565b604051808215151515815260200191505060405180910390f35b3480156101ca57600080fd5b506101d36108b9565b6040518082815260200191505060405180910390f35b3480156101f557600080fd5b506101fe6108bf565b6040518082815260200191505060405180910390f35b34801561022057600080fd5b506102296108ed565b6040518082815260200191505060405180910390f35b34801561024b57600080fd5b506102546108f3565b6040518082815260200191505060405180910390f35b34801561027657600080fd5b5061027f6108f9565b6040518082815260200191505060405180910390f35b3480156102a157600080fd5b506102aa610903565b005b3480156102b857600080fd5b506102c16109df565b604051808273ffffffffffffffffffffffffffffffffffffffff1673ffffffffffffffffffffffffffffffffffffffff16815260200191505060405180910390f35b34801561030f57600080fd5b50610344600480360381019080803573ffffffffffffffffffffffffffffffffffffffff169060200190929190505050610a05565b005b34801561035257600080fd5b5061035b610b26565b6040518080602001828103825283818151815260200191508051906020019080838360005b8381101561039b578082015181840152602081019050610380565b50505050905090810190601f1680156103c85780820380516001836020036101000a031916815260200191505b509250505060405180910390f35b3480156103e257600080fd5b506103eb610bc4565b005b3480156103f957600080fd5b5061042e600480360381019080803573ffffffffffffffffffffffffffffffffffffffff169060200190929190505050610cc9565b604051808215151515815260200191505060405180910390f35b34801561045457600080fd5b5061045d610ce6565b6040518080602001828103825283818151815260200191508051906020019080838360005b8381101561049d578082015181840152602081019050610482565b50505050905090810190601f1680156104ca5780820380516001836020036101000a031916815260200191505b509250505060405180910390f35b3480156104e457600080fd5b506104ed610d84565b604051808215151515815260200191505060405180910390f35b34801561051357600080fd5b5061051c610d93565b604051808273ffffffffffffffffffffffffffffffffffffffff1673ffffffffffffffffffffffffffffffffffffffff16815260200191505060405180910390f35b34801561056a57600080fd5b5061059f600480360381019080803573ffffffffffffffffffffffffffffffffffffffff169060200190929190505050610db9565b005b3480156105ad57600080fd5b506105b6610eda565b6040518082815260200191505060405180910390f35b3480156105d857600080fd5b506105e1610f3d565b6040518082815260200191505060405180910390f35b34801561060357600080fd5b5061060c610f6b565b604051808215151515815260200191505060405180910390f35b34801561063257600080fd5b5061063b610f96565b6040518082815260200191505060405180910390f35b34801561065d57600080fd5b50610666611038565b6040518082600681111561067657fe5b60ff16815260200191505060405180910390f35b34801561069657600080fd5b5061069f611073565b6040518082815260200191505060405180910390f35b6106e9600480360381019080803573ffffffffffffffffffffffffffffffffffffffff169060200190929190505050611079565b6040518082815260200191505060405180910390f35b34801561070b57600080fd5b50610740600480360381019080803573ffffffffffffffffffffffffffffffffffffffff169060200190929190505050611187565b005b34801561074e57600080fd5b5061078d600480360381019080803573ffffffffffffffffffffffffffffffffffffffff169060200190929190803590602001909291905050506112df565b005b34801561079b57600080fd5b506107a46113e3565b604051808273ffffffffffffffffffffffffffffffffffffffff1673ffffffffffffffffffffffffffffffffffffffff16815260200191505060405180910390f35b60006107f0610f6b565b15156107fb57600080fd5b610803610888565b15151561080f57600080fd5b6000610819611409565b81548110151561082557fe5b906000526020600020906006020160050160009054906101000a900460ff16151561084f57600080fd5b6001600681111561085c57fe5b610864611038565b600681111561086f57fe5b141561087f57600b549050610885565b600d5490505b90565b6000806001600080549050038154811015156108a057fe5b9060005260206000209060060201600201544211905090565b60065481565b6000806108ca611409565b8154811015156108d657fe5b906000526020600020906006020160030154905090565b60075481565b600f5481565b6000600f54905090565b600160009054906101000a900473ffffffffffffffffffffffffffffffffffffffff1673ffffffffffffffffffffffffffffffffffffffff163373ffffffffffffffffffffffffffffffffffffffff1614151561095f57600080fd5b601260019054906101000a900460ff1615151561097b57600080fd5b610983610888565b151561098e57600080fd5b6109966114b4565b6001601260016101000a81548160ff0219169083151502179055507f6823b073d48d6e3a7d385eeb601452d680e74bb46afe3255a7d778f3a9b1768160405160405180910390a1565b600460009054906101000a900473ffffffffffffffffffffffffffffffffffffffff1681565b600160009054906101000a900473ffffffffffffffffffffffffffffffffffffffff1673ffffffffffffffffffffffffffffffffffffffff163373ffffffffffffffffffffffffffffffffffffffff16141515610a6157600080fd5b60006006811115610a6e57fe5b6000610a78611409565b815481101515610a8457fe5b906000526020600020906006020160000160009054906101000a900460ff166006811115610aae57fe5b1480610b04575060026006811115610ac257fe5b6000610acc611409565b815481101515610ad857fe5b906000526020600020906006020160000160009054906101000a900460ff166006811115610b0257fe5b145b1515610b0f57600080fd5b610b238160026115f190919063ffffffff16565b50565b60088054600181600116156101000203166002900480601f016020809104026020016040519081016040528092919081815260200182805460018160011615610100020316600290048015610bbc5780601f10610b9157610100808354040283529160200191610bbc565b820191906000526020600020905b815481529060010190602001808311610b9f57829003601f168201915b505050505081565b600160009054906101000a900473ffffffffffffffffffffffffffffffffffffffff1673ffffffffffffffffffffffffffffffffffffffff163373ffffffffffffffffffffffffffffffffffffffff16141515610c2057600080fd5b600160009054906101000a900473ffffffffffffffffffffffffffffffffffffffff1673ffffffffffffffffffffffffffffffffffffffff167ff8df31144d9c2f0f6b59d69b8b98abd5459d07f2742c4df920b25aae33c6482060405160405180910390a26000600160006101000a81548173ffffffffffffffffffffffffffffffffffffffff021916908373ffffffffffffffffffffffffffffffffffffffff160217905550565b6000610cdf82600261164f90919063ffffffff16565b9050919050565b60098054600181600116156101000203166002900480601f016020809104026020016040519081016040528092919081815260200182805460018160011615610100020316600290048015610d7c5780601f10610d5157610100808354040283529160200191610d7c565b820191906000526020600020905b815481529060010190602001808311610d5f57829003601f168201915b505050505081565b6000600554600f541015905090565b600160009054906101000a900473ffffffffffffffffffffffffffffffffffffffff1681565b600160009054906101000a900473ffffffffffffffffffffffffffffffffffffffff1673ffffffffffffffffffffffffffffffffffffffff163373ffffffffffffffffffffffffffffffffffffffff16141515610e1557600080fd5b60006006811115610e2257fe5b6000610e2c611409565b815481101515610e3857fe5b906000526020600020906006020160000160009054906101000a900460ff166006811115610e6257fe5b1480610eb8575060026006811115610e7657fe5b6000610e80611409565b815481101515610e8c57fe5b906000526020600020906006020160000160009054906101000a900460ff166006811115610eb657fe5b145b1515610ec357600080fd5b610ed78160026116a890919063ffffffff16565b50565b60008060008090505b610eeb611409565b81111515610f3557610f26600082815481101515610f0557fe5b9060005260206000209060060201600301548361170690919063ffffffff16565b91508080600101915050610ee3565b819250505090565b600080610f48611409565b815481101515610f5457fe5b906000526020600020906006020160040154905090565b6000806000815481101515610f7c57fe5b906000526020600020906006020160010154421015905090565b6000610fa0610f6b565b1515610fab57600080fd5b610fb3610888565b151515610fbf57600080fd5b6000610fc9611409565b815481101515610fd557fe5b906000526020600020906006020160050160009054906101000a900460ff161515610fff57600080fd5b6001600681111561100c57fe5b611014611038565b600681111561101f57fe5b141561102f57600a549050611035565b600c5490505b90565b600080611043611409565b81548110151561104f57fe5b906000526020600020906006020160000160009054906101000a900460ff16905090565b60115481565b6000806000611086610f6b565b151561109157600080fd5b611099610888565b1515156110a557600080fd5b60006110af611409565b8154811015156110bb57fe5b906000526020600020906006020160050160009054906101000a900460ff1615156110e557600080fd5b3491506110f182611722565b90506110fe848383611761565b6111098483836118e5565b61111384826119b5565b8373ffffffffffffffffffffffffffffffffffffffff163373ffffffffffffffffffffffffffffffffffffffff167f623b3804fa71d67900d064613da8f94b9617215ee90799290593e1745087ad188484604051808381526020018281526020019250505060405180910390a35050919050565b600160009054906101000a900473ffffffffffffffffffffffffffffffffffffffff1673ffffffffffffffffffffffffffffffffffffffff163373ffffffffffffffffffffffffffffffffffffffff161415156111e357600080fd5b600073ffffffffffffffffffffffffffffffffffffffff168173ffffffffffffffffffffffffffffffffffffffff161415151561121f57600080fd5b8073ffffffffffffffffffffffffffffffffffffffff16600160009054906101000a900473ffffffffffffffffffffffffffffffffffffffff1673ffffffffffffffffffffffffffffffffffffffff167f8be0079c531659141344cd1fd0a4f28419497f9722a3daafe3b4186f6b6457e060405160405180910390a380600160006101000a81548173ffffffffffffffffffffffffffffffffffffffff021916908373ffffffffffffffffffffffffffffffffffffffff16021790555050565b600160009054906101000a900473ffffffffffffffffffffffffffffffffffffffff1673ffffffffffffffffffffffffffffffffffffffff163373ffffffffffffffffffffffffffffffffffffffff1614151561133b57600080fd5b600073ffffffffffffffffffffffffffffffffffffffff168273ffffffffffffffffffffffffffffffffffffffff161415151561137757600080fd5b6000811415151561138757600080fd5b600f54811115151561139857600080fd5b8173ffffffffffffffffffffffffffffffffffffffff166108fc829081150290604051600060405180830381858888f193505050501580156113de573d6000803e3d6000fd5b505050565b600360009054906101000a900473ffffffffffffffffffffffffffffffffffffffff1681565b600080611414610f6b565b151561141f57600080fd5b611427610888565b15151561143357600080fd5b600090505b6000805490508110156114af5760008181548110151561145457fe5b9060005260206000209060060201600101544210158015611495575060008181548110151561147f57fe5b9060005260206000209060060201600201544211155b156114a2578091506114b0565b8080600101915050611438565b5b5090565b600060028111156114c157fe5b601260009054906101000a900460ff1660028111156114dc57fe5b1415156114e857600080fd5b6114f0610d84565b156115ca576002601260006101000a81548160ff0219169083600281111561151457fe5b0217905550600460009054906101000a900473ffffffffffffffffffffffffffffffffffffffff1673ffffffffffffffffffffffffffffffffffffffff166108fc3073ffffffffffffffffffffffffffffffffffffffff16319081150290604051600060405180830381858888f19350505050158015611598573d6000803e3d6000fd5b507f1cdde67b72a90f19919ac732a437ac2f7a10fc128d28c2a6e525d89ce5cd9d3a60405160405180910390a16115ef565b6001601260006101000a81548160ff021916908360028111156115e957fe5b02179055505b565b60018260000160008373ffffffffffffffffffffffffffffffffffffffff1673ffffffffffffffffffffffffffffffffffffffff16815260200190815260200160002060006101000a81548160ff0219169083151502179055505050565b60008260000160008373ffffffffffffffffffffffffffffffffffffffff1673ffffffffffffffffffffffffffffffffffffffff16815260200190815260200160002060009054906101000a900460ff16905092915050565b60008260000160008373ffffffffffffffffffffffffffffffffffffffff1673ffffffffffffffffffffffffffffffffffffffff16815260200190815260200160002060006101000a81548160ff0219169083151502179055505050565b6000818301905082811015151561171957fe5b80905092915050565b60008061172d610f3d565b9050611759600754600a0a61174b8386611aba90919063ffffffff16565b611af290919063ffffffff16565b915050919050565b600073ffffffffffffffffffffffffffffffffffffffff168373ffffffffffffffffffffffffffffffffffffffff161415151561179d57600080fd5b600082141515156117ad57600080fd5b6117b5610eda565b6117ca8260115461170690919063ffffffff16565b111515156117d757600080fd5b6117df610f96565b61183183601060008773ffffffffffffffffffffffffffffffffffffffff1673ffffffffffffffffffffffffffffffffffffffff1681526020019081526020016000205461170690919063ffffffff16565b1015151561183e57600080fd5b6118466107e6565b61189883601060008773ffffffffffffffffffffffffffffffffffffffff1673ffffffffffffffffffffffffffffffffffffffff1681526020019081526020016000205461170690919063ffffffff16565b111515156118a557600080fd5b600160068111156118b257fe5b6118ba611038565b60068111156118c557fe5b14156118e0576118d483610cc9565b15156118df57600080fd5b5b505050565b61193782601060008673ffffffffffffffffffffffffffffffffffffffff1673ffffffffffffffffffffffffffffffffffffffff1681526020019081526020016000205461170690919063ffffffff16565b601060008573ffffffffffffffffffffffffffffffffffffffff1673ffffffffffffffffffffffffffffffffffffffff1681526020019081526020016000208190555061198f8160115461170690919063ffffffff16565b6011819055506119aa82600f5461170690919063ffffffff16565b600f81905550505050565b600360009054906101000a900473ffffffffffffffffffffffffffffffffffffffff1673ffffffffffffffffffffffffffffffffffffffff1663a9059cbb83836040518363ffffffff167c0100000000000000000000000000000000000000000000000000000000028152600401808373ffffffffffffffffffffffffffffffffffffffff1673ffffffffffffffffffffffffffffffffffffffff16815260200182815260200192505050602060405180830381600087803b158015611a7a57600080fd5b505af1158015611a8e573d6000803e3d6000fd5b505050506040513d6020811015611aa457600080fd5b8101908080519060200190929190505050505050565b600080831415611acd5760009050611aec565b8183029050818382811515611ade57fe5b04141515611ae857fe5b8090505b92915050565b60008183811515611aff57fe5b049050929150505600a165627a7a723058205f6e79c183a04928f4d6c09c27585df91f89f24176f5a8cb0b8fc32f30d581170029",
  "source": "pragma solidity ^0.4.23;\r\n\r\nimport \"./BasicCrowdsale.sol\";\r\n\r\n/**\r\n * @title FinalizableCrowdsale\r\n * @dev FinalizableCrowdsale inherits BasicCrowdsale and intended to manage finalization process.\r\n */\r\ncontract FinalizableCrowdsale is BasicCrowdsale {\r\n    enum State {Active, Refunding, Closed}\r\n    State state;   \r\n    bool isFinalized;\r\n    \r\n    event Finalized();\r\n    event Closed();\r\n\r\n    /**\r\n     * @dev Checks if softcap goal is reached.\r\n     * @return A bool showing whether the softcap goal is reached.\r\n     */\r\n    function goalReached() public view returns(bool) {\r\n        return weiRaised >= softcapWei;\r\n    }\r\n\r\n    /**\r\n     * @dev Finalizes the ICO.\r\n     * @dev note Only owner is allowed to finalizing the crowdsale.\r\n     * @dev note Only when the crowdsale is reached to its ending, finalization is allowed.\r\n     */\r\n    function finalize() public onlyOwner {\r\n        require(!isFinalized);\r\n        require(hasClosed());\r\n        finalization();\r\n        isFinalized = true;\r\n        emit Finalized();\r\n    }\r\n\r\n    /**\r\n     * @dev Internal function executes the finalization process.\r\n     * @dev note If the softcap goal is reached this action would change the crowdsale state to 'Closed' state.\r\n     * @dev note If the desired softcap goal is not raised this action would change the crowdsale state to 'Rfunding' state.\r\n     * and since then every participant could refund his/her invests back.\r\n     */\r\n    function finalization() internal {\r\n        require(state == State.Active);\r\n        if (goalReached()) {\r\n            state = State.Closed;\r\n            wallet.transfer(address(this).balance);\r\n            emit Closed();\r\n        } else {\r\n            state = State.Refunding;\r\n        }\r\n    }\r\n}",
  "sourcePath": "G:\\Root\\Blockchain\\WOX\\contracts\\crowdSale\\FinalizableCrowdsale.sol",
  "compiler": {
    "name": "solc",
    "version": "0.4.23+commit.124ca40d.Emscripten.clang"
  },
  "schemaVersion": "2.0.0",
  "updatedAt": "2018-06-27T04:19:57.191Z"
}