{
  "contractName": "GrantedCrowdsale",
  "abi": [
    {
      "constant": true,
      "inputs": [],
      "name": "maxVestingWei",
      "outputs": [
        {
          "name": "",
          "type": "uint256"
        }
      ],
      "payable": false,
      "stateMutability": "view",
      "type": "function"
    },
    {
      "constant": true,
      "inputs": [],
      "name": "hasClosed",
      "outputs": [
        {
          "name": "",
          "type": "bool"
        }
      ],
      "payable": false,
      "stateMutability": "view",
      "type": "function"
    },
    {
      "constant": true,
      "inputs": [],
      "name": "totalSupply",
      "outputs": [
        {
          "name": "",
          "type": "uint256"
        }
      ],
      "payable": false,
      "stateMutability": "view",
      "type": "function"
    },
    {
      "constant": true,
      "inputs": [],
      "name": "grantedTokens",
      "outputs": [
        {
          "name": "",
          "type": "uint256"
        }
      ],
      "payable": false,
      "stateMutability": "view",
      "type": "function"
    },
    {
      "constant": true,
      "inputs": [],
      "name": "currentTierHardcap",
      "outputs": [
        {
          "name": "",
          "type": "uint256"
        }
      ],
      "payable": false,
      "stateMutability": "view",
      "type": "function"
    },
    {
      "constant": true,
      "inputs": [],
      "name": "decimals",
      "outputs": [
        {
          "name": "",
          "type": "uint256"
        }
      ],
      "payable": false,
      "stateMutability": "view",
      "type": "function"
    },
    {
      "constant": true,
      "inputs": [],
      "name": "weiRaised",
      "outputs": [
        {
          "name": "",
          "type": "uint256"
        }
      ],
      "payable": false,
      "stateMutability": "view",
      "type": "function"
    },
    {
      "constant": true,
      "inputs": [],
      "name": "getWeiRaised",
      "outputs": [
        {
          "name": "",
          "type": "uint256"
        }
      ],
      "payable": false,
      "stateMutability": "view",
      "type": "function"
    },
    {
      "constant": true,
      "inputs": [],
      "name": "wallet",
      "outputs": [
        {
          "name": "",
          "type": "address"
        }
      ],
      "payable": false,
      "stateMutability": "view",
      "type": "function"
    },
    {
      "constant": true,
      "inputs": [],
      "name": "grantHardcapToken",
      "outputs": [
        {
          "name": "",
          "type": "uint256"
        }
      ],
      "payable": false,
      "stateMutability": "view",
      "type": "function"
    },
    {
      "constant": false,
      "inputs": [
        {
          "name": "_vc",
          "type": "address"
        }
      ],
      "name": "addToVC",
      "outputs": [],
      "payable": false,
      "stateMutability": "nonpayable",
      "type": "function"
    },
    {
      "constant": true,
      "inputs": [],
      "name": "tokenName",
      "outputs": [
        {
          "name": "",
          "type": "string"
        }
      ],
      "payable": false,
      "stateMutability": "view",
      "type": "function"
    },
    {
      "constant": false,
      "inputs": [],
      "name": "renounceOwnership",
      "outputs": [],
      "payable": false,
      "stateMutability": "nonpayable",
      "type": "function"
    },
    {
      "constant": true,
      "inputs": [
        {
          "name": "_vc",
          "type": "address"
        }
      ],
      "name": "whtielistedAsVC",
      "outputs": [
        {
          "name": "",
          "type": "bool"
        }
      ],
      "payable": false,
      "stateMutability": "view",
      "type": "function"
    },
    {
      "constant": true,
      "inputs": [],
      "name": "tokenSymbol",
      "outputs": [
        {
          "name": "",
          "type": "string"
        }
      ],
      "payable": false,
      "stateMutability": "view",
      "type": "function"
    },
    {
      "constant": true,
      "inputs": [],
      "name": "grantHardcapTokenPerEach",
      "outputs": [
        {
          "name": "",
          "type": "uint256"
        }
      ],
      "payable": false,
      "stateMutability": "view",
      "type": "function"
    },
    {
      "constant": true,
      "inputs": [],
      "name": "owner",
      "outputs": [
        {
          "name": "",
          "type": "address"
        }
      ],
      "payable": false,
      "stateMutability": "view",
      "type": "function"
    },
    {
      "constant": false,
      "inputs": [
        {
          "name": "_vc",
          "type": "address"
        }
      ],
      "name": "removeFromVC",
      "outputs": [],
      "payable": false,
      "stateMutability": "nonpayable",
      "type": "function"
    },
    {
      "constant": true,
      "inputs": [],
      "name": "currentSaleTokenWeiHardcap",
      "outputs": [
        {
          "name": "",
          "type": "uint256"
        }
      ],
      "payable": false,
      "stateMutability": "view",
      "type": "function"
    },
    {
      "constant": true,
      "inputs": [],
      "name": "currentTierTokenWeisPerEth",
      "outputs": [
        {
          "name": "",
          "type": "uint256"
        }
      ],
      "payable": false,
      "stateMutability": "view",
      "type": "function"
    },
    {
      "constant": true,
      "inputs": [],
      "name": "hasOpened",
      "outputs": [
        {
          "name": "",
          "type": "bool"
        }
      ],
      "payable": false,
      "stateMutability": "view",
      "type": "function"
    },
    {
      "constant": true,
      "inputs": [],
      "name": "minVestingWei",
      "outputs": [
        {
          "name": "",
          "type": "uint256"
        }
      ],
      "payable": false,
      "stateMutability": "view",
      "type": "function"
    },
    {
      "constant": true,
      "inputs": [],
      "name": "currentTier",
      "outputs": [
        {
          "name": "",
          "type": "uint8"
        }
      ],
      "payable": false,
      "stateMutability": "view",
      "type": "function"
    },
    {
      "constant": true,
      "inputs": [],
      "name": "tokenWeisSold",
      "outputs": [
        {
          "name": "",
          "type": "uint256"
        }
      ],
      "payable": false,
      "stateMutability": "view",
      "type": "function"
    },
    {
      "constant": false,
      "inputs": [
        {
          "name": "_beneficiary",
          "type": "address"
        }
      ],
      "name": "buyTokens",
      "outputs": [
        {
          "name": "",
          "type": "uint256"
        }
      ],
      "payable": true,
      "stateMutability": "payable",
      "type": "function"
    },
    {
      "constant": false,
      "inputs": [
        {
          "name": "newOwner",
          "type": "address"
        }
      ],
      "name": "transferOwnership",
      "outputs": [],
      "payable": false,
      "stateMutability": "nonpayable",
      "type": "function"
    },
    {
      "constant": false,
      "inputs": [
        {
          "name": "_wallet",
          "type": "address"
        },
        {
          "name": "_weiAmount",
          "type": "uint256"
        }
      ],
      "name": "withdraw",
      "outputs": [],
      "payable": false,
      "stateMutability": "nonpayable",
      "type": "function"
    },
    {
      "constant": true,
      "inputs": [],
      "name": "token",
      "outputs": [
        {
          "name": "",
          "type": "address"
        }
      ],
      "payable": false,
      "stateMutability": "view",
      "type": "function"
    },
    {
      "anonymous": false,
      "inputs": [
        {
          "indexed": true,
          "name": "sender",
          "type": "address"
        },
        {
          "indexed": true,
          "name": "grantee",
          "type": "address"
        },
        {
          "indexed": false,
          "name": "amount",
          "type": "uint256"
        }
      ],
      "name": "TokenGranted",
      "type": "event"
    },
    {
      "anonymous": false,
      "inputs": [
        {
          "indexed": true,
          "name": "purchaser",
          "type": "address"
        },
        {
          "indexed": true,
          "name": "beneficiary",
          "type": "address"
        },
        {
          "indexed": false,
          "name": "value",
          "type": "uint256"
        },
        {
          "indexed": false,
          "name": "amount",
          "type": "uint256"
        }
      ],
      "name": "TokenPurchase",
      "type": "event"
    },
    {
      "anonymous": false,
      "inputs": [
        {
          "indexed": true,
          "name": "previousOwner",
          "type": "address"
        }
      ],
      "name": "OwnershipRenounced",
      "type": "event"
    },
    {
      "anonymous": false,
      "inputs": [
        {
          "indexed": true,
          "name": "previousOwner",
          "type": "address"
        },
        {
          "indexed": true,
          "name": "newOwner",
          "type": "address"
        }
      ],
      "name": "OwnershipTransferred",
      "type": "event"
    },
    {
      "constant": false,
      "inputs": [
        {
          "name": "_grantee",
          "type": "address"
        }
      ],
      "name": "addToGrantees",
      "outputs": [],
      "payable": false,
      "stateMutability": "nonpayable",
      "type": "function"
    },
    {
      "constant": false,
      "inputs": [
        {
          "name": "_grantee",
          "type": "address"
        }
      ],
      "name": "removeFromGrantees",
      "outputs": [],
      "payable": false,
      "stateMutability": "nonpayable",
      "type": "function"
    },
    {
      "constant": true,
      "inputs": [
        {
          "name": "_grantee",
          "type": "address"
        }
      ],
      "name": "whitelistedAsGrantee",
      "outputs": [
        {
          "name": "",
          "type": "bool"
        }
      ],
      "payable": false,
      "stateMutability": "view",
      "type": "function"
    },
    {
      "constant": false,
      "inputs": [
        {
          "name": "_grantee",
          "type": "address"
        },
        {
          "name": "_tokenAmount",
          "type": "uint256"
        }
      ],
      "name": "grantTokens",
      "outputs": [],
      "payable": false,
      "stateMutability": "nonpayable",
      "type": "function"
    }
  ],
  "bytecode": "0x608060405233600160006101000a81548173ffffffffffffffffffffffffffffffffffffffff021916908373ffffffffffffffffffffffffffffffffffffffff160217905550612262806100546000396000f300608060405260043610610196576000357c0100000000000000000000000000000000000000000000000000000000900463ffffffff1680630425b5531461019b57806306c36581146101de5780631515bc2b1461020957806318160ddd146102385780631ee42bcf14610263578063301df9dd1461028e578063313ce567146102b95780634042b66f146102e457806340582f131461030f578063521eb2731461033a57806352f646811461039157806353fe21ad146103bc5780636c02a931146103ff578063715018a61461048f578063792d7ec3146104a65780637b61c3201461050157806389379640146105915780638da5cb5b146105bc5780639fb160aa146106135780639fc2e24f14610656578063bbe8a46614610681578063be8eef8e146106ac578063c94e643c146106db578063ce7f3a2714610728578063d679677a14610753578063e184a5151461078c578063e996a3dd146107b7578063ec8ac4d8146107fa578063f2fde38b14610844578063f3fef3a314610887578063f556f4f7146108d4578063fc0c546a1461092f575b600080fd5b3480156101a757600080fd5b506101dc600480360381019080803573ffffffffffffffffffffffffffffffffffffffff169060200190929190505050610986565b005b3480156101ea57600080fd5b506101f3610aa7565b6040518082815260200191505060405180910390f35b34801561021557600080fd5b5061021e610b49565b604051808215151515815260200191505060405180910390f35b34801561024457600080fd5b5061024d610b7a565b6040518082815260200191505060405180910390f35b34801561026f57600080fd5b50610278610b80565b6040518082815260200191505060405180910390f35b34801561029a57600080fd5b506102a3610b86565b6040518082815260200191505060405180910390f35b3480156102c557600080fd5b506102ce610bb4565b6040518082815260200191505060405180910390f35b3480156102f057600080fd5b506102f9610bba565b6040518082815260200191505060405180910390f35b34801561031b57600080fd5b50610324610bc0565b6040518082815260200191505060405180910390f35b34801561034657600080fd5b5061034f610bca565b604051808273ffffffffffffffffffffffffffffffffffffffff1673ffffffffffffffffffffffffffffffffffffffff16815260200191505060405180910390f35b34801561039d57600080fd5b506103a6610bf0565b6040518082815260200191505060405180910390f35b3480156103c857600080fd5b506103fd600480360381019080803573ffffffffffffffffffffffffffffffffffffffff169060200190929190505050610bf6565b005b34801561040b57600080fd5b50610414610d17565b6040518080602001828103825283818151815260200191508051906020019080838360005b83811015610454578082015181840152602081019050610439565b50505050905090810190601f1680156104815780820380516001836020036101000a031916815260200191505b509250505060405180910390f35b34801561049b57600080fd5b506104a4610db5565b005b3480156104b257600080fd5b506104e7600480360381019080803573ffffffffffffffffffffffffffffffffffffffff169060200190929190505050610eba565b604051808215151515815260200191505060405180910390f35b34801561050d57600080fd5b50610516610ed7565b6040518080602001828103825283818151815260200191508051906020019080838360005b8381101561055657808201518184015260208101905061053b565b50505050905090810190601f1680156105835780820380516001836020036101000a031916815260200191505b509250505060405180910390f35b34801561059d57600080fd5b506105a6610f75565b6040518082815260200191505060405180910390f35b3480156105c857600080fd5b506105d1610f7b565b604051808273ffffffffffffffffffffffffffffffffffffffff1673ffffffffffffffffffffffffffffffffffffffff16815260200191505060405180910390f35b34801561061f57600080fd5b50610654600480360381019080803573ffffffffffffffffffffffffffffffffffffffff169060200190929190505050610fa1565b005b34801561066257600080fd5b5061066b6110c2565b6040518082815260200191505060405180910390f35b34801561068d57600080fd5b50610696611125565b6040518082815260200191505060405180910390f35b3480156106b857600080fd5b506106c1611153565b604051808215151515815260200191505060405180910390f35b3480156106e757600080fd5b50610726600480360381019080803573ffffffffffffffffffffffffffffffffffffffff1690602001909291908035906020019092919050505061117e565b005b34801561073457600080fd5b5061073d6116c3565b6040518082815260200191505060405180910390f35b34801561075f57600080fd5b50610768611765565b6040518082600681111561077857fe5b60ff16815260200191505060405180910390f35b34801561079857600080fd5b506107a16117a0565b6040518082815260200191505060405180910390f35b3480156107c357600080fd5b506107f8600480360381019080803573ffffffffffffffffffffffffffffffffffffffff1690602001909291905050506117a6565b005b61082e600480360381019080803573ffffffffffffffffffffffffffffffffffffffff1690602001909291905050506118c7565b6040518082815260200191505060405180910390f35b34801561085057600080fd5b50610885600480360381019080803573ffffffffffffffffffffffffffffffffffffffff1690602001909291905050506119d5565b005b34801561089357600080fd5b506108d2600480360381019080803573ffffffffffffffffffffffffffffffffffffffff16906020019092919080359060200190929190505050611b2d565b005b3480156108e057600080fd5b50610915600480360381019080803573ffffffffffffffffffffffffffffffffffffffff169060200190929190505050611c31565b604051808215151515815260200191505060405180910390f35b34801561093b57600080fd5b50610944611c4e565b604051808273ffffffffffffffffffffffffffffffffffffffff1673ffffffffffffffffffffffffffffffffffffffff16815260200191505060405180910390f35b6000600681111561099357fe5b600061099d611c74565b8154811015156109a957fe5b906000526020600020906006020160000160009054906101000a900460ff1660068111156109d357fe5b1480610a295750600260068111156109e757fe5b60006109f1611c74565b8154811015156109fd57fe5b906000526020600020906006020160000160009054906101000a900460ff166006811115610a2757fe5b145b1515610a3457600080fd5b600160009054906101000a900473ffffffffffffffffffffffffffffffffffffffff1673ffffffffffffffffffffffffffffffffffffffff163373ffffffffffffffffffffffffffffffffffffffff16141515610a9057600080fd5b610aa4816014611d1f90919063ffffffff16565b50565b6000610ab1611153565b1515610abc57600080fd5b610ac4610b49565b151515610ad057600080fd5b6000610ada611c74565b815481101515610ae657fe5b906000526020600020906006020160050160009054906101000a900460ff161515610b1057600080fd5b60016006811115610b1d57fe5b610b25611765565b6006811115610b3057fe5b1415610b4057600b549050610b46565b600d5490505b90565b600080600160008054905003815481101515610b6157fe5b9060005260206000209060060201600201544211905090565b60065481565b60155481565b600080610b91611c74565b815481101515610b9d57fe5b906000526020600020906006020160030154905090565b60075481565b600f5481565b6000600f54905090565b600460009054906101000a900473ffffffffffffffffffffffffffffffffffffffff1681565b60125481565b600160009054906101000a900473ffffffffffffffffffffffffffffffffffffffff1673ffffffffffffffffffffffffffffffffffffffff163373ffffffffffffffffffffffffffffffffffffffff16141515610c5257600080fd5b60006006811115610c5f57fe5b6000610c69611c74565b815481101515610c7557fe5b906000526020600020906006020160000160009054906101000a900460ff166006811115610c9f57fe5b1480610cf5575060026006811115610cb357fe5b6000610cbd611c74565b815481101515610cc957fe5b906000526020600020906006020160000160009054906101000a900460ff166006811115610cf357fe5b145b1515610d0057600080fd5b610d14816002611d7d90919063ffffffff16565b50565b60088054600181600116156101000203166002900480601f016020809104026020016040519081016040528092919081815260200182805460018160011615610100020316600290048015610dad5780601f10610d8257610100808354040283529160200191610dad565b820191906000526020600020905b815481529060010190602001808311610d9057829003601f168201915b505050505081565b600160009054906101000a900473ffffffffffffffffffffffffffffffffffffffff1673ffffffffffffffffffffffffffffffffffffffff163373ffffffffffffffffffffffffffffffffffffffff16141515610e1157600080fd5b600160009054906101000a900473ffffffffffffffffffffffffffffffffffffffff1673ffffffffffffffffffffffffffffffffffffffff167ff8df31144d9c2f0f6b59d69b8b98abd5459d07f2742c4df920b25aae33c6482060405160405180910390a26000600160006101000a81548173ffffffffffffffffffffffffffffffffffffffff021916908373ffffffffffffffffffffffffffffffffffffffff160217905550565b6000610ed0826002611ddb90919063ffffffff16565b9050919050565b60098054600181600116156101000203166002900480601f016020809104026020016040519081016040528092919081815260200182805460018160011615610100020316600290048015610f6d5780601f10610f4257610100808354040283529160200191610f6d565b820191906000526020600020905b815481529060010190602001808311610f5057829003601f168201915b505050505081565b60135481565b600160009054906101000a900473ffffffffffffffffffffffffffffffffffffffff1681565b600160009054906101000a900473ffffffffffffffffffffffffffffffffffffffff1673ffffffffffffffffffffffffffffffffffffffff163373ffffffffffffffffffffffffffffffffffffffff16141515610ffd57600080fd5b6000600681111561100a57fe5b6000611014611c74565b81548110151561102057fe5b906000526020600020906006020160000160009054906101000a900460ff16600681111561104a57fe5b14806110a057506002600681111561105e57fe5b6000611068611c74565b81548110151561107457fe5b906000526020600020906006020160000160009054906101000a900460ff16600681111561109e57fe5b145b15156110ab57600080fd5b6110bf816002611d1f90919063ffffffff16565b50565b60008060008090505b6110d3611c74565b8111151561111d5761110e6000828154811015156110ed57fe5b90600052602060002090600602016003015483611e3490919063ffffffff16565b915080806001019150506110cb565b819250505090565b600080611130611c74565b81548110151561113c57fe5b906000526020600020906006020160040154905090565b600080600081548110151561116457fe5b906000526020600020906006020160010154421015905090565b600160009054906101000a900473ffffffffffffffffffffffffffffffffffffffff1673ffffffffffffffffffffffffffffffffffffffff163373ffffffffffffffffffffffffffffffffffffffff161415156111da57600080fd5b6111e2611153565b15156111ed57600080fd5b6111f5610b49565b15151561120157600080fd5b6000600681111561120e57fe5b611216611765565b600681111561122157fe5b1415151561122e57600080fd5b6001600681111561123b57fe5b611243611765565b600681111561124e57fe5b1415151561125b57600080fd5b8161126581611c31565b151561127057600080fd5b600073ffffffffffffffffffffffffffffffffffffffff168373ffffffffffffffffffffffffffffffffffffffff16141515156112ac57600080fd5b600082141515156112bc57600080fd5b6006546112e86011546112da85601554611e3490919063ffffffff16565b611e3490919063ffffffff16565b111515156112f557600080fd5b61134782601660008673ffffffffffffffffffffffffffffffffffffffff1673ffffffffffffffffffffffffffffffffffffffff16815260200190815260200160002054611e3490919063ffffffff16565b601660008573ffffffffffffffffffffffffffffffffffffffff1673ffffffffffffffffffffffffffffffffffffffff1681526020019081526020016000208190555061139f82601554611e3490919063ffffffff16565b601581905550600360009054906101000a900473ffffffffffffffffffffffffffffffffffffffff1673ffffffffffffffffffffffffffffffffffffffff166343af57d68461140b600a6113fd600388611e5090919063ffffffff16565b611e8890919063ffffffff16565b600060016000805490500381548110151561142257fe5b9060005260206000209060060201600201546040518463ffffffff167c0100000000000000000000000000000000000000000000000000000000028152600401808473ffffffffffffffffffffffffffffffffffffffff1673ffffffffffffffffffffffffffffffffffffffff1681526020018381526020018281526020019350505050602060405180830381600087803b1580156114c057600080fd5b505af11580156114d4573d6000803e3d6000fd5b505050506040513d60208110156114ea57600080fd5b810190808051906020019092919050505050600360009054906101000a900473ffffffffffffffffffffffffffffffffffffffff1673ffffffffffffffffffffffffffffffffffffffff166343af57d684611562600a611554600788611e5090919063ffffffff16565b611e8890919063ffffffff16565b6301e13380600060016000805490500381548110151561157e57fe5b906000526020600020906006020160020154016040518463ffffffff167c0100000000000000000000000000000000000000000000000000000000028152600401808473ffffffffffffffffffffffffffffffffffffffff1673ffffffffffffffffffffffffffffffffffffffff1681526020018381526020018281526020019350505050602060405180830381600087803b15801561161d57600080fd5b505af1158015611631573d6000803e3d6000fd5b505050506040513d602081101561164757600080fd5b8101908080519060200190929190505050508273ffffffffffffffffffffffffffffffffffffffff163373ffffffffffffffffffffffffffffffffffffffff167fa6e5a578d42fd913bd5bad70a2ae524a02ea5bcfa6ca06b309333095c155b84e846040518082815260200191505060405180910390a3505050565b60006116cd611153565b15156116d857600080fd5b6116e0610b49565b1515156116ec57600080fd5b60006116f6611c74565b81548110151561170257fe5b906000526020600020906006020160050160009054906101000a900460ff16151561172c57600080fd5b6001600681111561173957fe5b611741611765565b600681111561174c57fe5b141561175c57600a549050611762565b600c5490505b90565b600080611770611c74565b81548110151561177c57fe5b906000526020600020906006020160000160009054906101000a900460ff16905090565b60115481565b600060068111156117b357fe5b60006117bd611c74565b8154811015156117c957fe5b906000526020600020906006020160000160009054906101000a900460ff1660068111156117f357fe5b148061184957506002600681111561180757fe5b6000611811611c74565b81548110151561181d57fe5b906000526020600020906006020160000160009054906101000a900460ff16600681111561184757fe5b145b151561185457600080fd5b600160009054906101000a900473ffffffffffffffffffffffffffffffffffffffff1673ffffffffffffffffffffffffffffffffffffffff163373ffffffffffffffffffffffffffffffffffffffff161415156118b057600080fd5b6118c4816014611d7d90919063ffffffff16565b50565b60008060006118d4611153565b15156118df57600080fd5b6118e7610b49565b1515156118f357600080fd5b60006118fd611c74565b81548110151561190957fe5b906000526020600020906006020160050160009054906101000a900460ff16151561193357600080fd5b34915061193f82611e9e565b905061194c848383611edd565b611957848383612061565b6119618482612131565b8373ffffffffffffffffffffffffffffffffffffffff163373ffffffffffffffffffffffffffffffffffffffff167f623b3804fa71d67900d064613da8f94b9617215ee90799290593e1745087ad188484604051808381526020018281526020019250505060405180910390a35050919050565b600160009054906101000a900473ffffffffffffffffffffffffffffffffffffffff1673ffffffffffffffffffffffffffffffffffffffff163373ffffffffffffffffffffffffffffffffffffffff16141515611a3157600080fd5b600073ffffffffffffffffffffffffffffffffffffffff168173ffffffffffffffffffffffffffffffffffffffff1614151515611a6d57600080fd5b8073ffffffffffffffffffffffffffffffffffffffff16600160009054906101000a900473ffffffffffffffffffffffffffffffffffffffff1673ffffffffffffffffffffffffffffffffffffffff167f8be0079c531659141344cd1fd0a4f28419497f9722a3daafe3b4186f6b6457e060405160405180910390a380600160006101000a81548173ffffffffffffffffffffffffffffffffffffffff021916908373ffffffffffffffffffffffffffffffffffffffff16021790555050565b600160009054906101000a900473ffffffffffffffffffffffffffffffffffffffff1673ffffffffffffffffffffffffffffffffffffffff163373ffffffffffffffffffffffffffffffffffffffff16141515611b8957600080fd5b600073ffffffffffffffffffffffffffffffffffffffff168273ffffffffffffffffffffffffffffffffffffffff1614151515611bc557600080fd5b60008114151515611bd557600080fd5b600f548111151515611be657600080fd5b8173ffffffffffffffffffffffffffffffffffffffff166108fc829081150290604051600060405180830381858888f19350505050158015611c2c573d6000803e3d6000fd5b505050565b6000611c47826014611ddb90919063ffffffff16565b9050919050565b600360009054906101000a900473ffffffffffffffffffffffffffffffffffffffff1681565b600080611c7f611153565b1515611c8a57600080fd5b611c92610b49565b151515611c9e57600080fd5b600090505b600080549050811015611d1a57600081815481101515611cbf57fe5b9060005260206000209060060201600101544210158015611d005750600081815481101515611cea57fe5b9060005260206000209060060201600201544211155b15611d0d57809150611d1b565b8080600101915050611ca3565b5b5090565b60008260000160008373ffffffffffffffffffffffffffffffffffffffff1673ffffffffffffffffffffffffffffffffffffffff16815260200190815260200160002060006101000a81548160ff0219169083151502179055505050565b60018260000160008373ffffffffffffffffffffffffffffffffffffffff1673ffffffffffffffffffffffffffffffffffffffff16815260200190815260200160002060006101000a81548160ff0219169083151502179055505050565b60008260000160008373ffffffffffffffffffffffffffffffffffffffff1673ffffffffffffffffffffffffffffffffffffffff16815260200190815260200160002060009054906101000a900460ff16905092915050565b60008183019050828110151515611e4757fe5b80905092915050565b600080831415611e635760009050611e82565b8183029050818382811515611e7457fe5b04141515611e7e57fe5b8090505b92915050565b60008183811515611e9557fe5b04905092915050565b600080611ea9611125565b9050611ed5600754600a0a611ec78386611e5090919063ffffffff16565b611e8890919063ffffffff16565b915050919050565b600073ffffffffffffffffffffffffffffffffffffffff168373ffffffffffffffffffffffffffffffffffffffff1614151515611f1957600080fd5b60008214151515611f2957600080fd5b611f316110c2565b611f4682601154611e3490919063ffffffff16565b11151515611f5357600080fd5b611f5b6116c3565b611fad83601060008773ffffffffffffffffffffffffffffffffffffffff1673ffffffffffffffffffffffffffffffffffffffff16815260200190815260200160002054611e3490919063ffffffff16565b10151515611fba57600080fd5b611fc2610aa7565b61201483601060008773ffffffffffffffffffffffffffffffffffffffff1673ffffffffffffffffffffffffffffffffffffffff16815260200190815260200160002054611e3490919063ffffffff16565b1115151561202157600080fd5b6001600681111561202e57fe5b612036611765565b600681111561204157fe5b141561205c5761205083610eba565b151561205b57600080fd5b5b505050565b6120b382601060008673ffffffffffffffffffffffffffffffffffffffff1673ffffffffffffffffffffffffffffffffffffffff16815260200190815260200160002054611e3490919063ffffffff16565b601060008573ffffffffffffffffffffffffffffffffffffffff1673ffffffffffffffffffffffffffffffffffffffff1681526020019081526020016000208190555061210b81601154611e3490919063ffffffff16565b60118190555061212682600f54611e3490919063ffffffff16565b600f81905550505050565b600360009054906101000a900473ffffffffffffffffffffffffffffffffffffffff1673ffffffffffffffffffffffffffffffffffffffff1663a9059cbb83836040518363ffffffff167c0100000000000000000000000000000000000000000000000000000000028152600401808373ffffffffffffffffffffffffffffffffffffffff1673ffffffffffffffffffffffffffffffffffffffff16815260200182815260200192505050602060405180830381600087803b1580156121f657600080fd5b505af115801561220a573d6000803e3d6000fd5b505050506040513d602081101561222057600080fd5b81019080805190602001909291905050505050505600a165627a7a723058206601b26adb18ff08991158436b124621aaf981323161b9a8b0b3e897c5c8bb020029",
  "source": "pragma solidity ^0.4.23;\r\n\r\nimport \"./BasicCrowdsale.sol\";\r\nimport \"./TierLine.sol\";\r\nimport \"../whitelist/whitelist.sol\";\r\n\r\n/**\r\n * @title GrantedCrowdsale\r\n * @dev GrantedCrowdsale inherits BasicCrowdsale and intended to manage whitelist process\r\n * od Grantees and funding them.\r\n */\r\ncontract GrantedCrowdsale is BasicCrowdsale {\r\n    using whitelist for whitelist.Whitelist;\r\n\r\n    uint256 public grantHardcapToken;\r\n    uint256 public grantHardcapTokenPerEach;\r\n\r\n    whitelist.Whitelist Grantees;\r\n\r\n    uint256 public grantedTokens;\r\n    mapping(address => uint256) granted;\r\n\r\n    event TokenGranted(address indexed sender, address indexed grantee, uint256 amount);\r\n\r\n    /**\r\n     * @dev Adds a new Grantee to the whitelist.\r\n     * @param _grantee Address of grantee must be added into whitelist.\r\n     * This action is only allowed in pre-Whitelist and Whitelist Tiers.\r\n     */\r\n    function addToGrantees(address _grantee) public whitelistingAllowed onlyOwner {\r\n        Grantees.add(_grantee);\r\n    }\r\n\r\n    /**\r\n     * @dev Removes a passed granteed address from whitelist.\r\n     * @param _grantee Address of grantee must be removed from whitelist.\r\n     * This action is allowed only in pre-Whitelist and Whitelist Rounds.\r\n     */\r\n    function removeFromGrantees(address _grantee) public whitelistingAllowed onlyOwner {\r\n        Grantees.remove(_grantee);\r\n    }\r\n\r\n    /**\r\n     * @dev Checks if a specified address is whitelisted as grantee.\r\n     * @param _grantee Address must be evaluated whether has been whitelisted or not.\r\n     * @return A bool showing the passed Address is whitelisted or not.\r\n     */\r\n    function whitelistedAsGrantee(address _grantee) public view returns (bool) {\r\n        return Grantees.has(_grantee);\r\n    }\r\n\r\n    /**\r\n     * @dev Grants an amount of tokens to a passed whitelisted grantee.\r\n     * @param _grantee The address of a whitelisted grnatee supposed to be granted.\r\n     * @param _tokenAmount The amount of tokens must be granted.\r\n     * @dev note This action is allowed in Grant Time.\r\n     * @dev note Only whitelisted Grantee could be granted.\r\n     * @dev note Only the ICO Owner is allowed to grant tokens.\r\n     * @dev note Tokens are transfered in locked mode i.e tokens would be freed after a specified period of time.\r\n     * @dev note 30% of granted tokens would be freed after crowdsale is ended.\r\n     * @dev note 70% of granted tokens would be freed 365 days after ending date of the crowdsale.\r\n     */\r\n    function grantTokens(address _grantee, uint256 _tokenAmount)\r\n    public\r\n    onlyOwner\r\n    onlyGrantTime\r\n    onlyGrantee(_grantee) \r\n    {\r\n        require(_grantee != address(0));\r\n        require(_tokenAmount != 0);\r\n        // require(granted[_grantee].add(_tokenAmount) <= grantHardcapTokenPerEach); //// commented as grantHardcapTokenPerEach not defined\r\n        require(grantedTokens.add(_tokenAmount).add(tokenWeisSold) <= totalSupply);\r\n        \r\n        granted[_grantee] = granted[_grantee].add(_tokenAmount);\r\n        grantedTokens = grantedTokens.add(_tokenAmount);\r\n\r\n        token.transferLockedAmount(_grantee, _tokenAmount.mul(3).div(10), Tiers[Tiers.length-1].ending);\r\n        token.transferLockedAmount(_grantee, _tokenAmount.mul(7).div(10), Tiers[Tiers.length-1].ending + (365 days));\r\n        emit TokenGranted(msg.sender, _grantee, _tokenAmount);\r\n    }\r\n\r\n    /**\r\n     * @dev A modifier requires a specified address is whitelisted as grantee.\r\n     * @param _grantee The address of Grantee must be checked.\r\n     */\r\n    modifier onlyGrantee(address _grantee) {\r\n        require(whitelistedAsGrantee(_grantee));\r\n        _;\r\n    }\r\n\r\n    /**\r\n     * @dev A modifier requires an action to be measured in Grant Time i.e. \r\n     * immediately after pre-ICO round is ended, but before the ending od ICO corwdsale.\r\n     */\r\n    modifier onlyGrantTime() {\r\n        require(hasOpened());\r\n        require(!hasClosed());\r\n        require(currentTier() != TierStates.preWhitelist);\r\n        require(currentTier() != TierStates.preICO);\r\n        _;\r\n    }\r\n\r\n}",
  "sourcePath": "G:\\Root\\Blockchain\\WOX\\contracts\\crowdSale\\GrantedCrowdsale.sol",
  "compiler": {
    "name": "solc",
    "version": "0.4.23+commit.124ca40d.Emscripten.clang"
  },
  "schemaVersion": "2.0.0",
  "updatedAt": "2018-06-27T04:19:57.183Z"
}