{
  "contractName": "GrantedCrowdsale",
  "abi": [
    {
      "constant": true,
      "inputs": [],
      "name": "maxVestingWei",
      "outputs": [
        {
          "name": "",
          "type": "uint256"
        }
      ],
      "payable": false,
      "stateMutability": "view",
      "type": "function"
    },
    {
      "constant": true,
      "inputs": [],
      "name": "hasClosed",
      "outputs": [
        {
          "name": "",
          "type": "bool"
        }
      ],
      "payable": false,
      "stateMutability": "view",
      "type": "function"
    },
    {
      "constant": true,
      "inputs": [],
      "name": "totalSupply",
      "outputs": [
        {
          "name": "",
          "type": "uint256"
        }
      ],
      "payable": false,
      "stateMutability": "view",
      "type": "function"
    },
    {
      "constant": true,
      "inputs": [],
      "name": "grantedTokens",
      "outputs": [
        {
          "name": "",
          "type": "uint256"
        }
      ],
      "payable": false,
      "stateMutability": "view",
      "type": "function"
    },
    {
      "constant": true,
      "inputs": [],
      "name": "currentTierHardcap",
      "outputs": [
        {
          "name": "",
          "type": "uint256"
        }
      ],
      "payable": false,
      "stateMutability": "view",
      "type": "function"
    },
    {
      "constant": true,
      "inputs": [],
      "name": "decimals",
      "outputs": [
        {
          "name": "",
          "type": "uint256"
        }
      ],
      "payable": false,
      "stateMutability": "view",
      "type": "function"
    },
    {
      "constant": true,
      "inputs": [],
      "name": "weiRaised",
      "outputs": [
        {
          "name": "",
          "type": "uint256"
        }
      ],
      "payable": false,
      "stateMutability": "view",
      "type": "function"
    },
    {
      "constant": true,
      "inputs": [],
      "name": "getWeiRaised",
      "outputs": [
        {
          "name": "",
          "type": "uint256"
        }
      ],
      "payable": false,
      "stateMutability": "view",
      "type": "function"
    },
    {
      "constant": true,
      "inputs": [],
      "name": "wallet",
      "outputs": [
        {
          "name": "",
          "type": "address"
        }
      ],
      "payable": false,
      "stateMutability": "view",
      "type": "function"
    },
    {
      "constant": true,
      "inputs": [],
      "name": "grantHardcapToken",
      "outputs": [
        {
          "name": "",
          "type": "uint256"
        }
      ],
      "payable": false,
      "stateMutability": "view",
      "type": "function"
    },
    {
      "constant": false,
      "inputs": [
        {
          "name": "_vc",
          "type": "address"
        }
      ],
      "name": "addToVC",
      "outputs": [],
      "payable": false,
      "stateMutability": "nonpayable",
      "type": "function"
    },
    {
      "constant": true,
      "inputs": [],
      "name": "tokenName",
      "outputs": [
        {
          "name": "",
          "type": "string"
        }
      ],
      "payable": false,
      "stateMutability": "view",
      "type": "function"
    },
    {
      "constant": false,
      "inputs": [],
      "name": "renounceOwnership",
      "outputs": [],
      "payable": false,
      "stateMutability": "nonpayable",
      "type": "function"
    },
    {
      "constant": true,
      "inputs": [
        {
          "name": "_vc",
          "type": "address"
        }
      ],
      "name": "whtielistedAsVC",
      "outputs": [
        {
          "name": "",
          "type": "bool"
        }
      ],
      "payable": false,
      "stateMutability": "view",
      "type": "function"
    },
    {
      "constant": true,
      "inputs": [],
      "name": "tokenSymbol",
      "outputs": [
        {
          "name": "",
          "type": "string"
        }
      ],
      "payable": false,
      "stateMutability": "view",
      "type": "function"
    },
    {
      "constant": true,
      "inputs": [],
      "name": "grantHardcapTokenPerEach",
      "outputs": [
        {
          "name": "",
          "type": "uint256"
        }
      ],
      "payable": false,
      "stateMutability": "view",
      "type": "function"
    },
    {
      "constant": true,
      "inputs": [],
      "name": "owner",
      "outputs": [
        {
          "name": "",
          "type": "address"
        }
      ],
      "payable": false,
      "stateMutability": "view",
      "type": "function"
    },
    {
      "constant": false,
      "inputs": [
        {
          "name": "_vc",
          "type": "address"
        }
      ],
      "name": "removeFromVC",
      "outputs": [],
      "payable": false,
      "stateMutability": "nonpayable",
      "type": "function"
    },
    {
      "constant": true,
      "inputs": [],
      "name": "currentSaleTokenWeiHardcap",
      "outputs": [
        {
          "name": "",
          "type": "uint256"
        }
      ],
      "payable": false,
      "stateMutability": "view",
      "type": "function"
    },
    {
      "constant": true,
      "inputs": [],
      "name": "currentTierTokenWeisPerEth",
      "outputs": [
        {
          "name": "",
          "type": "uint256"
        }
      ],
      "payable": false,
      "stateMutability": "view",
      "type": "function"
    },
    {
      "constant": true,
      "inputs": [],
      "name": "hasOpened",
      "outputs": [
        {
          "name": "",
          "type": "bool"
        }
      ],
      "payable": false,
      "stateMutability": "view",
      "type": "function"
    },
    {
      "constant": true,
      "inputs": [],
      "name": "minVestingWei",
      "outputs": [
        {
          "name": "",
          "type": "uint256"
        }
      ],
      "payable": false,
      "stateMutability": "view",
      "type": "function"
    },
    {
      "constant": true,
      "inputs": [],
      "name": "currentTier",
      "outputs": [
        {
          "name": "",
          "type": "uint8"
        }
      ],
      "payable": false,
      "stateMutability": "view",
      "type": "function"
    },
    {
      "constant": true,
      "inputs": [],
      "name": "tokenWeisSold",
      "outputs": [
        {
          "name": "",
          "type": "uint256"
        }
      ],
      "payable": false,
      "stateMutability": "view",
      "type": "function"
    },
    {
      "constant": false,
      "inputs": [
        {
          "name": "_beneficiary",
          "type": "address"
        }
      ],
      "name": "buyTokens",
      "outputs": [
        {
          "name": "",
          "type": "uint256"
        }
      ],
      "payable": true,
      "stateMutability": "payable",
      "type": "function"
    },
    {
      "constant": false,
      "inputs": [
        {
          "name": "newOwner",
          "type": "address"
        }
      ],
      "name": "transferOwnership",
      "outputs": [],
      "payable": false,
      "stateMutability": "nonpayable",
      "type": "function"
    },
    {
      "constant": false,
      "inputs": [
        {
          "name": "_wallet",
          "type": "address"
        },
        {
          "name": "_weiAmount",
          "type": "uint256"
        }
      ],
      "name": "withdraw",
      "outputs": [],
      "payable": false,
      "stateMutability": "nonpayable",
      "type": "function"
    },
    {
      "constant": true,
      "inputs": [],
      "name": "token",
      "outputs": [
        {
          "name": "",
          "type": "address"
        }
      ],
      "payable": false,
      "stateMutability": "view",
      "type": "function"
    },
    {
      "payable": true,
      "stateMutability": "payable",
      "type": "fallback"
    },
    {
      "anonymous": false,
      "inputs": [
        {
          "indexed": true,
          "name": "sender",
          "type": "address"
        },
        {
          "indexed": true,
          "name": "grantee",
          "type": "address"
        },
        {
          "indexed": false,
          "name": "amount",
          "type": "uint256"
        }
      ],
      "name": "TokenGranted",
      "type": "event"
    },
    {
      "anonymous": false,
      "inputs": [
        {
          "indexed": true,
          "name": "purchaser",
          "type": "address"
        },
        {
          "indexed": true,
          "name": "beneficiary",
          "type": "address"
        },
        {
          "indexed": false,
          "name": "value",
          "type": "uint256"
        },
        {
          "indexed": false,
          "name": "amount",
          "type": "uint256"
        }
      ],
      "name": "TokenPurchase",
      "type": "event"
    },
    {
      "anonymous": false,
      "inputs": [
        {
          "indexed": true,
          "name": "previousOwner",
          "type": "address"
        }
      ],
      "name": "OwnershipRenounced",
      "type": "event"
    },
    {
      "anonymous": false,
      "inputs": [
        {
          "indexed": true,
          "name": "previousOwner",
          "type": "address"
        },
        {
          "indexed": true,
          "name": "newOwner",
          "type": "address"
        }
      ],
      "name": "OwnershipTransferred",
      "type": "event"
    },
    {
      "constant": false,
      "inputs": [
        {
          "name": "_grantee",
          "type": "address"
        }
      ],
      "name": "addToGrantees",
      "outputs": [],
      "payable": false,
      "stateMutability": "nonpayable",
      "type": "function"
    },
    {
      "constant": false,
      "inputs": [
        {
          "name": "_grantee",
          "type": "address"
        }
      ],
      "name": "removeFromGrantees",
      "outputs": [],
      "payable": false,
      "stateMutability": "nonpayable",
      "type": "function"
    },
    {
      "constant": true,
      "inputs": [
        {
          "name": "_grantee",
          "type": "address"
        }
      ],
      "name": "whitelistedAsGrantee",
      "outputs": [
        {
          "name": "",
          "type": "bool"
        }
      ],
      "payable": false,
      "stateMutability": "view",
      "type": "function"
    },
    {
      "constant": false,
      "inputs": [
        {
          "name": "_grantee",
          "type": "address"
        },
        {
          "name": "_tokenAmount",
          "type": "uint256"
        }
      ],
      "name": "grantTokens",
      "outputs": [],
      "payable": false,
      "stateMutability": "nonpayable",
      "type": "function"
    }
  ],
  "bytecode": "0x608060405233600160006101000a81548173ffffffffffffffffffffffffffffffffffffffff021916908373ffffffffffffffffffffffffffffffffffffffff160217905550612269806100546000396000f300608060405260043610610196576000357c0100000000000000000000000000000000000000000000000000000000900463ffffffff1680630425b553146101a257806306c36581146101e55780631515bc2b1461021057806318160ddd1461023f5780631ee42bcf1461026a578063301df9dd14610295578063313ce567146102c05780634042b66f146102eb57806340582f1314610316578063521eb2731461034157806352f646811461039857806353fe21ad146103c35780636c02a93114610406578063715018a614610496578063792d7ec3146104ad5780637b61c3201461050857806389379640146105985780638da5cb5b146105c35780639fb160aa1461061a5780639fc2e24f1461065d578063bbe8a46614610688578063be8eef8e146106b3578063c94e643c146106e2578063ce7f3a271461072f578063d679677a1461075a578063e184a51514610793578063e996a3dd146107be578063ec8ac4d814610801578063f2fde38b1461084b578063f3fef3a31461088e578063f556f4f7146108db578063fc0c546a14610936575b61019f3361098d565b50005b3480156101ae57600080fd5b506101e3600480360381019080803573ffffffffffffffffffffffffffffffffffffffff169060200190929190505050610a9b565b005b3480156101f157600080fd5b506101fa610bbc565b6040518082815260200191505060405180910390f35b34801561021c57600080fd5b50610225610c5e565b604051808215151515815260200191505060405180910390f35b34801561024b57600080fd5b50610254610c8f565b6040518082815260200191505060405180910390f35b34801561027657600080fd5b5061027f610c95565b6040518082815260200191505060405180910390f35b3480156102a157600080fd5b506102aa610c9b565b6040518082815260200191505060405180910390f35b3480156102cc57600080fd5b506102d5610cc9565b6040518082815260200191505060405180910390f35b3480156102f757600080fd5b50610300610ccf565b6040518082815260200191505060405180910390f35b34801561032257600080fd5b5061032b610cd5565b6040518082815260200191505060405180910390f35b34801561034d57600080fd5b50610356610cdf565b604051808273ffffffffffffffffffffffffffffffffffffffff1673ffffffffffffffffffffffffffffffffffffffff16815260200191505060405180910390f35b3480156103a457600080fd5b506103ad610d05565b6040518082815260200191505060405180910390f35b3480156103cf57600080fd5b50610404600480360381019080803573ffffffffffffffffffffffffffffffffffffffff169060200190929190505050610d0b565b005b34801561041257600080fd5b5061041b610e2c565b6040518080602001828103825283818151815260200191508051906020019080838360005b8381101561045b578082015181840152602081019050610440565b50505050905090810190601f1680156104885780820380516001836020036101000a031916815260200191505b509250505060405180910390f35b3480156104a257600080fd5b506104ab610eca565b005b3480156104b957600080fd5b506104ee600480360381019080803573ffffffffffffffffffffffffffffffffffffffff169060200190929190505050610fcf565b604051808215151515815260200191505060405180910390f35b34801561051457600080fd5b5061051d610fec565b6040518080602001828103825283818151815260200191508051906020019080838360005b8381101561055d578082015181840152602081019050610542565b50505050905090810190601f16801561058a5780820380516001836020036101000a031916815260200191505b509250505060405180910390f35b3480156105a457600080fd5b506105ad61108a565b6040518082815260200191505060405180910390f35b3480156105cf57600080fd5b506105d8611090565b604051808273ffffffffffffffffffffffffffffffffffffffff1673ffffffffffffffffffffffffffffffffffffffff16815260200191505060405180910390f35b34801561062657600080fd5b5061065b600480360381019080803573ffffffffffffffffffffffffffffffffffffffff1690602001909291905050506110b6565b005b34801561066957600080fd5b506106726111d7565b6040518082815260200191505060405180910390f35b34801561069457600080fd5b5061069d61123a565b6040518082815260200191505060405180910390f35b3480156106bf57600080fd5b506106c8611268565b604051808215151515815260200191505060405180910390f35b3480156106ee57600080fd5b5061072d600480360381019080803573ffffffffffffffffffffffffffffffffffffffff16906020019092919080359060200190929190505050611293565b005b34801561073b57600080fd5b506107446117d8565b6040518082815260200191505060405180910390f35b34801561076657600080fd5b5061076f61187a565b6040518082600681111561077f57fe5b60ff16815260200191505060405180910390f35b34801561079f57600080fd5b506107a86118b5565b6040518082815260200191505060405180910390f35b3480156107ca57600080fd5b506107ff600480360381019080803573ffffffffffffffffffffffffffffffffffffffff1690602001909291905050506118bb565b005b610835600480360381019080803573ffffffffffffffffffffffffffffffffffffffff16906020019092919050505061098d565b6040518082815260200191505060405180910390f35b34801561085757600080fd5b5061088c600480360381019080803573ffffffffffffffffffffffffffffffffffffffff1690602001909291905050506119dc565b005b34801561089a57600080fd5b506108d9600480360381019080803573ffffffffffffffffffffffffffffffffffffffff16906020019092919080359060200190929190505050611b34565b005b3480156108e757600080fd5b5061091c600480360381019080803573ffffffffffffffffffffffffffffffffffffffff169060200190929190505050611c38565b604051808215151515815260200191505060405180910390f35b34801561094257600080fd5b5061094b611c55565b604051808273ffffffffffffffffffffffffffffffffffffffff1673ffffffffffffffffffffffffffffffffffffffff16815260200191505060405180910390f35b600080600061099a611268565b15156109a557600080fd5b6109ad610c5e565b1515156109b957600080fd5b60006109c3611c7b565b8154811015156109cf57fe5b906000526020600020906006020160050160009054906101000a900460ff1615156109f957600080fd5b349150610a0582611d26565b9050610a12848383611d65565b610a1d848383611ee9565b610a278482611fb9565b8373ffffffffffffffffffffffffffffffffffffffff163373ffffffffffffffffffffffffffffffffffffffff167f623b3804fa71d67900d064613da8f94b9617215ee90799290593e1745087ad188484604051808381526020018281526020019250505060405180910390a35050919050565b60006006811115610aa857fe5b6000610ab2611c7b565b815481101515610abe57fe5b906000526020600020906006020160000160009054906101000a900460ff166006811115610ae857fe5b1480610b3e575060026006811115610afc57fe5b6000610b06611c7b565b815481101515610b1257fe5b906000526020600020906006020160000160009054906101000a900460ff166006811115610b3c57fe5b145b1515610b4957600080fd5b600160009054906101000a900473ffffffffffffffffffffffffffffffffffffffff1673ffffffffffffffffffffffffffffffffffffffff163373ffffffffffffffffffffffffffffffffffffffff16141515610ba557600080fd5b610bb98160146120be90919063ffffffff16565b50565b6000610bc6611268565b1515610bd157600080fd5b610bd9610c5e565b151515610be557600080fd5b6000610bef611c7b565b815481101515610bfb57fe5b906000526020600020906006020160050160009054906101000a900460ff161515610c2557600080fd5b60016006811115610c3257fe5b610c3a61187a565b6006811115610c4557fe5b1415610c5557600b549050610c5b565b600d5490505b90565b600080600160008054905003815481101515610c7657fe5b9060005260206000209060060201600201544211905090565b60065481565b60155481565b600080610ca6611c7b565b815481101515610cb257fe5b906000526020600020906006020160030154905090565b60075481565b600f5481565b6000600f54905090565b600460009054906101000a900473ffffffffffffffffffffffffffffffffffffffff1681565b60125481565b600160009054906101000a900473ffffffffffffffffffffffffffffffffffffffff1673ffffffffffffffffffffffffffffffffffffffff163373ffffffffffffffffffffffffffffffffffffffff16141515610d6757600080fd5b60006006811115610d7457fe5b6000610d7e611c7b565b815481101515610d8a57fe5b906000526020600020906006020160000160009054906101000a900460ff166006811115610db457fe5b1480610e0a575060026006811115610dc857fe5b6000610dd2611c7b565b815481101515610dde57fe5b906000526020600020906006020160000160009054906101000a900460ff166006811115610e0857fe5b145b1515610e1557600080fd5b610e2981600261211c90919063ffffffff16565b50565b60088054600181600116156101000203166002900480601f016020809104026020016040519081016040528092919081815260200182805460018160011615610100020316600290048015610ec25780601f10610e9757610100808354040283529160200191610ec2565b820191906000526020600020905b815481529060010190602001808311610ea557829003601f168201915b505050505081565b600160009054906101000a900473ffffffffffffffffffffffffffffffffffffffff1673ffffffffffffffffffffffffffffffffffffffff163373ffffffffffffffffffffffffffffffffffffffff16141515610f2657600080fd5b600160009054906101000a900473ffffffffffffffffffffffffffffffffffffffff1673ffffffffffffffffffffffffffffffffffffffff167ff8df31144d9c2f0f6b59d69b8b98abd5459d07f2742c4df920b25aae33c6482060405160405180910390a26000600160006101000a81548173ffffffffffffffffffffffffffffffffffffffff021916908373ffffffffffffffffffffffffffffffffffffffff160217905550565b6000610fe582600261217a90919063ffffffff16565b9050919050565b60098054600181600116156101000203166002900480601f0160208091040260200160405190810160405280929190818152602001828054600181600116156101000203166002900480156110825780601f1061105757610100808354040283529160200191611082565b820191906000526020600020905b81548152906001019060200180831161106557829003601f168201915b505050505081565b60135481565b600160009054906101000a900473ffffffffffffffffffffffffffffffffffffffff1681565b600160009054906101000a900473ffffffffffffffffffffffffffffffffffffffff1673ffffffffffffffffffffffffffffffffffffffff163373ffffffffffffffffffffffffffffffffffffffff1614151561111257600080fd5b6000600681111561111f57fe5b6000611129611c7b565b81548110151561113557fe5b906000526020600020906006020160000160009054906101000a900460ff16600681111561115f57fe5b14806111b557506002600681111561117357fe5b600061117d611c7b565b81548110151561118957fe5b906000526020600020906006020160000160009054906101000a900460ff1660068111156111b357fe5b145b15156111c057600080fd5b6111d48160026120be90919063ffffffff16565b50565b60008060008090505b6111e8611c7b565b811115156112325761122360008281548110151561120257fe5b906000526020600020906006020160030154836121d390919063ffffffff16565b915080806001019150506111e0565b819250505090565b600080611245611c7b565b81548110151561125157fe5b906000526020600020906006020160040154905090565b600080600081548110151561127957fe5b906000526020600020906006020160010154421015905090565b600160009054906101000a900473ffffffffffffffffffffffffffffffffffffffff1673ffffffffffffffffffffffffffffffffffffffff163373ffffffffffffffffffffffffffffffffffffffff161415156112ef57600080fd5b6112f7611268565b151561130257600080fd5b61130a610c5e565b15151561131657600080fd5b6000600681111561132357fe5b61132b61187a565b600681111561133657fe5b1415151561134357600080fd5b6001600681111561135057fe5b61135861187a565b600681111561136357fe5b1415151561137057600080fd5b8161137a81611c38565b151561138557600080fd5b600073ffffffffffffffffffffffffffffffffffffffff168373ffffffffffffffffffffffffffffffffffffffff16141515156113c157600080fd5b600082141515156113d157600080fd5b6006546113fd6011546113ef856015546121d390919063ffffffff16565b6121d390919063ffffffff16565b1115151561140a57600080fd5b61145c82601660008673ffffffffffffffffffffffffffffffffffffffff1673ffffffffffffffffffffffffffffffffffffffff168152602001908152602001600020546121d390919063ffffffff16565b601660008573ffffffffffffffffffffffffffffffffffffffff1673ffffffffffffffffffffffffffffffffffffffff168152602001908152602001600020819055506114b4826015546121d390919063ffffffff16565b601581905550600360009054906101000a900473ffffffffffffffffffffffffffffffffffffffff1673ffffffffffffffffffffffffffffffffffffffff166343af57d684611520600a6115126003886121ef90919063ffffffff16565b61222790919063ffffffff16565b600060016000805490500381548110151561153757fe5b9060005260206000209060060201600201546040518463ffffffff167c0100000000000000000000000000000000000000000000000000000000028152600401808473ffffffffffffffffffffffffffffffffffffffff1673ffffffffffffffffffffffffffffffffffffffff1681526020018381526020018281526020019350505050602060405180830381600087803b1580156115d557600080fd5b505af11580156115e9573d6000803e3d6000fd5b505050506040513d60208110156115ff57600080fd5b810190808051906020019092919050505050600360009054906101000a900473ffffffffffffffffffffffffffffffffffffffff1673ffffffffffffffffffffffffffffffffffffffff166343af57d684611677600a6116696007886121ef90919063ffffffff16565b61222790919063ffffffff16565b6301e13380600060016000805490500381548110151561169357fe5b906000526020600020906006020160020154016040518463ffffffff167c0100000000000000000000000000000000000000000000000000000000028152600401808473ffffffffffffffffffffffffffffffffffffffff1673ffffffffffffffffffffffffffffffffffffffff1681526020018381526020018281526020019350505050602060405180830381600087803b15801561173257600080fd5b505af1158015611746573d6000803e3d6000fd5b505050506040513d602081101561175c57600080fd5b8101908080519060200190929190505050508273ffffffffffffffffffffffffffffffffffffffff163373ffffffffffffffffffffffffffffffffffffffff167fa6e5a578d42fd913bd5bad70a2ae524a02ea5bcfa6ca06b309333095c155b84e846040518082815260200191505060405180910390a3505050565b60006117e2611268565b15156117ed57600080fd5b6117f5610c5e565b15151561180157600080fd5b600061180b611c7b565b81548110151561181757fe5b906000526020600020906006020160050160009054906101000a900460ff16151561184157600080fd5b6001600681111561184e57fe5b61185661187a565b600681111561186157fe5b141561187157600a549050611877565b600c5490505b90565b600080611885611c7b565b81548110151561189157fe5b906000526020600020906006020160000160009054906101000a900460ff16905090565b60115481565b600060068111156118c857fe5b60006118d2611c7b565b8154811015156118de57fe5b906000526020600020906006020160000160009054906101000a900460ff16600681111561190857fe5b148061195e57506002600681111561191c57fe5b6000611926611c7b565b81548110151561193257fe5b906000526020600020906006020160000160009054906101000a900460ff16600681111561195c57fe5b145b151561196957600080fd5b600160009054906101000a900473ffffffffffffffffffffffffffffffffffffffff1673ffffffffffffffffffffffffffffffffffffffff163373ffffffffffffffffffffffffffffffffffffffff161415156119c557600080fd5b6119d981601461211c90919063ffffffff16565b50565b600160009054906101000a900473ffffffffffffffffffffffffffffffffffffffff1673ffffffffffffffffffffffffffffffffffffffff163373ffffffffffffffffffffffffffffffffffffffff16141515611a3857600080fd5b600073ffffffffffffffffffffffffffffffffffffffff168173ffffffffffffffffffffffffffffffffffffffff1614151515611a7457600080fd5b8073ffffffffffffffffffffffffffffffffffffffff16600160009054906101000a900473ffffffffffffffffffffffffffffffffffffffff1673ffffffffffffffffffffffffffffffffffffffff167f8be0079c531659141344cd1fd0a4f28419497f9722a3daafe3b4186f6b6457e060405160405180910390a380600160006101000a81548173ffffffffffffffffffffffffffffffffffffffff021916908373ffffffffffffffffffffffffffffffffffffffff16021790555050565b600160009054906101000a900473ffffffffffffffffffffffffffffffffffffffff1673ffffffffffffffffffffffffffffffffffffffff163373ffffffffffffffffffffffffffffffffffffffff16141515611b9057600080fd5b600073ffffffffffffffffffffffffffffffffffffffff168273ffffffffffffffffffffffffffffffffffffffff1614151515611bcc57600080fd5b60008114151515611bdc57600080fd5b600f548111151515611bed57600080fd5b8173ffffffffffffffffffffffffffffffffffffffff166108fc829081150290604051600060405180830381858888f19350505050158015611c33573d6000803e3d6000fd5b505050565b6000611c4e82601461217a90919063ffffffff16565b9050919050565b600360009054906101000a900473ffffffffffffffffffffffffffffffffffffffff1681565b600080611c86611268565b1515611c9157600080fd5b611c99610c5e565b151515611ca557600080fd5b600090505b600080549050811015611d2157600081815481101515611cc657fe5b9060005260206000209060060201600101544210158015611d075750600081815481101515611cf157fe5b9060005260206000209060060201600201544211155b15611d1457809150611d22565b8080600101915050611caa565b5b5090565b600080611d3161123a565b9050611d5d600754600a0a611d4f83866121ef90919063ffffffff16565b61222790919063ffffffff16565b915050919050565b600073ffffffffffffffffffffffffffffffffffffffff168373ffffffffffffffffffffffffffffffffffffffff1614151515611da157600080fd5b60008214151515611db157600080fd5b611db96111d7565b611dce826011546121d390919063ffffffff16565b11151515611ddb57600080fd5b611de36117d8565b611e3583601060008773ffffffffffffffffffffffffffffffffffffffff1673ffffffffffffffffffffffffffffffffffffffff168152602001908152602001600020546121d390919063ffffffff16565b10151515611e4257600080fd5b611e4a610bbc565b611e9c83601060008773ffffffffffffffffffffffffffffffffffffffff1673ffffffffffffffffffffffffffffffffffffffff168152602001908152602001600020546121d390919063ffffffff16565b11151515611ea957600080fd5b60016006811115611eb657fe5b611ebe61187a565b6006811115611ec957fe5b1415611ee457611ed883610fcf565b1515611ee357600080fd5b5b505050565b611f3b82601060008673ffffffffffffffffffffffffffffffffffffffff1673ffffffffffffffffffffffffffffffffffffffff168152602001908152602001600020546121d390919063ffffffff16565b601060008573ffffffffffffffffffffffffffffffffffffffff1673ffffffffffffffffffffffffffffffffffffffff16815260200190815260200160002081905550611f93816011546121d390919063ffffffff16565b601181905550611fae82600f546121d390919063ffffffff16565b600f81905550505050565b600360009054906101000a900473ffffffffffffffffffffffffffffffffffffffff1673ffffffffffffffffffffffffffffffffffffffff1663a9059cbb83836040518363ffffffff167c0100000000000000000000000000000000000000000000000000000000028152600401808373ffffffffffffffffffffffffffffffffffffffff1673ffffffffffffffffffffffffffffffffffffffff16815260200182815260200192505050602060405180830381600087803b15801561207e57600080fd5b505af1158015612092573d6000803e3d6000fd5b505050506040513d60208110156120a857600080fd5b8101908080519060200190929190505050505050565b60008260000160008373ffffffffffffffffffffffffffffffffffffffff1673ffffffffffffffffffffffffffffffffffffffff16815260200190815260200160002060006101000a81548160ff0219169083151502179055505050565b60018260000160008373ffffffffffffffffffffffffffffffffffffffff1673ffffffffffffffffffffffffffffffffffffffff16815260200190815260200160002060006101000a81548160ff0219169083151502179055505050565b60008260000160008373ffffffffffffffffffffffffffffffffffffffff1673ffffffffffffffffffffffffffffffffffffffff16815260200190815260200160002060009054906101000a900460ff16905092915050565b600081830190508281101515156121e657fe5b80905092915050565b6000808314156122025760009050612221565b818302905081838281151561221357fe5b0414151561221d57fe5b8090505b92915050565b6000818381151561223457fe5b049050929150505600a165627a7a72305820ea324e7be7f5d78007df7f0168f318ce6a9d9df9ea1022d1fb074280f3e808a00029",
  "source": "pragma solidity ^0.4.23;\r\n\r\nimport \"./BasicCrowdsale.sol\";\r\nimport \"./TierLine.sol\";\r\nimport \"../whitelist/whitelist.sol\";\r\n\r\ncontract GrantedCrowdsale is BasicCrowdsale {\r\n    using whitelist for whitelist.Whitelist;\r\n\r\n    uint256 public grantHardcapToken;\r\n    uint256 public grantHardcapTokenPerEach;\r\n\r\n    whitelist.Whitelist Grantees;\r\n\r\n    uint256 public grantedTokens;\r\n    mapping(address => uint256) granted;\r\n\r\n    event TokenGranted(address indexed sender, address indexed grantee, uint256 amount);\r\n\r\n    function addToGrantees(address _grantee) public whitelistingAllowed onlyOwner {\r\n        Grantees.add(_grantee);\r\n    }\r\n\r\n    function removeFromGrantees(address _grantee) public whitelistingAllowed onlyOwner {\r\n        Grantees.remove(_grantee);\r\n    }\r\n\r\n    function whitelistedAsGrantee(address _grantee) public view returns (bool) {\r\n        return Grantees.has(_grantee);\r\n    }\r\n\r\n    function grantTokens(address _grantee, uint256 _tokenAmount)\r\n    public\r\n    onlyOwner\r\n    onlyGrantTime\r\n    onlyGrantee(_grantee) \r\n    {\r\n        require(_grantee != address(0));\r\n        require(_tokenAmount != 0);\r\n        // require(granted[_grantee].add(_tokenAmount) <= grantHardcapTokenPerEach); //// commented as grantHardcapTokenPerEach not defined\r\n        require(grantedTokens.add(_tokenAmount).add(tokenWeisSold) <= totalSupply);\r\n        \r\n        granted[_grantee] = granted[_grantee].add(_tokenAmount);\r\n        grantedTokens = grantedTokens.add(_tokenAmount);\r\n\r\n        token.transferLockedAmount(_grantee, _tokenAmount.mul(3).div(10), Tiers[Tiers.length-1].ending);\r\n        token.transferLockedAmount(_grantee, _tokenAmount.mul(7).div(10), Tiers[Tiers.length-1].ending + (365 days));\r\n        emit TokenGranted(msg.sender, _grantee, _tokenAmount);\r\n    }\r\n\r\n    modifier onlyGrantee(address _grantee) {\r\n        require(whitelistedAsGrantee(_grantee));\r\n        _;\r\n    }\r\n\r\n    modifier onlyGrantTime() {\r\n        require(hasOpened());\r\n        require(!hasClosed());\r\n        require(currentTier() != TierStates.preWhitelist);\r\n        require(currentTier() != TierStates.preICO);\r\n        _;\r\n    }\r\n\r\n}",
  "sourcePath": "G:\\Root\\Blockchain\\BAX\\contracts\\crowdSale\\GrantedCrowdsale.sol",
  "compiler": {
    "name": "solc",
    "version": "0.4.23+commit.124ca40d.Emscripten.clang"
  },
  "schemaVersion": "2.0.0",
  "updatedAt": "2018-06-07T05:53:54.986Z"
}