{
  "contractName": "InvestingLimits",
  "abi": [
    {
      "constant": true,
      "inputs": [],
      "name": "hasClosed",
      "outputs": [
        {
          "name": "",
          "type": "bool"
        }
      ],
      "payable": false,
      "stateMutability": "view",
      "type": "function"
    },
    {
      "constant": true,
      "inputs": [],
      "name": "getTokensPerETH",
      "outputs": [
        {
          "name": "",
          "type": "uint256"
        }
      ],
      "payable": false,
      "stateMutability": "view",
      "type": "function"
    },
    {
      "constant": true,
      "inputs": [],
      "name": "ICOTier4hardcapToken",
      "outputs": [
        {
          "name": "",
          "type": "uint256"
        }
      ],
      "payable": false,
      "stateMutability": "view",
      "type": "function"
    },
    {
      "constant": true,
      "inputs": [],
      "name": "getTier",
      "outputs": [
        {
          "name": "",
          "type": "uint8"
        }
      ],
      "payable": false,
      "stateMutability": "view",
      "type": "function"
    },
    {
      "constant": true,
      "inputs": [],
      "name": "ICOTier3hardcapToken",
      "outputs": [
        {
          "name": "",
          "type": "uint256"
        }
      ],
      "payable": false,
      "stateMutability": "view",
      "type": "function"
    },
    {
      "constant": true,
      "inputs": [],
      "name": "ICOTier1hardcapToken",
      "outputs": [
        {
          "name": "",
          "type": "uint256"
        }
      ],
      "payable": false,
      "stateMutability": "view",
      "type": "function"
    },
    {
      "constant": true,
      "inputs": [],
      "name": "preICOherdcapToken",
      "outputs": [
        {
          "name": "",
          "type": "uint256"
        }
      ],
      "payable": false,
      "stateMutability": "view",
      "type": "function"
    },
    {
      "constant": true,
      "inputs": [],
      "name": "hardcapToken",
      "outputs": [
        {
          "name": "",
          "type": "uint256"
        }
      ],
      "payable": false,
      "stateMutability": "view",
      "type": "function"
    },
    {
      "constant": true,
      "inputs": [],
      "name": "ICOTier2hardcapToken",
      "outputs": [
        {
          "name": "",
          "type": "uint256"
        }
      ],
      "payable": false,
      "stateMutability": "view",
      "type": "function"
    },
    {
      "constant": true,
      "inputs": [],
      "name": "getTierHardcapToken",
      "outputs": [
        {
          "name": "",
          "type": "uint256"
        }
      ],
      "payable": false,
      "stateMutability": "view",
      "type": "function"
    },
    {
      "inputs": [],
      "payable": false,
      "stateMutability": "nonpayable",
      "type": "constructor"
    },
    {
      "constant": true,
      "inputs": [],
      "name": "minVestingEth",
      "outputs": [
        {
          "name": "",
          "type": "uint256"
        }
      ],
      "payable": false,
      "stateMutability": "view",
      "type": "function"
    },
    {
      "constant": true,
      "inputs": [],
      "name": "maxVestingEth",
      "outputs": [
        {
          "name": "",
          "type": "uint256"
        }
      ],
      "payable": false,
      "stateMutability": "view",
      "type": "function"
    }
  ],
  "bytecode": "0x6080604052633b9aca00600a55610031622dc6c06004546100e2640100000000026108a4179091906401000000009004565b600b556307270e00600c55641d1a94a200600d55641d1a94a200600e55641d1a94a200600f55641d1a94a20060105534801561006c57600080fd5b506100b8670de0b6b3a764000061009d60045461c35061011a640100000000026108dc179091906401000000009004565b6100e2640100000000026108a4179091906401000000009004565b60118190555067016345785d8a0000601381905550681043561a8829300000601481905550610130565b6000808314156100f55760009050610114565b818302905081838281151561010657fe5b0414151561011057fe5b8090505b92915050565b6000818381151561012757fe5b04905092915050565b61091e8061013f6000396000f3006080604052600436106100ba576000357c0100000000000000000000000000000000000000000000000000000000900463ffffffff1680631515bc2b146100bf5780633be961b5146100ee5780633dd2b7ae1461011957806352f20fd2146101445780635ad701c21461016f5780637480fba8146101a8578063918f72c5146101d35780639bade612146101fe578063a2390d1314610229578063ba07ac0e14610254578063d13621e61461027f578063e537697e146102aa575b600080fd5b3480156100cb57600080fd5b506100d46102d5565b604051808215151515815260200191505060405180910390f35b3480156100fa57600080fd5b506101036102ed565b6040518082815260200191505060405180910390f35b34801561012557600080fd5b5061012e610424565b6040518082815260200191505060405180910390f35b34801561015057600080fd5b506101596104d0565b6040518082815260200191505060405180910390f35b34801561017b57600080fd5b506101846104d6565b6040518082600681111561019457fe5b60ff16815260200191505060405180910390f35b3480156101b457600080fd5b506101bd610516565b6040518082815260200191505060405180910390f35b3480156101df57600080fd5b506101e861051c565b6040518082815260200191505060405180910390f35b34801561020a57600080fd5b506102136105c8565b6040518082815260200191505060405180910390f35b34801561023557600080fd5b5061023e6105ce565b6040518082815260200191505060405180910390f35b34801561026057600080fd5b506102696105d4565b6040518082815260200191505060405180910390f35b34801561028b57600080fd5b506102946105da565b6040518082815260200191505060405180910390f35b3480156102b657600080fd5b506102bf6105e0565b6040518082815260200191505060405180910390f35b60008054421180156102e8575060015442105b905090565b60008060006102fa6104d6565b90506005600681111561030957fe5b81600681111561031557fe5b1415151561032257600080fd5b60068081111561032e57fe5b81600681111561033a57fe5b1415151561034757600080fd5b61034f6104d6565b91506000600681111561035e57fe5b82600681111561036a57fe5b141561037a57600554925061041f565b6001600681111561038757fe5b82600681111561039357fe5b14156103a357600654925061041f565b600260068111156103b057fe5b8260068111156103bc57fe5b14156103cc57600754925061041f565b600360068111156103d957fe5b8260068111156103e557fe5b14156103f557600854925061041f565b6004600681111561040257fe5b82600681111561040e57fe5b141561041e57600954925061041f565b5b505090565b60008061042f6102d5565b15151561043b57600080fd5b60006104456104d6565b90506005600681111561045457fe5b81600681111561046057fe5b1415151561046d57600080fd5b60068081111561047957fe5b81600681111561048557fe5b1415151561049257600080fd5b61049a6104d6565b9150600060068111156104a957fe5b8260068111156104b557fe5b14156104c55760125492506104cb565b60145492505b505090565b60105481565b600060036104e26107f3565b60ff168154811015156104f157fe5b90600052602060002090602091828204019190069054906101000a900460ff16905090565b600f5481565b6000806105276102d5565b15151561053357600080fd5b600061053d6104d6565b90506005600681111561054c57fe5b81600681111561055857fe5b1415151561056557600080fd5b60068081111561057157fe5b81600681111561057d57fe5b1415151561058a57600080fd5b6105926104d6565b9150600060068111156105a157fe5b8260068111156105ad57fe5b14156105bd5760115492506105c3565b60135492505b505090565b600d5481565b600c5481565b600a5481565b600e5481565b6000806105eb6102d5565b1515156105f757600080fd5b60006106016104d6565b90506005600681111561061057fe5b81600681111561061c57fe5b1415151561062957600080fd5b60068081111561063557fe5b81600681111561064157fe5b1415151561064e57600080fd5b6106566104d6565b91506000600681111561066557fe5b82600681111561067157fe5b141561068157600c5492506107ee565b6001600681111561068e57fe5b82600681111561069a57fe5b14156106be576106b7600c54600d5461088890919063ffffffff16565b92506107ee565b600260068111156106cb57fe5b8260068111156106d757fe5b141561070f57610708600c546106fa600d54600e5461088890919063ffffffff16565b61088890919063ffffffff16565b92506107ee565b6003600681111561071c57fe5b82600681111561072857fe5b14156107745761076d600c5461075f600d54610751600e54600f5461088890919063ffffffff16565b61088890919063ffffffff16565b61088890919063ffffffff16565b92506107ee565b6004600681111561078157fe5b82600681111561078d57fe5b14156107ed576107e6600c546107d8600d546107ca600e546107bc600f5460105461088890919063ffffffff16565b61088890919063ffffffff16565b61088890919063ffffffff16565b61088890919063ffffffff16565b92506107ee565b5b505090565b6000806107fe6102d5565b15151561080a57600080fd5b600090505b6003805490508160ff16101561088357600260008260ff1660ff1681526020019081526020016000206000015442101580156108695750600260006001830160ff1660ff1681526020019081526020016000206000015442105b1561087657809150610884565b808060010191505061080f565b5b5090565b6000818301905082811015151561089b57fe5b80905092915050565b6000808314156108b757600090506108d6565b81830290508183828115156108c857fe5b041415156108d257fe5b8090505b92915050565b600081838115156108e957fe5b049050929150505600a165627a7a72305820d00d33577a2e042fb9693fc0a77d6cc2c240b20ebd2bf99b766d9e34f3ff779e0029",
  "source": "pragma solidity ^0.4.23;\r\n\r\nimport \"./TierCap.sol\";\r\n\r\ncontract InvestingLimits is TierCap {\r\n    uint256 preICOMinVestingEth;\r\n    uint256 preICOMaxVestingEth; // ???\r\n    uint256 ICOMinVestingEth;\r\n    uint256 ICOMaxVestingEth;\r\n\r\n    constructor() public {\r\n        preICOMinVestingEth = uint256(50e3).div(ETH_USD).mul(1 ether);\r\n        ICOMinVestingEth = 0.1 ether;\r\n        ICOMaxVestingEth = 300 ether;\r\n    }\r\n\r\n    function minVestingEth() \r\n    public \r\n    view\r\n    onlyWhieNotClosed\r\n    purchaseAllowed\r\n    returns (uint256) {\r\n        Rounds round = getTier();\r\n        if (round == Rounds.preICO) {\r\n            return preICOMinVestingEth;\r\n        } else {\r\n            return ICOMinVestingEth;\r\n        }\r\n    }\r\n\r\n    function maxVestingEth() \r\n    public \r\n    view\r\n    onlyWhieNotClosed\r\n    purchaseAllowed\r\n    returns (uint256) {\r\n        Rounds round = getTier();\r\n        if (round == Rounds.preICO) {\r\n            return preICOMaxVestingEth;\r\n        } else {\r\n            return ICOMaxVestingEth;\r\n        }\r\n    }\r\n}",
  "sourcePath": "G:\\Root\\Blockchain\\BAX\\contracts\\crowdSale\\InvestingLimits.sol",
  "compiler": {
    "name": "solc",
    "version": "0.4.23+commit.124ca40d.Emscripten.clang"
  },
  "schemaVersion": "2.0.0",
  "updatedAt": "2018-05-29T10:45:28.272Z"
}