{
  "contractName": "ReferralCrowdsale",
  "abi": [
    {
      "constant": true,
      "inputs": [],
      "name": "maxVestingWei",
      "outputs": [
        {
          "name": "",
          "type": "uint256"
        }
      ],
      "payable": false,
      "stateMutability": "view",
      "type": "function"
    },
    {
      "constant": true,
      "inputs": [],
      "name": "hasClosed",
      "outputs": [
        {
          "name": "",
          "type": "bool"
        }
      ],
      "payable": false,
      "stateMutability": "view",
      "type": "function"
    },
    {
      "constant": true,
      "inputs": [],
      "name": "totalSupply",
      "outputs": [
        {
          "name": "",
          "type": "uint256"
        }
      ],
      "payable": false,
      "stateMutability": "view",
      "type": "function"
    },
    {
      "constant": true,
      "inputs": [],
      "name": "currentTierHardcap",
      "outputs": [
        {
          "name": "",
          "type": "uint256"
        }
      ],
      "payable": false,
      "stateMutability": "view",
      "type": "function"
    },
    {
      "constant": true,
      "inputs": [],
      "name": "decimals",
      "outputs": [
        {
          "name": "",
          "type": "uint256"
        }
      ],
      "payable": false,
      "stateMutability": "view",
      "type": "function"
    },
    {
      "constant": true,
      "inputs": [],
      "name": "weiRaised",
      "outputs": [
        {
          "name": "",
          "type": "uint256"
        }
      ],
      "payable": false,
      "stateMutability": "view",
      "type": "function"
    },
    {
      "constant": true,
      "inputs": [],
      "name": "getWeiRaised",
      "outputs": [
        {
          "name": "",
          "type": "uint256"
        }
      ],
      "payable": false,
      "stateMutability": "view",
      "type": "function"
    },
    {
      "constant": true,
      "inputs": [],
      "name": "wallet",
      "outputs": [
        {
          "name": "",
          "type": "address"
        }
      ],
      "payable": false,
      "stateMutability": "view",
      "type": "function"
    },
    {
      "constant": false,
      "inputs": [
        {
          "name": "_vc",
          "type": "address"
        }
      ],
      "name": "addToVC",
      "outputs": [],
      "payable": false,
      "stateMutability": "nonpayable",
      "type": "function"
    },
    {
      "constant": true,
      "inputs": [],
      "name": "tokenName",
      "outputs": [
        {
          "name": "",
          "type": "string"
        }
      ],
      "payable": false,
      "stateMutability": "view",
      "type": "function"
    },
    {
      "constant": false,
      "inputs": [],
      "name": "renounceOwnership",
      "outputs": [],
      "payable": false,
      "stateMutability": "nonpayable",
      "type": "function"
    },
    {
      "constant": true,
      "inputs": [
        {
          "name": "_vc",
          "type": "address"
        }
      ],
      "name": "whtielistedAsVC",
      "outputs": [
        {
          "name": "",
          "type": "bool"
        }
      ],
      "payable": false,
      "stateMutability": "view",
      "type": "function"
    },
    {
      "constant": true,
      "inputs": [],
      "name": "tokenSymbol",
      "outputs": [
        {
          "name": "",
          "type": "string"
        }
      ],
      "payable": false,
      "stateMutability": "view",
      "type": "function"
    },
    {
      "constant": true,
      "inputs": [],
      "name": "owner",
      "outputs": [
        {
          "name": "",
          "type": "address"
        }
      ],
      "payable": false,
      "stateMutability": "view",
      "type": "function"
    },
    {
      "constant": true,
      "inputs": [],
      "name": "referralTokens",
      "outputs": [
        {
          "name": "",
          "type": "uint256"
        }
      ],
      "payable": false,
      "stateMutability": "view",
      "type": "function"
    },
    {
      "constant": false,
      "inputs": [
        {
          "name": "_vc",
          "type": "address"
        }
      ],
      "name": "removeFromVC",
      "outputs": [],
      "payable": false,
      "stateMutability": "nonpayable",
      "type": "function"
    },
    {
      "constant": true,
      "inputs": [],
      "name": "currentSaleTokenWeiHardcap",
      "outputs": [
        {
          "name": "",
          "type": "uint256"
        }
      ],
      "payable": false,
      "stateMutability": "view",
      "type": "function"
    },
    {
      "constant": true,
      "inputs": [],
      "name": "MaxReferralTokens",
      "outputs": [
        {
          "name": "",
          "type": "uint256"
        }
      ],
      "payable": false,
      "stateMutability": "view",
      "type": "function"
    },
    {
      "constant": true,
      "inputs": [],
      "name": "currentTierTokenWeisPerEth",
      "outputs": [
        {
          "name": "",
          "type": "uint256"
        }
      ],
      "payable": false,
      "stateMutability": "view",
      "type": "function"
    },
    {
      "constant": true,
      "inputs": [],
      "name": "hasOpened",
      "outputs": [
        {
          "name": "",
          "type": "bool"
        }
      ],
      "payable": false,
      "stateMutability": "view",
      "type": "function"
    },
    {
      "constant": true,
      "inputs": [],
      "name": "minVestingWei",
      "outputs": [
        {
          "name": "",
          "type": "uint256"
        }
      ],
      "payable": false,
      "stateMutability": "view",
      "type": "function"
    },
    {
      "constant": true,
      "inputs": [],
      "name": "currentTier",
      "outputs": [
        {
          "name": "",
          "type": "uint8"
        }
      ],
      "payable": false,
      "stateMutability": "view",
      "type": "function"
    },
    {
      "constant": true,
      "inputs": [],
      "name": "tokenWeisSold",
      "outputs": [
        {
          "name": "",
          "type": "uint256"
        }
      ],
      "payable": false,
      "stateMutability": "view",
      "type": "function"
    },
    {
      "constant": false,
      "inputs": [
        {
          "name": "_beneficiary",
          "type": "address"
        }
      ],
      "name": "buyTokens",
      "outputs": [
        {
          "name": "",
          "type": "uint256"
        }
      ],
      "payable": true,
      "stateMutability": "payable",
      "type": "function"
    },
    {
      "constant": false,
      "inputs": [
        {
          "name": "newOwner",
          "type": "address"
        }
      ],
      "name": "transferOwnership",
      "outputs": [],
      "payable": false,
      "stateMutability": "nonpayable",
      "type": "function"
    },
    {
      "constant": false,
      "inputs": [
        {
          "name": "_wallet",
          "type": "address"
        },
        {
          "name": "_weiAmount",
          "type": "uint256"
        }
      ],
      "name": "withdraw",
      "outputs": [],
      "payable": false,
      "stateMutability": "nonpayable",
      "type": "function"
    },
    {
      "constant": true,
      "inputs": [],
      "name": "token",
      "outputs": [
        {
          "name": "",
          "type": "address"
        }
      ],
      "payable": false,
      "stateMutability": "view",
      "type": "function"
    },
    {
      "anonymous": false,
      "inputs": [
        {
          "indexed": true,
          "name": "sender",
          "type": "address"
        },
        {
          "indexed": true,
          "name": "referre",
          "type": "address"
        },
        {
          "indexed": false,
          "name": "amount",
          "type": "uint256"
        }
      ],
      "name": "ReferralTokenPaid",
      "type": "event"
    },
    {
      "anonymous": false,
      "inputs": [
        {
          "indexed": true,
          "name": "purchaser",
          "type": "address"
        },
        {
          "indexed": true,
          "name": "beneficiary",
          "type": "address"
        },
        {
          "indexed": false,
          "name": "value",
          "type": "uint256"
        },
        {
          "indexed": false,
          "name": "amount",
          "type": "uint256"
        }
      ],
      "name": "TokenPurchase",
      "type": "event"
    },
    {
      "anonymous": false,
      "inputs": [
        {
          "indexed": true,
          "name": "previousOwner",
          "type": "address"
        }
      ],
      "name": "OwnershipRenounced",
      "type": "event"
    },
    {
      "anonymous": false,
      "inputs": [
        {
          "indexed": true,
          "name": "previousOwner",
          "type": "address"
        },
        {
          "indexed": true,
          "name": "newOwner",
          "type": "address"
        }
      ],
      "name": "OwnershipTransferred",
      "type": "event"
    },
    {
      "constant": false,
      "inputs": [
        {
          "name": "_referrer",
          "type": "address"
        },
        {
          "name": "_amount",
          "type": "uint256"
        }
      ],
      "name": "PayReferral",
      "outputs": [],
      "payable": false,
      "stateMutability": "nonpayable",
      "type": "function"
    }
  ],
  "bytecode": "0x608060405233600160006101000a81548173ffffffffffffffffffffffffffffffffffffffff021916908373ffffffffffffffffffffffffffffffffffffffff160217905550611cf0806100546000396000f30060806040526004361061016a576000357c0100000000000000000000000000000000000000000000000000000000900463ffffffff16806306c365811461016f5780631515bc2b1461019a57806318160ddd146101c9578063301df9dd146101f4578063313ce5671461021f5780634042b66f1461024a57806340582f1314610275578063521eb273146102a057806353fe21ad146102f75780636c02a9311461033a578063715018a6146103ca578063792d7ec3146103e15780637b61c3201461043c5780638da5cb5b146104cc5780639303b0b8146105235780639fb160aa1461054e5780639fc2e24f14610591578063b64657a7146105bc578063bbe8a466146105e7578063be8eef8e14610612578063ce7f3a2714610641578063d679677a1461066c578063e184a515146106a5578063ec8ac4d8146106d0578063ee84038e1461071a578063f2fde38b14610767578063f3fef3a3146107aa578063fc0c546a146107f7575b600080fd5b34801561017b57600080fd5b5061018461084e565b6040518082815260200191505060405180910390f35b3480156101a657600080fd5b506101af6108f0565b604051808215151515815260200191505060405180910390f35b3480156101d557600080fd5b506101de610921565b6040518082815260200191505060405180910390f35b34801561020057600080fd5b50610209610927565b6040518082815260200191505060405180910390f35b34801561022b57600080fd5b50610234610955565b6040518082815260200191505060405180910390f35b34801561025657600080fd5b5061025f61095b565b6040518082815260200191505060405180910390f35b34801561028157600080fd5b5061028a610961565b6040518082815260200191505060405180910390f35b3480156102ac57600080fd5b506102b561096b565b604051808273ffffffffffffffffffffffffffffffffffffffff1673ffffffffffffffffffffffffffffffffffffffff16815260200191505060405180910390f35b34801561030357600080fd5b50610338600480360381019080803573ffffffffffffffffffffffffffffffffffffffff169060200190929190505050610991565b005b34801561034657600080fd5b5061034f610ab2565b6040518080602001828103825283818151815260200191508051906020019080838360005b8381101561038f578082015181840152602081019050610374565b50505050905090810190601f1680156103bc5780820380516001836020036101000a031916815260200191505b509250505060405180910390f35b3480156103d657600080fd5b506103df610b50565b005b3480156103ed57600080fd5b50610422600480360381019080803573ffffffffffffffffffffffffffffffffffffffff169060200190929190505050610c55565b604051808215151515815260200191505060405180910390f35b34801561044857600080fd5b50610451610c72565b6040518080602001828103825283818151815260200191508051906020019080838360005b83811015610491578082015181840152602081019050610476565b50505050905090810190601f1680156104be5780820380516001836020036101000a031916815260200191505b509250505060405180910390f35b3480156104d857600080fd5b506104e1610d10565b604051808273ffffffffffffffffffffffffffffffffffffffff1673ffffffffffffffffffffffffffffffffffffffff16815260200191505060405180910390f35b34801561052f57600080fd5b50610538610d36565b6040518082815260200191505060405180910390f35b34801561055a57600080fd5b5061058f600480360381019080803573ffffffffffffffffffffffffffffffffffffffff169060200190929190505050610d3c565b005b34801561059d57600080fd5b506105a6610e5d565b6040518082815260200191505060405180910390f35b3480156105c857600080fd5b506105d1610ec0565b6040518082815260200191505060405180910390f35b3480156105f357600080fd5b506105fc610ec6565b6040518082815260200191505060405180910390f35b34801561061e57600080fd5b50610627610ef4565b604051808215151515815260200191505060405180910390f35b34801561064d57600080fd5b50610656610f1f565b6040518082815260200191505060405180910390f35b34801561067857600080fd5b50610681610fc1565b6040518082600681111561069157fe5b60ff16815260200191505060405180910390f35b3480156106b157600080fd5b506106ba610ffc565b6040518082815260200191505060405180910390f35b610704600480360381019080803573ffffffffffffffffffffffffffffffffffffffff169060200190929190505050611002565b6040518082815260200191505060405180910390f35b34801561072657600080fd5b50610765600480360381019080803573ffffffffffffffffffffffffffffffffffffffff16906020019092919080359060200190929190505050611110565b005b34801561077357600080fd5b506107a8600480360381019080803573ffffffffffffffffffffffffffffffffffffffff169060200190929190505050611480565b005b3480156107b657600080fd5b506107f5600480360381019080803573ffffffffffffffffffffffffffffffffffffffff169060200190929190803590602001909291905050506115d8565b005b34801561080357600080fd5b5061080c6116dc565b604051808273ffffffffffffffffffffffffffffffffffffffff1673ffffffffffffffffffffffffffffffffffffffff16815260200191505060405180910390f35b6000610858610ef4565b151561086357600080fd5b61086b6108f0565b15151561087757600080fd5b6000610881611702565b81548110151561088d57fe5b906000526020600020906006020160050160009054906101000a900460ff1615156108b757600080fd5b600160068111156108c457fe5b6108cc610fc1565b60068111156108d757fe5b14156108e757600b5490506108ed565b600d5490505b90565b60008060016000805490500381548110151561090857fe5b9060005260206000209060060201600201544211905090565b60065481565b600080610932611702565b81548110151561093e57fe5b906000526020600020906006020160030154905090565b60075481565b600f5481565b6000600f54905090565b600460009054906101000a900473ffffffffffffffffffffffffffffffffffffffff1681565b600160009054906101000a900473ffffffffffffffffffffffffffffffffffffffff1673ffffffffffffffffffffffffffffffffffffffff163373ffffffffffffffffffffffffffffffffffffffff161415156109ed57600080fd5b600060068111156109fa57fe5b6000610a04611702565b815481101515610a1057fe5b906000526020600020906006020160000160009054906101000a900460ff166006811115610a3a57fe5b1480610a90575060026006811115610a4e57fe5b6000610a58611702565b815481101515610a6457fe5b906000526020600020906006020160000160009054906101000a900460ff166006811115610a8e57fe5b145b1515610a9b57600080fd5b610aaf8160026117ad90919063ffffffff16565b50565b60088054600181600116156101000203166002900480601f016020809104026020016040519081016040528092919081815260200182805460018160011615610100020316600290048015610b485780601f10610b1d57610100808354040283529160200191610b48565b820191906000526020600020905b815481529060010190602001808311610b2b57829003601f168201915b505050505081565b600160009054906101000a900473ffffffffffffffffffffffffffffffffffffffff1673ffffffffffffffffffffffffffffffffffffffff163373ffffffffffffffffffffffffffffffffffffffff16141515610bac57600080fd5b600160009054906101000a900473ffffffffffffffffffffffffffffffffffffffff1673ffffffffffffffffffffffffffffffffffffffff167ff8df31144d9c2f0f6b59d69b8b98abd5459d07f2742c4df920b25aae33c6482060405160405180910390a26000600160006101000a81548173ffffffffffffffffffffffffffffffffffffffff021916908373ffffffffffffffffffffffffffffffffffffffff160217905550565b6000610c6b82600261180b90919063ffffffff16565b9050919050565b60098054600181600116156101000203166002900480601f016020809104026020016040519081016040528092919081815260200182805460018160011615610100020316600290048015610d085780601f10610cdd57610100808354040283529160200191610d08565b820191906000526020600020905b815481529060010190602001808311610ceb57829003601f168201915b505050505081565b600160009054906101000a900473ffffffffffffffffffffffffffffffffffffffff1681565b60135481565b600160009054906101000a900473ffffffffffffffffffffffffffffffffffffffff1673ffffffffffffffffffffffffffffffffffffffff163373ffffffffffffffffffffffffffffffffffffffff16141515610d9857600080fd5b60006006811115610da557fe5b6000610daf611702565b815481101515610dbb57fe5b906000526020600020906006020160000160009054906101000a900460ff166006811115610de557fe5b1480610e3b575060026006811115610df957fe5b6000610e03611702565b815481101515610e0f57fe5b906000526020600020906006020160000160009054906101000a900460ff166006811115610e3957fe5b145b1515610e4657600080fd5b610e5a81600261186490919063ffffffff16565b50565b60008060008090505b610e6e611702565b81111515610eb857610ea9600082815481101515610e8857fe5b906000526020600020906006020160030154836118c290919063ffffffff16565b91508080600101915050610e66565b819250505090565b60125481565b600080610ed1611702565b815481101515610edd57fe5b906000526020600020906006020160040154905090565b6000806000815481101515610f0557fe5b906000526020600020906006020160010154421015905090565b6000610f29610ef4565b1515610f3457600080fd5b610f3c6108f0565b151515610f4857600080fd5b6000610f52611702565b815481101515610f5e57fe5b906000526020600020906006020160050160009054906101000a900460ff161515610f8857600080fd5b60016006811115610f9557fe5b610f9d610fc1565b6006811115610fa857fe5b1415610fb857600a549050610fbe565b600c5490505b90565b600080610fcc611702565b815481101515610fd857fe5b906000526020600020906006020160000160009054906101000a900460ff16905090565b60115481565b600080600061100f610ef4565b151561101a57600080fd5b6110226108f0565b15151561102e57600080fd5b6000611038611702565b81548110151561104457fe5b906000526020600020906006020160050160009054906101000a900460ff16151561106e57600080fd5b34915061107a826118de565b905061108784838361191d565b611092848383611aa1565b61109c8482611b71565b8373ffffffffffffffffffffffffffffffffffffffff163373ffffffffffffffffffffffffffffffffffffffff167f623b3804fa71d67900d064613da8f94b9617215ee90799290593e1745087ad188484604051808381526020018281526020019250505060405180910390a35050919050565b600160009054906101000a900473ffffffffffffffffffffffffffffffffffffffff1673ffffffffffffffffffffffffffffffffffffffff163373ffffffffffffffffffffffffffffffffffffffff1614151561116c57600080fd5b611174610ef4565b151561117f57600080fd5b6111876108f0565b15151561119357600080fd5b600061119d611702565b8154811015156111a957fe5b906000526020600020906006020160050160009054906101000a900460ff1615156111d357600080fd5b600073ffffffffffffffffffffffffffffffffffffffff168273ffffffffffffffffffffffffffffffffffffffff161415151561120f57600080fd5b6000811415151561121f57600080fd5b601254611237826013546118c290919063ffffffff16565b1115151561124457600080fd5b61129681601460008573ffffffffffffffffffffffffffffffffffffffff1673ffffffffffffffffffffffffffffffffffffffff168152602001908152602001600020546118c290919063ffffffff16565b601460008473ffffffffffffffffffffffffffffffffffffffff1673ffffffffffffffffffffffffffffffffffffffff168152602001908152602001600020819055506112ee816013546118c290919063ffffffff16565b601381905550600360009054906101000a900473ffffffffffffffffffffffffffffffffffffffff1673ffffffffffffffffffffffffffffffffffffffff1663a9059cbb83836040518363ffffffff167c0100000000000000000000000000000000000000000000000000000000028152600401808373ffffffffffffffffffffffffffffffffffffffff1673ffffffffffffffffffffffffffffffffffffffff16815260200182815260200192505050602060405180830381600087803b1580156113b957600080fd5b505af11580156113cd573d6000803e3d6000fd5b505050506040513d60208110156113e357600080fd5b8101908080519060200190929190505050508173ffffffffffffffffffffffffffffffffffffffff16600160009054906101000a900473ffffffffffffffffffffffffffffffffffffffff1673ffffffffffffffffffffffffffffffffffffffff167f3dd247ca176cfa1531a4faf4ef926c52f3201b3056f8d738306f4383fa700d04836040518082815260200191505060405180910390a35050565b600160009054906101000a900473ffffffffffffffffffffffffffffffffffffffff1673ffffffffffffffffffffffffffffffffffffffff163373ffffffffffffffffffffffffffffffffffffffff161415156114dc57600080fd5b600073ffffffffffffffffffffffffffffffffffffffff168173ffffffffffffffffffffffffffffffffffffffff161415151561151857600080fd5b8073ffffffffffffffffffffffffffffffffffffffff16600160009054906101000a900473ffffffffffffffffffffffffffffffffffffffff1673ffffffffffffffffffffffffffffffffffffffff167f8be0079c531659141344cd1fd0a4f28419497f9722a3daafe3b4186f6b6457e060405160405180910390a380600160006101000a81548173ffffffffffffffffffffffffffffffffffffffff021916908373ffffffffffffffffffffffffffffffffffffffff16021790555050565b600160009054906101000a900473ffffffffffffffffffffffffffffffffffffffff1673ffffffffffffffffffffffffffffffffffffffff163373ffffffffffffffffffffffffffffffffffffffff1614151561163457600080fd5b600073ffffffffffffffffffffffffffffffffffffffff168273ffffffffffffffffffffffffffffffffffffffff161415151561167057600080fd5b6000811415151561168057600080fd5b600f54811115151561169157600080fd5b8173ffffffffffffffffffffffffffffffffffffffff166108fc829081150290604051600060405180830381858888f193505050501580156116d7573d6000803e3d6000fd5b505050565b600360009054906101000a900473ffffffffffffffffffffffffffffffffffffffff1681565b60008061170d610ef4565b151561171857600080fd5b6117206108f0565b15151561172c57600080fd5b600090505b6000805490508110156117a85760008181548110151561174d57fe5b906000526020600020906006020160010154421015801561178e575060008181548110151561177857fe5b9060005260206000209060060201600201544211155b1561179b578091506117a9565b8080600101915050611731565b5b5090565b60018260000160008373ffffffffffffffffffffffffffffffffffffffff1673ffffffffffffffffffffffffffffffffffffffff16815260200190815260200160002060006101000a81548160ff0219169083151502179055505050565b60008260000160008373ffffffffffffffffffffffffffffffffffffffff1673ffffffffffffffffffffffffffffffffffffffff16815260200190815260200160002060009054906101000a900460ff16905092915050565b60008260000160008373ffffffffffffffffffffffffffffffffffffffff1673ffffffffffffffffffffffffffffffffffffffff16815260200190815260200160002060006101000a81548160ff0219169083151502179055505050565b600081830190508281101515156118d557fe5b80905092915050565b6000806118e9610ec6565b9050611915600754600a0a6119078386611c7690919063ffffffff16565b611cae90919063ffffffff16565b915050919050565b600073ffffffffffffffffffffffffffffffffffffffff168373ffffffffffffffffffffffffffffffffffffffff161415151561195957600080fd5b6000821415151561196957600080fd5b611971610e5d565b611986826011546118c290919063ffffffff16565b1115151561199357600080fd5b61199b610f1f565b6119ed83601060008773ffffffffffffffffffffffffffffffffffffffff1673ffffffffffffffffffffffffffffffffffffffff168152602001908152602001600020546118c290919063ffffffff16565b101515156119fa57600080fd5b611a0261084e565b611a5483601060008773ffffffffffffffffffffffffffffffffffffffff1673ffffffffffffffffffffffffffffffffffffffff168152602001908152602001600020546118c290919063ffffffff16565b11151515611a6157600080fd5b60016006811115611a6e57fe5b611a76610fc1565b6006811115611a8157fe5b1415611a9c57611a9083610c55565b1515611a9b57600080fd5b5b505050565b611af382601060008673ffffffffffffffffffffffffffffffffffffffff1673ffffffffffffffffffffffffffffffffffffffff168152602001908152602001600020546118c290919063ffffffff16565b601060008573ffffffffffffffffffffffffffffffffffffffff1673ffffffffffffffffffffffffffffffffffffffff16815260200190815260200160002081905550611b4b816011546118c290919063ffffffff16565b601181905550611b6682600f546118c290919063ffffffff16565b600f81905550505050565b600360009054906101000a900473ffffffffffffffffffffffffffffffffffffffff1673ffffffffffffffffffffffffffffffffffffffff1663a9059cbb83836040518363ffffffff167c0100000000000000000000000000000000000000000000000000000000028152600401808373ffffffffffffffffffffffffffffffffffffffff1673ffffffffffffffffffffffffffffffffffffffff16815260200182815260200192505050602060405180830381600087803b158015611c3657600080fd5b505af1158015611c4a573d6000803e3d6000fd5b505050506040513d6020811015611c6057600080fd5b8101908080519060200190929190505050505050565b600080831415611c895760009050611ca8565b8183029050818382811515611c9a57fe5b04141515611ca457fe5b8090505b92915050565b60008183811515611cbb57fe5b049050929150505600a165627a7a723058200a7903e3f90bef58293f5aea20c2205e137a9cb6211d7dc5fc4a8edfd0ce56530029",
  "source": "pragma solidity ^0.4.23;\r\n\r\nimport \"./BasicCrowdsale.sol\";\r\n\r\n/**\r\n * @title ReferralCrowdsale\r\n * @dev ReferralCrowdsale inherrits BasicCrowdsale and intended to manage payment Referrals to Referrers.\r\n */\r\ncontract ReferralCrowdsale is BasicCrowdsale {\r\n\r\n    uint256 public MaxReferralTokens;\r\n\r\n    uint256 public referralTokens;\r\n    \r\n    mapping(address => uint256) referrals;\r\n\r\n    event ReferralTokenPaid(address indexed sender, address indexed referre, uint256 amount);\r\n\r\n    /**\r\n     * @dev Transfers an amount of tokens to a referrer address.\r\n     * @param _referrer Addreess to which Referrals are supposed to be paid.\r\n     * @param _amount Number of tokens must be paid to a specified referrer as Referral.\r\n     * @dev note Only owner is allowed to pay Referrals.\r\n     * @dev note Only while ICO is running, except both whitelisting Rounds, Referral process is allowed.\r\n     * @dev note Only 30 Million Tokens are allowed to be paid as Refferals.\r\n     */\r\n    function PayReferral(address _referrer, uint256 _amount) \r\n    public \r\n    onlyOwner \r\n    onlyWhileIsOpened\r\n    onlyWhileNotClosed\r\n    purchaseAllowed\r\n    {\r\n        require(_referrer != address(0));\r\n        require(_amount != 0);\r\n        require(referralTokens.add(_amount) <= MaxReferralTokens);\r\n        referrals[_referrer] = referrals[_referrer].add(_amount);\r\n        referralTokens = referralTokens.add(_amount);\r\n        token.transfer(_referrer, _amount);\r\n        emit ReferralTokenPaid(owner, _referrer, _amount);\r\n    }\r\n\r\n}",
  "sourcePath": "G:\\Root\\Blockchain\\WOX\\contracts\\crowdSale\\ReferralCorwdsale.sol",
  "compiler": {
    "name": "solc",
    "version": "0.4.23+commit.124ca40d.Emscripten.clang"
  },
  "schemaVersion": "2.0.0",
  "updatedAt": "2018-06-27T06:56:02.084Z"
}