{
  "contractName": "ReferralCrowdsale",
  "abi": [
    {
      "constant": true,
      "inputs": [],
      "name": "maxVestingWei",
      "outputs": [
        {
          "name": "",
          "type": "uint256"
        }
      ],
      "payable": false,
      "stateMutability": "view",
      "type": "function"
    },
    {
      "constant": true,
      "inputs": [],
      "name": "hasClosed",
      "outputs": [
        {
          "name": "",
          "type": "bool"
        }
      ],
      "payable": false,
      "stateMutability": "view",
      "type": "function"
    },
    {
      "constant": true,
      "inputs": [],
      "name": "totalSupply",
      "outputs": [
        {
          "name": "",
          "type": "uint256"
        }
      ],
      "payable": false,
      "stateMutability": "view",
      "type": "function"
    },
    {
      "constant": true,
      "inputs": [],
      "name": "currentTierHardcap",
      "outputs": [
        {
          "name": "",
          "type": "uint256"
        }
      ],
      "payable": false,
      "stateMutability": "view",
      "type": "function"
    },
    {
      "constant": true,
      "inputs": [],
      "name": "decimals",
      "outputs": [
        {
          "name": "",
          "type": "uint256"
        }
      ],
      "payable": false,
      "stateMutability": "view",
      "type": "function"
    },
    {
      "constant": true,
      "inputs": [],
      "name": "weiRaised",
      "outputs": [
        {
          "name": "",
          "type": "uint256"
        }
      ],
      "payable": false,
      "stateMutability": "view",
      "type": "function"
    },
    {
      "constant": true,
      "inputs": [],
      "name": "getWeiRaised",
      "outputs": [
        {
          "name": "",
          "type": "uint256"
        }
      ],
      "payable": false,
      "stateMutability": "view",
      "type": "function"
    },
    {
      "constant": true,
      "inputs": [],
      "name": "wallet",
      "outputs": [
        {
          "name": "",
          "type": "address"
        }
      ],
      "payable": false,
      "stateMutability": "view",
      "type": "function"
    },
    {
      "constant": false,
      "inputs": [
        {
          "name": "_vc",
          "type": "address"
        }
      ],
      "name": "addToVC",
      "outputs": [],
      "payable": false,
      "stateMutability": "nonpayable",
      "type": "function"
    },
    {
      "constant": true,
      "inputs": [],
      "name": "tokenName",
      "outputs": [
        {
          "name": "",
          "type": "string"
        }
      ],
      "payable": false,
      "stateMutability": "view",
      "type": "function"
    },
    {
      "constant": false,
      "inputs": [],
      "name": "renounceOwnership",
      "outputs": [],
      "payable": false,
      "stateMutability": "nonpayable",
      "type": "function"
    },
    {
      "constant": true,
      "inputs": [
        {
          "name": "_vc",
          "type": "address"
        }
      ],
      "name": "whtielistedAsVC",
      "outputs": [
        {
          "name": "",
          "type": "bool"
        }
      ],
      "payable": false,
      "stateMutability": "view",
      "type": "function"
    },
    {
      "constant": true,
      "inputs": [],
      "name": "tokenSymbol",
      "outputs": [
        {
          "name": "",
          "type": "string"
        }
      ],
      "payable": false,
      "stateMutability": "view",
      "type": "function"
    },
    {
      "constant": true,
      "inputs": [],
      "name": "owner",
      "outputs": [
        {
          "name": "",
          "type": "address"
        }
      ],
      "payable": false,
      "stateMutability": "view",
      "type": "function"
    },
    {
      "constant": true,
      "inputs": [],
      "name": "referralTokens",
      "outputs": [
        {
          "name": "",
          "type": "uint256"
        }
      ],
      "payable": false,
      "stateMutability": "view",
      "type": "function"
    },
    {
      "constant": false,
      "inputs": [
        {
          "name": "_vc",
          "type": "address"
        }
      ],
      "name": "removeFromVC",
      "outputs": [],
      "payable": false,
      "stateMutability": "nonpayable",
      "type": "function"
    },
    {
      "constant": true,
      "inputs": [],
      "name": "currentSaleTokenWeiHardcap",
      "outputs": [
        {
          "name": "",
          "type": "uint256"
        }
      ],
      "payable": false,
      "stateMutability": "view",
      "type": "function"
    },
    {
      "constant": true,
      "inputs": [],
      "name": "MaxReferralTokens",
      "outputs": [
        {
          "name": "",
          "type": "uint256"
        }
      ],
      "payable": false,
      "stateMutability": "view",
      "type": "function"
    },
    {
      "constant": true,
      "inputs": [],
      "name": "currentTierTokenWeisPerEth",
      "outputs": [
        {
          "name": "",
          "type": "uint256"
        }
      ],
      "payable": false,
      "stateMutability": "view",
      "type": "function"
    },
    {
      "constant": true,
      "inputs": [],
      "name": "hasOpened",
      "outputs": [
        {
          "name": "",
          "type": "bool"
        }
      ],
      "payable": false,
      "stateMutability": "view",
      "type": "function"
    },
    {
      "constant": true,
      "inputs": [],
      "name": "minVestingWei",
      "outputs": [
        {
          "name": "",
          "type": "uint256"
        }
      ],
      "payable": false,
      "stateMutability": "view",
      "type": "function"
    },
    {
      "constant": true,
      "inputs": [],
      "name": "currentTier",
      "outputs": [
        {
          "name": "",
          "type": "uint8"
        }
      ],
      "payable": false,
      "stateMutability": "view",
      "type": "function"
    },
    {
      "constant": true,
      "inputs": [],
      "name": "tokenWeisSold",
      "outputs": [
        {
          "name": "",
          "type": "uint256"
        }
      ],
      "payable": false,
      "stateMutability": "view",
      "type": "function"
    },
    {
      "constant": false,
      "inputs": [
        {
          "name": "_beneficiary",
          "type": "address"
        }
      ],
      "name": "buyTokens",
      "outputs": [
        {
          "name": "",
          "type": "uint256"
        }
      ],
      "payable": true,
      "stateMutability": "payable",
      "type": "function"
    },
    {
      "constant": false,
      "inputs": [
        {
          "name": "newOwner",
          "type": "address"
        }
      ],
      "name": "transferOwnership",
      "outputs": [],
      "payable": false,
      "stateMutability": "nonpayable",
      "type": "function"
    },
    {
      "constant": false,
      "inputs": [
        {
          "name": "_wallet",
          "type": "address"
        },
        {
          "name": "_weiAmount",
          "type": "uint256"
        }
      ],
      "name": "withdraw",
      "outputs": [],
      "payable": false,
      "stateMutability": "nonpayable",
      "type": "function"
    },
    {
      "constant": true,
      "inputs": [],
      "name": "token",
      "outputs": [
        {
          "name": "",
          "type": "address"
        }
      ],
      "payable": false,
      "stateMutability": "view",
      "type": "function"
    },
    {
      "payable": true,
      "stateMutability": "payable",
      "type": "fallback"
    },
    {
      "anonymous": false,
      "inputs": [
        {
          "indexed": true,
          "name": "sender",
          "type": "address"
        },
        {
          "indexed": true,
          "name": "referre",
          "type": "address"
        },
        {
          "indexed": false,
          "name": "amount",
          "type": "uint256"
        }
      ],
      "name": "ReferralTokenPaid",
      "type": "event"
    },
    {
      "anonymous": false,
      "inputs": [
        {
          "indexed": true,
          "name": "purchaser",
          "type": "address"
        },
        {
          "indexed": true,
          "name": "beneficiary",
          "type": "address"
        },
        {
          "indexed": false,
          "name": "value",
          "type": "uint256"
        },
        {
          "indexed": false,
          "name": "amount",
          "type": "uint256"
        }
      ],
      "name": "TokenPurchase",
      "type": "event"
    },
    {
      "anonymous": false,
      "inputs": [
        {
          "indexed": true,
          "name": "previousOwner",
          "type": "address"
        }
      ],
      "name": "OwnershipRenounced",
      "type": "event"
    },
    {
      "anonymous": false,
      "inputs": [
        {
          "indexed": true,
          "name": "previousOwner",
          "type": "address"
        },
        {
          "indexed": true,
          "name": "newOwner",
          "type": "address"
        }
      ],
      "name": "OwnershipTransferred",
      "type": "event"
    },
    {
      "constant": false,
      "inputs": [
        {
          "name": "_referrer",
          "type": "address"
        },
        {
          "name": "_amount",
          "type": "uint256"
        }
      ],
      "name": "PayReferral",
      "outputs": [],
      "payable": false,
      "stateMutability": "nonpayable",
      "type": "function"
    }
  ],
  "bytecode": "0x608060405233600160006101000a81548173ffffffffffffffffffffffffffffffffffffffff021916908373ffffffffffffffffffffffffffffffffffffffff160217905550611cf7806100546000396000f30060806040526004361061016a576000357c0100000000000000000000000000000000000000000000000000000000900463ffffffff16806306c36581146101765780631515bc2b146101a157806318160ddd146101d0578063301df9dd146101fb578063313ce567146102265780634042b66f1461025157806340582f131461027c578063521eb273146102a757806353fe21ad146102fe5780636c02a93114610341578063715018a6146103d1578063792d7ec3146103e85780637b61c320146104435780638da5cb5b146104d35780639303b0b81461052a5780639fb160aa146105555780639fc2e24f14610598578063b64657a7146105c3578063bbe8a466146105ee578063be8eef8e14610619578063ce7f3a2714610648578063d679677a14610673578063e184a515146106ac578063ec8ac4d8146106d7578063ee84038e14610721578063f2fde38b1461076e578063f3fef3a3146107b1578063fc0c546a146107fe575b61017333610855565b50005b34801561018257600080fd5b5061018b610963565b6040518082815260200191505060405180910390f35b3480156101ad57600080fd5b506101b6610a05565b604051808215151515815260200191505060405180910390f35b3480156101dc57600080fd5b506101e5610a36565b6040518082815260200191505060405180910390f35b34801561020757600080fd5b50610210610a3c565b6040518082815260200191505060405180910390f35b34801561023257600080fd5b5061023b610a6a565b6040518082815260200191505060405180910390f35b34801561025d57600080fd5b50610266610a70565b6040518082815260200191505060405180910390f35b34801561028857600080fd5b50610291610a76565b6040518082815260200191505060405180910390f35b3480156102b357600080fd5b506102bc610a80565b604051808273ffffffffffffffffffffffffffffffffffffffff1673ffffffffffffffffffffffffffffffffffffffff16815260200191505060405180910390f35b34801561030a57600080fd5b5061033f600480360381019080803573ffffffffffffffffffffffffffffffffffffffff169060200190929190505050610aa6565b005b34801561034d57600080fd5b50610356610bc7565b6040518080602001828103825283818151815260200191508051906020019080838360005b8381101561039657808201518184015260208101905061037b565b50505050905090810190601f1680156103c35780820380516001836020036101000a031916815260200191505b509250505060405180910390f35b3480156103dd57600080fd5b506103e6610c65565b005b3480156103f457600080fd5b50610429600480360381019080803573ffffffffffffffffffffffffffffffffffffffff169060200190929190505050610d6a565b604051808215151515815260200191505060405180910390f35b34801561044f57600080fd5b50610458610d87565b6040518080602001828103825283818151815260200191508051906020019080838360005b8381101561049857808201518184015260208101905061047d565b50505050905090810190601f1680156104c55780820380516001836020036101000a031916815260200191505b509250505060405180910390f35b3480156104df57600080fd5b506104e8610e25565b604051808273ffffffffffffffffffffffffffffffffffffffff1673ffffffffffffffffffffffffffffffffffffffff16815260200191505060405180910390f35b34801561053657600080fd5b5061053f610e4b565b6040518082815260200191505060405180910390f35b34801561056157600080fd5b50610596600480360381019080803573ffffffffffffffffffffffffffffffffffffffff169060200190929190505050610e51565b005b3480156105a457600080fd5b506105ad610f72565b6040518082815260200191505060405180910390f35b3480156105cf57600080fd5b506105d8610fd5565b6040518082815260200191505060405180910390f35b3480156105fa57600080fd5b50610603610fdb565b6040518082815260200191505060405180910390f35b34801561062557600080fd5b5061062e611009565b604051808215151515815260200191505060405180910390f35b34801561065457600080fd5b5061065d611034565b6040518082815260200191505060405180910390f35b34801561067f57600080fd5b506106886110d6565b6040518082600681111561069857fe5b60ff16815260200191505060405180910390f35b3480156106b857600080fd5b506106c1611111565b6040518082815260200191505060405180910390f35b61070b600480360381019080803573ffffffffffffffffffffffffffffffffffffffff169060200190929190505050610855565b6040518082815260200191505060405180910390f35b34801561072d57600080fd5b5061076c600480360381019080803573ffffffffffffffffffffffffffffffffffffffff16906020019092919080359060200190929190505050611117565b005b34801561077a57600080fd5b506107af600480360381019080803573ffffffffffffffffffffffffffffffffffffffff169060200190929190505050611487565b005b3480156107bd57600080fd5b506107fc600480360381019080803573ffffffffffffffffffffffffffffffffffffffff169060200190929190803590602001909291905050506115df565b005b34801561080a57600080fd5b506108136116e3565b604051808273ffffffffffffffffffffffffffffffffffffffff1673ffffffffffffffffffffffffffffffffffffffff16815260200191505060405180910390f35b6000806000610862611009565b151561086d57600080fd5b610875610a05565b15151561088157600080fd5b600061088b611709565b81548110151561089757fe5b906000526020600020906006020160050160009054906101000a900460ff1615156108c157600080fd5b3491506108cd826117b4565b90506108da8483836117f3565b6108e5848383611977565b6108ef8482611a47565b8373ffffffffffffffffffffffffffffffffffffffff163373ffffffffffffffffffffffffffffffffffffffff167f623b3804fa71d67900d064613da8f94b9617215ee90799290593e1745087ad188484604051808381526020018281526020019250505060405180910390a35050919050565b600061096d611009565b151561097857600080fd5b610980610a05565b15151561098c57600080fd5b6000610996611709565b8154811015156109a257fe5b906000526020600020906006020160050160009054906101000a900460ff1615156109cc57600080fd5b600160068111156109d957fe5b6109e16110d6565b60068111156109ec57fe5b14156109fc57600b549050610a02565b600d5490505b90565b600080600160008054905003815481101515610a1d57fe5b9060005260206000209060060201600201544211905090565b60065481565b600080610a47611709565b815481101515610a5357fe5b906000526020600020906006020160030154905090565b60075481565b600f5481565b6000600f54905090565b600460009054906101000a900473ffffffffffffffffffffffffffffffffffffffff1681565b600160009054906101000a900473ffffffffffffffffffffffffffffffffffffffff1673ffffffffffffffffffffffffffffffffffffffff163373ffffffffffffffffffffffffffffffffffffffff16141515610b0257600080fd5b60006006811115610b0f57fe5b6000610b19611709565b815481101515610b2557fe5b906000526020600020906006020160000160009054906101000a900460ff166006811115610b4f57fe5b1480610ba5575060026006811115610b6357fe5b6000610b6d611709565b815481101515610b7957fe5b906000526020600020906006020160000160009054906101000a900460ff166006811115610ba357fe5b145b1515610bb057600080fd5b610bc4816002611b4c90919063ffffffff16565b50565b60088054600181600116156101000203166002900480601f016020809104026020016040519081016040528092919081815260200182805460018160011615610100020316600290048015610c5d5780601f10610c3257610100808354040283529160200191610c5d565b820191906000526020600020905b815481529060010190602001808311610c4057829003601f168201915b505050505081565b600160009054906101000a900473ffffffffffffffffffffffffffffffffffffffff1673ffffffffffffffffffffffffffffffffffffffff163373ffffffffffffffffffffffffffffffffffffffff16141515610cc157600080fd5b600160009054906101000a900473ffffffffffffffffffffffffffffffffffffffff1673ffffffffffffffffffffffffffffffffffffffff167ff8df31144d9c2f0f6b59d69b8b98abd5459d07f2742c4df920b25aae33c6482060405160405180910390a26000600160006101000a81548173ffffffffffffffffffffffffffffffffffffffff021916908373ffffffffffffffffffffffffffffffffffffffff160217905550565b6000610d80826002611baa90919063ffffffff16565b9050919050565b60098054600181600116156101000203166002900480601f016020809104026020016040519081016040528092919081815260200182805460018160011615610100020316600290048015610e1d5780601f10610df257610100808354040283529160200191610e1d565b820191906000526020600020905b815481529060010190602001808311610e0057829003601f168201915b505050505081565b600160009054906101000a900473ffffffffffffffffffffffffffffffffffffffff1681565b60135481565b600160009054906101000a900473ffffffffffffffffffffffffffffffffffffffff1673ffffffffffffffffffffffffffffffffffffffff163373ffffffffffffffffffffffffffffffffffffffff16141515610ead57600080fd5b60006006811115610eba57fe5b6000610ec4611709565b815481101515610ed057fe5b906000526020600020906006020160000160009054906101000a900460ff166006811115610efa57fe5b1480610f50575060026006811115610f0e57fe5b6000610f18611709565b815481101515610f2457fe5b906000526020600020906006020160000160009054906101000a900460ff166006811115610f4e57fe5b145b1515610f5b57600080fd5b610f6f816002611c0390919063ffffffff16565b50565b60008060008090505b610f83611709565b81111515610fcd57610fbe600082815481101515610f9d57fe5b90600052602060002090600602016003015483611c6190919063ffffffff16565b91508080600101915050610f7b565b819250505090565b60125481565b600080610fe6611709565b815481101515610ff257fe5b906000526020600020906006020160040154905090565b600080600081548110151561101a57fe5b906000526020600020906006020160010154421015905090565b600061103e611009565b151561104957600080fd5b611051610a05565b15151561105d57600080fd5b6000611067611709565b81548110151561107357fe5b906000526020600020906006020160050160009054906101000a900460ff16151561109d57600080fd5b600160068111156110aa57fe5b6110b26110d6565b60068111156110bd57fe5b14156110cd57600a5490506110d3565b600c5490505b90565b6000806110e1611709565b8154811015156110ed57fe5b906000526020600020906006020160000160009054906101000a900460ff16905090565b60115481565b600160009054906101000a900473ffffffffffffffffffffffffffffffffffffffff1673ffffffffffffffffffffffffffffffffffffffff163373ffffffffffffffffffffffffffffffffffffffff1614151561117357600080fd5b61117b611009565b151561118657600080fd5b61118e610a05565b15151561119a57600080fd5b60006111a4611709565b8154811015156111b057fe5b906000526020600020906006020160050160009054906101000a900460ff1615156111da57600080fd5b600073ffffffffffffffffffffffffffffffffffffffff168273ffffffffffffffffffffffffffffffffffffffff161415151561121657600080fd5b6000811415151561122657600080fd5b60125461123e82601354611c6190919063ffffffff16565b1115151561124b57600080fd5b61129d81601460008573ffffffffffffffffffffffffffffffffffffffff1673ffffffffffffffffffffffffffffffffffffffff16815260200190815260200160002054611c6190919063ffffffff16565b601460008473ffffffffffffffffffffffffffffffffffffffff1673ffffffffffffffffffffffffffffffffffffffff168152602001908152602001600020819055506112f581601354611c6190919063ffffffff16565b601381905550600360009054906101000a900473ffffffffffffffffffffffffffffffffffffffff1673ffffffffffffffffffffffffffffffffffffffff1663a9059cbb83836040518363ffffffff167c0100000000000000000000000000000000000000000000000000000000028152600401808373ffffffffffffffffffffffffffffffffffffffff1673ffffffffffffffffffffffffffffffffffffffff16815260200182815260200192505050602060405180830381600087803b1580156113c057600080fd5b505af11580156113d4573d6000803e3d6000fd5b505050506040513d60208110156113ea57600080fd5b8101908080519060200190929190505050508173ffffffffffffffffffffffffffffffffffffffff16600160009054906101000a900473ffffffffffffffffffffffffffffffffffffffff1673ffffffffffffffffffffffffffffffffffffffff167f3dd247ca176cfa1531a4faf4ef926c52f3201b3056f8d738306f4383fa700d04836040518082815260200191505060405180910390a35050565b600160009054906101000a900473ffffffffffffffffffffffffffffffffffffffff1673ffffffffffffffffffffffffffffffffffffffff163373ffffffffffffffffffffffffffffffffffffffff161415156114e357600080fd5b600073ffffffffffffffffffffffffffffffffffffffff168173ffffffffffffffffffffffffffffffffffffffff161415151561151f57600080fd5b8073ffffffffffffffffffffffffffffffffffffffff16600160009054906101000a900473ffffffffffffffffffffffffffffffffffffffff1673ffffffffffffffffffffffffffffffffffffffff167f8be0079c531659141344cd1fd0a4f28419497f9722a3daafe3b4186f6b6457e060405160405180910390a380600160006101000a81548173ffffffffffffffffffffffffffffffffffffffff021916908373ffffffffffffffffffffffffffffffffffffffff16021790555050565b600160009054906101000a900473ffffffffffffffffffffffffffffffffffffffff1673ffffffffffffffffffffffffffffffffffffffff163373ffffffffffffffffffffffffffffffffffffffff1614151561163b57600080fd5b600073ffffffffffffffffffffffffffffffffffffffff168273ffffffffffffffffffffffffffffffffffffffff161415151561167757600080fd5b6000811415151561168757600080fd5b600f54811115151561169857600080fd5b8173ffffffffffffffffffffffffffffffffffffffff166108fc829081150290604051600060405180830381858888f193505050501580156116de573d6000803e3d6000fd5b505050565b600360009054906101000a900473ffffffffffffffffffffffffffffffffffffffff1681565b600080611714611009565b151561171f57600080fd5b611727610a05565b15151561173357600080fd5b600090505b6000805490508110156117af5760008181548110151561175457fe5b9060005260206000209060060201600101544210158015611795575060008181548110151561177f57fe5b9060005260206000209060060201600201544211155b156117a2578091506117b0565b8080600101915050611738565b5b5090565b6000806117bf610fdb565b90506117eb600754600a0a6117dd8386611c7d90919063ffffffff16565b611cb590919063ffffffff16565b915050919050565b600073ffffffffffffffffffffffffffffffffffffffff168373ffffffffffffffffffffffffffffffffffffffff161415151561182f57600080fd5b6000821415151561183f57600080fd5b611847610f72565b61185c82601154611c6190919063ffffffff16565b1115151561186957600080fd5b611871611034565b6118c383601060008773ffffffffffffffffffffffffffffffffffffffff1673ffffffffffffffffffffffffffffffffffffffff16815260200190815260200160002054611c6190919063ffffffff16565b101515156118d057600080fd5b6118d8610963565b61192a83601060008773ffffffffffffffffffffffffffffffffffffffff1673ffffffffffffffffffffffffffffffffffffffff16815260200190815260200160002054611c6190919063ffffffff16565b1115151561193757600080fd5b6001600681111561194457fe5b61194c6110d6565b600681111561195757fe5b14156119725761196683610d6a565b151561197157600080fd5b5b505050565b6119c982601060008673ffffffffffffffffffffffffffffffffffffffff1673ffffffffffffffffffffffffffffffffffffffff16815260200190815260200160002054611c6190919063ffffffff16565b601060008573ffffffffffffffffffffffffffffffffffffffff1673ffffffffffffffffffffffffffffffffffffffff16815260200190815260200160002081905550611a2181601154611c6190919063ffffffff16565b601181905550611a3c82600f54611c6190919063ffffffff16565b600f81905550505050565b600360009054906101000a900473ffffffffffffffffffffffffffffffffffffffff1673ffffffffffffffffffffffffffffffffffffffff1663a9059cbb83836040518363ffffffff167c0100000000000000000000000000000000000000000000000000000000028152600401808373ffffffffffffffffffffffffffffffffffffffff1673ffffffffffffffffffffffffffffffffffffffff16815260200182815260200192505050602060405180830381600087803b158015611b0c57600080fd5b505af1158015611b20573d6000803e3d6000fd5b505050506040513d6020811015611b3657600080fd5b8101908080519060200190929190505050505050565b60018260000160008373ffffffffffffffffffffffffffffffffffffffff1673ffffffffffffffffffffffffffffffffffffffff16815260200190815260200160002060006101000a81548160ff0219169083151502179055505050565b60008260000160008373ffffffffffffffffffffffffffffffffffffffff1673ffffffffffffffffffffffffffffffffffffffff16815260200190815260200160002060009054906101000a900460ff16905092915050565b60008260000160008373ffffffffffffffffffffffffffffffffffffffff1673ffffffffffffffffffffffffffffffffffffffff16815260200190815260200160002060006101000a81548160ff0219169083151502179055505050565b60008183019050828110151515611c7457fe5b80905092915050565b600080831415611c905760009050611caf565b8183029050818382811515611ca157fe5b04141515611cab57fe5b8090505b92915050565b60008183811515611cc257fe5b049050929150505600a165627a7a72305820c47827ce19aad373a4d286cbf9ad2fdd0635af7a6f606bec2b42371b2767a0460029",
  "source": "pragma solidity ^0.4.23;\r\n\r\nimport \"./BasicCrowdsale.sol\";\r\n\r\ncontract ReferralCrowdsale is BasicCrowdsale {\r\n\r\n    uint256 public MaxReferralTokens;\r\n\r\n    uint256 public referralTokens;\r\n    \r\n    mapping(address => uint256) referrals;\r\n\r\n    event ReferralTokenPaid(address indexed sender, address indexed referre, uint256 amount);\r\n\r\n    function PayReferral(address _referrer, uint256 _amount) \r\n    public \r\n    onlyOwner \r\n    onlyWhileIsOpened\r\n    onlyWhileNotClosed\r\n    purchaseAllowed\r\n    {\r\n        require(_referrer != address(0));\r\n        require(_amount != 0);\r\n        require(referralTokens.add(_amount) <= MaxReferralTokens);\r\n        referrals[_referrer] = referrals[_referrer].add(_amount);\r\n        referralTokens = referralTokens.add(_amount);\r\n        token.transfer(_referrer, _amount);\r\n        emit ReferralTokenPaid(owner, _referrer, _amount);\r\n    }\r\n\r\n}",
  "sourcePath": "G:\\Root\\Blockchain\\BAX\\contracts\\crowdSale\\ReferralCorwdsale.sol",
  "compiler": {
    "name": "solc",
    "version": "0.4.23+commit.124ca40d.Emscripten.clang"
  },
  "schemaVersion": "2.0.0",
  "updatedAt": "2018-06-07T05:53:54.978Z"
}