{
  "contractName": "RefundableCrowdsale",
  "abi": [
    {
      "constant": true,
      "inputs": [],
      "name": "maxVestingWei",
      "outputs": [
        {
          "name": "",
          "type": "uint256"
        }
      ],
      "payable": false,
      "stateMutability": "view",
      "type": "function"
    },
    {
      "constant": true,
      "inputs": [],
      "name": "hasClosed",
      "outputs": [
        {
          "name": "",
          "type": "bool"
        }
      ],
      "payable": false,
      "stateMutability": "view",
      "type": "function"
    },
    {
      "constant": true,
      "inputs": [],
      "name": "totalSupply",
      "outputs": [
        {
          "name": "",
          "type": "uint256"
        }
      ],
      "payable": false,
      "stateMutability": "view",
      "type": "function"
    },
    {
      "constant": true,
      "inputs": [],
      "name": "currentTierHardcap",
      "outputs": [
        {
          "name": "",
          "type": "uint256"
        }
      ],
      "payable": false,
      "stateMutability": "view",
      "type": "function"
    },
    {
      "constant": true,
      "inputs": [],
      "name": "decimals",
      "outputs": [
        {
          "name": "",
          "type": "uint256"
        }
      ],
      "payable": false,
      "stateMutability": "view",
      "type": "function"
    },
    {
      "constant": true,
      "inputs": [],
      "name": "weiRaised",
      "outputs": [
        {
          "name": "",
          "type": "uint256"
        }
      ],
      "payable": false,
      "stateMutability": "view",
      "type": "function"
    },
    {
      "constant": true,
      "inputs": [],
      "name": "getWeiRaised",
      "outputs": [
        {
          "name": "",
          "type": "uint256"
        }
      ],
      "payable": false,
      "stateMutability": "view",
      "type": "function"
    },
    {
      "constant": true,
      "inputs": [],
      "name": "wallet",
      "outputs": [
        {
          "name": "",
          "type": "address"
        }
      ],
      "payable": false,
      "stateMutability": "view",
      "type": "function"
    },
    {
      "constant": false,
      "inputs": [
        {
          "name": "_vc",
          "type": "address"
        }
      ],
      "name": "addToVC",
      "outputs": [],
      "payable": false,
      "stateMutability": "nonpayable",
      "type": "function"
    },
    {
      "constant": true,
      "inputs": [],
      "name": "tokenName",
      "outputs": [
        {
          "name": "",
          "type": "string"
        }
      ],
      "payable": false,
      "stateMutability": "view",
      "type": "function"
    },
    {
      "constant": false,
      "inputs": [
        {
          "name": "toBeClosed",
          "type": "bool"
        }
      ],
      "name": "finalize",
      "outputs": [],
      "payable": false,
      "stateMutability": "nonpayable",
      "type": "function"
    },
    {
      "constant": false,
      "inputs": [],
      "name": "renounceOwnership",
      "outputs": [],
      "payable": false,
      "stateMutability": "nonpayable",
      "type": "function"
    },
    {
      "constant": true,
      "inputs": [
        {
          "name": "_vc",
          "type": "address"
        }
      ],
      "name": "whtielistedAsVC",
      "outputs": [
        {
          "name": "",
          "type": "bool"
        }
      ],
      "payable": false,
      "stateMutability": "view",
      "type": "function"
    },
    {
      "constant": true,
      "inputs": [],
      "name": "tokenSymbol",
      "outputs": [
        {
          "name": "",
          "type": "string"
        }
      ],
      "payable": false,
      "stateMutability": "view",
      "type": "function"
    },
    {
      "constant": true,
      "inputs": [],
      "name": "goalReached",
      "outputs": [
        {
          "name": "",
          "type": "bool"
        }
      ],
      "payable": false,
      "stateMutability": "view",
      "type": "function"
    },
    {
      "constant": true,
      "inputs": [],
      "name": "owner",
      "outputs": [
        {
          "name": "",
          "type": "address"
        }
      ],
      "payable": false,
      "stateMutability": "view",
      "type": "function"
    },
    {
      "constant": false,
      "inputs": [
        {
          "name": "_vc",
          "type": "address"
        }
      ],
      "name": "removeFromVC",
      "outputs": [],
      "payable": false,
      "stateMutability": "nonpayable",
      "type": "function"
    },
    {
      "constant": true,
      "inputs": [],
      "name": "currentSaleTokenWeiHardcap",
      "outputs": [
        {
          "name": "",
          "type": "uint256"
        }
      ],
      "payable": false,
      "stateMutability": "view",
      "type": "function"
    },
    {
      "constant": true,
      "inputs": [],
      "name": "currentTierTokenWeisPerEth",
      "outputs": [
        {
          "name": "",
          "type": "uint256"
        }
      ],
      "payable": false,
      "stateMutability": "view",
      "type": "function"
    },
    {
      "constant": true,
      "inputs": [],
      "name": "hasOpened",
      "outputs": [
        {
          "name": "",
          "type": "bool"
        }
      ],
      "payable": false,
      "stateMutability": "view",
      "type": "function"
    },
    {
      "constant": true,
      "inputs": [],
      "name": "minVestingWei",
      "outputs": [
        {
          "name": "",
          "type": "uint256"
        }
      ],
      "payable": false,
      "stateMutability": "view",
      "type": "function"
    },
    {
      "constant": true,
      "inputs": [],
      "name": "currentTier",
      "outputs": [
        {
          "name": "",
          "type": "uint8"
        }
      ],
      "payable": false,
      "stateMutability": "view",
      "type": "function"
    },
    {
      "constant": true,
      "inputs": [],
      "name": "tokenWeisSold",
      "outputs": [
        {
          "name": "",
          "type": "uint256"
        }
      ],
      "payable": false,
      "stateMutability": "view",
      "type": "function"
    },
    {
      "constant": false,
      "inputs": [
        {
          "name": "_beneficiary",
          "type": "address"
        }
      ],
      "name": "buyTokens",
      "outputs": [
        {
          "name": "",
          "type": "uint256"
        }
      ],
      "payable": true,
      "stateMutability": "payable",
      "type": "function"
    },
    {
      "constant": false,
      "inputs": [
        {
          "name": "newOwner",
          "type": "address"
        }
      ],
      "name": "transferOwnership",
      "outputs": [],
      "payable": false,
      "stateMutability": "nonpayable",
      "type": "function"
    },
    {
      "constant": false,
      "inputs": [
        {
          "name": "_wallet",
          "type": "address"
        },
        {
          "name": "_weiAmount",
          "type": "uint256"
        }
      ],
      "name": "withdraw",
      "outputs": [],
      "payable": false,
      "stateMutability": "nonpayable",
      "type": "function"
    },
    {
      "constant": true,
      "inputs": [],
      "name": "token",
      "outputs": [
        {
          "name": "",
          "type": "address"
        }
      ],
      "payable": false,
      "stateMutability": "view",
      "type": "function"
    },
    {
      "anonymous": false,
      "inputs": [
        {
          "indexed": false,
          "name": "_investor",
          "type": "address"
        },
        {
          "indexed": false,
          "name": "_depositedValue",
          "type": "uint256"
        }
      ],
      "name": "Refunded",
      "type": "event"
    },
    {
      "anonymous": false,
      "inputs": [],
      "name": "Finalized",
      "type": "event"
    },
    {
      "anonymous": false,
      "inputs": [],
      "name": "Closed",
      "type": "event"
    },
    {
      "anonymous": false,
      "inputs": [
        {
          "indexed": true,
          "name": "purchaser",
          "type": "address"
        },
        {
          "indexed": true,
          "name": "beneficiary",
          "type": "address"
        },
        {
          "indexed": false,
          "name": "value",
          "type": "uint256"
        },
        {
          "indexed": false,
          "name": "amount",
          "type": "uint256"
        }
      ],
      "name": "TokenPurchase",
      "type": "event"
    },
    {
      "anonymous": false,
      "inputs": [
        {
          "indexed": true,
          "name": "previousOwner",
          "type": "address"
        }
      ],
      "name": "OwnershipRenounced",
      "type": "event"
    },
    {
      "anonymous": false,
      "inputs": [
        {
          "indexed": true,
          "name": "previousOwner",
          "type": "address"
        },
        {
          "indexed": true,
          "name": "newOwner",
          "type": "address"
        }
      ],
      "name": "OwnershipTransferred",
      "type": "event"
    },
    {
      "constant": false,
      "inputs": [
        {
          "name": "_investor",
          "type": "address"
        }
      ],
      "name": "refund",
      "outputs": [],
      "payable": false,
      "stateMutability": "nonpayable",
      "type": "function"
    }
  ],
  "bytecode": "0x608060405233600160006101000a81548173ffffffffffffffffffffffffffffffffffffffff021916908373ffffffffffffffffffffffffffffffffffffffff160217905550611d73806100546000396000f30060806040526004361061016a576000357c0100000000000000000000000000000000000000000000000000000000900463ffffffff16806306c365811461016f5780631515bc2b1461019a57806318160ddd146101c9578063301df9dd146101f4578063313ce5671461021f5780634042b66f1461024a57806340582f1314610275578063521eb273146102a057806353fe21ad146102f75780636c02a9311461033a5780636c9789b0146103ca578063715018a6146103f9578063792d7ec3146104105780637b61c3201461046b5780637d3d6522146104fb5780638da5cb5b1461052a5780639fb160aa146105815780639fc2e24f146105c4578063bbe8a466146105ef578063be8eef8e1461061a578063ce7f3a2714610649578063d679677a14610674578063e184a515146106ad578063ec8ac4d8146106d8578063f2fde38b14610722578063f3fef3a314610765578063fa89401a146107b2578063fc0c546a146107f5575b600080fd5b34801561017b57600080fd5b5061018461084c565b6040518082815260200191505060405180910390f35b3480156101a657600080fd5b506101af6108ee565b604051808215151515815260200191505060405180910390f35b3480156101d557600080fd5b506101de61091f565b6040518082815260200191505060405180910390f35b34801561020057600080fd5b50610209610925565b6040518082815260200191505060405180910390f35b34801561022b57600080fd5b50610234610953565b6040518082815260200191505060405180910390f35b34801561025657600080fd5b5061025f610959565b6040518082815260200191505060405180910390f35b34801561028157600080fd5b5061028a61095f565b6040518082815260200191505060405180910390f35b3480156102ac57600080fd5b506102b5610969565b604051808273ffffffffffffffffffffffffffffffffffffffff1673ffffffffffffffffffffffffffffffffffffffff16815260200191505060405180910390f35b34801561030357600080fd5b50610338600480360381019080803573ffffffffffffffffffffffffffffffffffffffff16906020019092919050505061098f565b005b34801561034657600080fd5b5061034f610ab0565b6040518080602001828103825283818151815260200191508051906020019080838360005b8381101561038f578082015181840152602081019050610374565b50505050905090810190601f1680156103bc5780820380516001836020036101000a031916815260200191505b509250505060405180910390f35b3480156103d657600080fd5b506103f7600480360381019080803515159060200190929190505050610b4e565b005b34801561040557600080fd5b5061040e610c2c565b005b34801561041c57600080fd5b50610451600480360381019080803573ffffffffffffffffffffffffffffffffffffffff169060200190929190505050610d31565b604051808215151515815260200191505060405180910390f35b34801561047757600080fd5b50610480610d4e565b6040518080602001828103825283818151815260200191508051906020019080838360005b838110156104c05780820151818401526020810190506104a5565b50505050905090810190601f1680156104ed5780820380516001836020036101000a031916815260200191505b509250505060405180910390f35b34801561050757600080fd5b50610510610dec565b604051808215151515815260200191505060405180910390f35b34801561053657600080fd5b5061053f610dfb565b604051808273ffffffffffffffffffffffffffffffffffffffff1673ffffffffffffffffffffffffffffffffffffffff16815260200191505060405180910390f35b34801561058d57600080fd5b506105c2600480360381019080803573ffffffffffffffffffffffffffffffffffffffff169060200190929190505050610e21565b005b3480156105d057600080fd5b506105d9610f42565b6040518082815260200191505060405180910390f35b3480156105fb57600080fd5b50610604610fa5565b6040518082815260200191505060405180910390f35b34801561062657600080fd5b5061062f610fd3565b604051808215151515815260200191505060405180910390f35b34801561065557600080fd5b5061065e610ffe565b6040518082815260200191505060405180910390f35b34801561068057600080fd5b506106896110a0565b6040518082600681111561069957fe5b60ff16815260200191505060405180910390f35b3480156106b957600080fd5b506106c26110db565b6040518082815260200191505060405180910390f35b61070c600480360381019080803573ffffffffffffffffffffffffffffffffffffffff1690602001909291905050506110e1565b6040518082815260200191505060405180910390f35b34801561072e57600080fd5b50610763600480360381019080803573ffffffffffffffffffffffffffffffffffffffff1690602001909291905050506111ef565b005b34801561077157600080fd5b506107b0600480360381019080803573ffffffffffffffffffffffffffffffffffffffff16906020019092919080359060200190929190505050611347565b005b3480156107be57600080fd5b506107f3600480360381019080803573ffffffffffffffffffffffffffffffffffffffff16906020019092919050505061144b565b005b34801561080157600080fd5b5061080a611628565b604051808273ffffffffffffffffffffffffffffffffffffffff1673ffffffffffffffffffffffffffffffffffffffff16815260200191505060405180910390f35b6000610856610fd3565b151561086157600080fd5b6108696108ee565b15151561087557600080fd5b600061087f61164e565b81548110151561088b57fe5b906000526020600020906006020160050160009054906101000a900460ff1615156108b557600080fd5b600160068111156108c257fe5b6108ca6110a0565b60068111156108d557fe5b14156108e557600b5490506108eb565b600d5490505b90565b60008060016000805490500381548110151561090657fe5b9060005260206000209060060201600201544211905090565b60065481565b60008061093061164e565b81548110151561093c57fe5b906000526020600020906006020160030154905090565b60075481565b600f5481565b6000600f54905090565b600460009054906101000a900473ffffffffffffffffffffffffffffffffffffffff1681565b600160009054906101000a900473ffffffffffffffffffffffffffffffffffffffff1673ffffffffffffffffffffffffffffffffffffffff163373ffffffffffffffffffffffffffffffffffffffff161415156109eb57600080fd5b600060068111156109f857fe5b6000610a0261164e565b815481101515610a0e57fe5b906000526020600020906006020160000160009054906101000a900460ff166006811115610a3857fe5b1480610a8e575060026006811115610a4c57fe5b6000610a5661164e565b815481101515610a6257fe5b906000526020600020906006020160000160009054906101000a900460ff166006811115610a8c57fe5b145b1515610a9957600080fd5b610aad8160026116f990919063ffffffff16565b50565b60088054600181600116156101000203166002900480601f016020809104026020016040519081016040528092919081815260200182805460018160011615610100020316600290048015610b465780601f10610b1b57610100808354040283529160200191610b46565b820191906000526020600020905b815481529060010190602001808311610b2957829003601f168201915b505050505081565b600160009054906101000a900473ffffffffffffffffffffffffffffffffffffffff1673ffffffffffffffffffffffffffffffffffffffff163373ffffffffffffffffffffffffffffffffffffffff16141515610baa57600080fd5b601260019054906101000a900460ff16151515610bc657600080fd5b610bce6108ee565b1515610bd957600080fd5b610be281611757565b6001601260016101000a81548160ff0219169083151502179055507f6823b073d48d6e3a7d385eeb601452d680e74bb46afe3255a7d778f3a9b1768160405160405180910390a150565b600160009054906101000a900473ffffffffffffffffffffffffffffffffffffffff1673ffffffffffffffffffffffffffffffffffffffff163373ffffffffffffffffffffffffffffffffffffffff16141515610c8857600080fd5b600160009054906101000a900473ffffffffffffffffffffffffffffffffffffffff1673ffffffffffffffffffffffffffffffffffffffff167ff8df31144d9c2f0f6b59d69b8b98abd5459d07f2742c4df920b25aae33c6482060405160405180910390a26000600160006101000a81548173ffffffffffffffffffffffffffffffffffffffff021916908373ffffffffffffffffffffffffffffffffffffffff160217905550565b6000610d4782600261188e90919063ffffffff16565b9050919050565b60098054600181600116156101000203166002900480601f016020809104026020016040519081016040528092919081815260200182805460018160011615610100020316600290048015610de45780601f10610db957610100808354040283529160200191610de4565b820191906000526020600020905b815481529060010190602001808311610dc757829003601f168201915b505050505081565b6000600554600f541015905090565b600160009054906101000a900473ffffffffffffffffffffffffffffffffffffffff1681565b600160009054906101000a900473ffffffffffffffffffffffffffffffffffffffff1673ffffffffffffffffffffffffffffffffffffffff163373ffffffffffffffffffffffffffffffffffffffff16141515610e7d57600080fd5b60006006811115610e8a57fe5b6000610e9461164e565b815481101515610ea057fe5b906000526020600020906006020160000160009054906101000a900460ff166006811115610eca57fe5b1480610f20575060026006811115610ede57fe5b6000610ee861164e565b815481101515610ef457fe5b906000526020600020906006020160000160009054906101000a900460ff166006811115610f1e57fe5b145b1515610f2b57600080fd5b610f3f8160026118e790919063ffffffff16565b50565b60008060008090505b610f5361164e565b81111515610f9d57610f8e600082815481101515610f6d57fe5b9060005260206000209060060201600301548361194590919063ffffffff16565b91508080600101915050610f4b565b819250505090565b600080610fb061164e565b815481101515610fbc57fe5b906000526020600020906006020160040154905090565b6000806000815481101515610fe457fe5b906000526020600020906006020160010154421015905090565b6000611008610fd3565b151561101357600080fd5b61101b6108ee565b15151561102757600080fd5b600061103161164e565b81548110151561103d57fe5b906000526020600020906006020160050160009054906101000a900460ff16151561106757600080fd5b6001600681111561107457fe5b61107c6110a0565b600681111561108757fe5b141561109757600a54905061109d565b600c5490505b90565b6000806110ab61164e565b8154811015156110b757fe5b906000526020600020906006020160000160009054906101000a900460ff16905090565b60115481565b60008060006110ee610fd3565b15156110f957600080fd5b6111016108ee565b15151561110d57600080fd5b600061111761164e565b81548110151561112357fe5b906000526020600020906006020160050160009054906101000a900460ff16151561114d57600080fd5b34915061115982611961565b90506111668483836119a0565b611171848383611b24565b61117b8482611bf4565b8373ffffffffffffffffffffffffffffffffffffffff163373ffffffffffffffffffffffffffffffffffffffff167f623b3804fa71d67900d064613da8f94b9617215ee90799290593e1745087ad188484604051808381526020018281526020019250505060405180910390a35050919050565b600160009054906101000a900473ffffffffffffffffffffffffffffffffffffffff1673ffffffffffffffffffffffffffffffffffffffff163373ffffffffffffffffffffffffffffffffffffffff1614151561124b57600080fd5b600073ffffffffffffffffffffffffffffffffffffffff168173ffffffffffffffffffffffffffffffffffffffff161415151561128757600080fd5b8073ffffffffffffffffffffffffffffffffffffffff16600160009054906101000a900473ffffffffffffffffffffffffffffffffffffffff1673ffffffffffffffffffffffffffffffffffffffff167f8be0079c531659141344cd1fd0a4f28419497f9722a3daafe3b4186f6b6457e060405160405180910390a380600160006101000a81548173ffffffffffffffffffffffffffffffffffffffff021916908373ffffffffffffffffffffffffffffffffffffffff16021790555050565b600160009054906101000a900473ffffffffffffffffffffffffffffffffffffffff1673ffffffffffffffffffffffffffffffffffffffff163373ffffffffffffffffffffffffffffffffffffffff161415156113a357600080fd5b600073ffffffffffffffffffffffffffffffffffffffff168273ffffffffffffffffffffffffffffffffffffffff16141515156113df57600080fd5b600081141515156113ef57600080fd5b600f54811115151561140057600080fd5b8173ffffffffffffffffffffffffffffffffffffffff166108fc829081150290604051600060405180830381858888f19350505050158015611446573d6000803e3d6000fd5b505050565b6000601260019054906101000a900460ff16151561146857600080fd5b6001600281111561147557fe5b601260009054906101000a900460ff16600281111561149057fe5b14151561149c57600080fd5b6000601060008473ffffffffffffffffffffffffffffffffffffffff1673ffffffffffffffffffffffffffffffffffffffff16815260200190815260200160002054141515156114eb57600080fd5b601060008373ffffffffffffffffffffffffffffffffffffffff1673ffffffffffffffffffffffffffffffffffffffff1681526020019081526020016000205490506000601060008473ffffffffffffffffffffffffffffffffffffffff1673ffffffffffffffffffffffffffffffffffffffff168152602001908152602001600020819055508173ffffffffffffffffffffffffffffffffffffffff166108fc829081150290604051600060405180830381858888f193505050501580156115b8573d6000803e3d6000fd5b507fd7dee2702d63ad89917b6a4da9981c90c4d24f8c2bdfd64c604ecae57d8d06518282604051808373ffffffffffffffffffffffffffffffffffffffff1673ffffffffffffffffffffffffffffffffffffffff1681526020018281526020019250505060405180910390a15050565b600360009054906101000a900473ffffffffffffffffffffffffffffffffffffffff1681565b600080611659610fd3565b151561166457600080fd5b61166c6108ee565b15151561167857600080fd5b600090505b6000805490508110156116f45760008181548110151561169957fe5b90600052602060002090600602016001015442101580156116da57506000818154811015156116c457fe5b9060005260206000209060060201600201544211155b156116e7578091506116f5565b808060010191505061167d565b5b5090565b60018260000160008373ffffffffffffffffffffffffffffffffffffffff1673ffffffffffffffffffffffffffffffffffffffff16815260200190815260200160002060006101000a81548160ff0219169083151502179055505050565b6000600281111561176457fe5b601260009054906101000a900460ff16600281111561177f57fe5b14151561178b57600080fd5b8015611866576002601260006101000a81548160ff021916908360028111156117b057fe5b0217905550600460009054906101000a900473ffffffffffffffffffffffffffffffffffffffff1673ffffffffffffffffffffffffffffffffffffffff166108fc3073ffffffffffffffffffffffffffffffffffffffff16319081150290604051600060405180830381858888f19350505050158015611834573d6000803e3d6000fd5b507f1cdde67b72a90f19919ac732a437ac2f7a10fc128d28c2a6e525d89ce5cd9d3a60405160405180910390a161188b565b6001601260006101000a81548160ff0219169083600281111561188557fe5b02179055505b50565b60008260000160008373ffffffffffffffffffffffffffffffffffffffff1673ffffffffffffffffffffffffffffffffffffffff16815260200190815260200160002060009054906101000a900460ff16905092915050565b60008260000160008373ffffffffffffffffffffffffffffffffffffffff1673ffffffffffffffffffffffffffffffffffffffff16815260200190815260200160002060006101000a81548160ff0219169083151502179055505050565b6000818301905082811015151561195857fe5b80905092915050565b60008061196c610fa5565b9050611998600754600a0a61198a8386611cf990919063ffffffff16565b611d3190919063ffffffff16565b915050919050565b600073ffffffffffffffffffffffffffffffffffffffff168373ffffffffffffffffffffffffffffffffffffffff16141515156119dc57600080fd5b600082141515156119ec57600080fd5b6119f4610f42565b611a098260115461194590919063ffffffff16565b11151515611a1657600080fd5b611a1e610ffe565b611a7083601060008773ffffffffffffffffffffffffffffffffffffffff1673ffffffffffffffffffffffffffffffffffffffff1681526020019081526020016000205461194590919063ffffffff16565b10151515611a7d57600080fd5b611a8561084c565b611ad783601060008773ffffffffffffffffffffffffffffffffffffffff1673ffffffffffffffffffffffffffffffffffffffff1681526020019081526020016000205461194590919063ffffffff16565b11151515611ae457600080fd5b60016006811115611af157fe5b611af96110a0565b6006811115611b0457fe5b1415611b1f57611b1383610d31565b1515611b1e57600080fd5b5b505050565b611b7682601060008673ffffffffffffffffffffffffffffffffffffffff1673ffffffffffffffffffffffffffffffffffffffff1681526020019081526020016000205461194590919063ffffffff16565b601060008573ffffffffffffffffffffffffffffffffffffffff1673ffffffffffffffffffffffffffffffffffffffff16815260200190815260200160002081905550611bce8160115461194590919063ffffffff16565b601181905550611be982600f5461194590919063ffffffff16565b600f81905550505050565b600360009054906101000a900473ffffffffffffffffffffffffffffffffffffffff1673ffffffffffffffffffffffffffffffffffffffff1663a9059cbb83836040518363ffffffff167c0100000000000000000000000000000000000000000000000000000000028152600401808373ffffffffffffffffffffffffffffffffffffffff1673ffffffffffffffffffffffffffffffffffffffff16815260200182815260200192505050602060405180830381600087803b158015611cb957600080fd5b505af1158015611ccd573d6000803e3d6000fd5b505050506040513d6020811015611ce357600080fd5b8101908080519060200190929190505050505050565b600080831415611d0c5760009050611d2b565b8183029050818382811515611d1d57fe5b04141515611d2757fe5b8090505b92915050565b60008183811515611d3e57fe5b049050929150505600a165627a7a723058208e53427bc3cce5def92b7538d4d6eefab406832534430ec8abd93be6e9702a430029",
  "source": "pragma solidity ^0.4.23;\r\n\r\nimport \"./FinalizableCrowdsale.sol\";\r\n\r\n/**\r\n * @title RefundableCrowdsale\r\n * @dev RefundableCrowdsale inherits FinalizableCrowdsale and intended to manage Refunding process.\r\n */\r\ncontract RefundableCrowdsale is FinalizableCrowdsale {\r\n    \r\n    event Refunded(address _investor, uint256 _depositedValue);\r\n    \r\n    /**\r\n     * @dev Refunds the investing ETHERs back to participants.\r\n     * @param _investor Address of investor supposed to be refunded.\r\n     * @dev note Refunding process would be occured if the desired softcap is not reached and \r\n     * the owner finalizes the crowdsale after its ending.\r\n     */\r\n    function refund(address _investor) public {\r\n        require(isFinalized);\r\n        require(state == State.Refunding);\r\n        require(depositedWei[_investor] != 0);\r\n        uint256 refundValue = depositedWei[_investor];\r\n        depositedWei[_investor] = 0;\r\n        _investor.transfer(refundValue);\r\n        emit Refunded(_investor, refundValue);\r\n    }\r\n}",
  "sourcePath": "G:\\Root\\Blockchain\\WOX\\contracts\\crowdSale\\RefundableCrowdsale.sol",
  "compiler": {
    "name": "solc",
    "version": "0.4.23+commit.124ca40d.Emscripten.clang"
  },
  "schemaVersion": "2.0.0",
  "updatedAt": "2018-06-27T06:56:02.085Z"
}