{
  "contractName": "RefundableCrowdsale",
  "abi": [
    {
      "constant": true,
      "inputs": [],
      "name": "maxVestingWei",
      "outputs": [
        {
          "name": "",
          "type": "uint256"
        }
      ],
      "payable": false,
      "stateMutability": "view",
      "type": "function"
    },
    {
      "constant": true,
      "inputs": [],
      "name": "hasClosed",
      "outputs": [
        {
          "name": "",
          "type": "bool"
        }
      ],
      "payable": false,
      "stateMutability": "view",
      "type": "function"
    },
    {
      "constant": true,
      "inputs": [],
      "name": "totalSupply",
      "outputs": [
        {
          "name": "",
          "type": "uint256"
        }
      ],
      "payable": false,
      "stateMutability": "view",
      "type": "function"
    },
    {
      "constant": true,
      "inputs": [],
      "name": "currentTierHardcap",
      "outputs": [
        {
          "name": "",
          "type": "uint256"
        }
      ],
      "payable": false,
      "stateMutability": "view",
      "type": "function"
    },
    {
      "constant": true,
      "inputs": [],
      "name": "decimals",
      "outputs": [
        {
          "name": "",
          "type": "uint256"
        }
      ],
      "payable": false,
      "stateMutability": "view",
      "type": "function"
    },
    {
      "constant": true,
      "inputs": [],
      "name": "weiRaised",
      "outputs": [
        {
          "name": "",
          "type": "uint256"
        }
      ],
      "payable": false,
      "stateMutability": "view",
      "type": "function"
    },
    {
      "constant": true,
      "inputs": [],
      "name": "getWeiRaised",
      "outputs": [
        {
          "name": "",
          "type": "uint256"
        }
      ],
      "payable": false,
      "stateMutability": "view",
      "type": "function"
    },
    {
      "constant": false,
      "inputs": [],
      "name": "finalize",
      "outputs": [],
      "payable": false,
      "stateMutability": "nonpayable",
      "type": "function"
    },
    {
      "constant": true,
      "inputs": [],
      "name": "wallet",
      "outputs": [
        {
          "name": "",
          "type": "address"
        }
      ],
      "payable": false,
      "stateMutability": "view",
      "type": "function"
    },
    {
      "constant": false,
      "inputs": [
        {
          "name": "_vc",
          "type": "address"
        }
      ],
      "name": "addToVC",
      "outputs": [],
      "payable": false,
      "stateMutability": "nonpayable",
      "type": "function"
    },
    {
      "constant": true,
      "inputs": [],
      "name": "tokenName",
      "outputs": [
        {
          "name": "",
          "type": "string"
        }
      ],
      "payable": false,
      "stateMutability": "view",
      "type": "function"
    },
    {
      "constant": false,
      "inputs": [],
      "name": "renounceOwnership",
      "outputs": [],
      "payable": false,
      "stateMutability": "nonpayable",
      "type": "function"
    },
    {
      "constant": true,
      "inputs": [
        {
          "name": "_vc",
          "type": "address"
        }
      ],
      "name": "whtielistedAsVC",
      "outputs": [
        {
          "name": "",
          "type": "bool"
        }
      ],
      "payable": false,
      "stateMutability": "view",
      "type": "function"
    },
    {
      "constant": true,
      "inputs": [],
      "name": "tokenSymbol",
      "outputs": [
        {
          "name": "",
          "type": "string"
        }
      ],
      "payable": false,
      "stateMutability": "view",
      "type": "function"
    },
    {
      "constant": true,
      "inputs": [],
      "name": "goalReached",
      "outputs": [
        {
          "name": "",
          "type": "bool"
        }
      ],
      "payable": false,
      "stateMutability": "view",
      "type": "function"
    },
    {
      "constant": true,
      "inputs": [],
      "name": "owner",
      "outputs": [
        {
          "name": "",
          "type": "address"
        }
      ],
      "payable": false,
      "stateMutability": "view",
      "type": "function"
    },
    {
      "constant": false,
      "inputs": [
        {
          "name": "_vc",
          "type": "address"
        }
      ],
      "name": "removeFromVC",
      "outputs": [],
      "payable": false,
      "stateMutability": "nonpayable",
      "type": "function"
    },
    {
      "constant": true,
      "inputs": [],
      "name": "currentSaleTokenWeiHardcap",
      "outputs": [
        {
          "name": "",
          "type": "uint256"
        }
      ],
      "payable": false,
      "stateMutability": "view",
      "type": "function"
    },
    {
      "constant": true,
      "inputs": [],
      "name": "currentTierTokenWeisPerEth",
      "outputs": [
        {
          "name": "",
          "type": "uint256"
        }
      ],
      "payable": false,
      "stateMutability": "view",
      "type": "function"
    },
    {
      "constant": true,
      "inputs": [],
      "name": "hasOpened",
      "outputs": [
        {
          "name": "",
          "type": "bool"
        }
      ],
      "payable": false,
      "stateMutability": "view",
      "type": "function"
    },
    {
      "constant": true,
      "inputs": [],
      "name": "minVestingWei",
      "outputs": [
        {
          "name": "",
          "type": "uint256"
        }
      ],
      "payable": false,
      "stateMutability": "view",
      "type": "function"
    },
    {
      "constant": true,
      "inputs": [],
      "name": "currentTier",
      "outputs": [
        {
          "name": "",
          "type": "uint8"
        }
      ],
      "payable": false,
      "stateMutability": "view",
      "type": "function"
    },
    {
      "constant": true,
      "inputs": [],
      "name": "tokenWeisSold",
      "outputs": [
        {
          "name": "",
          "type": "uint256"
        }
      ],
      "payable": false,
      "stateMutability": "view",
      "type": "function"
    },
    {
      "constant": false,
      "inputs": [
        {
          "name": "_beneficiary",
          "type": "address"
        }
      ],
      "name": "buyTokens",
      "outputs": [
        {
          "name": "",
          "type": "uint256"
        }
      ],
      "payable": true,
      "stateMutability": "payable",
      "type": "function"
    },
    {
      "constant": false,
      "inputs": [
        {
          "name": "newOwner",
          "type": "address"
        }
      ],
      "name": "transferOwnership",
      "outputs": [],
      "payable": false,
      "stateMutability": "nonpayable",
      "type": "function"
    },
    {
      "constant": false,
      "inputs": [
        {
          "name": "_wallet",
          "type": "address"
        },
        {
          "name": "_weiAmount",
          "type": "uint256"
        }
      ],
      "name": "withdraw",
      "outputs": [],
      "payable": false,
      "stateMutability": "nonpayable",
      "type": "function"
    },
    {
      "constant": true,
      "inputs": [],
      "name": "token",
      "outputs": [
        {
          "name": "",
          "type": "address"
        }
      ],
      "payable": false,
      "stateMutability": "view",
      "type": "function"
    },
    {
      "payable": true,
      "stateMutability": "payable",
      "type": "fallback"
    },
    {
      "anonymous": false,
      "inputs": [
        {
          "indexed": false,
          "name": "_investor",
          "type": "address"
        },
        {
          "indexed": false,
          "name": "_depositedValue",
          "type": "uint256"
        }
      ],
      "name": "Refunded",
      "type": "event"
    },
    {
      "anonymous": false,
      "inputs": [],
      "name": "Finalized",
      "type": "event"
    },
    {
      "anonymous": false,
      "inputs": [],
      "name": "Closed",
      "type": "event"
    },
    {
      "anonymous": false,
      "inputs": [
        {
          "indexed": true,
          "name": "purchaser",
          "type": "address"
        },
        {
          "indexed": true,
          "name": "beneficiary",
          "type": "address"
        },
        {
          "indexed": false,
          "name": "value",
          "type": "uint256"
        },
        {
          "indexed": false,
          "name": "amount",
          "type": "uint256"
        }
      ],
      "name": "TokenPurchase",
      "type": "event"
    },
    {
      "anonymous": false,
      "inputs": [
        {
          "indexed": true,
          "name": "previousOwner",
          "type": "address"
        }
      ],
      "name": "OwnershipRenounced",
      "type": "event"
    },
    {
      "anonymous": false,
      "inputs": [
        {
          "indexed": true,
          "name": "previousOwner",
          "type": "address"
        },
        {
          "indexed": true,
          "name": "newOwner",
          "type": "address"
        }
      ],
      "name": "OwnershipTransferred",
      "type": "event"
    },
    {
      "constant": false,
      "inputs": [
        {
          "name": "_investor",
          "type": "address"
        }
      ],
      "name": "refund",
      "outputs": [],
      "payable": false,
      "stateMutability": "nonpayable",
      "type": "function"
    }
  ],
  "bytecode": "0x608060405233600160006101000a81548173ffffffffffffffffffffffffffffffffffffffff021916908373ffffffffffffffffffffffffffffffffffffffff160217905550611d66806100546000396000f30060806040526004361061016a576000357c0100000000000000000000000000000000000000000000000000000000900463ffffffff16806306c36581146101765780631515bc2b146101a157806318160ddd146101d0578063301df9dd146101fb578063313ce567146102265780634042b66f1461025157806340582f131461027c5780634bb278f3146102a7578063521eb273146102be57806353fe21ad146103155780636c02a93114610358578063715018a6146103e8578063792d7ec3146103ff5780637b61c3201461045a5780637d3d6522146104ea5780638da5cb5b146105195780639fb160aa146105705780639fc2e24f146105b3578063bbe8a466146105de578063be8eef8e14610609578063ce7f3a2714610638578063d679677a14610663578063e184a5151461069c578063ec8ac4d8146106c7578063f2fde38b14610711578063f3fef3a314610754578063fa89401a146107a1578063fc0c546a146107e4575b6101733361083b565b50005b34801561018257600080fd5b5061018b610949565b6040518082815260200191505060405180910390f35b3480156101ad57600080fd5b506101b66109eb565b604051808215151515815260200191505060405180910390f35b3480156101dc57600080fd5b506101e5610a1c565b6040518082815260200191505060405180910390f35b34801561020757600080fd5b50610210610a22565b6040518082815260200191505060405180910390f35b34801561023257600080fd5b5061023b610a50565b6040518082815260200191505060405180910390f35b34801561025d57600080fd5b50610266610a56565b6040518082815260200191505060405180910390f35b34801561028857600080fd5b50610291610a5c565b6040518082815260200191505060405180910390f35b3480156102b357600080fd5b506102bc610a66565b005b3480156102ca57600080fd5b506102d3610b42565b604051808273ffffffffffffffffffffffffffffffffffffffff1673ffffffffffffffffffffffffffffffffffffffff16815260200191505060405180910390f35b34801561032157600080fd5b50610356600480360381019080803573ffffffffffffffffffffffffffffffffffffffff169060200190929190505050610b68565b005b34801561036457600080fd5b5061036d610c89565b6040518080602001828103825283818151815260200191508051906020019080838360005b838110156103ad578082015181840152602081019050610392565b50505050905090810190601f1680156103da5780820380516001836020036101000a031916815260200191505b509250505060405180910390f35b3480156103f457600080fd5b506103fd610d27565b005b34801561040b57600080fd5b50610440600480360381019080803573ffffffffffffffffffffffffffffffffffffffff169060200190929190505050610e2c565b604051808215151515815260200191505060405180910390f35b34801561046657600080fd5b5061046f610e49565b6040518080602001828103825283818151815260200191508051906020019080838360005b838110156104af578082015181840152602081019050610494565b50505050905090810190601f1680156104dc5780820380516001836020036101000a031916815260200191505b509250505060405180910390f35b3480156104f657600080fd5b506104ff610ee7565b604051808215151515815260200191505060405180910390f35b34801561052557600080fd5b5061052e610ef6565b604051808273ffffffffffffffffffffffffffffffffffffffff1673ffffffffffffffffffffffffffffffffffffffff16815260200191505060405180910390f35b34801561057c57600080fd5b506105b1600480360381019080803573ffffffffffffffffffffffffffffffffffffffff169060200190929190505050610f1c565b005b3480156105bf57600080fd5b506105c861103d565b6040518082815260200191505060405180910390f35b3480156105ea57600080fd5b506105f36110a0565b6040518082815260200191505060405180910390f35b34801561061557600080fd5b5061061e6110ce565b604051808215151515815260200191505060405180910390f35b34801561064457600080fd5b5061064d6110f9565b6040518082815260200191505060405180910390f35b34801561066f57600080fd5b5061067861119b565b6040518082600681111561068857fe5b60ff16815260200191505060405180910390f35b3480156106a857600080fd5b506106b16111d6565b6040518082815260200191505060405180910390f35b6106fb600480360381019080803573ffffffffffffffffffffffffffffffffffffffff16906020019092919050505061083b565b6040518082815260200191505060405180910390f35b34801561071d57600080fd5b50610752600480360381019080803573ffffffffffffffffffffffffffffffffffffffff1690602001909291905050506111dc565b005b34801561076057600080fd5b5061079f600480360381019080803573ffffffffffffffffffffffffffffffffffffffff16906020019092919080359060200190929190505050611334565b005b3480156107ad57600080fd5b506107e2600480360381019080803573ffffffffffffffffffffffffffffffffffffffff169060200190929190505050611438565b005b3480156107f057600080fd5b506107f9611615565b604051808273ffffffffffffffffffffffffffffffffffffffff1673ffffffffffffffffffffffffffffffffffffffff16815260200191505060405180910390f35b60008060006108486110ce565b151561085357600080fd5b61085b6109eb565b15151561086757600080fd5b600061087161163b565b81548110151561087d57fe5b906000526020600020906006020160050160009054906101000a900460ff1615156108a757600080fd5b3491506108b3826116e6565b90506108c0848383611725565b6108cb8483836118a9565b6108d58482611979565b8373ffffffffffffffffffffffffffffffffffffffff163373ffffffffffffffffffffffffffffffffffffffff167f623b3804fa71d67900d064613da8f94b9617215ee90799290593e1745087ad188484604051808381526020018281526020019250505060405180910390a35050919050565b60006109536110ce565b151561095e57600080fd5b6109666109eb565b15151561097257600080fd5b600061097c61163b565b81548110151561098857fe5b906000526020600020906006020160050160009054906101000a900460ff1615156109b257600080fd5b600160068111156109bf57fe5b6109c761119b565b60068111156109d257fe5b14156109e257600b5490506109e8565b600d5490505b90565b600080600160008054905003815481101515610a0357fe5b9060005260206000209060060201600201544211905090565b60065481565b600080610a2d61163b565b815481101515610a3957fe5b906000526020600020906006020160030154905090565b60075481565b600f5481565b6000600f54905090565b600160009054906101000a900473ffffffffffffffffffffffffffffffffffffffff1673ffffffffffffffffffffffffffffffffffffffff163373ffffffffffffffffffffffffffffffffffffffff16141515610ac257600080fd5b601260019054906101000a900460ff16151515610ade57600080fd5b610ae66109eb565b1515610af157600080fd5b610af9611a7e565b6001601260016101000a81548160ff0219169083151502179055507f6823b073d48d6e3a7d385eeb601452d680e74bb46afe3255a7d778f3a9b1768160405160405180910390a1565b600460009054906101000a900473ffffffffffffffffffffffffffffffffffffffff1681565b600160009054906101000a900473ffffffffffffffffffffffffffffffffffffffff1673ffffffffffffffffffffffffffffffffffffffff163373ffffffffffffffffffffffffffffffffffffffff16141515610bc457600080fd5b60006006811115610bd157fe5b6000610bdb61163b565b815481101515610be757fe5b906000526020600020906006020160000160009054906101000a900460ff166006811115610c1157fe5b1480610c67575060026006811115610c2557fe5b6000610c2f61163b565b815481101515610c3b57fe5b906000526020600020906006020160000160009054906101000a900460ff166006811115610c6557fe5b145b1515610c7257600080fd5b610c86816002611bbb90919063ffffffff16565b50565b60088054600181600116156101000203166002900480601f016020809104026020016040519081016040528092919081815260200182805460018160011615610100020316600290048015610d1f5780601f10610cf457610100808354040283529160200191610d1f565b820191906000526020600020905b815481529060010190602001808311610d0257829003601f168201915b505050505081565b600160009054906101000a900473ffffffffffffffffffffffffffffffffffffffff1673ffffffffffffffffffffffffffffffffffffffff163373ffffffffffffffffffffffffffffffffffffffff16141515610d8357600080fd5b600160009054906101000a900473ffffffffffffffffffffffffffffffffffffffff1673ffffffffffffffffffffffffffffffffffffffff167ff8df31144d9c2f0f6b59d69b8b98abd5459d07f2742c4df920b25aae33c6482060405160405180910390a26000600160006101000a81548173ffffffffffffffffffffffffffffffffffffffff021916908373ffffffffffffffffffffffffffffffffffffffff160217905550565b6000610e42826002611c1990919063ffffffff16565b9050919050565b60098054600181600116156101000203166002900480601f016020809104026020016040519081016040528092919081815260200182805460018160011615610100020316600290048015610edf5780601f10610eb457610100808354040283529160200191610edf565b820191906000526020600020905b815481529060010190602001808311610ec257829003601f168201915b505050505081565b6000600554600f541015905090565b600160009054906101000a900473ffffffffffffffffffffffffffffffffffffffff1681565b600160009054906101000a900473ffffffffffffffffffffffffffffffffffffffff1673ffffffffffffffffffffffffffffffffffffffff163373ffffffffffffffffffffffffffffffffffffffff16141515610f7857600080fd5b60006006811115610f8557fe5b6000610f8f61163b565b815481101515610f9b57fe5b906000526020600020906006020160000160009054906101000a900460ff166006811115610fc557fe5b148061101b575060026006811115610fd957fe5b6000610fe361163b565b815481101515610fef57fe5b906000526020600020906006020160000160009054906101000a900460ff16600681111561101957fe5b145b151561102657600080fd5b61103a816002611c7290919063ffffffff16565b50565b60008060008090505b61104e61163b565b811115156110985761108960008281548110151561106857fe5b90600052602060002090600602016003015483611cd090919063ffffffff16565b91508080600101915050611046565b819250505090565b6000806110ab61163b565b8154811015156110b757fe5b906000526020600020906006020160040154905090565b60008060008154811015156110df57fe5b906000526020600020906006020160010154421015905090565b60006111036110ce565b151561110e57600080fd5b6111166109eb565b15151561112257600080fd5b600061112c61163b565b81548110151561113857fe5b906000526020600020906006020160050160009054906101000a900460ff16151561116257600080fd5b6001600681111561116f57fe5b61117761119b565b600681111561118257fe5b141561119257600a549050611198565b600c5490505b90565b6000806111a661163b565b8154811015156111b257fe5b906000526020600020906006020160000160009054906101000a900460ff16905090565b60115481565b600160009054906101000a900473ffffffffffffffffffffffffffffffffffffffff1673ffffffffffffffffffffffffffffffffffffffff163373ffffffffffffffffffffffffffffffffffffffff1614151561123857600080fd5b600073ffffffffffffffffffffffffffffffffffffffff168173ffffffffffffffffffffffffffffffffffffffff161415151561127457600080fd5b8073ffffffffffffffffffffffffffffffffffffffff16600160009054906101000a900473ffffffffffffffffffffffffffffffffffffffff1673ffffffffffffffffffffffffffffffffffffffff167f8be0079c531659141344cd1fd0a4f28419497f9722a3daafe3b4186f6b6457e060405160405180910390a380600160006101000a81548173ffffffffffffffffffffffffffffffffffffffff021916908373ffffffffffffffffffffffffffffffffffffffff16021790555050565b600160009054906101000a900473ffffffffffffffffffffffffffffffffffffffff1673ffffffffffffffffffffffffffffffffffffffff163373ffffffffffffffffffffffffffffffffffffffff1614151561139057600080fd5b600073ffffffffffffffffffffffffffffffffffffffff168273ffffffffffffffffffffffffffffffffffffffff16141515156113cc57600080fd5b600081141515156113dc57600080fd5b600f5481111515156113ed57600080fd5b8173ffffffffffffffffffffffffffffffffffffffff166108fc829081150290604051600060405180830381858888f19350505050158015611433573d6000803e3d6000fd5b505050565b6000601260019054906101000a900460ff16151561145557600080fd5b6001600281111561146257fe5b601260009054906101000a900460ff16600281111561147d57fe5b14151561148957600080fd5b6000601060008473ffffffffffffffffffffffffffffffffffffffff1673ffffffffffffffffffffffffffffffffffffffff16815260200190815260200160002054141515156114d857600080fd5b601060008373ffffffffffffffffffffffffffffffffffffffff1673ffffffffffffffffffffffffffffffffffffffff1681526020019081526020016000205490506000601060008473ffffffffffffffffffffffffffffffffffffffff1673ffffffffffffffffffffffffffffffffffffffff168152602001908152602001600020819055508173ffffffffffffffffffffffffffffffffffffffff166108fc829081150290604051600060405180830381858888f193505050501580156115a5573d6000803e3d6000fd5b507fd7dee2702d63ad89917b6a4da9981c90c4d24f8c2bdfd64c604ecae57d8d06518282604051808373ffffffffffffffffffffffffffffffffffffffff1673ffffffffffffffffffffffffffffffffffffffff1681526020018281526020019250505060405180910390a15050565b600360009054906101000a900473ffffffffffffffffffffffffffffffffffffffff1681565b6000806116466110ce565b151561165157600080fd5b6116596109eb565b15151561166557600080fd5b600090505b6000805490508110156116e15760008181548110151561168657fe5b90600052602060002090600602016001015442101580156116c757506000818154811015156116b157fe5b9060005260206000209060060201600201544211155b156116d4578091506116e2565b808060010191505061166a565b5b5090565b6000806116f16110a0565b905061171d600754600a0a61170f8386611cec90919063ffffffff16565b611d2490919063ffffffff16565b915050919050565b600073ffffffffffffffffffffffffffffffffffffffff168373ffffffffffffffffffffffffffffffffffffffff161415151561176157600080fd5b6000821415151561177157600080fd5b61177961103d565b61178e82601154611cd090919063ffffffff16565b1115151561179b57600080fd5b6117a36110f9565b6117f583601060008773ffffffffffffffffffffffffffffffffffffffff1673ffffffffffffffffffffffffffffffffffffffff16815260200190815260200160002054611cd090919063ffffffff16565b1015151561180257600080fd5b61180a610949565b61185c83601060008773ffffffffffffffffffffffffffffffffffffffff1673ffffffffffffffffffffffffffffffffffffffff16815260200190815260200160002054611cd090919063ffffffff16565b1115151561186957600080fd5b6001600681111561187657fe5b61187e61119b565b600681111561188957fe5b14156118a45761189883610e2c565b15156118a357600080fd5b5b505050565b6118fb82601060008673ffffffffffffffffffffffffffffffffffffffff1673ffffffffffffffffffffffffffffffffffffffff16815260200190815260200160002054611cd090919063ffffffff16565b601060008573ffffffffffffffffffffffffffffffffffffffff1673ffffffffffffffffffffffffffffffffffffffff1681526020019081526020016000208190555061195381601154611cd090919063ffffffff16565b60118190555061196e82600f54611cd090919063ffffffff16565b600f81905550505050565b600360009054906101000a900473ffffffffffffffffffffffffffffffffffffffff1673ffffffffffffffffffffffffffffffffffffffff1663a9059cbb83836040518363ffffffff167c0100000000000000000000000000000000000000000000000000000000028152600401808373ffffffffffffffffffffffffffffffffffffffff1673ffffffffffffffffffffffffffffffffffffffff16815260200182815260200192505050602060405180830381600087803b158015611a3e57600080fd5b505af1158015611a52573d6000803e3d6000fd5b505050506040513d6020811015611a6857600080fd5b8101908080519060200190929190505050505050565b60006002811115611a8b57fe5b601260009054906101000a900460ff166002811115611aa657fe5b141515611ab257600080fd5b611aba610ee7565b15611b94576002601260006101000a81548160ff02191690836002811115611ade57fe5b0217905550600460009054906101000a900473ffffffffffffffffffffffffffffffffffffffff1673ffffffffffffffffffffffffffffffffffffffff166108fc3073ffffffffffffffffffffffffffffffffffffffff16319081150290604051600060405180830381858888f19350505050158015611b62573d6000803e3d6000fd5b507f1cdde67b72a90f19919ac732a437ac2f7a10fc128d28c2a6e525d89ce5cd9d3a60405160405180910390a1611bb9565b6001601260006101000a81548160ff02191690836002811115611bb357fe5b02179055505b565b60018260000160008373ffffffffffffffffffffffffffffffffffffffff1673ffffffffffffffffffffffffffffffffffffffff16815260200190815260200160002060006101000a81548160ff0219169083151502179055505050565b60008260000160008373ffffffffffffffffffffffffffffffffffffffff1673ffffffffffffffffffffffffffffffffffffffff16815260200190815260200160002060009054906101000a900460ff16905092915050565b60008260000160008373ffffffffffffffffffffffffffffffffffffffff1673ffffffffffffffffffffffffffffffffffffffff16815260200190815260200160002060006101000a81548160ff0219169083151502179055505050565b60008183019050828110151515611ce357fe5b80905092915050565b600080831415611cff5760009050611d1e565b8183029050818382811515611d1057fe5b04141515611d1a57fe5b8090505b92915050565b60008183811515611d3157fe5b049050929150505600a165627a7a723058202a342ca4d3eebf87176d64a89f8b498fbef6501fdd695eff6e5a451adb76caeb0029",
  "source": "pragma solidity ^0.4.23;\r\n\r\nimport \"./FinalizableCrowdsale.sol\";\r\n\r\ncontract RefundableCrowdsale is FinalizableCrowdsale {\r\n    \r\n    event Refunded(address _investor, uint256 _depositedValue);\r\n    \r\n    function refund(address _investor) public {\r\n        require(isFinalized);\r\n        require(state == State.Refunding);\r\n        require(depositedWei[_investor] != 0);\r\n        uint256 refundValue = depositedWei[_investor];\r\n        depositedWei[_investor] = 0;\r\n        _investor.transfer(refundValue);\r\n        emit Refunded(_investor, refundValue);\r\n    }\r\n}",
  "sourcePath": "G:\\Root\\Blockchain\\BAX\\contracts\\crowdSale\\RefundableCrowdsale.sol",
  "compiler": {
    "name": "solc",
    "version": "0.4.23+commit.124ca40d.Emscripten.clang"
  },
  "schemaVersion": "2.0.0",
  "updatedAt": "2018-06-07T05:53:54.979Z"
}