{
  "contractName": "RefundableCrowdsale",
  "abi": [
    {
      "constant": true,
      "inputs": [],
      "name": "maxVestingWei",
      "outputs": [
        {
          "name": "",
          "type": "uint256"
        }
      ],
      "payable": false,
      "stateMutability": "view",
      "type": "function"
    },
    {
      "constant": true,
      "inputs": [],
      "name": "hasClosed",
      "outputs": [
        {
          "name": "",
          "type": "bool"
        }
      ],
      "payable": false,
      "stateMutability": "view",
      "type": "function"
    },
    {
      "constant": true,
      "inputs": [],
      "name": "totalSupply",
      "outputs": [
        {
          "name": "",
          "type": "uint256"
        }
      ],
      "payable": false,
      "stateMutability": "view",
      "type": "function"
    },
    {
      "constant": true,
      "inputs": [],
      "name": "currentTierHardcap",
      "outputs": [
        {
          "name": "",
          "type": "uint256"
        }
      ],
      "payable": false,
      "stateMutability": "view",
      "type": "function"
    },
    {
      "constant": true,
      "inputs": [],
      "name": "decimals",
      "outputs": [
        {
          "name": "",
          "type": "uint256"
        }
      ],
      "payable": false,
      "stateMutability": "view",
      "type": "function"
    },
    {
      "constant": true,
      "inputs": [],
      "name": "weiRaised",
      "outputs": [
        {
          "name": "",
          "type": "uint256"
        }
      ],
      "payable": false,
      "stateMutability": "view",
      "type": "function"
    },
    {
      "constant": true,
      "inputs": [],
      "name": "getWeiRaised",
      "outputs": [
        {
          "name": "",
          "type": "uint256"
        }
      ],
      "payable": false,
      "stateMutability": "view",
      "type": "function"
    },
    {
      "constant": false,
      "inputs": [],
      "name": "finalize",
      "outputs": [],
      "payable": false,
      "stateMutability": "nonpayable",
      "type": "function"
    },
    {
      "constant": true,
      "inputs": [],
      "name": "wallet",
      "outputs": [
        {
          "name": "",
          "type": "address"
        }
      ],
      "payable": false,
      "stateMutability": "view",
      "type": "function"
    },
    {
      "constant": false,
      "inputs": [
        {
          "name": "_vc",
          "type": "address"
        }
      ],
      "name": "addToVC",
      "outputs": [],
      "payable": false,
      "stateMutability": "nonpayable",
      "type": "function"
    },
    {
      "constant": true,
      "inputs": [],
      "name": "tokenName",
      "outputs": [
        {
          "name": "",
          "type": "string"
        }
      ],
      "payable": false,
      "stateMutability": "view",
      "type": "function"
    },
    {
      "constant": false,
      "inputs": [],
      "name": "renounceOwnership",
      "outputs": [],
      "payable": false,
      "stateMutability": "nonpayable",
      "type": "function"
    },
    {
      "constant": true,
      "inputs": [
        {
          "name": "_vc",
          "type": "address"
        }
      ],
      "name": "whtielistedAsVC",
      "outputs": [
        {
          "name": "",
          "type": "bool"
        }
      ],
      "payable": false,
      "stateMutability": "view",
      "type": "function"
    },
    {
      "constant": true,
      "inputs": [],
      "name": "tokenSymbol",
      "outputs": [
        {
          "name": "",
          "type": "string"
        }
      ],
      "payable": false,
      "stateMutability": "view",
      "type": "function"
    },
    {
      "constant": true,
      "inputs": [],
      "name": "goalReached",
      "outputs": [
        {
          "name": "",
          "type": "bool"
        }
      ],
      "payable": false,
      "stateMutability": "view",
      "type": "function"
    },
    {
      "constant": true,
      "inputs": [],
      "name": "owner",
      "outputs": [
        {
          "name": "",
          "type": "address"
        }
      ],
      "payable": false,
      "stateMutability": "view",
      "type": "function"
    },
    {
      "constant": false,
      "inputs": [
        {
          "name": "_vc",
          "type": "address"
        }
      ],
      "name": "removeFromVC",
      "outputs": [],
      "payable": false,
      "stateMutability": "nonpayable",
      "type": "function"
    },
    {
      "constant": true,
      "inputs": [],
      "name": "currentSaleTokenWeiHardcap",
      "outputs": [
        {
          "name": "",
          "type": "uint256"
        }
      ],
      "payable": false,
      "stateMutability": "view",
      "type": "function"
    },
    {
      "constant": true,
      "inputs": [],
      "name": "currentTierTokenWeisPerEth",
      "outputs": [
        {
          "name": "",
          "type": "uint256"
        }
      ],
      "payable": false,
      "stateMutability": "view",
      "type": "function"
    },
    {
      "constant": true,
      "inputs": [],
      "name": "hasOpened",
      "outputs": [
        {
          "name": "",
          "type": "bool"
        }
      ],
      "payable": false,
      "stateMutability": "view",
      "type": "function"
    },
    {
      "constant": true,
      "inputs": [],
      "name": "minVestingWei",
      "outputs": [
        {
          "name": "",
          "type": "uint256"
        }
      ],
      "payable": false,
      "stateMutability": "view",
      "type": "function"
    },
    {
      "constant": true,
      "inputs": [],
      "name": "currentTier",
      "outputs": [
        {
          "name": "",
          "type": "uint8"
        }
      ],
      "payable": false,
      "stateMutability": "view",
      "type": "function"
    },
    {
      "constant": true,
      "inputs": [],
      "name": "tokenWeisSold",
      "outputs": [
        {
          "name": "",
          "type": "uint256"
        }
      ],
      "payable": false,
      "stateMutability": "view",
      "type": "function"
    },
    {
      "constant": false,
      "inputs": [
        {
          "name": "_beneficiary",
          "type": "address"
        }
      ],
      "name": "buyTokens",
      "outputs": [
        {
          "name": "",
          "type": "uint256"
        }
      ],
      "payable": true,
      "stateMutability": "payable",
      "type": "function"
    },
    {
      "constant": false,
      "inputs": [
        {
          "name": "newOwner",
          "type": "address"
        }
      ],
      "name": "transferOwnership",
      "outputs": [],
      "payable": false,
      "stateMutability": "nonpayable",
      "type": "function"
    },
    {
      "constant": false,
      "inputs": [
        {
          "name": "_wallet",
          "type": "address"
        },
        {
          "name": "_weiAmount",
          "type": "uint256"
        }
      ],
      "name": "withdraw",
      "outputs": [],
      "payable": false,
      "stateMutability": "nonpayable",
      "type": "function"
    },
    {
      "constant": true,
      "inputs": [],
      "name": "token",
      "outputs": [
        {
          "name": "",
          "type": "address"
        }
      ],
      "payable": false,
      "stateMutability": "view",
      "type": "function"
    },
    {
      "anonymous": false,
      "inputs": [
        {
          "indexed": false,
          "name": "_investor",
          "type": "address"
        },
        {
          "indexed": false,
          "name": "_depositedValue",
          "type": "uint256"
        }
      ],
      "name": "Refunded",
      "type": "event"
    },
    {
      "anonymous": false,
      "inputs": [],
      "name": "Finalized",
      "type": "event"
    },
    {
      "anonymous": false,
      "inputs": [],
      "name": "Closed",
      "type": "event"
    },
    {
      "anonymous": false,
      "inputs": [
        {
          "indexed": true,
          "name": "purchaser",
          "type": "address"
        },
        {
          "indexed": true,
          "name": "beneficiary",
          "type": "address"
        },
        {
          "indexed": false,
          "name": "value",
          "type": "uint256"
        },
        {
          "indexed": false,
          "name": "amount",
          "type": "uint256"
        }
      ],
      "name": "TokenPurchase",
      "type": "event"
    },
    {
      "anonymous": false,
      "inputs": [
        {
          "indexed": true,
          "name": "previousOwner",
          "type": "address"
        }
      ],
      "name": "OwnershipRenounced",
      "type": "event"
    },
    {
      "anonymous": false,
      "inputs": [
        {
          "indexed": true,
          "name": "previousOwner",
          "type": "address"
        },
        {
          "indexed": true,
          "name": "newOwner",
          "type": "address"
        }
      ],
      "name": "OwnershipTransferred",
      "type": "event"
    },
    {
      "constant": false,
      "inputs": [
        {
          "name": "_investor",
          "type": "address"
        }
      ],
      "name": "refund",
      "outputs": [],
      "payable": false,
      "stateMutability": "nonpayable",
      "type": "function"
    }
  ],
  "bytecode": "0x608060405233600160006101000a81548173ffffffffffffffffffffffffffffffffffffffff021916908373ffffffffffffffffffffffffffffffffffffffff160217905550611d5f806100546000396000f30060806040526004361061016a576000357c0100000000000000000000000000000000000000000000000000000000900463ffffffff16806306c365811461016f5780631515bc2b1461019a57806318160ddd146101c9578063301df9dd146101f4578063313ce5671461021f5780634042b66f1461024a57806340582f13146102755780634bb278f3146102a0578063521eb273146102b757806353fe21ad1461030e5780636c02a93114610351578063715018a6146103e1578063792d7ec3146103f85780637b61c320146104535780637d3d6522146104e35780638da5cb5b146105125780639fb160aa146105695780639fc2e24f146105ac578063bbe8a466146105d7578063be8eef8e14610602578063ce7f3a2714610631578063d679677a1461065c578063e184a51514610695578063ec8ac4d8146106c0578063f2fde38b1461070a578063f3fef3a31461074d578063fa89401a1461079a578063fc0c546a146107dd575b600080fd5b34801561017b57600080fd5b50610184610834565b6040518082815260200191505060405180910390f35b3480156101a657600080fd5b506101af6108d6565b604051808215151515815260200191505060405180910390f35b3480156101d557600080fd5b506101de610907565b6040518082815260200191505060405180910390f35b34801561020057600080fd5b5061020961090d565b6040518082815260200191505060405180910390f35b34801561022b57600080fd5b5061023461093b565b6040518082815260200191505060405180910390f35b34801561025657600080fd5b5061025f610941565b6040518082815260200191505060405180910390f35b34801561028157600080fd5b5061028a610947565b6040518082815260200191505060405180910390f35b3480156102ac57600080fd5b506102b5610951565b005b3480156102c357600080fd5b506102cc610a2d565b604051808273ffffffffffffffffffffffffffffffffffffffff1673ffffffffffffffffffffffffffffffffffffffff16815260200191505060405180910390f35b34801561031a57600080fd5b5061034f600480360381019080803573ffffffffffffffffffffffffffffffffffffffff169060200190929190505050610a53565b005b34801561035d57600080fd5b50610366610b74565b6040518080602001828103825283818151815260200191508051906020019080838360005b838110156103a657808201518184015260208101905061038b565b50505050905090810190601f1680156103d35780820380516001836020036101000a031916815260200191505b509250505060405180910390f35b3480156103ed57600080fd5b506103f6610c12565b005b34801561040457600080fd5b50610439600480360381019080803573ffffffffffffffffffffffffffffffffffffffff169060200190929190505050610d17565b604051808215151515815260200191505060405180910390f35b34801561045f57600080fd5b50610468610d34565b6040518080602001828103825283818151815260200191508051906020019080838360005b838110156104a857808201518184015260208101905061048d565b50505050905090810190601f1680156104d55780820380516001836020036101000a031916815260200191505b509250505060405180910390f35b3480156104ef57600080fd5b506104f8610dd2565b604051808215151515815260200191505060405180910390f35b34801561051e57600080fd5b50610527610de1565b604051808273ffffffffffffffffffffffffffffffffffffffff1673ffffffffffffffffffffffffffffffffffffffff16815260200191505060405180910390f35b34801561057557600080fd5b506105aa600480360381019080803573ffffffffffffffffffffffffffffffffffffffff169060200190929190505050610e07565b005b3480156105b857600080fd5b506105c1610f28565b6040518082815260200191505060405180910390f35b3480156105e357600080fd5b506105ec610f8b565b6040518082815260200191505060405180910390f35b34801561060e57600080fd5b50610617610fb9565b604051808215151515815260200191505060405180910390f35b34801561063d57600080fd5b50610646610fe4565b6040518082815260200191505060405180910390f35b34801561066857600080fd5b50610671611086565b6040518082600681111561068157fe5b60ff16815260200191505060405180910390f35b3480156106a157600080fd5b506106aa6110c1565b6040518082815260200191505060405180910390f35b6106f4600480360381019080803573ffffffffffffffffffffffffffffffffffffffff1690602001909291905050506110c7565b6040518082815260200191505060405180910390f35b34801561071657600080fd5b5061074b600480360381019080803573ffffffffffffffffffffffffffffffffffffffff1690602001909291905050506111d5565b005b34801561075957600080fd5b50610798600480360381019080803573ffffffffffffffffffffffffffffffffffffffff1690602001909291908035906020019092919050505061132d565b005b3480156107a657600080fd5b506107db600480360381019080803573ffffffffffffffffffffffffffffffffffffffff169060200190929190505050611431565b005b3480156107e957600080fd5b506107f261160e565b604051808273ffffffffffffffffffffffffffffffffffffffff1673ffffffffffffffffffffffffffffffffffffffff16815260200191505060405180910390f35b600061083e610fb9565b151561084957600080fd5b6108516108d6565b15151561085d57600080fd5b6000610867611634565b81548110151561087357fe5b906000526020600020906006020160050160009054906101000a900460ff16151561089d57600080fd5b600160068111156108aa57fe5b6108b2611086565b60068111156108bd57fe5b14156108cd57600b5490506108d3565b600d5490505b90565b6000806001600080549050038154811015156108ee57fe5b9060005260206000209060060201600201544211905090565b60065481565b600080610918611634565b81548110151561092457fe5b906000526020600020906006020160030154905090565b60075481565b600f5481565b6000600f54905090565b600160009054906101000a900473ffffffffffffffffffffffffffffffffffffffff1673ffffffffffffffffffffffffffffffffffffffff163373ffffffffffffffffffffffffffffffffffffffff161415156109ad57600080fd5b601260019054906101000a900460ff161515156109c957600080fd5b6109d16108d6565b15156109dc57600080fd5b6109e46116df565b6001601260016101000a81548160ff0219169083151502179055507f6823b073d48d6e3a7d385eeb601452d680e74bb46afe3255a7d778f3a9b1768160405160405180910390a1565b600460009054906101000a900473ffffffffffffffffffffffffffffffffffffffff1681565b600160009054906101000a900473ffffffffffffffffffffffffffffffffffffffff1673ffffffffffffffffffffffffffffffffffffffff163373ffffffffffffffffffffffffffffffffffffffff16141515610aaf57600080fd5b60006006811115610abc57fe5b6000610ac6611634565b815481101515610ad257fe5b906000526020600020906006020160000160009054906101000a900460ff166006811115610afc57fe5b1480610b52575060026006811115610b1057fe5b6000610b1a611634565b815481101515610b2657fe5b906000526020600020906006020160000160009054906101000a900460ff166006811115610b5057fe5b145b1515610b5d57600080fd5b610b7181600261181c90919063ffffffff16565b50565b60088054600181600116156101000203166002900480601f016020809104026020016040519081016040528092919081815260200182805460018160011615610100020316600290048015610c0a5780601f10610bdf57610100808354040283529160200191610c0a565b820191906000526020600020905b815481529060010190602001808311610bed57829003601f168201915b505050505081565b600160009054906101000a900473ffffffffffffffffffffffffffffffffffffffff1673ffffffffffffffffffffffffffffffffffffffff163373ffffffffffffffffffffffffffffffffffffffff16141515610c6e57600080fd5b600160009054906101000a900473ffffffffffffffffffffffffffffffffffffffff1673ffffffffffffffffffffffffffffffffffffffff167ff8df31144d9c2f0f6b59d69b8b98abd5459d07f2742c4df920b25aae33c6482060405160405180910390a26000600160006101000a81548173ffffffffffffffffffffffffffffffffffffffff021916908373ffffffffffffffffffffffffffffffffffffffff160217905550565b6000610d2d82600261187a90919063ffffffff16565b9050919050565b60098054600181600116156101000203166002900480601f016020809104026020016040519081016040528092919081815260200182805460018160011615610100020316600290048015610dca5780601f10610d9f57610100808354040283529160200191610dca565b820191906000526020600020905b815481529060010190602001808311610dad57829003601f168201915b505050505081565b6000600554600f541015905090565b600160009054906101000a900473ffffffffffffffffffffffffffffffffffffffff1681565b600160009054906101000a900473ffffffffffffffffffffffffffffffffffffffff1673ffffffffffffffffffffffffffffffffffffffff163373ffffffffffffffffffffffffffffffffffffffff16141515610e6357600080fd5b60006006811115610e7057fe5b6000610e7a611634565b815481101515610e8657fe5b906000526020600020906006020160000160009054906101000a900460ff166006811115610eb057fe5b1480610f06575060026006811115610ec457fe5b6000610ece611634565b815481101515610eda57fe5b906000526020600020906006020160000160009054906101000a900460ff166006811115610f0457fe5b145b1515610f1157600080fd5b610f258160026118d390919063ffffffff16565b50565b60008060008090505b610f39611634565b81111515610f8357610f74600082815481101515610f5357fe5b9060005260206000209060060201600301548361193190919063ffffffff16565b91508080600101915050610f31565b819250505090565b600080610f96611634565b815481101515610fa257fe5b906000526020600020906006020160040154905090565b6000806000815481101515610fca57fe5b906000526020600020906006020160010154421015905090565b6000610fee610fb9565b1515610ff957600080fd5b6110016108d6565b15151561100d57600080fd5b6000611017611634565b81548110151561102357fe5b906000526020600020906006020160050160009054906101000a900460ff16151561104d57600080fd5b6001600681111561105a57fe5b611062611086565b600681111561106d57fe5b141561107d57600a549050611083565b600c5490505b90565b600080611091611634565b81548110151561109d57fe5b906000526020600020906006020160000160009054906101000a900460ff16905090565b60115481565b60008060006110d4610fb9565b15156110df57600080fd5b6110e76108d6565b1515156110f357600080fd5b60006110fd611634565b81548110151561110957fe5b906000526020600020906006020160050160009054906101000a900460ff16151561113357600080fd5b34915061113f8261194d565b905061114c84838361198c565b611157848383611b10565b6111618482611be0565b8373ffffffffffffffffffffffffffffffffffffffff163373ffffffffffffffffffffffffffffffffffffffff167f623b3804fa71d67900d064613da8f94b9617215ee90799290593e1745087ad188484604051808381526020018281526020019250505060405180910390a35050919050565b600160009054906101000a900473ffffffffffffffffffffffffffffffffffffffff1673ffffffffffffffffffffffffffffffffffffffff163373ffffffffffffffffffffffffffffffffffffffff1614151561123157600080fd5b600073ffffffffffffffffffffffffffffffffffffffff168173ffffffffffffffffffffffffffffffffffffffff161415151561126d57600080fd5b8073ffffffffffffffffffffffffffffffffffffffff16600160009054906101000a900473ffffffffffffffffffffffffffffffffffffffff1673ffffffffffffffffffffffffffffffffffffffff167f8be0079c531659141344cd1fd0a4f28419497f9722a3daafe3b4186f6b6457e060405160405180910390a380600160006101000a81548173ffffffffffffffffffffffffffffffffffffffff021916908373ffffffffffffffffffffffffffffffffffffffff16021790555050565b600160009054906101000a900473ffffffffffffffffffffffffffffffffffffffff1673ffffffffffffffffffffffffffffffffffffffff163373ffffffffffffffffffffffffffffffffffffffff1614151561138957600080fd5b600073ffffffffffffffffffffffffffffffffffffffff168273ffffffffffffffffffffffffffffffffffffffff16141515156113c557600080fd5b600081141515156113d557600080fd5b600f5481111515156113e657600080fd5b8173ffffffffffffffffffffffffffffffffffffffff166108fc829081150290604051600060405180830381858888f1935050505015801561142c573d6000803e3d6000fd5b505050565b6000601260019054906101000a900460ff16151561144e57600080fd5b6001600281111561145b57fe5b601260009054906101000a900460ff16600281111561147657fe5b14151561148257600080fd5b6000601060008473ffffffffffffffffffffffffffffffffffffffff1673ffffffffffffffffffffffffffffffffffffffff16815260200190815260200160002054141515156114d157600080fd5b601060008373ffffffffffffffffffffffffffffffffffffffff1673ffffffffffffffffffffffffffffffffffffffff1681526020019081526020016000205490506000601060008473ffffffffffffffffffffffffffffffffffffffff1673ffffffffffffffffffffffffffffffffffffffff168152602001908152602001600020819055508173ffffffffffffffffffffffffffffffffffffffff166108fc829081150290604051600060405180830381858888f1935050505015801561159e573d6000803e3d6000fd5b507fd7dee2702d63ad89917b6a4da9981c90c4d24f8c2bdfd64c604ecae57d8d06518282604051808373ffffffffffffffffffffffffffffffffffffffff1673ffffffffffffffffffffffffffffffffffffffff1681526020018281526020019250505060405180910390a15050565b600360009054906101000a900473ffffffffffffffffffffffffffffffffffffffff1681565b60008061163f610fb9565b151561164a57600080fd5b6116526108d6565b15151561165e57600080fd5b600090505b6000805490508110156116da5760008181548110151561167f57fe5b90600052602060002090600602016001015442101580156116c057506000818154811015156116aa57fe5b9060005260206000209060060201600201544211155b156116cd578091506116db565b8080600101915050611663565b5b5090565b600060028111156116ec57fe5b601260009054906101000a900460ff16600281111561170757fe5b14151561171357600080fd5b61171b610dd2565b156117f5576002601260006101000a81548160ff0219169083600281111561173f57fe5b0217905550600460009054906101000a900473ffffffffffffffffffffffffffffffffffffffff1673ffffffffffffffffffffffffffffffffffffffff166108fc3073ffffffffffffffffffffffffffffffffffffffff16319081150290604051600060405180830381858888f193505050501580156117c3573d6000803e3d6000fd5b507f1cdde67b72a90f19919ac732a437ac2f7a10fc128d28c2a6e525d89ce5cd9d3a60405160405180910390a161181a565b6001601260006101000a81548160ff0219169083600281111561181457fe5b02179055505b565b60018260000160008373ffffffffffffffffffffffffffffffffffffffff1673ffffffffffffffffffffffffffffffffffffffff16815260200190815260200160002060006101000a81548160ff0219169083151502179055505050565b60008260000160008373ffffffffffffffffffffffffffffffffffffffff1673ffffffffffffffffffffffffffffffffffffffff16815260200190815260200160002060009054906101000a900460ff16905092915050565b60008260000160008373ffffffffffffffffffffffffffffffffffffffff1673ffffffffffffffffffffffffffffffffffffffff16815260200190815260200160002060006101000a81548160ff0219169083151502179055505050565b6000818301905082811015151561194457fe5b80905092915050565b600080611958610f8b565b9050611984600754600a0a6119768386611ce590919063ffffffff16565b611d1d90919063ffffffff16565b915050919050565b600073ffffffffffffffffffffffffffffffffffffffff168373ffffffffffffffffffffffffffffffffffffffff16141515156119c857600080fd5b600082141515156119d857600080fd5b6119e0610f28565b6119f58260115461193190919063ffffffff16565b11151515611a0257600080fd5b611a0a610fe4565b611a5c83601060008773ffffffffffffffffffffffffffffffffffffffff1673ffffffffffffffffffffffffffffffffffffffff1681526020019081526020016000205461193190919063ffffffff16565b10151515611a6957600080fd5b611a71610834565b611ac383601060008773ffffffffffffffffffffffffffffffffffffffff1673ffffffffffffffffffffffffffffffffffffffff1681526020019081526020016000205461193190919063ffffffff16565b11151515611ad057600080fd5b60016006811115611add57fe5b611ae5611086565b6006811115611af057fe5b1415611b0b57611aff83610d17565b1515611b0a57600080fd5b5b505050565b611b6282601060008673ffffffffffffffffffffffffffffffffffffffff1673ffffffffffffffffffffffffffffffffffffffff1681526020019081526020016000205461193190919063ffffffff16565b601060008573ffffffffffffffffffffffffffffffffffffffff1673ffffffffffffffffffffffffffffffffffffffff16815260200190815260200160002081905550611bba8160115461193190919063ffffffff16565b601181905550611bd582600f5461193190919063ffffffff16565b600f81905550505050565b600360009054906101000a900473ffffffffffffffffffffffffffffffffffffffff1673ffffffffffffffffffffffffffffffffffffffff1663a9059cbb83836040518363ffffffff167c0100000000000000000000000000000000000000000000000000000000028152600401808373ffffffffffffffffffffffffffffffffffffffff1673ffffffffffffffffffffffffffffffffffffffff16815260200182815260200192505050602060405180830381600087803b158015611ca557600080fd5b505af1158015611cb9573d6000803e3d6000fd5b505050506040513d6020811015611ccf57600080fd5b8101908080519060200190929190505050505050565b600080831415611cf85760009050611d17565b8183029050818382811515611d0957fe5b04141515611d1357fe5b8090505b92915050565b60008183811515611d2a57fe5b049050929150505600a165627a7a723058201d86affe70be28ca7f5c57348b2aa983d567dc1aca3547130970f870c4c5dc4c0029",
  "source": "pragma solidity ^0.4.23;\r\n\r\nimport \"./FinalizableCrowdsale.sol\";\r\n\r\n/**\r\n * @title RefundableCrowdsale\r\n * @dev RefundableCrowdsale inherits FinalizableCrowdsale and intended to manage Refunding process.\r\n */\r\ncontract RefundableCrowdsale is FinalizableCrowdsale {\r\n    \r\n    event Refunded(address _investor, uint256 _depositedValue);\r\n    \r\n    /**\r\n     * @dev Refunds the investing ETHERs back to participants.\r\n     * @param _investor Address of investor supposed to be refunded.\r\n     * @dev note Refunding process would be occured if the desired softcap is not reached and \r\n     * the owner finalizes the crowdsale after its ending.\r\n     */\r\n    function refund(address _investor) public {\r\n        require(isFinalized);\r\n        require(state == State.Refunding);\r\n        require(depositedWei[_investor] != 0);\r\n        uint256 refundValue = depositedWei[_investor];\r\n        depositedWei[_investor] = 0;\r\n        _investor.transfer(refundValue);\r\n        emit Refunded(_investor, refundValue);\r\n    }\r\n}",
  "sourcePath": "G:\\Root\\Blockchain\\WOX\\contracts\\crowdSale\\RefundableCrowdsale.sol",
  "compiler": {
    "name": "solc",
    "version": "0.4.23+commit.124ca40d.Emscripten.clang"
  },
  "schemaVersion": "2.0.0",
  "updatedAt": "2018-06-27T04:31:22.437Z"
}