{
  "contractName": "RoundedCrowdsale",
  "abi": [
    {
      "inputs": [
        {
          "name": "cliff",
          "type": "uint256"
        },
        {
          "name": "_PreICOtokensPerETH",
          "type": "uint256"
        },
        {
          "name": "_ICORound1tokensPerETH",
          "type": "uint256"
        },
        {
          "name": "_ICORound2tokensPerETH",
          "type": "uint256"
        },
        {
          "name": "_ICORound3tokensPerETH",
          "type": "uint256"
        },
        {
          "name": "_ICORound4tokensPerETH",
          "type": "uint256"
        }
      ],
      "payable": false,
      "stateMutability": "nonpayable",
      "type": "constructor"
    },
    {
      "constant": true,
      "inputs": [],
      "name": "getCrowdsalePermission",
      "outputs": [
        {
          "name": "",
          "type": "uint8"
        }
      ],
      "payable": false,
      "stateMutability": "view",
      "type": "function"
    },
    {
      "constant": true,
      "inputs": [],
      "name": "getCrowdsaleTokenPerETH",
      "outputs": [
        {
          "name": "",
          "type": "uint256"
        }
      ],
      "payable": false,
      "stateMutability": "view",
      "type": "function"
    },
    {
      "constant": true,
      "inputs": [],
      "name": "getCrowdsaleMinVestingTokens",
      "outputs": [
        {
          "name": "",
          "type": "uint256"
        }
      ],
      "payable": false,
      "stateMutability": "view",
      "type": "function"
    },
    {
      "constant": true,
      "inputs": [],
      "name": "getCrowdsalePurchaseIsOpened",
      "outputs": [
        {
          "name": "",
          "type": "bool"
        }
      ],
      "payable": false,
      "stateMutability": "view",
      "type": "function"
    }
  ],
  "bytecode": "0x60806040523480156200001157600080fd5b5060405160c080620011f08339810180604052810190808051906020019092919080519060200190929190805190602001909291908051906020019092919080519060200190929190805190602001909291905050506040805190810160405280600c81526020017f70726557686974656c6973740000000000000000000000000000000000000000815250600080815481101515620000ad57fe5b90600052602060002090600702016000019080519060200190620000d392919062000de8565b50854201600080815481101515620000e757fe5b906000526020600020906007020160010181905550620d2f006000808154811015156200011057fe5b906000526020600020906007020160010154016000808154811015156200013357fe5b90600052602060002090600702016002018190555060036000808154811015156200015a57fe5b906000526020600020906007020160060160006101000a81548160ff021916908360038111156200018757fe5b021790555060008060008154811015156200019e57fe5b906000526020600020906007020160060160016101000a81548160ff0219169083151502179055506040805190810160405280600681526020017f70726549434f0000000000000000000000000000000000000000000000000000815250600060018154811015156200020d57fe5b906000526020600020906007020160000190805190602001906200023392919062000de8565b506000808154811015156200024457fe5b906000526020600020906007020160020154600060018154811015156200026757fe5b90600052602060002090600702016001018190555062278d00600060018154811015156200029157fe5b9060005260206000209060070201600101540160006001815481101515620002b557fe5b906000526020600020906007020160020181905550600160006001815481101515620002dd57fe5b906000526020600020906007020160060160006101000a81548160ff021916908360038111156200030a57fe5b021790555084600060018154811015156200032157fe5b90600052602060002090600702016003018190555062098968600060018154811015156200034b57fe5b9060005260206000209060070201600401819055506201d4c0600060018154811015156200037557fe5b9060005260206000209060070201600501819055506001600060018154811015156200039d57fe5b906000526020600020906007020160060160016101000a81548160ff0219169083151502179055506040805190810160405280600981526020017f57686974656c6973740000000000000000000000000000000000000000000000815250600060028154811015156200040c57fe5b906000526020600020906007020160000190805190602001906200043292919062000de8565b50600060018154811015156200044457fe5b906000526020600020906007020160020154600060028154811015156200046757fe5b906000526020600020906007020160010181905550620d2f00600060028154811015156200049157fe5b9060005260206000209060070201600101540160006002815481101515620004b557fe5b906000526020600020906007020160020181905550600360006002815481101515620004dd57fe5b906000526020600020906007020160060160006101000a81548160ff021916908360038111156200050a57fe5b021790555060008060028154811015156200052157fe5b906000526020600020906007020160060160016101000a81548160ff0219169083151502179055506040805190810160405280600981526020017f49434f526f756e64310000000000000000000000000000000000000000000000815250600060038154811015156200059057fe5b90600052602060002090600702016000019080519060200190620005b692919062000de8565b5060006002815481101515620005c857fe5b90600052602060002090600702016002015460006003815481101515620005eb57fe5b90600052602060002090600702016001018190555062093a80600060038154811015156200061557fe5b90600052602060002090600702016001015401600060038154811015156200063957fe5b90600052602060002090600702016002018190555060008060038154811015156200066057fe5b906000526020600020906007020160060160006101000a81548160ff021916908360038111156200068d57fe5b02179055508360006003815481101515620006a457fe5b906000526020600020906007020160030181905550620006dd600a8562000dd16401000000000262000307179091906401000000009004565b60006003815481101515620006ee57fe5b9060005260206000209060070201600401819055506201e848600060038154811015156200071857fe5b9060005260206000209060070201600501819055506001600060038154811015156200074057fe5b906000526020600020906007020160060160016101000a81548160ff0219169083151502179055506040805190810160405280600981526020017f49434f526f756e6432000000000000000000000000000000000000000000000081525060006004815481101515620007af57fe5b90600052602060002090600702016000019080519060200190620007d592919062000de8565b5060006003815481101515620007e757fe5b906000526020600020906007020160020154600060048154811015156200080a57fe5b90600052602060002090600702016001018190555062093a80600060048154811015156200083457fe5b90600052602060002090600702016001015401600060048154811015156200085857fe5b90600052602060002090600702016002018190555060008060048154811015156200087f57fe5b906000526020600020906007020160060160006101000a81548160ff02191690836003811115620008ac57fe5b02179055508260006004815481101515620008c357fe5b906000526020600020906007020160030181905550620008fc600a8562000dd16401000000000262000307179091906401000000009004565b600060048154811015156200090d57fe5b9060005260206000209060070201600401819055506201e848600060048154811015156200093757fe5b9060005260206000209060070201600501819055506001600060048154811015156200095f57fe5b906000526020600020906007020160060160016101000a81548160ff0219169083151502179055506040805190810160405280600981526020017f49434f526f756e6433000000000000000000000000000000000000000000000081525060006005815481101515620009ce57fe5b90600052602060002090600702016000019080519060200190620009f492919062000de8565b506000600481548110151562000a0657fe5b9060005260206000209060070201600201546000600581548110151562000a2957fe5b90600052602060002090600702016001018190555062093a806000600581548110151562000a5357fe5b906000526020600020906007020160010154016000600581548110151562000a7757fe5b906000526020600020906007020160020181905550600080600581548110151562000a9e57fe5b906000526020600020906007020160060160006101000a81548160ff0219169083600381111562000acb57fe5b0217905550816000600581548110151562000ae257fe5b90600052602060002090600702016003018190555062000b1b600a8562000dd16401000000000262000307179091906401000000009004565b6000600581548110151562000b2c57fe5b9060005260206000209060070201600401819055506201e8486000600581548110151562000b5657fe5b90600052602060002090600702016005018190555060016000600581548110151562000b7e57fe5b906000526020600020906007020160060160016101000a81548160ff0219169083151502179055506040805190810160405280600981526020017f49434f526f756e643400000000000000000000000000000000000000000000008152506000600681548110151562000bed57fe5b9060005260206000209060070201600001908051906020019062000c1392919062000de8565b506000600581548110151562000c2557fe5b9060005260206000209060070201600201546000600681548110151562000c4857fe5b90600052602060002090600702016001018190555062093a806000600681548110151562000c7257fe5b906000526020600020906007020160010154016000600681548110151562000c9657fe5b906000526020600020906007020160020181905550600080600681548110151562000cbd57fe5b906000526020600020906007020160060160006101000a81548160ff0219169083600381111562000cea57fe5b0217905550806000600681548110151562000d0157fe5b90600052602060002090600702016003018190555062000d3a600a8562000dd16401000000000262000307179091906401000000009004565b6000600681548110151562000d4b57fe5b9060005260206000209060070201600401819055506201e8486000600681548110151562000d7557fe5b90600052602060002090600702016005018190555060016000600681548110151562000d9d57fe5b906000526020600020906007020160060160016101000a81548160ff02191690831515021790555050505050505062000e97565b6000818381151562000ddf57fe5b04905092915050565b828054600181600116156101000203166002900490600052602060002090601f016020900481019282601f1062000e2b57805160ff191683800117855562000e5c565b8280016001018555821562000e5c579182015b8281111562000e5b57825182559160200191906001019062000e3e565b5b50905062000e6b919062000e6f565b5090565b62000e9491905b8082111562000e9057600081600090555060010162000e76565b5090565b90565b6103498062000ea76000396000f300608060405260043610610062576000357c0100000000000000000000000000000000000000000000000000000000900463ffffffff16806305bfe310146100675780634a6aa37c146100925780639aacbf8f146100bd578063e873ce44146100ec575b600080fd5b34801561007357600080fd5b5061007c610125565b6040518082815260200191505060405180910390f35b34801561009e57600080fd5b506100a761015c565b6040518082815260200191505060405180910390f35b3480156100c957600080fd5b506100d2610193565b604051808215151515815260200191505060405180910390f35b3480156100f857600080fd5b506101016101d7565b6040518082600381111561011157fe5b60ff16815260200191505060405180910390f35b60008061013061021b565b905060008160ff1681548110151561014457fe5b90600052602060002090600702016004015491505090565b60008061016761021b565b905060008160ff1681548110151561017b57fe5b90600052602060002090600702016003015491505090565b60008061019e61021b565b905060008160ff168154811015156101b257fe5b906000526020600020906007020160060160019054906101000a900460ff1691505090565b6000806101e261021b565b905060008160ff168154811015156101f657fe5b906000526020600020906007020160060160009054906101000a900460ff1691505090565b60008060008081548110151561022d57fe5b906000526020600020906007020160010154421180156102745750600060016000805490500381548110151561025f57fe5b90600052602060002090600702016002015442105b151561027f57600080fd5b600090505b6000805490508160ff1610156103025760008160ff168154811015156102a657fe5b906000526020600020906007020160010154421180156102e8575060008160ff168154811015156102d357fe5b90600052602060002090600702016002015442105b156102f557809150610303565b8080600101915050610284565b5b5090565b6000818381151561031457fe5b049050929150505600a165627a7a72305820f5bb28ded60692e3f9013e77dec46721c495da3cc44be05a33502fb6cec8e7330029",
  "source": "pragma solidity ^0.4.23;\r\n\r\nimport \"../Math/SafeMath.sol\";\r\n\r\ncontract RoundedCrowdsale {\r\n    using SafeMath for uint256;\r\n\r\n    enum buyerPermission {publicVestors, privateVestors, developerVestors, AccessDenied}\r\n\r\n    struct Round {\r\n        string name;\r\n        uint256 startTime;\r\n        uint256 endTime;\r\n        uint256 tokensPerETH;\r\n        uint256 minVestingTokens;\r\n        uint256 totalRoundTokens;\r\n        buyerPermission permission;\r\n        bool purchaseIsOpened;\r\n    }\r\n\r\n    Round[] crowdsaleRounds;\r\n\r\n    constructor(\r\n        uint256 cliff,\r\n        uint256 _PreICOtokensPerETH,\r\n        uint256 _ICORound1tokensPerETH,\r\n        uint256 _ICORound2tokensPerETH,\r\n        uint256 _ICORound3tokensPerETH,\r\n        uint256 _ICORound4tokensPerETH\r\n    ) public {\r\n        crowdsaleRounds[0].name = \"preWhitelist\";\r\n        crowdsaleRounds[0].startTime = now + cliff;\r\n        crowdsaleRounds[0].endTime = crowdsaleRounds[0].startTime + 10 days;\r\n        crowdsaleRounds[0].permission = buyerPermission.AccessDenied;\r\n        crowdsaleRounds[0].purchaseIsOpened = false;\r\n\r\n        crowdsaleRounds[1].name = \"preICO\";\r\n        crowdsaleRounds[1].startTime = crowdsaleRounds[0].endTime;\r\n        crowdsaleRounds[1].endTime = crowdsaleRounds[1].startTime + 30 days;\r\n        crowdsaleRounds[1].permission = buyerPermission.privateVestors;\r\n        crowdsaleRounds[1].tokensPerETH = _PreICOtokensPerETH;\r\n        crowdsaleRounds[1].minVestingTokens = 625e3;\r\n        crowdsaleRounds[1].totalRoundTokens = 120e3;\r\n        crowdsaleRounds[1].purchaseIsOpened = true;\r\n\r\n        crowdsaleRounds[2].name = \"Whitelist\";\r\n        crowdsaleRounds[2].startTime = crowdsaleRounds[1].endTime;\r\n        crowdsaleRounds[2].endTime = crowdsaleRounds[2].startTime + 10 days;\r\n        crowdsaleRounds[2].permission = buyerPermission.AccessDenied;\r\n        crowdsaleRounds[2].purchaseIsOpened = false;\r\n\r\n        crowdsaleRounds[3].name = \"ICORound1\";\r\n        crowdsaleRounds[3].startTime = crowdsaleRounds[2].endTime;\r\n        crowdsaleRounds[3].endTime = crowdsaleRounds[3].startTime + 1 weeks;\r\n        crowdsaleRounds[3].permission = buyerPermission.publicVestors;\r\n        crowdsaleRounds[3].tokensPerETH = _ICORound1tokensPerETH;\r\n        crowdsaleRounds[3].minVestingTokens = _ICORound1tokensPerETH.div(10);\r\n        crowdsaleRounds[3].totalRoundTokens = 125e3;\r\n        crowdsaleRounds[3].purchaseIsOpened = true;\r\n\r\n        crowdsaleRounds[4].name = \"ICORound2\";\r\n        crowdsaleRounds[4].startTime = crowdsaleRounds[3].endTime;\r\n        crowdsaleRounds[4].endTime = crowdsaleRounds[4].startTime + 1 weeks;\r\n        crowdsaleRounds[4].permission = buyerPermission.publicVestors;\r\n        crowdsaleRounds[4].tokensPerETH = _ICORound2tokensPerETH;\r\n        crowdsaleRounds[4].minVestingTokens = _ICORound1tokensPerETH.div(10);\r\n        crowdsaleRounds[4].totalRoundTokens = 125e3;\r\n        crowdsaleRounds[4].purchaseIsOpened = true;\r\n\r\n        crowdsaleRounds[5].name = \"ICORound3\";\r\n        crowdsaleRounds[5].startTime = crowdsaleRounds[4].endTime;\r\n        crowdsaleRounds[5].endTime = crowdsaleRounds[5].startTime + 1 weeks;\r\n        crowdsaleRounds[5].permission = buyerPermission.publicVestors;\r\n        crowdsaleRounds[5].tokensPerETH = _ICORound3tokensPerETH;\r\n        crowdsaleRounds[5].minVestingTokens = _ICORound1tokensPerETH.div(10);\r\n        crowdsaleRounds[5].totalRoundTokens = 125e3;\r\n        crowdsaleRounds[5].purchaseIsOpened = true;\r\n\r\n        crowdsaleRounds[6].name = \"ICORound4\";\r\n        crowdsaleRounds[6].startTime = crowdsaleRounds[5].endTime;\r\n        crowdsaleRounds[6].endTime = crowdsaleRounds[6].startTime + 1 weeks;\r\n        crowdsaleRounds[6].permission = buyerPermission.publicVestors;\r\n        crowdsaleRounds[6].tokensPerETH = _ICORound4tokensPerETH;\r\n        crowdsaleRounds[6].minVestingTokens = _ICORound1tokensPerETH.div(10);\r\n        crowdsaleRounds[6].totalRoundTokens = 125e3;\r\n        crowdsaleRounds[6].purchaseIsOpened = true;\r\n    }\r\n\r\n    function _getCrowdsaleRound() internal view OnlyWhileCrowdsaleNotEnded returns (uint8) {\r\n        for(uint8 i=0; i < crowdsaleRounds.length; i++) {\r\n            if (now > crowdsaleRounds[i].startTime && now < crowdsaleRounds[i].endTime) {\r\n                return i;\r\n            }\r\n        }\r\n    }\r\n\r\n    function getCrowdsalePermission() public view returns (buyerPermission) {\r\n        uint8 roundIndex = _getCrowdsaleRound();\r\n        return crowdsaleRounds[roundIndex].permission;\r\n    }\r\n\r\n    function getCrowdsaleTokenPerETH() public view returns (uint256) {\r\n        uint8 roundIndex = _getCrowdsaleRound();\r\n        return crowdsaleRounds[roundIndex].tokensPerETH;\r\n    }\r\n\r\n    function getCrowdsaleMinVestingTokens() public view returns (uint256) {\r\n        uint8 roundIndex = _getCrowdsaleRound();\r\n        return crowdsaleRounds[roundIndex].minVestingTokens;\r\n    }\r\n\r\n    function getCrowdsalePurchaseIsOpened() public view returns (bool) {\r\n        uint8 roundIndex = _getCrowdsaleRound();\r\n        return crowdsaleRounds[roundIndex].purchaseIsOpened;\r\n    }\r\n\r\n    modifier onlyWhileTokenIsPurchasable() {\r\n        require(getCrowdsalePurchaseIsOpened());\r\n        _;\r\n    }\r\n\r\n    modifier OnlyWhileCrowdsaleNotEnded() {\r\n        require(now > crowdsaleRounds[0].startTime && now < crowdsaleRounds[crowdsaleRounds.length-1].endTime);\r\n        _;\r\n    }\r\n}\r\n",
  "sourcePath": "G:\\Root\\Blockchain\\BAX\\contracts\\crowdSale\\RoundedCrowdsale.sol",
  "compiler": {
    "name": "solc",
    "version": "0.4.23+commit.124ca40d.Emscripten.clang"
  },
  "schemaVersion": "2.0.0",
  "updatedAt": "2018-05-25T13:35:00.541Z"
}