{
  "contractName": "TierCap",
  "abi": [
    {
      "constant": true,
      "inputs": [],
      "name": "hasClosed",
      "outputs": [
        {
          "name": "",
          "type": "bool"
        }
      ],
      "payable": false,
      "stateMutability": "view",
      "type": "function"
    },
    {
      "constant": true,
      "inputs": [],
      "name": "getTokensPerETH",
      "outputs": [
        {
          "name": "",
          "type": "uint256"
        }
      ],
      "payable": false,
      "stateMutability": "view",
      "type": "function"
    },
    {
      "constant": true,
      "inputs": [],
      "name": "ICOTier4hardcapToken",
      "outputs": [
        {
          "name": "",
          "type": "uint256"
        }
      ],
      "payable": false,
      "stateMutability": "view",
      "type": "function"
    },
    {
      "constant": true,
      "inputs": [],
      "name": "getTier",
      "outputs": [
        {
          "name": "",
          "type": "uint8"
        }
      ],
      "payable": false,
      "stateMutability": "view",
      "type": "function"
    },
    {
      "constant": true,
      "inputs": [],
      "name": "ICOTier3hardcapToken",
      "outputs": [
        {
          "name": "",
          "type": "uint256"
        }
      ],
      "payable": false,
      "stateMutability": "view",
      "type": "function"
    },
    {
      "constant": true,
      "inputs": [],
      "name": "ICOTier1hardcapToken",
      "outputs": [
        {
          "name": "",
          "type": "uint256"
        }
      ],
      "payable": false,
      "stateMutability": "view",
      "type": "function"
    },
    {
      "constant": true,
      "inputs": [],
      "name": "preICOherdcapToken",
      "outputs": [
        {
          "name": "",
          "type": "uint256"
        }
      ],
      "payable": false,
      "stateMutability": "view",
      "type": "function"
    },
    {
      "constant": true,
      "inputs": [],
      "name": "hardcapToken",
      "outputs": [
        {
          "name": "",
          "type": "uint256"
        }
      ],
      "payable": false,
      "stateMutability": "view",
      "type": "function"
    },
    {
      "constant": true,
      "inputs": [],
      "name": "ICOTier2hardcapToken",
      "outputs": [
        {
          "name": "",
          "type": "uint256"
        }
      ],
      "payable": false,
      "stateMutability": "view",
      "type": "function"
    },
    {
      "constant": true,
      "inputs": [],
      "name": "getTierHardcapToken",
      "outputs": [
        {
          "name": "",
          "type": "uint256"
        }
      ],
      "payable": false,
      "stateMutability": "view",
      "type": "function"
    }
  ],
  "bytecode": "0x6080604052633b9aca00600a55610031622dc6c0600454610072640100000000026106e0179091906401000000009004565b600b556307270e00600c55641d1a94a200600d55641d1a94a200600e55641d1a94a200600f55641d1a94a20060105534801561006c57600080fd5b506100aa565b60008083141561008557600090506100a4565b818302905081838281151561009657fe5b041415156100a057fe5b8090505b92915050565b610744806100b96000396000f3006080604052600436106100a4576000357c0100000000000000000000000000000000000000000000000000000000900463ffffffff1680631515bc2b146100a95780633be961b5146100d857806352f20fd2146101035780635ad701c21461012e5780637480fba8146101675780639bade61214610192578063a2390d13146101bd578063ba07ac0e146101e8578063d13621e614610213578063e537697e1461023e575b600080fd5b3480156100b557600080fd5b506100be610269565b604051808215151515815260200191505060405180910390f35b3480156100e457600080fd5b506100ed610281565b6040518082815260200191505060405180910390f35b34801561010f57600080fd5b506101186103b8565b6040518082815260200191505060405180910390f35b34801561013a57600080fd5b506101436103be565b6040518082600681111561015357fe5b60ff16815260200191505060405180910390f35b34801561017357600080fd5b5061017c6103fe565b6040518082815260200191505060405180910390f35b34801561019e57600080fd5b506101a7610404565b6040518082815260200191505060405180910390f35b3480156101c957600080fd5b506101d261040a565b6040518082815260200191505060405180910390f35b3480156101f457600080fd5b506101fd610410565b6040518082815260200191505060405180910390f35b34801561021f57600080fd5b50610228610416565b6040518082815260200191505060405180910390f35b34801561024a57600080fd5b5061025361041c565b6040518082815260200191505060405180910390f35b600080544211801561027c575060015442105b905090565b600080600061028e6103be565b90506005600681111561029d57fe5b8160068111156102a957fe5b141515156102b657600080fd5b6006808111156102c257fe5b8160068111156102ce57fe5b141515156102db57600080fd5b6102e36103be565b9150600060068111156102f257fe5b8260068111156102fe57fe5b141561030e5760055492506103b3565b6001600681111561031b57fe5b82600681111561032757fe5b14156103375760065492506103b3565b6002600681111561034457fe5b82600681111561035057fe5b14156103605760075492506103b3565b6003600681111561036d57fe5b82600681111561037957fe5b14156103895760085492506103b3565b6004600681111561039657fe5b8260068111156103a257fe5b14156103b25760095492506103b3565b5b505090565b60105481565b600060036103ca61062f565b60ff168154811015156103d957fe5b90600052602060002090602091828204019190069054906101000a900460ff16905090565b600f5481565b600d5481565b600c5481565b600a5481565b600e5481565b600080610427610269565b15151561043357600080fd5b600061043d6103be565b90506005600681111561044c57fe5b81600681111561045857fe5b1415151561046557600080fd5b60068081111561047157fe5b81600681111561047d57fe5b1415151561048a57600080fd5b6104926103be565b9150600060068111156104a157fe5b8260068111156104ad57fe5b14156104bd57600c54925061062a565b600160068111156104ca57fe5b8260068111156104d657fe5b14156104fa576104f3600c54600d546106c490919063ffffffff16565b925061062a565b6002600681111561050757fe5b82600681111561051357fe5b141561054b57610544600c54610536600d54600e546106c490919063ffffffff16565b6106c490919063ffffffff16565b925061062a565b6003600681111561055857fe5b82600681111561056457fe5b14156105b0576105a9600c5461059b600d5461058d600e54600f546106c490919063ffffffff16565b6106c490919063ffffffff16565b6106c490919063ffffffff16565b925061062a565b600460068111156105bd57fe5b8260068111156105c957fe5b141561062957610622600c54610614600d54610606600e546105f8600f546010546106c490919063ffffffff16565b6106c490919063ffffffff16565b6106c490919063ffffffff16565b6106c490919063ffffffff16565b925061062a565b5b505090565b60008061063a610269565b15151561064657600080fd5b600090505b6003805490508160ff1610156106bf57600260008260ff1660ff1681526020019081526020016000206000015442101580156106a55750600260006001830160ff1660ff1681526020019081526020016000206000015442105b156106b2578091506106c0565b808060010191505061064b565b5b5090565b600081830190508281101515156106d757fe5b80905092915050565b6000808314156106f35760009050610712565b818302905081838281151561070457fe5b0414151561070e57fe5b8090505b929150505600a165627a7a72305820e93ee667740c244b29f7c38ba7ed41878c4ad35abe2a146daa2235f4e27450430029",
  "source": "pragma solidity ^0.4.23;\r\n\r\nimport \"./TierPricing.sol\";\r\n\r\ncontract TierCap is TierPricing {\r\n    uint256 public hardcapToken = 1e9;\r\n    uint256 internal softcapEth = ETH_USD.mul(3e6);\r\n    uint256 public preICOherdcapToken = 120e6;\r\n    uint256 public ICOTier1hardcapToken = 125e9;\r\n    uint256 public ICOTier2hardcapToken = 125e9;\r\n    uint256 public ICOTier3hardcapToken = 125e9;\r\n    uint256 public ICOTier4hardcapToken = 125e9;\r\n\r\n    function getTierHardcapToken() \r\n    public \r\n    view\r\n    onlyWhieNotClosed\r\n    purchaseAllowed\r\n    returns (uint256) {\r\n        Rounds round = getTier();\r\n        if (round == Rounds.preICO) {\r\n            return preICOherdcapToken;\r\n        } else if (round == Rounds.ICORound1) {\r\n            return ICOTier1hardcapToken.add(preICOherdcapToken);\r\n        } else if (round == Rounds.ICORound2) {\r\n            return ICOTier2hardcapToken.add(ICOTier1hardcapToken).add(preICOherdcapToken);\r\n        } else if (round == Rounds.ICORound3) {\r\n            return ICOTier3hardcapToken.add(ICOTier2hardcapToken).add(ICOTier1hardcapToken).add(preICOherdcapToken);\r\n        } else if (round == Rounds.ICORound4) {\r\n            return ICOTier4hardcapToken.add(ICOTier3hardcapToken).add(ICOTier2hardcapToken).add(ICOTier1hardcapToken).add(preICOherdcapToken);\r\n        }\r\n    }\r\n\r\n}",
  "sourcePath": "G:\\Root\\Blockchain\\BAX\\contracts\\crowdSale\\TierCap.sol",
  "compiler": {
    "name": "solc",
    "version": "0.4.23+commit.124ca40d.Emscripten.clang"
  },
  "schemaVersion": "2.0.0",
  "updatedAt": "2018-05-29T10:45:28.283Z"
}