{
  "contractName": "TierLine",
  "abi": [
    {
      "constant": true,
      "inputs": [],
      "name": "currentTier",
      "outputs": [
        {
          "name": "",
          "type": "uint8"
        }
      ],
      "payable": false,
      "stateMutability": "view",
      "type": "function"
    },
    {
      "constant": true,
      "inputs": [],
      "name": "currentTierHardcap",
      "outputs": [
        {
          "name": "",
          "type": "uint256"
        }
      ],
      "payable": false,
      "stateMutability": "view",
      "type": "function"
    },
    {
      "constant": true,
      "inputs": [],
      "name": "currentSaleTokenWeiHardcap",
      "outputs": [
        {
          "name": "",
          "type": "uint256"
        }
      ],
      "payable": false,
      "stateMutability": "view",
      "type": "function"
    },
    {
      "constant": true,
      "inputs": [],
      "name": "currentTierTokenWeisPerEth",
      "outputs": [
        {
          "name": "",
          "type": "uint256"
        }
      ],
      "payable": false,
      "stateMutability": "view",
      "type": "function"
    },
    {
      "constant": true,
      "inputs": [],
      "name": "hasOpened",
      "outputs": [
        {
          "name": "",
          "type": "bool"
        }
      ],
      "payable": false,
      "stateMutability": "view",
      "type": "function"
    },
    {
      "constant": true,
      "inputs": [],
      "name": "hasClosed",
      "outputs": [
        {
          "name": "",
          "type": "bool"
        }
      ],
      "payable": false,
      "stateMutability": "view",
      "type": "function"
    }
  ],
  "bytecode": "0x608060405234801561001057600080fd5b506103de806100206000396000f300608060405260043610610078576000357c0100000000000000000000000000000000000000000000000000000000900463ffffffff1680631515bc2b1461007d578063301df9dd146100ac5780639fc2e24f146100d7578063bbe8a46614610102578063be8eef8e1461012d578063d679677a1461015c575b600080fd5b34801561008957600080fd5b50610092610195565b604051808215151515815260200191505060405180910390f35b3480156100b857600080fd5b506100c16101c6565b6040518082815260200191505060405180910390f35b3480156100e357600080fd5b506100ec6101f4565b6040518082815260200191505060405180910390f35b34801561010e57600080fd5b50610117610257565b6040518082815260200191505060405180910390f35b34801561013957600080fd5b50610142610285565b604051808215151515815260200191505060405180910390f35b34801561016857600080fd5b506101716102b0565b6040518082600681111561018157fe5b60ff16815260200191505060405180910390f35b6000806001600080549050038154811015156101ad57fe5b9060005260206000209060060201600201544211905090565b6000806101d16102eb565b8154811015156101dd57fe5b906000526020600020906006020160030154905090565b60008060008090505b6102056102eb565b8111151561024f5761024060008281548110151561021f57fe5b9060005260206000209060060201600301548361039690919063ffffffff16565b915080806001019150506101fd565b819250505090565b6000806102626102eb565b81548110151561026e57fe5b906000526020600020906006020160040154905090565b600080600081548110151561029657fe5b906000526020600020906006020160010154421015905090565b6000806102bb6102eb565b8154811015156102c757fe5b906000526020600020906006020160000160009054906101000a900460ff16905090565b6000806102f6610285565b151561030157600080fd5b610309610195565b15151561031557600080fd5b600090505b6000805490508110156103915760008181548110151561033657fe5b9060005260206000209060060201600101544210158015610377575060008181548110151561036157fe5b9060005260206000209060060201600201544211155b1561038457809150610392565b808060010191505061031a565b5b5090565b600081830190508281101515156103a957fe5b809050929150505600a165627a7a72305820e5e0cd224e2a40f7e12f94b82335a9042478ebbdc2b40b27cea8e40b2564d8190029",
  "source": "pragma solidity ^0.4.23;\r\n\r\nimport \"../Math/SafeMath.sol\";\r\n\r\n/**\r\n * @title TierLine\r\n * @dev TierLine contract intended to manage ICO Rounds with a set of specified parameters.\r\n * @author h.namazian\r\n */\r\ncontract TierLine {\r\n    using SafeMath for uint256;\r\n\r\n    enum TierStates {preWhitelist, preICO, Whitelist, ICORound1, ICORound2, ICORound3, ICORound4}\r\n\r\n    /**\r\n     *@dev Tier structure specifies main parameters of each ICO round.\r\n     *@param state defines the ICO round.\r\n     *@param opening Time from which this round stats.\r\n     *@parma ending Time at which this round ends.\r\n     *@param hardcapTokenWei Maximum number of tokens (showed in all decimals) could be sold at this round.\r\n     *@param tokenWeisPerEtc Number of tokens (showed in all decimals) could be purchased in return for 1 ETH.\r\n     *@param purchaseAllowed Specifies whether token purchase is allowed at this ICO round.\r\n     */\r\n    struct Tier {\r\n        TierStates state;\r\n        uint256 opening;\r\n        uint256 ending;\r\n        uint256 hardcapTokenWei;\r\n        uint256 tokenWeisPerEth;\r\n        bool purchaseAllowed;\r\n    }\r\n    Tier[] Tiers;\r\n\r\n    /**\r\n     * @dev Adds a new ICO round to the arrays of Tiers with a set of passed parameters.\r\n     *@param state defines the ICO round.\r\n     *@param opening Time from which this round stats.\r\n     *@parma ending Time at which this round ends.\r\n     *@param hardcapTokenWei Maximum number of tokens (showed in all decimals) could be sold at this round.\r\n     *@param tokenWeisPerEtc Number of tokens (showed in all decimals) could be purchased in return for 1 ETH.\r\n     *@param purchaseAllowed Specifies whether token purchase is allowed at this ICO round.\r\n     */\r\n    function addTier(\r\n        TierStates _state,\r\n        uint256 _opening, \r\n        uint256 _ending, \r\n        uint256 _hardcapTokenWei, \r\n        uint256 _tokenWeisPerEth,\r\n        bool _purchaseAllowed)\r\n    internal\r\n    { \r\n        require(_ending > _opening);\r\n        if (Tiers.length > 0) {\r\n            require(_opening >= Tiers[Tiers.length-1].ending);\r\n        }\r\n        \r\n        Tier memory newTier;\r\n        newTier.state = _state;\r\n        newTier.opening = _opening;\r\n        newTier.ending = _ending;\r\n        newTier.hardcapTokenWei = _hardcapTokenWei;\r\n        newTier.tokenWeisPerEth = _tokenWeisPerEth;\r\n        newTier.purchaseAllowed = _purchaseAllowed;\r\n        Tiers.push(newTier);\r\n    }\r\n\r\n    /**\r\n     * @dev Internal function returns the Index of ICO round running at this moment.\r\n     */\r\n    function _tierIndex() internal view onlyWhileIsOpened onlyWhileNotClosed returns (uint256) {\r\n        for (uint256 i = 0; i < Tiers.length; i++) {\r\n            if (now >= Tiers[i].opening && now <= Tiers[i].ending) {\r\n                return i;\r\n            }\r\n        }\r\n    }\r\n\r\n    /**\r\n     * @dev Returns the current ICO round with repect to TierStates Enum.\r\n     */\r\n    function currentTier() public view returns (TierStates) {\r\n        return Tiers[_tierIndex()].state;\r\n    }\r\n\r\n    /**\r\n     * @dev Returns maximum number of purchasable tokens assigned to the ICO round running at the moment.\r\n     * @return A uint256 specifying total number of purchasable tokens assigned to this ICO round.\r\n     */\r\n    function currentTierHardcap() public view returns (uint256) {\r\n        return Tiers[_tierIndex()].hardcapTokenWei;\r\n    }\r\n\r\n    /**\r\n     * @dev Returns number of purchasable tokens assigned to the ICO round running at the moment in addition to \r\n     * remaining tokens not being sold in previous rounds.\r\n     * @return A uint256 specifying total number of purcahsable tokens could be sold by the end of this ICO round.\r\n     */\r\n    function currentSaleTokenWeiHardcap() public view returns (uint256) {\r\n        uint256 hardcaptoken;\r\n        for (uint256 i = 0; i <= _tierIndex(); i++) {\r\n            hardcaptoken = hardcaptoken.add(Tiers[i].hardcapTokenWei);\r\n        }\r\n        return hardcaptoken;\r\n    }\r\n\r\n    /**\r\n     * @dev Returns number of tokens could be sold in return for 1 ETH.\r\n     * @return A uint256 number of tokens in return for 1 ETH.\r\n     */\r\n    function currentTierTokenWeisPerEth() public view returns (uint256) {\r\n        return Tiers[_tierIndex()].tokenWeisPerEth;\r\n    }\r\n\r\n    /**\r\n     * @dev Requires the crowdsale has already been opened.\r\n     */\r\n    function hasOpened() public view returns (bool) {\r\n        return (now >= Tiers[0].opening);\r\n    }\r\n\r\n    /**\r\n     * @dev Requires the crowdsale has been already closed.\r\n     */\r\n    function hasClosed() public view returns (bool) {\r\n        return (now > Tiers[Tiers.length-1].ending);\r\n    }\r\n\r\n    /**\r\n     * @dev A modifier requiring the ICO is running at the specified round.\r\n     * @param _tier Specifies an ICO round.\r\n     */\r\n    modifier onlyAtTier(TierStates _tier) {\r\n        require(currentTier() == _tier);\r\n        _;\r\n    }\r\n\r\n    /**\r\n     * @dev A modifier requiring the crowdsale has already been opened.\r\n     */\r\n    modifier onlyWhileIsOpened() {\r\n        require(hasOpened());\r\n        _;\r\n    }\r\n\r\n    /**\r\n     * @dev A modifier requiring the crowdsale has not yet been closed.\r\n     */\r\n    modifier onlyWhileNotClosed() {\r\n        require(!hasClosed());\r\n        _;\r\n    }\r\n\r\n    /**\r\n     * @dev A modifier requiring token purchase is allowed at the moment.\r\n     */\r\n    modifier purchaseAllowed() {\r\n        require(Tiers[_tierIndex()].purchaseAllowed);\r\n        _;\r\n    }\r\n\r\n    /**\r\n     * @dev A modifier requiring whitelisting process is allowed at the moment.\r\n     */\r\n    modifier whitelistingAllowed() {\r\n        require(\r\n            Tiers[_tierIndex()].state == TierStates.preWhitelist ||\r\n            Tiers[_tierIndex()].state == TierStates.Whitelist);\r\n        _;\r\n    }\r\n\r\n}",
  "sourcePath": "G:\\Root\\Blockchain\\WOX\\contracts\\crowdSale\\TierLine.sol",
  "compiler": {
    "name": "solc",
    "version": "0.4.23+commit.124ca40d.Emscripten.clang"
  },
  "schemaVersion": "2.0.0",
  "updatedAt": "2018-06-27T04:31:22.450Z"
}