{
  "contractName": "TierPricing",
  "abi": [
    {
      "constant": true,
      "inputs": [],
      "name": "hasClosed",
      "outputs": [
        {
          "name": "",
          "type": "bool"
        }
      ],
      "payable": false,
      "stateMutability": "view",
      "type": "function"
    },
    {
      "constant": true,
      "inputs": [],
      "name": "getTier",
      "outputs": [
        {
          "name": "",
          "type": "uint8"
        }
      ],
      "payable": false,
      "stateMutability": "view",
      "type": "function"
    },
    {
      "constant": true,
      "inputs": [],
      "name": "getTokensPerETH",
      "outputs": [
        {
          "name": "",
          "type": "uint256"
        }
      ],
      "payable": false,
      "stateMutability": "view",
      "type": "function"
    }
  ],
  "bytecode": "0x608060405234801561001057600080fd5b5061033f806100206000396000f300608060405260043610610057576000357c0100000000000000000000000000000000000000000000000000000000900463ffffffff1680631515bc2b1461005c5780633be961b51461008b5780635ad701c2146100b6575b600080fd5b34801561006857600080fd5b506100716100ef565b604051808215151515815260200191505060405180910390f35b34801561009757600080fd5b506100a0610107565b6040518082815260200191505060405180910390f35b3480156100c257600080fd5b506100cb61023e565b604051808260068111156100db57fe5b60ff16815260200191505060405180910390f35b6000805442118015610102575060015442105b905090565b600080600061011461023e565b90506005600681111561012357fe5b81600681111561012f57fe5b1415151561013c57600080fd5b60068081111561014857fe5b81600681111561015457fe5b1415151561016157600080fd5b61016961023e565b91506000600681111561017857fe5b82600681111561018457fe5b1415610194576005549250610239565b600160068111156101a157fe5b8260068111156101ad57fe5b14156101bd576006549250610239565b600260068111156101ca57fe5b8260068111156101d657fe5b14156101e6576007549250610239565b600360068111156101f357fe5b8260068111156101ff57fe5b141561020f576008549250610239565b6004600681111561021c57fe5b82600681111561022857fe5b1415610238576009549250610239565b5b505090565b6000600361024a61027e565b60ff1681548110151561025957fe5b90600052602060002090602091828204019190069054906101000a900460ff16905090565b6000806102896100ef565b15151561029557600080fd5b600090505b6003805490508160ff16101561030e57600260008260ff1660ff1681526020019081526020016000206000015442101580156102f45750600260006001830160ff1660ff1681526020019081526020016000206000015442105b156103015780915061030f565b808060010191505061029a565b5b50905600a165627a7a72305820aa1bb6ed4c67f656cbe350a39daf2f4ef80ee0b5230abc47c40a942fe92c8b930029",
  "source": "pragma solidity ^0.4.23;\r\n\r\nimport \"./Tierline.sol\";\r\n\r\ncontract TierPricing is Tierline {\r\n    uint256 ETH_USD;\r\n    uint256 preICOtokensPerETH;\r\n    uint256 ICOTier1tokensPerETH;\r\n    uint256 ICOTier2tokensPerETH;\r\n    uint256 ICOTier3tokensPerETH;\r\n    uint256 ICOTier4tokensPerETH;\r\n\r\n    function getTokensPerETH() \r\n    public \r\n    view \r\n    purchaseAllowed \r\n    returns (uint256) \r\n    {\r\n        Rounds round = getTier();\r\n        if (round == Rounds.preICO) {\r\n            return preICOtokensPerETH;\r\n        } else if (round == Rounds.ICORound1) {\r\n            return ICOTier1tokensPerETH;\r\n        } else if (round == Rounds.ICORound2) {\r\n            return ICOTier2tokensPerETH;\r\n        } else if (round == Rounds.ICORound3) {\r\n            return ICOTier3tokensPerETH;\r\n        } else if (round == Rounds.ICORound4) {\r\n            return ICOTier4tokensPerETH;\r\n        }\r\n    }\r\n\r\n    modifier purchaseAllowed() {\r\n        Rounds round = getTier();\r\n        require(round != Rounds.preWhitelist);\r\n        require(round != Rounds.Whitelist);\r\n        _;\r\n    }\r\n}",
  "sourcePath": "G:\\Root\\Blockchain\\BAX\\contracts\\crowdSale\\TierPricing.sol",
  "compiler": {
    "name": "solc",
    "version": "0.4.23+commit.124ca40d.Emscripten.clang"
  },
  "schemaVersion": "2.0.0",
  "updatedAt": "2018-05-29T10:45:28.287Z"
}