{
  "contractName": "WhitelistedCrowdsale",
  "abi": [
    {
      "constant": true,
      "inputs": [],
      "name": "hasClosed",
      "outputs": [
        {
          "name": "",
          "type": "bool"
        }
      ],
      "payable": false,
      "stateMutability": "view",
      "type": "function"
    },
    {
      "constant": true,
      "inputs": [],
      "name": "getTokensPerETH",
      "outputs": [
        {
          "name": "",
          "type": "uint256"
        }
      ],
      "payable": false,
      "stateMutability": "view",
      "type": "function"
    },
    {
      "constant": true,
      "inputs": [],
      "name": "maxVestingEth",
      "outputs": [
        {
          "name": "",
          "type": "uint256"
        }
      ],
      "payable": false,
      "stateMutability": "view",
      "type": "function"
    },
    {
      "constant": true,
      "inputs": [],
      "name": "weiRaised",
      "outputs": [
        {
          "name": "",
          "type": "uint256"
        }
      ],
      "payable": false,
      "stateMutability": "view",
      "type": "function"
    },
    {
      "constant": true,
      "inputs": [],
      "name": "tokenSold",
      "outputs": [
        {
          "name": "",
          "type": "uint256"
        }
      ],
      "payable": false,
      "stateMutability": "view",
      "type": "function"
    },
    {
      "constant": true,
      "inputs": [],
      "name": "wallet",
      "outputs": [
        {
          "name": "",
          "type": "address"
        }
      ],
      "payable": false,
      "stateMutability": "view",
      "type": "function"
    },
    {
      "constant": true,
      "inputs": [],
      "name": "ICOTier4hardcapToken",
      "outputs": [
        {
          "name": "",
          "type": "uint256"
        }
      ],
      "payable": false,
      "stateMutability": "view",
      "type": "function"
    },
    {
      "constant": false,
      "inputs": [
        {
          "name": "_beneficiary",
          "type": "address"
        }
      ],
      "name": "addToVC",
      "outputs": [],
      "payable": false,
      "stateMutability": "nonpayable",
      "type": "function"
    },
    {
      "constant": true,
      "inputs": [],
      "name": "getTier",
      "outputs": [
        {
          "name": "",
          "type": "uint8"
        }
      ],
      "payable": false,
      "stateMutability": "view",
      "type": "function"
    },
    {
      "constant": false,
      "inputs": [],
      "name": "renounceOwnership",
      "outputs": [],
      "payable": false,
      "stateMutability": "nonpayable",
      "type": "function"
    },
    {
      "constant": true,
      "inputs": [],
      "name": "ICOTier3hardcapToken",
      "outputs": [
        {
          "name": "",
          "type": "uint256"
        }
      ],
      "payable": false,
      "stateMutability": "view",
      "type": "function"
    },
    {
      "constant": true,
      "inputs": [
        {
          "name": "_beneficiary",
          "type": "address"
        }
      ],
      "name": "whtielistedAsVC",
      "outputs": [
        {
          "name": "",
          "type": "bool"
        }
      ],
      "payable": false,
      "stateMutability": "view",
      "type": "function"
    },
    {
      "constant": true,
      "inputs": [],
      "name": "owner",
      "outputs": [
        {
          "name": "",
          "type": "address"
        }
      ],
      "payable": false,
      "stateMutability": "view",
      "type": "function"
    },
    {
      "constant": true,
      "inputs": [],
      "name": "minVestingEth",
      "outputs": [
        {
          "name": "",
          "type": "uint256"
        }
      ],
      "payable": false,
      "stateMutability": "view",
      "type": "function"
    },
    {
      "constant": true,
      "inputs": [],
      "name": "ICOTier1hardcapToken",
      "outputs": [
        {
          "name": "",
          "type": "uint256"
        }
      ],
      "payable": false,
      "stateMutability": "view",
      "type": "function"
    },
    {
      "constant": false,
      "inputs": [
        {
          "name": "_beneficiary",
          "type": "address"
        }
      ],
      "name": "removeFromVC",
      "outputs": [],
      "payable": false,
      "stateMutability": "nonpayable",
      "type": "function"
    },
    {
      "constant": true,
      "inputs": [],
      "name": "preICOherdcapToken",
      "outputs": [
        {
          "name": "",
          "type": "uint256"
        }
      ],
      "payable": false,
      "stateMutability": "view",
      "type": "function"
    },
    {
      "constant": true,
      "inputs": [],
      "name": "hardcapToken",
      "outputs": [
        {
          "name": "",
          "type": "uint256"
        }
      ],
      "payable": false,
      "stateMutability": "view",
      "type": "function"
    },
    {
      "constant": true,
      "inputs": [],
      "name": "ICOTier2hardcapToken",
      "outputs": [
        {
          "name": "",
          "type": "uint256"
        }
      ],
      "payable": false,
      "stateMutability": "view",
      "type": "function"
    },
    {
      "constant": true,
      "inputs": [],
      "name": "getTierHardcapToken",
      "outputs": [
        {
          "name": "",
          "type": "uint256"
        }
      ],
      "payable": false,
      "stateMutability": "view",
      "type": "function"
    },
    {
      "constant": false,
      "inputs": [
        {
          "name": "newOwner",
          "type": "address"
        }
      ],
      "name": "transferOwnership",
      "outputs": [],
      "payable": false,
      "stateMutability": "nonpayable",
      "type": "function"
    },
    {
      "constant": true,
      "inputs": [],
      "name": "token",
      "outputs": [
        {
          "name": "",
          "type": "address"
        }
      ],
      "payable": false,
      "stateMutability": "view",
      "type": "function"
    },
    {
      "payable": true,
      "stateMutability": "payable",
      "type": "fallback"
    },
    {
      "anonymous": false,
      "inputs": [
        {
          "indexed": true,
          "name": "purchaser",
          "type": "address"
        },
        {
          "indexed": true,
          "name": "beneficiary",
          "type": "address"
        },
        {
          "indexed": false,
          "name": "value",
          "type": "uint256"
        },
        {
          "indexed": false,
          "name": "amount",
          "type": "uint256"
        }
      ],
      "name": "TokenPurchase",
      "type": "event"
    },
    {
      "anonymous": false,
      "inputs": [
        {
          "indexed": true,
          "name": "previousOwner",
          "type": "address"
        }
      ],
      "name": "OwnershipRenounced",
      "type": "event"
    },
    {
      "anonymous": false,
      "inputs": [
        {
          "indexed": true,
          "name": "previousOwner",
          "type": "address"
        },
        {
          "indexed": true,
          "name": "newOwner",
          "type": "address"
        }
      ],
      "name": "OwnershipTransferred",
      "type": "event"
    },
    {
      "constant": false,
      "inputs": [
        {
          "name": "_beneficiary",
          "type": "address"
        }
      ],
      "name": "buyTokens",
      "outputs": [],
      "payable": true,
      "stateMutability": "payable",
      "type": "function"
    }
  ],
  "bytecode": "0x6080604052633b9aca00600b5562000034622dc6c06005546200011f6401000000000262001455179091906401000000009004565b600c556307270e00600d55641d1a94a200600e55641d1a94a200600f55641d1a94a200601055641d1a94a200601155336000806101000a81548173ffffffffffffffffffffffffffffffffffffffff021916908373ffffffffffffffffffffffffffffffffffffffff160217905550620000f4670de0b6b3a7640000620000d760055461c3506200015b64010000000002620015e3179091906401000000009004565b6200011f6401000000000262001455179091906401000000009004565b60188190555067016345785d8a0000601a81905550681043561a8829300000601b8190555062000172565b60008083141562000134576000905062000155565b81830290508183828115156200014657fe5b041415156200015157fe5b8090505b92915050565b600081838115156200016957fe5b04905092915050565b61162580620001826000396000f300608060405260043610610133576000357c0100000000000000000000000000000000000000000000000000000000900463ffffffff1680631515bc2b1461013e5780633be961b51461016d5780633dd2b7ae146101985780634042b66f146101c3578063519ee19e146101ee578063521eb2731461021957806352f20fd21461027057806353fe21ad1461029b5780635ad701c2146102de578063715018a6146103175780637480fba81461032e578063792d7ec3146103595780638da5cb5b146103b4578063918f72c51461040b5780639bade612146104365780639fb160aa14610461578063a2390d13146104a4578063ba07ac0e146104cf578063d13621e6146104fa578063e537697e14610525578063ec8ac4d814610550578063f2fde38b14610586578063fc0c546a146105c9575b61013c33610620565b005b34801561014a57600080fd5b50610153610698565b604051808215151515815260200191505060405180910390f35b34801561017957600080fd5b506101826106b1565b6040518082815260200191505060405180910390f35b3480156101a457600080fd5b506101ad6107e8565b6040518082815260200191505060405180910390f35b3480156101cf57600080fd5b506101d8610894565b6040518082815260200191505060405180910390f35b3480156101fa57600080fd5b5061020361089a565b6040518082815260200191505060405180910390f35b34801561022557600080fd5b5061022e6108a0565b604051808273ffffffffffffffffffffffffffffffffffffffff1673ffffffffffffffffffffffffffffffffffffffff16815260200191505060405180910390f35b34801561027c57600080fd5b506102856108c6565b6040518082815260200191505060405180910390f35b3480156102a757600080fd5b506102dc600480360381019080803573ffffffffffffffffffffffffffffffffffffffff1690602001909291905050506108cc565b005b3480156102ea57600080fd5b506102f361093e565b6040518082600681111561030357fe5b60ff16815260200191505060405180910390f35b34801561032357600080fd5b5061032c61097e565b005b34801561033a57600080fd5b50610343610a80565b6040518082815260200191505060405180910390f35b34801561036557600080fd5b5061039a600480360381019080803573ffffffffffffffffffffffffffffffffffffffff169060200190929190505050610a86565b604051808215151515815260200191505060405180910390f35b3480156103c057600080fd5b506103c9610aa1565b604051808273ffffffffffffffffffffffffffffffffffffffff1673ffffffffffffffffffffffffffffffffffffffff16815260200191505060405180910390f35b34801561041757600080fd5b50610420610ac6565b6040518082815260200191505060405180910390f35b34801561044257600080fd5b5061044b610b72565b6040518082815260200191505060405180910390f35b34801561046d57600080fd5b506104a2600480360381019080803573ffffffffffffffffffffffffffffffffffffffff169060200190929190505050610b78565b005b3480156104b057600080fd5b506104b9610bea565b6040518082815260200191505060405180910390f35b3480156104db57600080fd5b506104e4610bf0565b6040518082815260200191505060405180910390f35b34801561050657600080fd5b5061050f610bf6565b6040518082815260200191505060405180910390f35b34801561053157600080fd5b5061053a610bfc565b6040518082815260200191505060405180910390f35b610584600480360381019080803573ffffffffffffffffffffffffffffffffffffffff169060200190929190505050610620565b005b34801561059257600080fd5b506105c7600480360381019080803573ffffffffffffffffffffffffffffffffffffffff169060200190929190505050610e0f565b005b3480156105d557600080fd5b506105de610f64565b604051808273ffffffffffffffffffffffffffffffffffffffff1673ffffffffffffffffffffffffffffffffffffffff16815260200191505060405180910390f35b600061062a61093e565b90506005600681111561063957fe5b81600681111561064557fe5b1415151561065257600080fd5b60068081111561065e57fe5b81600681111561066a57fe5b1415151561067757600080fd5b61067f610698565b15151561068b57600080fd5b61069482610f8a565b5050565b6000600154421180156106ac575060025442105b905090565b60008060006106be61093e565b9050600560068111156106cd57fe5b8160068111156106d957fe5b141515156106e657600080fd5b6006808111156106f257fe5b8160068111156106fe57fe5b1415151561070b57600080fd5b61071361093e565b91506000600681111561072257fe5b82600681111561072e57fe5b141561073e5760065492506107e3565b6001600681111561074b57fe5b82600681111561075757fe5b14156107675760075492506107e3565b6002600681111561077457fe5b82600681111561078057fe5b14156107905760085492506107e3565b6003600681111561079d57fe5b8260068111156107a957fe5b14156107b95760095492506107e3565b600460068111156107c657fe5b8260068111156107d257fe5b14156107e257600a5492506107e3565b5b505090565b6000806107f3610698565b1515156107ff57600080fd5b600061080961093e565b90506005600681111561081857fe5b81600681111561082457fe5b1415151561083157600080fd5b60068081111561083d57fe5b81600681111561084957fe5b1415151561085657600080fd5b61085e61093e565b91506000600681111561086d57fe5b82600681111561087957fe5b141561088957601954925061088f565b601b5492505b505090565b60145481565b60165481565b601360009054906101000a900473ffffffffffffffffffffffffffffffffffffffff1681565b60115481565b6000809054906101000a900473ffffffffffffffffffffffffffffffffffffffff1673ffffffffffffffffffffffffffffffffffffffff163373ffffffffffffffffffffffffffffffffffffffff1614151561092757600080fd5b61093b81601761104890919063ffffffff16565b50565b6000600461094a6110a6565b60ff1681548110151561095957fe5b90600052602060002090602091828204019190069054906101000a900460ff16905090565b6000809054906101000a900473ffffffffffffffffffffffffffffffffffffffff1673ffffffffffffffffffffffffffffffffffffffff163373ffffffffffffffffffffffffffffffffffffffff161415156109d957600080fd5b6000809054906101000a900473ffffffffffffffffffffffffffffffffffffffff1673ffffffffffffffffffffffffffffffffffffffff167ff8df31144d9c2f0f6b59d69b8b98abd5459d07f2742c4df920b25aae33c6482060405160405180910390a260008060006101000a81548173ffffffffffffffffffffffffffffffffffffffff021916908373ffffffffffffffffffffffffffffffffffffffff160217905550565b60105481565b6000610a9c82601761113b90919063ffffffff16565b919050565b6000809054906101000a900473ffffffffffffffffffffffffffffffffffffffff1681565b600080610ad1610698565b151515610add57600080fd5b6000610ae761093e565b905060056006811115610af657fe5b816006811115610b0257fe5b14151515610b0f57600080fd5b600680811115610b1b57fe5b816006811115610b2757fe5b14151515610b3457600080fd5b610b3c61093e565b915060006006811115610b4b57fe5b826006811115610b5757fe5b1415610b67576018549250610b6d565b601a5492505b505090565b600e5481565b6000809054906101000a900473ffffffffffffffffffffffffffffffffffffffff1673ffffffffffffffffffffffffffffffffffffffff163373ffffffffffffffffffffffffffffffffffffffff16141515610bd357600080fd5b610be781601761115490919063ffffffff16565b50565b600d5481565b600b5481565b600f5481565b600080610c07610698565b151515610c1357600080fd5b6000610c1d61093e565b905060056006811115610c2c57fe5b816006811115610c3857fe5b14151515610c4557600080fd5b600680811115610c5157fe5b816006811115610c5d57fe5b14151515610c6a57600080fd5b610c7261093e565b915060006006811115610c8157fe5b826006811115610c8d57fe5b1415610c9d57600d549250610e0a565b60016006811115610caa57fe5b826006811115610cb657fe5b1415610cda57610cd3600d54600e546111b290919063ffffffff16565b9250610e0a565b60026006811115610ce757fe5b826006811115610cf357fe5b1415610d2b57610d24600d54610d16600e54600f546111b290919063ffffffff16565b6111b290919063ffffffff16565b9250610e0a565b60036006811115610d3857fe5b826006811115610d4457fe5b1415610d9057610d89600d54610d7b600e54610d6d600f546010546111b290919063ffffffff16565b6111b290919063ffffffff16565b6111b290919063ffffffff16565b9250610e0a565b60046006811115610d9d57fe5b826006811115610da957fe5b1415610e0957610e02600d54610df4600e54610de6600f54610dd86010546011546111b290919063ffffffff16565b6111b290919063ffffffff16565b6111b290919063ffffffff16565b6111b290919063ffffffff16565b9250610e0a565b5b505090565b6000809054906101000a900473ffffffffffffffffffffffffffffffffffffffff1673ffffffffffffffffffffffffffffffffffffffff163373ffffffffffffffffffffffffffffffffffffffff16141515610e6a57600080fd5b600073ffffffffffffffffffffffffffffffffffffffff168173ffffffffffffffffffffffffffffffffffffffff1614151515610ea657600080fd5b8073ffffffffffffffffffffffffffffffffffffffff166000809054906101000a900473ffffffffffffffffffffffffffffffffffffffff1673ffffffffffffffffffffffffffffffffffffffff167f8be0079c531659141344cd1fd0a4f28419497f9722a3daafe3b4186f6b6457e060405160405180910390a3806000806101000a81548173ffffffffffffffffffffffffffffffffffffffff021916908373ffffffffffffffffffffffffffffffffffffffff16021790555050565b601260009054906101000a900473ffffffffffffffffffffffffffffffffffffffff1681565b600080349150610f99826111ce565b9050610fa68383836111f6565b610fbb826014546111b290919063ffffffff16565b601481905550610fcb8382611339565b8273ffffffffffffffffffffffffffffffffffffffff163373ffffffffffffffffffffffffffffffffffffffff167f623b3804fa71d67900d064613da8f94b9617215ee90799290593e1745087ad188484604051808381526020018281526020019250505060405180910390a3611043838383611347565b505050565b60018260000160008373ffffffffffffffffffffffffffffffffffffffff1673ffffffffffffffffffffffffffffffffffffffff16815260200190815260200160002060006101000a81548160ff0219169083151502179055505050565b6000806110b1610698565b1515156110bd57600080fd5b600090505b6004805490508160ff16101561113657600360008260ff1660ff16815260200190815260200160002060000154421015801561111c5750600360006001830160ff1660ff1681526020019081526020016000206000015442105b1561112957809150611137565b80806001019150506110c2565b5b5090565b61114582826113fc565b151561115057600080fd5b5050565b60008260000160008373ffffffffffffffffffffffffffffffffffffffff1673ffffffffffffffffffffffffffffffffffffffff16815260200190815260200160002060006101000a81548160ff0219169083151502179055505050565b600081830190508281101515156111c557fe5b80905092915050565b6000806111d96106b1565b90506111ee818461145590919063ffffffff16565b915050919050565b61120183838361148d565b6000600681111561120e57fe5b61121661093e565b600681111561122157fe5b141561123c5761123083610a86565b151561123b57600080fd5b5b611244610bfc565b611259826016546111b290919063ffffffff16565b1115151561126657600080fd5b61126e610ac6565b6112c083601560008773ffffffffffffffffffffffffffffffffffffffff1673ffffffffffffffffffffffffffffffffffffffff168152602001908152602001600020546111b290919063ffffffff16565b101515156112cd57600080fd5b6112d56107e8565b61132783601560008773ffffffffffffffffffffffffffffffffffffffff1673ffffffffffffffffffffffffffffffffffffffff168152602001908152602001600020546111b290919063ffffffff16565b1115151561133457600080fd5b505050565b61134382826114de565b5050565b61139982601560008673ffffffffffffffffffffffffffffffffffffffff1673ffffffffffffffffffffffffffffffffffffffff168152602001908152602001600020546111b290919063ffffffff16565b601560008573ffffffffffffffffffffffffffffffffffffffff1673ffffffffffffffffffffffffffffffffffffffff168152602001908152602001600020819055506113f1816016546111b290919063ffffffff16565b601681905550505050565b60008260000160008373ffffffffffffffffffffffffffffffffffffffff1673ffffffffffffffffffffffffffffffffffffffff16815260200190815260200160002060009054906101000a900460ff16905092915050565b6000808314156114685760009050611487565b818302905081838281151561147957fe5b0414151561148357fe5b8090505b92915050565b600073ffffffffffffffffffffffffffffffffffffffff168373ffffffffffffffffffffffffffffffffffffffff16141515156114c957600080fd5b600082141515156114d957600080fd5b505050565b601260009054906101000a900473ffffffffffffffffffffffffffffffffffffffff1673ffffffffffffffffffffffffffffffffffffffff1663a9059cbb83836040518363ffffffff167c0100000000000000000000000000000000000000000000000000000000028152600401808373ffffffffffffffffffffffffffffffffffffffff1673ffffffffffffffffffffffffffffffffffffffff16815260200182815260200192505050602060405180830381600087803b1580156115a357600080fd5b505af11580156115b7573d6000803e3d6000fd5b505050506040513d60208110156115cd57600080fd5b8101908080519060200190929190505050505050565b600081838115156115f057fe5b049050929150505600a165627a7a72305820dfd34c16109a1c806d1e828e09f53a3a6c5b9c5ff1c2686e5d403e0f093a59ec0029",
  "source": "pragma solidity ^0.4.23;\r\n\r\nimport \"./BasicCrowdsale.sol\";\r\nimport \"./InvestorsWhitelist.sol\";\r\nimport \"./InvestingLimits.sol\";\r\n\r\ncontract WhitelistedCrowdsale is BasicCrowdsale, InvestorsWhitelist, InvestingLimits {\r\n    function buyTokens(address _beneficiary) \r\n    public \r\n    payable\r\n    purchaseAllowed\r\n    onlyWhieNotClosed  {\r\n\r\n        super.buyTokens(_beneficiary);\r\n    }\r\n\r\n    function _preValidatePurchase(address _beneficiary, uint256 _weiAmount, uint256 _tokenAmount) internal view {\r\n        super._preValidatePurchase(_beneficiary, _weiAmount, _tokenAmount);\r\n        if (getTier() == Rounds.preICO) {\r\n            require(whtielistedAsVC(_beneficiary));\r\n        }\r\n        require(tokenSold.add(_tokenAmount) <= getTierHardcapToken());\r\n        require(depositedWei[_beneficiary].add(_weiAmount) >= minVestingEth());\r\n        require(depositedWei[_beneficiary].add(_weiAmount) <= maxVestingEth());\r\n    }\r\n}",
  "sourcePath": "G:\\Root\\Blockchain\\BAX\\contracts\\crowdSale\\WhitelistedCrowdsale.sol",
  "compiler": {
    "name": "solc",
    "version": "0.4.23+commit.124ca40d.Emscripten.clang"
  },
  "schemaVersion": "2.0.0",
  "updatedAt": "2018-05-29T10:45:28.290Z"
}