{
  "contractName": "WhtielistedVC",
  "abi": [
    {
      "constant": true,
      "inputs": [],
      "name": "hasClosed",
      "outputs": [
        {
          "name": "",
          "type": "bool"
        }
      ],
      "payable": false,
      "stateMutability": "view",
      "type": "function"
    },
    {
      "constant": true,
      "inputs": [],
      "name": "currentTierHardcap",
      "outputs": [
        {
          "name": "",
          "type": "uint256"
        }
      ],
      "payable": false,
      "stateMutability": "view",
      "type": "function"
    },
    {
      "constant": false,
      "inputs": [],
      "name": "renounceOwnership",
      "outputs": [],
      "payable": false,
      "stateMutability": "nonpayable",
      "type": "function"
    },
    {
      "constant": true,
      "inputs": [],
      "name": "owner",
      "outputs": [
        {
          "name": "",
          "type": "address"
        }
      ],
      "payable": false,
      "stateMutability": "view",
      "type": "function"
    },
    {
      "constant": true,
      "inputs": [],
      "name": "currentSaleTokenWeiHardcap",
      "outputs": [
        {
          "name": "",
          "type": "uint256"
        }
      ],
      "payable": false,
      "stateMutability": "view",
      "type": "function"
    },
    {
      "constant": true,
      "inputs": [],
      "name": "currentTierTokenWeisPerEth",
      "outputs": [
        {
          "name": "",
          "type": "uint256"
        }
      ],
      "payable": false,
      "stateMutability": "view",
      "type": "function"
    },
    {
      "constant": true,
      "inputs": [],
      "name": "hasOpened",
      "outputs": [
        {
          "name": "",
          "type": "bool"
        }
      ],
      "payable": false,
      "stateMutability": "view",
      "type": "function"
    },
    {
      "constant": true,
      "inputs": [],
      "name": "currentTier",
      "outputs": [
        {
          "name": "",
          "type": "uint8"
        }
      ],
      "payable": false,
      "stateMutability": "view",
      "type": "function"
    },
    {
      "constant": false,
      "inputs": [
        {
          "name": "newOwner",
          "type": "address"
        }
      ],
      "name": "transferOwnership",
      "outputs": [],
      "payable": false,
      "stateMutability": "nonpayable",
      "type": "function"
    },
    {
      "anonymous": false,
      "inputs": [
        {
          "indexed": true,
          "name": "previousOwner",
          "type": "address"
        }
      ],
      "name": "OwnershipRenounced",
      "type": "event"
    },
    {
      "anonymous": false,
      "inputs": [
        {
          "indexed": true,
          "name": "previousOwner",
          "type": "address"
        },
        {
          "indexed": true,
          "name": "newOwner",
          "type": "address"
        }
      ],
      "name": "OwnershipTransferred",
      "type": "event"
    },
    {
      "constant": false,
      "inputs": [
        {
          "name": "_vc",
          "type": "address"
        }
      ],
      "name": "addToVC",
      "outputs": [],
      "payable": false,
      "stateMutability": "nonpayable",
      "type": "function"
    },
    {
      "constant": false,
      "inputs": [
        {
          "name": "_vc",
          "type": "address"
        }
      ],
      "name": "removeFromVC",
      "outputs": [],
      "payable": false,
      "stateMutability": "nonpayable",
      "type": "function"
    },
    {
      "constant": true,
      "inputs": [
        {
          "name": "_vc",
          "type": "address"
        }
      ],
      "name": "whtielistedAsVC",
      "outputs": [
        {
          "name": "",
          "type": "bool"
        }
      ],
      "payable": false,
      "stateMutability": "view",
      "type": "function"
    }
  ],
  "bytecode": "0x608060405233600160006101000a81548173ffffffffffffffffffffffffffffffffffffffff021916908373ffffffffffffffffffffffffffffffffffffffff160217905550610ba9806100546000396000f3006080604052600436106100ba576000357c0100000000000000000000000000000000000000000000000000000000900463ffffffff1680631515bc2b146100bf578063301df9dd146100ee57806353fe21ad14610119578063715018a61461015c578063792d7ec3146101735780638da5cb5b146101ce5780639fb160aa146102255780639fc2e24f14610268578063bbe8a46614610293578063be8eef8e146102be578063d679677a146102ed578063f2fde38b14610326575b600080fd5b3480156100cb57600080fd5b506100d4610369565b604051808215151515815260200191505060405180910390f35b3480156100fa57600080fd5b5061010361039a565b6040518082815260200191505060405180910390f35b34801561012557600080fd5b5061015a600480360381019080803573ffffffffffffffffffffffffffffffffffffffff1690602001909291905050506103c8565b005b34801561016857600080fd5b506101716104e9565b005b34801561017f57600080fd5b506101b4600480360381019080803573ffffffffffffffffffffffffffffffffffffffff1690602001909291905050506105ee565b604051808215151515815260200191505060405180910390f35b3480156101da57600080fd5b506101e361060b565b604051808273ffffffffffffffffffffffffffffffffffffffff1673ffffffffffffffffffffffffffffffffffffffff16815260200191505060405180910390f35b34801561023157600080fd5b50610266600480360381019080803573ffffffffffffffffffffffffffffffffffffffff169060200190929190505050610631565b005b34801561027457600080fd5b5061027d610752565b6040518082815260200191505060405180910390f35b34801561029f57600080fd5b506102a86107b5565b6040518082815260200191505060405180910390f35b3480156102ca57600080fd5b506102d36107e3565b604051808215151515815260200191505060405180910390f35b3480156102f957600080fd5b5061030261080e565b6040518082600681111561031257fe5b60ff16815260200191505060405180910390f35b34801561033257600080fd5b50610367600480360381019080803573ffffffffffffffffffffffffffffffffffffffff169060200190929190505050610849565b005b60008060016000805490500381548110151561038157fe5b9060005260206000209060060201600201544211905090565b6000806103a56109a1565b8154811015156103b157fe5b906000526020600020906006020160030154905090565b600160009054906101000a900473ffffffffffffffffffffffffffffffffffffffff1673ffffffffffffffffffffffffffffffffffffffff163373ffffffffffffffffffffffffffffffffffffffff1614151561042457600080fd5b6000600681111561043157fe5b600061043b6109a1565b81548110151561044757fe5b906000526020600020906006020160000160009054906101000a900460ff16600681111561047157fe5b14806104c757506002600681111561048557fe5b600061048f6109a1565b81548110151561049b57fe5b906000526020600020906006020160000160009054906101000a900460ff1660068111156104c557fe5b145b15156104d257600080fd5b6104e6816002610a4c90919063ffffffff16565b50565b600160009054906101000a900473ffffffffffffffffffffffffffffffffffffffff1673ffffffffffffffffffffffffffffffffffffffff163373ffffffffffffffffffffffffffffffffffffffff1614151561054557600080fd5b600160009054906101000a900473ffffffffffffffffffffffffffffffffffffffff1673ffffffffffffffffffffffffffffffffffffffff167ff8df31144d9c2f0f6b59d69b8b98abd5459d07f2742c4df920b25aae33c6482060405160405180910390a26000600160006101000a81548173ffffffffffffffffffffffffffffffffffffffff021916908373ffffffffffffffffffffffffffffffffffffffff160217905550565b6000610604826002610aaa90919063ffffffff16565b9050919050565b600160009054906101000a900473ffffffffffffffffffffffffffffffffffffffff1681565b600160009054906101000a900473ffffffffffffffffffffffffffffffffffffffff1673ffffffffffffffffffffffffffffffffffffffff163373ffffffffffffffffffffffffffffffffffffffff1614151561068d57600080fd5b6000600681111561069a57fe5b60006106a46109a1565b8154811015156106b057fe5b906000526020600020906006020160000160009054906101000a900460ff1660068111156106da57fe5b14806107305750600260068111156106ee57fe5b60006106f86109a1565b81548110151561070457fe5b906000526020600020906006020160000160009054906101000a900460ff16600681111561072e57fe5b145b151561073b57600080fd5b61074f816002610b0390919063ffffffff16565b50565b60008060008090505b6107636109a1565b811115156107ad5761079e60008281548110151561077d57fe5b90600052602060002090600602016003015483610b6190919063ffffffff16565b9150808060010191505061075b565b819250505090565b6000806107c06109a1565b8154811015156107cc57fe5b906000526020600020906006020160040154905090565b60008060008154811015156107f457fe5b906000526020600020906006020160010154421015905090565b6000806108196109a1565b81548110151561082557fe5b906000526020600020906006020160000160009054906101000a900460ff16905090565b600160009054906101000a900473ffffffffffffffffffffffffffffffffffffffff1673ffffffffffffffffffffffffffffffffffffffff163373ffffffffffffffffffffffffffffffffffffffff161415156108a557600080fd5b600073ffffffffffffffffffffffffffffffffffffffff168173ffffffffffffffffffffffffffffffffffffffff16141515156108e157600080fd5b8073ffffffffffffffffffffffffffffffffffffffff16600160009054906101000a900473ffffffffffffffffffffffffffffffffffffffff1673ffffffffffffffffffffffffffffffffffffffff167f8be0079c531659141344cd1fd0a4f28419497f9722a3daafe3b4186f6b6457e060405160405180910390a380600160006101000a81548173ffffffffffffffffffffffffffffffffffffffff021916908373ffffffffffffffffffffffffffffffffffffffff16021790555050565b6000806109ac6107e3565b15156109b757600080fd5b6109bf610369565b1515156109cb57600080fd5b600090505b600080549050811015610a47576000818154811015156109ec57fe5b9060005260206000209060060201600101544210158015610a2d5750600081815481101515610a1757fe5b9060005260206000209060060201600201544211155b15610a3a57809150610a48565b80806001019150506109d0565b5b5090565b60018260000160008373ffffffffffffffffffffffffffffffffffffffff1673ffffffffffffffffffffffffffffffffffffffff16815260200190815260200160002060006101000a81548160ff0219169083151502179055505050565b60008260000160008373ffffffffffffffffffffffffffffffffffffffff1673ffffffffffffffffffffffffffffffffffffffff16815260200190815260200160002060009054906101000a900460ff16905092915050565b60008260000160008373ffffffffffffffffffffffffffffffffffffffff1673ffffffffffffffffffffffffffffffffffffffff16815260200190815260200160002060006101000a81548160ff0219169083151502179055505050565b60008183019050828110151515610b7457fe5b809050929150505600a165627a7a72305820a25bedd875efb5195fa1360166d77cf515d3a9b39afb7629cc928adfbe8a599a0029",
  "source": "pragma solidity ^0.4.23;\r\n\r\nimport \"../whitelist/whitelist.sol\";\r\nimport \"./TierLine.sol\";\r\nimport \"../ownership/Ownable.sol\";\r\n\r\n/**\r\n * @title WhtielistedVC\r\n * @dev WhtielistedVC is intended to manage VC Whitelisting process. It looks like\r\n * CRUD implementation.\r\n */\r\ncontract WhtielistedVC is TierLine, Ownable {\r\n    using whitelist for whitelist.Whitelist;\r\n\r\n    whitelist.Whitelist VC;\r\n\r\n    /**\r\n     * @dev Adds new VC to the whitelist. \r\n     * @param _vc Address of VC must be added to whitelist.\r\n     * This action is allowed only in pre-Whitelist and Whitelist Rounds.\r\n     */\r\n    function addToVC(address _vc) public onlyOwner whitelistingAllowed {\r\n        VC.add(_vc);\r\n    }\r\n\r\n    /**\r\n     * @dev Removes new VC from whitelist.\r\n     * @param _vc Address of VC must be removed from whitelist.\r\n     * This action is allowed only in pre-Whitelist and Whitelist Rounds.\r\n    */\r\n    function removeFromVC(address _vc) public onlyOwner whitelistingAllowed {\r\n        VC.remove(_vc);\r\n    }\r\n\r\n    /**\r\n     * @dev Checks if a specified VC address has been insrted to VC Whitelist.\r\n     * @param _vc The address of VC must be checked.\r\n     * @return A bool showing the passed address is whitelisted before.\r\n    */\r\n    function whtielistedAsVC(address _vc) public view returns (bool){\r\n        return VC.has(_vc);\r\n    }\r\n\r\n    /**\r\n     * @dev A modifier requires a specified address is whitelisted as VC.\r\n     * @param _vc The address of VC must be checked.\r\n     */\r\n    modifier onlyVC(address _vc) {\r\n        require(whtielistedAsVC(_vc));\r\n        _;\r\n    }\r\n\r\n}",
  "sourcePath": "G:\\Root\\Blockchain\\WOX\\contracts\\crowdSale\\WhitelistedVC.sol",
  "compiler": {
    "name": "solc",
    "version": "0.4.23+commit.124ca40d.Emscripten.clang"
  },
  "schemaVersion": "2.0.0",
  "updatedAt": "2018-06-27T06:56:02.094Z"
}