{
  "contractName": "WOXCrowdsaleTest",
  "abi": [
    {
      "constant": false,
      "inputs": [
        {
          "name": "_grantee",
          "type": "address"
        }
      ],
      "name": "removeFromGrantees",
      "outputs": [],
      "payable": false,
      "stateMutability": "nonpayable",
      "type": "function"
    },
    {
      "constant": true,
      "inputs": [],
      "name": "maxVestingWei",
      "outputs": [
        {
          "name": "",
          "type": "uint256"
        }
      ],
      "payable": false,
      "stateMutability": "view",
      "type": "function"
    },
    {
      "constant": true,
      "inputs": [],
      "name": "hasClosed",
      "outputs": [
        {
          "name": "",
          "type": "bool"
        }
      ],
      "payable": false,
      "stateMutability": "view",
      "type": "function"
    },
    {
      "constant": true,
      "inputs": [],
      "name": "totalSupply",
      "outputs": [
        {
          "name": "",
          "type": "uint256"
        }
      ],
      "payable": false,
      "stateMutability": "view",
      "type": "function"
    },
    {
      "constant": false,
      "inputs": [],
      "name": "claimHeirOwnership",
      "outputs": [],
      "payable": false,
      "stateMutability": "nonpayable",
      "type": "function"
    },
    {
      "constant": true,
      "inputs": [],
      "name": "grantedTokens",
      "outputs": [
        {
          "name": "",
          "type": "uint256"
        }
      ],
      "payable": false,
      "stateMutability": "view",
      "type": "function"
    },
    {
      "constant": false,
      "inputs": [
        {
          "name": "newHeir",
          "type": "address"
        }
      ],
      "name": "setHeir",
      "outputs": [],
      "payable": false,
      "stateMutability": "nonpayable",
      "type": "function"
    },
    {
      "constant": false,
      "inputs": [],
      "name": "proclaimDeath",
      "outputs": [],
      "payable": false,
      "stateMutability": "nonpayable",
      "type": "function"
    },
    {
      "constant": true,
      "inputs": [],
      "name": "currentTierHardcap",
      "outputs": [
        {
          "name": "",
          "type": "uint256"
        }
      ],
      "payable": false,
      "stateMutability": "view",
      "type": "function"
    },
    {
      "constant": true,
      "inputs": [],
      "name": "decimals",
      "outputs": [
        {
          "name": "",
          "type": "uint256"
        }
      ],
      "payable": false,
      "stateMutability": "view",
      "type": "function"
    },
    {
      "constant": false,
      "inputs": [],
      "name": "heartbeat",
      "outputs": [],
      "payable": false,
      "stateMutability": "nonpayable",
      "type": "function"
    },
    {
      "constant": true,
      "inputs": [],
      "name": "weiRaised",
      "outputs": [
        {
          "name": "",
          "type": "uint256"
        }
      ],
      "payable": false,
      "stateMutability": "view",
      "type": "function"
    },
    {
      "constant": true,
      "inputs": [],
      "name": "getWeiRaised",
      "outputs": [
        {
          "name": "",
          "type": "uint256"
        }
      ],
      "payable": false,
      "stateMutability": "view",
      "type": "function"
    },
    {
      "constant": true,
      "inputs": [],
      "name": "wallet",
      "outputs": [
        {
          "name": "",
          "type": "address"
        }
      ],
      "payable": false,
      "stateMutability": "view",
      "type": "function"
    },
    {
      "constant": true,
      "inputs": [],
      "name": "grantHardcapToken",
      "outputs": [
        {
          "name": "",
          "type": "uint256"
        }
      ],
      "payable": false,
      "stateMutability": "view",
      "type": "function"
    },
    {
      "constant": false,
      "inputs": [
        {
          "name": "_vc",
          "type": "address"
        }
      ],
      "name": "addToVC",
      "outputs": [],
      "payable": false,
      "stateMutability": "nonpayable",
      "type": "function"
    },
    {
      "constant": true,
      "inputs": [],
      "name": "tokenName",
      "outputs": [
        {
          "name": "",
          "type": "string"
        }
      ],
      "payable": false,
      "stateMutability": "view",
      "type": "function"
    },
    {
      "constant": false,
      "inputs": [
        {
          "name": "toBeClosed",
          "type": "bool"
        }
      ],
      "name": "finalize",
      "outputs": [],
      "payable": false,
      "stateMutability": "nonpayable",
      "type": "function"
    },
    {
      "constant": false,
      "inputs": [
        {
          "name": "_burnAmount",
          "type": "uint256"
        }
      ],
      "name": "burnTokens",
      "outputs": [],
      "payable": false,
      "stateMutability": "nonpayable",
      "type": "function"
    },
    {
      "constant": false,
      "inputs": [],
      "name": "renounceOwnership",
      "outputs": [],
      "payable": false,
      "stateMutability": "nonpayable",
      "type": "function"
    },
    {
      "constant": true,
      "inputs": [
        {
          "name": "_vc",
          "type": "address"
        }
      ],
      "name": "whtielistedAsVC",
      "outputs": [
        {
          "name": "",
          "type": "bool"
        }
      ],
      "payable": false,
      "stateMutability": "view",
      "type": "function"
    },
    {
      "constant": true,
      "inputs": [],
      "name": "tokenSymbol",
      "outputs": [
        {
          "name": "",
          "type": "string"
        }
      ],
      "payable": false,
      "stateMutability": "view",
      "type": "function"
    },
    {
      "constant": true,
      "inputs": [],
      "name": "heartbeatTimeout",
      "outputs": [
        {
          "name": "",
          "type": "uint256"
        }
      ],
      "payable": false,
      "stateMutability": "view",
      "type": "function"
    },
    {
      "constant": true,
      "inputs": [],
      "name": "goalReached",
      "outputs": [
        {
          "name": "",
          "type": "bool"
        }
      ],
      "payable": false,
      "stateMutability": "view",
      "type": "function"
    },
    {
      "constant": true,
      "inputs": [],
      "name": "grantHardcapTokenPerEach",
      "outputs": [
        {
          "name": "",
          "type": "uint256"
        }
      ],
      "payable": false,
      "stateMutability": "view",
      "type": "function"
    },
    {
      "constant": true,
      "inputs": [],
      "name": "owner",
      "outputs": [
        {
          "name": "",
          "type": "address"
        }
      ],
      "payable": false,
      "stateMutability": "view",
      "type": "function"
    },
    {
      "constant": true,
      "inputs": [],
      "name": "heir",
      "outputs": [
        {
          "name": "",
          "type": "address"
        }
      ],
      "payable": false,
      "stateMutability": "view",
      "type": "function"
    },
    {
      "constant": true,
      "inputs": [],
      "name": "referralTokens",
      "outputs": [
        {
          "name": "",
          "type": "uint256"
        }
      ],
      "payable": false,
      "stateMutability": "view",
      "type": "function"
    },
    {
      "constant": false,
      "inputs": [
        {
          "name": "_vc",
          "type": "address"
        }
      ],
      "name": "removeFromVC",
      "outputs": [],
      "payable": false,
      "stateMutability": "nonpayable",
      "type": "function"
    },
    {
      "constant": true,
      "inputs": [],
      "name": "currentSaleTokenWeiHardcap",
      "outputs": [
        {
          "name": "",
          "type": "uint256"
        }
      ],
      "payable": false,
      "stateMutability": "view",
      "type": "function"
    },
    {
      "constant": true,
      "inputs": [],
      "name": "timeOfDeath",
      "outputs": [
        {
          "name": "",
          "type": "uint256"
        }
      ],
      "payable": false,
      "stateMutability": "view",
      "type": "function"
    },
    {
      "constant": true,
      "inputs": [],
      "name": "MaxReferralTokens",
      "outputs": [
        {
          "name": "",
          "type": "uint256"
        }
      ],
      "payable": false,
      "stateMutability": "view",
      "type": "function"
    },
    {
      "constant": true,
      "inputs": [],
      "name": "currentTierTokenWeisPerEth",
      "outputs": [
        {
          "name": "",
          "type": "uint256"
        }
      ],
      "payable": false,
      "stateMutability": "view",
      "type": "function"
    },
    {
      "constant": true,
      "inputs": [],
      "name": "hasOpened",
      "outputs": [
        {
          "name": "",
          "type": "bool"
        }
      ],
      "payable": false,
      "stateMutability": "view",
      "type": "function"
    },
    {
      "constant": true,
      "inputs": [
        {
          "name": "_from",
          "type": "address"
        },
        {
          "name": "_value",
          "type": "uint256"
        },
        {
          "name": "_data",
          "type": "bytes"
        }
      ],
      "name": "tokenFallback",
      "outputs": [],
      "payable": false,
      "stateMutability": "pure",
      "type": "function"
    },
    {
      "constant": false,
      "inputs": [
        {
          "name": "_grantee",
          "type": "address"
        },
        {
          "name": "_tokenAmount",
          "type": "uint256"
        }
      ],
      "name": "grantTokens",
      "outputs": [],
      "payable": false,
      "stateMutability": "nonpayable",
      "type": "function"
    },
    {
      "constant": true,
      "inputs": [],
      "name": "minVestingWei",
      "outputs": [
        {
          "name": "",
          "type": "uint256"
        }
      ],
      "payable": false,
      "stateMutability": "view",
      "type": "function"
    },
    {
      "constant": true,
      "inputs": [],
      "name": "currentTier",
      "outputs": [
        {
          "name": "",
          "type": "uint8"
        }
      ],
      "payable": false,
      "stateMutability": "view",
      "type": "function"
    },
    {
      "constant": true,
      "inputs": [],
      "name": "tokenWeisSold",
      "outputs": [
        {
          "name": "",
          "type": "uint256"
        }
      ],
      "payable": false,
      "stateMutability": "view",
      "type": "function"
    },
    {
      "constant": false,
      "inputs": [
        {
          "name": "_grantee",
          "type": "address"
        }
      ],
      "name": "addToGrantees",
      "outputs": [],
      "payable": false,
      "stateMutability": "nonpayable",
      "type": "function"
    },
    {
      "constant": false,
      "inputs": [],
      "name": "removeHeir",
      "outputs": [],
      "payable": false,
      "stateMutability": "nonpayable",
      "type": "function"
    },
    {
      "constant": false,
      "inputs": [
        {
          "name": "_beneficiary",
          "type": "address"
        }
      ],
      "name": "buyTokens",
      "outputs": [
        {
          "name": "",
          "type": "uint256"
        }
      ],
      "payable": true,
      "stateMutability": "payable",
      "type": "function"
    },
    {
      "constant": false,
      "inputs": [
        {
          "name": "_referrer",
          "type": "address"
        },
        {
          "name": "_amount",
          "type": "uint256"
        }
      ],
      "name": "PayReferral",
      "outputs": [],
      "payable": false,
      "stateMutability": "nonpayable",
      "type": "function"
    },
    {
      "constant": false,
      "inputs": [
        {
          "name": "newOwner",
          "type": "address"
        }
      ],
      "name": "transferOwnership",
      "outputs": [],
      "payable": false,
      "stateMutability": "nonpayable",
      "type": "function"
    },
    {
      "constant": false,
      "inputs": [
        {
          "name": "_wallet",
          "type": "address"
        },
        {
          "name": "_weiAmount",
          "type": "uint256"
        }
      ],
      "name": "withdraw",
      "outputs": [],
      "payable": false,
      "stateMutability": "nonpayable",
      "type": "function"
    },
    {
      "constant": true,
      "inputs": [
        {
          "name": "_grantee",
          "type": "address"
        }
      ],
      "name": "whitelistedAsGrantee",
      "outputs": [
        {
          "name": "",
          "type": "bool"
        }
      ],
      "payable": false,
      "stateMutability": "view",
      "type": "function"
    },
    {
      "constant": false,
      "inputs": [
        {
          "name": "_investor",
          "type": "address"
        }
      ],
      "name": "refund",
      "outputs": [],
      "payable": false,
      "stateMutability": "nonpayable",
      "type": "function"
    },
    {
      "constant": true,
      "inputs": [],
      "name": "token",
      "outputs": [
        {
          "name": "",
          "type": "address"
        }
      ],
      "payable": false,
      "stateMutability": "view",
      "type": "function"
    },
    {
      "inputs": [
        {
          "name": "_cliff",
          "type": "uint256"
        },
        {
          "name": "_USD_PER_ETH",
          "type": "uint256"
        },
        {
          "name": "_wallet",
          "type": "address"
        },
        {
          "name": "_tokenAddress",
          "type": "address"
        }
      ],
      "payable": false,
      "stateMutability": "nonpayable",
      "type": "constructor"
    },
    {
      "anonymous": false,
      "inputs": [
        {
          "indexed": true,
          "name": "owner",
          "type": "address"
        },
        {
          "indexed": true,
          "name": "newHeir",
          "type": "address"
        }
      ],
      "name": "HeirChanged",
      "type": "event"
    },
    {
      "anonymous": false,
      "inputs": [
        {
          "indexed": true,
          "name": "owner",
          "type": "address"
        }
      ],
      "name": "OwnerHeartbeated",
      "type": "event"
    },
    {
      "anonymous": false,
      "inputs": [
        {
          "indexed": true,
          "name": "owner",
          "type": "address"
        },
        {
          "indexed": true,
          "name": "heir",
          "type": "address"
        },
        {
          "indexed": false,
          "name": "timeOfDeath",
          "type": "uint256"
        }
      ],
      "name": "OwnerProclaimedDead",
      "type": "event"
    },
    {
      "anonymous": false,
      "inputs": [
        {
          "indexed": true,
          "name": "previousOwner",
          "type": "address"
        },
        {
          "indexed": true,
          "name": "newOwner",
          "type": "address"
        }
      ],
      "name": "HeirOwnershipClaimed",
      "type": "event"
    },
    {
      "anonymous": false,
      "inputs": [
        {
          "indexed": false,
          "name": "_burner",
          "type": "address"
        },
        {
          "indexed": false,
          "name": "_burnedFrom",
          "type": "address"
        },
        {
          "indexed": false,
          "name": "_burnAmount",
          "type": "uint256"
        }
      ],
      "name": "Burned",
      "type": "event"
    },
    {
      "anonymous": false,
      "inputs": [
        {
          "indexed": true,
          "name": "sender",
          "type": "address"
        },
        {
          "indexed": true,
          "name": "referre",
          "type": "address"
        },
        {
          "indexed": false,
          "name": "amount",
          "type": "uint256"
        }
      ],
      "name": "ReferralTokenPaid",
      "type": "event"
    },
    {
      "anonymous": false,
      "inputs": [
        {
          "indexed": false,
          "name": "_investor",
          "type": "address"
        },
        {
          "indexed": false,
          "name": "_depositedValue",
          "type": "uint256"
        }
      ],
      "name": "Refunded",
      "type": "event"
    },
    {
      "anonymous": false,
      "inputs": [
        {
          "indexed": true,
          "name": "sender",
          "type": "address"
        },
        {
          "indexed": true,
          "name": "grantee",
          "type": "address"
        },
        {
          "indexed": false,
          "name": "amount",
          "type": "uint256"
        }
      ],
      "name": "TokenGranted",
      "type": "event"
    },
    {
      "anonymous": false,
      "inputs": [],
      "name": "Finalized",
      "type": "event"
    },
    {
      "anonymous": false,
      "inputs": [],
      "name": "Closed",
      "type": "event"
    },
    {
      "anonymous": false,
      "inputs": [
        {
          "indexed": true,
          "name": "purchaser",
          "type": "address"
        },
        {
          "indexed": true,
          "name": "beneficiary",
          "type": "address"
        },
        {
          "indexed": false,
          "name": "value",
          "type": "uint256"
        },
        {
          "indexed": false,
          "name": "amount",
          "type": "uint256"
        }
      ],
      "name": "TokenPurchase",
      "type": "event"
    },
    {
      "anonymous": false,
      "inputs": [
        {
          "indexed": true,
          "name": "previousOwner",
          "type": "address"
        }
      ],
      "name": "OwnershipRenounced",
      "type": "event"
    },
    {
      "anonymous": false,
      "inputs": [
        {
          "indexed": true,
          "name": "previousOwner",
          "type": "address"
        },
        {
          "indexed": true,
          "name": "newOwner",
          "type": "address"
        }
      ],
      "name": "OwnershipTransferred",
      "type": "event"
    }
  ],
  "bytecode": "0x60806040523480156200001157600080fd5b506040516080806200491c83398101806040528101908080519060200190929190805190602001909291908051906020019092919080519060200190929190505050600033600160006101000a81548173ffffffffffffffffffffffffffffffffffffffff021916908373ffffffffffffffffffffffffffffffffffffffff160217905550600073ffffffffffffffffffffffffffffffffffffffff168373ffffffffffffffffffffffffffffffffffffffff1614151515620000d357600080fd5b600073ffffffffffffffffffffffffffffffffffffffff168273ffffffffffffffffffffffffffffffffffffffff16141515156200011057600080fd5b83600e8190555082600460006101000a81548173ffffffffffffffffffffffffffffffffffffffff021916908373ffffffffffffffffffffffffffffffffffffffff1602179055506000601260006101000a81548160ff021916908360028111156200017857fe5b02179055506000601260016101000a81548160ff02191690831515021790555081600360006101000a81548173ffffffffffffffffffffffffffffffffffffffff021916908373ffffffffffffffffffffffffffffffffffffffff160217905550600360009054906101000a900473ffffffffffffffffffffffffffffffffffffffff1673ffffffffffffffffffffffffffffffffffffffff166318160ddd6040518163ffffffff167c0100000000000000000000000000000000000000000000000000000000028152600401602060405180830381600087803b1580156200026057600080fd5b505af115801562000275573d6000803e3d6000fd5b505050506040513d60208110156200028c57600080fd5b8101908080519060200190929190505050600681905550600360009054906101000a900473ffffffffffffffffffffffffffffffffffffffff1673ffffffffffffffffffffffffffffffffffffffff1663313ce5676040518163ffffffff167c0100000000000000000000000000000000000000000000000000000000028152600401602060405180830381600087803b1580156200032a57600080fd5b505af11580156200033f573d6000803e3d6000fd5b505050506040513d60208110156200035657600080fd5b8101908080519060200190929190505050600781905550600360009054906101000a900473ffffffffffffffffffffffffffffffffffffffff1673ffffffffffffffffffffffffffffffffffffffff166306fdde036040518163ffffffff167c0100000000000000000000000000000000000000000000000000000000028152600401600060405180830381600087803b158015620003f457600080fd5b505af115801562000409573d6000803e3d6000fd5b505050506040513d6000823e3d601f19601f8201168201806040525060208110156200043457600080fd5b8101908080516401000000008111156200044d57600080fd5b828101905060208101848111156200046457600080fd5b81518560018202830111640100000000821117156200048257600080fd5b505092919050505060089080519060200190620004a192919062000ec0565b50600360009054906101000a900473ffffffffffffffffffffffffffffffffffffffff1673ffffffffffffffffffffffffffffffffffffffff166395d89b416040518163ffffffff167c0100000000000000000000000000000000000000000000000000000000028152600401600060405180830381600087803b1580156200052957600080fd5b505af11580156200053e573d6000803e3d6000fd5b505050506040513d6000823e3d601f19601f8201168201806040525060208110156200056957600080fd5b8101908080516401000000008111156200058257600080fd5b828101905060208101848111156200059957600080fd5b8151856001820283011164010000000082111715620005b757600080fd5b505092919050505060099080519060200190620005d692919062000ec0565b5062000629600e546200060c670de0b6b3a7640000622dc6c062000d0464010000000002620034e8179091906401000000009004565b62000d406401000000000262003520179091906401000000009004565b6005819055506200065b600754600a0a6301c9c38062000d0464010000000002620034e8179091906401000000009004565b60188190555062000690600e54690a968163f0a57b40000062000d406401000000000262003520179091906401000000009004565b600a81905550620006c5600e546969e10de76676d080000062000d406401000000000262003520179091906401000000009004565b600b8190555067016345785d8a0000600c81905550681043561a8829300000600d8190555084420190506200071460008260038401600080600062000d57640100000000026401000000009004565b6200082a600160006001600080549050038154811015156200073257fe5b906000526020600020906006020160020154600360006001600080549050038154811015156200075e57fe5b90600052602060002090600602016002015401620007a0670de0b6b3a76400006307270e0062000d0464010000000002620034e8179091906401000000009004565b620008136008620007f66064620007d9670de0b6b3a7640000600e5462000d0464010000000002620034e8179091906401000000009004565b62000d0464010000000002620034e8179091906401000000009004565b62000d406401000000000262003520179091906401000000009004565b600162000d57640100000000026401000000009004565b620008a1600260006001600080549050038154811015156200084857fe5b906000526020600020906006020160020154600360006001600080549050038154811015156200087457fe5b90600052602060002090600602016002015401600080600062000d57640100000000026401000000009004565b620009b760036000600160008054905003815481101515620008bf57fe5b90600052602060002090600602016002015460036000600160008054905003815481101515620008eb57fe5b906000526020600020906006020160020154016200092d670de0b6b3a7640000630773594062000d0464010000000002620034e8179091906401000000009004565b620009a0600c62000983606462000966670de0b6b3a7640000600e5462000d0464010000000002620034e8179091906401000000009004565b62000d0464010000000002620034e8179091906401000000009004565b62000d406401000000000262003520179091906401000000009004565b600162000d57640100000000026401000000009004565b62000acd60046000600160008054905003815481101515620009d557fe5b9060005260206000209060060201600201546003600060016000805490500381548110151562000a0157fe5b9060005260206000209060060201600201540162000a43670de0b6b3a7640000630773594062000d0464010000000002620034e8179091906401000000009004565b62000ab6600d62000a99606462000a7c670de0b6b3a7640000600e5462000d0464010000000002620034e8179091906401000000009004565b62000d0464010000000002620034e8179091906401000000009004565b62000d406401000000000262003520179091906401000000009004565b600162000d57640100000000026401000000009004565b62000be36005600060016000805490500381548110151562000aeb57fe5b9060005260206000209060060201600201546003600060016000805490500381548110151562000b1757fe5b9060005260206000209060060201600201540162000b59670de0b6b3a7640000630773594062000d0464010000000002620034e8179091906401000000009004565b62000bcc600e62000baf606462000b92670de0b6b3a7640000600e5462000d0464010000000002620034e8179091906401000000009004565b62000d0464010000000002620034e8179091906401000000009004565b62000d406401000000000262003520179091906401000000009004565b600162000d57640100000000026401000000009004565b62000cf96006600060016000805490500381548110151562000c0157fe5b9060005260206000209060060201600201546003600060016000805490500381548110151562000c2d57fe5b9060005260206000209060060201600201540162000c6f670de0b6b3a7640000630773594062000d0464010000000002620034e8179091906401000000009004565b62000ce2600f62000cc5606462000ca8670de0b6b3a7640000600e5462000d0464010000000002620034e8179091906401000000009004565b62000d0464010000000002620034e8179091906401000000009004565b62000d406401000000000262003520179091906401000000009004565b600162000d57640100000000026401000000009004565b505050505062000fb4565b60008083141562000d19576000905062000d3a565b818302905081838281151562000d2b57fe5b0414151562000d3657fe5b8090505b92915050565b6000818381151562000d4e57fe5b04905092915050565b62000d6162000f47565b858511151562000d7057600080fd5b60008080549050111562000db857600060016000805490500381548110151562000d9657fe5b906000526020600020906006020160020154861015151562000db757600080fd5b5b868160000190600681111562000dca57fe5b9081600681111562000dd857fe5b8152505085816020018181525050848160400181815250508381606001818152505082816080018181525050818160a00190151590811515815250506000819080600181540180825580915050906001820390600052602060002090600602016000909192909190915060008201518160000160006101000a81548160ff0219169083600681111562000e6757fe5b02179055506020820151816001015560408201518160020155606082015181600301556080820151816004015560a08201518160050160006101000a81548160ff02191690831515021790555050505050505050505050565b828054600181600116156101000203166002900490600052602060002090601f016020900481019282601f1062000f0357805160ff191683800117855562000f34565b8280016001018555821562000f34579182015b8281111562000f3357825182559160200191906001019062000f16565b5b50905062000f43919062000f8c565b5090565b60c0604051908101604052806000600681111562000f6157fe5b8152602001600081526020016000815260200160008152602001600081526020016000151581525090565b62000fb191905b8082111562000fad57600081600090555060010162000f93565b5090565b90565b6139588062000fc46000396000f300608060405260043610610246576000357c0100000000000000000000000000000000000000000000000000000000900463ffffffff1680630425b5531461024b57806306c365811461028e5780631515bc2b146102b957806318160ddd146102e85780631c921e16146103135780631ee42bcf1461032a57806323defc77146103555780632484513114610398578063301df9dd146103af578063313ce567146103da5780633defb962146104055780634042b66f1461041c57806340582f1314610447578063521eb2731461047257806352f64681146104c957806353fe21ad146104f45780636c02a931146105375780636c9789b0146105c75780636d1b229d146105f6578063715018a614610623578063792d7ec31461063a5780637b61c320146106955780637bca38be146107255780637d3d652214610750578063893796401461077f5780638da5cb5b146107aa57806391f2ebb8146108015780639303b0b8146108585780639fb160aa146108835780639fc2e24f146108c6578063b4a8f3e6146108f1578063b64657a71461091c578063bbe8a46614610947578063be8eef8e14610972578063c0ee0b8a146109a1578063c94e643c14610a34578063ce7f3a2714610a81578063d679677a14610aac578063e184a51514610ae5578063e996a3dd14610b10578063ebf88de414610b53578063ec8ac4d814610b6a578063ee84038e14610bb4578063f2fde38b14610c01578063f3fef3a314610c44578063f556f4f714610c91578063fa89401a14610cec578063fc0c546a14610d2f575b600080fd5b34801561025757600080fd5b5061028c600480360381019080803573ffffffffffffffffffffffffffffffffffffffff169060200190929190505050610d86565b005b34801561029a57600080fd5b506102a3610ea7565b6040518082815260200191505060405180910390f35b3480156102c557600080fd5b506102ce610f49565b604051808215151515815260200191505060405180910390f35b3480156102f457600080fd5b506102fd610f7a565b6040518082815260200191505060405180910390f35b34801561031f57600080fd5b50610328610f80565b005b34801561033657600080fd5b5061033f6111ae565b6040518082815260200191505060405180910390f35b34801561036157600080fd5b50610396600480360381019080803573ffffffffffffffffffffffffffffffffffffffff1690602001909291905050506111b4565b005b3480156103a457600080fd5b506103ad611335565b005b3480156103bb57600080fd5b506103c4611458565b6040518082815260200191505060405180910390f35b3480156103e657600080fd5b506103ef611486565b6040518082815260200191505060405180910390f35b34801561041157600080fd5b5061041a61148c565b005b34801561042857600080fd5b50610431611557565b6040518082815260200191505060405180910390f35b34801561045357600080fd5b5061045c61155d565b6040518082815260200191505060405180910390f35b34801561047e57600080fd5b50610487611567565b604051808273ffffffffffffffffffffffffffffffffffffffff1673ffffffffffffffffffffffffffffffffffffffff16815260200191505060405180910390f35b3480156104d557600080fd5b506104de61158d565b6040518082815260200191505060405180910390f35b34801561050057600080fd5b50610535600480360381019080803573ffffffffffffffffffffffffffffffffffffffff169060200190929190505050611593565b005b34801561054357600080fd5b5061054c6116b4565b6040518080602001828103825283818151815260200191508051906020019080838360005b8381101561058c578082015181840152602081019050610571565b50505050905090810190601f1680156105b95780820380516001836020036101000a031916815260200191505b509250505060405180910390f35b3480156105d357600080fd5b506105f4600480360381019080803515159060200190929190505050611752565b005b34801561060257600080fd5b5061062160048036038101908080359060200190929190505050611830565b005b34801561062f57600080fd5b506106386119d7565b005b34801561064657600080fd5b5061067b600480360381019080803573ffffffffffffffffffffffffffffffffffffffff169060200190929190505050611adc565b604051808215151515815260200191505060405180910390f35b3480156106a157600080fd5b506106aa611af9565b6040518080602001828103825283818151815260200191508051906020019080838360005b838110156106ea5780820151818401526020810190506106cf565b50505050905090810190601f1680156107175780820380516001836020036101000a031916815260200191505b509250505060405180910390f35b34801561073157600080fd5b5061073a611b97565b6040518082815260200191505060405180910390f35b34801561075c57600080fd5b50610765611ba1565b604051808215151515815260200191505060405180910390f35b34801561078b57600080fd5b50610794611bb0565b6040518082815260200191505060405180910390f35b3480156107b657600080fd5b506107bf611bb6565b604051808273ffffffffffffffffffffffffffffffffffffffff1673ffffffffffffffffffffffffffffffffffffffff16815260200191505060405180910390f35b34801561080d57600080fd5b50610816611bdc565b604051808273ffffffffffffffffffffffffffffffffffffffff1673ffffffffffffffffffffffffffffffffffffffff16815260200191505060405180910390f35b34801561086457600080fd5b5061086d611c06565b6040518082815260200191505060405180910390f35b34801561088f57600080fd5b506108c4600480360381019080803573ffffffffffffffffffffffffffffffffffffffff169060200190929190505050611c0c565b005b3480156108d257600080fd5b506108db611d2d565b6040518082815260200191505060405180910390f35b3480156108fd57600080fd5b50610906611d90565b6040518082815260200191505060405180910390f35b34801561092857600080fd5b50610931611d9a565b6040518082815260200191505060405180910390f35b34801561095357600080fd5b5061095c611da0565b6040518082815260200191505060405180910390f35b34801561097e57600080fd5b50610987611dce565b604051808215151515815260200191505060405180910390f35b3480156109ad57600080fd5b50610a32600480360381019080803573ffffffffffffffffffffffffffffffffffffffff16906020019092919080359060200190929190803590602001908201803590602001908080601f0160208091040260200160405190810160405280939291908181526020018383808284378201915050505050509192919290505050611df9565b005b348015610a4057600080fd5b50610a7f600480360381019080803573ffffffffffffffffffffffffffffffffffffffff169060200190929190803590602001909291905050506120de565b005b348015610a8d57600080fd5b50610a96612623565b6040518082815260200191505060405180910390f35b348015610ab857600080fd5b50610ac16126c5565b60405180826006811115610ad157fe5b60ff16815260200191505060405180910390f35b348015610af157600080fd5b50610afa612700565b6040518082815260200191505060405180910390f35b348015610b1c57600080fd5b50610b51600480360381019080803573ffffffffffffffffffffffffffffffffffffffff169060200190929190505050612706565b005b348015610b5f57600080fd5b50610b68612827565b005b610b9e600480360381019080803573ffffffffffffffffffffffffffffffffffffffff1690602001909291905050506128cf565b6040518082815260200191505060405180910390f35b348015610bc057600080fd5b50610bff600480360381019080803573ffffffffffffffffffffffffffffffffffffffff169060200190929190803590602001909291905050506129dd565b005b348015610c0d57600080fd5b50610c42600480360381019080803573ffffffffffffffffffffffffffffffffffffffff169060200190929190505050612d4d565b005b348015610c5057600080fd5b50610c8f600480360381019080803573ffffffffffffffffffffffffffffffffffffffff16906020019092919080359060200190929190505050612ea5565b005b348015610c9d57600080fd5b50610cd2600480360381019080803573ffffffffffffffffffffffffffffffffffffffff169060200190929190505050612fa9565b604051808215151515815260200191505060405180910390f35b348015610cf857600080fd5b50610d2d600480360381019080803573ffffffffffffffffffffffffffffffffffffffff169060200190929190505050612fc6565b005b348015610d3b57600080fd5b50610d446131a3565b604051808273ffffffffffffffffffffffffffffffffffffffff1673ffffffffffffffffffffffffffffffffffffffff16815260200191505060405180910390f35b60006006811115610d9357fe5b6000610d9d6131c9565b815481101515610da957fe5b906000526020600020906006020160000160009054906101000a900460ff166006811115610dd357fe5b1480610e29575060026006811115610de757fe5b6000610df16131c9565b815481101515610dfd57fe5b906000526020600020906006020160000160009054906101000a900460ff166006811115610e2757fe5b145b1515610e3457600080fd5b600160009054906101000a900473ffffffffffffffffffffffffffffffffffffffff1673ffffffffffffffffffffffffffffffffffffffff163373ffffffffffffffffffffffffffffffffffffffff16141515610e9057600080fd5b610ea481601561327490919063ffffffff16565b50565b6000610eb1611dce565b1515610ebc57600080fd5b610ec4610f49565b151515610ed057600080fd5b6000610eda6131c9565b815481101515610ee657fe5b906000526020600020906006020160050160009054906101000a900460ff161515610f1057600080fd5b60016006811115610f1d57fe5b610f256126c5565b6006811115610f3057fe5b1415610f4057600b549050610f46565b600d5490505b90565b600080600160008054905003815481101515610f6157fe5b9060005260206000209060060201600201544211905090565b60065481565b601b60009054906101000a900473ffffffffffffffffffffffffffffffffffffffff1673ffffffffffffffffffffffffffffffffffffffff163373ffffffffffffffffffffffffffffffffffffffff16141515610fdc57600080fd5b610fe46132d2565b151515610ff057600080fd5b601c54601d5401421015151561100557600080fd5b601b60009054906101000a900473ffffffffffffffffffffffffffffffffffffffff1673ffffffffffffffffffffffffffffffffffffffff16600160009054906101000a900473ffffffffffffffffffffffffffffffffffffffff1673ffffffffffffffffffffffffffffffffffffffff167f8be0079c531659141344cd1fd0a4f28419497f9722a3daafe3b4186f6b6457e060405160405180910390a3601b60009054906101000a900473ffffffffffffffffffffffffffffffffffffffff1673ffffffffffffffffffffffffffffffffffffffff16600160009054906101000a900473ffffffffffffffffffffffffffffffffffffffff1673ffffffffffffffffffffffffffffffffffffffff167f1017a357e19071e4408dbd385f24e591aa5bcee52b444dc0c8abddbe6ad29de660405160405180910390a3601b60009054906101000a900473ffffffffffffffffffffffffffffffffffffffff16600160006101000a81548173ffffffffffffffffffffffffffffffffffffffff021916908373ffffffffffffffffffffffffffffffffffffffff1602179055506000601d81905550565b60165481565b600160009054906101000a900473ffffffffffffffffffffffffffffffffffffffff1673ffffffffffffffffffffffffffffffffffffffff163373ffffffffffffffffffffffffffffffffffffffff1614151561121057600080fd5b600160009054906101000a900473ffffffffffffffffffffffffffffffffffffffff1673ffffffffffffffffffffffffffffffffffffffff168173ffffffffffffffffffffffffffffffffffffffff161415151561126d57600080fd5b61127561148c565b8073ffffffffffffffffffffffffffffffffffffffff16600160009054906101000a900473ffffffffffffffffffffffffffffffffffffffff1673ffffffffffffffffffffffffffffffffffffffff167f4e6093f85fa64484abd692810d8a44d508792ff7b7a021d9fbd69fa1c6ff18a060405160405180910390a380601b60006101000a81548173ffffffffffffffffffffffffffffffffffffffff021916908373ffffffffffffffffffffffffffffffffffffffff16021790555050565b601b60009054906101000a900473ffffffffffffffffffffffffffffffffffffffff1673ffffffffffffffffffffffffffffffffffffffff163373ffffffffffffffffffffffffffffffffffffffff1614151561139157600080fd5b6113996132d2565b15156113a457600080fd5b601b60009054906101000a900473ffffffffffffffffffffffffffffffffffffffff1673ffffffffffffffffffffffffffffffffffffffff16600160009054906101000a900473ffffffffffffffffffffffffffffffffffffffff1673ffffffffffffffffffffffffffffffffffffffff167f66389f1f3251c39e71cb18351daefea45bda23e98df0767266b8aed4ff938277601d546040518082815260200191505060405180910390a342601d81905550565b6000806114636131c9565b81548110151561146f57fe5b906000526020600020906006020160030154905090565b60075481565b600160009054906101000a900473ffffffffffffffffffffffffffffffffffffffff1673ffffffffffffffffffffffffffffffffffffffff163373ffffffffffffffffffffffffffffffffffffffff161415156114e857600080fd5b600160009054906101000a900473ffffffffffffffffffffffffffffffffffffffff1673ffffffffffffffffffffffffffffffffffffffff167fd40b9d9a7572411aff4bbb95ba7bd9a9d4e9b70747ec46f8fe7913c309b6845260405160405180910390a26000601d81905550565b600f5481565b6000600f54905090565b600460009054906101000a900473ffffffffffffffffffffffffffffffffffffffff1681565b60135481565b600160009054906101000a900473ffffffffffffffffffffffffffffffffffffffff1673ffffffffffffffffffffffffffffffffffffffff163373ffffffffffffffffffffffffffffffffffffffff161415156115ef57600080fd5b600060068111156115fc57fe5b60006116066131c9565b81548110151561161257fe5b906000526020600020906006020160000160009054906101000a900460ff16600681111561163c57fe5b148061169257506002600681111561165057fe5b600061165a6131c9565b81548110151561166657fe5b906000526020600020906006020160000160009054906101000a900460ff16600681111561169057fe5b145b151561169d57600080fd5b6116b18160026132de90919063ffffffff16565b50565b60088054600181600116156101000203166002900480601f01602080910402602001604051908101604052809291908181526020018280546001816001161561010002031660029004801561174a5780601f1061171f5761010080835404028352916020019161174a565b820191906000526020600020905b81548152906001019060200180831161172d57829003601f168201915b505050505081565b600160009054906101000a900473ffffffffffffffffffffffffffffffffffffffff1673ffffffffffffffffffffffffffffffffffffffff163373ffffffffffffffffffffffffffffffffffffffff161415156117ae57600080fd5b601260019054906101000a900460ff161515156117ca57600080fd5b6117d2610f49565b15156117dd57600080fd5b6117e68161333c565b6001601260016101000a81548160ff0219169083151502179055507f6823b073d48d6e3a7d385eeb601452d680e74bb46afe3255a7d778f3a9b1768160405160405180910390a150565b600160009054906101000a900473ffffffffffffffffffffffffffffffffffffffff1673ffffffffffffffffffffffffffffffffffffffff163373ffffffffffffffffffffffffffffffffffffffff1614151561188c57600080fd5b600360009054906101000a900473ffffffffffffffffffffffffffffffffffffffff1673ffffffffffffffffffffffffffffffffffffffff1663b90306ad826040518263ffffffff167c010000000000000000000000000000000000000000000000000000000002815260040180828152602001915050600060405180830381600087803b15801561191d57600080fd5b505af1158015611931573d6000803e3d6000fd5b505050507f6ab368f832c266c8eb942b84fbcaa20aedc24a699d2a05fae2568028733b1d09333083604051808473ffffffffffffffffffffffffffffffffffffffff1673ffffffffffffffffffffffffffffffffffffffff1681526020018373ffffffffffffffffffffffffffffffffffffffff1673ffffffffffffffffffffffffffffffffffffffff168152602001828152602001935050505060405180910390a150565b600160009054906101000a900473ffffffffffffffffffffffffffffffffffffffff1673ffffffffffffffffffffffffffffffffffffffff163373ffffffffffffffffffffffffffffffffffffffff16141515611a3357600080fd5b600160009054906101000a900473ffffffffffffffffffffffffffffffffffffffff1673ffffffffffffffffffffffffffffffffffffffff167ff8df31144d9c2f0f6b59d69b8b98abd5459d07f2742c4df920b25aae33c6482060405160405180910390a26000600160006101000a81548173ffffffffffffffffffffffffffffffffffffffff021916908373ffffffffffffffffffffffffffffffffffffffff160217905550565b6000611af282600261347390919063ffffffff16565b9050919050565b60098054600181600116156101000203166002900480601f016020809104026020016040519081016040528092919081815260200182805460018160011615610100020316600290048015611b8f5780601f10611b6457610100808354040283529160200191611b8f565b820191906000526020600020905b815481529060010190602001808311611b7257829003601f168201915b505050505081565b6000601c54905090565b6000600554600f541015905090565b60145481565b600160009054906101000a900473ffffffffffffffffffffffffffffffffffffffff1681565b6000601b60009054906101000a900473ffffffffffffffffffffffffffffffffffffffff16905090565b60195481565b600160009054906101000a900473ffffffffffffffffffffffffffffffffffffffff1673ffffffffffffffffffffffffffffffffffffffff163373ffffffffffffffffffffffffffffffffffffffff16141515611c6857600080fd5b60006006811115611c7557fe5b6000611c7f6131c9565b815481101515611c8b57fe5b906000526020600020906006020160000160009054906101000a900460ff166006811115611cb557fe5b1480611d0b575060026006811115611cc957fe5b6000611cd36131c9565b815481101515611cdf57fe5b906000526020600020906006020160000160009054906101000a900460ff166006811115611d0957fe5b145b1515611d1657600080fd5b611d2a81600261327490919063ffffffff16565b50565b60008060008090505b611d3e6131c9565b81111515611d8857611d79600082815481101515611d5857fe5b906000526020600020906006020160030154836134cc90919063ffffffff16565b91508080600101915050611d36565b819250505090565b6000601d54905090565b60185481565b600080611dab6131c9565b815481101515611db757fe5b906000526020600020906006020160040154905090565b6000806000815481101515611ddf57fe5b906000526020600020906006020160010154421015905090565b611e016138ce565b600084826000019073ffffffffffffffffffffffffffffffffffffffff16908173ffffffffffffffffffffffffffffffffffffffff1681525050838260200181815250508282604001819052506018836000815181101515611e5f57fe5b9060200101517f010000000000000000000000000000000000000000000000000000000000000090047f0100000000000000000000000000000000000000000000000000000000000000027f0100000000000000000000000000000000000000000000000000000000000000900463ffffffff169060020a026010846001815181101515611ee957fe5b9060200101517f010000000000000000000000000000000000000000000000000000000000000090047f0100000000000000000000000000000000000000000000000000000000000000027f0100000000000000000000000000000000000000000000000000000000000000900463ffffffff169060020a026008856002815181101515611f7357fe5b9060200101517f010000000000000000000000000000000000000000000000000000000000000090047f0100000000000000000000000000000000000000000000000000000000000000027f0100000000000000000000000000000000000000000000000000000000000000900463ffffffff169060020a02856003815181101515611ffb57fe5b9060200101517f010000000000000000000000000000000000000000000000000000000000000090047f0100000000000000000000000000000000000000000000000000000000000000027f010000000000000000000000000000000000000000000000000000000000000090040101019050807c01000000000000000000000000000000000000000000000000000000000282606001907bffffffffffffffffffffffffffffffffffffffffffffffffffffffff191690817bffffffffffffffffffffffffffffffffffffffffffffffffffffffff1916815250505050505050565b600160009054906101000a900473ffffffffffffffffffffffffffffffffffffffff1673ffffffffffffffffffffffffffffffffffffffff163373ffffffffffffffffffffffffffffffffffffffff1614151561213a57600080fd5b612142611dce565b151561214d57600080fd5b612155610f49565b15151561216157600080fd5b6000600681111561216e57fe5b6121766126c5565b600681111561218157fe5b1415151561218e57600080fd5b6001600681111561219b57fe5b6121a36126c5565b60068111156121ae57fe5b141515156121bb57600080fd5b816121c581612fa9565b15156121d057600080fd5b600073ffffffffffffffffffffffffffffffffffffffff168373ffffffffffffffffffffffffffffffffffffffff161415151561220c57600080fd5b6000821415151561221c57600080fd5b60065461224860115461223a856016546134cc90919063ffffffff16565b6134cc90919063ffffffff16565b1115151561225557600080fd5b6122a782601760008673ffffffffffffffffffffffffffffffffffffffff1673ffffffffffffffffffffffffffffffffffffffff168152602001908152602001600020546134cc90919063ffffffff16565b601760008573ffffffffffffffffffffffffffffffffffffffff1673ffffffffffffffffffffffffffffffffffffffff168152602001908152602001600020819055506122ff826016546134cc90919063ffffffff16565b601681905550600360009054906101000a900473ffffffffffffffffffffffffffffffffffffffff1673ffffffffffffffffffffffffffffffffffffffff166343af57d68461236b600a61235d6003886134e890919063ffffffff16565b61352090919063ffffffff16565b600060016000805490500381548110151561238257fe5b9060005260206000209060060201600201546040518463ffffffff167c0100000000000000000000000000000000000000000000000000000000028152600401808473ffffffffffffffffffffffffffffffffffffffff1673ffffffffffffffffffffffffffffffffffffffff1681526020018381526020018281526020019350505050602060405180830381600087803b15801561242057600080fd5b505af1158015612434573d6000803e3d6000fd5b505050506040513d602081101561244a57600080fd5b810190808051906020019092919050505050600360009054906101000a900473ffffffffffffffffffffffffffffffffffffffff1673ffffffffffffffffffffffffffffffffffffffff166343af57d6846124c2600a6124b46007886134e890919063ffffffff16565b61352090919063ffffffff16565b6301e1338060006001600080549050038154811015156124de57fe5b906000526020600020906006020160020154016040518463ffffffff167c0100000000000000000000000000000000000000000000000000000000028152600401808473ffffffffffffffffffffffffffffffffffffffff1673ffffffffffffffffffffffffffffffffffffffff1681526020018381526020018281526020019350505050602060405180830381600087803b15801561257d57600080fd5b505af1158015612591573d6000803e3d6000fd5b505050506040513d60208110156125a757600080fd5b8101908080519060200190929190505050508273ffffffffffffffffffffffffffffffffffffffff163373ffffffffffffffffffffffffffffffffffffffff167fa6e5a578d42fd913bd5bad70a2ae524a02ea5bcfa6ca06b309333095c155b84e846040518082815260200191505060405180910390a3505050565b600061262d611dce565b151561263857600080fd5b612640610f49565b15151561264c57600080fd5b60006126566131c9565b81548110151561266257fe5b906000526020600020906006020160050160009054906101000a900460ff16151561268c57600080fd5b6001600681111561269957fe5b6126a16126c5565b60068111156126ac57fe5b14156126bc57600a5490506126c2565b600c5490505b90565b6000806126d06131c9565b8154811015156126dc57fe5b906000526020600020906006020160000160009054906101000a900460ff16905090565b60115481565b6000600681111561271357fe5b600061271d6131c9565b81548110151561272957fe5b906000526020600020906006020160000160009054906101000a900460ff16600681111561275357fe5b14806127a957506002600681111561276757fe5b60006127716131c9565b81548110151561277d57fe5b906000526020600020906006020160000160009054906101000a900460ff1660068111156127a757fe5b145b15156127b457600080fd5b600160009054906101000a900473ffffffffffffffffffffffffffffffffffffffff1673ffffffffffffffffffffffffffffffffffffffff163373ffffffffffffffffffffffffffffffffffffffff1614151561281057600080fd5b6128248160156132de90919063ffffffff16565b50565b600160009054906101000a900473ffffffffffffffffffffffffffffffffffffffff1673ffffffffffffffffffffffffffffffffffffffff163373ffffffffffffffffffffffffffffffffffffffff1614151561288357600080fd5b61288b61148c565b6000601b60006101000a81548173ffffffffffffffffffffffffffffffffffffffff021916908373ffffffffffffffffffffffffffffffffffffffff160217905550565b60008060006128dc611dce565b15156128e757600080fd5b6128ef610f49565b1515156128fb57600080fd5b60006129056131c9565b81548110151561291157fe5b906000526020600020906006020160050160009054906101000a900460ff16151561293b57600080fd5b34915061294782613536565b9050612954848383613575565b61295f8483836136f9565b61296984826137c9565b8373ffffffffffffffffffffffffffffffffffffffff163373ffffffffffffffffffffffffffffffffffffffff167f623b3804fa71d67900d064613da8f94b9617215ee90799290593e1745087ad188484604051808381526020018281526020019250505060405180910390a35050919050565b600160009054906101000a900473ffffffffffffffffffffffffffffffffffffffff1673ffffffffffffffffffffffffffffffffffffffff163373ffffffffffffffffffffffffffffffffffffffff16141515612a3957600080fd5b612a41611dce565b1515612a4c57600080fd5b612a54610f49565b151515612a6057600080fd5b6000612a6a6131c9565b815481101515612a7657fe5b906000526020600020906006020160050160009054906101000a900460ff161515612aa057600080fd5b600073ffffffffffffffffffffffffffffffffffffffff168273ffffffffffffffffffffffffffffffffffffffff1614151515612adc57600080fd5b60008114151515612aec57600080fd5b601854612b04826019546134cc90919063ffffffff16565b11151515612b1157600080fd5b612b6381601a60008573ffffffffffffffffffffffffffffffffffffffff1673ffffffffffffffffffffffffffffffffffffffff168152602001908152602001600020546134cc90919063ffffffff16565b601a60008473ffffffffffffffffffffffffffffffffffffffff1673ffffffffffffffffffffffffffffffffffffffff16815260200190815260200160002081905550612bbb816019546134cc90919063ffffffff16565b601981905550600360009054906101000a900473ffffffffffffffffffffffffffffffffffffffff1673ffffffffffffffffffffffffffffffffffffffff1663a9059cbb83836040518363ffffffff167c0100000000000000000000000000000000000000000000000000000000028152600401808373ffffffffffffffffffffffffffffffffffffffff1673ffffffffffffffffffffffffffffffffffffffff16815260200182815260200192505050602060405180830381600087803b158015612c8657600080fd5b505af1158015612c9a573d6000803e3d6000fd5b505050506040513d6020811015612cb057600080fd5b8101908080519060200190929190505050508173ffffffffffffffffffffffffffffffffffffffff16600160009054906101000a900473ffffffffffffffffffffffffffffffffffffffff1673ffffffffffffffffffffffffffffffffffffffff167f3dd247ca176cfa1531a4faf4ef926c52f3201b3056f8d738306f4383fa700d04836040518082815260200191505060405180910390a35050565b600160009054906101000a900473ffffffffffffffffffffffffffffffffffffffff1673ffffffffffffffffffffffffffffffffffffffff163373ffffffffffffffffffffffffffffffffffffffff16141515612da957600080fd5b600073ffffffffffffffffffffffffffffffffffffffff168173ffffffffffffffffffffffffffffffffffffffff1614151515612de557600080fd5b8073ffffffffffffffffffffffffffffffffffffffff16600160009054906101000a900473ffffffffffffffffffffffffffffffffffffffff1673ffffffffffffffffffffffffffffffffffffffff167f8be0079c531659141344cd1fd0a4f28419497f9722a3daafe3b4186f6b6457e060405160405180910390a380600160006101000a81548173ffffffffffffffffffffffffffffffffffffffff021916908373ffffffffffffffffffffffffffffffffffffffff16021790555050565b600160009054906101000a900473ffffffffffffffffffffffffffffffffffffffff1673ffffffffffffffffffffffffffffffffffffffff163373ffffffffffffffffffffffffffffffffffffffff16141515612f0157600080fd5b600073ffffffffffffffffffffffffffffffffffffffff168273ffffffffffffffffffffffffffffffffffffffff1614151515612f3d57600080fd5b60008114151515612f4d57600080fd5b600f548111151515612f5e57600080fd5b8173ffffffffffffffffffffffffffffffffffffffff166108fc829081150290604051600060405180830381858888f19350505050158015612fa4573d6000803e3d6000fd5b505050565b6000612fbf82601561347390919063ffffffff16565b9050919050565b6000601260019054906101000a900460ff161515612fe357600080fd5b60016002811115612ff057fe5b601260009054906101000a900460ff16600281111561300b57fe5b14151561301757600080fd5b6000601060008473ffffffffffffffffffffffffffffffffffffffff1673ffffffffffffffffffffffffffffffffffffffff168152602001908152602001600020541415151561306657600080fd5b601060008373ffffffffffffffffffffffffffffffffffffffff1673ffffffffffffffffffffffffffffffffffffffff1681526020019081526020016000205490506000601060008473ffffffffffffffffffffffffffffffffffffffff1673ffffffffffffffffffffffffffffffffffffffff168152602001908152602001600020819055508173ffffffffffffffffffffffffffffffffffffffff166108fc829081150290604051600060405180830381858888f19350505050158015613133573d6000803e3d6000fd5b507fd7dee2702d63ad89917b6a4da9981c90c4d24f8c2bdfd64c604ecae57d8d06518282604051808373ffffffffffffffffffffffffffffffffffffffff1673ffffffffffffffffffffffffffffffffffffffff1681526020018281526020019250505060405180910390a15050565b600360009054906101000a900473ffffffffffffffffffffffffffffffffffffffff1681565b6000806131d4611dce565b15156131df57600080fd5b6131e7610f49565b1515156131f357600080fd5b600090505b60008054905081101561326f5760008181548110151561321457fe5b9060005260206000209060060201600101544210158015613255575060008181548110151561323f57fe5b9060005260206000209060060201600201544211155b1561326257809150613270565b80806001019150506131f8565b5b5090565b60008260000160008373ffffffffffffffffffffffffffffffffffffffff1673ffffffffffffffffffffffffffffffffffffffff16815260200190815260200160002060006101000a81548160ff0219169083151502179055505050565b600080601d5414905090565b60018260000160008373ffffffffffffffffffffffffffffffffffffffff1673ffffffffffffffffffffffffffffffffffffffff16815260200190815260200160002060006101000a81548160ff0219169083151502179055505050565b6000600281111561334957fe5b601260009054906101000a900460ff16600281111561336457fe5b14151561337057600080fd5b801561344b576002601260006101000a81548160ff0219169083600281111561339557fe5b0217905550600460009054906101000a900473ffffffffffffffffffffffffffffffffffffffff1673ffffffffffffffffffffffffffffffffffffffff166108fc3073ffffffffffffffffffffffffffffffffffffffff16319081150290604051600060405180830381858888f19350505050158015613419573d6000803e3d6000fd5b507f1cdde67b72a90f19919ac732a437ac2f7a10fc128d28c2a6e525d89ce5cd9d3a60405160405180910390a1613470565b6001601260006101000a81548160ff0219169083600281111561346a57fe5b02179055505b50565b60008260000160008373ffffffffffffffffffffffffffffffffffffffff1673ffffffffffffffffffffffffffffffffffffffff16815260200190815260200160002060009054906101000a900460ff16905092915050565b600081830190508281101515156134df57fe5b80905092915050565b6000808314156134fb576000905061351a565b818302905081838281151561350c57fe5b0414151561351657fe5b8090505b92915050565b6000818381151561352d57fe5b04905092915050565b600080613541611da0565b905061356d600754600a0a61355f83866134e890919063ffffffff16565b61352090919063ffffffff16565b915050919050565b600073ffffffffffffffffffffffffffffffffffffffff168373ffffffffffffffffffffffffffffffffffffffff16141515156135b157600080fd5b600082141515156135c157600080fd5b6135c9611d2d565b6135de826011546134cc90919063ffffffff16565b111515156135eb57600080fd5b6135f3612623565b61364583601060008773ffffffffffffffffffffffffffffffffffffffff1673ffffffffffffffffffffffffffffffffffffffff168152602001908152602001600020546134cc90919063ffffffff16565b1015151561365257600080fd5b61365a610ea7565b6136ac83601060008773ffffffffffffffffffffffffffffffffffffffff1673ffffffffffffffffffffffffffffffffffffffff168152602001908152602001600020546134cc90919063ffffffff16565b111515156136b957600080fd5b600160068111156136c657fe5b6136ce6126c5565b60068111156136d957fe5b14156136f4576136e883611adc565b15156136f357600080fd5b5b505050565b61374b82601060008673ffffffffffffffffffffffffffffffffffffffff1673ffffffffffffffffffffffffffffffffffffffff168152602001908152602001600020546134cc90919063ffffffff16565b601060008573ffffffffffffffffffffffffffffffffffffffff1673ffffffffffffffffffffffffffffffffffffffff168152602001908152602001600020819055506137a3816011546134cc90919063ffffffff16565b6011819055506137be82600f546134cc90919063ffffffff16565b600f81905550505050565b600360009054906101000a900473ffffffffffffffffffffffffffffffffffffffff1673ffffffffffffffffffffffffffffffffffffffff1663a9059cbb83836040518363ffffffff167c0100000000000000000000000000000000000000000000000000000000028152600401808373ffffffffffffffffffffffffffffffffffffffff1673ffffffffffffffffffffffffffffffffffffffff16815260200182815260200192505050602060405180830381600087803b15801561388e57600080fd5b505af11580156138a2573d6000803e3d6000fd5b505050506040513d60208110156138b857600080fd5b8101908080519060200190929190505050505050565b608060405190810160405280600073ffffffffffffffffffffffffffffffffffffffff168152602001600081526020016060815260200160007bffffffffffffffffffffffffffffffffffffffffffffffffffffffff1916815250905600a165627a7a723058206df7763933cc07287ebaf0f3fa1f0ccf3a3a2ae6cb0519638fef91db1f1bff2b0029",
  "source": "pragma solidity ^0.4.23;\r\n\r\nimport \"../crowdSale/BasicCrowdsale.sol\";\r\nimport \"../crowdSale/FinalizableCrowdsale.sol\";\r\nimport \"../crowdSale/GrantedCrowdsale.sol\";\r\nimport \"../crowdSale/RefundableCrowdsale.sol\";\r\nimport \"../crowdSale/ReferralCorwdsale.sol\";\r\nimport \"../crowdSale/tokenReceiver.sol\";\r\nimport \"../crowdSale/BurnableCrowdsale.sol\";\r\nimport \"../ownership/Heritable.sol\";\r\n\r\ncontract WOXCrowdsaleTest is \r\n    BasicCrowdsale,\r\n    FinalizableCrowdsale,\r\n    GrantedCrowdsale,\r\n    RefundableCrowdsale,\r\n    ReferralCrowdsale,\r\n    BurnableCrowdsale,\r\n    tokenReceiver,\r\n    Heritable\r\n{\r\n    constructor(\r\n        uint256 _cliff,\r\n        uint256 _USD_PER_ETH,\r\n        address _wallet,\r\n        address _tokenAddress\r\n        ) \r\n        public \r\n    {\r\n        require(_wallet != address(0));\r\n        require(_tokenAddress != address(0));\r\n        \r\n        USD_PER_ETH = _USD_PER_ETH;\r\n        wallet = _wallet;\r\n        state = State.Active;\r\n        isFinalized = false;\r\n        \r\n        token = woxToken(_tokenAddress);\r\n        totalSupply = token.totalSupply();\r\n        decimals = token.decimals();\r\n        tokenName = token.name();\r\n        tokenSymbol = token.symbol();\r\n\r\n        softcapWei = uint256(3e6).mul(1 ether).div(USD_PER_ETH);\r\n        MaxReferralTokens = uint256(30e6).mul(10 ** decimals);\r\n\r\n        minVestingWeiPreICO = uint256(50e3 ether).div(USD_PER_ETH);\r\n        maxVestingWeiPreICO = uint256(500e3 ether).div(USD_PER_ETH);\r\n        minVestingWeiICO = 0.1 ether;\r\n        maxVestingWeiICO = 300 ether;\r\n\r\n        uint256 _openingTime = now + _cliff;\r\n\r\n        addTier(\r\n            TierStates.preWhitelist,\r\n            _openingTime, \r\n            _openingTime + 3,\r\n            0, \r\n            0,\r\n            false);\r\n\r\n        addTier(\r\n            TierStates.preICO,\r\n            Tiers[Tiers.length-1].ending, \r\n            Tiers[Tiers.length-1].ending + 3, \r\n            uint256(120e6).mul(10 ** 18), \r\n            uint256(USD_PER_ETH).mul(10 ** 18).mul(100).div(8),            \r\n            true);\r\n            \r\n        addTier(\r\n            TierStates.Whitelist,\r\n            Tiers[Tiers.length-1].ending, \r\n            Tiers[Tiers.length-1].ending + 3, \r\n            0, \r\n            0, \r\n            false);\r\n            \r\n        addTier(\r\n            TierStates.ICORound1,\r\n            Tiers[Tiers.length-1].ending, \r\n            Tiers[Tiers.length-1].ending + 3, \r\n            uint256(125e6).mul(10 ** 18), \r\n            uint256(USD_PER_ETH).mul(10 ** 18).mul(100).div(12), \r\n            true);\r\n            \r\n        addTier(\r\n            TierStates.ICORound2,\r\n            Tiers[Tiers.length-1].ending, \r\n            Tiers[Tiers.length-1].ending + 3,\r\n            uint256(125e6).mul(10 ** 18), \r\n            uint256(USD_PER_ETH).mul(10 ** 18).mul(100).div(13), \r\n            true);\r\n            \r\n        addTier(\r\n            TierStates.ICORound3,\r\n            Tiers[Tiers.length-1].ending, \r\n            Tiers[Tiers.length-1].ending + 3, \r\n            uint256(125e6).mul(10 ** 18), \r\n            uint256(USD_PER_ETH).mul(10 ** 18).mul(100).div(14), \r\n            true);\r\n            \r\n        addTier(\r\n            TierStates.ICORound4,\r\n            Tiers[Tiers.length-1].ending, \r\n            Tiers[Tiers.length-1].ending + 3, \r\n            uint256(125e6).mul(10 ** 18), \r\n            uint256(USD_PER_ETH).mul(10 ** 18).mul(100).div(15), \r\n            true);\r\n    }\r\n}",
  "sourcePath": "G:\\Root\\Blockchain\\WOX\\contracts\\test\\WOXCrowdsaleTest.sol",
  "compiler": {
    "name": "solc",
    "version": "0.4.23+commit.124ca40d.Emscripten.clang"
  },
  "schemaVersion": "2.0.0",
  "updatedAt": "2018-06-27T06:56:02.161Z"
}