{
  "contractName": "WOXCrowdsaleTest",
  "abi": [
    {
      "constant": false,
      "inputs": [
        {
          "name": "_grantee",
          "type": "address"
        }
      ],
      "name": "removeFromGrantees",
      "outputs": [],
      "payable": false,
      "stateMutability": "nonpayable",
      "type": "function"
    },
    {
      "constant": true,
      "inputs": [],
      "name": "maxVestingWei",
      "outputs": [
        {
          "name": "",
          "type": "uint256"
        }
      ],
      "payable": false,
      "stateMutability": "view",
      "type": "function"
    },
    {
      "constant": true,
      "inputs": [],
      "name": "hasClosed",
      "outputs": [
        {
          "name": "",
          "type": "bool"
        }
      ],
      "payable": false,
      "stateMutability": "view",
      "type": "function"
    },
    {
      "constant": true,
      "inputs": [],
      "name": "totalSupply",
      "outputs": [
        {
          "name": "",
          "type": "uint256"
        }
      ],
      "payable": false,
      "stateMutability": "view",
      "type": "function"
    },
    {
      "constant": true,
      "inputs": [],
      "name": "grantedTokens",
      "outputs": [
        {
          "name": "",
          "type": "uint256"
        }
      ],
      "payable": false,
      "stateMutability": "view",
      "type": "function"
    },
    {
      "constant": true,
      "inputs": [],
      "name": "currentTierHardcap",
      "outputs": [
        {
          "name": "",
          "type": "uint256"
        }
      ],
      "payable": false,
      "stateMutability": "view",
      "type": "function"
    },
    {
      "constant": true,
      "inputs": [],
      "name": "decimals",
      "outputs": [
        {
          "name": "",
          "type": "uint256"
        }
      ],
      "payable": false,
      "stateMutability": "view",
      "type": "function"
    },
    {
      "constant": true,
      "inputs": [],
      "name": "weiRaised",
      "outputs": [
        {
          "name": "",
          "type": "uint256"
        }
      ],
      "payable": false,
      "stateMutability": "view",
      "type": "function"
    },
    {
      "constant": true,
      "inputs": [],
      "name": "getWeiRaised",
      "outputs": [
        {
          "name": "",
          "type": "uint256"
        }
      ],
      "payable": false,
      "stateMutability": "view",
      "type": "function"
    },
    {
      "constant": false,
      "inputs": [],
      "name": "finalize",
      "outputs": [],
      "payable": false,
      "stateMutability": "nonpayable",
      "type": "function"
    },
    {
      "constant": true,
      "inputs": [],
      "name": "wallet",
      "outputs": [
        {
          "name": "",
          "type": "address"
        }
      ],
      "payable": false,
      "stateMutability": "view",
      "type": "function"
    },
    {
      "constant": true,
      "inputs": [],
      "name": "grantHardcapToken",
      "outputs": [
        {
          "name": "",
          "type": "uint256"
        }
      ],
      "payable": false,
      "stateMutability": "view",
      "type": "function"
    },
    {
      "constant": false,
      "inputs": [
        {
          "name": "_vc",
          "type": "address"
        }
      ],
      "name": "addToVC",
      "outputs": [],
      "payable": false,
      "stateMutability": "nonpayable",
      "type": "function"
    },
    {
      "constant": true,
      "inputs": [],
      "name": "tokenName",
      "outputs": [
        {
          "name": "",
          "type": "string"
        }
      ],
      "payable": false,
      "stateMutability": "view",
      "type": "function"
    },
    {
      "constant": false,
      "inputs": [
        {
          "name": "_burnAmount",
          "type": "uint256"
        }
      ],
      "name": "burnTokens",
      "outputs": [],
      "payable": false,
      "stateMutability": "nonpayable",
      "type": "function"
    },
    {
      "constant": false,
      "inputs": [],
      "name": "renounceOwnership",
      "outputs": [],
      "payable": false,
      "stateMutability": "nonpayable",
      "type": "function"
    },
    {
      "constant": true,
      "inputs": [
        {
          "name": "_vc",
          "type": "address"
        }
      ],
      "name": "whtielistedAsVC",
      "outputs": [
        {
          "name": "",
          "type": "bool"
        }
      ],
      "payable": false,
      "stateMutability": "view",
      "type": "function"
    },
    {
      "constant": true,
      "inputs": [],
      "name": "tokenSymbol",
      "outputs": [
        {
          "name": "",
          "type": "string"
        }
      ],
      "payable": false,
      "stateMutability": "view",
      "type": "function"
    },
    {
      "constant": true,
      "inputs": [],
      "name": "goalReached",
      "outputs": [
        {
          "name": "",
          "type": "bool"
        }
      ],
      "payable": false,
      "stateMutability": "view",
      "type": "function"
    },
    {
      "constant": true,
      "inputs": [],
      "name": "grantHardcapTokenPerEach",
      "outputs": [
        {
          "name": "",
          "type": "uint256"
        }
      ],
      "payable": false,
      "stateMutability": "view",
      "type": "function"
    },
    {
      "constant": true,
      "inputs": [],
      "name": "owner",
      "outputs": [
        {
          "name": "",
          "type": "address"
        }
      ],
      "payable": false,
      "stateMutability": "view",
      "type": "function"
    },
    {
      "constant": true,
      "inputs": [],
      "name": "referralTokens",
      "outputs": [
        {
          "name": "",
          "type": "uint256"
        }
      ],
      "payable": false,
      "stateMutability": "view",
      "type": "function"
    },
    {
      "constant": false,
      "inputs": [
        {
          "name": "_vc",
          "type": "address"
        }
      ],
      "name": "removeFromVC",
      "outputs": [],
      "payable": false,
      "stateMutability": "nonpayable",
      "type": "function"
    },
    {
      "constant": true,
      "inputs": [],
      "name": "currentSaleTokenWeiHardcap",
      "outputs": [
        {
          "name": "",
          "type": "uint256"
        }
      ],
      "payable": false,
      "stateMutability": "view",
      "type": "function"
    },
    {
      "constant": true,
      "inputs": [],
      "name": "MaxReferralTokens",
      "outputs": [
        {
          "name": "",
          "type": "uint256"
        }
      ],
      "payable": false,
      "stateMutability": "view",
      "type": "function"
    },
    {
      "constant": true,
      "inputs": [],
      "name": "currentTierTokenWeisPerEth",
      "outputs": [
        {
          "name": "",
          "type": "uint256"
        }
      ],
      "payable": false,
      "stateMutability": "view",
      "type": "function"
    },
    {
      "constant": true,
      "inputs": [],
      "name": "hasOpened",
      "outputs": [
        {
          "name": "",
          "type": "bool"
        }
      ],
      "payable": false,
      "stateMutability": "view",
      "type": "function"
    },
    {
      "constant": true,
      "inputs": [
        {
          "name": "_from",
          "type": "address"
        },
        {
          "name": "_value",
          "type": "uint256"
        },
        {
          "name": "_data",
          "type": "bytes"
        }
      ],
      "name": "tokenFallback",
      "outputs": [],
      "payable": false,
      "stateMutability": "pure",
      "type": "function"
    },
    {
      "constant": false,
      "inputs": [
        {
          "name": "_grantee",
          "type": "address"
        },
        {
          "name": "_tokenAmount",
          "type": "uint256"
        }
      ],
      "name": "grantTokens",
      "outputs": [],
      "payable": false,
      "stateMutability": "nonpayable",
      "type": "function"
    },
    {
      "constant": true,
      "inputs": [],
      "name": "minVestingWei",
      "outputs": [
        {
          "name": "",
          "type": "uint256"
        }
      ],
      "payable": false,
      "stateMutability": "view",
      "type": "function"
    },
    {
      "constant": true,
      "inputs": [],
      "name": "currentTier",
      "outputs": [
        {
          "name": "",
          "type": "uint8"
        }
      ],
      "payable": false,
      "stateMutability": "view",
      "type": "function"
    },
    {
      "constant": true,
      "inputs": [],
      "name": "tokenWeisSold",
      "outputs": [
        {
          "name": "",
          "type": "uint256"
        }
      ],
      "payable": false,
      "stateMutability": "view",
      "type": "function"
    },
    {
      "constant": false,
      "inputs": [
        {
          "name": "_grantee",
          "type": "address"
        }
      ],
      "name": "addToGrantees",
      "outputs": [],
      "payable": false,
      "stateMutability": "nonpayable",
      "type": "function"
    },
    {
      "constant": false,
      "inputs": [
        {
          "name": "_beneficiary",
          "type": "address"
        }
      ],
      "name": "buyTokens",
      "outputs": [
        {
          "name": "",
          "type": "uint256"
        }
      ],
      "payable": true,
      "stateMutability": "payable",
      "type": "function"
    },
    {
      "constant": false,
      "inputs": [
        {
          "name": "_referrer",
          "type": "address"
        },
        {
          "name": "_amount",
          "type": "uint256"
        }
      ],
      "name": "PayReferral",
      "outputs": [],
      "payable": false,
      "stateMutability": "nonpayable",
      "type": "function"
    },
    {
      "constant": false,
      "inputs": [
        {
          "name": "newOwner",
          "type": "address"
        }
      ],
      "name": "transferOwnership",
      "outputs": [],
      "payable": false,
      "stateMutability": "nonpayable",
      "type": "function"
    },
    {
      "constant": false,
      "inputs": [
        {
          "name": "_wallet",
          "type": "address"
        },
        {
          "name": "_weiAmount",
          "type": "uint256"
        }
      ],
      "name": "withdraw",
      "outputs": [],
      "payable": false,
      "stateMutability": "nonpayable",
      "type": "function"
    },
    {
      "constant": true,
      "inputs": [
        {
          "name": "_grantee",
          "type": "address"
        }
      ],
      "name": "whitelistedAsGrantee",
      "outputs": [
        {
          "name": "",
          "type": "bool"
        }
      ],
      "payable": false,
      "stateMutability": "view",
      "type": "function"
    },
    {
      "constant": false,
      "inputs": [
        {
          "name": "_investor",
          "type": "address"
        }
      ],
      "name": "refund",
      "outputs": [],
      "payable": false,
      "stateMutability": "nonpayable",
      "type": "function"
    },
    {
      "constant": true,
      "inputs": [],
      "name": "token",
      "outputs": [
        {
          "name": "",
          "type": "address"
        }
      ],
      "payable": false,
      "stateMutability": "view",
      "type": "function"
    },
    {
      "inputs": [
        {
          "name": "_cliff",
          "type": "uint256"
        },
        {
          "name": "_USD_PER_ETH",
          "type": "uint256"
        },
        {
          "name": "_wallet",
          "type": "address"
        },
        {
          "name": "_tokenAddress",
          "type": "address"
        }
      ],
      "payable": false,
      "stateMutability": "nonpayable",
      "type": "constructor"
    },
    {
      "anonymous": false,
      "inputs": [
        {
          "indexed": false,
          "name": "_burner",
          "type": "address"
        },
        {
          "indexed": false,
          "name": "_burnedFrom",
          "type": "address"
        },
        {
          "indexed": false,
          "name": "_burnAmount",
          "type": "uint256"
        }
      ],
      "name": "Burned",
      "type": "event"
    },
    {
      "anonymous": false,
      "inputs": [
        {
          "indexed": true,
          "name": "sender",
          "type": "address"
        },
        {
          "indexed": true,
          "name": "referre",
          "type": "address"
        },
        {
          "indexed": false,
          "name": "amount",
          "type": "uint256"
        }
      ],
      "name": "ReferralTokenPaid",
      "type": "event"
    },
    {
      "anonymous": false,
      "inputs": [
        {
          "indexed": false,
          "name": "_investor",
          "type": "address"
        },
        {
          "indexed": false,
          "name": "_depositedValue",
          "type": "uint256"
        }
      ],
      "name": "Refunded",
      "type": "event"
    },
    {
      "anonymous": false,
      "inputs": [
        {
          "indexed": true,
          "name": "sender",
          "type": "address"
        },
        {
          "indexed": true,
          "name": "grantee",
          "type": "address"
        },
        {
          "indexed": false,
          "name": "amount",
          "type": "uint256"
        }
      ],
      "name": "TokenGranted",
      "type": "event"
    },
    {
      "anonymous": false,
      "inputs": [],
      "name": "Finalized",
      "type": "event"
    },
    {
      "anonymous": false,
      "inputs": [],
      "name": "Closed",
      "type": "event"
    },
    {
      "anonymous": false,
      "inputs": [
        {
          "indexed": true,
          "name": "purchaser",
          "type": "address"
        },
        {
          "indexed": true,
          "name": "beneficiary",
          "type": "address"
        },
        {
          "indexed": false,
          "name": "value",
          "type": "uint256"
        },
        {
          "indexed": false,
          "name": "amount",
          "type": "uint256"
        }
      ],
      "name": "TokenPurchase",
      "type": "event"
    },
    {
      "anonymous": false,
      "inputs": [
        {
          "indexed": true,
          "name": "previousOwner",
          "type": "address"
        }
      ],
      "name": "OwnershipRenounced",
      "type": "event"
    },
    {
      "anonymous": false,
      "inputs": [
        {
          "indexed": true,
          "name": "previousOwner",
          "type": "address"
        },
        {
          "indexed": true,
          "name": "newOwner",
          "type": "address"
        }
      ],
      "name": "OwnershipTransferred",
      "type": "event"
    }
  ],
  "bytecode": "0x60806040523480156200001157600080fd5b50604051608080620040d583398101806040528101908080519060200190929190805190602001909291908051906020019092919080519060200190929190505050600033600160006101000a81548173ffffffffffffffffffffffffffffffffffffffff021916908373ffffffffffffffffffffffffffffffffffffffff160217905550600073ffffffffffffffffffffffffffffffffffffffff168373ffffffffffffffffffffffffffffffffffffffff1614151515620000d357600080fd5b600073ffffffffffffffffffffffffffffffffffffffff168273ffffffffffffffffffffffffffffffffffffffff16141515156200011057600080fd5b83600e8190555082600460006101000a81548173ffffffffffffffffffffffffffffffffffffffff021916908373ffffffffffffffffffffffffffffffffffffffff1602179055506000601260006101000a81548160ff021916908360028111156200017857fe5b02179055506000601260016101000a81548160ff02191690831515021790555081600360006101000a81548173ffffffffffffffffffffffffffffffffffffffff021916908373ffffffffffffffffffffffffffffffffffffffff160217905550600360009054906101000a900473ffffffffffffffffffffffffffffffffffffffff1673ffffffffffffffffffffffffffffffffffffffff166318160ddd6040518163ffffffff167c0100000000000000000000000000000000000000000000000000000000028152600401602060405180830381600087803b1580156200026057600080fd5b505af115801562000275573d6000803e3d6000fd5b505050506040513d60208110156200028c57600080fd5b8101908080519060200190929190505050600681905550600360009054906101000a900473ffffffffffffffffffffffffffffffffffffffff1673ffffffffffffffffffffffffffffffffffffffff1663313ce5676040518163ffffffff167c0100000000000000000000000000000000000000000000000000000000028152600401602060405180830381600087803b1580156200032a57600080fd5b505af11580156200033f573d6000803e3d6000fd5b505050506040513d60208110156200035657600080fd5b8101908080519060200190929190505050600781905550600360009054906101000a900473ffffffffffffffffffffffffffffffffffffffff1673ffffffffffffffffffffffffffffffffffffffff166306fdde036040518163ffffffff167c0100000000000000000000000000000000000000000000000000000000028152600401600060405180830381600087803b158015620003f457600080fd5b505af115801562000409573d6000803e3d6000fd5b505050506040513d6000823e3d601f19601f8201168201806040525060208110156200043457600080fd5b8101908080516401000000008111156200044d57600080fd5b828101905060208101848111156200046457600080fd5b81518560018202830111640100000000821117156200048257600080fd5b505092919050505060089080519060200190620004a192919062000ec0565b50600360009054906101000a900473ffffffffffffffffffffffffffffffffffffffff1673ffffffffffffffffffffffffffffffffffffffff166395d89b416040518163ffffffff167c0100000000000000000000000000000000000000000000000000000000028152600401600060405180830381600087803b1580156200052957600080fd5b505af11580156200053e573d6000803e3d6000fd5b505050506040513d6000823e3d601f19601f8201168201806040525060208110156200056957600080fd5b8101908080516401000000008111156200058257600080fd5b828101905060208101848111156200059957600080fd5b8151856001820283011164010000000082111715620005b757600080fd5b505092919050505060099080519060200190620005d692919062000ec0565b5062000629600e546200060c670de0b6b3a7640000622dc6c062000d046401000000000262002ca1179091906401000000009004565b62000d406401000000000262002cd9179091906401000000009004565b6005819055506200065b600754600a0a6301c9c38062000d046401000000000262002ca1179091906401000000009004565b60188190555062000690600e54690a968163f0a57b40000062000d406401000000000262002cd9179091906401000000009004565b600a81905550620006c5600e546969e10de76676d080000062000d406401000000000262002cd9179091906401000000009004565b600b8190555067016345785d8a0000600c81905550681043561a8829300000600d8190555084420190506200071460008260038401600080600062000d57640100000000026401000000009004565b6200082a600160006001600080549050038154811015156200073257fe5b906000526020600020906006020160020154600360006001600080549050038154811015156200075e57fe5b90600052602060002090600602016002015401620007a0670de0b6b3a76400006307270e0062000d046401000000000262002ca1179091906401000000009004565b620008136008620007f66064620007d9670de0b6b3a7640000600e5462000d046401000000000262002ca1179091906401000000009004565b62000d046401000000000262002ca1179091906401000000009004565b62000d406401000000000262002cd9179091906401000000009004565b600162000d57640100000000026401000000009004565b620008a1600260006001600080549050038154811015156200084857fe5b906000526020600020906006020160020154600360006001600080549050038154811015156200087457fe5b90600052602060002090600602016002015401600080600062000d57640100000000026401000000009004565b620009b760036000600160008054905003815481101515620008bf57fe5b90600052602060002090600602016002015460036000600160008054905003815481101515620008eb57fe5b906000526020600020906006020160020154016200092d670de0b6b3a7640000630773594062000d046401000000000262002ca1179091906401000000009004565b620009a0600c62000983606462000966670de0b6b3a7640000600e5462000d046401000000000262002ca1179091906401000000009004565b62000d046401000000000262002ca1179091906401000000009004565b62000d406401000000000262002cd9179091906401000000009004565b600162000d57640100000000026401000000009004565b62000acd60046000600160008054905003815481101515620009d557fe5b9060005260206000209060060201600201546003600060016000805490500381548110151562000a0157fe5b9060005260206000209060060201600201540162000a43670de0b6b3a7640000630773594062000d046401000000000262002ca1179091906401000000009004565b62000ab6600d62000a99606462000a7c670de0b6b3a7640000600e5462000d046401000000000262002ca1179091906401000000009004565b62000d046401000000000262002ca1179091906401000000009004565b62000d406401000000000262002cd9179091906401000000009004565b600162000d57640100000000026401000000009004565b62000be36005600060016000805490500381548110151562000aeb57fe5b9060005260206000209060060201600201546003600060016000805490500381548110151562000b1757fe5b9060005260206000209060060201600201540162000b59670de0b6b3a7640000630773594062000d046401000000000262002ca1179091906401000000009004565b62000bcc600e62000baf606462000b92670de0b6b3a7640000600e5462000d046401000000000262002ca1179091906401000000009004565b62000d046401000000000262002ca1179091906401000000009004565b62000d406401000000000262002cd9179091906401000000009004565b600162000d57640100000000026401000000009004565b62000cf96006600060016000805490500381548110151562000c0157fe5b9060005260206000209060060201600201546003600060016000805490500381548110151562000c2d57fe5b9060005260206000209060060201600201540162000c6f670de0b6b3a7640000630773594062000d046401000000000262002ca1179091906401000000009004565b62000ce2600f62000cc5606462000ca8670de0b6b3a7640000600e5462000d046401000000000262002ca1179091906401000000009004565b62000d046401000000000262002ca1179091906401000000009004565b62000d406401000000000262002cd9179091906401000000009004565b600162000d57640100000000026401000000009004565b505050505062000fb4565b60008083141562000d19576000905062000d3a565b818302905081838281151562000d2b57fe5b0414151562000d3657fe5b8090505b92915050565b6000818381151562000d4e57fe5b04905092915050565b62000d6162000f47565b858511151562000d7057600080fd5b60008080549050111562000db857600060016000805490500381548110151562000d9657fe5b906000526020600020906006020160020154861015151562000db757600080fd5b5b868160000190600681111562000dca57fe5b9081600681111562000dd857fe5b8152505085816020018181525050848160400181815250508381606001818152505082816080018181525050818160a00190151590811515815250506000819080600181540180825580915050906001820390600052602060002090600602016000909192909190915060008201518160000160006101000a81548160ff0219169083600681111562000e6757fe5b02179055506020820151816001015560408201518160020155606082015181600301556080820151816004015560a08201518160050160006101000a81548160ff02191690831515021790555050505050505050505050565b828054600181600116156101000203166002900490600052602060002090601f016020900481019282601f1062000f0357805160ff191683800117855562000f34565b8280016001018555821562000f34579182015b8281111562000f3357825182559160200191906001019062000f16565b5b50905062000f43919062000f8c565b5090565b60c0604051908101604052806000600681111562000f6157fe5b8152602001600081526020016000815260200160008152602001600081526020016000151581525090565b62000fb191905b8082111562000fad57600081600090555060010162000f93565b5090565b90565b6131118062000fc46000396000f3006080604052600436106101ee576000357c0100000000000000000000000000000000000000000000000000000000900463ffffffff1680630425b553146101f357806306c36581146102365780631515bc2b1461026157806318160ddd146102905780631ee42bcf146102bb578063301df9dd146102e6578063313ce567146103115780634042b66f1461033c57806340582f13146103675780634bb278f314610392578063521eb273146103a957806352f646811461040057806353fe21ad1461042b5780636c02a9311461046e5780636d1b229d146104fe578063715018a61461052b578063792d7ec3146105425780637b61c3201461059d5780637d3d65221461062d578063893796401461065c5780638da5cb5b146106875780639303b0b8146106de5780639fb160aa146107095780639fc2e24f1461074c578063b64657a714610777578063bbe8a466146107a2578063be8eef8e146107cd578063c0ee0b8a146107fc578063c94e643c1461088f578063ce7f3a27146108dc578063d679677a14610907578063e184a51514610940578063e996a3dd1461096b578063ec8ac4d8146109ae578063ee84038e146109f8578063f2fde38b14610a45578063f3fef3a314610a88578063f556f4f714610ad5578063fa89401a14610b30578063fc0c546a14610b73575b600080fd5b3480156101ff57600080fd5b50610234600480360381019080803573ffffffffffffffffffffffffffffffffffffffff169060200190929190505050610bca565b005b34801561024257600080fd5b5061024b610ceb565b6040518082815260200191505060405180910390f35b34801561026d57600080fd5b50610276610d8d565b604051808215151515815260200191505060405180910390f35b34801561029c57600080fd5b506102a5610dbe565b6040518082815260200191505060405180910390f35b3480156102c757600080fd5b506102d0610dc4565b6040518082815260200191505060405180910390f35b3480156102f257600080fd5b506102fb610dca565b6040518082815260200191505060405180910390f35b34801561031d57600080fd5b50610326610df8565b6040518082815260200191505060405180910390f35b34801561034857600080fd5b50610351610dfe565b6040518082815260200191505060405180910390f35b34801561037357600080fd5b5061037c610e04565b6040518082815260200191505060405180910390f35b34801561039e57600080fd5b506103a7610e0e565b005b3480156103b557600080fd5b506103be610eea565b604051808273ffffffffffffffffffffffffffffffffffffffff1673ffffffffffffffffffffffffffffffffffffffff16815260200191505060405180910390f35b34801561040c57600080fd5b50610415610f10565b6040518082815260200191505060405180910390f35b34801561043757600080fd5b5061046c600480360381019080803573ffffffffffffffffffffffffffffffffffffffff169060200190929190505050610f16565b005b34801561047a57600080fd5b50610483611037565b6040518080602001828103825283818151815260200191508051906020019080838360005b838110156104c35780820151818401526020810190506104a8565b50505050905090810190601f1680156104f05780820380516001836020036101000a031916815260200191505b509250505060405180910390f35b34801561050a57600080fd5b50610529600480360381019080803590602001909291905050506110d5565b005b34801561053757600080fd5b5061054061127c565b005b34801561054e57600080fd5b50610583600480360381019080803573ffffffffffffffffffffffffffffffffffffffff169060200190929190505050611381565b604051808215151515815260200191505060405180910390f35b3480156105a957600080fd5b506105b261139e565b6040518080602001828103825283818151815260200191508051906020019080838360005b838110156105f25780820151818401526020810190506105d7565b50505050905090810190601f16801561061f5780820380516001836020036101000a031916815260200191505b509250505060405180910390f35b34801561063957600080fd5b5061064261143c565b604051808215151515815260200191505060405180910390f35b34801561066857600080fd5b5061067161144b565b6040518082815260200191505060405180910390f35b34801561069357600080fd5b5061069c611451565b604051808273ffffffffffffffffffffffffffffffffffffffff1673ffffffffffffffffffffffffffffffffffffffff16815260200191505060405180910390f35b3480156106ea57600080fd5b506106f3611477565b6040518082815260200191505060405180910390f35b34801561071557600080fd5b5061074a600480360381019080803573ffffffffffffffffffffffffffffffffffffffff16906020019092919050505061147d565b005b34801561075857600080fd5b5061076161159e565b6040518082815260200191505060405180910390f35b34801561078357600080fd5b5061078c611601565b6040518082815260200191505060405180910390f35b3480156107ae57600080fd5b506107b7611607565b6040518082815260200191505060405180910390f35b3480156107d957600080fd5b506107e2611635565b604051808215151515815260200191505060405180910390f35b34801561080857600080fd5b5061088d600480360381019080803573ffffffffffffffffffffffffffffffffffffffff16906020019092919080359060200190929190803590602001908201803590602001908080601f0160208091040260200160405190810160405280939291908181526020018383808284378201915050505050509192919290505050611660565b005b34801561089b57600080fd5b506108da600480360381019080803573ffffffffffffffffffffffffffffffffffffffff16906020019092919080359060200190929190505050611945565b005b3480156108e857600080fd5b506108f1611e8a565b6040518082815260200191505060405180910390f35b34801561091357600080fd5b5061091c611f2c565b6040518082600681111561092c57fe5b60ff16815260200191505060405180910390f35b34801561094c57600080fd5b50610955611f67565b6040518082815260200191505060405180910390f35b34801561097757600080fd5b506109ac600480360381019080803573ffffffffffffffffffffffffffffffffffffffff169060200190929190505050611f6d565b005b6109e2600480360381019080803573ffffffffffffffffffffffffffffffffffffffff16906020019092919050505061208e565b6040518082815260200191505060405180910390f35b348015610a0457600080fd5b50610a43600480360381019080803573ffffffffffffffffffffffffffffffffffffffff1690602001909291908035906020019092919050505061219c565b005b348015610a5157600080fd5b50610a86600480360381019080803573ffffffffffffffffffffffffffffffffffffffff16906020019092919050505061250c565b005b348015610a9457600080fd5b50610ad3600480360381019080803573ffffffffffffffffffffffffffffffffffffffff16906020019092919080359060200190929190505050612664565b005b348015610ae157600080fd5b50610b16600480360381019080803573ffffffffffffffffffffffffffffffffffffffff169060200190929190505050612768565b604051808215151515815260200191505060405180910390f35b348015610b3c57600080fd5b50610b71600480360381019080803573ffffffffffffffffffffffffffffffffffffffff169060200190929190505050612785565b005b348015610b7f57600080fd5b50610b88612962565b604051808273ffffffffffffffffffffffffffffffffffffffff1673ffffffffffffffffffffffffffffffffffffffff16815260200191505060405180910390f35b60006006811115610bd757fe5b6000610be1612988565b815481101515610bed57fe5b906000526020600020906006020160000160009054906101000a900460ff166006811115610c1757fe5b1480610c6d575060026006811115610c2b57fe5b6000610c35612988565b815481101515610c4157fe5b906000526020600020906006020160000160009054906101000a900460ff166006811115610c6b57fe5b145b1515610c7857600080fd5b600160009054906101000a900473ffffffffffffffffffffffffffffffffffffffff1673ffffffffffffffffffffffffffffffffffffffff163373ffffffffffffffffffffffffffffffffffffffff16141515610cd457600080fd5b610ce8816015612a3390919063ffffffff16565b50565b6000610cf5611635565b1515610d0057600080fd5b610d08610d8d565b151515610d1457600080fd5b6000610d1e612988565b815481101515610d2a57fe5b906000526020600020906006020160050160009054906101000a900460ff161515610d5457600080fd5b60016006811115610d6157fe5b610d69611f2c565b6006811115610d7457fe5b1415610d8457600b549050610d8a565b600d5490505b90565b600080600160008054905003815481101515610da557fe5b9060005260206000209060060201600201544211905090565b60065481565b60165481565b600080610dd5612988565b815481101515610de157fe5b906000526020600020906006020160030154905090565b60075481565b600f5481565b6000600f54905090565b600160009054906101000a900473ffffffffffffffffffffffffffffffffffffffff1673ffffffffffffffffffffffffffffffffffffffff163373ffffffffffffffffffffffffffffffffffffffff16141515610e6a57600080fd5b601260019054906101000a900460ff16151515610e8657600080fd5b610e8e610d8d565b1515610e9957600080fd5b610ea1612a91565b6001601260016101000a81548160ff0219169083151502179055507f6823b073d48d6e3a7d385eeb601452d680e74bb46afe3255a7d778f3a9b1768160405160405180910390a1565b600460009054906101000a900473ffffffffffffffffffffffffffffffffffffffff1681565b60135481565b600160009054906101000a900473ffffffffffffffffffffffffffffffffffffffff1673ffffffffffffffffffffffffffffffffffffffff163373ffffffffffffffffffffffffffffffffffffffff16141515610f7257600080fd5b60006006811115610f7f57fe5b6000610f89612988565b815481101515610f9557fe5b906000526020600020906006020160000160009054906101000a900460ff166006811115610fbf57fe5b1480611015575060026006811115610fd357fe5b6000610fdd612988565b815481101515610fe957fe5b906000526020600020906006020160000160009054906101000a900460ff16600681111561101357fe5b145b151561102057600080fd5b611034816002612bce90919063ffffffff16565b50565b60088054600181600116156101000203166002900480601f0160208091040260200160405190810160405280929190818152602001828054600181600116156101000203166002900480156110cd5780601f106110a2576101008083540402835291602001916110cd565b820191906000526020600020905b8154815290600101906020018083116110b057829003601f168201915b505050505081565b600160009054906101000a900473ffffffffffffffffffffffffffffffffffffffff1673ffffffffffffffffffffffffffffffffffffffff163373ffffffffffffffffffffffffffffffffffffffff1614151561113157600080fd5b600360009054906101000a900473ffffffffffffffffffffffffffffffffffffffff1673ffffffffffffffffffffffffffffffffffffffff1663b90306ad826040518263ffffffff167c010000000000000000000000000000000000000000000000000000000002815260040180828152602001915050600060405180830381600087803b1580156111c257600080fd5b505af11580156111d6573d6000803e3d6000fd5b505050507f6ab368f832c266c8eb942b84fbcaa20aedc24a699d2a05fae2568028733b1d09333083604051808473ffffffffffffffffffffffffffffffffffffffff1673ffffffffffffffffffffffffffffffffffffffff1681526020018373ffffffffffffffffffffffffffffffffffffffff1673ffffffffffffffffffffffffffffffffffffffff168152602001828152602001935050505060405180910390a150565b600160009054906101000a900473ffffffffffffffffffffffffffffffffffffffff1673ffffffffffffffffffffffffffffffffffffffff163373ffffffffffffffffffffffffffffffffffffffff161415156112d857600080fd5b600160009054906101000a900473ffffffffffffffffffffffffffffffffffffffff1673ffffffffffffffffffffffffffffffffffffffff167ff8df31144d9c2f0f6b59d69b8b98abd5459d07f2742c4df920b25aae33c6482060405160405180910390a26000600160006101000a81548173ffffffffffffffffffffffffffffffffffffffff021916908373ffffffffffffffffffffffffffffffffffffffff160217905550565b6000611397826002612c2c90919063ffffffff16565b9050919050565b60098054600181600116156101000203166002900480601f0160208091040260200160405190810160405280929190818152602001828054600181600116156101000203166002900480156114345780601f1061140957610100808354040283529160200191611434565b820191906000526020600020905b81548152906001019060200180831161141757829003601f168201915b505050505081565b6000600554600f541015905090565b60145481565b600160009054906101000a900473ffffffffffffffffffffffffffffffffffffffff1681565b60195481565b600160009054906101000a900473ffffffffffffffffffffffffffffffffffffffff1673ffffffffffffffffffffffffffffffffffffffff163373ffffffffffffffffffffffffffffffffffffffff161415156114d957600080fd5b600060068111156114e657fe5b60006114f0612988565b8154811015156114fc57fe5b906000526020600020906006020160000160009054906101000a900460ff16600681111561152657fe5b148061157c57506002600681111561153a57fe5b6000611544612988565b81548110151561155057fe5b906000526020600020906006020160000160009054906101000a900460ff16600681111561157a57fe5b145b151561158757600080fd5b61159b816002612a3390919063ffffffff16565b50565b60008060008090505b6115af612988565b811115156115f9576115ea6000828154811015156115c957fe5b90600052602060002090600602016003015483612c8590919063ffffffff16565b915080806001019150506115a7565b819250505090565b60185481565b600080611612612988565b81548110151561161e57fe5b906000526020600020906006020160040154905090565b600080600081548110151561164657fe5b906000526020600020906006020160010154421015905090565b611668613087565b600084826000019073ffffffffffffffffffffffffffffffffffffffff16908173ffffffffffffffffffffffffffffffffffffffff16815250508382602001818152505082826040018190525060188360008151811015156116c657fe5b9060200101517f010000000000000000000000000000000000000000000000000000000000000090047f0100000000000000000000000000000000000000000000000000000000000000027f0100000000000000000000000000000000000000000000000000000000000000900463ffffffff169060020a02601084600181518110151561175057fe5b9060200101517f010000000000000000000000000000000000000000000000000000000000000090047f0100000000000000000000000000000000000000000000000000000000000000027f0100000000000000000000000000000000000000000000000000000000000000900463ffffffff169060020a0260088560028151811015156117da57fe5b9060200101517f010000000000000000000000000000000000000000000000000000000000000090047f0100000000000000000000000000000000000000000000000000000000000000027f0100000000000000000000000000000000000000000000000000000000000000900463ffffffff169060020a0285600381518110151561186257fe5b9060200101517f010000000000000000000000000000000000000000000000000000000000000090047f0100000000000000000000000000000000000000000000000000000000000000027f010000000000000000000000000000000000000000000000000000000000000090040101019050807c01000000000000000000000000000000000000000000000000000000000282606001907bffffffffffffffffffffffffffffffffffffffffffffffffffffffff191690817bffffffffffffffffffffffffffffffffffffffffffffffffffffffff1916815250505050505050565b600160009054906101000a900473ffffffffffffffffffffffffffffffffffffffff1673ffffffffffffffffffffffffffffffffffffffff163373ffffffffffffffffffffffffffffffffffffffff161415156119a157600080fd5b6119a9611635565b15156119b457600080fd5b6119bc610d8d565b1515156119c857600080fd5b600060068111156119d557fe5b6119dd611f2c565b60068111156119e857fe5b141515156119f557600080fd5b60016006811115611a0257fe5b611a0a611f2c565b6006811115611a1557fe5b14151515611a2257600080fd5b81611a2c81612768565b1515611a3757600080fd5b600073ffffffffffffffffffffffffffffffffffffffff168373ffffffffffffffffffffffffffffffffffffffff1614151515611a7357600080fd5b60008214151515611a8357600080fd5b600654611aaf601154611aa185601654612c8590919063ffffffff16565b612c8590919063ffffffff16565b11151515611abc57600080fd5b611b0e82601760008673ffffffffffffffffffffffffffffffffffffffff1673ffffffffffffffffffffffffffffffffffffffff16815260200190815260200160002054612c8590919063ffffffff16565b601760008573ffffffffffffffffffffffffffffffffffffffff1673ffffffffffffffffffffffffffffffffffffffff16815260200190815260200160002081905550611b6682601654612c8590919063ffffffff16565b601681905550600360009054906101000a900473ffffffffffffffffffffffffffffffffffffffff1673ffffffffffffffffffffffffffffffffffffffff166343af57d684611bd2600a611bc4600388612ca190919063ffffffff16565b612cd990919063ffffffff16565b6000600160008054905003815481101515611be957fe5b9060005260206000209060060201600201546040518463ffffffff167c0100000000000000000000000000000000000000000000000000000000028152600401808473ffffffffffffffffffffffffffffffffffffffff1673ffffffffffffffffffffffffffffffffffffffff1681526020018381526020018281526020019350505050602060405180830381600087803b158015611c8757600080fd5b505af1158015611c9b573d6000803e3d6000fd5b505050506040513d6020811015611cb157600080fd5b810190808051906020019092919050505050600360009054906101000a900473ffffffffffffffffffffffffffffffffffffffff1673ffffffffffffffffffffffffffffffffffffffff166343af57d684611d29600a611d1b600788612ca190919063ffffffff16565b612cd990919063ffffffff16565b6301e133806000600160008054905003815481101515611d4557fe5b906000526020600020906006020160020154016040518463ffffffff167c0100000000000000000000000000000000000000000000000000000000028152600401808473ffffffffffffffffffffffffffffffffffffffff1673ffffffffffffffffffffffffffffffffffffffff1681526020018381526020018281526020019350505050602060405180830381600087803b158015611de457600080fd5b505af1158015611df8573d6000803e3d6000fd5b505050506040513d6020811015611e0e57600080fd5b8101908080519060200190929190505050508273ffffffffffffffffffffffffffffffffffffffff163373ffffffffffffffffffffffffffffffffffffffff167fa6e5a578d42fd913bd5bad70a2ae524a02ea5bcfa6ca06b309333095c155b84e846040518082815260200191505060405180910390a3505050565b6000611e94611635565b1515611e9f57600080fd5b611ea7610d8d565b151515611eb357600080fd5b6000611ebd612988565b815481101515611ec957fe5b906000526020600020906006020160050160009054906101000a900460ff161515611ef357600080fd5b60016006811115611f0057fe5b611f08611f2c565b6006811115611f1357fe5b1415611f2357600a549050611f29565b600c5490505b90565b600080611f37612988565b815481101515611f4357fe5b906000526020600020906006020160000160009054906101000a900460ff16905090565b60115481565b60006006811115611f7a57fe5b6000611f84612988565b815481101515611f9057fe5b906000526020600020906006020160000160009054906101000a900460ff166006811115611fba57fe5b1480612010575060026006811115611fce57fe5b6000611fd8612988565b815481101515611fe457fe5b906000526020600020906006020160000160009054906101000a900460ff16600681111561200e57fe5b145b151561201b57600080fd5b600160009054906101000a900473ffffffffffffffffffffffffffffffffffffffff1673ffffffffffffffffffffffffffffffffffffffff163373ffffffffffffffffffffffffffffffffffffffff1614151561207757600080fd5b61208b816015612bce90919063ffffffff16565b50565b600080600061209b611635565b15156120a657600080fd5b6120ae610d8d565b1515156120ba57600080fd5b60006120c4612988565b8154811015156120d057fe5b906000526020600020906006020160050160009054906101000a900460ff1615156120fa57600080fd5b34915061210682612cef565b9050612113848383612d2e565b61211e848383612eb2565b6121288482612f82565b8373ffffffffffffffffffffffffffffffffffffffff163373ffffffffffffffffffffffffffffffffffffffff167f623b3804fa71d67900d064613da8f94b9617215ee90799290593e1745087ad188484604051808381526020018281526020019250505060405180910390a35050919050565b600160009054906101000a900473ffffffffffffffffffffffffffffffffffffffff1673ffffffffffffffffffffffffffffffffffffffff163373ffffffffffffffffffffffffffffffffffffffff161415156121f857600080fd5b612200611635565b151561220b57600080fd5b612213610d8d565b15151561221f57600080fd5b6000612229612988565b81548110151561223557fe5b906000526020600020906006020160050160009054906101000a900460ff16151561225f57600080fd5b600073ffffffffffffffffffffffffffffffffffffffff168273ffffffffffffffffffffffffffffffffffffffff161415151561229b57600080fd5b600081141515156122ab57600080fd5b6018546122c382601954612c8590919063ffffffff16565b111515156122d057600080fd5b61232281601a60008573ffffffffffffffffffffffffffffffffffffffff1673ffffffffffffffffffffffffffffffffffffffff16815260200190815260200160002054612c8590919063ffffffff16565b601a60008473ffffffffffffffffffffffffffffffffffffffff1673ffffffffffffffffffffffffffffffffffffffff1681526020019081526020016000208190555061237a81601954612c8590919063ffffffff16565b601981905550600360009054906101000a900473ffffffffffffffffffffffffffffffffffffffff1673ffffffffffffffffffffffffffffffffffffffff1663a9059cbb83836040518363ffffffff167c0100000000000000000000000000000000000000000000000000000000028152600401808373ffffffffffffffffffffffffffffffffffffffff1673ffffffffffffffffffffffffffffffffffffffff16815260200182815260200192505050602060405180830381600087803b15801561244557600080fd5b505af1158015612459573d6000803e3d6000fd5b505050506040513d602081101561246f57600080fd5b8101908080519060200190929190505050508173ffffffffffffffffffffffffffffffffffffffff16600160009054906101000a900473ffffffffffffffffffffffffffffffffffffffff1673ffffffffffffffffffffffffffffffffffffffff167f3dd247ca176cfa1531a4faf4ef926c52f3201b3056f8d738306f4383fa700d04836040518082815260200191505060405180910390a35050565b600160009054906101000a900473ffffffffffffffffffffffffffffffffffffffff1673ffffffffffffffffffffffffffffffffffffffff163373ffffffffffffffffffffffffffffffffffffffff1614151561256857600080fd5b600073ffffffffffffffffffffffffffffffffffffffff168173ffffffffffffffffffffffffffffffffffffffff16141515156125a457600080fd5b8073ffffffffffffffffffffffffffffffffffffffff16600160009054906101000a900473ffffffffffffffffffffffffffffffffffffffff1673ffffffffffffffffffffffffffffffffffffffff167f8be0079c531659141344cd1fd0a4f28419497f9722a3daafe3b4186f6b6457e060405160405180910390a380600160006101000a81548173ffffffffffffffffffffffffffffffffffffffff021916908373ffffffffffffffffffffffffffffffffffffffff16021790555050565b600160009054906101000a900473ffffffffffffffffffffffffffffffffffffffff1673ffffffffffffffffffffffffffffffffffffffff163373ffffffffffffffffffffffffffffffffffffffff161415156126c057600080fd5b600073ffffffffffffffffffffffffffffffffffffffff168273ffffffffffffffffffffffffffffffffffffffff16141515156126fc57600080fd5b6000811415151561270c57600080fd5b600f54811115151561271d57600080fd5b8173ffffffffffffffffffffffffffffffffffffffff166108fc829081150290604051600060405180830381858888f19350505050158015612763573d6000803e3d6000fd5b505050565b600061277e826015612c2c90919063ffffffff16565b9050919050565b6000601260019054906101000a900460ff1615156127a257600080fd5b600160028111156127af57fe5b601260009054906101000a900460ff1660028111156127ca57fe5b1415156127d657600080fd5b6000601060008473ffffffffffffffffffffffffffffffffffffffff1673ffffffffffffffffffffffffffffffffffffffff168152602001908152602001600020541415151561282557600080fd5b601060008373ffffffffffffffffffffffffffffffffffffffff1673ffffffffffffffffffffffffffffffffffffffff1681526020019081526020016000205490506000601060008473ffffffffffffffffffffffffffffffffffffffff1673ffffffffffffffffffffffffffffffffffffffff168152602001908152602001600020819055508173ffffffffffffffffffffffffffffffffffffffff166108fc829081150290604051600060405180830381858888f193505050501580156128f2573d6000803e3d6000fd5b507fd7dee2702d63ad89917b6a4da9981c90c4d24f8c2bdfd64c604ecae57d8d06518282604051808373ffffffffffffffffffffffffffffffffffffffff1673ffffffffffffffffffffffffffffffffffffffff1681526020018281526020019250505060405180910390a15050565b600360009054906101000a900473ffffffffffffffffffffffffffffffffffffffff1681565b600080612993611635565b151561299e57600080fd5b6129a6610d8d565b1515156129b257600080fd5b600090505b600080549050811015612a2e576000818154811015156129d357fe5b9060005260206000209060060201600101544210158015612a1457506000818154811015156129fe57fe5b9060005260206000209060060201600201544211155b15612a2157809150612a2f565b80806001019150506129b7565b5b5090565b60008260000160008373ffffffffffffffffffffffffffffffffffffffff1673ffffffffffffffffffffffffffffffffffffffff16815260200190815260200160002060006101000a81548160ff0219169083151502179055505050565b60006002811115612a9e57fe5b601260009054906101000a900460ff166002811115612ab957fe5b141515612ac557600080fd5b612acd61143c565b15612ba7576002601260006101000a81548160ff02191690836002811115612af157fe5b0217905550600460009054906101000a900473ffffffffffffffffffffffffffffffffffffffff1673ffffffffffffffffffffffffffffffffffffffff166108fc3073ffffffffffffffffffffffffffffffffffffffff16319081150290604051600060405180830381858888f19350505050158015612b75573d6000803e3d6000fd5b507f1cdde67b72a90f19919ac732a437ac2f7a10fc128d28c2a6e525d89ce5cd9d3a60405160405180910390a1612bcc565b6001601260006101000a81548160ff02191690836002811115612bc657fe5b02179055505b565b60018260000160008373ffffffffffffffffffffffffffffffffffffffff1673ffffffffffffffffffffffffffffffffffffffff16815260200190815260200160002060006101000a81548160ff0219169083151502179055505050565b60008260000160008373ffffffffffffffffffffffffffffffffffffffff1673ffffffffffffffffffffffffffffffffffffffff16815260200190815260200160002060009054906101000a900460ff16905092915050565b60008183019050828110151515612c9857fe5b80905092915050565b600080831415612cb45760009050612cd3565b8183029050818382811515612cc557fe5b04141515612ccf57fe5b8090505b92915050565b60008183811515612ce657fe5b04905092915050565b600080612cfa611607565b9050612d26600754600a0a612d188386612ca190919063ffffffff16565b612cd990919063ffffffff16565b915050919050565b600073ffffffffffffffffffffffffffffffffffffffff168373ffffffffffffffffffffffffffffffffffffffff1614151515612d6a57600080fd5b60008214151515612d7a57600080fd5b612d8261159e565b612d9782601154612c8590919063ffffffff16565b11151515612da457600080fd5b612dac611e8a565b612dfe83601060008773ffffffffffffffffffffffffffffffffffffffff1673ffffffffffffffffffffffffffffffffffffffff16815260200190815260200160002054612c8590919063ffffffff16565b10151515612e0b57600080fd5b612e13610ceb565b612e6583601060008773ffffffffffffffffffffffffffffffffffffffff1673ffffffffffffffffffffffffffffffffffffffff16815260200190815260200160002054612c8590919063ffffffff16565b11151515612e7257600080fd5b60016006811115612e7f57fe5b612e87611f2c565b6006811115612e9257fe5b1415612ead57612ea183611381565b1515612eac57600080fd5b5b505050565b612f0482601060008673ffffffffffffffffffffffffffffffffffffffff1673ffffffffffffffffffffffffffffffffffffffff16815260200190815260200160002054612c8590919063ffffffff16565b601060008573ffffffffffffffffffffffffffffffffffffffff1673ffffffffffffffffffffffffffffffffffffffff16815260200190815260200160002081905550612f5c81601154612c8590919063ffffffff16565b601181905550612f7782600f54612c8590919063ffffffff16565b600f81905550505050565b600360009054906101000a900473ffffffffffffffffffffffffffffffffffffffff1673ffffffffffffffffffffffffffffffffffffffff1663a9059cbb83836040518363ffffffff167c0100000000000000000000000000000000000000000000000000000000028152600401808373ffffffffffffffffffffffffffffffffffffffff1673ffffffffffffffffffffffffffffffffffffffff16815260200182815260200192505050602060405180830381600087803b15801561304757600080fd5b505af115801561305b573d6000803e3d6000fd5b505050506040513d602081101561307157600080fd5b8101908080519060200190929190505050505050565b608060405190810160405280600073ffffffffffffffffffffffffffffffffffffffff168152602001600081526020016060815260200160007bffffffffffffffffffffffffffffffffffffffffffffffffffffffff1916815250905600a165627a7a723058206bce46cd5069a130a14fbe918129ba3f3c45f2ecca13557ab8bb54bfb52d26ad0029",
  "source": "pragma solidity ^0.4.23;\r\n\r\nimport \"../crowdSale/BasicCrowdsale.sol\";\r\nimport \"../crowdSale/FinalizableCrowdsale.sol\";\r\nimport \"../crowdSale/GrantedCrowdsale.sol\";\r\nimport \"../crowdSale/RefundableCrowdsale.sol\";\r\nimport \"../crowdSale/ReferralCorwdsale.sol\";\r\nimport \"../crowdSale/tokenReceiver.sol\";\r\nimport \"../crowdSale/BurnableCrowdsale.sol\";\r\n\r\ncontract WOXCrowdsaleTest is \r\n    BasicCrowdsale,\r\n    FinalizableCrowdsale,\r\n    GrantedCrowdsale,\r\n    RefundableCrowdsale,\r\n    ReferralCrowdsale,\r\n    BurnableCrowdsale,\r\n    tokenReceiver\r\n{\r\n    constructor(\r\n        uint256 _cliff,\r\n        uint256 _USD_PER_ETH,\r\n        address _wallet,\r\n        address _tokenAddress\r\n        ) \r\n        public \r\n    {\r\n        require(_wallet != address(0));\r\n        require(_tokenAddress != address(0));\r\n        \r\n        USD_PER_ETH = _USD_PER_ETH;\r\n        wallet = _wallet;\r\n        state = State.Active;\r\n        isFinalized = false;\r\n        \r\n        token = woxToken(_tokenAddress);\r\n        totalSupply = token.totalSupply();\r\n        decimals = token.decimals();\r\n        tokenName = token.name();\r\n        tokenSymbol = token.symbol();\r\n\r\n        softcapWei = uint256(3e6).mul(1 ether).div(USD_PER_ETH);\r\n        MaxReferralTokens = uint256(30e6).mul(10 ** decimals);\r\n\r\n        minVestingWeiPreICO = uint256(50e3 ether).div(USD_PER_ETH);\r\n        maxVestingWeiPreICO = uint256(500e3 ether).div(USD_PER_ETH);\r\n        minVestingWeiICO = 0.1 ether;\r\n        maxVestingWeiICO = 300 ether;\r\n\r\n        uint256 _openingTime = now + _cliff;\r\n\r\n        addTier(\r\n            TierStates.preWhitelist,\r\n            _openingTime, \r\n            _openingTime + 3,\r\n            0, \r\n            0,\r\n            false);\r\n\r\n        addTier(\r\n            TierStates.preICO,\r\n            Tiers[Tiers.length-1].ending, \r\n            Tiers[Tiers.length-1].ending + 3, \r\n            uint256(120e6).mul(10 ** 18), \r\n            uint256(USD_PER_ETH).mul(10 ** 18).mul(100).div(8),            \r\n            true);\r\n            \r\n        addTier(\r\n            TierStates.Whitelist,\r\n            Tiers[Tiers.length-1].ending, \r\n            Tiers[Tiers.length-1].ending + 3, \r\n            0, \r\n            0, \r\n            false);\r\n            \r\n        addTier(\r\n            TierStates.ICORound1,\r\n            Tiers[Tiers.length-1].ending, \r\n            Tiers[Tiers.length-1].ending + 3, \r\n            uint256(125e6).mul(10 ** 18), \r\n            uint256(USD_PER_ETH).mul(10 ** 18).mul(100).div(12), \r\n            true);\r\n            \r\n        addTier(\r\n            TierStates.ICORound2,\r\n            Tiers[Tiers.length-1].ending, \r\n            Tiers[Tiers.length-1].ending + 3,\r\n            uint256(125e6).mul(10 ** 18), \r\n            uint256(USD_PER_ETH).mul(10 ** 18).mul(100).div(13), \r\n            true);\r\n            \r\n        addTier(\r\n            TierStates.ICORound3,\r\n            Tiers[Tiers.length-1].ending, \r\n            Tiers[Tiers.length-1].ending + 3, \r\n            uint256(125e6).mul(10 ** 18), \r\n            uint256(USD_PER_ETH).mul(10 ** 18).mul(100).div(14), \r\n            true);\r\n            \r\n        addTier(\r\n            TierStates.ICORound4,\r\n            Tiers[Tiers.length-1].ending, \r\n            Tiers[Tiers.length-1].ending + 3, \r\n            uint256(125e6).mul(10 ** 18), \r\n            uint256(USD_PER_ETH).mul(10 ** 18).mul(100).div(15), \r\n            true);\r\n    }\r\n}",
  "sourcePath": "G:\\Root\\Blockchain\\WOX\\contracts\\test\\WOXCrowdsaleTest.sol",
  "compiler": {
    "name": "solc",
    "version": "0.4.23+commit.124ca40d.Emscripten.clang"
  },
  "schemaVersion": "2.0.0",
  "updatedAt": "2018-06-27T04:19:57.256Z"
}