{
  "contractName": "WOXCrowdsale",
  "abi": [
    {
      "constant": false,
      "inputs": [
        {
          "name": "_grantee",
          "type": "address"
        }
      ],
      "name": "removeFromGrantees",
      "outputs": [],
      "payable": false,
      "stateMutability": "nonpayable",
      "type": "function"
    },
    {
      "constant": true,
      "inputs": [],
      "name": "maxVestingWei",
      "outputs": [
        {
          "name": "",
          "type": "uint256"
        }
      ],
      "payable": false,
      "stateMutability": "view",
      "type": "function"
    },
    {
      "constant": true,
      "inputs": [],
      "name": "hasClosed",
      "outputs": [
        {
          "name": "",
          "type": "bool"
        }
      ],
      "payable": false,
      "stateMutability": "view",
      "type": "function"
    },
    {
      "constant": true,
      "inputs": [],
      "name": "totalSupply",
      "outputs": [
        {
          "name": "",
          "type": "uint256"
        }
      ],
      "payable": false,
      "stateMutability": "view",
      "type": "function"
    },
    {
      "constant": false,
      "inputs": [],
      "name": "claimHeirOwnership",
      "outputs": [],
      "payable": false,
      "stateMutability": "nonpayable",
      "type": "function"
    },
    {
      "constant": true,
      "inputs": [],
      "name": "grantedTokens",
      "outputs": [
        {
          "name": "",
          "type": "uint256"
        }
      ],
      "payable": false,
      "stateMutability": "view",
      "type": "function"
    },
    {
      "constant": false,
      "inputs": [
        {
          "name": "newHeir",
          "type": "address"
        }
      ],
      "name": "setHeir",
      "outputs": [],
      "payable": false,
      "stateMutability": "nonpayable",
      "type": "function"
    },
    {
      "constant": false,
      "inputs": [],
      "name": "proclaimDeath",
      "outputs": [],
      "payable": false,
      "stateMutability": "nonpayable",
      "type": "function"
    },
    {
      "constant": true,
      "inputs": [],
      "name": "currentTierHardcap",
      "outputs": [
        {
          "name": "",
          "type": "uint256"
        }
      ],
      "payable": false,
      "stateMutability": "view",
      "type": "function"
    },
    {
      "constant": true,
      "inputs": [],
      "name": "decimals",
      "outputs": [
        {
          "name": "",
          "type": "uint256"
        }
      ],
      "payable": false,
      "stateMutability": "view",
      "type": "function"
    },
    {
      "constant": false,
      "inputs": [],
      "name": "heartbeat",
      "outputs": [],
      "payable": false,
      "stateMutability": "nonpayable",
      "type": "function"
    },
    {
      "constant": true,
      "inputs": [],
      "name": "weiRaised",
      "outputs": [
        {
          "name": "",
          "type": "uint256"
        }
      ],
      "payable": false,
      "stateMutability": "view",
      "type": "function"
    },
    {
      "constant": true,
      "inputs": [],
      "name": "getWeiRaised",
      "outputs": [
        {
          "name": "",
          "type": "uint256"
        }
      ],
      "payable": false,
      "stateMutability": "view",
      "type": "function"
    },
    {
      "constant": true,
      "inputs": [],
      "name": "wallet",
      "outputs": [
        {
          "name": "",
          "type": "address"
        }
      ],
      "payable": false,
      "stateMutability": "view",
      "type": "function"
    },
    {
      "constant": true,
      "inputs": [],
      "name": "grantHardcapToken",
      "outputs": [
        {
          "name": "",
          "type": "uint256"
        }
      ],
      "payable": false,
      "stateMutability": "view",
      "type": "function"
    },
    {
      "constant": false,
      "inputs": [
        {
          "name": "_vc",
          "type": "address"
        }
      ],
      "name": "addToVC",
      "outputs": [],
      "payable": false,
      "stateMutability": "nonpayable",
      "type": "function"
    },
    {
      "constant": true,
      "inputs": [],
      "name": "tokenName",
      "outputs": [
        {
          "name": "",
          "type": "string"
        }
      ],
      "payable": false,
      "stateMutability": "view",
      "type": "function"
    },
    {
      "constant": false,
      "inputs": [
        {
          "name": "toBeClosed",
          "type": "bool"
        }
      ],
      "name": "finalize",
      "outputs": [],
      "payable": false,
      "stateMutability": "nonpayable",
      "type": "function"
    },
    {
      "constant": false,
      "inputs": [
        {
          "name": "_burnAmount",
          "type": "uint256"
        }
      ],
      "name": "burnTokens",
      "outputs": [],
      "payable": false,
      "stateMutability": "nonpayable",
      "type": "function"
    },
    {
      "constant": false,
      "inputs": [],
      "name": "renounceOwnership",
      "outputs": [],
      "payable": false,
      "stateMutability": "nonpayable",
      "type": "function"
    },
    {
      "constant": true,
      "inputs": [
        {
          "name": "_vc",
          "type": "address"
        }
      ],
      "name": "whtielistedAsVC",
      "outputs": [
        {
          "name": "",
          "type": "bool"
        }
      ],
      "payable": false,
      "stateMutability": "view",
      "type": "function"
    },
    {
      "constant": true,
      "inputs": [],
      "name": "tokenSymbol",
      "outputs": [
        {
          "name": "",
          "type": "string"
        }
      ],
      "payable": false,
      "stateMutability": "view",
      "type": "function"
    },
    {
      "constant": true,
      "inputs": [],
      "name": "heartbeatTimeout",
      "outputs": [
        {
          "name": "",
          "type": "uint256"
        }
      ],
      "payable": false,
      "stateMutability": "view",
      "type": "function"
    },
    {
      "constant": true,
      "inputs": [],
      "name": "goalReached",
      "outputs": [
        {
          "name": "",
          "type": "bool"
        }
      ],
      "payable": false,
      "stateMutability": "view",
      "type": "function"
    },
    {
      "constant": true,
      "inputs": [],
      "name": "grantHardcapTokenPerEach",
      "outputs": [
        {
          "name": "",
          "type": "uint256"
        }
      ],
      "payable": false,
      "stateMutability": "view",
      "type": "function"
    },
    {
      "constant": true,
      "inputs": [],
      "name": "owner",
      "outputs": [
        {
          "name": "",
          "type": "address"
        }
      ],
      "payable": false,
      "stateMutability": "view",
      "type": "function"
    },
    {
      "constant": true,
      "inputs": [],
      "name": "heir",
      "outputs": [
        {
          "name": "",
          "type": "address"
        }
      ],
      "payable": false,
      "stateMutability": "view",
      "type": "function"
    },
    {
      "constant": true,
      "inputs": [],
      "name": "referralTokens",
      "outputs": [
        {
          "name": "",
          "type": "uint256"
        }
      ],
      "payable": false,
      "stateMutability": "view",
      "type": "function"
    },
    {
      "constant": false,
      "inputs": [
        {
          "name": "_vc",
          "type": "address"
        }
      ],
      "name": "removeFromVC",
      "outputs": [],
      "payable": false,
      "stateMutability": "nonpayable",
      "type": "function"
    },
    {
      "constant": true,
      "inputs": [],
      "name": "currentSaleTokenWeiHardcap",
      "outputs": [
        {
          "name": "",
          "type": "uint256"
        }
      ],
      "payable": false,
      "stateMutability": "view",
      "type": "function"
    },
    {
      "constant": true,
      "inputs": [],
      "name": "timeOfDeath",
      "outputs": [
        {
          "name": "",
          "type": "uint256"
        }
      ],
      "payable": false,
      "stateMutability": "view",
      "type": "function"
    },
    {
      "constant": true,
      "inputs": [],
      "name": "MaxReferralTokens",
      "outputs": [
        {
          "name": "",
          "type": "uint256"
        }
      ],
      "payable": false,
      "stateMutability": "view",
      "type": "function"
    },
    {
      "constant": true,
      "inputs": [],
      "name": "currentTierTokenWeisPerEth",
      "outputs": [
        {
          "name": "",
          "type": "uint256"
        }
      ],
      "payable": false,
      "stateMutability": "view",
      "type": "function"
    },
    {
      "constant": true,
      "inputs": [],
      "name": "hasOpened",
      "outputs": [
        {
          "name": "",
          "type": "bool"
        }
      ],
      "payable": false,
      "stateMutability": "view",
      "type": "function"
    },
    {
      "constant": true,
      "inputs": [
        {
          "name": "_from",
          "type": "address"
        },
        {
          "name": "_value",
          "type": "uint256"
        },
        {
          "name": "_data",
          "type": "bytes"
        }
      ],
      "name": "tokenFallback",
      "outputs": [],
      "payable": false,
      "stateMutability": "pure",
      "type": "function"
    },
    {
      "constant": false,
      "inputs": [
        {
          "name": "_grantee",
          "type": "address"
        },
        {
          "name": "_tokenAmount",
          "type": "uint256"
        }
      ],
      "name": "grantTokens",
      "outputs": [],
      "payable": false,
      "stateMutability": "nonpayable",
      "type": "function"
    },
    {
      "constant": true,
      "inputs": [],
      "name": "minVestingWei",
      "outputs": [
        {
          "name": "",
          "type": "uint256"
        }
      ],
      "payable": false,
      "stateMutability": "view",
      "type": "function"
    },
    {
      "constant": true,
      "inputs": [],
      "name": "currentTier",
      "outputs": [
        {
          "name": "",
          "type": "uint8"
        }
      ],
      "payable": false,
      "stateMutability": "view",
      "type": "function"
    },
    {
      "constant": true,
      "inputs": [],
      "name": "tokenWeisSold",
      "outputs": [
        {
          "name": "",
          "type": "uint256"
        }
      ],
      "payable": false,
      "stateMutability": "view",
      "type": "function"
    },
    {
      "constant": false,
      "inputs": [
        {
          "name": "_grantee",
          "type": "address"
        }
      ],
      "name": "addToGrantees",
      "outputs": [],
      "payable": false,
      "stateMutability": "nonpayable",
      "type": "function"
    },
    {
      "constant": false,
      "inputs": [],
      "name": "removeHeir",
      "outputs": [],
      "payable": false,
      "stateMutability": "nonpayable",
      "type": "function"
    },
    {
      "constant": false,
      "inputs": [
        {
          "name": "_beneficiary",
          "type": "address"
        }
      ],
      "name": "buyTokens",
      "outputs": [
        {
          "name": "",
          "type": "uint256"
        }
      ],
      "payable": true,
      "stateMutability": "payable",
      "type": "function"
    },
    {
      "constant": false,
      "inputs": [
        {
          "name": "_referrer",
          "type": "address"
        },
        {
          "name": "_amount",
          "type": "uint256"
        }
      ],
      "name": "PayReferral",
      "outputs": [],
      "payable": false,
      "stateMutability": "nonpayable",
      "type": "function"
    },
    {
      "constant": false,
      "inputs": [
        {
          "name": "newOwner",
          "type": "address"
        }
      ],
      "name": "transferOwnership",
      "outputs": [],
      "payable": false,
      "stateMutability": "nonpayable",
      "type": "function"
    },
    {
      "constant": false,
      "inputs": [
        {
          "name": "_wallet",
          "type": "address"
        },
        {
          "name": "_weiAmount",
          "type": "uint256"
        }
      ],
      "name": "withdraw",
      "outputs": [],
      "payable": false,
      "stateMutability": "nonpayable",
      "type": "function"
    },
    {
      "constant": true,
      "inputs": [
        {
          "name": "_grantee",
          "type": "address"
        }
      ],
      "name": "whitelistedAsGrantee",
      "outputs": [
        {
          "name": "",
          "type": "bool"
        }
      ],
      "payable": false,
      "stateMutability": "view",
      "type": "function"
    },
    {
      "constant": false,
      "inputs": [
        {
          "name": "_investor",
          "type": "address"
        }
      ],
      "name": "refund",
      "outputs": [],
      "payable": false,
      "stateMutability": "nonpayable",
      "type": "function"
    },
    {
      "constant": true,
      "inputs": [],
      "name": "token",
      "outputs": [
        {
          "name": "",
          "type": "address"
        }
      ],
      "payable": false,
      "stateMutability": "view",
      "type": "function"
    },
    {
      "inputs": [
        {
          "name": "_cliff",
          "type": "uint256"
        },
        {
          "name": "_USD_PER_ETH",
          "type": "uint256"
        },
        {
          "name": "_wallet",
          "type": "address"
        },
        {
          "name": "_tokenAddress",
          "type": "address"
        }
      ],
      "payable": false,
      "stateMutability": "nonpayable",
      "type": "constructor"
    },
    {
      "anonymous": false,
      "inputs": [
        {
          "indexed": true,
          "name": "owner",
          "type": "address"
        },
        {
          "indexed": true,
          "name": "newHeir",
          "type": "address"
        }
      ],
      "name": "HeirChanged",
      "type": "event"
    },
    {
      "anonymous": false,
      "inputs": [
        {
          "indexed": true,
          "name": "owner",
          "type": "address"
        }
      ],
      "name": "OwnerHeartbeated",
      "type": "event"
    },
    {
      "anonymous": false,
      "inputs": [
        {
          "indexed": true,
          "name": "owner",
          "type": "address"
        },
        {
          "indexed": true,
          "name": "heir",
          "type": "address"
        },
        {
          "indexed": false,
          "name": "timeOfDeath",
          "type": "uint256"
        }
      ],
      "name": "OwnerProclaimedDead",
      "type": "event"
    },
    {
      "anonymous": false,
      "inputs": [
        {
          "indexed": true,
          "name": "previousOwner",
          "type": "address"
        },
        {
          "indexed": true,
          "name": "newOwner",
          "type": "address"
        }
      ],
      "name": "HeirOwnershipClaimed",
      "type": "event"
    },
    {
      "anonymous": false,
      "inputs": [
        {
          "indexed": false,
          "name": "_burner",
          "type": "address"
        },
        {
          "indexed": false,
          "name": "_burnedFrom",
          "type": "address"
        },
        {
          "indexed": false,
          "name": "_burnAmount",
          "type": "uint256"
        }
      ],
      "name": "Burned",
      "type": "event"
    },
    {
      "anonymous": false,
      "inputs": [
        {
          "indexed": true,
          "name": "sender",
          "type": "address"
        },
        {
          "indexed": true,
          "name": "referre",
          "type": "address"
        },
        {
          "indexed": false,
          "name": "amount",
          "type": "uint256"
        }
      ],
      "name": "ReferralTokenPaid",
      "type": "event"
    },
    {
      "anonymous": false,
      "inputs": [
        {
          "indexed": false,
          "name": "_investor",
          "type": "address"
        },
        {
          "indexed": false,
          "name": "_depositedValue",
          "type": "uint256"
        }
      ],
      "name": "Refunded",
      "type": "event"
    },
    {
      "anonymous": false,
      "inputs": [
        {
          "indexed": true,
          "name": "sender",
          "type": "address"
        },
        {
          "indexed": true,
          "name": "grantee",
          "type": "address"
        },
        {
          "indexed": false,
          "name": "amount",
          "type": "uint256"
        }
      ],
      "name": "TokenGranted",
      "type": "event"
    },
    {
      "anonymous": false,
      "inputs": [],
      "name": "Finalized",
      "type": "event"
    },
    {
      "anonymous": false,
      "inputs": [],
      "name": "Closed",
      "type": "event"
    },
    {
      "anonymous": false,
      "inputs": [
        {
          "indexed": true,
          "name": "purchaser",
          "type": "address"
        },
        {
          "indexed": true,
          "name": "beneficiary",
          "type": "address"
        },
        {
          "indexed": false,
          "name": "value",
          "type": "uint256"
        },
        {
          "indexed": false,
          "name": "amount",
          "type": "uint256"
        }
      ],
      "name": "TokenPurchase",
      "type": "event"
    },
    {
      "anonymous": false,
      "inputs": [
        {
          "indexed": true,
          "name": "previousOwner",
          "type": "address"
        }
      ],
      "name": "OwnershipRenounced",
      "type": "event"
    },
    {
      "anonymous": false,
      "inputs": [
        {
          "indexed": true,
          "name": "previousOwner",
          "type": "address"
        },
        {
          "indexed": true,
          "name": "newOwner",
          "type": "address"
        }
      ],
      "name": "OwnershipTransferred",
      "type": "event"
    },
    {
      "constant": false,
      "inputs": [
        {
          "name": "_usd_eth",
          "type": "uint256"
        }
      ],
      "name": "updatePricing",
      "outputs": [],
      "payable": false,
      "stateMutability": "nonpayable",
      "type": "function"
    }
  ],
  "bytecode": "0x60806040523480156200001157600080fd5b5060405160808062004ce483398101806040528101908080519060200190929190805190602001909291908051906020019092919080519060200190929190505050600033600160006101000a81548173ffffffffffffffffffffffffffffffffffffffff021916908373ffffffffffffffffffffffffffffffffffffffff160217905550600073ffffffffffffffffffffffffffffffffffffffff168373ffffffffffffffffffffffffffffffffffffffff1614151515620000d357600080fd5b600073ffffffffffffffffffffffffffffffffffffffff168273ffffffffffffffffffffffffffffffffffffffff16141515156200011057600080fd5b83600e8190555082600460006101000a81548173ffffffffffffffffffffffffffffffffffffffff021916908373ffffffffffffffffffffffffffffffffffffffff1602179055506000601260006101000a81548160ff021916908360028111156200017857fe5b02179055506000601260016101000a81548160ff02191690831515021790555081600360006101000a81548173ffffffffffffffffffffffffffffffffffffffff021916908373ffffffffffffffffffffffffffffffffffffffff160217905550600360009054906101000a900473ffffffffffffffffffffffffffffffffffffffff1673ffffffffffffffffffffffffffffffffffffffff166318160ddd6040518163ffffffff167c0100000000000000000000000000000000000000000000000000000000028152600401602060405180830381600087803b1580156200026057600080fd5b505af115801562000275573d6000803e3d6000fd5b505050506040513d60208110156200028c57600080fd5b8101908080519060200190929190505050600681905550600360009054906101000a900473ffffffffffffffffffffffffffffffffffffffff1673ffffffffffffffffffffffffffffffffffffffff1663313ce5676040518163ffffffff167c0100000000000000000000000000000000000000000000000000000000028152600401602060405180830381600087803b1580156200032a57600080fd5b505af11580156200033f573d6000803e3d6000fd5b505050506040513d60208110156200035657600080fd5b8101908080519060200190929190505050600781905550600360009054906101000a900473ffffffffffffffffffffffffffffffffffffffff1673ffffffffffffffffffffffffffffffffffffffff166306fdde036040518163ffffffff167c0100000000000000000000000000000000000000000000000000000000028152600401600060405180830381600087803b158015620003f457600080fd5b505af115801562000409573d6000803e3d6000fd5b505050506040513d6000823e3d601f19601f8201168201806040525060208110156200043457600080fd5b8101908080516401000000008111156200044d57600080fd5b828101905060208101848111156200046457600080fd5b81518560018202830111640100000000821117156200048257600080fd5b505092919050505060089080519060200190620004a192919062000f3b565b50600360009054906101000a900473ffffffffffffffffffffffffffffffffffffffff1673ffffffffffffffffffffffffffffffffffffffff166395d89b416040518163ffffffff167c0100000000000000000000000000000000000000000000000000000000028152600401600060405180830381600087803b1580156200052957600080fd5b505af11580156200053e573d6000803e3d6000fd5b505050506040513d6000823e3d601f19601f8201168201806040525060208110156200056957600080fd5b8101908080516401000000008111156200058257600080fd5b828101905060208101848111156200059957600080fd5b8151856001820283011164010000000082111715620005b757600080fd5b505092919050505060099080519060200190620005d692919062000f3b565b5062000629600e546200060c670de0b6b3a7640000622dc6c062000d7f640100000000026200362b179091906401000000009004565b62000dbb6401000000000262003663179091906401000000009004565b600581905550620006a1606462000684600362000667600754600a0a6324f4730062000d7f640100000000026200362b179091906401000000009004565b62000d7f640100000000026200362b179091906401000000009004565b62000dbb6401000000000262003663179091906401000000009004565b601881905550620006f8600e54620006db670de0b6b3a764000061c35062000d7f640100000000026200362b179091906401000000009004565b62000dbb6401000000000262003663179091906401000000009004565b600a8190555062000750600e5462000733670de0b6b3a7640000620f424062000d7f640100000000026200362b179091906401000000009004565b62000dbb6401000000000262003663179091906401000000009004565b600b8190555067016345785d8a0000600c81905550681043561a8829300000600d819055508442019050620007a1600082620d2f008401600080600062000dd2640100000000026401000000009004565b620008b360016000600160008054905003815481101515620007bf57fe5b90600052602060002090600602016002015462278d006000600160008054905003815481101515620007ed57fe5b906000526020600020906006020160020154016200082c600754600a0a6307270e0062000d7f640100000000026200362b179091906401000000009004565b6200089c60086200087f606462000862600754600a0a600e5462000d7f640100000000026200362b179091906401000000009004565b62000d7f640100000000026200362b179091906401000000009004565b62000dbb6401000000000262003663179091906401000000009004565b600162000dd2640100000000026401000000009004565b6200092c60026000600160008054905003815481101515620008d157fe5b906000526020600020906006020160020154620d2f006000600160008054905003815481101515620008ff57fe5b90600052602060002090600602016002015401600080600062000dd2640100000000026401000000009004565b62000a3e600360006001600080549050038154811015156200094a57fe5b90600052602060002090600602016002015462093a8060006001600080549050038154811015156200097857fe5b90600052602060002090600602016002015401620009b7600754600a0a630773594062000d7f640100000000026200362b179091906401000000009004565b62000a27600c62000a0a6064620009ed600754600a0a600e5462000d7f640100000000026200362b179091906401000000009004565b62000d7f640100000000026200362b179091906401000000009004565b62000dbb6401000000000262003663179091906401000000009004565b600162000dd2640100000000026401000000009004565b62000b506004600060016000805490500381548110151562000a5c57fe5b90600052602060002090600602016002015462093a80600060016000805490500381548110151562000a8a57fe5b9060005260206000209060060201600201540162000ac9600754600a0a630773594062000d7f640100000000026200362b179091906401000000009004565b62000b39600d62000b1c606462000aff600754600a0a600e5462000d7f640100000000026200362b179091906401000000009004565b62000d7f640100000000026200362b179091906401000000009004565b62000dbb6401000000000262003663179091906401000000009004565b600162000dd2640100000000026401000000009004565b62000c626005600060016000805490500381548110151562000b6e57fe5b90600052602060002090600602016002015462093a80600060016000805490500381548110151562000b9c57fe5b9060005260206000209060060201600201540162000bdb600754600a0a630773594062000d7f640100000000026200362b179091906401000000009004565b62000c4b600e62000c2e606462000c11600754600a0a600e5462000d7f640100000000026200362b179091906401000000009004565b62000d7f640100000000026200362b179091906401000000009004565b62000dbb6401000000000262003663179091906401000000009004565b600162000dd2640100000000026401000000009004565b62000d746006600060016000805490500381548110151562000c8057fe5b90600052602060002090600602016002015462093a80600060016000805490500381548110151562000cae57fe5b9060005260206000209060060201600201540162000ced600754600a0a630773594062000d7f640100000000026200362b179091906401000000009004565b62000d5d600f62000d40606462000d23600754600a0a600e5462000d7f640100000000026200362b179091906401000000009004565b62000d7f640100000000026200362b179091906401000000009004565b62000dbb6401000000000262003663179091906401000000009004565b600162000dd2640100000000026401000000009004565b50505050506200102f565b60008083141562000d94576000905062000db5565b818302905081838281151562000da657fe5b0414151562000db157fe5b8090505b92915050565b6000818381151562000dc957fe5b04905092915050565b62000ddc62000fc2565b858511151562000deb57600080fd5b60008080549050111562000e3357600060016000805490500381548110151562000e1157fe5b906000526020600020906006020160020154861015151562000e3257600080fd5b5b868160000190600681111562000e4557fe5b9081600681111562000e5357fe5b8152505085816020018181525050848160400181815250508381606001818152505082816080018181525050818160a00190151590811515815250506000819080600181540180825580915050906001820390600052602060002090600602016000909192909190915060008201518160000160006101000a81548160ff0219169083600681111562000ee257fe5b02179055506020820151816001015560408201518160020155606082015181600301556080820151816004015560a08201518160050160006101000a81548160ff02191690831515021790555050505050505050505050565b828054600181600116156101000203166002900490600052602060002090601f016020900481019282601f1062000f7e57805160ff191683800117855562000faf565b8280016001018555821562000faf579182015b8281111562000fae57825182559160200191906001019062000f91565b5b50905062000fbe919062001007565b5090565b60c0604051908101604052806000600681111562000fdc57fe5b8152602001600081526020016000815260200160008152602001600081526020016000151581525090565b6200102c91905b80821115620010285760008160009055506001016200100e565b5090565b90565b613ca5806200103f6000396000f300608060405260043610610251576000357c0100000000000000000000000000000000000000000000000000000000900463ffffffff1680630425b5531461025657806306c36581146102995780631515bc2b146102c457806318160ddd146102f35780631c921e161461031e5780631ee42bcf1461033557806323defc771461036057806324845131146103a3578063301df9dd146103ba578063313ce567146103e55780633defb962146104105780634042b66f1461042757806340582f131461045257806348cedf851461047d578063521eb273146104aa57806352f646811461050157806353fe21ad1461052c5780636c02a9311461056f5780636c9789b0146105ff5780636d1b229d1461062e578063715018a61461065b578063792d7ec3146106725780637b61c320146106cd5780637bca38be1461075d5780637d3d65221461078857806389379640146107b75780638da5cb5b146107e257806391f2ebb8146108395780639303b0b8146108905780639fb160aa146108bb5780639fc2e24f146108fe578063b4a8f3e614610929578063b64657a714610954578063bbe8a4661461097f578063be8eef8e146109aa578063c0ee0b8a146109d9578063c94e643c14610a6c578063ce7f3a2714610ab9578063d679677a14610ae4578063e184a51514610b1d578063e996a3dd14610b48578063ebf88de414610b8b578063ec8ac4d814610ba2578063ee84038e14610bec578063f2fde38b14610c39578063f3fef3a314610c7c578063f556f4f714610cc9578063fa89401a14610d24578063fc0c546a14610d67575b600080fd5b34801561026257600080fd5b50610297600480360381019080803573ffffffffffffffffffffffffffffffffffffffff169060200190929190505050610dbe565b005b3480156102a557600080fd5b506102ae610edf565b6040518082815260200191505060405180910390f35b3480156102d057600080fd5b506102d9610f81565b604051808215151515815260200191505060405180910390f35b3480156102ff57600080fd5b50610308610fb2565b6040518082815260200191505060405180910390f35b34801561032a57600080fd5b50610333610fb8565b005b34801561034157600080fd5b5061034a6111e6565b6040518082815260200191505060405180910390f35b34801561036c57600080fd5b506103a1600480360381019080803573ffffffffffffffffffffffffffffffffffffffff1690602001909291905050506111ec565b005b3480156103af57600080fd5b506103b861136d565b005b3480156103c657600080fd5b506103cf611490565b6040518082815260200191505060405180910390f35b3480156103f157600080fd5b506103fa6114be565b6040518082815260200191505060405180910390f35b34801561041c57600080fd5b506104256114c4565b005b34801561043357600080fd5b5061043c61158f565b6040518082815260200191505060405180910390f35b34801561045e57600080fd5b50610467611595565b6040518082815260200191505060405180910390f35b34801561048957600080fd5b506104a86004803603810190808035906020019092919050505061159f565b005b3480156104b657600080fd5b506104bf6118b4565b604051808273ffffffffffffffffffffffffffffffffffffffff1673ffffffffffffffffffffffffffffffffffffffff16815260200191505060405180910390f35b34801561050d57600080fd5b506105166118da565b6040518082815260200191505060405180910390f35b34801561053857600080fd5b5061056d600480360381019080803573ffffffffffffffffffffffffffffffffffffffff1690602001909291905050506118e0565b005b34801561057b57600080fd5b50610584611a01565b6040518080602001828103825283818151815260200191508051906020019080838360005b838110156105c45780820151818401526020810190506105a9565b50505050905090810190601f1680156105f15780820380516001836020036101000a031916815260200191505b509250505060405180910390f35b34801561060b57600080fd5b5061062c600480360381019080803515159060200190929190505050611a9f565b005b34801561063a57600080fd5b5061065960048036038101908080359060200190929190505050611b7d565b005b34801561066757600080fd5b50610670611d24565b005b34801561067e57600080fd5b506106b3600480360381019080803573ffffffffffffffffffffffffffffffffffffffff169060200190929190505050611e29565b604051808215151515815260200191505060405180910390f35b3480156106d957600080fd5b506106e2611e46565b6040518080602001828103825283818151815260200191508051906020019080838360005b83811015610722578082015181840152602081019050610707565b50505050905090810190601f16801561074f5780820380516001836020036101000a031916815260200191505b509250505060405180910390f35b34801561076957600080fd5b50610772611ee4565b6040518082815260200191505060405180910390f35b34801561079457600080fd5b5061079d611eee565b604051808215151515815260200191505060405180910390f35b3480156107c357600080fd5b506107cc611efd565b6040518082815260200191505060405180910390f35b3480156107ee57600080fd5b506107f7611f03565b604051808273ffffffffffffffffffffffffffffffffffffffff1673ffffffffffffffffffffffffffffffffffffffff16815260200191505060405180910390f35b34801561084557600080fd5b5061084e611f29565b604051808273ffffffffffffffffffffffffffffffffffffffff1673ffffffffffffffffffffffffffffffffffffffff16815260200191505060405180910390f35b34801561089c57600080fd5b506108a5611f53565b6040518082815260200191505060405180910390f35b3480156108c757600080fd5b506108fc600480360381019080803573ffffffffffffffffffffffffffffffffffffffff169060200190929190505050611f59565b005b34801561090a57600080fd5b5061091361207a565b6040518082815260200191505060405180910390f35b34801561093557600080fd5b5061093e6120dd565b6040518082815260200191505060405180910390f35b34801561096057600080fd5b506109696120e7565b6040518082815260200191505060405180910390f35b34801561098b57600080fd5b506109946120ed565b6040518082815260200191505060405180910390f35b3480156109b657600080fd5b506109bf61211b565b604051808215151515815260200191505060405180910390f35b3480156109e557600080fd5b50610a6a600480360381019080803573ffffffffffffffffffffffffffffffffffffffff16906020019092919080359060200190929190803590602001908201803590602001908080601f0160208091040260200160405190810160405280939291908181526020018383808284378201915050505050509192919290505050612146565b005b348015610a7857600080fd5b50610ab7600480360381019080803573ffffffffffffffffffffffffffffffffffffffff1690602001909291908035906020019092919050505061242b565b005b348015610ac557600080fd5b50610ace612970565b6040518082815260200191505060405180910390f35b348015610af057600080fd5b50610af9612a12565b60405180826006811115610b0957fe5b60ff16815260200191505060405180910390f35b348015610b2957600080fd5b50610b32612a4d565b6040518082815260200191505060405180910390f35b348015610b5457600080fd5b50610b89600480360381019080803573ffffffffffffffffffffffffffffffffffffffff169060200190929190505050612a53565b005b348015610b9757600080fd5b50610ba0612b74565b005b610bd6600480360381019080803573ffffffffffffffffffffffffffffffffffffffff169060200190929190505050612c1c565b6040518082815260200191505060405180910390f35b348015610bf857600080fd5b50610c37600480360381019080803573ffffffffffffffffffffffffffffffffffffffff16906020019092919080359060200190929190505050612d2a565b005b348015610c4557600080fd5b50610c7a600480360381019080803573ffffffffffffffffffffffffffffffffffffffff16906020019092919050505061309a565b005b348015610c8857600080fd5b50610cc7600480360381019080803573ffffffffffffffffffffffffffffffffffffffff169060200190929190803590602001909291905050506131f2565b005b348015610cd557600080fd5b50610d0a600480360381019080803573ffffffffffffffffffffffffffffffffffffffff1690602001909291905050506132f6565b604051808215151515815260200191505060405180910390f35b348015610d3057600080fd5b50610d65600480360381019080803573ffffffffffffffffffffffffffffffffffffffff169060200190929190505050613313565b005b348015610d7357600080fd5b50610d7c6134f0565b604051808273ffffffffffffffffffffffffffffffffffffffff1673ffffffffffffffffffffffffffffffffffffffff16815260200191505060405180910390f35b60006006811115610dcb57fe5b6000610dd5613516565b815481101515610de157fe5b906000526020600020906006020160000160009054906101000a900460ff166006811115610e0b57fe5b1480610e61575060026006811115610e1f57fe5b6000610e29613516565b815481101515610e3557fe5b906000526020600020906006020160000160009054906101000a900460ff166006811115610e5f57fe5b145b1515610e6c57600080fd5b600160009054906101000a900473ffffffffffffffffffffffffffffffffffffffff1673ffffffffffffffffffffffffffffffffffffffff163373ffffffffffffffffffffffffffffffffffffffff16141515610ec857600080fd5b610edc8160156135c190919063ffffffff16565b50565b6000610ee961211b565b1515610ef457600080fd5b610efc610f81565b151515610f0857600080fd5b6000610f12613516565b815481101515610f1e57fe5b906000526020600020906006020160050160009054906101000a900460ff161515610f4857600080fd5b60016006811115610f5557fe5b610f5d612a12565b6006811115610f6857fe5b1415610f7857600b549050610f7e565b600d5490505b90565b600080600160008054905003815481101515610f9957fe5b9060005260206000209060060201600201544211905090565b60065481565b601b60009054906101000a900473ffffffffffffffffffffffffffffffffffffffff1673ffffffffffffffffffffffffffffffffffffffff163373ffffffffffffffffffffffffffffffffffffffff1614151561101457600080fd5b61101c61361f565b15151561102857600080fd5b601c54601d5401421015151561103d57600080fd5b601b60009054906101000a900473ffffffffffffffffffffffffffffffffffffffff1673ffffffffffffffffffffffffffffffffffffffff16600160009054906101000a900473ffffffffffffffffffffffffffffffffffffffff1673ffffffffffffffffffffffffffffffffffffffff167f8be0079c531659141344cd1fd0a4f28419497f9722a3daafe3b4186f6b6457e060405160405180910390a3601b60009054906101000a900473ffffffffffffffffffffffffffffffffffffffff1673ffffffffffffffffffffffffffffffffffffffff16600160009054906101000a900473ffffffffffffffffffffffffffffffffffffffff1673ffffffffffffffffffffffffffffffffffffffff167f1017a357e19071e4408dbd385f24e591aa5bcee52b444dc0c8abddbe6ad29de660405160405180910390a3601b60009054906101000a900473ffffffffffffffffffffffffffffffffffffffff16600160006101000a81548173ffffffffffffffffffffffffffffffffffffffff021916908373ffffffffffffffffffffffffffffffffffffffff1602179055506000601d81905550565b60165481565b600160009054906101000a900473ffffffffffffffffffffffffffffffffffffffff1673ffffffffffffffffffffffffffffffffffffffff163373ffffffffffffffffffffffffffffffffffffffff1614151561124857600080fd5b600160009054906101000a900473ffffffffffffffffffffffffffffffffffffffff1673ffffffffffffffffffffffffffffffffffffffff168173ffffffffffffffffffffffffffffffffffffffff16141515156112a557600080fd5b6112ad6114c4565b8073ffffffffffffffffffffffffffffffffffffffff16600160009054906101000a900473ffffffffffffffffffffffffffffffffffffffff1673ffffffffffffffffffffffffffffffffffffffff167f4e6093f85fa64484abd692810d8a44d508792ff7b7a021d9fbd69fa1c6ff18a060405160405180910390a380601b60006101000a81548173ffffffffffffffffffffffffffffffffffffffff021916908373ffffffffffffffffffffffffffffffffffffffff16021790555050565b601b60009054906101000a900473ffffffffffffffffffffffffffffffffffffffff1673ffffffffffffffffffffffffffffffffffffffff163373ffffffffffffffffffffffffffffffffffffffff161415156113c957600080fd5b6113d161361f565b15156113dc57600080fd5b601b60009054906101000a900473ffffffffffffffffffffffffffffffffffffffff1673ffffffffffffffffffffffffffffffffffffffff16600160009054906101000a900473ffffffffffffffffffffffffffffffffffffffff1673ffffffffffffffffffffffffffffffffffffffff167f66389f1f3251c39e71cb18351daefea45bda23e98df0767266b8aed4ff938277601d546040518082815260200191505060405180910390a342601d81905550565b60008061149b613516565b8154811015156114a757fe5b906000526020600020906006020160030154905090565b60075481565b600160009054906101000a900473ffffffffffffffffffffffffffffffffffffffff1673ffffffffffffffffffffffffffffffffffffffff163373ffffffffffffffffffffffffffffffffffffffff1614151561152057600080fd5b600160009054906101000a900473ffffffffffffffffffffffffffffffffffffffff1673ffffffffffffffffffffffffffffffffffffffff167fd40b9d9a7572411aff4bbb95ba7bd9a9d4e9b70747ec46f8fe7913c309b6845260405160405180910390a26000601d81905550565b600f5481565b6000600f54905090565b600160009054906101000a900473ffffffffffffffffffffffffffffffffffffffff1673ffffffffffffffffffffffffffffffffffffffff163373ffffffffffffffffffffffffffffffffffffffff161415156115fb57600080fd5b60008111151561160a57600080fd5b80600e81905550611643600e54611635670de0b6b3a7640000622dc6c061362b90919063ffffffff16565b61366390919063ffffffff16565b60058190555061167a600e5461166c670de0b6b3a764000061c35061362b90919063ffffffff16565b61366390919063ffffffff16565b600a819055506116b2600e546116a4670de0b6b3a7640000620f424061362b90919063ffffffff16565b61366390919063ffffffff16565b600b819055506116f860086116ea60646116dc600754600a0a600e5461362b90919063ffffffff16565b61362b90919063ffffffff16565b61366390919063ffffffff16565b6000600181548110151561170857fe5b90600052602060002090600602016004018190555061175d600c61174f6064611741600754600a0a600e5461362b90919063ffffffff16565b61362b90919063ffffffff16565b61366390919063ffffffff16565b6000600381548110151561176d57fe5b9060005260206000209060060201600401819055506117c2600d6117b460646117a6600754600a0a600e5461362b90919063ffffffff16565b61362b90919063ffffffff16565b61366390919063ffffffff16565b600060048154811015156117d257fe5b906000526020600020906006020160040181905550611827600e611819606461180b600754600a0a600e5461362b90919063ffffffff16565b61362b90919063ffffffff16565b61366390919063ffffffff16565b6000600581548110151561183757fe5b90600052602060002090600602016004018190555061188c600f61187e6064611870600754600a0a600e5461362b90919063ffffffff16565b61362b90919063ffffffff16565b61366390919063ffffffff16565b6000600681548110151561189c57fe5b90600052602060002090600602016004018190555050565b600460009054906101000a900473ffffffffffffffffffffffffffffffffffffffff1681565b60135481565b600160009054906101000a900473ffffffffffffffffffffffffffffffffffffffff1673ffffffffffffffffffffffffffffffffffffffff163373ffffffffffffffffffffffffffffffffffffffff1614151561193c57600080fd5b6000600681111561194957fe5b6000611953613516565b81548110151561195f57fe5b906000526020600020906006020160000160009054906101000a900460ff16600681111561198957fe5b14806119df57506002600681111561199d57fe5b60006119a7613516565b8154811015156119b357fe5b906000526020600020906006020160000160009054906101000a900460ff1660068111156119dd57fe5b145b15156119ea57600080fd5b6119fe81600261367990919063ffffffff16565b50565b60088054600181600116156101000203166002900480601f016020809104026020016040519081016040528092919081815260200182805460018160011615610100020316600290048015611a975780601f10611a6c57610100808354040283529160200191611a97565b820191906000526020600020905b815481529060010190602001808311611a7a57829003601f168201915b505050505081565b600160009054906101000a900473ffffffffffffffffffffffffffffffffffffffff1673ffffffffffffffffffffffffffffffffffffffff163373ffffffffffffffffffffffffffffffffffffffff16141515611afb57600080fd5b601260019054906101000a900460ff16151515611b1757600080fd5b611b1f610f81565b1515611b2a57600080fd5b611b33816136d7565b6001601260016101000a81548160ff0219169083151502179055507f6823b073d48d6e3a7d385eeb601452d680e74bb46afe3255a7d778f3a9b1768160405160405180910390a150565b600160009054906101000a900473ffffffffffffffffffffffffffffffffffffffff1673ffffffffffffffffffffffffffffffffffffffff163373ffffffffffffffffffffffffffffffffffffffff16141515611bd957600080fd5b600360009054906101000a900473ffffffffffffffffffffffffffffffffffffffff1673ffffffffffffffffffffffffffffffffffffffff1663b90306ad826040518263ffffffff167c010000000000000000000000000000000000000000000000000000000002815260040180828152602001915050600060405180830381600087803b158015611c6a57600080fd5b505af1158015611c7e573d6000803e3d6000fd5b505050507f6ab368f832c266c8eb942b84fbcaa20aedc24a699d2a05fae2568028733b1d09333083604051808473ffffffffffffffffffffffffffffffffffffffff1673ffffffffffffffffffffffffffffffffffffffff1681526020018373ffffffffffffffffffffffffffffffffffffffff1673ffffffffffffffffffffffffffffffffffffffff168152602001828152602001935050505060405180910390a150565b600160009054906101000a900473ffffffffffffffffffffffffffffffffffffffff1673ffffffffffffffffffffffffffffffffffffffff163373ffffffffffffffffffffffffffffffffffffffff16141515611d8057600080fd5b600160009054906101000a900473ffffffffffffffffffffffffffffffffffffffff1673ffffffffffffffffffffffffffffffffffffffff167ff8df31144d9c2f0f6b59d69b8b98abd5459d07f2742c4df920b25aae33c6482060405160405180910390a26000600160006101000a81548173ffffffffffffffffffffffffffffffffffffffff021916908373ffffffffffffffffffffffffffffffffffffffff160217905550565b6000611e3f82600261380e90919063ffffffff16565b9050919050565b60098054600181600116156101000203166002900480601f016020809104026020016040519081016040528092919081815260200182805460018160011615610100020316600290048015611edc5780601f10611eb157610100808354040283529160200191611edc565b820191906000526020600020905b815481529060010190602001808311611ebf57829003601f168201915b505050505081565b6000601c54905090565b6000600554600f541015905090565b60145481565b600160009054906101000a900473ffffffffffffffffffffffffffffffffffffffff1681565b6000601b60009054906101000a900473ffffffffffffffffffffffffffffffffffffffff16905090565b60195481565b600160009054906101000a900473ffffffffffffffffffffffffffffffffffffffff1673ffffffffffffffffffffffffffffffffffffffff163373ffffffffffffffffffffffffffffffffffffffff16141515611fb557600080fd5b60006006811115611fc257fe5b6000611fcc613516565b815481101515611fd857fe5b906000526020600020906006020160000160009054906101000a900460ff16600681111561200257fe5b148061205857506002600681111561201657fe5b6000612020613516565b81548110151561202c57fe5b906000526020600020906006020160000160009054906101000a900460ff16600681111561205657fe5b145b151561206357600080fd5b6120778160026135c190919063ffffffff16565b50565b60008060008090505b61208b613516565b811115156120d5576120c66000828154811015156120a557fe5b9060005260206000209060060201600301548361386790919063ffffffff16565b91508080600101915050612083565b819250505090565b6000601d54905090565b60185481565b6000806120f8613516565b81548110151561210457fe5b906000526020600020906006020160040154905090565b600080600081548110151561212c57fe5b906000526020600020906006020160010154421015905090565b61214e613c1b565b600084826000019073ffffffffffffffffffffffffffffffffffffffff16908173ffffffffffffffffffffffffffffffffffffffff16815250508382602001818152505082826040018190525060188360008151811015156121ac57fe5b9060200101517f010000000000000000000000000000000000000000000000000000000000000090047f0100000000000000000000000000000000000000000000000000000000000000027f0100000000000000000000000000000000000000000000000000000000000000900463ffffffff169060020a02601084600181518110151561223657fe5b9060200101517f010000000000000000000000000000000000000000000000000000000000000090047f0100000000000000000000000000000000000000000000000000000000000000027f0100000000000000000000000000000000000000000000000000000000000000900463ffffffff169060020a0260088560028151811015156122c057fe5b9060200101517f010000000000000000000000000000000000000000000000000000000000000090047f0100000000000000000000000000000000000000000000000000000000000000027f0100000000000000000000000000000000000000000000000000000000000000900463ffffffff169060020a0285600381518110151561234857fe5b9060200101517f010000000000000000000000000000000000000000000000000000000000000090047f0100000000000000000000000000000000000000000000000000000000000000027f010000000000000000000000000000000000000000000000000000000000000090040101019050807c01000000000000000000000000000000000000000000000000000000000282606001907bffffffffffffffffffffffffffffffffffffffffffffffffffffffff191690817bffffffffffffffffffffffffffffffffffffffffffffffffffffffff1916815250505050505050565b600160009054906101000a900473ffffffffffffffffffffffffffffffffffffffff1673ffffffffffffffffffffffffffffffffffffffff163373ffffffffffffffffffffffffffffffffffffffff1614151561248757600080fd5b61248f61211b565b151561249a57600080fd5b6124a2610f81565b1515156124ae57600080fd5b600060068111156124bb57fe5b6124c3612a12565b60068111156124ce57fe5b141515156124db57600080fd5b600160068111156124e857fe5b6124f0612a12565b60068111156124fb57fe5b1415151561250857600080fd5b81612512816132f6565b151561251d57600080fd5b600073ffffffffffffffffffffffffffffffffffffffff168373ffffffffffffffffffffffffffffffffffffffff161415151561255957600080fd5b6000821415151561256957600080fd5b6006546125956011546125878560165461386790919063ffffffff16565b61386790919063ffffffff16565b111515156125a257600080fd5b6125f482601760008673ffffffffffffffffffffffffffffffffffffffff1673ffffffffffffffffffffffffffffffffffffffff1681526020019081526020016000205461386790919063ffffffff16565b601760008573ffffffffffffffffffffffffffffffffffffffff1673ffffffffffffffffffffffffffffffffffffffff1681526020019081526020016000208190555061264c8260165461386790919063ffffffff16565b601681905550600360009054906101000a900473ffffffffffffffffffffffffffffffffffffffff1673ffffffffffffffffffffffffffffffffffffffff166343af57d6846126b8600a6126aa60038861362b90919063ffffffff16565b61366390919063ffffffff16565b60006001600080549050038154811015156126cf57fe5b9060005260206000209060060201600201546040518463ffffffff167c0100000000000000000000000000000000000000000000000000000000028152600401808473ffffffffffffffffffffffffffffffffffffffff1673ffffffffffffffffffffffffffffffffffffffff1681526020018381526020018281526020019350505050602060405180830381600087803b15801561276d57600080fd5b505af1158015612781573d6000803e3d6000fd5b505050506040513d602081101561279757600080fd5b810190808051906020019092919050505050600360009054906101000a900473ffffffffffffffffffffffffffffffffffffffff1673ffffffffffffffffffffffffffffffffffffffff166343af57d68461280f600a61280160078861362b90919063ffffffff16565b61366390919063ffffffff16565b6301e13380600060016000805490500381548110151561282b57fe5b906000526020600020906006020160020154016040518463ffffffff167c0100000000000000000000000000000000000000000000000000000000028152600401808473ffffffffffffffffffffffffffffffffffffffff1673ffffffffffffffffffffffffffffffffffffffff1681526020018381526020018281526020019350505050602060405180830381600087803b1580156128ca57600080fd5b505af11580156128de573d6000803e3d6000fd5b505050506040513d60208110156128f457600080fd5b8101908080519060200190929190505050508273ffffffffffffffffffffffffffffffffffffffff163373ffffffffffffffffffffffffffffffffffffffff167fa6e5a578d42fd913bd5bad70a2ae524a02ea5bcfa6ca06b309333095c155b84e846040518082815260200191505060405180910390a3505050565b600061297a61211b565b151561298557600080fd5b61298d610f81565b15151561299957600080fd5b60006129a3613516565b8154811015156129af57fe5b906000526020600020906006020160050160009054906101000a900460ff1615156129d957600080fd5b600160068111156129e657fe5b6129ee612a12565b60068111156129f957fe5b1415612a0957600a549050612a0f565b600c5490505b90565b600080612a1d613516565b815481101515612a2957fe5b906000526020600020906006020160000160009054906101000a900460ff16905090565b60115481565b60006006811115612a6057fe5b6000612a6a613516565b815481101515612a7657fe5b906000526020600020906006020160000160009054906101000a900460ff166006811115612aa057fe5b1480612af6575060026006811115612ab457fe5b6000612abe613516565b815481101515612aca57fe5b906000526020600020906006020160000160009054906101000a900460ff166006811115612af457fe5b145b1515612b0157600080fd5b600160009054906101000a900473ffffffffffffffffffffffffffffffffffffffff1673ffffffffffffffffffffffffffffffffffffffff163373ffffffffffffffffffffffffffffffffffffffff16141515612b5d57600080fd5b612b7181601561367990919063ffffffff16565b50565b600160009054906101000a900473ffffffffffffffffffffffffffffffffffffffff1673ffffffffffffffffffffffffffffffffffffffff163373ffffffffffffffffffffffffffffffffffffffff16141515612bd057600080fd5b612bd86114c4565b6000601b60006101000a81548173ffffffffffffffffffffffffffffffffffffffff021916908373ffffffffffffffffffffffffffffffffffffffff160217905550565b6000806000612c2961211b565b1515612c3457600080fd5b612c3c610f81565b151515612c4857600080fd5b6000612c52613516565b815481101515612c5e57fe5b906000526020600020906006020160050160009054906101000a900460ff161515612c8857600080fd5b349150612c9482613883565b9050612ca18483836138c2565b612cac848383613a46565b612cb68482613b16565b8373ffffffffffffffffffffffffffffffffffffffff163373ffffffffffffffffffffffffffffffffffffffff167f623b3804fa71d67900d064613da8f94b9617215ee90799290593e1745087ad188484604051808381526020018281526020019250505060405180910390a35050919050565b600160009054906101000a900473ffffffffffffffffffffffffffffffffffffffff1673ffffffffffffffffffffffffffffffffffffffff163373ffffffffffffffffffffffffffffffffffffffff16141515612d8657600080fd5b612d8e61211b565b1515612d9957600080fd5b612da1610f81565b151515612dad57600080fd5b6000612db7613516565b815481101515612dc357fe5b906000526020600020906006020160050160009054906101000a900460ff161515612ded57600080fd5b600073ffffffffffffffffffffffffffffffffffffffff168273ffffffffffffffffffffffffffffffffffffffff1614151515612e2957600080fd5b60008114151515612e3957600080fd5b601854612e518260195461386790919063ffffffff16565b11151515612e5e57600080fd5b612eb081601a60008573ffffffffffffffffffffffffffffffffffffffff1673ffffffffffffffffffffffffffffffffffffffff1681526020019081526020016000205461386790919063ffffffff16565b601a60008473ffffffffffffffffffffffffffffffffffffffff1673ffffffffffffffffffffffffffffffffffffffff16815260200190815260200160002081905550612f088160195461386790919063ffffffff16565b601981905550600360009054906101000a900473ffffffffffffffffffffffffffffffffffffffff1673ffffffffffffffffffffffffffffffffffffffff1663a9059cbb83836040518363ffffffff167c0100000000000000000000000000000000000000000000000000000000028152600401808373ffffffffffffffffffffffffffffffffffffffff1673ffffffffffffffffffffffffffffffffffffffff16815260200182815260200192505050602060405180830381600087803b158015612fd357600080fd5b505af1158015612fe7573d6000803e3d6000fd5b505050506040513d6020811015612ffd57600080fd5b8101908080519060200190929190505050508173ffffffffffffffffffffffffffffffffffffffff16600160009054906101000a900473ffffffffffffffffffffffffffffffffffffffff1673ffffffffffffffffffffffffffffffffffffffff167f3dd247ca176cfa1531a4faf4ef926c52f3201b3056f8d738306f4383fa700d04836040518082815260200191505060405180910390a35050565b600160009054906101000a900473ffffffffffffffffffffffffffffffffffffffff1673ffffffffffffffffffffffffffffffffffffffff163373ffffffffffffffffffffffffffffffffffffffff161415156130f657600080fd5b600073ffffffffffffffffffffffffffffffffffffffff168173ffffffffffffffffffffffffffffffffffffffff161415151561313257600080fd5b8073ffffffffffffffffffffffffffffffffffffffff16600160009054906101000a900473ffffffffffffffffffffffffffffffffffffffff1673ffffffffffffffffffffffffffffffffffffffff167f8be0079c531659141344cd1fd0a4f28419497f9722a3daafe3b4186f6b6457e060405160405180910390a380600160006101000a81548173ffffffffffffffffffffffffffffffffffffffff021916908373ffffffffffffffffffffffffffffffffffffffff16021790555050565b600160009054906101000a900473ffffffffffffffffffffffffffffffffffffffff1673ffffffffffffffffffffffffffffffffffffffff163373ffffffffffffffffffffffffffffffffffffffff1614151561324e57600080fd5b600073ffffffffffffffffffffffffffffffffffffffff168273ffffffffffffffffffffffffffffffffffffffff161415151561328a57600080fd5b6000811415151561329a57600080fd5b600f5481111515156132ab57600080fd5b8173ffffffffffffffffffffffffffffffffffffffff166108fc829081150290604051600060405180830381858888f193505050501580156132f1573d6000803e3d6000fd5b505050565b600061330c82601561380e90919063ffffffff16565b9050919050565b6000601260019054906101000a900460ff16151561333057600080fd5b6001600281111561333d57fe5b601260009054906101000a900460ff16600281111561335857fe5b14151561336457600080fd5b6000601060008473ffffffffffffffffffffffffffffffffffffffff1673ffffffffffffffffffffffffffffffffffffffff16815260200190815260200160002054141515156133b357600080fd5b601060008373ffffffffffffffffffffffffffffffffffffffff1673ffffffffffffffffffffffffffffffffffffffff1681526020019081526020016000205490506000601060008473ffffffffffffffffffffffffffffffffffffffff1673ffffffffffffffffffffffffffffffffffffffff168152602001908152602001600020819055508173ffffffffffffffffffffffffffffffffffffffff166108fc829081150290604051600060405180830381858888f19350505050158015613480573d6000803e3d6000fd5b507fd7dee2702d63ad89917b6a4da9981c90c4d24f8c2bdfd64c604ecae57d8d06518282604051808373ffffffffffffffffffffffffffffffffffffffff1673ffffffffffffffffffffffffffffffffffffffff1681526020018281526020019250505060405180910390a15050565b600360009054906101000a900473ffffffffffffffffffffffffffffffffffffffff1681565b60008061352161211b565b151561352c57600080fd5b613534610f81565b15151561354057600080fd5b600090505b6000805490508110156135bc5760008181548110151561356157fe5b90600052602060002090600602016001015442101580156135a2575060008181548110151561358c57fe5b9060005260206000209060060201600201544211155b156135af578091506135bd565b8080600101915050613545565b5b5090565b60008260000160008373ffffffffffffffffffffffffffffffffffffffff1673ffffffffffffffffffffffffffffffffffffffff16815260200190815260200160002060006101000a81548160ff0219169083151502179055505050565b600080601d5414905090565b60008083141561363e576000905061365d565b818302905081838281151561364f57fe5b0414151561365957fe5b8090505b92915050565b6000818381151561367057fe5b04905092915050565b60018260000160008373ffffffffffffffffffffffffffffffffffffffff1673ffffffffffffffffffffffffffffffffffffffff16815260200190815260200160002060006101000a81548160ff0219169083151502179055505050565b600060028111156136e457fe5b601260009054906101000a900460ff1660028111156136ff57fe5b14151561370b57600080fd5b80156137e6576002601260006101000a81548160ff0219169083600281111561373057fe5b0217905550600460009054906101000a900473ffffffffffffffffffffffffffffffffffffffff1673ffffffffffffffffffffffffffffffffffffffff166108fc3073ffffffffffffffffffffffffffffffffffffffff16319081150290604051600060405180830381858888f193505050501580156137b4573d6000803e3d6000fd5b507f1cdde67b72a90f19919ac732a437ac2f7a10fc128d28c2a6e525d89ce5cd9d3a60405160405180910390a161380b565b6001601260006101000a81548160ff0219169083600281111561380557fe5b02179055505b50565b60008260000160008373ffffffffffffffffffffffffffffffffffffffff1673ffffffffffffffffffffffffffffffffffffffff16815260200190815260200160002060009054906101000a900460ff16905092915050565b6000818301905082811015151561387a57fe5b80905092915050565b60008061388e6120ed565b90506138ba600754600a0a6138ac838661362b90919063ffffffff16565b61366390919063ffffffff16565b915050919050565b600073ffffffffffffffffffffffffffffffffffffffff168373ffffffffffffffffffffffffffffffffffffffff16141515156138fe57600080fd5b6000821415151561390e57600080fd5b61391661207a565b61392b8260115461386790919063ffffffff16565b1115151561393857600080fd5b613940612970565b61399283601060008773ffffffffffffffffffffffffffffffffffffffff1673ffffffffffffffffffffffffffffffffffffffff1681526020019081526020016000205461386790919063ffffffff16565b1015151561399f57600080fd5b6139a7610edf565b6139f983601060008773ffffffffffffffffffffffffffffffffffffffff1673ffffffffffffffffffffffffffffffffffffffff1681526020019081526020016000205461386790919063ffffffff16565b11151515613a0657600080fd5b60016006811115613a1357fe5b613a1b612a12565b6006811115613a2657fe5b1415613a4157613a3583611e29565b1515613a4057600080fd5b5b505050565b613a9882601060008673ffffffffffffffffffffffffffffffffffffffff1673ffffffffffffffffffffffffffffffffffffffff1681526020019081526020016000205461386790919063ffffffff16565b601060008573ffffffffffffffffffffffffffffffffffffffff1673ffffffffffffffffffffffffffffffffffffffff16815260200190815260200160002081905550613af08160115461386790919063ffffffff16565b601181905550613b0b82600f5461386790919063ffffffff16565b600f81905550505050565b600360009054906101000a900473ffffffffffffffffffffffffffffffffffffffff1673ffffffffffffffffffffffffffffffffffffffff1663a9059cbb83836040518363ffffffff167c0100000000000000000000000000000000000000000000000000000000028152600401808373ffffffffffffffffffffffffffffffffffffffff1673ffffffffffffffffffffffffffffffffffffffff16815260200182815260200192505050602060405180830381600087803b158015613bdb57600080fd5b505af1158015613bef573d6000803e3d6000fd5b505050506040513d6020811015613c0557600080fd5b8101908080519060200190929190505050505050565b608060405190810160405280600073ffffffffffffffffffffffffffffffffffffffff168152602001600081526020016060815260200160007bffffffffffffffffffffffffffffffffffffffffffffffffffffffff1916815250905600a165627a7a723058204ea1d636ab33aa2435a4d83c79bac4126d36131fa90fa50fc7623ecbdb5e2ac50029",
  "source": "pragma solidity ^0.4.23;\r\n\r\nimport \"./BasicCrowdsale.sol\";\r\nimport \"./FinalizableCrowdsale.sol\";\r\nimport \"./GrantedCrowdsale.sol\";\r\nimport \"./RefundableCrowdsale.sol\";\r\nimport \"./ReferralCorwdsale.sol\";\r\nimport \"./tokenReceiver.sol\";\r\nimport \"./BurnableCrowdsale.sol\";\r\nimport \"../ownership/Heritable.sol\";\r\n\r\n/**\r\n * @title WOXCrowdsale\r\n * @dev \r\n */\r\ncontract WOXCrowdsale is \r\n    BasicCrowdsale,\r\n    FinalizableCrowdsale,\r\n    GrantedCrowdsale,\r\n    RefundableCrowdsale,\r\n    ReferralCrowdsale,\r\n    BurnableCrowdsale,\r\n    tokenReceiver,\r\n    Heritable\r\n{\r\n    \r\n    /**\r\n     * @dev Initiates parameters of crowdsale.\r\n     * @param _cliff determines the cliff time between contract deployment an ICO opening time.\r\n     * @param _USD_PER_ETH USD to ETHER rate. (amount of USD per 1 ETHER).\r\n     * @param _wallet Wallet address to which funds will be depositted to after goal reached.\r\n     * @param _tokenAddress WOX Token contract address.\r\n     */\r\n    constructor(\r\n        uint256 _cliff,\r\n        uint256 _USD_PER_ETH,\r\n        address _wallet,\r\n        address _tokenAddress\r\n        ) \r\n        public \r\n    {\r\n        require(_wallet != address(0));\r\n        require(_tokenAddress != address(0));\r\n        \r\n        USD_PER_ETH = _USD_PER_ETH;\r\n        wallet = _wallet;\r\n        state = State.Active;\r\n        isFinalized = false;\r\n        \r\n        token = woxToken(_tokenAddress);\r\n        totalSupply = token.totalSupply();\r\n        decimals = token.decimals();\r\n        tokenName = token.name();\r\n        tokenSymbol = token.symbol();\r\n        \r\n        /**\r\n         * @dev Crowdsale Softcap is the minimum fund desired to be raised.\r\n         * @param softacp Crowdsale softcap is 3 Millions of USD. If this amount of fund \r\n         * raises the goal is reached but the crowdsale will be running until\r\n         * the end of ICO-4.\r\n         * @param MaxRefferalTokens Only 30 Million Tokens are allowed to be paid as Refferals.\r\n         */\r\n        softcapWei = uint256(3e6).mul(1 ether).div(USD_PER_ETH);\r\n        MaxReferralTokens = uint256(620e6).mul(10 ** decimals).mul(3).div(100);\r\n\r\n        /**\r\n         * @dev Investing limitations:\r\n         * @param minVestingPreICO Minimum Investing rate at pre-ICO Tier 50K USD. \r\n         * Its equivallent ETHER value is computed and considered based on USD/ETH rate.\r\n         * @param maxVestingPreICO ///////\r\n         * @param minVestingICO Minimum Investing rate at pre-ICO Tier is 0.1 ETHER.\r\n         * @param maxVestingICO Miaximum Investing rate at pre-ICO Tier is 300 ETHER.\r\n         */\r\n        minVestingWeiPreICO = uint256(50e3).mul(1 ether).div(USD_PER_ETH);\r\n        maxVestingWeiPreICO = uint256(1e6).mul(1 ether).div(USD_PER_ETH); //// ?????\r\n        minVestingWeiICO = 0.1 ether;\r\n        maxVestingWeiICO = 300 ether;\r\n\r\n        uint256 _openingTime = now + _cliff;\r\n\r\n        /**\r\n         * @dev Pre-Whitelist Tier will be running for 10 days since ICO opening.\r\n         * Crowdsale Owner is supposed to insert VCs' address into VC Whitelist.\r\n         * Token Purchase is not allowed during this Round.\r\n         */\r\n        addTier(\r\n            TierStates.preWhitelist,\r\n            _openingTime, \r\n            _openingTime + 10 days, \r\n            0, \r\n            0,\r\n            false);\r\n\r\n        /**\r\n         * @dev Pre-ICO Tier will open immediately after per-Whitelist round finished and\r\n         * will be running for 30 days. Token purchase is only allowed to whitelisted VCs.\r\n         * The Hardcap of pre-ICO Tier is 120M tokens. The remaining tokens not sold at \r\n         * this round will be added to next rounds. Whitelisting is not allowed at this round.\r\n         */\r\n        addTier(\r\n            TierStates.preICO,\r\n            Tiers[Tiers.length-1].ending, \r\n            Tiers[Tiers.length-1].ending + 30 days, \r\n            uint256(120e6).mul(10 ** decimals), \r\n            uint256(USD_PER_ETH).mul(10 ** decimals).mul(100).div(8),            \r\n            true);\r\n\r\n        /**\r\n         * @dev Whitelist Tier will open immediately after pre-ICO round finished and\r\n         * will be running for 10 days. Token purchase is not allowed. ICO Owner will be able\r\n         * to insert new VCs to VC Whitelist.\r\n         */\r\n        addTier(\r\n            TierStates.Whitelist,\r\n            Tiers[Tiers.length-1].ending, \r\n            Tiers[Tiers.length-1].ending + 10 days, \r\n            0, \r\n            0, \r\n            false);\r\n\r\n        /**\r\n         * @dev ICO-1 Tier will open immediately after Whitelist round finished and\r\n         * will be running for 1 week. Token purchase is allowed for all participants.\r\n         * The ICO-1 Hardcap is 125M tokens in addition to amount of tokens remained \r\n         * from previous rounds. The remaining tokens not sold at this round will be\r\n         * added to next one. Whitelisting is not allowed at this tier.\r\n         */\r\n        addTier(\r\n            TierStates.ICORound1,\r\n            Tiers[Tiers.length-1].ending, \r\n            Tiers[Tiers.length-1].ending + 1 weeks, \r\n            uint256(125e6).mul(10 ** decimals), \r\n            uint256(USD_PER_ETH).mul(10 ** decimals).mul(100).div(12), \r\n            true);\r\n\r\n        /**\r\n         * @dev ICO-2 Tier will open immediately after ICO-1 round finished and\r\n         * will be running for 1 week. Token purchase is allowed for all participants.\r\n         * The ICO-2 Hardcap is 125M tokens in addition to amount of tokens remained \r\n         * from previous rounds. The remaining tokens not sold at this round will be\r\n         * added to next one. Whitelisting is not allowed at this tier.\r\n         */\r\n        addTier(\r\n            TierStates.ICORound2,\r\n            Tiers[Tiers.length-1].ending, \r\n            Tiers[Tiers.length-1].ending + 1 weeks, \r\n            uint256(125e6).mul(10 ** decimals), \r\n            uint256(USD_PER_ETH).mul(10 ** decimals).mul(100).div(13), \r\n            true);\r\n\r\n        /**\r\n         * @dev ICO-3 Tier will open immediately after ICO-2 round finished and\r\n         * will be running for 1 week. Token purchase is allowed for all participants.\r\n         * The ICO-3 Hardcap is 125M tokens in addition to amount of tokens remained \r\n         * from previous rounds. The remaining tokens not sold at this round will be\r\n         * added to next one. Whitelisting is not allowed at this tier.\r\n         */\r\n        addTier(\r\n            TierStates.ICORound3,\r\n            Tiers[Tiers.length-1].ending, \r\n            Tiers[Tiers.length-1].ending + 1 weeks, \r\n            uint256(125e6).mul(10 ** decimals), \r\n            uint256(USD_PER_ETH).mul(10 ** decimals).mul(100).div(14), \r\n            true);\r\n\r\n        /**\r\n         * @dev ICO-3 Tier will open immediately after ICO-2 round finished and\r\n         * will be running for 1 week. Token purchase is allowed for all participants.\r\n         * The ICO-3 Hardcap is 125M tokens in addition to amount of tokens remained \r\n         * from previous rounds. The remaining tokens not sold at this round will be\r\n         * added to next one. Whitelisting is not allowed at this tier.\r\n         */\r\n        addTier(\r\n            TierStates.ICORound4,\r\n            Tiers[Tiers.length-1].ending, \r\n            Tiers[Tiers.length-1].ending + 1 weeks, \r\n            uint256(125e6).mul(10 ** decimals), \r\n            uint256(USD_PER_ETH).mul(10 ** decimals).mul(100).div(15), \r\n            true);\r\n    }\r\n\r\n    /**\r\n     *@dev Updates Prices. It updates USD_PER_ETH and all related parameters.\r\n     *@dev note Only owner can update prices.\r\n     *@param _usd_eth New USD to ETHER rate. (amount of USD per 1 ETHER).\r\n     */\r\n    function updatePricing(uint256 _usd_eth) public onlyOwner {\r\n        require(_usd_eth > 0);\r\n\r\n        USD_PER_ETH = _usd_eth;\r\n        softcapWei = uint256(3e6).mul(1 ether).div(USD_PER_ETH);\r\n        minVestingWeiPreICO = uint256(50e3).mul(1 ether).div(USD_PER_ETH);\r\n        maxVestingWeiPreICO = uint256(1e6).mul(1 ether).div(USD_PER_ETH); //// ?????\r\n\r\n        Tiers[1].tokenWeisPerEth = uint256(USD_PER_ETH).mul(10 ** decimals).mul(100).div(8);\r\n        Tiers[3].tokenWeisPerEth = uint256(USD_PER_ETH).mul(10 ** decimals).mul(100).div(12);\r\n        Tiers[4].tokenWeisPerEth = uint256(USD_PER_ETH).mul(10 ** decimals).mul(100).div(13);\r\n        Tiers[5].tokenWeisPerEth = uint256(USD_PER_ETH).mul(10 ** decimals).mul(100).div(14);\r\n        Tiers[6].tokenWeisPerEth = uint256(USD_PER_ETH).mul(10 ** decimals).mul(100).div(15);\r\n    }\r\n}",
  "sourcePath": "G:\\Root\\Blockchain\\WOX\\contracts\\crowdSale\\WOXCrowdsale.sol",
  "compiler": {
    "name": "solc",
    "version": "0.4.23+commit.124ca40d.Emscripten.clang"
  },
  "schemaVersion": "2.0.0",
  "updatedAt": "2018-06-27T06:56:02.153Z"
}