{
  "contractName": "WOXCrowdsaleTest",
  "abi": [
    {
      "constant": false,
      "inputs": [
        {
          "name": "_grantee",
          "type": "address"
        }
      ],
      "name": "removeFromGrantees",
      "outputs": [],
      "payable": false,
      "stateMutability": "nonpayable",
      "type": "function"
    },
    {
      "constant": true,
      "inputs": [],
      "name": "maxVestingWei",
      "outputs": [
        {
          "name": "",
          "type": "uint256"
        }
      ],
      "payable": false,
      "stateMutability": "view",
      "type": "function"
    },
    {
      "constant": true,
      "inputs": [],
      "name": "hasClosed",
      "outputs": [
        {
          "name": "",
          "type": "bool"
        }
      ],
      "payable": false,
      "stateMutability": "view",
      "type": "function"
    },
    {
      "constant": true,
      "inputs": [],
      "name": "totalSupply",
      "outputs": [
        {
          "name": "",
          "type": "uint256"
        }
      ],
      "payable": false,
      "stateMutability": "view",
      "type": "function"
    },
    {
      "constant": true,
      "inputs": [],
      "name": "grantedTokens",
      "outputs": [
        {
          "name": "",
          "type": "uint256"
        }
      ],
      "payable": false,
      "stateMutability": "view",
      "type": "function"
    },
    {
      "constant": true,
      "inputs": [],
      "name": "currentTierHardcap",
      "outputs": [
        {
          "name": "",
          "type": "uint256"
        }
      ],
      "payable": false,
      "stateMutability": "view",
      "type": "function"
    },
    {
      "constant": true,
      "inputs": [],
      "name": "decimals",
      "outputs": [
        {
          "name": "",
          "type": "uint256"
        }
      ],
      "payable": false,
      "stateMutability": "view",
      "type": "function"
    },
    {
      "constant": true,
      "inputs": [],
      "name": "weiRaised",
      "outputs": [
        {
          "name": "",
          "type": "uint256"
        }
      ],
      "payable": false,
      "stateMutability": "view",
      "type": "function"
    },
    {
      "constant": true,
      "inputs": [],
      "name": "getWeiRaised",
      "outputs": [
        {
          "name": "",
          "type": "uint256"
        }
      ],
      "payable": false,
      "stateMutability": "view",
      "type": "function"
    },
    {
      "constant": true,
      "inputs": [],
      "name": "wallet",
      "outputs": [
        {
          "name": "",
          "type": "address"
        }
      ],
      "payable": false,
      "stateMutability": "view",
      "type": "function"
    },
    {
      "constant": true,
      "inputs": [],
      "name": "grantHardcapToken",
      "outputs": [
        {
          "name": "",
          "type": "uint256"
        }
      ],
      "payable": false,
      "stateMutability": "view",
      "type": "function"
    },
    {
      "constant": false,
      "inputs": [
        {
          "name": "_vc",
          "type": "address"
        }
      ],
      "name": "addToVC",
      "outputs": [],
      "payable": false,
      "stateMutability": "nonpayable",
      "type": "function"
    },
    {
      "constant": true,
      "inputs": [],
      "name": "tokenName",
      "outputs": [
        {
          "name": "",
          "type": "string"
        }
      ],
      "payable": false,
      "stateMutability": "view",
      "type": "function"
    },
    {
      "constant": false,
      "inputs": [
        {
          "name": "toBeClosed",
          "type": "bool"
        }
      ],
      "name": "finalize",
      "outputs": [],
      "payable": false,
      "stateMutability": "nonpayable",
      "type": "function"
    },
    {
      "constant": false,
      "inputs": [
        {
          "name": "_burnAmount",
          "type": "uint256"
        }
      ],
      "name": "burnTokens",
      "outputs": [],
      "payable": false,
      "stateMutability": "nonpayable",
      "type": "function"
    },
    {
      "constant": false,
      "inputs": [],
      "name": "renounceOwnership",
      "outputs": [],
      "payable": false,
      "stateMutability": "nonpayable",
      "type": "function"
    },
    {
      "constant": true,
      "inputs": [
        {
          "name": "_vc",
          "type": "address"
        }
      ],
      "name": "whtielistedAsVC",
      "outputs": [
        {
          "name": "",
          "type": "bool"
        }
      ],
      "payable": false,
      "stateMutability": "view",
      "type": "function"
    },
    {
      "constant": true,
      "inputs": [],
      "name": "tokenSymbol",
      "outputs": [
        {
          "name": "",
          "type": "string"
        }
      ],
      "payable": false,
      "stateMutability": "view",
      "type": "function"
    },
    {
      "constant": true,
      "inputs": [],
      "name": "goalReached",
      "outputs": [
        {
          "name": "",
          "type": "bool"
        }
      ],
      "payable": false,
      "stateMutability": "view",
      "type": "function"
    },
    {
      "constant": true,
      "inputs": [],
      "name": "grantHardcapTokenPerEach",
      "outputs": [
        {
          "name": "",
          "type": "uint256"
        }
      ],
      "payable": false,
      "stateMutability": "view",
      "type": "function"
    },
    {
      "constant": true,
      "inputs": [],
      "name": "owner",
      "outputs": [
        {
          "name": "",
          "type": "address"
        }
      ],
      "payable": false,
      "stateMutability": "view",
      "type": "function"
    },
    {
      "constant": true,
      "inputs": [],
      "name": "referralTokens",
      "outputs": [
        {
          "name": "",
          "type": "uint256"
        }
      ],
      "payable": false,
      "stateMutability": "view",
      "type": "function"
    },
    {
      "constant": false,
      "inputs": [
        {
          "name": "_vc",
          "type": "address"
        }
      ],
      "name": "removeFromVC",
      "outputs": [],
      "payable": false,
      "stateMutability": "nonpayable",
      "type": "function"
    },
    {
      "constant": true,
      "inputs": [],
      "name": "currentSaleTokenWeiHardcap",
      "outputs": [
        {
          "name": "",
          "type": "uint256"
        }
      ],
      "payable": false,
      "stateMutability": "view",
      "type": "function"
    },
    {
      "constant": true,
      "inputs": [],
      "name": "MaxReferralTokens",
      "outputs": [
        {
          "name": "",
          "type": "uint256"
        }
      ],
      "payable": false,
      "stateMutability": "view",
      "type": "function"
    },
    {
      "constant": true,
      "inputs": [],
      "name": "currentTierTokenWeisPerEth",
      "outputs": [
        {
          "name": "",
          "type": "uint256"
        }
      ],
      "payable": false,
      "stateMutability": "view",
      "type": "function"
    },
    {
      "constant": true,
      "inputs": [],
      "name": "hasOpened",
      "outputs": [
        {
          "name": "",
          "type": "bool"
        }
      ],
      "payable": false,
      "stateMutability": "view",
      "type": "function"
    },
    {
      "constant": true,
      "inputs": [
        {
          "name": "_from",
          "type": "address"
        },
        {
          "name": "_value",
          "type": "uint256"
        },
        {
          "name": "_data",
          "type": "bytes"
        }
      ],
      "name": "tokenFallback",
      "outputs": [],
      "payable": false,
      "stateMutability": "pure",
      "type": "function"
    },
    {
      "constant": false,
      "inputs": [
        {
          "name": "_grantee",
          "type": "address"
        },
        {
          "name": "_tokenAmount",
          "type": "uint256"
        }
      ],
      "name": "grantTokens",
      "outputs": [],
      "payable": false,
      "stateMutability": "nonpayable",
      "type": "function"
    },
    {
      "constant": true,
      "inputs": [],
      "name": "minVestingWei",
      "outputs": [
        {
          "name": "",
          "type": "uint256"
        }
      ],
      "payable": false,
      "stateMutability": "view",
      "type": "function"
    },
    {
      "constant": true,
      "inputs": [],
      "name": "currentTier",
      "outputs": [
        {
          "name": "",
          "type": "uint8"
        }
      ],
      "payable": false,
      "stateMutability": "view",
      "type": "function"
    },
    {
      "constant": true,
      "inputs": [],
      "name": "tokenWeisSold",
      "outputs": [
        {
          "name": "",
          "type": "uint256"
        }
      ],
      "payable": false,
      "stateMutability": "view",
      "type": "function"
    },
    {
      "constant": false,
      "inputs": [
        {
          "name": "_grantee",
          "type": "address"
        }
      ],
      "name": "addToGrantees",
      "outputs": [],
      "payable": false,
      "stateMutability": "nonpayable",
      "type": "function"
    },
    {
      "constant": false,
      "inputs": [
        {
          "name": "_beneficiary",
          "type": "address"
        }
      ],
      "name": "buyTokens",
      "outputs": [
        {
          "name": "",
          "type": "uint256"
        }
      ],
      "payable": true,
      "stateMutability": "payable",
      "type": "function"
    },
    {
      "constant": false,
      "inputs": [
        {
          "name": "_referrer",
          "type": "address"
        },
        {
          "name": "_amount",
          "type": "uint256"
        }
      ],
      "name": "PayReferral",
      "outputs": [],
      "payable": false,
      "stateMutability": "nonpayable",
      "type": "function"
    },
    {
      "constant": false,
      "inputs": [
        {
          "name": "newOwner",
          "type": "address"
        }
      ],
      "name": "transferOwnership",
      "outputs": [],
      "payable": false,
      "stateMutability": "nonpayable",
      "type": "function"
    },
    {
      "constant": false,
      "inputs": [
        {
          "name": "_wallet",
          "type": "address"
        },
        {
          "name": "_weiAmount",
          "type": "uint256"
        }
      ],
      "name": "withdraw",
      "outputs": [],
      "payable": false,
      "stateMutability": "nonpayable",
      "type": "function"
    },
    {
      "constant": true,
      "inputs": [
        {
          "name": "_grantee",
          "type": "address"
        }
      ],
      "name": "whitelistedAsGrantee",
      "outputs": [
        {
          "name": "",
          "type": "bool"
        }
      ],
      "payable": false,
      "stateMutability": "view",
      "type": "function"
    },
    {
      "constant": false,
      "inputs": [
        {
          "name": "_investor",
          "type": "address"
        }
      ],
      "name": "refund",
      "outputs": [],
      "payable": false,
      "stateMutability": "nonpayable",
      "type": "function"
    },
    {
      "constant": true,
      "inputs": [],
      "name": "token",
      "outputs": [
        {
          "name": "",
          "type": "address"
        }
      ],
      "payable": false,
      "stateMutability": "view",
      "type": "function"
    },
    {
      "inputs": [
        {
          "name": "_cliff",
          "type": "uint256"
        },
        {
          "name": "_USD_PER_ETH",
          "type": "uint256"
        },
        {
          "name": "_wallet",
          "type": "address"
        },
        {
          "name": "_tokenAddress",
          "type": "address"
        }
      ],
      "payable": false,
      "stateMutability": "nonpayable",
      "type": "constructor"
    },
    {
      "anonymous": false,
      "inputs": [
        {
          "indexed": false,
          "name": "_burner",
          "type": "address"
        },
        {
          "indexed": false,
          "name": "_burnedFrom",
          "type": "address"
        },
        {
          "indexed": false,
          "name": "_burnAmount",
          "type": "uint256"
        }
      ],
      "name": "Burned",
      "type": "event"
    },
    {
      "anonymous": false,
      "inputs": [
        {
          "indexed": true,
          "name": "sender",
          "type": "address"
        },
        {
          "indexed": true,
          "name": "referre",
          "type": "address"
        },
        {
          "indexed": false,
          "name": "amount",
          "type": "uint256"
        }
      ],
      "name": "ReferralTokenPaid",
      "type": "event"
    },
    {
      "anonymous": false,
      "inputs": [
        {
          "indexed": false,
          "name": "_investor",
          "type": "address"
        },
        {
          "indexed": false,
          "name": "_depositedValue",
          "type": "uint256"
        }
      ],
      "name": "Refunded",
      "type": "event"
    },
    {
      "anonymous": false,
      "inputs": [
        {
          "indexed": true,
          "name": "sender",
          "type": "address"
        },
        {
          "indexed": true,
          "name": "grantee",
          "type": "address"
        },
        {
          "indexed": false,
          "name": "amount",
          "type": "uint256"
        }
      ],
      "name": "TokenGranted",
      "type": "event"
    },
    {
      "anonymous": false,
      "inputs": [],
      "name": "Finalized",
      "type": "event"
    },
    {
      "anonymous": false,
      "inputs": [],
      "name": "Closed",
      "type": "event"
    },
    {
      "anonymous": false,
      "inputs": [
        {
          "indexed": true,
          "name": "purchaser",
          "type": "address"
        },
        {
          "indexed": true,
          "name": "beneficiary",
          "type": "address"
        },
        {
          "indexed": false,
          "name": "value",
          "type": "uint256"
        },
        {
          "indexed": false,
          "name": "amount",
          "type": "uint256"
        }
      ],
      "name": "TokenPurchase",
      "type": "event"
    },
    {
      "anonymous": false,
      "inputs": [
        {
          "indexed": true,
          "name": "previousOwner",
          "type": "address"
        }
      ],
      "name": "OwnershipRenounced",
      "type": "event"
    },
    {
      "anonymous": false,
      "inputs": [
        {
          "indexed": true,
          "name": "previousOwner",
          "type": "address"
        },
        {
          "indexed": true,
          "name": "newOwner",
          "type": "address"
        }
      ],
      "name": "OwnershipTransferred",
      "type": "event"
    }
  ],
  "bytecode": "0x60806040523480156200001157600080fd5b50604051608080620040e983398101806040528101908080519060200190929190805190602001909291908051906020019092919080519060200190929190505050600033600160006101000a81548173ffffffffffffffffffffffffffffffffffffffff021916908373ffffffffffffffffffffffffffffffffffffffff160217905550600073ffffffffffffffffffffffffffffffffffffffff168373ffffffffffffffffffffffffffffffffffffffff1614151515620000d357600080fd5b600073ffffffffffffffffffffffffffffffffffffffff168273ffffffffffffffffffffffffffffffffffffffff16141515156200011057600080fd5b83600e8190555082600460006101000a81548173ffffffffffffffffffffffffffffffffffffffff021916908373ffffffffffffffffffffffffffffffffffffffff1602179055506000601260006101000a81548160ff021916908360028111156200017857fe5b02179055506000601260016101000a81548160ff02191690831515021790555081600360006101000a81548173ffffffffffffffffffffffffffffffffffffffff021916908373ffffffffffffffffffffffffffffffffffffffff160217905550600360009054906101000a900473ffffffffffffffffffffffffffffffffffffffff1673ffffffffffffffffffffffffffffffffffffffff166318160ddd6040518163ffffffff167c0100000000000000000000000000000000000000000000000000000000028152600401602060405180830381600087803b1580156200026057600080fd5b505af115801562000275573d6000803e3d6000fd5b505050506040513d60208110156200028c57600080fd5b8101908080519060200190929190505050600681905550600360009054906101000a900473ffffffffffffffffffffffffffffffffffffffff1673ffffffffffffffffffffffffffffffffffffffff1663313ce5676040518163ffffffff167c0100000000000000000000000000000000000000000000000000000000028152600401602060405180830381600087803b1580156200032a57600080fd5b505af11580156200033f573d6000803e3d6000fd5b505050506040513d60208110156200035657600080fd5b8101908080519060200190929190505050600781905550600360009054906101000a900473ffffffffffffffffffffffffffffffffffffffff1673ffffffffffffffffffffffffffffffffffffffff166306fdde036040518163ffffffff167c0100000000000000000000000000000000000000000000000000000000028152600401600060405180830381600087803b158015620003f457600080fd5b505af115801562000409573d6000803e3d6000fd5b505050506040513d6000823e3d601f19601f8201168201806040525060208110156200043457600080fd5b8101908080516401000000008111156200044d57600080fd5b828101905060208101848111156200046457600080fd5b81518560018202830111640100000000821117156200048257600080fd5b505092919050505060089080519060200190620004a192919062000ec0565b50600360009054906101000a900473ffffffffffffffffffffffffffffffffffffffff1673ffffffffffffffffffffffffffffffffffffffff166395d89b416040518163ffffffff167c0100000000000000000000000000000000000000000000000000000000028152600401600060405180830381600087803b1580156200052957600080fd5b505af11580156200053e573d6000803e3d6000fd5b505050506040513d6000823e3d601f19601f8201168201806040525060208110156200056957600080fd5b8101908080516401000000008111156200058257600080fd5b828101905060208101848111156200059957600080fd5b8151856001820283011164010000000082111715620005b757600080fd5b505092919050505060099080519060200190620005d692919062000ec0565b5062000629600e546200060c670de0b6b3a7640000622dc6c062000d046401000000000262002cb5179091906401000000009004565b62000d406401000000000262002ced179091906401000000009004565b6005819055506200065b600754600a0a6301c9c38062000d046401000000000262002cb5179091906401000000009004565b60188190555062000690600e54690a968163f0a57b40000062000d406401000000000262002ced179091906401000000009004565b600a81905550620006c5600e546969e10de76676d080000062000d406401000000000262002ced179091906401000000009004565b600b8190555067016345785d8a0000600c81905550681043561a8829300000600d8190555084420190506200071460008260038401600080600062000d57640100000000026401000000009004565b6200082a600160006001600080549050038154811015156200073257fe5b906000526020600020906006020160020154600360006001600080549050038154811015156200075e57fe5b90600052602060002090600602016002015401620007a0670de0b6b3a76400006307270e0062000d046401000000000262002cb5179091906401000000009004565b620008136008620007f66064620007d9670de0b6b3a7640000600e5462000d046401000000000262002cb5179091906401000000009004565b62000d046401000000000262002cb5179091906401000000009004565b62000d406401000000000262002ced179091906401000000009004565b600162000d57640100000000026401000000009004565b620008a1600260006001600080549050038154811015156200084857fe5b906000526020600020906006020160020154600360006001600080549050038154811015156200087457fe5b90600052602060002090600602016002015401600080600062000d57640100000000026401000000009004565b620009b760036000600160008054905003815481101515620008bf57fe5b90600052602060002090600602016002015460036000600160008054905003815481101515620008eb57fe5b906000526020600020906006020160020154016200092d670de0b6b3a7640000630773594062000d046401000000000262002cb5179091906401000000009004565b620009a0600c62000983606462000966670de0b6b3a7640000600e5462000d046401000000000262002cb5179091906401000000009004565b62000d046401000000000262002cb5179091906401000000009004565b62000d406401000000000262002ced179091906401000000009004565b600162000d57640100000000026401000000009004565b62000acd60046000600160008054905003815481101515620009d557fe5b9060005260206000209060060201600201546003600060016000805490500381548110151562000a0157fe5b9060005260206000209060060201600201540162000a43670de0b6b3a7640000630773594062000d046401000000000262002cb5179091906401000000009004565b62000ab6600d62000a99606462000a7c670de0b6b3a7640000600e5462000d046401000000000262002cb5179091906401000000009004565b62000d046401000000000262002cb5179091906401000000009004565b62000d406401000000000262002ced179091906401000000009004565b600162000d57640100000000026401000000009004565b62000be36005600060016000805490500381548110151562000aeb57fe5b9060005260206000209060060201600201546003600060016000805490500381548110151562000b1757fe5b9060005260206000209060060201600201540162000b59670de0b6b3a7640000630773594062000d046401000000000262002cb5179091906401000000009004565b62000bcc600e62000baf606462000b92670de0b6b3a7640000600e5462000d046401000000000262002cb5179091906401000000009004565b62000d046401000000000262002cb5179091906401000000009004565b62000d406401000000000262002ced179091906401000000009004565b600162000d57640100000000026401000000009004565b62000cf96006600060016000805490500381548110151562000c0157fe5b9060005260206000209060060201600201546003600060016000805490500381548110151562000c2d57fe5b9060005260206000209060060201600201540162000c6f670de0b6b3a7640000630773594062000d046401000000000262002cb5179091906401000000009004565b62000ce2600f62000cc5606462000ca8670de0b6b3a7640000600e5462000d046401000000000262002cb5179091906401000000009004565b62000d046401000000000262002cb5179091906401000000009004565b62000d406401000000000262002ced179091906401000000009004565b600162000d57640100000000026401000000009004565b505050505062000fb4565b60008083141562000d19576000905062000d3a565b818302905081838281151562000d2b57fe5b0414151562000d3657fe5b8090505b92915050565b6000818381151562000d4e57fe5b04905092915050565b62000d6162000f47565b858511151562000d7057600080fd5b60008080549050111562000db857600060016000805490500381548110151562000d9657fe5b906000526020600020906006020160020154861015151562000db757600080fd5b5b868160000190600681111562000dca57fe5b9081600681111562000dd857fe5b8152505085816020018181525050848160400181815250508381606001818152505082816080018181525050818160a00190151590811515815250506000819080600181540180825580915050906001820390600052602060002090600602016000909192909190915060008201518160000160006101000a81548160ff0219169083600681111562000e6757fe5b02179055506020820151816001015560408201518160020155606082015181600301556080820151816004015560a08201518160050160006101000a81548160ff02191690831515021790555050505050505050505050565b828054600181600116156101000203166002900490600052602060002090601f016020900481019282601f1062000f0357805160ff191683800117855562000f34565b8280016001018555821562000f34579182015b8281111562000f3357825182559160200191906001019062000f16565b5b50905062000f43919062000f8c565b5090565b60c0604051908101604052806000600681111562000f6157fe5b8152602001600081526020016000815260200160008152602001600081526020016000151581525090565b62000fb191905b8082111562000fad57600081600090555060010162000f93565b5090565b90565b6131258062000fc46000396000f3006080604052600436106101ee576000357c0100000000000000000000000000000000000000000000000000000000900463ffffffff1680630425b553146101f357806306c36581146102365780631515bc2b1461026157806318160ddd146102905780631ee42bcf146102bb578063301df9dd146102e6578063313ce567146103115780634042b66f1461033c57806340582f1314610367578063521eb2731461039257806352f64681146103e957806353fe21ad146104145780636c02a931146104575780636c9789b0146104e75780636d1b229d14610516578063715018a614610543578063792d7ec31461055a5780637b61c320146105b55780637d3d65221461064557806389379640146106745780638da5cb5b1461069f5780639303b0b8146106f65780639fb160aa146107215780639fc2e24f14610764578063b64657a71461078f578063bbe8a466146107ba578063be8eef8e146107e5578063c0ee0b8a14610814578063c94e643c146108a7578063ce7f3a27146108f4578063d679677a1461091f578063e184a51514610958578063e996a3dd14610983578063ec8ac4d8146109c6578063ee84038e14610a10578063f2fde38b14610a5d578063f3fef3a314610aa0578063f556f4f714610aed578063fa89401a14610b48578063fc0c546a14610b8b575b600080fd5b3480156101ff57600080fd5b50610234600480360381019080803573ffffffffffffffffffffffffffffffffffffffff169060200190929190505050610be2565b005b34801561024257600080fd5b5061024b610d03565b6040518082815260200191505060405180910390f35b34801561026d57600080fd5b50610276610da5565b604051808215151515815260200191505060405180910390f35b34801561029c57600080fd5b506102a5610dd6565b6040518082815260200191505060405180910390f35b3480156102c757600080fd5b506102d0610ddc565b6040518082815260200191505060405180910390f35b3480156102f257600080fd5b506102fb610de2565b6040518082815260200191505060405180910390f35b34801561031d57600080fd5b50610326610e10565b6040518082815260200191505060405180910390f35b34801561034857600080fd5b50610351610e16565b6040518082815260200191505060405180910390f35b34801561037357600080fd5b5061037c610e1c565b6040518082815260200191505060405180910390f35b34801561039e57600080fd5b506103a7610e26565b604051808273ffffffffffffffffffffffffffffffffffffffff1673ffffffffffffffffffffffffffffffffffffffff16815260200191505060405180910390f35b3480156103f557600080fd5b506103fe610e4c565b6040518082815260200191505060405180910390f35b34801561042057600080fd5b50610455600480360381019080803573ffffffffffffffffffffffffffffffffffffffff169060200190929190505050610e52565b005b34801561046357600080fd5b5061046c610f73565b6040518080602001828103825283818151815260200191508051906020019080838360005b838110156104ac578082015181840152602081019050610491565b50505050905090810190601f1680156104d95780820380516001836020036101000a031916815260200191505b509250505060405180910390f35b3480156104f357600080fd5b50610514600480360381019080803515159060200190929190505050611011565b005b34801561052257600080fd5b50610541600480360381019080803590602001909291905050506110ef565b005b34801561054f57600080fd5b50610558611296565b005b34801561056657600080fd5b5061059b600480360381019080803573ffffffffffffffffffffffffffffffffffffffff16906020019092919050505061139b565b604051808215151515815260200191505060405180910390f35b3480156105c157600080fd5b506105ca6113b8565b6040518080602001828103825283818151815260200191508051906020019080838360005b8381101561060a5780820151818401526020810190506105ef565b50505050905090810190601f1680156106375780820380516001836020036101000a031916815260200191505b509250505060405180910390f35b34801561065157600080fd5b5061065a611456565b604051808215151515815260200191505060405180910390f35b34801561068057600080fd5b50610689611465565b6040518082815260200191505060405180910390f35b3480156106ab57600080fd5b506106b461146b565b604051808273ffffffffffffffffffffffffffffffffffffffff1673ffffffffffffffffffffffffffffffffffffffff16815260200191505060405180910390f35b34801561070257600080fd5b5061070b611491565b6040518082815260200191505060405180910390f35b34801561072d57600080fd5b50610762600480360381019080803573ffffffffffffffffffffffffffffffffffffffff169060200190929190505050611497565b005b34801561077057600080fd5b506107796115b8565b6040518082815260200191505060405180910390f35b34801561079b57600080fd5b506107a461161b565b6040518082815260200191505060405180910390f35b3480156107c657600080fd5b506107cf611621565b6040518082815260200191505060405180910390f35b3480156107f157600080fd5b506107fa61164f565b604051808215151515815260200191505060405180910390f35b34801561082057600080fd5b506108a5600480360381019080803573ffffffffffffffffffffffffffffffffffffffff16906020019092919080359060200190929190803590602001908201803590602001908080601f016020809104026020016040519081016040528093929190818152602001838380828437820191505050505050919291929050505061167a565b005b3480156108b357600080fd5b506108f2600480360381019080803573ffffffffffffffffffffffffffffffffffffffff1690602001909291908035906020019092919050505061195f565b005b34801561090057600080fd5b50610909611ea4565b6040518082815260200191505060405180910390f35b34801561092b57600080fd5b50610934611f46565b6040518082600681111561094457fe5b60ff16815260200191505060405180910390f35b34801561096457600080fd5b5061096d611f81565b6040518082815260200191505060405180910390f35b34801561098f57600080fd5b506109c4600480360381019080803573ffffffffffffffffffffffffffffffffffffffff169060200190929190505050611f87565b005b6109fa600480360381019080803573ffffffffffffffffffffffffffffffffffffffff1690602001909291905050506120a8565b6040518082815260200191505060405180910390f35b348015610a1c57600080fd5b50610a5b600480360381019080803573ffffffffffffffffffffffffffffffffffffffff169060200190929190803590602001909291905050506121b6565b005b348015610a6957600080fd5b50610a9e600480360381019080803573ffffffffffffffffffffffffffffffffffffffff169060200190929190505050612526565b005b348015610aac57600080fd5b50610aeb600480360381019080803573ffffffffffffffffffffffffffffffffffffffff1690602001909291908035906020019092919050505061267e565b005b348015610af957600080fd5b50610b2e600480360381019080803573ffffffffffffffffffffffffffffffffffffffff169060200190929190505050612782565b604051808215151515815260200191505060405180910390f35b348015610b5457600080fd5b50610b89600480360381019080803573ffffffffffffffffffffffffffffffffffffffff16906020019092919050505061279f565b005b348015610b9757600080fd5b50610ba061297c565b604051808273ffffffffffffffffffffffffffffffffffffffff1673ffffffffffffffffffffffffffffffffffffffff16815260200191505060405180910390f35b60006006811115610bef57fe5b6000610bf96129a2565b815481101515610c0557fe5b906000526020600020906006020160000160009054906101000a900460ff166006811115610c2f57fe5b1480610c85575060026006811115610c4357fe5b6000610c4d6129a2565b815481101515610c5957fe5b906000526020600020906006020160000160009054906101000a900460ff166006811115610c8357fe5b145b1515610c9057600080fd5b600160009054906101000a900473ffffffffffffffffffffffffffffffffffffffff1673ffffffffffffffffffffffffffffffffffffffff163373ffffffffffffffffffffffffffffffffffffffff16141515610cec57600080fd5b610d00816015612a4d90919063ffffffff16565b50565b6000610d0d61164f565b1515610d1857600080fd5b610d20610da5565b151515610d2c57600080fd5b6000610d366129a2565b815481101515610d4257fe5b906000526020600020906006020160050160009054906101000a900460ff161515610d6c57600080fd5b60016006811115610d7957fe5b610d81611f46565b6006811115610d8c57fe5b1415610d9c57600b549050610da2565b600d5490505b90565b600080600160008054905003815481101515610dbd57fe5b9060005260206000209060060201600201544211905090565b60065481565b60165481565b600080610ded6129a2565b815481101515610df957fe5b906000526020600020906006020160030154905090565b60075481565b600f5481565b6000600f54905090565b600460009054906101000a900473ffffffffffffffffffffffffffffffffffffffff1681565b60135481565b600160009054906101000a900473ffffffffffffffffffffffffffffffffffffffff1673ffffffffffffffffffffffffffffffffffffffff163373ffffffffffffffffffffffffffffffffffffffff16141515610eae57600080fd5b60006006811115610ebb57fe5b6000610ec56129a2565b815481101515610ed157fe5b906000526020600020906006020160000160009054906101000a900460ff166006811115610efb57fe5b1480610f51575060026006811115610f0f57fe5b6000610f196129a2565b815481101515610f2557fe5b906000526020600020906006020160000160009054906101000a900460ff166006811115610f4f57fe5b145b1515610f5c57600080fd5b610f70816002612aab90919063ffffffff16565b50565b60088054600181600116156101000203166002900480601f0160208091040260200160405190810160405280929190818152602001828054600181600116156101000203166002900480156110095780601f10610fde57610100808354040283529160200191611009565b820191906000526020600020905b815481529060010190602001808311610fec57829003601f168201915b505050505081565b600160009054906101000a900473ffffffffffffffffffffffffffffffffffffffff1673ffffffffffffffffffffffffffffffffffffffff163373ffffffffffffffffffffffffffffffffffffffff1614151561106d57600080fd5b601260019054906101000a900460ff1615151561108957600080fd5b611091610da5565b151561109c57600080fd5b6110a581612b09565b6001601260016101000a81548160ff0219169083151502179055507f6823b073d48d6e3a7d385eeb601452d680e74bb46afe3255a7d778f3a9b1768160405160405180910390a150565b600160009054906101000a900473ffffffffffffffffffffffffffffffffffffffff1673ffffffffffffffffffffffffffffffffffffffff163373ffffffffffffffffffffffffffffffffffffffff1614151561114b57600080fd5b600360009054906101000a900473ffffffffffffffffffffffffffffffffffffffff1673ffffffffffffffffffffffffffffffffffffffff1663b90306ad826040518263ffffffff167c010000000000000000000000000000000000000000000000000000000002815260040180828152602001915050600060405180830381600087803b1580156111dc57600080fd5b505af11580156111f0573d6000803e3d6000fd5b505050507f6ab368f832c266c8eb942b84fbcaa20aedc24a699d2a05fae2568028733b1d09333083604051808473ffffffffffffffffffffffffffffffffffffffff1673ffffffffffffffffffffffffffffffffffffffff1681526020018373ffffffffffffffffffffffffffffffffffffffff1673ffffffffffffffffffffffffffffffffffffffff168152602001828152602001935050505060405180910390a150565b600160009054906101000a900473ffffffffffffffffffffffffffffffffffffffff1673ffffffffffffffffffffffffffffffffffffffff163373ffffffffffffffffffffffffffffffffffffffff161415156112f257600080fd5b600160009054906101000a900473ffffffffffffffffffffffffffffffffffffffff1673ffffffffffffffffffffffffffffffffffffffff167ff8df31144d9c2f0f6b59d69b8b98abd5459d07f2742c4df920b25aae33c6482060405160405180910390a26000600160006101000a81548173ffffffffffffffffffffffffffffffffffffffff021916908373ffffffffffffffffffffffffffffffffffffffff160217905550565b60006113b1826002612c4090919063ffffffff16565b9050919050565b60098054600181600116156101000203166002900480601f01602080910402602001604051908101604052809291908181526020018280546001816001161561010002031660029004801561144e5780601f106114235761010080835404028352916020019161144e565b820191906000526020600020905b81548152906001019060200180831161143157829003601f168201915b505050505081565b6000600554600f541015905090565b60145481565b600160009054906101000a900473ffffffffffffffffffffffffffffffffffffffff1681565b60195481565b600160009054906101000a900473ffffffffffffffffffffffffffffffffffffffff1673ffffffffffffffffffffffffffffffffffffffff163373ffffffffffffffffffffffffffffffffffffffff161415156114f357600080fd5b6000600681111561150057fe5b600061150a6129a2565b81548110151561151657fe5b906000526020600020906006020160000160009054906101000a900460ff16600681111561154057fe5b148061159657506002600681111561155457fe5b600061155e6129a2565b81548110151561156a57fe5b906000526020600020906006020160000160009054906101000a900460ff16600681111561159457fe5b145b15156115a157600080fd5b6115b5816002612a4d90919063ffffffff16565b50565b60008060008090505b6115c96129a2565b81111515611613576116046000828154811015156115e357fe5b90600052602060002090600602016003015483612c9990919063ffffffff16565b915080806001019150506115c1565b819250505090565b60185481565b60008061162c6129a2565b81548110151561163857fe5b906000526020600020906006020160040154905090565b600080600081548110151561166057fe5b906000526020600020906006020160010154421015905090565b61168261309b565b600084826000019073ffffffffffffffffffffffffffffffffffffffff16908173ffffffffffffffffffffffffffffffffffffffff16815250508382602001818152505082826040018190525060188360008151811015156116e057fe5b9060200101517f010000000000000000000000000000000000000000000000000000000000000090047f0100000000000000000000000000000000000000000000000000000000000000027f0100000000000000000000000000000000000000000000000000000000000000900463ffffffff169060020a02601084600181518110151561176a57fe5b9060200101517f010000000000000000000000000000000000000000000000000000000000000090047f0100000000000000000000000000000000000000000000000000000000000000027f0100000000000000000000000000000000000000000000000000000000000000900463ffffffff169060020a0260088560028151811015156117f457fe5b9060200101517f010000000000000000000000000000000000000000000000000000000000000090047f0100000000000000000000000000000000000000000000000000000000000000027f0100000000000000000000000000000000000000000000000000000000000000900463ffffffff169060020a0285600381518110151561187c57fe5b9060200101517f010000000000000000000000000000000000000000000000000000000000000090047f0100000000000000000000000000000000000000000000000000000000000000027f010000000000000000000000000000000000000000000000000000000000000090040101019050807c01000000000000000000000000000000000000000000000000000000000282606001907bffffffffffffffffffffffffffffffffffffffffffffffffffffffff191690817bffffffffffffffffffffffffffffffffffffffffffffffffffffffff1916815250505050505050565b600160009054906101000a900473ffffffffffffffffffffffffffffffffffffffff1673ffffffffffffffffffffffffffffffffffffffff163373ffffffffffffffffffffffffffffffffffffffff161415156119bb57600080fd5b6119c361164f565b15156119ce57600080fd5b6119d6610da5565b1515156119e257600080fd5b600060068111156119ef57fe5b6119f7611f46565b6006811115611a0257fe5b14151515611a0f57600080fd5b60016006811115611a1c57fe5b611a24611f46565b6006811115611a2f57fe5b14151515611a3c57600080fd5b81611a4681612782565b1515611a5157600080fd5b600073ffffffffffffffffffffffffffffffffffffffff168373ffffffffffffffffffffffffffffffffffffffff1614151515611a8d57600080fd5b60008214151515611a9d57600080fd5b600654611ac9601154611abb85601654612c9990919063ffffffff16565b612c9990919063ffffffff16565b11151515611ad657600080fd5b611b2882601760008673ffffffffffffffffffffffffffffffffffffffff1673ffffffffffffffffffffffffffffffffffffffff16815260200190815260200160002054612c9990919063ffffffff16565b601760008573ffffffffffffffffffffffffffffffffffffffff1673ffffffffffffffffffffffffffffffffffffffff16815260200190815260200160002081905550611b8082601654612c9990919063ffffffff16565b601681905550600360009054906101000a900473ffffffffffffffffffffffffffffffffffffffff1673ffffffffffffffffffffffffffffffffffffffff166343af57d684611bec600a611bde600388612cb590919063ffffffff16565b612ced90919063ffffffff16565b6000600160008054905003815481101515611c0357fe5b9060005260206000209060060201600201546040518463ffffffff167c0100000000000000000000000000000000000000000000000000000000028152600401808473ffffffffffffffffffffffffffffffffffffffff1673ffffffffffffffffffffffffffffffffffffffff1681526020018381526020018281526020019350505050602060405180830381600087803b158015611ca157600080fd5b505af1158015611cb5573d6000803e3d6000fd5b505050506040513d6020811015611ccb57600080fd5b810190808051906020019092919050505050600360009054906101000a900473ffffffffffffffffffffffffffffffffffffffff1673ffffffffffffffffffffffffffffffffffffffff166343af57d684611d43600a611d35600788612cb590919063ffffffff16565b612ced90919063ffffffff16565b6301e133806000600160008054905003815481101515611d5f57fe5b906000526020600020906006020160020154016040518463ffffffff167c0100000000000000000000000000000000000000000000000000000000028152600401808473ffffffffffffffffffffffffffffffffffffffff1673ffffffffffffffffffffffffffffffffffffffff1681526020018381526020018281526020019350505050602060405180830381600087803b158015611dfe57600080fd5b505af1158015611e12573d6000803e3d6000fd5b505050506040513d6020811015611e2857600080fd5b8101908080519060200190929190505050508273ffffffffffffffffffffffffffffffffffffffff163373ffffffffffffffffffffffffffffffffffffffff167fa6e5a578d42fd913bd5bad70a2ae524a02ea5bcfa6ca06b309333095c155b84e846040518082815260200191505060405180910390a3505050565b6000611eae61164f565b1515611eb957600080fd5b611ec1610da5565b151515611ecd57600080fd5b6000611ed76129a2565b815481101515611ee357fe5b906000526020600020906006020160050160009054906101000a900460ff161515611f0d57600080fd5b60016006811115611f1a57fe5b611f22611f46565b6006811115611f2d57fe5b1415611f3d57600a549050611f43565b600c5490505b90565b600080611f516129a2565b815481101515611f5d57fe5b906000526020600020906006020160000160009054906101000a900460ff16905090565b60115481565b60006006811115611f9457fe5b6000611f9e6129a2565b815481101515611faa57fe5b906000526020600020906006020160000160009054906101000a900460ff166006811115611fd457fe5b148061202a575060026006811115611fe857fe5b6000611ff26129a2565b815481101515611ffe57fe5b906000526020600020906006020160000160009054906101000a900460ff16600681111561202857fe5b145b151561203557600080fd5b600160009054906101000a900473ffffffffffffffffffffffffffffffffffffffff1673ffffffffffffffffffffffffffffffffffffffff163373ffffffffffffffffffffffffffffffffffffffff1614151561209157600080fd5b6120a5816015612aab90919063ffffffff16565b50565b60008060006120b561164f565b15156120c057600080fd5b6120c8610da5565b1515156120d457600080fd5b60006120de6129a2565b8154811015156120ea57fe5b906000526020600020906006020160050160009054906101000a900460ff16151561211457600080fd5b34915061212082612d03565b905061212d848383612d42565b612138848383612ec6565b6121428482612f96565b8373ffffffffffffffffffffffffffffffffffffffff163373ffffffffffffffffffffffffffffffffffffffff167f623b3804fa71d67900d064613da8f94b9617215ee90799290593e1745087ad188484604051808381526020018281526020019250505060405180910390a35050919050565b600160009054906101000a900473ffffffffffffffffffffffffffffffffffffffff1673ffffffffffffffffffffffffffffffffffffffff163373ffffffffffffffffffffffffffffffffffffffff1614151561221257600080fd5b61221a61164f565b151561222557600080fd5b61222d610da5565b15151561223957600080fd5b60006122436129a2565b81548110151561224f57fe5b906000526020600020906006020160050160009054906101000a900460ff16151561227957600080fd5b600073ffffffffffffffffffffffffffffffffffffffff168273ffffffffffffffffffffffffffffffffffffffff16141515156122b557600080fd5b600081141515156122c557600080fd5b6018546122dd82601954612c9990919063ffffffff16565b111515156122ea57600080fd5b61233c81601a60008573ffffffffffffffffffffffffffffffffffffffff1673ffffffffffffffffffffffffffffffffffffffff16815260200190815260200160002054612c9990919063ffffffff16565b601a60008473ffffffffffffffffffffffffffffffffffffffff1673ffffffffffffffffffffffffffffffffffffffff1681526020019081526020016000208190555061239481601954612c9990919063ffffffff16565b601981905550600360009054906101000a900473ffffffffffffffffffffffffffffffffffffffff1673ffffffffffffffffffffffffffffffffffffffff1663a9059cbb83836040518363ffffffff167c0100000000000000000000000000000000000000000000000000000000028152600401808373ffffffffffffffffffffffffffffffffffffffff1673ffffffffffffffffffffffffffffffffffffffff16815260200182815260200192505050602060405180830381600087803b15801561245f57600080fd5b505af1158015612473573d6000803e3d6000fd5b505050506040513d602081101561248957600080fd5b8101908080519060200190929190505050508173ffffffffffffffffffffffffffffffffffffffff16600160009054906101000a900473ffffffffffffffffffffffffffffffffffffffff1673ffffffffffffffffffffffffffffffffffffffff167f3dd247ca176cfa1531a4faf4ef926c52f3201b3056f8d738306f4383fa700d04836040518082815260200191505060405180910390a35050565b600160009054906101000a900473ffffffffffffffffffffffffffffffffffffffff1673ffffffffffffffffffffffffffffffffffffffff163373ffffffffffffffffffffffffffffffffffffffff1614151561258257600080fd5b600073ffffffffffffffffffffffffffffffffffffffff168173ffffffffffffffffffffffffffffffffffffffff16141515156125be57600080fd5b8073ffffffffffffffffffffffffffffffffffffffff16600160009054906101000a900473ffffffffffffffffffffffffffffffffffffffff1673ffffffffffffffffffffffffffffffffffffffff167f8be0079c531659141344cd1fd0a4f28419497f9722a3daafe3b4186f6b6457e060405160405180910390a380600160006101000a81548173ffffffffffffffffffffffffffffffffffffffff021916908373ffffffffffffffffffffffffffffffffffffffff16021790555050565b600160009054906101000a900473ffffffffffffffffffffffffffffffffffffffff1673ffffffffffffffffffffffffffffffffffffffff163373ffffffffffffffffffffffffffffffffffffffff161415156126da57600080fd5b600073ffffffffffffffffffffffffffffffffffffffff168273ffffffffffffffffffffffffffffffffffffffff161415151561271657600080fd5b6000811415151561272657600080fd5b600f54811115151561273757600080fd5b8173ffffffffffffffffffffffffffffffffffffffff166108fc829081150290604051600060405180830381858888f1935050505015801561277d573d6000803e3d6000fd5b505050565b6000612798826015612c4090919063ffffffff16565b9050919050565b6000601260019054906101000a900460ff1615156127bc57600080fd5b600160028111156127c957fe5b601260009054906101000a900460ff1660028111156127e457fe5b1415156127f057600080fd5b6000601060008473ffffffffffffffffffffffffffffffffffffffff1673ffffffffffffffffffffffffffffffffffffffff168152602001908152602001600020541415151561283f57600080fd5b601060008373ffffffffffffffffffffffffffffffffffffffff1673ffffffffffffffffffffffffffffffffffffffff1681526020019081526020016000205490506000601060008473ffffffffffffffffffffffffffffffffffffffff1673ffffffffffffffffffffffffffffffffffffffff168152602001908152602001600020819055508173ffffffffffffffffffffffffffffffffffffffff166108fc829081150290604051600060405180830381858888f1935050505015801561290c573d6000803e3d6000fd5b507fd7dee2702d63ad89917b6a4da9981c90c4d24f8c2bdfd64c604ecae57d8d06518282604051808373ffffffffffffffffffffffffffffffffffffffff1673ffffffffffffffffffffffffffffffffffffffff1681526020018281526020019250505060405180910390a15050565b600360009054906101000a900473ffffffffffffffffffffffffffffffffffffffff1681565b6000806129ad61164f565b15156129b857600080fd5b6129c0610da5565b1515156129cc57600080fd5b600090505b600080549050811015612a48576000818154811015156129ed57fe5b9060005260206000209060060201600101544210158015612a2e5750600081815481101515612a1857fe5b9060005260206000209060060201600201544211155b15612a3b57809150612a49565b80806001019150506129d1565b5b5090565b60008260000160008373ffffffffffffffffffffffffffffffffffffffff1673ffffffffffffffffffffffffffffffffffffffff16815260200190815260200160002060006101000a81548160ff0219169083151502179055505050565b60018260000160008373ffffffffffffffffffffffffffffffffffffffff1673ffffffffffffffffffffffffffffffffffffffff16815260200190815260200160002060006101000a81548160ff0219169083151502179055505050565b60006002811115612b1657fe5b601260009054906101000a900460ff166002811115612b3157fe5b141515612b3d57600080fd5b8015612c18576002601260006101000a81548160ff02191690836002811115612b6257fe5b0217905550600460009054906101000a900473ffffffffffffffffffffffffffffffffffffffff1673ffffffffffffffffffffffffffffffffffffffff166108fc3073ffffffffffffffffffffffffffffffffffffffff16319081150290604051600060405180830381858888f19350505050158015612be6573d6000803e3d6000fd5b507f1cdde67b72a90f19919ac732a437ac2f7a10fc128d28c2a6e525d89ce5cd9d3a60405160405180910390a1612c3d565b6001601260006101000a81548160ff02191690836002811115612c3757fe5b02179055505b50565b60008260000160008373ffffffffffffffffffffffffffffffffffffffff1673ffffffffffffffffffffffffffffffffffffffff16815260200190815260200160002060009054906101000a900460ff16905092915050565b60008183019050828110151515612cac57fe5b80905092915050565b600080831415612cc85760009050612ce7565b8183029050818382811515612cd957fe5b04141515612ce357fe5b8090505b92915050565b60008183811515612cfa57fe5b04905092915050565b600080612d0e611621565b9050612d3a600754600a0a612d2c8386612cb590919063ffffffff16565b612ced90919063ffffffff16565b915050919050565b600073ffffffffffffffffffffffffffffffffffffffff168373ffffffffffffffffffffffffffffffffffffffff1614151515612d7e57600080fd5b60008214151515612d8e57600080fd5b612d966115b8565b612dab82601154612c9990919063ffffffff16565b11151515612db857600080fd5b612dc0611ea4565b612e1283601060008773ffffffffffffffffffffffffffffffffffffffff1673ffffffffffffffffffffffffffffffffffffffff16815260200190815260200160002054612c9990919063ffffffff16565b10151515612e1f57600080fd5b612e27610d03565b612e7983601060008773ffffffffffffffffffffffffffffffffffffffff1673ffffffffffffffffffffffffffffffffffffffff16815260200190815260200160002054612c9990919063ffffffff16565b11151515612e8657600080fd5b60016006811115612e9357fe5b612e9b611f46565b6006811115612ea657fe5b1415612ec157612eb58361139b565b1515612ec057600080fd5b5b505050565b612f1882601060008673ffffffffffffffffffffffffffffffffffffffff1673ffffffffffffffffffffffffffffffffffffffff16815260200190815260200160002054612c9990919063ffffffff16565b601060008573ffffffffffffffffffffffffffffffffffffffff1673ffffffffffffffffffffffffffffffffffffffff16815260200190815260200160002081905550612f7081601154612c9990919063ffffffff16565b601181905550612f8b82600f54612c9990919063ffffffff16565b600f81905550505050565b600360009054906101000a900473ffffffffffffffffffffffffffffffffffffffff1673ffffffffffffffffffffffffffffffffffffffff1663a9059cbb83836040518363ffffffff167c0100000000000000000000000000000000000000000000000000000000028152600401808373ffffffffffffffffffffffffffffffffffffffff1673ffffffffffffffffffffffffffffffffffffffff16815260200182815260200192505050602060405180830381600087803b15801561305b57600080fd5b505af115801561306f573d6000803e3d6000fd5b505050506040513d602081101561308557600080fd5b8101908080519060200190929190505050505050565b608060405190810160405280600073ffffffffffffffffffffffffffffffffffffffff168152602001600081526020016060815260200160007bffffffffffffffffffffffffffffffffffffffffffffffffffffffff1916815250905600a165627a7a72305820a5fabdcb3f41d18848e4a6cb4ebbf9b7b2d93f4a5badefaf0500a1db25c6fa170029",
  "source": "pragma solidity ^0.4.23;\r\n\r\nimport \"../crowdSale/BasicCrowdsale.sol\";\r\nimport \"../crowdSale/FinalizableCrowdsale.sol\";\r\nimport \"../crowdSale/GrantedCrowdsale.sol\";\r\nimport \"../crowdSale/RefundableCrowdsale.sol\";\r\nimport \"../crowdSale/ReferralCorwdsale.sol\";\r\nimport \"../crowdSale/tokenReceiver.sol\";\r\nimport \"../crowdSale/BurnableCrowdsale.sol\";\r\n\r\ncontract WOXCrowdsaleTest is \r\n    BasicCrowdsale,\r\n    FinalizableCrowdsale,\r\n    GrantedCrowdsale,\r\n    RefundableCrowdsale,\r\n    ReferralCrowdsale,\r\n    BurnableCrowdsale,\r\n    tokenReceiver\r\n{\r\n    constructor(\r\n        uint256 _cliff,\r\n        uint256 _USD_PER_ETH,\r\n        address _wallet,\r\n        address _tokenAddress\r\n        ) \r\n        public \r\n    {\r\n        require(_wallet != address(0));\r\n        require(_tokenAddress != address(0));\r\n        \r\n        USD_PER_ETH = _USD_PER_ETH;\r\n        wallet = _wallet;\r\n        state = State.Active;\r\n        isFinalized = false;\r\n        \r\n        token = woxToken(_tokenAddress);\r\n        totalSupply = token.totalSupply();\r\n        decimals = token.decimals();\r\n        tokenName = token.name();\r\n        tokenSymbol = token.symbol();\r\n\r\n        softcapWei = uint256(3e6).mul(1 ether).div(USD_PER_ETH);\r\n        MaxReferralTokens = uint256(30e6).mul(10 ** decimals);\r\n\r\n        minVestingWeiPreICO = uint256(50e3 ether).div(USD_PER_ETH);\r\n        maxVestingWeiPreICO = uint256(500e3 ether).div(USD_PER_ETH);\r\n        minVestingWeiICO = 0.1 ether;\r\n        maxVestingWeiICO = 300 ether;\r\n\r\n        uint256 _openingTime = now + _cliff;\r\n\r\n        addTier(\r\n            TierStates.preWhitelist,\r\n            _openingTime, \r\n            _openingTime + 3,\r\n            0, \r\n            0,\r\n            false);\r\n\r\n        addTier(\r\n            TierStates.preICO,\r\n            Tiers[Tiers.length-1].ending, \r\n            Tiers[Tiers.length-1].ending + 3, \r\n            uint256(120e6).mul(10 ** 18), \r\n            uint256(USD_PER_ETH).mul(10 ** 18).mul(100).div(8),            \r\n            true);\r\n            \r\n        addTier(\r\n            TierStates.Whitelist,\r\n            Tiers[Tiers.length-1].ending, \r\n            Tiers[Tiers.length-1].ending + 3, \r\n            0, \r\n            0, \r\n            false);\r\n            \r\n        addTier(\r\n            TierStates.ICORound1,\r\n            Tiers[Tiers.length-1].ending, \r\n            Tiers[Tiers.length-1].ending + 3, \r\n            uint256(125e6).mul(10 ** 18), \r\n            uint256(USD_PER_ETH).mul(10 ** 18).mul(100).div(12), \r\n            true);\r\n            \r\n        addTier(\r\n            TierStates.ICORound2,\r\n            Tiers[Tiers.length-1].ending, \r\n            Tiers[Tiers.length-1].ending + 3,\r\n            uint256(125e6).mul(10 ** 18), \r\n            uint256(USD_PER_ETH).mul(10 ** 18).mul(100).div(13), \r\n            true);\r\n            \r\n        addTier(\r\n            TierStates.ICORound3,\r\n            Tiers[Tiers.length-1].ending, \r\n            Tiers[Tiers.length-1].ending + 3, \r\n            uint256(125e6).mul(10 ** 18), \r\n            uint256(USD_PER_ETH).mul(10 ** 18).mul(100).div(14), \r\n            true);\r\n            \r\n        addTier(\r\n            TierStates.ICORound4,\r\n            Tiers[Tiers.length-1].ending, \r\n            Tiers[Tiers.length-1].ending + 3, \r\n            uint256(125e6).mul(10 ** 18), \r\n            uint256(USD_PER_ETH).mul(10 ** 18).mul(100).div(15), \r\n            true);\r\n    }\r\n}",
  "sourcePath": "G:\\Root\\Blockchain\\WOX\\contracts\\test\\WOXCrowdsaleTest.sol",
  "compiler": {
    "name": "solc",
    "version": "0.4.23+commit.124ca40d.Emscripten.clang"
  },
  "schemaVersion": "2.0.0",
  "updatedAt": "2018-06-27T04:37:22.709Z"
}