{
  "contractName": "WOXCrowdsale",
  "abi": [
    {
      "constant": false,
      "inputs": [
        {
          "name": "_grantee",
          "type": "address"
        }
      ],
      "name": "removeFromGrantees",
      "outputs": [],
      "payable": false,
      "stateMutability": "nonpayable",
      "type": "function"
    },
    {
      "constant": true,
      "inputs": [],
      "name": "maxVestingWei",
      "outputs": [
        {
          "name": "",
          "type": "uint256"
        }
      ],
      "payable": false,
      "stateMutability": "view",
      "type": "function"
    },
    {
      "constant": true,
      "inputs": [],
      "name": "hasClosed",
      "outputs": [
        {
          "name": "",
          "type": "bool"
        }
      ],
      "payable": false,
      "stateMutability": "view",
      "type": "function"
    },
    {
      "constant": true,
      "inputs": [],
      "name": "totalSupply",
      "outputs": [
        {
          "name": "",
          "type": "uint256"
        }
      ],
      "payable": false,
      "stateMutability": "view",
      "type": "function"
    },
    {
      "constant": true,
      "inputs": [],
      "name": "grantedTokens",
      "outputs": [
        {
          "name": "",
          "type": "uint256"
        }
      ],
      "payable": false,
      "stateMutability": "view",
      "type": "function"
    },
    {
      "constant": true,
      "inputs": [],
      "name": "currentTierHardcap",
      "outputs": [
        {
          "name": "",
          "type": "uint256"
        }
      ],
      "payable": false,
      "stateMutability": "view",
      "type": "function"
    },
    {
      "constant": true,
      "inputs": [],
      "name": "decimals",
      "outputs": [
        {
          "name": "",
          "type": "uint256"
        }
      ],
      "payable": false,
      "stateMutability": "view",
      "type": "function"
    },
    {
      "constant": true,
      "inputs": [],
      "name": "weiRaised",
      "outputs": [
        {
          "name": "",
          "type": "uint256"
        }
      ],
      "payable": false,
      "stateMutability": "view",
      "type": "function"
    },
    {
      "constant": true,
      "inputs": [],
      "name": "getWeiRaised",
      "outputs": [
        {
          "name": "",
          "type": "uint256"
        }
      ],
      "payable": false,
      "stateMutability": "view",
      "type": "function"
    },
    {
      "constant": false,
      "inputs": [],
      "name": "finalize",
      "outputs": [],
      "payable": false,
      "stateMutability": "nonpayable",
      "type": "function"
    },
    {
      "constant": true,
      "inputs": [],
      "name": "wallet",
      "outputs": [
        {
          "name": "",
          "type": "address"
        }
      ],
      "payable": false,
      "stateMutability": "view",
      "type": "function"
    },
    {
      "constant": true,
      "inputs": [],
      "name": "grantHardcapToken",
      "outputs": [
        {
          "name": "",
          "type": "uint256"
        }
      ],
      "payable": false,
      "stateMutability": "view",
      "type": "function"
    },
    {
      "constant": false,
      "inputs": [
        {
          "name": "_vc",
          "type": "address"
        }
      ],
      "name": "addToVC",
      "outputs": [],
      "payable": false,
      "stateMutability": "nonpayable",
      "type": "function"
    },
    {
      "constant": true,
      "inputs": [],
      "name": "tokenName",
      "outputs": [
        {
          "name": "",
          "type": "string"
        }
      ],
      "payable": false,
      "stateMutability": "view",
      "type": "function"
    },
    {
      "constant": false,
      "inputs": [
        {
          "name": "_burnAmount",
          "type": "uint256"
        }
      ],
      "name": "burnTokens",
      "outputs": [],
      "payable": false,
      "stateMutability": "nonpayable",
      "type": "function"
    },
    {
      "constant": false,
      "inputs": [],
      "name": "renounceOwnership",
      "outputs": [],
      "payable": false,
      "stateMutability": "nonpayable",
      "type": "function"
    },
    {
      "constant": true,
      "inputs": [
        {
          "name": "_vc",
          "type": "address"
        }
      ],
      "name": "whtielistedAsVC",
      "outputs": [
        {
          "name": "",
          "type": "bool"
        }
      ],
      "payable": false,
      "stateMutability": "view",
      "type": "function"
    },
    {
      "constant": true,
      "inputs": [],
      "name": "tokenSymbol",
      "outputs": [
        {
          "name": "",
          "type": "string"
        }
      ],
      "payable": false,
      "stateMutability": "view",
      "type": "function"
    },
    {
      "constant": true,
      "inputs": [],
      "name": "goalReached",
      "outputs": [
        {
          "name": "",
          "type": "bool"
        }
      ],
      "payable": false,
      "stateMutability": "view",
      "type": "function"
    },
    {
      "constant": true,
      "inputs": [],
      "name": "grantHardcapTokenPerEach",
      "outputs": [
        {
          "name": "",
          "type": "uint256"
        }
      ],
      "payable": false,
      "stateMutability": "view",
      "type": "function"
    },
    {
      "constant": true,
      "inputs": [],
      "name": "owner",
      "outputs": [
        {
          "name": "",
          "type": "address"
        }
      ],
      "payable": false,
      "stateMutability": "view",
      "type": "function"
    },
    {
      "constant": true,
      "inputs": [],
      "name": "referralTokens",
      "outputs": [
        {
          "name": "",
          "type": "uint256"
        }
      ],
      "payable": false,
      "stateMutability": "view",
      "type": "function"
    },
    {
      "constant": false,
      "inputs": [
        {
          "name": "_vc",
          "type": "address"
        }
      ],
      "name": "removeFromVC",
      "outputs": [],
      "payable": false,
      "stateMutability": "nonpayable",
      "type": "function"
    },
    {
      "constant": true,
      "inputs": [],
      "name": "currentSaleTokenWeiHardcap",
      "outputs": [
        {
          "name": "",
          "type": "uint256"
        }
      ],
      "payable": false,
      "stateMutability": "view",
      "type": "function"
    },
    {
      "constant": true,
      "inputs": [],
      "name": "MaxReferralTokens",
      "outputs": [
        {
          "name": "",
          "type": "uint256"
        }
      ],
      "payable": false,
      "stateMutability": "view",
      "type": "function"
    },
    {
      "constant": true,
      "inputs": [],
      "name": "currentTierTokenWeisPerEth",
      "outputs": [
        {
          "name": "",
          "type": "uint256"
        }
      ],
      "payable": false,
      "stateMutability": "view",
      "type": "function"
    },
    {
      "constant": true,
      "inputs": [],
      "name": "hasOpened",
      "outputs": [
        {
          "name": "",
          "type": "bool"
        }
      ],
      "payable": false,
      "stateMutability": "view",
      "type": "function"
    },
    {
      "constant": true,
      "inputs": [
        {
          "name": "_from",
          "type": "address"
        },
        {
          "name": "_value",
          "type": "uint256"
        },
        {
          "name": "_data",
          "type": "bytes"
        }
      ],
      "name": "tokenFallback",
      "outputs": [],
      "payable": false,
      "stateMutability": "pure",
      "type": "function"
    },
    {
      "constant": false,
      "inputs": [
        {
          "name": "_grantee",
          "type": "address"
        },
        {
          "name": "_tokenAmount",
          "type": "uint256"
        }
      ],
      "name": "grantTokens",
      "outputs": [],
      "payable": false,
      "stateMutability": "nonpayable",
      "type": "function"
    },
    {
      "constant": true,
      "inputs": [],
      "name": "minVestingWei",
      "outputs": [
        {
          "name": "",
          "type": "uint256"
        }
      ],
      "payable": false,
      "stateMutability": "view",
      "type": "function"
    },
    {
      "constant": true,
      "inputs": [],
      "name": "currentTier",
      "outputs": [
        {
          "name": "",
          "type": "uint8"
        }
      ],
      "payable": false,
      "stateMutability": "view",
      "type": "function"
    },
    {
      "constant": true,
      "inputs": [],
      "name": "tokenWeisSold",
      "outputs": [
        {
          "name": "",
          "type": "uint256"
        }
      ],
      "payable": false,
      "stateMutability": "view",
      "type": "function"
    },
    {
      "constant": false,
      "inputs": [
        {
          "name": "_grantee",
          "type": "address"
        }
      ],
      "name": "addToGrantees",
      "outputs": [],
      "payable": false,
      "stateMutability": "nonpayable",
      "type": "function"
    },
    {
      "constant": false,
      "inputs": [
        {
          "name": "_beneficiary",
          "type": "address"
        }
      ],
      "name": "buyTokens",
      "outputs": [
        {
          "name": "",
          "type": "uint256"
        }
      ],
      "payable": true,
      "stateMutability": "payable",
      "type": "function"
    },
    {
      "constant": false,
      "inputs": [
        {
          "name": "_referrer",
          "type": "address"
        },
        {
          "name": "_amount",
          "type": "uint256"
        }
      ],
      "name": "PayReferral",
      "outputs": [],
      "payable": false,
      "stateMutability": "nonpayable",
      "type": "function"
    },
    {
      "constant": false,
      "inputs": [
        {
          "name": "newOwner",
          "type": "address"
        }
      ],
      "name": "transferOwnership",
      "outputs": [],
      "payable": false,
      "stateMutability": "nonpayable",
      "type": "function"
    },
    {
      "constant": false,
      "inputs": [
        {
          "name": "_wallet",
          "type": "address"
        },
        {
          "name": "_weiAmount",
          "type": "uint256"
        }
      ],
      "name": "withdraw",
      "outputs": [],
      "payable": false,
      "stateMutability": "nonpayable",
      "type": "function"
    },
    {
      "constant": true,
      "inputs": [
        {
          "name": "_grantee",
          "type": "address"
        }
      ],
      "name": "whitelistedAsGrantee",
      "outputs": [
        {
          "name": "",
          "type": "bool"
        }
      ],
      "payable": false,
      "stateMutability": "view",
      "type": "function"
    },
    {
      "constant": false,
      "inputs": [
        {
          "name": "_investor",
          "type": "address"
        }
      ],
      "name": "refund",
      "outputs": [],
      "payable": false,
      "stateMutability": "nonpayable",
      "type": "function"
    },
    {
      "constant": true,
      "inputs": [],
      "name": "token",
      "outputs": [
        {
          "name": "",
          "type": "address"
        }
      ],
      "payable": false,
      "stateMutability": "view",
      "type": "function"
    },
    {
      "inputs": [
        {
          "name": "_cliff",
          "type": "uint256"
        },
        {
          "name": "_USD_PER_ETH",
          "type": "uint256"
        },
        {
          "name": "_wallet",
          "type": "address"
        },
        {
          "name": "_tokenAddress",
          "type": "address"
        }
      ],
      "payable": false,
      "stateMutability": "nonpayable",
      "type": "constructor"
    },
    {
      "anonymous": false,
      "inputs": [
        {
          "indexed": false,
          "name": "_burner",
          "type": "address"
        },
        {
          "indexed": false,
          "name": "_burnedFrom",
          "type": "address"
        },
        {
          "indexed": false,
          "name": "_burnAmount",
          "type": "uint256"
        }
      ],
      "name": "Burned",
      "type": "event"
    },
    {
      "anonymous": false,
      "inputs": [
        {
          "indexed": true,
          "name": "sender",
          "type": "address"
        },
        {
          "indexed": true,
          "name": "referre",
          "type": "address"
        },
        {
          "indexed": false,
          "name": "amount",
          "type": "uint256"
        }
      ],
      "name": "ReferralTokenPaid",
      "type": "event"
    },
    {
      "anonymous": false,
      "inputs": [
        {
          "indexed": false,
          "name": "_investor",
          "type": "address"
        },
        {
          "indexed": false,
          "name": "_depositedValue",
          "type": "uint256"
        }
      ],
      "name": "Refunded",
      "type": "event"
    },
    {
      "anonymous": false,
      "inputs": [
        {
          "indexed": true,
          "name": "sender",
          "type": "address"
        },
        {
          "indexed": true,
          "name": "grantee",
          "type": "address"
        },
        {
          "indexed": false,
          "name": "amount",
          "type": "uint256"
        }
      ],
      "name": "TokenGranted",
      "type": "event"
    },
    {
      "anonymous": false,
      "inputs": [],
      "name": "Finalized",
      "type": "event"
    },
    {
      "anonymous": false,
      "inputs": [],
      "name": "Closed",
      "type": "event"
    },
    {
      "anonymous": false,
      "inputs": [
        {
          "indexed": true,
          "name": "purchaser",
          "type": "address"
        },
        {
          "indexed": true,
          "name": "beneficiary",
          "type": "address"
        },
        {
          "indexed": false,
          "name": "value",
          "type": "uint256"
        },
        {
          "indexed": false,
          "name": "amount",
          "type": "uint256"
        }
      ],
      "name": "TokenPurchase",
      "type": "event"
    },
    {
      "anonymous": false,
      "inputs": [
        {
          "indexed": true,
          "name": "previousOwner",
          "type": "address"
        }
      ],
      "name": "OwnershipRenounced",
      "type": "event"
    },
    {
      "anonymous": false,
      "inputs": [
        {
          "indexed": true,
          "name": "previousOwner",
          "type": "address"
        },
        {
          "indexed": true,
          "name": "newOwner",
          "type": "address"
        }
      ],
      "name": "OwnershipTransferred",
      "type": "event"
    },
    {
      "constant": false,
      "inputs": [
        {
          "name": "_usd_eth",
          "type": "uint256"
        }
      ],
      "name": "updatePricing",
      "outputs": [],
      "payable": false,
      "stateMutability": "nonpayable",
      "type": "function"
    }
  ],
  "bytecode": "0x60806040523480156200001157600080fd5b506040516080806200449d83398101806040528101908080519060200190929190805190602001909291908051906020019092919080519060200190929190505050600033600160006101000a81548173ffffffffffffffffffffffffffffffffffffffff021916908373ffffffffffffffffffffffffffffffffffffffff160217905550600073ffffffffffffffffffffffffffffffffffffffff168373ffffffffffffffffffffffffffffffffffffffff1614151515620000d357600080fd5b600073ffffffffffffffffffffffffffffffffffffffff168273ffffffffffffffffffffffffffffffffffffffff16141515156200011057600080fd5b83600e8190555082600460006101000a81548173ffffffffffffffffffffffffffffffffffffffff021916908373ffffffffffffffffffffffffffffffffffffffff1602179055506000601260006101000a81548160ff021916908360028111156200017857fe5b02179055506000601260016101000a81548160ff02191690831515021790555081600360006101000a81548173ffffffffffffffffffffffffffffffffffffffff021916908373ffffffffffffffffffffffffffffffffffffffff160217905550600360009054906101000a900473ffffffffffffffffffffffffffffffffffffffff1673ffffffffffffffffffffffffffffffffffffffff166318160ddd6040518163ffffffff167c0100000000000000000000000000000000000000000000000000000000028152600401602060405180830381600087803b1580156200026057600080fd5b505af115801562000275573d6000803e3d6000fd5b505050506040513d60208110156200028c57600080fd5b8101908080519060200190929190505050600681905550600360009054906101000a900473ffffffffffffffffffffffffffffffffffffffff1673ffffffffffffffffffffffffffffffffffffffff1663313ce5676040518163ffffffff167c0100000000000000000000000000000000000000000000000000000000028152600401602060405180830381600087803b1580156200032a57600080fd5b505af11580156200033f573d6000803e3d6000fd5b505050506040513d60208110156200035657600080fd5b8101908080519060200190929190505050600781905550600360009054906101000a900473ffffffffffffffffffffffffffffffffffffffff1673ffffffffffffffffffffffffffffffffffffffff166306fdde036040518163ffffffff167c0100000000000000000000000000000000000000000000000000000000028152600401600060405180830381600087803b158015620003f457600080fd5b505af115801562000409573d6000803e3d6000fd5b505050506040513d6000823e3d601f19601f8201168201806040525060208110156200043457600080fd5b8101908080516401000000008111156200044d57600080fd5b828101905060208101848111156200046457600080fd5b81518560018202830111640100000000821117156200048257600080fd5b505092919050505060089080519060200190620004a192919062000f3b565b50600360009054906101000a900473ffffffffffffffffffffffffffffffffffffffff1673ffffffffffffffffffffffffffffffffffffffff166395d89b416040518163ffffffff167c0100000000000000000000000000000000000000000000000000000000028152600401600060405180830381600087803b1580156200052957600080fd5b505af11580156200053e573d6000803e3d6000fd5b505050506040513d6000823e3d601f19601f8201168201806040525060208110156200056957600080fd5b8101908080516401000000008111156200058257600080fd5b828101905060208101848111156200059957600080fd5b8151856001820283011164010000000082111715620005b757600080fd5b505092919050505060099080519060200190620005d692919062000f3b565b5062000629600e546200060c670de0b6b3a7640000622dc6c062000d7f6401000000000262002dde179091906401000000009004565b62000dbb6401000000000262002e16179091906401000000009004565b600581905550620006a1606462000684600362000667600754600a0a6324f4730062000d7f6401000000000262002dde179091906401000000009004565b62000d7f6401000000000262002dde179091906401000000009004565b62000dbb6401000000000262002e16179091906401000000009004565b601881905550620006f8600e54620006db670de0b6b3a764000061c35062000d7f6401000000000262002dde179091906401000000009004565b62000dbb6401000000000262002e16179091906401000000009004565b600a8190555062000750600e5462000733670de0b6b3a7640000620f424062000d7f6401000000000262002dde179091906401000000009004565b62000dbb6401000000000262002e16179091906401000000009004565b600b8190555067016345785d8a0000600c81905550681043561a8829300000600d819055508442019050620007a1600082620d2f008401600080600062000dd2640100000000026401000000009004565b620008b360016000600160008054905003815481101515620007bf57fe5b90600052602060002090600602016002015462278d006000600160008054905003815481101515620007ed57fe5b906000526020600020906006020160020154016200082c600754600a0a6307270e0062000d7f6401000000000262002dde179091906401000000009004565b6200089c60086200087f606462000862600754600a0a600e5462000d7f6401000000000262002dde179091906401000000009004565b62000d7f6401000000000262002dde179091906401000000009004565b62000dbb6401000000000262002e16179091906401000000009004565b600162000dd2640100000000026401000000009004565b6200092c60026000600160008054905003815481101515620008d157fe5b906000526020600020906006020160020154620d2f006000600160008054905003815481101515620008ff57fe5b90600052602060002090600602016002015401600080600062000dd2640100000000026401000000009004565b62000a3e600360006001600080549050038154811015156200094a57fe5b90600052602060002090600602016002015462093a8060006001600080549050038154811015156200097857fe5b90600052602060002090600602016002015401620009b7600754600a0a630773594062000d7f6401000000000262002dde179091906401000000009004565b62000a27600c62000a0a6064620009ed600754600a0a600e5462000d7f6401000000000262002dde179091906401000000009004565b62000d7f6401000000000262002dde179091906401000000009004565b62000dbb6401000000000262002e16179091906401000000009004565b600162000dd2640100000000026401000000009004565b62000b506004600060016000805490500381548110151562000a5c57fe5b90600052602060002090600602016002015462093a80600060016000805490500381548110151562000a8a57fe5b9060005260206000209060060201600201540162000ac9600754600a0a630773594062000d7f6401000000000262002dde179091906401000000009004565b62000b39600d62000b1c606462000aff600754600a0a600e5462000d7f6401000000000262002dde179091906401000000009004565b62000d7f6401000000000262002dde179091906401000000009004565b62000dbb6401000000000262002e16179091906401000000009004565b600162000dd2640100000000026401000000009004565b62000c626005600060016000805490500381548110151562000b6e57fe5b90600052602060002090600602016002015462093a80600060016000805490500381548110151562000b9c57fe5b9060005260206000209060060201600201540162000bdb600754600a0a630773594062000d7f6401000000000262002dde179091906401000000009004565b62000c4b600e62000c2e606462000c11600754600a0a600e5462000d7f6401000000000262002dde179091906401000000009004565b62000d7f6401000000000262002dde179091906401000000009004565b62000dbb6401000000000262002e16179091906401000000009004565b600162000dd2640100000000026401000000009004565b62000d746006600060016000805490500381548110151562000c8057fe5b90600052602060002090600602016002015462093a80600060016000805490500381548110151562000cae57fe5b9060005260206000209060060201600201540162000ced600754600a0a630773594062000d7f6401000000000262002dde179091906401000000009004565b62000d5d600f62000d40606462000d23600754600a0a600e5462000d7f6401000000000262002dde179091906401000000009004565b62000d7f6401000000000262002dde179091906401000000009004565b62000dbb6401000000000262002e16179091906401000000009004565b600162000dd2640100000000026401000000009004565b50505050506200102f565b60008083141562000d94576000905062000db5565b818302905081838281151562000da657fe5b0414151562000db157fe5b8090505b92915050565b6000818381151562000dc957fe5b04905092915050565b62000ddc62000fc2565b858511151562000deb57600080fd5b60008080549050111562000e3357600060016000805490500381548110151562000e1157fe5b906000526020600020906006020160020154861015151562000e3257600080fd5b5b868160000190600681111562000e4557fe5b9081600681111562000e5357fe5b8152505085816020018181525050848160400181815250508381606001818152505082816080018181525050818160a00190151590811515815250506000819080600181540180825580915050906001820390600052602060002090600602016000909192909190915060008201518160000160006101000a81548160ff0219169083600681111562000ee257fe5b02179055506020820151816001015560408201518160020155606082015181600301556080820151816004015560a08201518160050160006101000a81548160ff02191690831515021790555050505050505050505050565b828054600181600116156101000203166002900490600052602060002090601f016020900481019282601f1062000f7e57805160ff191683800117855562000faf565b8280016001018555821562000faf579182015b8281111562000fae57825182559160200191906001019062000f91565b5b50905062000fbe919062001007565b5090565b60c0604051908101604052806000600681111562000fdc57fe5b8152602001600081526020016000815260200160008152602001600081526020016000151581525090565b6200102c91905b80821115620010285760008160009055506001016200100e565b5090565b90565b61345e806200103f6000396000f3006080604052600436106101f9576000357c0100000000000000000000000000000000000000000000000000000000900463ffffffff1680630425b553146101fe57806306c36581146102415780631515bc2b1461026c57806318160ddd1461029b5780631ee42bcf146102c6578063301df9dd146102f1578063313ce5671461031c5780634042b66f1461034757806340582f131461037257806348cedf851461039d5780634bb278f3146103ca578063521eb273146103e157806352f646811461043857806353fe21ad146104635780636c02a931146104a65780636d1b229d14610536578063715018a614610563578063792d7ec31461057a5780637b61c320146105d55780637d3d65221461066557806389379640146106945780638da5cb5b146106bf5780639303b0b8146107165780639fb160aa146107415780639fc2e24f14610784578063b64657a7146107af578063bbe8a466146107da578063be8eef8e14610805578063c0ee0b8a14610834578063c94e643c146108c7578063ce7f3a2714610914578063d679677a1461093f578063e184a51514610978578063e996a3dd146109a3578063ec8ac4d8146109e6578063ee84038e14610a30578063f2fde38b14610a7d578063f3fef3a314610ac0578063f556f4f714610b0d578063fa89401a14610b68578063fc0c546a14610bab575b600080fd5b34801561020a57600080fd5b5061023f600480360381019080803573ffffffffffffffffffffffffffffffffffffffff169060200190929190505050610c02565b005b34801561024d57600080fd5b50610256610d23565b6040518082815260200191505060405180910390f35b34801561027857600080fd5b50610281610dc5565b604051808215151515815260200191505060405180910390f35b3480156102a757600080fd5b506102b0610df6565b6040518082815260200191505060405180910390f35b3480156102d257600080fd5b506102db610dfc565b6040518082815260200191505060405180910390f35b3480156102fd57600080fd5b50610306610e02565b6040518082815260200191505060405180910390f35b34801561032857600080fd5b50610331610e30565b6040518082815260200191505060405180910390f35b34801561035357600080fd5b5061035c610e36565b6040518082815260200191505060405180910390f35b34801561037e57600080fd5b50610387610e3c565b6040518082815260200191505060405180910390f35b3480156103a957600080fd5b506103c860048036038101908080359060200190929190505050610e46565b005b3480156103d657600080fd5b506103df61115b565b005b3480156103ed57600080fd5b506103f6611237565b604051808273ffffffffffffffffffffffffffffffffffffffff1673ffffffffffffffffffffffffffffffffffffffff16815260200191505060405180910390f35b34801561044457600080fd5b5061044d61125d565b6040518082815260200191505060405180910390f35b34801561046f57600080fd5b506104a4600480360381019080803573ffffffffffffffffffffffffffffffffffffffff169060200190929190505050611263565b005b3480156104b257600080fd5b506104bb611384565b6040518080602001828103825283818151815260200191508051906020019080838360005b838110156104fb5780820151818401526020810190506104e0565b50505050905090810190601f1680156105285780820380516001836020036101000a031916815260200191505b509250505060405180910390f35b34801561054257600080fd5b5061056160048036038101908080359060200190929190505050611422565b005b34801561056f57600080fd5b506105786115c9565b005b34801561058657600080fd5b506105bb600480360381019080803573ffffffffffffffffffffffffffffffffffffffff1690602001909291905050506116ce565b604051808215151515815260200191505060405180910390f35b3480156105e157600080fd5b506105ea6116eb565b6040518080602001828103825283818151815260200191508051906020019080838360005b8381101561062a57808201518184015260208101905061060f565b50505050905090810190601f1680156106575780820380516001836020036101000a031916815260200191505b509250505060405180910390f35b34801561067157600080fd5b5061067a611789565b604051808215151515815260200191505060405180910390f35b3480156106a057600080fd5b506106a9611798565b6040518082815260200191505060405180910390f35b3480156106cb57600080fd5b506106d461179e565b604051808273ffffffffffffffffffffffffffffffffffffffff1673ffffffffffffffffffffffffffffffffffffffff16815260200191505060405180910390f35b34801561072257600080fd5b5061072b6117c4565b6040518082815260200191505060405180910390f35b34801561074d57600080fd5b50610782600480360381019080803573ffffffffffffffffffffffffffffffffffffffff1690602001909291905050506117ca565b005b34801561079057600080fd5b506107996118eb565b6040518082815260200191505060405180910390f35b3480156107bb57600080fd5b506107c461194e565b6040518082815260200191505060405180910390f35b3480156107e657600080fd5b506107ef611954565b6040518082815260200191505060405180910390f35b34801561081157600080fd5b5061081a611982565b604051808215151515815260200191505060405180910390f35b34801561084057600080fd5b506108c5600480360381019080803573ffffffffffffffffffffffffffffffffffffffff16906020019092919080359060200190929190803590602001908201803590602001908080601f01602080910402602001604051908101604052809392919081815260200183838082843782019150505050505091929192905050506119ad565b005b3480156108d357600080fd5b50610912600480360381019080803573ffffffffffffffffffffffffffffffffffffffff16906020019092919080359060200190929190505050611c92565b005b34801561092057600080fd5b506109296121d7565b6040518082815260200191505060405180910390f35b34801561094b57600080fd5b50610954612279565b6040518082600681111561096457fe5b60ff16815260200191505060405180910390f35b34801561098457600080fd5b5061098d6122b4565b6040518082815260200191505060405180910390f35b3480156109af57600080fd5b506109e4600480360381019080803573ffffffffffffffffffffffffffffffffffffffff1690602001909291905050506122ba565b005b610a1a600480360381019080803573ffffffffffffffffffffffffffffffffffffffff1690602001909291905050506123db565b6040518082815260200191505060405180910390f35b348015610a3c57600080fd5b50610a7b600480360381019080803573ffffffffffffffffffffffffffffffffffffffff169060200190929190803590602001909291905050506124e9565b005b348015610a8957600080fd5b50610abe600480360381019080803573ffffffffffffffffffffffffffffffffffffffff169060200190929190505050612859565b005b348015610acc57600080fd5b50610b0b600480360381019080803573ffffffffffffffffffffffffffffffffffffffff169060200190929190803590602001909291905050506129b1565b005b348015610b1957600080fd5b50610b4e600480360381019080803573ffffffffffffffffffffffffffffffffffffffff169060200190929190505050612ab5565b604051808215151515815260200191505060405180910390f35b348015610b7457600080fd5b50610ba9600480360381019080803573ffffffffffffffffffffffffffffffffffffffff169060200190929190505050612ad2565b005b348015610bb757600080fd5b50610bc0612caf565b604051808273ffffffffffffffffffffffffffffffffffffffff1673ffffffffffffffffffffffffffffffffffffffff16815260200191505060405180910390f35b60006006811115610c0f57fe5b6000610c19612cd5565b815481101515610c2557fe5b906000526020600020906006020160000160009054906101000a900460ff166006811115610c4f57fe5b1480610ca5575060026006811115610c6357fe5b6000610c6d612cd5565b815481101515610c7957fe5b906000526020600020906006020160000160009054906101000a900460ff166006811115610ca357fe5b145b1515610cb057600080fd5b600160009054906101000a900473ffffffffffffffffffffffffffffffffffffffff1673ffffffffffffffffffffffffffffffffffffffff163373ffffffffffffffffffffffffffffffffffffffff16141515610d0c57600080fd5b610d20816015612d8090919063ffffffff16565b50565b6000610d2d611982565b1515610d3857600080fd5b610d40610dc5565b151515610d4c57600080fd5b6000610d56612cd5565b815481101515610d6257fe5b906000526020600020906006020160050160009054906101000a900460ff161515610d8c57600080fd5b60016006811115610d9957fe5b610da1612279565b6006811115610dac57fe5b1415610dbc57600b549050610dc2565b600d5490505b90565b600080600160008054905003815481101515610ddd57fe5b9060005260206000209060060201600201544211905090565b60065481565b60165481565b600080610e0d612cd5565b815481101515610e1957fe5b906000526020600020906006020160030154905090565b60075481565b600f5481565b6000600f54905090565b600160009054906101000a900473ffffffffffffffffffffffffffffffffffffffff1673ffffffffffffffffffffffffffffffffffffffff163373ffffffffffffffffffffffffffffffffffffffff16141515610ea257600080fd5b600081111515610eb157600080fd5b80600e81905550610eea600e54610edc670de0b6b3a7640000622dc6c0612dde90919063ffffffff16565b612e1690919063ffffffff16565b600581905550610f21600e54610f13670de0b6b3a764000061c350612dde90919063ffffffff16565b612e1690919063ffffffff16565b600a81905550610f59600e54610f4b670de0b6b3a7640000620f4240612dde90919063ffffffff16565b612e1690919063ffffffff16565b600b81905550610f9f6008610f916064610f83600754600a0a600e54612dde90919063ffffffff16565b612dde90919063ffffffff16565b612e1690919063ffffffff16565b60006001815481101515610faf57fe5b906000526020600020906006020160040181905550611004600c610ff66064610fe8600754600a0a600e54612dde90919063ffffffff16565b612dde90919063ffffffff16565b612e1690919063ffffffff16565b6000600381548110151561101457fe5b906000526020600020906006020160040181905550611069600d61105b606461104d600754600a0a600e54612dde90919063ffffffff16565b612dde90919063ffffffff16565b612e1690919063ffffffff16565b6000600481548110151561107957fe5b9060005260206000209060060201600401819055506110ce600e6110c060646110b2600754600a0a600e54612dde90919063ffffffff16565b612dde90919063ffffffff16565b612e1690919063ffffffff16565b600060058154811015156110de57fe5b906000526020600020906006020160040181905550611133600f6111256064611117600754600a0a600e54612dde90919063ffffffff16565b612dde90919063ffffffff16565b612e1690919063ffffffff16565b6000600681548110151561114357fe5b90600052602060002090600602016004018190555050565b600160009054906101000a900473ffffffffffffffffffffffffffffffffffffffff1673ffffffffffffffffffffffffffffffffffffffff163373ffffffffffffffffffffffffffffffffffffffff161415156111b757600080fd5b601260019054906101000a900460ff161515156111d357600080fd5b6111db610dc5565b15156111e657600080fd5b6111ee612e2c565b6001601260016101000a81548160ff0219169083151502179055507f6823b073d48d6e3a7d385eeb601452d680e74bb46afe3255a7d778f3a9b1768160405160405180910390a1565b600460009054906101000a900473ffffffffffffffffffffffffffffffffffffffff1681565b60135481565b600160009054906101000a900473ffffffffffffffffffffffffffffffffffffffff1673ffffffffffffffffffffffffffffffffffffffff163373ffffffffffffffffffffffffffffffffffffffff161415156112bf57600080fd5b600060068111156112cc57fe5b60006112d6612cd5565b8154811015156112e257fe5b906000526020600020906006020160000160009054906101000a900460ff16600681111561130c57fe5b148061136257506002600681111561132057fe5b600061132a612cd5565b81548110151561133657fe5b906000526020600020906006020160000160009054906101000a900460ff16600681111561136057fe5b145b151561136d57600080fd5b611381816002612f6990919063ffffffff16565b50565b60088054600181600116156101000203166002900480601f01602080910402602001604051908101604052809291908181526020018280546001816001161561010002031660029004801561141a5780601f106113ef5761010080835404028352916020019161141a565b820191906000526020600020905b8154815290600101906020018083116113fd57829003601f168201915b505050505081565b600160009054906101000a900473ffffffffffffffffffffffffffffffffffffffff1673ffffffffffffffffffffffffffffffffffffffff163373ffffffffffffffffffffffffffffffffffffffff1614151561147e57600080fd5b600360009054906101000a900473ffffffffffffffffffffffffffffffffffffffff1673ffffffffffffffffffffffffffffffffffffffff1663b90306ad826040518263ffffffff167c010000000000000000000000000000000000000000000000000000000002815260040180828152602001915050600060405180830381600087803b15801561150f57600080fd5b505af1158015611523573d6000803e3d6000fd5b505050507f6ab368f832c266c8eb942b84fbcaa20aedc24a699d2a05fae2568028733b1d09333083604051808473ffffffffffffffffffffffffffffffffffffffff1673ffffffffffffffffffffffffffffffffffffffff1681526020018373ffffffffffffffffffffffffffffffffffffffff1673ffffffffffffffffffffffffffffffffffffffff168152602001828152602001935050505060405180910390a150565b600160009054906101000a900473ffffffffffffffffffffffffffffffffffffffff1673ffffffffffffffffffffffffffffffffffffffff163373ffffffffffffffffffffffffffffffffffffffff1614151561162557600080fd5b600160009054906101000a900473ffffffffffffffffffffffffffffffffffffffff1673ffffffffffffffffffffffffffffffffffffffff167ff8df31144d9c2f0f6b59d69b8b98abd5459d07f2742c4df920b25aae33c6482060405160405180910390a26000600160006101000a81548173ffffffffffffffffffffffffffffffffffffffff021916908373ffffffffffffffffffffffffffffffffffffffff160217905550565b60006116e4826002612fc790919063ffffffff16565b9050919050565b60098054600181600116156101000203166002900480601f0160208091040260200160405190810160405280929190818152602001828054600181600116156101000203166002900480156117815780601f1061175657610100808354040283529160200191611781565b820191906000526020600020905b81548152906001019060200180831161176457829003601f168201915b505050505081565b6000600554600f541015905090565b60145481565b600160009054906101000a900473ffffffffffffffffffffffffffffffffffffffff1681565b60195481565b600160009054906101000a900473ffffffffffffffffffffffffffffffffffffffff1673ffffffffffffffffffffffffffffffffffffffff163373ffffffffffffffffffffffffffffffffffffffff1614151561182657600080fd5b6000600681111561183357fe5b600061183d612cd5565b81548110151561184957fe5b906000526020600020906006020160000160009054906101000a900460ff16600681111561187357fe5b14806118c957506002600681111561188757fe5b6000611891612cd5565b81548110151561189d57fe5b906000526020600020906006020160000160009054906101000a900460ff1660068111156118c757fe5b145b15156118d457600080fd5b6118e8816002612d8090919063ffffffff16565b50565b60008060008090505b6118fc612cd5565b811115156119465761193760008281548110151561191657fe5b9060005260206000209060060201600301548361302090919063ffffffff16565b915080806001019150506118f4565b819250505090565b60185481565b60008061195f612cd5565b81548110151561196b57fe5b906000526020600020906006020160040154905090565b600080600081548110151561199357fe5b906000526020600020906006020160010154421015905090565b6119b56133d4565b600084826000019073ffffffffffffffffffffffffffffffffffffffff16908173ffffffffffffffffffffffffffffffffffffffff1681525050838260200181815250508282604001819052506018836000815181101515611a1357fe5b9060200101517f010000000000000000000000000000000000000000000000000000000000000090047f0100000000000000000000000000000000000000000000000000000000000000027f0100000000000000000000000000000000000000000000000000000000000000900463ffffffff169060020a026010846001815181101515611a9d57fe5b9060200101517f010000000000000000000000000000000000000000000000000000000000000090047f0100000000000000000000000000000000000000000000000000000000000000027f0100000000000000000000000000000000000000000000000000000000000000900463ffffffff169060020a026008856002815181101515611b2757fe5b9060200101517f010000000000000000000000000000000000000000000000000000000000000090047f0100000000000000000000000000000000000000000000000000000000000000027f0100000000000000000000000000000000000000000000000000000000000000900463ffffffff169060020a02856003815181101515611baf57fe5b9060200101517f010000000000000000000000000000000000000000000000000000000000000090047f0100000000000000000000000000000000000000000000000000000000000000027f010000000000000000000000000000000000000000000000000000000000000090040101019050807c01000000000000000000000000000000000000000000000000000000000282606001907bffffffffffffffffffffffffffffffffffffffffffffffffffffffff191690817bffffffffffffffffffffffffffffffffffffffffffffffffffffffff1916815250505050505050565b600160009054906101000a900473ffffffffffffffffffffffffffffffffffffffff1673ffffffffffffffffffffffffffffffffffffffff163373ffffffffffffffffffffffffffffffffffffffff16141515611cee57600080fd5b611cf6611982565b1515611d0157600080fd5b611d09610dc5565b151515611d1557600080fd5b60006006811115611d2257fe5b611d2a612279565b6006811115611d3557fe5b14151515611d4257600080fd5b60016006811115611d4f57fe5b611d57612279565b6006811115611d6257fe5b14151515611d6f57600080fd5b81611d7981612ab5565b1515611d8457600080fd5b600073ffffffffffffffffffffffffffffffffffffffff168373ffffffffffffffffffffffffffffffffffffffff1614151515611dc057600080fd5b60008214151515611dd057600080fd5b600654611dfc601154611dee8560165461302090919063ffffffff16565b61302090919063ffffffff16565b11151515611e0957600080fd5b611e5b82601760008673ffffffffffffffffffffffffffffffffffffffff1673ffffffffffffffffffffffffffffffffffffffff1681526020019081526020016000205461302090919063ffffffff16565b601760008573ffffffffffffffffffffffffffffffffffffffff1673ffffffffffffffffffffffffffffffffffffffff16815260200190815260200160002081905550611eb38260165461302090919063ffffffff16565b601681905550600360009054906101000a900473ffffffffffffffffffffffffffffffffffffffff1673ffffffffffffffffffffffffffffffffffffffff166343af57d684611f1f600a611f11600388612dde90919063ffffffff16565b612e1690919063ffffffff16565b6000600160008054905003815481101515611f3657fe5b9060005260206000209060060201600201546040518463ffffffff167c0100000000000000000000000000000000000000000000000000000000028152600401808473ffffffffffffffffffffffffffffffffffffffff1673ffffffffffffffffffffffffffffffffffffffff1681526020018381526020018281526020019350505050602060405180830381600087803b158015611fd457600080fd5b505af1158015611fe8573d6000803e3d6000fd5b505050506040513d6020811015611ffe57600080fd5b810190808051906020019092919050505050600360009054906101000a900473ffffffffffffffffffffffffffffffffffffffff1673ffffffffffffffffffffffffffffffffffffffff166343af57d684612076600a612068600788612dde90919063ffffffff16565b612e1690919063ffffffff16565b6301e13380600060016000805490500381548110151561209257fe5b906000526020600020906006020160020154016040518463ffffffff167c0100000000000000000000000000000000000000000000000000000000028152600401808473ffffffffffffffffffffffffffffffffffffffff1673ffffffffffffffffffffffffffffffffffffffff1681526020018381526020018281526020019350505050602060405180830381600087803b15801561213157600080fd5b505af1158015612145573d6000803e3d6000fd5b505050506040513d602081101561215b57600080fd5b8101908080519060200190929190505050508273ffffffffffffffffffffffffffffffffffffffff163373ffffffffffffffffffffffffffffffffffffffff167fa6e5a578d42fd913bd5bad70a2ae524a02ea5bcfa6ca06b309333095c155b84e846040518082815260200191505060405180910390a3505050565b60006121e1611982565b15156121ec57600080fd5b6121f4610dc5565b15151561220057600080fd5b600061220a612cd5565b81548110151561221657fe5b906000526020600020906006020160050160009054906101000a900460ff16151561224057600080fd5b6001600681111561224d57fe5b612255612279565b600681111561226057fe5b141561227057600a549050612276565b600c5490505b90565b600080612284612cd5565b81548110151561229057fe5b906000526020600020906006020160000160009054906101000a900460ff16905090565b60115481565b600060068111156122c757fe5b60006122d1612cd5565b8154811015156122dd57fe5b906000526020600020906006020160000160009054906101000a900460ff16600681111561230757fe5b148061235d57506002600681111561231b57fe5b6000612325612cd5565b81548110151561233157fe5b906000526020600020906006020160000160009054906101000a900460ff16600681111561235b57fe5b145b151561236857600080fd5b600160009054906101000a900473ffffffffffffffffffffffffffffffffffffffff1673ffffffffffffffffffffffffffffffffffffffff163373ffffffffffffffffffffffffffffffffffffffff161415156123c457600080fd5b6123d8816015612f6990919063ffffffff16565b50565b60008060006123e8611982565b15156123f357600080fd5b6123fb610dc5565b15151561240757600080fd5b6000612411612cd5565b81548110151561241d57fe5b906000526020600020906006020160050160009054906101000a900460ff16151561244757600080fd5b3491506124538261303c565b905061246084838361307b565b61246b8483836131ff565b61247584826132cf565b8373ffffffffffffffffffffffffffffffffffffffff163373ffffffffffffffffffffffffffffffffffffffff167f623b3804fa71d67900d064613da8f94b9617215ee90799290593e1745087ad188484604051808381526020018281526020019250505060405180910390a35050919050565b600160009054906101000a900473ffffffffffffffffffffffffffffffffffffffff1673ffffffffffffffffffffffffffffffffffffffff163373ffffffffffffffffffffffffffffffffffffffff1614151561254557600080fd5b61254d611982565b151561255857600080fd5b612560610dc5565b15151561256c57600080fd5b6000612576612cd5565b81548110151561258257fe5b906000526020600020906006020160050160009054906101000a900460ff1615156125ac57600080fd5b600073ffffffffffffffffffffffffffffffffffffffff168273ffffffffffffffffffffffffffffffffffffffff16141515156125e857600080fd5b600081141515156125f857600080fd5b6018546126108260195461302090919063ffffffff16565b1115151561261d57600080fd5b61266f81601a60008573ffffffffffffffffffffffffffffffffffffffff1673ffffffffffffffffffffffffffffffffffffffff1681526020019081526020016000205461302090919063ffffffff16565b601a60008473ffffffffffffffffffffffffffffffffffffffff1673ffffffffffffffffffffffffffffffffffffffff168152602001908152602001600020819055506126c78160195461302090919063ffffffff16565b601981905550600360009054906101000a900473ffffffffffffffffffffffffffffffffffffffff1673ffffffffffffffffffffffffffffffffffffffff1663a9059cbb83836040518363ffffffff167c0100000000000000000000000000000000000000000000000000000000028152600401808373ffffffffffffffffffffffffffffffffffffffff1673ffffffffffffffffffffffffffffffffffffffff16815260200182815260200192505050602060405180830381600087803b15801561279257600080fd5b505af11580156127a6573d6000803e3d6000fd5b505050506040513d60208110156127bc57600080fd5b8101908080519060200190929190505050508173ffffffffffffffffffffffffffffffffffffffff16600160009054906101000a900473ffffffffffffffffffffffffffffffffffffffff1673ffffffffffffffffffffffffffffffffffffffff167f3dd247ca176cfa1531a4faf4ef926c52f3201b3056f8d738306f4383fa700d04836040518082815260200191505060405180910390a35050565b600160009054906101000a900473ffffffffffffffffffffffffffffffffffffffff1673ffffffffffffffffffffffffffffffffffffffff163373ffffffffffffffffffffffffffffffffffffffff161415156128b557600080fd5b600073ffffffffffffffffffffffffffffffffffffffff168173ffffffffffffffffffffffffffffffffffffffff16141515156128f157600080fd5b8073ffffffffffffffffffffffffffffffffffffffff16600160009054906101000a900473ffffffffffffffffffffffffffffffffffffffff1673ffffffffffffffffffffffffffffffffffffffff167f8be0079c531659141344cd1fd0a4f28419497f9722a3daafe3b4186f6b6457e060405160405180910390a380600160006101000a81548173ffffffffffffffffffffffffffffffffffffffff021916908373ffffffffffffffffffffffffffffffffffffffff16021790555050565b600160009054906101000a900473ffffffffffffffffffffffffffffffffffffffff1673ffffffffffffffffffffffffffffffffffffffff163373ffffffffffffffffffffffffffffffffffffffff16141515612a0d57600080fd5b600073ffffffffffffffffffffffffffffffffffffffff168273ffffffffffffffffffffffffffffffffffffffff1614151515612a4957600080fd5b60008114151515612a5957600080fd5b600f548111151515612a6a57600080fd5b8173ffffffffffffffffffffffffffffffffffffffff166108fc829081150290604051600060405180830381858888f19350505050158015612ab0573d6000803e3d6000fd5b505050565b6000612acb826015612fc790919063ffffffff16565b9050919050565b6000601260019054906101000a900460ff161515612aef57600080fd5b60016002811115612afc57fe5b601260009054906101000a900460ff166002811115612b1757fe5b141515612b2357600080fd5b6000601060008473ffffffffffffffffffffffffffffffffffffffff1673ffffffffffffffffffffffffffffffffffffffff1681526020019081526020016000205414151515612b7257600080fd5b601060008373ffffffffffffffffffffffffffffffffffffffff1673ffffffffffffffffffffffffffffffffffffffff1681526020019081526020016000205490506000601060008473ffffffffffffffffffffffffffffffffffffffff1673ffffffffffffffffffffffffffffffffffffffff168152602001908152602001600020819055508173ffffffffffffffffffffffffffffffffffffffff166108fc829081150290604051600060405180830381858888f19350505050158015612c3f573d6000803e3d6000fd5b507fd7dee2702d63ad89917b6a4da9981c90c4d24f8c2bdfd64c604ecae57d8d06518282604051808373ffffffffffffffffffffffffffffffffffffffff1673ffffffffffffffffffffffffffffffffffffffff1681526020018281526020019250505060405180910390a15050565b600360009054906101000a900473ffffffffffffffffffffffffffffffffffffffff1681565b600080612ce0611982565b1515612ceb57600080fd5b612cf3610dc5565b151515612cff57600080fd5b600090505b600080549050811015612d7b57600081815481101515612d2057fe5b9060005260206000209060060201600101544210158015612d615750600081815481101515612d4b57fe5b9060005260206000209060060201600201544211155b15612d6e57809150612d7c565b8080600101915050612d04565b5b5090565b60008260000160008373ffffffffffffffffffffffffffffffffffffffff1673ffffffffffffffffffffffffffffffffffffffff16815260200190815260200160002060006101000a81548160ff0219169083151502179055505050565b600080831415612df15760009050612e10565b8183029050818382811515612e0257fe5b04141515612e0c57fe5b8090505b92915050565b60008183811515612e2357fe5b04905092915050565b60006002811115612e3957fe5b601260009054906101000a900460ff166002811115612e5457fe5b141515612e6057600080fd5b612e68611789565b15612f42576002601260006101000a81548160ff02191690836002811115612e8c57fe5b0217905550600460009054906101000a900473ffffffffffffffffffffffffffffffffffffffff1673ffffffffffffffffffffffffffffffffffffffff166108fc3073ffffffffffffffffffffffffffffffffffffffff16319081150290604051600060405180830381858888f19350505050158015612f10573d6000803e3d6000fd5b507f1cdde67b72a90f19919ac732a437ac2f7a10fc128d28c2a6e525d89ce5cd9d3a60405160405180910390a1612f67565b6001601260006101000a81548160ff02191690836002811115612f6157fe5b02179055505b565b60018260000160008373ffffffffffffffffffffffffffffffffffffffff1673ffffffffffffffffffffffffffffffffffffffff16815260200190815260200160002060006101000a81548160ff0219169083151502179055505050565b60008260000160008373ffffffffffffffffffffffffffffffffffffffff1673ffffffffffffffffffffffffffffffffffffffff16815260200190815260200160002060009054906101000a900460ff16905092915050565b6000818301905082811015151561303357fe5b80905092915050565b600080613047611954565b9050613073600754600a0a6130658386612dde90919063ffffffff16565b612e1690919063ffffffff16565b915050919050565b600073ffffffffffffffffffffffffffffffffffffffff168373ffffffffffffffffffffffffffffffffffffffff16141515156130b757600080fd5b600082141515156130c757600080fd5b6130cf6118eb565b6130e48260115461302090919063ffffffff16565b111515156130f157600080fd5b6130f96121d7565b61314b83601060008773ffffffffffffffffffffffffffffffffffffffff1673ffffffffffffffffffffffffffffffffffffffff1681526020019081526020016000205461302090919063ffffffff16565b1015151561315857600080fd5b613160610d23565b6131b283601060008773ffffffffffffffffffffffffffffffffffffffff1673ffffffffffffffffffffffffffffffffffffffff1681526020019081526020016000205461302090919063ffffffff16565b111515156131bf57600080fd5b600160068111156131cc57fe5b6131d4612279565b60068111156131df57fe5b14156131fa576131ee836116ce565b15156131f957600080fd5b5b505050565b61325182601060008673ffffffffffffffffffffffffffffffffffffffff1673ffffffffffffffffffffffffffffffffffffffff1681526020019081526020016000205461302090919063ffffffff16565b601060008573ffffffffffffffffffffffffffffffffffffffff1673ffffffffffffffffffffffffffffffffffffffff168152602001908152602001600020819055506132a98160115461302090919063ffffffff16565b6011819055506132c482600f5461302090919063ffffffff16565b600f81905550505050565b600360009054906101000a900473ffffffffffffffffffffffffffffffffffffffff1673ffffffffffffffffffffffffffffffffffffffff1663a9059cbb83836040518363ffffffff167c0100000000000000000000000000000000000000000000000000000000028152600401808373ffffffffffffffffffffffffffffffffffffffff1673ffffffffffffffffffffffffffffffffffffffff16815260200182815260200192505050602060405180830381600087803b15801561339457600080fd5b505af11580156133a8573d6000803e3d6000fd5b505050506040513d60208110156133be57600080fd5b8101908080519060200190929190505050505050565b608060405190810160405280600073ffffffffffffffffffffffffffffffffffffffff168152602001600081526020016060815260200160007bffffffffffffffffffffffffffffffffffffffffffffffffffffffff1916815250905600a165627a7a72305820fa7af923ce82122d5da12d4cefa8a3be01d5eccaad0161a1c89157b21f5868740029",
  "source": "pragma solidity ^0.4.23;\r\n\r\nimport \"./BasicCrowdsale.sol\";\r\nimport \"./FinalizableCrowdsale.sol\";\r\nimport \"./GrantedCrowdsale.sol\";\r\nimport \"./RefundableCrowdsale.sol\";\r\nimport \"./ReferralCorwdsale.sol\";\r\nimport \"./tokenReceiver.sol\";\r\nimport \"./BurnableCrowdsale.sol\";\r\nimport \"../ownership/Heritable.sol\";\r\n\r\n/**\r\n * @title WOXCrowdsale\r\n * @dev \r\n */\r\ncontract WOXCrowdsale is \r\n    BasicCrowdsale,\r\n    FinalizableCrowdsale,\r\n    GrantedCrowdsale,\r\n    RefundableCrowdsale,\r\n    ReferralCrowdsale,\r\n    BurnableCrowdsale,\r\n    tokenReceiver\r\n{\r\n    \r\n    /**\r\n     * @dev Initiates parameters of crowdsale.\r\n     * @param _cliff determines the cliff time between contract deployment an ICO opening time.\r\n     * @param _USD_PER_ETH USD to ETHER rate. (amount of USD per 1 ETHER).\r\n     * @param _wallet Wallet address to which funds will be depositted to after goal reached.\r\n     * @param _tokenAddress WOX Token contract address.\r\n     */\r\n    constructor(\r\n        uint256 _cliff,\r\n        uint256 _USD_PER_ETH,\r\n        address _wallet,\r\n        address _tokenAddress\r\n        ) \r\n        public \r\n    {\r\n        require(_wallet != address(0));\r\n        require(_tokenAddress != address(0));\r\n        \r\n        USD_PER_ETH = _USD_PER_ETH;\r\n        wallet = _wallet;\r\n        state = State.Active;\r\n        isFinalized = false;\r\n        \r\n        token = woxToken(_tokenAddress);\r\n        totalSupply = token.totalSupply();\r\n        decimals = token.decimals();\r\n        tokenName = token.name();\r\n        tokenSymbol = token.symbol();\r\n        \r\n        /**\r\n         * @dev Crowdsale Softcap is the minimum fund desired to be raised.\r\n         * @param softacp Crowdsale softcap is 3 Millions of USD. If this amount of fund \r\n         * raises the goal is reached but the crowdsale will be running until\r\n         * the end of ICO-4.\r\n         * @param MaxRefferalTokens Only 30 Million Tokens are allowed to be paid as Refferals.\r\n         */\r\n        softcapWei = uint256(3e6).mul(1 ether).div(USD_PER_ETH);\r\n        MaxReferralTokens = uint256(620e6).mul(10 ** decimals).mul(3).div(100);\r\n\r\n        /**\r\n         * @dev Investing limitations:\r\n         * @param minVestingPreICO Minimum Investing rate at pre-ICO Tier 50K USD. \r\n         * Its equivallent ETHER value is computed and considered based on USD/ETH rate.\r\n         * @param maxVestingPreICO ///////\r\n         * @param minVestingICO Minimum Investing rate at pre-ICO Tier is 0.1 ETHER.\r\n         * @param maxVestingICO Miaximum Investing rate at pre-ICO Tier is 300 ETHER.\r\n         */\r\n        minVestingWeiPreICO = uint256(50e3).mul(1 ether).div(USD_PER_ETH);\r\n        maxVestingWeiPreICO = uint256(1e6).mul(1 ether).div(USD_PER_ETH); //// ?????\r\n        minVestingWeiICO = 0.1 ether;\r\n        maxVestingWeiICO = 300 ether;\r\n\r\n        uint256 _openingTime = now + _cliff;\r\n\r\n        /**\r\n         * @dev Pre-Whitelist Tier will be running for 10 days since ICO opening.\r\n         * Crowdsale Owner is supposed to insert VCs' address into VC Whitelist.\r\n         * Token Purchase is not allowed during this Round.\r\n         */\r\n        addTier(\r\n            TierStates.preWhitelist,\r\n            _openingTime, \r\n            _openingTime + 10 days, \r\n            0, \r\n            0,\r\n            false);\r\n\r\n        /**\r\n         * @dev Pre-ICO Tier will open immediately after per-Whitelist round finished and\r\n         * will be running for 30 days. Token purchase is only allowed to whitelisted VCs.\r\n         * The Hardcap of pre-ICO Tier is 120M tokens. The remaining tokens not sold at \r\n         * this round will be added to next rounds. Whitelisting is not allowed at this round.\r\n         */\r\n        addTier(\r\n            TierStates.preICO,\r\n            Tiers[Tiers.length-1].ending, \r\n            Tiers[Tiers.length-1].ending + 30 days, \r\n            uint256(120e6).mul(10 ** decimals), \r\n            uint256(USD_PER_ETH).mul(10 ** decimals).mul(100).div(8),            \r\n            true);\r\n\r\n        /**\r\n         * @dev Whitelist Tier will open immediately after pre-ICO round finished and\r\n         * will be running for 10 days. Token purchase is not allowed. ICO Owner will be able\r\n         * to insert new VCs to VC Whitelist.\r\n         */\r\n        addTier(\r\n            TierStates.Whitelist,\r\n            Tiers[Tiers.length-1].ending, \r\n            Tiers[Tiers.length-1].ending + 10 days, \r\n            0, \r\n            0, \r\n            false);\r\n\r\n        /**\r\n         * @dev ICO-1 Tier will open immediately after Whitelist round finished and\r\n         * will be running for 1 week. Token purchase is allowed for all participants.\r\n         * The ICO-1 Hardcap is 125M tokens in addition to amount of tokens remained \r\n         * from previous rounds. The remaining tokens not sold at this round will be\r\n         * added to next one. Whitelisting is not allowed at this tier.\r\n         */\r\n        addTier(\r\n            TierStates.ICORound1,\r\n            Tiers[Tiers.length-1].ending, \r\n            Tiers[Tiers.length-1].ending + 1 weeks, \r\n            uint256(125e6).mul(10 ** decimals), \r\n            uint256(USD_PER_ETH).mul(10 ** decimals).mul(100).div(12), \r\n            true);\r\n\r\n        /**\r\n         * @dev ICO-2 Tier will open immediately after ICO-1 round finished and\r\n         * will be running for 1 week. Token purchase is allowed for all participants.\r\n         * The ICO-2 Hardcap is 125M tokens in addition to amount of tokens remained \r\n         * from previous rounds. The remaining tokens not sold at this round will be\r\n         * added to next one. Whitelisting is not allowed at this tier.\r\n         */\r\n        addTier(\r\n            TierStates.ICORound2,\r\n            Tiers[Tiers.length-1].ending, \r\n            Tiers[Tiers.length-1].ending + 1 weeks, \r\n            uint256(125e6).mul(10 ** decimals), \r\n            uint256(USD_PER_ETH).mul(10 ** decimals).mul(100).div(13), \r\n            true);\r\n\r\n        /**\r\n         * @dev ICO-3 Tier will open immediately after ICO-2 round finished and\r\n         * will be running for 1 week. Token purchase is allowed for all participants.\r\n         * The ICO-3 Hardcap is 125M tokens in addition to amount of tokens remained \r\n         * from previous rounds. The remaining tokens not sold at this round will be\r\n         * added to next one. Whitelisting is not allowed at this tier.\r\n         */\r\n        addTier(\r\n            TierStates.ICORound3,\r\n            Tiers[Tiers.length-1].ending, \r\n            Tiers[Tiers.length-1].ending + 1 weeks, \r\n            uint256(125e6).mul(10 ** decimals), \r\n            uint256(USD_PER_ETH).mul(10 ** decimals).mul(100).div(14), \r\n            true);\r\n\r\n        /**\r\n         * @dev ICO-3 Tier will open immediately after ICO-2 round finished and\r\n         * will be running for 1 week. Token purchase is allowed for all participants.\r\n         * The ICO-3 Hardcap is 125M tokens in addition to amount of tokens remained \r\n         * from previous rounds. The remaining tokens not sold at this round will be\r\n         * added to next one. Whitelisting is not allowed at this tier.\r\n         */\r\n        addTier(\r\n            TierStates.ICORound4,\r\n            Tiers[Tiers.length-1].ending, \r\n            Tiers[Tiers.length-1].ending + 1 weeks, \r\n            uint256(125e6).mul(10 ** decimals), \r\n            uint256(USD_PER_ETH).mul(10 ** decimals).mul(100).div(15), \r\n            true);\r\n    }\r\n\r\n    /**\r\n     *@dev Updates Prices. It updates USD_PER_ETH and all related parameters.\r\n     *@dev note Only owner can update prices.\r\n     *@param _usd_eth New USD to ETHER rate. (amount of USD per 1 ETHER).\r\n     */\r\n    function updatePricing(uint256 _usd_eth) public onlyOwner {\r\n        require(_usd_eth > 0);\r\n\r\n        USD_PER_ETH = _usd_eth;\r\n        softcapWei = uint256(3e6).mul(1 ether).div(USD_PER_ETH);\r\n        minVestingWeiPreICO = uint256(50e3).mul(1 ether).div(USD_PER_ETH);\r\n        maxVestingWeiPreICO = uint256(1e6).mul(1 ether).div(USD_PER_ETH); //// ?????\r\n\r\n        Tiers[1].tokenWeisPerEth = uint256(USD_PER_ETH).mul(10 ** decimals).mul(100).div(8);\r\n        Tiers[3].tokenWeisPerEth = uint256(USD_PER_ETH).mul(10 ** decimals).mul(100).div(12);\r\n        Tiers[4].tokenWeisPerEth = uint256(USD_PER_ETH).mul(10 ** decimals).mul(100).div(13);\r\n        Tiers[5].tokenWeisPerEth = uint256(USD_PER_ETH).mul(10 ** decimals).mul(100).div(14);\r\n        Tiers[6].tokenWeisPerEth = uint256(USD_PER_ETH).mul(10 ** decimals).mul(100).div(15);\r\n    }\r\n}",
  "sourcePath": "G:\\Root\\Blockchain\\WOX\\contracts\\crowdSale\\WOXCrowdsale.sol",
  "compiler": {
    "name": "solc",
    "version": "0.4.23+commit.124ca40d.Emscripten.clang"
  },
  "schemaVersion": "2.0.0",
  "updatedAt": "2018-06-27T04:31:22.503Z"
}