{
  "contractName": "WOXCrowdsale",
  "abi": [
    {
      "constant": false,
      "inputs": [
        {
          "name": "_grantee",
          "type": "address"
        }
      ],
      "name": "removeFromGrantees",
      "outputs": [],
      "payable": false,
      "stateMutability": "nonpayable",
      "type": "function"
    },
    {
      "constant": true,
      "inputs": [],
      "name": "maxVestingWei",
      "outputs": [
        {
          "name": "",
          "type": "uint256"
        }
      ],
      "payable": false,
      "stateMutability": "view",
      "type": "function"
    },
    {
      "constant": true,
      "inputs": [],
      "name": "hasClosed",
      "outputs": [
        {
          "name": "",
          "type": "bool"
        }
      ],
      "payable": false,
      "stateMutability": "view",
      "type": "function"
    },
    {
      "constant": true,
      "inputs": [],
      "name": "totalSupply",
      "outputs": [
        {
          "name": "",
          "type": "uint256"
        }
      ],
      "payable": false,
      "stateMutability": "view",
      "type": "function"
    },
    {
      "constant": true,
      "inputs": [],
      "name": "grantedTokens",
      "outputs": [
        {
          "name": "",
          "type": "uint256"
        }
      ],
      "payable": false,
      "stateMutability": "view",
      "type": "function"
    },
    {
      "constant": true,
      "inputs": [],
      "name": "currentTierHardcap",
      "outputs": [
        {
          "name": "",
          "type": "uint256"
        }
      ],
      "payable": false,
      "stateMutability": "view",
      "type": "function"
    },
    {
      "constant": true,
      "inputs": [],
      "name": "decimals",
      "outputs": [
        {
          "name": "",
          "type": "uint256"
        }
      ],
      "payable": false,
      "stateMutability": "view",
      "type": "function"
    },
    {
      "constant": true,
      "inputs": [],
      "name": "weiRaised",
      "outputs": [
        {
          "name": "",
          "type": "uint256"
        }
      ],
      "payable": false,
      "stateMutability": "view",
      "type": "function"
    },
    {
      "constant": true,
      "inputs": [],
      "name": "getWeiRaised",
      "outputs": [
        {
          "name": "",
          "type": "uint256"
        }
      ],
      "payable": false,
      "stateMutability": "view",
      "type": "function"
    },
    {
      "constant": false,
      "inputs": [],
      "name": "finalize",
      "outputs": [],
      "payable": false,
      "stateMutability": "nonpayable",
      "type": "function"
    },
    {
      "constant": true,
      "inputs": [],
      "name": "wallet",
      "outputs": [
        {
          "name": "",
          "type": "address"
        }
      ],
      "payable": false,
      "stateMutability": "view",
      "type": "function"
    },
    {
      "constant": true,
      "inputs": [],
      "name": "grantHardcapToken",
      "outputs": [
        {
          "name": "",
          "type": "uint256"
        }
      ],
      "payable": false,
      "stateMutability": "view",
      "type": "function"
    },
    {
      "constant": false,
      "inputs": [
        {
          "name": "_vc",
          "type": "address"
        }
      ],
      "name": "addToVC",
      "outputs": [],
      "payable": false,
      "stateMutability": "nonpayable",
      "type": "function"
    },
    {
      "constant": true,
      "inputs": [],
      "name": "tokenName",
      "outputs": [
        {
          "name": "",
          "type": "string"
        }
      ],
      "payable": false,
      "stateMutability": "view",
      "type": "function"
    },
    {
      "constant": false,
      "inputs": [
        {
          "name": "_burnAmount",
          "type": "uint256"
        }
      ],
      "name": "burnTokens",
      "outputs": [],
      "payable": false,
      "stateMutability": "nonpayable",
      "type": "function"
    },
    {
      "constant": false,
      "inputs": [],
      "name": "renounceOwnership",
      "outputs": [],
      "payable": false,
      "stateMutability": "nonpayable",
      "type": "function"
    },
    {
      "constant": true,
      "inputs": [
        {
          "name": "_vc",
          "type": "address"
        }
      ],
      "name": "whtielistedAsVC",
      "outputs": [
        {
          "name": "",
          "type": "bool"
        }
      ],
      "payable": false,
      "stateMutability": "view",
      "type": "function"
    },
    {
      "constant": true,
      "inputs": [],
      "name": "tokenSymbol",
      "outputs": [
        {
          "name": "",
          "type": "string"
        }
      ],
      "payable": false,
      "stateMutability": "view",
      "type": "function"
    },
    {
      "constant": true,
      "inputs": [],
      "name": "goalReached",
      "outputs": [
        {
          "name": "",
          "type": "bool"
        }
      ],
      "payable": false,
      "stateMutability": "view",
      "type": "function"
    },
    {
      "constant": true,
      "inputs": [],
      "name": "grantHardcapTokenPerEach",
      "outputs": [
        {
          "name": "",
          "type": "uint256"
        }
      ],
      "payable": false,
      "stateMutability": "view",
      "type": "function"
    },
    {
      "constant": true,
      "inputs": [],
      "name": "owner",
      "outputs": [
        {
          "name": "",
          "type": "address"
        }
      ],
      "payable": false,
      "stateMutability": "view",
      "type": "function"
    },
    {
      "constant": true,
      "inputs": [],
      "name": "referralTokens",
      "outputs": [
        {
          "name": "",
          "type": "uint256"
        }
      ],
      "payable": false,
      "stateMutability": "view",
      "type": "function"
    },
    {
      "constant": false,
      "inputs": [
        {
          "name": "_vc",
          "type": "address"
        }
      ],
      "name": "removeFromVC",
      "outputs": [],
      "payable": false,
      "stateMutability": "nonpayable",
      "type": "function"
    },
    {
      "constant": true,
      "inputs": [],
      "name": "currentSaleTokenWeiHardcap",
      "outputs": [
        {
          "name": "",
          "type": "uint256"
        }
      ],
      "payable": false,
      "stateMutability": "view",
      "type": "function"
    },
    {
      "constant": true,
      "inputs": [],
      "name": "MaxReferralTokens",
      "outputs": [
        {
          "name": "",
          "type": "uint256"
        }
      ],
      "payable": false,
      "stateMutability": "view",
      "type": "function"
    },
    {
      "constant": true,
      "inputs": [],
      "name": "currentTierTokenWeisPerEth",
      "outputs": [
        {
          "name": "",
          "type": "uint256"
        }
      ],
      "payable": false,
      "stateMutability": "view",
      "type": "function"
    },
    {
      "constant": true,
      "inputs": [],
      "name": "hasOpened",
      "outputs": [
        {
          "name": "",
          "type": "bool"
        }
      ],
      "payable": false,
      "stateMutability": "view",
      "type": "function"
    },
    {
      "constant": true,
      "inputs": [
        {
          "name": "_from",
          "type": "address"
        },
        {
          "name": "_value",
          "type": "uint256"
        },
        {
          "name": "_data",
          "type": "bytes"
        }
      ],
      "name": "tokenFallback",
      "outputs": [],
      "payable": false,
      "stateMutability": "pure",
      "type": "function"
    },
    {
      "constant": false,
      "inputs": [
        {
          "name": "_grantee",
          "type": "address"
        },
        {
          "name": "_tokenAmount",
          "type": "uint256"
        }
      ],
      "name": "grantTokens",
      "outputs": [],
      "payable": false,
      "stateMutability": "nonpayable",
      "type": "function"
    },
    {
      "constant": true,
      "inputs": [],
      "name": "minVestingWei",
      "outputs": [
        {
          "name": "",
          "type": "uint256"
        }
      ],
      "payable": false,
      "stateMutability": "view",
      "type": "function"
    },
    {
      "constant": true,
      "inputs": [],
      "name": "currentTier",
      "outputs": [
        {
          "name": "",
          "type": "uint8"
        }
      ],
      "payable": false,
      "stateMutability": "view",
      "type": "function"
    },
    {
      "constant": true,
      "inputs": [],
      "name": "tokenWeisSold",
      "outputs": [
        {
          "name": "",
          "type": "uint256"
        }
      ],
      "payable": false,
      "stateMutability": "view",
      "type": "function"
    },
    {
      "constant": false,
      "inputs": [
        {
          "name": "_grantee",
          "type": "address"
        }
      ],
      "name": "addToGrantees",
      "outputs": [],
      "payable": false,
      "stateMutability": "nonpayable",
      "type": "function"
    },
    {
      "constant": false,
      "inputs": [
        {
          "name": "_beneficiary",
          "type": "address"
        }
      ],
      "name": "buyTokens",
      "outputs": [
        {
          "name": "",
          "type": "uint256"
        }
      ],
      "payable": true,
      "stateMutability": "payable",
      "type": "function"
    },
    {
      "constant": false,
      "inputs": [
        {
          "name": "_referrer",
          "type": "address"
        },
        {
          "name": "_amount",
          "type": "uint256"
        }
      ],
      "name": "PayReferral",
      "outputs": [],
      "payable": false,
      "stateMutability": "nonpayable",
      "type": "function"
    },
    {
      "constant": false,
      "inputs": [
        {
          "name": "newOwner",
          "type": "address"
        }
      ],
      "name": "transferOwnership",
      "outputs": [],
      "payable": false,
      "stateMutability": "nonpayable",
      "type": "function"
    },
    {
      "constant": false,
      "inputs": [
        {
          "name": "_wallet",
          "type": "address"
        },
        {
          "name": "_weiAmount",
          "type": "uint256"
        }
      ],
      "name": "withdraw",
      "outputs": [],
      "payable": false,
      "stateMutability": "nonpayable",
      "type": "function"
    },
    {
      "constant": true,
      "inputs": [
        {
          "name": "_grantee",
          "type": "address"
        }
      ],
      "name": "whitelistedAsGrantee",
      "outputs": [
        {
          "name": "",
          "type": "bool"
        }
      ],
      "payable": false,
      "stateMutability": "view",
      "type": "function"
    },
    {
      "constant": false,
      "inputs": [
        {
          "name": "_investor",
          "type": "address"
        }
      ],
      "name": "refund",
      "outputs": [],
      "payable": false,
      "stateMutability": "nonpayable",
      "type": "function"
    },
    {
      "constant": true,
      "inputs": [],
      "name": "token",
      "outputs": [
        {
          "name": "",
          "type": "address"
        }
      ],
      "payable": false,
      "stateMutability": "view",
      "type": "function"
    },
    {
      "inputs": [
        {
          "name": "_cliff",
          "type": "uint256"
        },
        {
          "name": "_USD_PER_ETH",
          "type": "uint256"
        },
        {
          "name": "_wallet",
          "type": "address"
        },
        {
          "name": "_tokenAddress",
          "type": "address"
        }
      ],
      "payable": false,
      "stateMutability": "nonpayable",
      "type": "constructor"
    },
    {
      "payable": true,
      "stateMutability": "payable",
      "type": "fallback"
    },
    {
      "anonymous": false,
      "inputs": [
        {
          "indexed": false,
          "name": "_burner",
          "type": "address"
        },
        {
          "indexed": false,
          "name": "_burnedFrom",
          "type": "address"
        },
        {
          "indexed": false,
          "name": "_burnAmount",
          "type": "uint256"
        }
      ],
      "name": "Burned",
      "type": "event"
    },
    {
      "anonymous": false,
      "inputs": [
        {
          "indexed": true,
          "name": "sender",
          "type": "address"
        },
        {
          "indexed": true,
          "name": "referre",
          "type": "address"
        },
        {
          "indexed": false,
          "name": "amount",
          "type": "uint256"
        }
      ],
      "name": "ReferralTokenPaid",
      "type": "event"
    },
    {
      "anonymous": false,
      "inputs": [
        {
          "indexed": false,
          "name": "_investor",
          "type": "address"
        },
        {
          "indexed": false,
          "name": "_depositedValue",
          "type": "uint256"
        }
      ],
      "name": "Refunded",
      "type": "event"
    },
    {
      "anonymous": false,
      "inputs": [
        {
          "indexed": true,
          "name": "sender",
          "type": "address"
        },
        {
          "indexed": true,
          "name": "grantee",
          "type": "address"
        },
        {
          "indexed": false,
          "name": "amount",
          "type": "uint256"
        }
      ],
      "name": "TokenGranted",
      "type": "event"
    },
    {
      "anonymous": false,
      "inputs": [],
      "name": "Finalized",
      "type": "event"
    },
    {
      "anonymous": false,
      "inputs": [],
      "name": "Closed",
      "type": "event"
    },
    {
      "anonymous": false,
      "inputs": [
        {
          "indexed": true,
          "name": "purchaser",
          "type": "address"
        },
        {
          "indexed": true,
          "name": "beneficiary",
          "type": "address"
        },
        {
          "indexed": false,
          "name": "value",
          "type": "uint256"
        },
        {
          "indexed": false,
          "name": "amount",
          "type": "uint256"
        }
      ],
      "name": "TokenPurchase",
      "type": "event"
    },
    {
      "anonymous": false,
      "inputs": [
        {
          "indexed": true,
          "name": "previousOwner",
          "type": "address"
        }
      ],
      "name": "OwnershipRenounced",
      "type": "event"
    },
    {
      "anonymous": false,
      "inputs": [
        {
          "indexed": true,
          "name": "previousOwner",
          "type": "address"
        },
        {
          "indexed": true,
          "name": "newOwner",
          "type": "address"
        }
      ],
      "name": "OwnershipTransferred",
      "type": "event"
    }
  ],
  "bytecode": "0x60806040523480156200001157600080fd5b506040516080806200412f83398101806040528101908080519060200190929190805190602001909291908051906020019092919080519060200190929190505050600033600160006101000a81548173ffffffffffffffffffffffffffffffffffffffff021916908373ffffffffffffffffffffffffffffffffffffffff160217905550600073ffffffffffffffffffffffffffffffffffffffff168373ffffffffffffffffffffffffffffffffffffffff1614151515620000d357600080fd5b600073ffffffffffffffffffffffffffffffffffffffff168273ffffffffffffffffffffffffffffffffffffffff16141515156200011057600080fd5b83600e8190555082600460006101000a81548173ffffffffffffffffffffffffffffffffffffffff021916908373ffffffffffffffffffffffffffffffffffffffff1602179055506000601260006101000a81548160ff021916908360028111156200017857fe5b02179055506000601260016101000a81548160ff02191690831515021790555081600360006101000a81548173ffffffffffffffffffffffffffffffffffffffff021916908373ffffffffffffffffffffffffffffffffffffffff160217905550600360009054906101000a900473ffffffffffffffffffffffffffffffffffffffff1673ffffffffffffffffffffffffffffffffffffffff166318160ddd6040518163ffffffff167c0100000000000000000000000000000000000000000000000000000000028152600401602060405180830381600087803b1580156200026057600080fd5b505af115801562000275573d6000803e3d6000fd5b505050506040513d60208110156200028c57600080fd5b8101908080519060200190929190505050600681905550600360009054906101000a900473ffffffffffffffffffffffffffffffffffffffff1673ffffffffffffffffffffffffffffffffffffffff1663313ce5676040518163ffffffff167c0100000000000000000000000000000000000000000000000000000000028152600401602060405180830381600087803b1580156200032a57600080fd5b505af11580156200033f573d6000803e3d6000fd5b505050506040513d60208110156200035657600080fd5b8101908080519060200190929190505050600781905550600360009054906101000a900473ffffffffffffffffffffffffffffffffffffffff1673ffffffffffffffffffffffffffffffffffffffff166306fdde036040518163ffffffff167c0100000000000000000000000000000000000000000000000000000000028152600401600060405180830381600087803b158015620003f457600080fd5b505af115801562000409573d6000803e3d6000fd5b505050506040513d6000823e3d601f19601f8201168201806040525060208110156200043457600080fd5b8101908080516401000000008111156200044d57600080fd5b828101905060208101848111156200046457600080fd5b81518560018202830111640100000000821117156200048257600080fd5b505092919050505060089080519060200190620004a192919062000f13565b50600360009054906101000a900473ffffffffffffffffffffffffffffffffffffffff1673ffffffffffffffffffffffffffffffffffffffff166395d89b416040518163ffffffff167c0100000000000000000000000000000000000000000000000000000000028152600401600060405180830381600087803b1580156200052957600080fd5b505af11580156200053e573d6000803e3d6000fd5b505050506040513d6000823e3d601f19601f8201168201806040525060208110156200056957600080fd5b8101908080516401000000008111156200058257600080fd5b828101905060208101848111156200059957600080fd5b8151856001820283011164010000000082111715620005b757600080fd5b505092919050505060099080519060200190620005d692919062000f13565b5062000629600e546200060c670de0b6b3a7640000622dc6c062000d576401000000000262003040179091906401000000009004565b62000d936401000000000262003078179091906401000000009004565b6005819055506200065b600754600a0a6301c9c38062000d576401000000000262003040179091906401000000009004565b601881905550620006b2600e5462000695670de0b6b3a764000061c35062000d576401000000000262003040179091906401000000009004565b62000d936401000000000262003078179091906401000000009004565b600a819055506200070a600e54620006ed670de0b6b3a7640000620f424062000d576401000000000262003040179091906401000000009004565b62000d936401000000000262003078179091906401000000009004565b600b8190555067016345785d8a0000600c81905550681043561a8829300000600d8190555084420190506200075b600082620d2f008401600080600062000daa640100000000026401000000009004565b62000873600160006001600080549050038154811015156200077957fe5b90600052602060002090600602016002015462278d006000600160008054905003815481101515620007a757fe5b90600052602060002090600602016002015401620007e9670de0b6b3a76400006307270e0062000d576401000000000262003040179091906401000000009004565b6200085c60086200083f606462000822670de0b6b3a7640000600e5462000d576401000000000262003040179091906401000000009004565b62000d576401000000000262003040179091906401000000009004565b62000d936401000000000262003078179091906401000000009004565b600162000daa640100000000026401000000009004565b620008ec600260006001600080549050038154811015156200089157fe5b906000526020600020906006020160020154620d2f006000600160008054905003815481101515620008bf57fe5b90600052602060002090600602016002015401600080600062000daa640100000000026401000000009004565b62000a04600360006001600080549050038154811015156200090a57fe5b90600052602060002090600602016002015462093a8060006001600080549050038154811015156200093857fe5b906000526020600020906006020160020154016200097a670de0b6b3a7640000630773594062000d576401000000000262003040179091906401000000009004565b620009ed600c620009d06064620009b3670de0b6b3a7640000600e5462000d576401000000000262003040179091906401000000009004565b62000d576401000000000262003040179091906401000000009004565b62000d936401000000000262003078179091906401000000009004565b600162000daa640100000000026401000000009004565b62000b1c6004600060016000805490500381548110151562000a2257fe5b90600052602060002090600602016002015462093a80600060016000805490500381548110151562000a5057fe5b9060005260206000209060060201600201540162000a92670de0b6b3a7640000630773594062000d576401000000000262003040179091906401000000009004565b62000b05600d62000ae8606462000acb670de0b6b3a7640000600e5462000d576401000000000262003040179091906401000000009004565b62000d576401000000000262003040179091906401000000009004565b62000d936401000000000262003078179091906401000000009004565b600162000daa640100000000026401000000009004565b62000c346005600060016000805490500381548110151562000b3a57fe5b90600052602060002090600602016002015462093a80600060016000805490500381548110151562000b6857fe5b9060005260206000209060060201600201540162000baa670de0b6b3a7640000630773594062000d576401000000000262003040179091906401000000009004565b62000c1d600e62000c00606462000be3670de0b6b3a7640000600e5462000d576401000000000262003040179091906401000000009004565b62000d576401000000000262003040179091906401000000009004565b62000d936401000000000262003078179091906401000000009004565b600162000daa640100000000026401000000009004565b62000d4c6006600060016000805490500381548110151562000c5257fe5b90600052602060002090600602016002015462093a80600060016000805490500381548110151562000c8057fe5b9060005260206000209060060201600201540162000cc2670de0b6b3a7640000630773594062000d576401000000000262003040179091906401000000009004565b62000d35600f62000d18606462000cfb670de0b6b3a7640000600e5462000d576401000000000262003040179091906401000000009004565b62000d576401000000000262003040179091906401000000009004565b62000d936401000000000262003078179091906401000000009004565b600162000daa640100000000026401000000009004565b505050505062001007565b60008083141562000d6c576000905062000d8d565b818302905081838281151562000d7e57fe5b0414151562000d8957fe5b8090505b92915050565b6000818381151562000da157fe5b04905092915050565b62000db462000f9a565b858511151562000dc357600080fd5b60008080549050111562000e0b57600060016000805490500381548110151562000de957fe5b906000526020600020906006020160020154861015151562000e0a57600080fd5b5b868160000190600681111562000e1d57fe5b9081600681111562000e2b57fe5b8152505085816020018181525050848160400181815250508381606001818152505082816080018181525050818160a00190151590811515815250506000819080600181540180825580915050906001820390600052602060002090600602016000909192909190915060008201518160000160006101000a81548160ff0219169083600681111562000eba57fe5b02179055506020820151816001015560408201518160020155606082015181600301556080820151816004015560a08201518160050160006101000a81548160ff02191690831515021790555050505050505050505050565b828054600181600116156101000203166002900490600052602060002090601f016020900481019282601f1062000f5657805160ff191683800117855562000f87565b8280016001018555821562000f87579182015b8281111562000f8657825182559160200191906001019062000f69565b5b50905062000f96919062000fdf565b5090565b60c0604051908101604052806000600681111562000fb457fe5b8152602001600081526020016000815260200160008152602001600081526020016000151581525090565b6200100491905b808211156200100057600081600090555060010162000fe6565b5090565b90565b61311880620010176000396000f3006080604052600436106101ee576000357c0100000000000000000000000000000000000000000000000000000000900463ffffffff1680630425b553146101fa57806306c365811461023d5780631515bc2b1461026857806318160ddd146102975780631ee42bcf146102c2578063301df9dd146102ed578063313ce567146103185780634042b66f1461034357806340582f131461036e5780634bb278f314610399578063521eb273146103b057806352f646811461040757806353fe21ad146104325780636c02a931146104755780636d1b229d14610505578063715018a614610532578063792d7ec3146105495780637b61c320146105a45780637d3d65221461063457806389379640146106635780638da5cb5b1461068e5780639303b0b8146106e55780639fb160aa146107105780639fc2e24f14610753578063b64657a71461077e578063bbe8a466146107a9578063be8eef8e146107d4578063c0ee0b8a14610803578063c94e643c14610896578063ce7f3a27146108e3578063d679677a1461090e578063e184a51514610947578063e996a3dd14610972578063ec8ac4d8146109b5578063ee84038e146109ff578063f2fde38b14610a4c578063f3fef3a314610a8f578063f556f4f714610adc578063fa89401a14610b37578063fc0c546a14610b7a575b6101f733610bd1565b50005b34801561020657600080fd5b5061023b600480360381019080803573ffffffffffffffffffffffffffffffffffffffff169060200190929190505050610cdf565b005b34801561024957600080fd5b50610252610e00565b6040518082815260200191505060405180910390f35b34801561027457600080fd5b5061027d610ea2565b604051808215151515815260200191505060405180910390f35b3480156102a357600080fd5b506102ac610ed3565b6040518082815260200191505060405180910390f35b3480156102ce57600080fd5b506102d7610ed9565b6040518082815260200191505060405180910390f35b3480156102f957600080fd5b50610302610edf565b6040518082815260200191505060405180910390f35b34801561032457600080fd5b5061032d610f0d565b6040518082815260200191505060405180910390f35b34801561034f57600080fd5b50610358610f13565b6040518082815260200191505060405180910390f35b34801561037a57600080fd5b50610383610f19565b6040518082815260200191505060405180910390f35b3480156103a557600080fd5b506103ae610f23565b005b3480156103bc57600080fd5b506103c5610fff565b604051808273ffffffffffffffffffffffffffffffffffffffff1673ffffffffffffffffffffffffffffffffffffffff16815260200191505060405180910390f35b34801561041357600080fd5b5061041c611025565b6040518082815260200191505060405180910390f35b34801561043e57600080fd5b50610473600480360381019080803573ffffffffffffffffffffffffffffffffffffffff16906020019092919050505061102b565b005b34801561048157600080fd5b5061048a61114c565b6040518080602001828103825283818151815260200191508051906020019080838360005b838110156104ca5780820151818401526020810190506104af565b50505050905090810190601f1680156104f75780820380516001836020036101000a031916815260200191505b509250505060405180910390f35b34801561051157600080fd5b50610530600480360381019080803590602001909291905050506111ea565b005b34801561053e57600080fd5b50610547611391565b005b34801561055557600080fd5b5061058a600480360381019080803573ffffffffffffffffffffffffffffffffffffffff169060200190929190505050611496565b604051808215151515815260200191505060405180910390f35b3480156105b057600080fd5b506105b96114b3565b6040518080602001828103825283818151815260200191508051906020019080838360005b838110156105f95780820151818401526020810190506105de565b50505050905090810190601f1680156106265780820380516001836020036101000a031916815260200191505b509250505060405180910390f35b34801561064057600080fd5b50610649611551565b604051808215151515815260200191505060405180910390f35b34801561066f57600080fd5b50610678611560565b6040518082815260200191505060405180910390f35b34801561069a57600080fd5b506106a3611566565b604051808273ffffffffffffffffffffffffffffffffffffffff1673ffffffffffffffffffffffffffffffffffffffff16815260200191505060405180910390f35b3480156106f157600080fd5b506106fa61158c565b6040518082815260200191505060405180910390f35b34801561071c57600080fd5b50610751600480360381019080803573ffffffffffffffffffffffffffffffffffffffff169060200190929190505050611592565b005b34801561075f57600080fd5b506107686116b3565b6040518082815260200191505060405180910390f35b34801561078a57600080fd5b50610793611716565b6040518082815260200191505060405180910390f35b3480156107b557600080fd5b506107be61171c565b6040518082815260200191505060405180910390f35b3480156107e057600080fd5b506107e961174a565b604051808215151515815260200191505060405180910390f35b34801561080f57600080fd5b50610894600480360381019080803573ffffffffffffffffffffffffffffffffffffffff16906020019092919080359060200190929190803590602001908201803590602001908080601f0160208091040260200160405190810160405280939291908181526020018383808284378201915050505050509192919290505050611775565b005b3480156108a257600080fd5b506108e1600480360381019080803573ffffffffffffffffffffffffffffffffffffffff16906020019092919080359060200190929190505050611a5a565b005b3480156108ef57600080fd5b506108f8611f9f565b6040518082815260200191505060405180910390f35b34801561091a57600080fd5b50610923612041565b6040518082600681111561093357fe5b60ff16815260200191505060405180910390f35b34801561095357600080fd5b5061095c61207c565b6040518082815260200191505060405180910390f35b34801561097e57600080fd5b506109b3600480360381019080803573ffffffffffffffffffffffffffffffffffffffff169060200190929190505050612082565b005b6109e9600480360381019080803573ffffffffffffffffffffffffffffffffffffffff169060200190929190505050610bd1565b6040518082815260200191505060405180910390f35b348015610a0b57600080fd5b50610a4a600480360381019080803573ffffffffffffffffffffffffffffffffffffffff169060200190929190803590602001909291905050506121a3565b005b348015610a5857600080fd5b50610a8d600480360381019080803573ffffffffffffffffffffffffffffffffffffffff169060200190929190505050612513565b005b348015610a9b57600080fd5b50610ada600480360381019080803573ffffffffffffffffffffffffffffffffffffffff1690602001909291908035906020019092919050505061266b565b005b348015610ae857600080fd5b50610b1d600480360381019080803573ffffffffffffffffffffffffffffffffffffffff16906020019092919050505061276f565b604051808215151515815260200191505060405180910390f35b348015610b4357600080fd5b50610b78600480360381019080803573ffffffffffffffffffffffffffffffffffffffff16906020019092919050505061278c565b005b348015610b8657600080fd5b50610b8f612969565b604051808273ffffffffffffffffffffffffffffffffffffffff1673ffffffffffffffffffffffffffffffffffffffff16815260200191505060405180910390f35b6000806000610bde61174a565b1515610be957600080fd5b610bf1610ea2565b151515610bfd57600080fd5b6000610c0761298f565b815481101515610c1357fe5b906000526020600020906006020160050160009054906101000a900460ff161515610c3d57600080fd5b349150610c4982612a3a565b9050610c56848383612a79565b610c61848383612bfd565b610c6b8482612ccd565b8373ffffffffffffffffffffffffffffffffffffffff163373ffffffffffffffffffffffffffffffffffffffff167f623b3804fa71d67900d064613da8f94b9617215ee90799290593e1745087ad188484604051808381526020018281526020019250505060405180910390a35050919050565b60006006811115610cec57fe5b6000610cf661298f565b815481101515610d0257fe5b906000526020600020906006020160000160009054906101000a900460ff166006811115610d2c57fe5b1480610d82575060026006811115610d4057fe5b6000610d4a61298f565b815481101515610d5657fe5b906000526020600020906006020160000160009054906101000a900460ff166006811115610d8057fe5b145b1515610d8d57600080fd5b600160009054906101000a900473ffffffffffffffffffffffffffffffffffffffff1673ffffffffffffffffffffffffffffffffffffffff163373ffffffffffffffffffffffffffffffffffffffff16141515610de957600080fd5b610dfd816015612dd290919063ffffffff16565b50565b6000610e0a61174a565b1515610e1557600080fd5b610e1d610ea2565b151515610e2957600080fd5b6000610e3361298f565b815481101515610e3f57fe5b906000526020600020906006020160050160009054906101000a900460ff161515610e6957600080fd5b60016006811115610e7657fe5b610e7e612041565b6006811115610e8957fe5b1415610e9957600b549050610e9f565b600d5490505b90565b600080600160008054905003815481101515610eba57fe5b9060005260206000209060060201600201544211905090565b60065481565b60165481565b600080610eea61298f565b815481101515610ef657fe5b906000526020600020906006020160030154905090565b60075481565b600f5481565b6000600f54905090565b600160009054906101000a900473ffffffffffffffffffffffffffffffffffffffff1673ffffffffffffffffffffffffffffffffffffffff163373ffffffffffffffffffffffffffffffffffffffff16141515610f7f57600080fd5b601260019054906101000a900460ff16151515610f9b57600080fd5b610fa3610ea2565b1515610fae57600080fd5b610fb6612e30565b6001601260016101000a81548160ff0219169083151502179055507f6823b073d48d6e3a7d385eeb601452d680e74bb46afe3255a7d778f3a9b1768160405160405180910390a1565b600460009054906101000a900473ffffffffffffffffffffffffffffffffffffffff1681565b60135481565b600160009054906101000a900473ffffffffffffffffffffffffffffffffffffffff1673ffffffffffffffffffffffffffffffffffffffff163373ffffffffffffffffffffffffffffffffffffffff1614151561108757600080fd5b6000600681111561109457fe5b600061109e61298f565b8154811015156110aa57fe5b906000526020600020906006020160000160009054906101000a900460ff1660068111156110d457fe5b148061112a5750600260068111156110e857fe5b60006110f261298f565b8154811015156110fe57fe5b906000526020600020906006020160000160009054906101000a900460ff16600681111561112857fe5b145b151561113557600080fd5b611149816002612f6d90919063ffffffff16565b50565b60088054600181600116156101000203166002900480601f0160208091040260200160405190810160405280929190818152602001828054600181600116156101000203166002900480156111e25780601f106111b7576101008083540402835291602001916111e2565b820191906000526020600020905b8154815290600101906020018083116111c557829003601f168201915b505050505081565b600160009054906101000a900473ffffffffffffffffffffffffffffffffffffffff1673ffffffffffffffffffffffffffffffffffffffff163373ffffffffffffffffffffffffffffffffffffffff1614151561124657600080fd5b600360009054906101000a900473ffffffffffffffffffffffffffffffffffffffff1673ffffffffffffffffffffffffffffffffffffffff1663b90306ad826040518263ffffffff167c010000000000000000000000000000000000000000000000000000000002815260040180828152602001915050600060405180830381600087803b1580156112d757600080fd5b505af11580156112eb573d6000803e3d6000fd5b505050507f6ab368f832c266c8eb942b84fbcaa20aedc24a699d2a05fae2568028733b1d09333083604051808473ffffffffffffffffffffffffffffffffffffffff1673ffffffffffffffffffffffffffffffffffffffff1681526020018373ffffffffffffffffffffffffffffffffffffffff1673ffffffffffffffffffffffffffffffffffffffff168152602001828152602001935050505060405180910390a150565b600160009054906101000a900473ffffffffffffffffffffffffffffffffffffffff1673ffffffffffffffffffffffffffffffffffffffff163373ffffffffffffffffffffffffffffffffffffffff161415156113ed57600080fd5b600160009054906101000a900473ffffffffffffffffffffffffffffffffffffffff1673ffffffffffffffffffffffffffffffffffffffff167ff8df31144d9c2f0f6b59d69b8b98abd5459d07f2742c4df920b25aae33c6482060405160405180910390a26000600160006101000a81548173ffffffffffffffffffffffffffffffffffffffff021916908373ffffffffffffffffffffffffffffffffffffffff160217905550565b60006114ac826002612fcb90919063ffffffff16565b9050919050565b60098054600181600116156101000203166002900480601f0160208091040260200160405190810160405280929190818152602001828054600181600116156101000203166002900480156115495780601f1061151e57610100808354040283529160200191611549565b820191906000526020600020905b81548152906001019060200180831161152c57829003601f168201915b505050505081565b6000600554600f541015905090565b60145481565b600160009054906101000a900473ffffffffffffffffffffffffffffffffffffffff1681565b60195481565b600160009054906101000a900473ffffffffffffffffffffffffffffffffffffffff1673ffffffffffffffffffffffffffffffffffffffff163373ffffffffffffffffffffffffffffffffffffffff161415156115ee57600080fd5b600060068111156115fb57fe5b600061160561298f565b81548110151561161157fe5b906000526020600020906006020160000160009054906101000a900460ff16600681111561163b57fe5b148061169157506002600681111561164f57fe5b600061165961298f565b81548110151561166557fe5b906000526020600020906006020160000160009054906101000a900460ff16600681111561168f57fe5b145b151561169c57600080fd5b6116b0816002612dd290919063ffffffff16565b50565b60008060008090505b6116c461298f565b8111151561170e576116ff6000828154811015156116de57fe5b9060005260206000209060060201600301548361302490919063ffffffff16565b915080806001019150506116bc565b819250505090565b60185481565b60008061172761298f565b81548110151561173357fe5b906000526020600020906006020160040154905090565b600080600081548110151561175b57fe5b906000526020600020906006020160010154421015905090565b61177d61308e565b600084826000019073ffffffffffffffffffffffffffffffffffffffff16908173ffffffffffffffffffffffffffffffffffffffff16815250508382602001818152505082826040018190525060188360008151811015156117db57fe5b9060200101517f010000000000000000000000000000000000000000000000000000000000000090047f0100000000000000000000000000000000000000000000000000000000000000027f0100000000000000000000000000000000000000000000000000000000000000900463ffffffff169060020a02601084600181518110151561186557fe5b9060200101517f010000000000000000000000000000000000000000000000000000000000000090047f0100000000000000000000000000000000000000000000000000000000000000027f0100000000000000000000000000000000000000000000000000000000000000900463ffffffff169060020a0260088560028151811015156118ef57fe5b9060200101517f010000000000000000000000000000000000000000000000000000000000000090047f0100000000000000000000000000000000000000000000000000000000000000027f0100000000000000000000000000000000000000000000000000000000000000900463ffffffff169060020a0285600381518110151561197757fe5b9060200101517f010000000000000000000000000000000000000000000000000000000000000090047f0100000000000000000000000000000000000000000000000000000000000000027f010000000000000000000000000000000000000000000000000000000000000090040101019050807c01000000000000000000000000000000000000000000000000000000000282606001907bffffffffffffffffffffffffffffffffffffffffffffffffffffffff191690817bffffffffffffffffffffffffffffffffffffffffffffffffffffffff1916815250505050505050565b600160009054906101000a900473ffffffffffffffffffffffffffffffffffffffff1673ffffffffffffffffffffffffffffffffffffffff163373ffffffffffffffffffffffffffffffffffffffff16141515611ab657600080fd5b611abe61174a565b1515611ac957600080fd5b611ad1610ea2565b151515611add57600080fd5b60006006811115611aea57fe5b611af2612041565b6006811115611afd57fe5b14151515611b0a57600080fd5b60016006811115611b1757fe5b611b1f612041565b6006811115611b2a57fe5b14151515611b3757600080fd5b81611b418161276f565b1515611b4c57600080fd5b600073ffffffffffffffffffffffffffffffffffffffff168373ffffffffffffffffffffffffffffffffffffffff1614151515611b8857600080fd5b60008214151515611b9857600080fd5b600654611bc4601154611bb68560165461302490919063ffffffff16565b61302490919063ffffffff16565b11151515611bd157600080fd5b611c2382601760008673ffffffffffffffffffffffffffffffffffffffff1673ffffffffffffffffffffffffffffffffffffffff1681526020019081526020016000205461302490919063ffffffff16565b601760008573ffffffffffffffffffffffffffffffffffffffff1673ffffffffffffffffffffffffffffffffffffffff16815260200190815260200160002081905550611c7b8260165461302490919063ffffffff16565b601681905550600360009054906101000a900473ffffffffffffffffffffffffffffffffffffffff1673ffffffffffffffffffffffffffffffffffffffff166343af57d684611ce7600a611cd960038861304090919063ffffffff16565b61307890919063ffffffff16565b6000600160008054905003815481101515611cfe57fe5b9060005260206000209060060201600201546040518463ffffffff167c0100000000000000000000000000000000000000000000000000000000028152600401808473ffffffffffffffffffffffffffffffffffffffff1673ffffffffffffffffffffffffffffffffffffffff1681526020018381526020018281526020019350505050602060405180830381600087803b158015611d9c57600080fd5b505af1158015611db0573d6000803e3d6000fd5b505050506040513d6020811015611dc657600080fd5b810190808051906020019092919050505050600360009054906101000a900473ffffffffffffffffffffffffffffffffffffffff1673ffffffffffffffffffffffffffffffffffffffff166343af57d684611e3e600a611e3060078861304090919063ffffffff16565b61307890919063ffffffff16565b6301e133806000600160008054905003815481101515611e5a57fe5b906000526020600020906006020160020154016040518463ffffffff167c0100000000000000000000000000000000000000000000000000000000028152600401808473ffffffffffffffffffffffffffffffffffffffff1673ffffffffffffffffffffffffffffffffffffffff1681526020018381526020018281526020019350505050602060405180830381600087803b158015611ef957600080fd5b505af1158015611f0d573d6000803e3d6000fd5b505050506040513d6020811015611f2357600080fd5b8101908080519060200190929190505050508273ffffffffffffffffffffffffffffffffffffffff163373ffffffffffffffffffffffffffffffffffffffff167fa6e5a578d42fd913bd5bad70a2ae524a02ea5bcfa6ca06b309333095c155b84e846040518082815260200191505060405180910390a3505050565b6000611fa961174a565b1515611fb457600080fd5b611fbc610ea2565b151515611fc857600080fd5b6000611fd261298f565b815481101515611fde57fe5b906000526020600020906006020160050160009054906101000a900460ff16151561200857600080fd5b6001600681111561201557fe5b61201d612041565b600681111561202857fe5b141561203857600a54905061203e565b600c5490505b90565b60008061204c61298f565b81548110151561205857fe5b906000526020600020906006020160000160009054906101000a900460ff16905090565b60115481565b6000600681111561208f57fe5b600061209961298f565b8154811015156120a557fe5b906000526020600020906006020160000160009054906101000a900460ff1660068111156120cf57fe5b14806121255750600260068111156120e357fe5b60006120ed61298f565b8154811015156120f957fe5b906000526020600020906006020160000160009054906101000a900460ff16600681111561212357fe5b145b151561213057600080fd5b600160009054906101000a900473ffffffffffffffffffffffffffffffffffffffff1673ffffffffffffffffffffffffffffffffffffffff163373ffffffffffffffffffffffffffffffffffffffff1614151561218c57600080fd5b6121a0816015612f6d90919063ffffffff16565b50565b600160009054906101000a900473ffffffffffffffffffffffffffffffffffffffff1673ffffffffffffffffffffffffffffffffffffffff163373ffffffffffffffffffffffffffffffffffffffff161415156121ff57600080fd5b61220761174a565b151561221257600080fd5b61221a610ea2565b15151561222657600080fd5b600061223061298f565b81548110151561223c57fe5b906000526020600020906006020160050160009054906101000a900460ff16151561226657600080fd5b600073ffffffffffffffffffffffffffffffffffffffff168273ffffffffffffffffffffffffffffffffffffffff16141515156122a257600080fd5b600081141515156122b257600080fd5b6018546122ca8260195461302490919063ffffffff16565b111515156122d757600080fd5b61232981601a60008573ffffffffffffffffffffffffffffffffffffffff1673ffffffffffffffffffffffffffffffffffffffff1681526020019081526020016000205461302490919063ffffffff16565b601a60008473ffffffffffffffffffffffffffffffffffffffff1673ffffffffffffffffffffffffffffffffffffffff168152602001908152602001600020819055506123818160195461302490919063ffffffff16565b601981905550600360009054906101000a900473ffffffffffffffffffffffffffffffffffffffff1673ffffffffffffffffffffffffffffffffffffffff1663a9059cbb83836040518363ffffffff167c0100000000000000000000000000000000000000000000000000000000028152600401808373ffffffffffffffffffffffffffffffffffffffff1673ffffffffffffffffffffffffffffffffffffffff16815260200182815260200192505050602060405180830381600087803b15801561244c57600080fd5b505af1158015612460573d6000803e3d6000fd5b505050506040513d602081101561247657600080fd5b8101908080519060200190929190505050508173ffffffffffffffffffffffffffffffffffffffff16600160009054906101000a900473ffffffffffffffffffffffffffffffffffffffff1673ffffffffffffffffffffffffffffffffffffffff167f3dd247ca176cfa1531a4faf4ef926c52f3201b3056f8d738306f4383fa700d04836040518082815260200191505060405180910390a35050565b600160009054906101000a900473ffffffffffffffffffffffffffffffffffffffff1673ffffffffffffffffffffffffffffffffffffffff163373ffffffffffffffffffffffffffffffffffffffff1614151561256f57600080fd5b600073ffffffffffffffffffffffffffffffffffffffff168173ffffffffffffffffffffffffffffffffffffffff16141515156125ab57600080fd5b8073ffffffffffffffffffffffffffffffffffffffff16600160009054906101000a900473ffffffffffffffffffffffffffffffffffffffff1673ffffffffffffffffffffffffffffffffffffffff167f8be0079c531659141344cd1fd0a4f28419497f9722a3daafe3b4186f6b6457e060405160405180910390a380600160006101000a81548173ffffffffffffffffffffffffffffffffffffffff021916908373ffffffffffffffffffffffffffffffffffffffff16021790555050565b600160009054906101000a900473ffffffffffffffffffffffffffffffffffffffff1673ffffffffffffffffffffffffffffffffffffffff163373ffffffffffffffffffffffffffffffffffffffff161415156126c757600080fd5b600073ffffffffffffffffffffffffffffffffffffffff168273ffffffffffffffffffffffffffffffffffffffff161415151561270357600080fd5b6000811415151561271357600080fd5b600f54811115151561272457600080fd5b8173ffffffffffffffffffffffffffffffffffffffff166108fc829081150290604051600060405180830381858888f1935050505015801561276a573d6000803e3d6000fd5b505050565b6000612785826015612fcb90919063ffffffff16565b9050919050565b6000601260019054906101000a900460ff1615156127a957600080fd5b600160028111156127b657fe5b601260009054906101000a900460ff1660028111156127d157fe5b1415156127dd57600080fd5b6000601060008473ffffffffffffffffffffffffffffffffffffffff1673ffffffffffffffffffffffffffffffffffffffff168152602001908152602001600020541415151561282c57600080fd5b601060008373ffffffffffffffffffffffffffffffffffffffff1673ffffffffffffffffffffffffffffffffffffffff1681526020019081526020016000205490506000601060008473ffffffffffffffffffffffffffffffffffffffff1673ffffffffffffffffffffffffffffffffffffffff168152602001908152602001600020819055508173ffffffffffffffffffffffffffffffffffffffff166108fc829081150290604051600060405180830381858888f193505050501580156128f9573d6000803e3d6000fd5b507fd7dee2702d63ad89917b6a4da9981c90c4d24f8c2bdfd64c604ecae57d8d06518282604051808373ffffffffffffffffffffffffffffffffffffffff1673ffffffffffffffffffffffffffffffffffffffff1681526020018281526020019250505060405180910390a15050565b600360009054906101000a900473ffffffffffffffffffffffffffffffffffffffff1681565b60008061299a61174a565b15156129a557600080fd5b6129ad610ea2565b1515156129b957600080fd5b600090505b600080549050811015612a35576000818154811015156129da57fe5b9060005260206000209060060201600101544210158015612a1b5750600081815481101515612a0557fe5b9060005260206000209060060201600201544211155b15612a2857809150612a36565b80806001019150506129be565b5b5090565b600080612a4561171c565b9050612a71600754600a0a612a63838661304090919063ffffffff16565b61307890919063ffffffff16565b915050919050565b600073ffffffffffffffffffffffffffffffffffffffff168373ffffffffffffffffffffffffffffffffffffffff1614151515612ab557600080fd5b60008214151515612ac557600080fd5b612acd6116b3565b612ae28260115461302490919063ffffffff16565b11151515612aef57600080fd5b612af7611f9f565b612b4983601060008773ffffffffffffffffffffffffffffffffffffffff1673ffffffffffffffffffffffffffffffffffffffff1681526020019081526020016000205461302490919063ffffffff16565b10151515612b5657600080fd5b612b5e610e00565b612bb083601060008773ffffffffffffffffffffffffffffffffffffffff1673ffffffffffffffffffffffffffffffffffffffff1681526020019081526020016000205461302490919063ffffffff16565b11151515612bbd57600080fd5b60016006811115612bca57fe5b612bd2612041565b6006811115612bdd57fe5b1415612bf857612bec83611496565b1515612bf757600080fd5b5b505050565b612c4f82601060008673ffffffffffffffffffffffffffffffffffffffff1673ffffffffffffffffffffffffffffffffffffffff1681526020019081526020016000205461302490919063ffffffff16565b601060008573ffffffffffffffffffffffffffffffffffffffff1673ffffffffffffffffffffffffffffffffffffffff16815260200190815260200160002081905550612ca78160115461302490919063ffffffff16565b601181905550612cc282600f5461302490919063ffffffff16565b600f81905550505050565b600360009054906101000a900473ffffffffffffffffffffffffffffffffffffffff1673ffffffffffffffffffffffffffffffffffffffff1663a9059cbb83836040518363ffffffff167c0100000000000000000000000000000000000000000000000000000000028152600401808373ffffffffffffffffffffffffffffffffffffffff1673ffffffffffffffffffffffffffffffffffffffff16815260200182815260200192505050602060405180830381600087803b158015612d9257600080fd5b505af1158015612da6573d6000803e3d6000fd5b505050506040513d6020811015612dbc57600080fd5b8101908080519060200190929190505050505050565b60008260000160008373ffffffffffffffffffffffffffffffffffffffff1673ffffffffffffffffffffffffffffffffffffffff16815260200190815260200160002060006101000a81548160ff0219169083151502179055505050565b60006002811115612e3d57fe5b601260009054906101000a900460ff166002811115612e5857fe5b141515612e6457600080fd5b612e6c611551565b15612f46576002601260006101000a81548160ff02191690836002811115612e9057fe5b0217905550600460009054906101000a900473ffffffffffffffffffffffffffffffffffffffff1673ffffffffffffffffffffffffffffffffffffffff166108fc3073ffffffffffffffffffffffffffffffffffffffff16319081150290604051600060405180830381858888f19350505050158015612f14573d6000803e3d6000fd5b507f1cdde67b72a90f19919ac732a437ac2f7a10fc128d28c2a6e525d89ce5cd9d3a60405160405180910390a1612f6b565b6001601260006101000a81548160ff02191690836002811115612f6557fe5b02179055505b565b60018260000160008373ffffffffffffffffffffffffffffffffffffffff1673ffffffffffffffffffffffffffffffffffffffff16815260200190815260200160002060006101000a81548160ff0219169083151502179055505050565b60008260000160008373ffffffffffffffffffffffffffffffffffffffff1673ffffffffffffffffffffffffffffffffffffffff16815260200190815260200160002060009054906101000a900460ff16905092915050565b6000818301905082811015151561303757fe5b80905092915050565b6000808314156130535760009050613072565b818302905081838281151561306457fe5b0414151561306e57fe5b8090505b92915050565b6000818381151561308557fe5b04905092915050565b608060405190810160405280600073ffffffffffffffffffffffffffffffffffffffff168152602001600081526020016060815260200160007bffffffffffffffffffffffffffffffffffffffffffffffffffffffff1916815250905600a165627a7a7230582089b1ae1ee32695e60429e70a2cf9b12e8996d24937e5b52e58c3f7afc4b464f70029",
  "source": "pragma solidity ^0.4.23;\r\n\r\nimport \"./BasicCrowdsale.sol\";\r\nimport \"./FinalizableCrowdsale.sol\";\r\nimport \"./GrantedCrowdsale.sol\";\r\nimport \"./RefundableCrowdsale.sol\";\r\nimport \"./ReferralCorwdsale.sol\";\r\nimport \"./tokenReceiver.sol\";\r\nimport \"./BurnableCrowdsale.sol\";\r\n\r\ncontract WOXCrowdsale is \r\n    BasicCrowdsale,\r\n    FinalizableCrowdsale,\r\n    GrantedCrowdsale,\r\n    RefundableCrowdsale,\r\n    ReferralCrowdsale,\r\n    BurnableCrowdsale,\r\n    tokenReceiver\r\n{\r\n    constructor(\r\n        uint256 _cliff,\r\n        uint256 _USD_PER_ETH,\r\n        address _wallet,\r\n        address _tokenAddress\r\n        ) \r\n        public \r\n    {\r\n        require(_wallet != address(0));\r\n        require(_tokenAddress != address(0));\r\n        \r\n        USD_PER_ETH = _USD_PER_ETH;\r\n        wallet = _wallet;\r\n        state = State.Active;\r\n        isFinalized = false;\r\n        \r\n        token = woxToken(_tokenAddress);\r\n        totalSupply = token.totalSupply();\r\n        decimals = token.decimals();\r\n        tokenName = token.name();\r\n        tokenSymbol = token.symbol();\r\n\r\n        softcapWei = uint256(3e6).mul(1 ether).div(USD_PER_ETH);\r\n        MaxReferralTokens = uint256(30e6).mul(10 ** decimals);\r\n\r\n        minVestingWeiPreICO = uint256(50e3).mul(1 ether).div(USD_PER_ETH);\r\n        maxVestingWeiPreICO = uint256(1e6).mul(1 ether).div(USD_PER_ETH); //// ?????\r\n        minVestingWeiICO = 0.1 ether;\r\n        maxVestingWeiICO = 300 ether;\r\n\r\n        uint256 _openingTime = now + _cliff;\r\n\r\n        addTier(\r\n            TierStates.preWhitelist,\r\n            _openingTime, \r\n            _openingTime + 10 days, \r\n            0, \r\n            0,\r\n            false);\r\n\r\n        addTier(\r\n            TierStates.preICO,\r\n            Tiers[Tiers.length-1].ending, \r\n            Tiers[Tiers.length-1].ending + 30 days, \r\n            uint256(120e6).mul(10 ** 18), \r\n            uint256(USD_PER_ETH).mul(10 ** 18).mul(100).div(8),            \r\n            true);\r\n\r\n        addTier(\r\n            TierStates.Whitelist,\r\n            Tiers[Tiers.length-1].ending, \r\n            Tiers[Tiers.length-1].ending + 10 days, \r\n            0, \r\n            0, \r\n            false);\r\n\r\n        addTier(\r\n            TierStates.ICORound1,\r\n            Tiers[Tiers.length-1].ending, \r\n            Tiers[Tiers.length-1].ending + 7 days, \r\n            uint256(125e6).mul(10 ** 18), \r\n            uint256(USD_PER_ETH).mul(10 ** 18).mul(100).div(12), \r\n            true);\r\n\r\n        addTier(\r\n            TierStates.ICORound2,\r\n            Tiers[Tiers.length-1].ending, \r\n            Tiers[Tiers.length-1].ending + 7 days, \r\n            uint256(125e6).mul(10 ** 18), \r\n            uint256(USD_PER_ETH).mul(10 ** 18).mul(100).div(13), \r\n            true);\r\n\r\n        addTier(\r\n            TierStates.ICORound3,\r\n            Tiers[Tiers.length-1].ending, \r\n            Tiers[Tiers.length-1].ending + 7 days, \r\n            uint256(125e6).mul(10 ** 18), \r\n            uint256(USD_PER_ETH).mul(10 ** 18).mul(100).div(14), \r\n            true);\r\n\r\n        addTier(\r\n            TierStates.ICORound4,\r\n            Tiers[Tiers.length-1].ending, \r\n            Tiers[Tiers.length-1].ending + 7 days, \r\n            uint256(125e6).mul(10 ** 18), \r\n            uint256(USD_PER_ETH).mul(10 ** 18).mul(100).div(15), \r\n            true);\r\n    }\r\n}",
  "sourcePath": "G:\\Root\\Blockchain\\BAX\\contracts\\crowdSale\\WOXCrowdsale.sol",
  "compiler": {
    "name": "solc",
    "version": "0.4.23+commit.124ca40d.Emscripten.clang"
  },
  "schemaVersion": "2.0.0",
  "updatedAt": "2018-06-07T05:53:55.007Z"
}