{
  "contractName": "woxToken",
  "abi": [
    {
      "constant": true,
      "inputs": [],
      "name": "name",
      "outputs": [
        {
          "name": "",
          "type": "string"
        }
      ],
      "payable": false,
      "stateMutability": "view",
      "type": "function"
    },
    {
      "constant": false,
      "inputs": [
        {
          "name": "_spender",
          "type": "address"
        },
        {
          "name": "_value",
          "type": "uint256"
        }
      ],
      "name": "approve",
      "outputs": [
        {
          "name": "",
          "type": "bool"
        }
      ],
      "payable": false,
      "stateMutability": "nonpayable",
      "type": "function"
    },
    {
      "constant": true,
      "inputs": [],
      "name": "totalSupply",
      "outputs": [
        {
          "name": "",
          "type": "uint256"
        }
      ],
      "payable": false,
      "stateMutability": "view",
      "type": "function"
    },
    {
      "constant": true,
      "inputs": [],
      "name": "decimals",
      "outputs": [
        {
          "name": "",
          "type": "uint256"
        }
      ],
      "payable": false,
      "stateMutability": "view",
      "type": "function"
    },
    {
      "constant": false,
      "inputs": [
        {
          "name": "_spender",
          "type": "address"
        },
        {
          "name": "_subtractedValue",
          "type": "uint256"
        }
      ],
      "name": "decreaseApproval",
      "outputs": [
        {
          "name": "",
          "type": "bool"
        }
      ],
      "payable": false,
      "stateMutability": "nonpayable",
      "type": "function"
    },
    {
      "constant": true,
      "inputs": [
        {
          "name": "_owner",
          "type": "address"
        }
      ],
      "name": "balanceOf",
      "outputs": [
        {
          "name": "",
          "type": "uint256"
        }
      ],
      "payable": false,
      "stateMutability": "view",
      "type": "function"
    },
    {
      "constant": false,
      "inputs": [],
      "name": "renounceOwnership",
      "outputs": [],
      "payable": false,
      "stateMutability": "nonpayable",
      "type": "function"
    },
    {
      "constant": true,
      "inputs": [],
      "name": "owner",
      "outputs": [
        {
          "name": "",
          "type": "address"
        }
      ],
      "payable": false,
      "stateMutability": "view",
      "type": "function"
    },
    {
      "constant": true,
      "inputs": [],
      "name": "symbol",
      "outputs": [
        {
          "name": "",
          "type": "string"
        }
      ],
      "payable": false,
      "stateMutability": "view",
      "type": "function"
    },
    {
      "constant": false,
      "inputs": [
        {
          "name": "_burnAmount",
          "type": "uint256"
        }
      ],
      "name": "Burn",
      "outputs": [],
      "payable": false,
      "stateMutability": "nonpayable",
      "type": "function"
    },
    {
      "constant": false,
      "inputs": [
        {
          "name": "_spender",
          "type": "address"
        },
        {
          "name": "_addedValue",
          "type": "uint256"
        }
      ],
      "name": "increaseApproval",
      "outputs": [
        {
          "name": "",
          "type": "bool"
        }
      ],
      "payable": false,
      "stateMutability": "nonpayable",
      "type": "function"
    },
    {
      "constant": true,
      "inputs": [
        {
          "name": "_owner",
          "type": "address"
        },
        {
          "name": "_spender",
          "type": "address"
        }
      ],
      "name": "allowance",
      "outputs": [
        {
          "name": "",
          "type": "uint256"
        }
      ],
      "payable": false,
      "stateMutability": "view",
      "type": "function"
    },
    {
      "constant": false,
      "inputs": [
        {
          "name": "newOwner",
          "type": "address"
        }
      ],
      "name": "transferOwnership",
      "outputs": [],
      "payable": false,
      "stateMutability": "nonpayable",
      "type": "function"
    },
    {
      "inputs": [],
      "payable": false,
      "stateMutability": "nonpayable",
      "type": "constructor"
    },
    {
      "anonymous": false,
      "inputs": [
        {
          "indexed": false,
          "name": "burner",
          "type": "address"
        },
        {
          "indexed": false,
          "name": "burnAmount",
          "type": "uint256"
        }
      ],
      "name": "Burned",
      "type": "event"
    },
    {
      "anonymous": false,
      "inputs": [
        {
          "indexed": true,
          "name": "previousOwner",
          "type": "address"
        }
      ],
      "name": "OwnershipRenounced",
      "type": "event"
    },
    {
      "anonymous": false,
      "inputs": [
        {
          "indexed": true,
          "name": "previousOwner",
          "type": "address"
        },
        {
          "indexed": true,
          "name": "newOwner",
          "type": "address"
        }
      ],
      "name": "OwnershipTransferred",
      "type": "event"
    },
    {
      "anonymous": false,
      "inputs": [
        {
          "indexed": true,
          "name": "_from",
          "type": "address"
        },
        {
          "indexed": true,
          "name": "_to",
          "type": "address"
        },
        {
          "indexed": false,
          "name": "_value",
          "type": "uint256"
        }
      ],
      "name": "Transfer",
      "type": "event"
    },
    {
      "anonymous": false,
      "inputs": [
        {
          "indexed": true,
          "name": "_owner",
          "type": "address"
        },
        {
          "indexed": true,
          "name": "_spender",
          "type": "address"
        },
        {
          "indexed": false,
          "name": "_value",
          "type": "uint256"
        }
      ],
      "name": "Approval",
      "type": "event"
    },
    {
      "constant": false,
      "inputs": [
        {
          "name": "_to",
          "type": "address"
        },
        {
          "name": "_amount",
          "type": "uint256"
        },
        {
          "name": "_until",
          "type": "uint256"
        },
        {
          "name": "_data",
          "type": "bytes"
        },
        {
          "name": "_custom_fallback",
          "type": "string"
        }
      ],
      "name": "transferLockedAmount",
      "outputs": [
        {
          "name": "",
          "type": "bool"
        }
      ],
      "payable": false,
      "stateMutability": "nonpayable",
      "type": "function"
    },
    {
      "constant": false,
      "inputs": [
        {
          "name": "_to",
          "type": "address"
        },
        {
          "name": "_amount",
          "type": "uint256"
        },
        {
          "name": "_until",
          "type": "uint256"
        }
      ],
      "name": "transferLockedAmount",
      "outputs": [
        {
          "name": "",
          "type": "bool"
        }
      ],
      "payable": false,
      "stateMutability": "nonpayable",
      "type": "function"
    },
    {
      "constant": false,
      "inputs": [
        {
          "name": "_to",
          "type": "address"
        },
        {
          "name": "_amount",
          "type": "uint256"
        },
        {
          "name": "_until",
          "type": "uint256"
        },
        {
          "name": "_data",
          "type": "bytes"
        }
      ],
      "name": "transferLockedAmount",
      "outputs": [
        {
          "name": "",
          "type": "bool"
        }
      ],
      "payable": false,
      "stateMutability": "nonpayable",
      "type": "function"
    },
    {
      "constant": true,
      "inputs": [
        {
          "name": "_address",
          "type": "address"
        }
      ],
      "name": "getFreeBalance",
      "outputs": [
        {
          "name": "",
          "type": "uint256"
        }
      ],
      "payable": false,
      "stateMutability": "view",
      "type": "function"
    },
    {
      "constant": false,
      "inputs": [
        {
          "name": "_to",
          "type": "address"
        },
        {
          "name": "_value",
          "type": "uint256"
        }
      ],
      "name": "transfer",
      "outputs": [
        {
          "name": "",
          "type": "bool"
        }
      ],
      "payable": false,
      "stateMutability": "nonpayable",
      "type": "function"
    },
    {
      "constant": false,
      "inputs": [
        {
          "name": "_to",
          "type": "address"
        },
        {
          "name": "_value",
          "type": "uint256"
        },
        {
          "name": "_data",
          "type": "bytes"
        }
      ],
      "name": "transfer",
      "outputs": [
        {
          "name": "",
          "type": "bool"
        }
      ],
      "payable": false,
      "stateMutability": "nonpayable",
      "type": "function"
    },
    {
      "constant": false,
      "inputs": [
        {
          "name": "_to",
          "type": "address"
        },
        {
          "name": "_value",
          "type": "uint256"
        },
        {
          "name": "_data",
          "type": "bytes"
        },
        {
          "name": "_custom_fallback",
          "type": "string"
        }
      ],
      "name": "transfer",
      "outputs": [
        {
          "name": "",
          "type": "bool"
        }
      ],
      "payable": false,
      "stateMutability": "nonpayable",
      "type": "function"
    },
    {
      "constant": false,
      "inputs": [
        {
          "name": "_from",
          "type": "address"
        },
        {
          "name": "_to",
          "type": "address"
        },
        {
          "name": "_value",
          "type": "uint256"
        }
      ],
      "name": "transferFrom",
      "outputs": [
        {
          "name": "",
          "type": "bool"
        }
      ],
      "payable": false,
      "stateMutability": "nonpayable",
      "type": "function"
    },
    {
      "constant": false,
      "inputs": [
        {
          "name": "_from",
          "type": "address"
        },
        {
          "name": "_to",
          "type": "address"
        },
        {
          "name": "_value",
          "type": "uint256"
        },
        {
          "name": "_data",
          "type": "bytes"
        },
        {
          "name": "_custom_fallback",
          "type": "string"
        }
      ],
      "name": "transferFrom",
      "outputs": [
        {
          "name": "",
          "type": "bool"
        }
      ],
      "payable": false,
      "stateMutability": "nonpayable",
      "type": "function"
    },
    {
      "constant": false,
      "inputs": [
        {
          "name": "_from",
          "type": "address"
        },
        {
          "name": "_to",
          "type": "address"
        },
        {
          "name": "_value",
          "type": "uint256"
        },
        {
          "name": "_data",
          "type": "bytes"
        }
      ],
      "name": "transferFrom",
      "outputs": [
        {
          "name": "",
          "type": "bool"
        }
      ],
      "payable": false,
      "stateMutability": "nonpayable",
      "type": "function"
    }
  ],
  "bytecode": "0x60806040523480156200001157600080fd5b50336000806101000a81548173ffffffffffffffffffffffffffffffffffffffff021916908373ffffffffffffffffffffffffffffffffffffffff1602179055506040805190810160405280600b81526020017f574f582e4e6574776f726b000000000000000000000000000000000000000000815250600190805190602001906200009f92919062000175565b506040805190810160405280600381526020017f574f58000000000000000000000000000000000000000000000000000000000081525060029080519060200190620000ed92919062000175565b506012600381905550600354600a0a633b9aca0002600481905550600454600560008060009054906101000a900473ffffffffffffffffffffffffffffffffffffffff1673ffffffffffffffffffffffffffffffffffffffff1673ffffffffffffffffffffffffffffffffffffffff1681526020019081526020016000208190555062000224565b828054600181600116156101000203166002900490600052602060002090601f016020900481019282601f10620001b857805160ff1916838001178555620001e9565b82800160010185558215620001e9579182015b82811115620001e8578251825591602001919060010190620001cb565b5b509050620001f89190620001fc565b5090565b6200022191905b808211156200021d57600081600090555060010162000203565b5090565b90565b61392180620002346000396000f300608060405260043610610133576000357c0100000000000000000000000000000000000000000000000000000000900463ffffffff16806306fdde0314610138578063095ea7b3146101c857806318160ddd1461022d5780631b0dfde51461025857806323b872dd14610353578063313ce567146103d857806343af57d6146104035780634e2ab93314610472578063661884631461058357806370a08231146105e8578063715018a61461063f5780638870985b146106565780638da5cb5b146106ad57806395d89b4114610704578063a7b8d22314610794578063a9059cbb14610849578063ab67aa58146108ae578063b90306ad14610979578063be45fd62146109a6578063d73dd62314610a51578063dd62ed3e14610ab6578063f2fde38b14610b2d578063f6368f8a14610b70575b600080fd5b34801561014457600080fd5b5061014d610c61565b6040518080602001828103825283818151815260200191508051906020019080838360005b8381101561018d578082015181840152602081019050610172565b50505050905090810190601f1680156101ba5780820380516001836020036101000a031916815260200191505b509250505060405180910390f35b3480156101d457600080fd5b50610213600480360381019080803573ffffffffffffffffffffffffffffffffffffffff16906020019092919080359060200190929190505050610d03565b604051808215151515815260200191505060405180910390f35b34801561023957600080fd5b50610242610e30565b6040518082815260200191505060405180910390f35b34801561026457600080fd5b50610339600480360381019080803573ffffffffffffffffffffffffffffffffffffffff1690602001909291908035906020019092919080359060200190929190803590602001908201803590602001908080601f0160208091040260200160405190810160405280939291908181526020018383808284378201915050505050509192919290803590602001908201803590602001908080601f0160208091040260200160405190810160405280939291908181526020018383808284378201915050505050509192919290505050610e3a565b604051808215151515815260200191505060405180910390f35b34801561035f57600080fd5b506103be600480360381019080803573ffffffffffffffffffffffffffffffffffffffff169060200190929190803573ffffffffffffffffffffffffffffffffffffffff169060200190929190803590602001909291905050506112a3565b604051808215151515815260200191505060405180910390f35b3480156103e457600080fd5b506103ed6112cf565b6040518082815260200191505060405180910390f35b34801561040f57600080fd5b50610458600480360381019080803573ffffffffffffffffffffffffffffffffffffffff16906020019092919080359060200190929190803590602001909291905050506112d9565b604051808215151515815260200191505060405180910390f35b34801561047e57600080fd5b50610569600480360381019080803573ffffffffffffffffffffffffffffffffffffffff169060200190929190803573ffffffffffffffffffffffffffffffffffffffff16906020019092919080359060200190929190803590602001908201803590602001908080601f0160208091040260200160405190810160405280939291908181526020018383808284378201915050505050509192919290803590602001908201803590602001908080601f0160208091040260200160405190810160405280939291908181526020018383808284378201915050505050509192919290505050611457565b604051808215151515815260200191505060405180910390f35b34801561058f57600080fd5b506105ce600480360381019080803573ffffffffffffffffffffffffffffffffffffffff16906020019092919080359060200190929190505050611487565b604051808215151515815260200191505060405180910390f35b3480156105f457600080fd5b50610629600480360381019080803573ffffffffffffffffffffffffffffffffffffffff1690602001909291905050506117d1565b6040518082815260200191505060405180910390f35b34801561064b57600080fd5b5061065461181a565b005b34801561066257600080fd5b50610697600480360381019080803573ffffffffffffffffffffffffffffffffffffffff16906020019092919050505061191c565b6040518082815260200191505060405180910390f35b3480156106b957600080fd5b506106c2611b42565b604051808273ffffffffffffffffffffffffffffffffffffffff1673ffffffffffffffffffffffffffffffffffffffff16815260200191505060405180910390f35b34801561071057600080fd5b50610719611b67565b6040518080602001828103825283818151815260200191508051906020019080838360005b8381101561075957808201518184015260208101905061073e565b50505050905090810190601f1680156107865780820380516001836020036101000a031916815260200191505b509250505060405180910390f35b3480156107a057600080fd5b5061082f600480360381019080803573ffffffffffffffffffffffffffffffffffffffff1690602001909291908035906020019092919080359060200190929190803590602001908201803590602001908080601f0160208091040260200160405190810160405280939291908181526020018383808284378201915050505050509192919290505050611c09565b604051808215151515815260200191505060405180910390f35b34801561085557600080fd5b50610894600480360381019080803573ffffffffffffffffffffffffffffffffffffffff16906020019092919080359060200190929190505050611d89565b604051808215151515815260200191505060405180910390f35b3480156108ba57600080fd5b5061095f600480360381019080803573ffffffffffffffffffffffffffffffffffffffff169060200190929190803573ffffffffffffffffffffffffffffffffffffffff16906020019092919080359060200190929190803590602001908201803590602001908080601f0160208091040260200160405190810160405280939291908181526020018383808284378201915050505050509192919290505050611db3565b604051808215151515815260200191505060405180910390f35b34801561098557600080fd5b506109a460048036038101908080359060200190929190505050611de1565b005b3480156109b257600080fd5b50610a37600480360381019080803573ffffffffffffffffffffffffffffffffffffffff16906020019092919080359060200190929190803590602001908201803590602001908080601f0160208091040260200160405190810160405280939291908181526020018383808284378201915050505050509192919290505050611f5e565b604051808215151515815260200191505060405180910390f35b348015610a5d57600080fd5b50610a9c600480360381019080803573ffffffffffffffffffffffffffffffffffffffff16906020019092919080359060200190929190505050611f8a565b604051808215151515815260200191505060405180910390f35b348015610ac257600080fd5b50610b17600480360381019080803573ffffffffffffffffffffffffffffffffffffffff169060200190929190803573ffffffffffffffffffffffffffffffffffffffff1690602001909291905050506121c1565b6040518082815260200191505060405180910390f35b348015610b3957600080fd5b50610b6e600480360381019080803573ffffffffffffffffffffffffffffffffffffffff169060200190929190505050612248565b005b348015610b7c57600080fd5b50610c47600480360381019080803573ffffffffffffffffffffffffffffffffffffffff16906020019092919080359060200190929190803590602001908201803590602001908080601f0160208091040260200160405190810160405280939291908181526020018383808284378201915050505050509192919290803590602001908201803590602001908080601f016020809104026020016040519081016040528093929190818152602001838380828437820191505050505050919291929050505061239d565b604051808215151515815260200191505060405180910390f35b606060018054600181600116156101000203166002900480601f016020809104026020016040519081016040528092919081815260200182805460018160011615610100020316600290048015610cf95780601f10610cce57610100808354040283529160200191610cf9565b820191906000526020600020905b815481529060010190602001808311610cdc57829003601f168201915b5050505050905090565b60008073ffffffffffffffffffffffffffffffffffffffff168373ffffffffffffffffffffffffffffffffffffffff1614151515610d4057600080fd5b81600660003373ffffffffffffffffffffffffffffffffffffffff1673ffffffffffffffffffffffffffffffffffffffff16815260200190815260200160002060008573ffffffffffffffffffffffffffffffffffffffff1673ffffffffffffffffffffffffffffffffffffffff168152602001908152602001600020819055508273ffffffffffffffffffffffffffffffffffffffff163373ffffffffffffffffffffffffffffffffffffffff167f8c5be1e5ebec7d5bd14f71427d1e84f3dd0314c0f7b2291e5b200ac8c7c3b925846040518082815260200191505060405180910390a36001905092915050565b6000600454905090565b6000610e446138d1565b600073ffffffffffffffffffffffffffffffffffffffff168773ffffffffffffffffffffffffffffffffffffffff1614151515610e8057600080fd5b600086111515610e8f57600080fd5b600560003373ffffffffffffffffffffffffffffffffffffffff1673ffffffffffffffffffffffffffffffffffffffff168152602001908152602001600020548611151515610edd57600080fd5b85816000018181525050848160200181815250506001816040019015159081151581525050600760008873ffffffffffffffffffffffffffffffffffffffff1673ffffffffffffffffffffffffffffffffffffffff1681526020019081526020016000208190806001815401808255809150509060018203906000526020600020906003020160009091929091909150600082015181600001556020820151816001015560408201518160020160006101000a81548160ff021916908315150217905550505050610fc38773ffffffffffffffffffffffffffffffffffffffff166123cb565b1561128a5761101a86600560003373ffffffffffffffffffffffffffffffffffffffff1673ffffffffffffffffffffffffffffffffffffffff168152602001908152602001600020546123de90919063ffffffff16565b600560003373ffffffffffffffffffffffffffffffffffffffff1673ffffffffffffffffffffffffffffffffffffffff168152602001908152602001600020819055506110af86600560008a73ffffffffffffffffffffffffffffffffffffffff1673ffffffffffffffffffffffffffffffffffffffff168152602001908152602001600020546123f790919063ffffffff16565b600560008973ffffffffffffffffffffffffffffffffffffffff1673ffffffffffffffffffffffffffffffffffffffff168152602001908152602001600020819055508673ffffffffffffffffffffffffffffffffffffffff166108fc600085338a8960405180858051906020019080838360005b8381101561113f578082015181840152602081019050611124565b50505050905090810190601f16801561116c5780820380516001836020036101000a031916815260200191505b508473ffffffffffffffffffffffffffffffffffffffff1673ffffffffffffffffffffffffffffffffffffffff168152602001838152602001828051906020019080838360005b838110156111ce5780820151818401526020810190506111b3565b50505050905090810190601f1680156111fb5780820380516001836020036101000a031916815260200191505b50945050505050600060405180830381858888f19350505050151561121c57fe5b8673ffffffffffffffffffffffffffffffffffffffff163373ffffffffffffffffffffffffffffffffffffffff167fddf252ad1be2c89b69c2b068fc378daa952ba7f163c4a11628f55a4df523b3ef886040518082815260200191505060405180910390a360019150611299565b61129633888887612413565b91505b5095945050505050565b60006112ae8461191c565b82111515156112bc57600080fd5b6112c78484846125b0565b509392505050565b6000600354905090565b60006112e36138d1565b600073ffffffffffffffffffffffffffffffffffffffff168573ffffffffffffffffffffffffffffffffffffffff161415151561131f57600080fd5b60008411151561132e57600080fd5b600560003373ffffffffffffffffffffffffffffffffffffffff1673ffffffffffffffffffffffffffffffffffffffff16815260200190815260200160002054841115151561137c57600080fd5b83816000018181525050828160200181815250506001816040019015159081151581525050600760008673ffffffffffffffffffffffffffffffffffffffff1673ffffffffffffffffffffffffffffffffffffffff1681526020019081526020016000208190806001815401808255809150509060018203906000526020600020906003020160009091929091909150600082015181600001556020820151816001015560408201518160020160006101000a81548160ff02191690831515021790555050505061144d8585611d89565b9150509392505050565b60006114628661191c565b841115151561147057600080fd5b61147d8686868686612836565b5095945050505050565b600080600073ffffffffffffffffffffffffffffffffffffffff168473ffffffffffffffffffffffffffffffffffffffff16141515156114c657600080fd5b600660003373ffffffffffffffffffffffffffffffffffffffff1673ffffffffffffffffffffffffffffffffffffffff16815260200190815260200160002060008573ffffffffffffffffffffffffffffffffffffffff1673ffffffffffffffffffffffffffffffffffffffff16815260200190815260200160002054905082811115156115d5576000600660003373ffffffffffffffffffffffffffffffffffffffff1673ffffffffffffffffffffffffffffffffffffffff16815260200190815260200160002060008673ffffffffffffffffffffffffffffffffffffffff1673ffffffffffffffffffffffffffffffffffffffff168152602001908152602001600020819055506116e5565b61166483600660003373ffffffffffffffffffffffffffffffffffffffff1673ffffffffffffffffffffffffffffffffffffffff16815260200190815260200160002060008773ffffffffffffffffffffffffffffffffffffffff1673ffffffffffffffffffffffffffffffffffffffff168152602001908152602001600020546123de90919063ffffffff16565b600660003373ffffffffffffffffffffffffffffffffffffffff1673ffffffffffffffffffffffffffffffffffffffff16815260200190815260200160002060008673ffffffffffffffffffffffffffffffffffffffff1673ffffffffffffffffffffffffffffffffffffffff168152602001908152602001600020819055505b8373ffffffffffffffffffffffffffffffffffffffff163373ffffffffffffffffffffffffffffffffffffffff167f8c5be1e5ebec7d5bd14f71427d1e84f3dd0314c0f7b2291e5b200ac8c7c3b925600660003373ffffffffffffffffffffffffffffffffffffffff1673ffffffffffffffffffffffffffffffffffffffff16815260200190815260200160002060008873ffffffffffffffffffffffffffffffffffffffff1673ffffffffffffffffffffffffffffffffffffffff168152602001908152602001600020546040518082815260200191505060405180910390a3600191505092915050565b6000600560008373ffffffffffffffffffffffffffffffffffffffff1673ffffffffffffffffffffffffffffffffffffffff168152602001908152602001600020549050919050565b6000809054906101000a900473ffffffffffffffffffffffffffffffffffffffff1673ffffffffffffffffffffffffffffffffffffffff163373ffffffffffffffffffffffffffffffffffffffff1614151561187557600080fd5b6000809054906101000a900473ffffffffffffffffffffffffffffffffffffffff1673ffffffffffffffffffffffffffffffffffffffff167ff8df31144d9c2f0f6b59d69b8b98abd5459d07f2742c4df920b25aae33c6482060405160405180910390a260008060006101000a81548173ffffffffffffffffffffffffffffffffffffffff021916908373ffffffffffffffffffffffffffffffffffffffff160217905550565b60006060600080600760008673ffffffffffffffffffffffffffffffffffffffff1673ffffffffffffffffffffffffffffffffffffffff168152602001908152602001600020805480602002602001604051908101604052809291908181526020016000905b828210156119e457838290600052602060002090600302016060604051908101604052908160008201548152602001600182015481526020016002820160009054906101000a900460ff16151515158152505081526020019060010190611982565b50505050925060009150600090505b8251811015611a8857428382815181101515611a0b57fe5b9060200190602002015160200151118015611a455750600115158382815181101515611a3357fe5b90602001906020020151604001511515145b15611a7b57611a788382815181101515611a5b57fe5b9060200190602002015160000151836123f790919063ffffffff16565b91505b80806001019150506119f3565b6000611adc83600560008973ffffffffffffffffffffffffffffffffffffffff1673ffffffffffffffffffffffffffffffffffffffff168152602001908152602001600020546123de90919063ffffffff16565b10151515611ae657fe5b611b3882600560008873ffffffffffffffffffffffffffffffffffffffff1673ffffffffffffffffffffffffffffffffffffffff168152602001908152602001600020546123de90919063ffffffff16565b9350505050919050565b6000809054906101000a900473ffffffffffffffffffffffffffffffffffffffff1681565b606060028054600181600116156101000203166002900480601f016020809104026020016040519081016040528092919081815260200182805460018160011615610100020316600290048015611bff5780601f10611bd457610100808354040283529160200191611bff565b820191906000526020600020905b815481529060010190602001808311611be257829003601f168201915b5050505050905090565b6000611c136138d1565b600073ffffffffffffffffffffffffffffffffffffffff168673ffffffffffffffffffffffffffffffffffffffff1614151515611c4f57600080fd5b600085111515611c5e57600080fd5b600560003373ffffffffffffffffffffffffffffffffffffffff1673ffffffffffffffffffffffffffffffffffffffff168152602001908152602001600020548511151515611cac57600080fd5b84816000018181525050838160200181815250506001816040019015159081151581525050600760008773ffffffffffffffffffffffffffffffffffffffff1673ffffffffffffffffffffffffffffffffffffffff1681526020019081526020016000208190806001815401808255809150509060018203906000526020600020906003020160009091929091909150600082015181600001556020820151816001015560408201518160020160006101000a81548160ff021916908315150217905550505050611d7e868685611f5e565b915050949350505050565b6000611d943361191c565b8211151515611da257600080fd5b611dac8383612dc1565b5092915050565b6000611dbe8561191c565b8311151515611dcc57600080fd5b611dd885858585612eac565b50949350505050565b6004548111151515611df257600080fd5b600560003373ffffffffffffffffffffffffffffffffffffffff1673ffffffffffffffffffffffffffffffffffffffff168152602001908152602001600020548111151515611e4057600080fd5b611e9281600560003373ffffffffffffffffffffffffffffffffffffffff1673ffffffffffffffffffffffffffffffffffffffff168152602001908152602001600020546123de90919063ffffffff16565b600560003373ffffffffffffffffffffffffffffffffffffffff1673ffffffffffffffffffffffffffffffffffffffff16815260200190815260200160002081905550611eea816004546123de90919063ffffffff16565b6004819055507f696de425f79f4a40bc6d2122ca50507f0efbeabbff86a84871b7196ab8ea8df73382604051808373ffffffffffffffffffffffffffffffffffffffff1673ffffffffffffffffffffffffffffffffffffffff1681526020018281526020019250505060405180910390a150565b6000611f693361191c565b8311151515611f7757600080fd5b611f8284848461312f565b509392505050565b60008073ffffffffffffffffffffffffffffffffffffffff168373ffffffffffffffffffffffffffffffffffffffff1614151515611fc757600080fd5b61205682600660003373ffffffffffffffffffffffffffffffffffffffff1673ffffffffffffffffffffffffffffffffffffffff16815260200190815260200160002060008673ffffffffffffffffffffffffffffffffffffffff1673ffffffffffffffffffffffffffffffffffffffff168152602001908152602001600020546123f790919063ffffffff16565b600660003373ffffffffffffffffffffffffffffffffffffffff1673ffffffffffffffffffffffffffffffffffffffff16815260200190815260200160002060008573ffffffffffffffffffffffffffffffffffffffff1673ffffffffffffffffffffffffffffffffffffffff168152602001908152602001600020819055508273ffffffffffffffffffffffffffffffffffffffff163373ffffffffffffffffffffffffffffffffffffffff167f8c5be1e5ebec7d5bd14f71427d1e84f3dd0314c0f7b2291e5b200ac8c7c3b925600660003373ffffffffffffffffffffffffffffffffffffffff1673ffffffffffffffffffffffffffffffffffffffff16815260200190815260200160002060008773ffffffffffffffffffffffffffffffffffffffff1673ffffffffffffffffffffffffffffffffffffffff168152602001908152602001600020546040518082815260200191505060405180910390a36001905092915050565b6000600660008473ffffffffffffffffffffffffffffffffffffffff1673ffffffffffffffffffffffffffffffffffffffff16815260200190815260200160002060008373ffffffffffffffffffffffffffffffffffffffff1673ffffffffffffffffffffffffffffffffffffffff16815260200190815260200160002054905092915050565b6000809054906101000a900473ffffffffffffffffffffffffffffffffffffffff1673ffffffffffffffffffffffffffffffffffffffff163373ffffffffffffffffffffffffffffffffffffffff161415156122a357600080fd5b600073ffffffffffffffffffffffffffffffffffffffff168173ffffffffffffffffffffffffffffffffffffffff16141515156122df57600080fd5b8073ffffffffffffffffffffffffffffffffffffffff166000809054906101000a900473ffffffffffffffffffffffffffffffffffffffff1673ffffffffffffffffffffffffffffffffffffffff167f8be0079c531659141344cd1fd0a4f28419497f9722a3daafe3b4186f6b6457e060405160405180910390a3806000806101000a81548173ffffffffffffffffffffffffffffffffffffffff021916908373ffffffffffffffffffffffffffffffffffffffff16021790555050565b60006123a83361191c565b84111515156123b657600080fd5b6123c285858585613217565b50949350505050565b600080823b905060008111915050919050565b60008282111515156123ec57fe5b818303905092915050565b6000818301905082811015151561240a57fe5b80905092915050565b600061246783600560008873ffffffffffffffffffffffffffffffffffffffff1673ffffffffffffffffffffffffffffffffffffffff168152602001908152602001600020546123de90919063ffffffff16565b600560008773ffffffffffffffffffffffffffffffffffffffff1673ffffffffffffffffffffffffffffffffffffffff168152602001908152602001600020819055506124fc83600560008773ffffffffffffffffffffffffffffffffffffffff1673ffffffffffffffffffffffffffffffffffffffff168152602001908152602001600020546123f790919063ffffffff16565b600560008673ffffffffffffffffffffffffffffffffffffffff1673ffffffffffffffffffffffffffffffffffffffff168152602001908152602001600020819055508373ffffffffffffffffffffffffffffffffffffffff168573ffffffffffffffffffffffffffffffffffffffff167fddf252ad1be2c89b69c2b068fc378daa952ba7f163c4a11628f55a4df523b3ef856040518082815260200191505060405180910390a360019050949350505050565b60006060600073ffffffffffffffffffffffffffffffffffffffff168473ffffffffffffffffffffffffffffffffffffffff16141515156125f057600080fd5b6000831415151561260057600080fd5b600560008673ffffffffffffffffffffffffffffffffffffffff1673ffffffffffffffffffffffffffffffffffffffff16815260200190815260200160002054831115151561264e57600080fd5b600660008673ffffffffffffffffffffffffffffffffffffffff1673ffffffffffffffffffffffffffffffffffffffff16815260200190815260200160002060003373ffffffffffffffffffffffffffffffffffffffff1673ffffffffffffffffffffffffffffffffffffffff1681526020019081526020016000205483111515156126d957600080fd5b61276883600660008873ffffffffffffffffffffffffffffffffffffffff1673ffffffffffffffffffffffffffffffffffffffff16815260200190815260200160002060003373ffffffffffffffffffffffffffffffffffffffff1673ffffffffffffffffffffffffffffffffffffffff168152602001908152602001600020546123de90919063ffffffff16565b600660008773ffffffffffffffffffffffffffffffffffffffff1673ffffffffffffffffffffffffffffffffffffffff16815260200190815260200160002060003373ffffffffffffffffffffffffffffffffffffffff1673ffffffffffffffffffffffffffffffffffffffff168152602001908152602001600020819055506128078473ffffffffffffffffffffffffffffffffffffffff166123cb565b1561281f5761281885858584613607565b915061282e565b61282b85858584612413565b91505b509392505050565b60008073ffffffffffffffffffffffffffffffffffffffff168573ffffffffffffffffffffffffffffffffffffffff161415151561287357600080fd5b6000841415151561288357600080fd5b600560008773ffffffffffffffffffffffffffffffffffffffff1673ffffffffffffffffffffffffffffffffffffffff1681526020019081526020016000205484111515156128d157600080fd5b600660008773ffffffffffffffffffffffffffffffffffffffff1673ffffffffffffffffffffffffffffffffffffffff16815260200190815260200160002060003373ffffffffffffffffffffffffffffffffffffffff1673ffffffffffffffffffffffffffffffffffffffff16815260200190815260200160002054841115151561295c57600080fd5b6129eb84600660008973ffffffffffffffffffffffffffffffffffffffff1673ffffffffffffffffffffffffffffffffffffffff16815260200190815260200160002060003373ffffffffffffffffffffffffffffffffffffffff1673ffffffffffffffffffffffffffffffffffffffff168152602001908152602001600020546123de90919063ffffffff16565b600660008873ffffffffffffffffffffffffffffffffffffffff1673ffffffffffffffffffffffffffffffffffffffff16815260200190815260200160002060003373ffffffffffffffffffffffffffffffffffffffff1673ffffffffffffffffffffffffffffffffffffffff16815260200190815260200160002081905550612a8a8573ffffffffffffffffffffffffffffffffffffffff166123cb565b15612da957612ae184600560008973ffffffffffffffffffffffffffffffffffffffff1673ffffffffffffffffffffffffffffffffffffffff168152602001908152602001600020546123de90919063ffffffff16565b600560008873ffffffffffffffffffffffffffffffffffffffff1673ffffffffffffffffffffffffffffffffffffffff16815260200190815260200160002081905550612b7684600560008873ffffffffffffffffffffffffffffffffffffffff1673ffffffffffffffffffffffffffffffffffffffff168152602001908152602001600020546123f790919063ffffffff16565b600560008773ffffffffffffffffffffffffffffffffffffffff1673ffffffffffffffffffffffffffffffffffffffff168152602001908152602001600020819055508473ffffffffffffffffffffffffffffffffffffffff166108fc6000846040518082805190602001908083835b602083101515612c0b5780518252602082019150602081019050602083039250612be6565b6001836020036101000a03801982511681845116808217855250505050505090500191505060405180910390207c0100000000000000000000000000000000000000000000000000000000900491903388886040518663ffffffff167c0100000000000000000000000000000000000000000000000000000000028152600401808473ffffffffffffffffffffffffffffffffffffffff1673ffffffffffffffffffffffffffffffffffffffff168152602001838152602001828051906020019080838360005b83811015612ced578082015181840152602081019050612cd2565b50505050905090810190601f168015612d1a5780820380516001836020036101000a031916815260200191505b509350505050600060405180830381858988f19450505050501515612d3b57fe5b8473ffffffffffffffffffffffffffffffffffffffff168673ffffffffffffffffffffffffffffffffffffffff167fddf252ad1be2c89b69c2b068fc378daa952ba7f163c4a11628f55a4df523b3ef866040518082815260200191505060405180910390a360019050612db8565b612db586868686612413565b90505b95945050505050565b60006060600073ffffffffffffffffffffffffffffffffffffffff168473ffffffffffffffffffffffffffffffffffffffff1614151515612e0157600080fd5b60008314151515612e1157600080fd5b600560003373ffffffffffffffffffffffffffffffffffffffff1673ffffffffffffffffffffffffffffffffffffffff168152602001908152602001600020548311151515612e5f57600080fd5b612e7e8473ffffffffffffffffffffffffffffffffffffffff166123cb565b15612e9657612e8f33858584613607565b9150612ea5565b612ea233858584612413565b91505b5092915050565b60008073ffffffffffffffffffffffffffffffffffffffff168473ffffffffffffffffffffffffffffffffffffffff1614151515612ee957600080fd5b60008314151515612ef957600080fd5b600560008673ffffffffffffffffffffffffffffffffffffffff1673ffffffffffffffffffffffffffffffffffffffff168152602001908152602001600020548311151515612f4757600080fd5b600660008673ffffffffffffffffffffffffffffffffffffffff1673ffffffffffffffffffffffffffffffffffffffff16815260200190815260200160002060003373ffffffffffffffffffffffffffffffffffffffff1673ffffffffffffffffffffffffffffffffffffffff168152602001908152602001600020548311151515612fd257600080fd5b61306183600660008873ffffffffffffffffffffffffffffffffffffffff1673ffffffffffffffffffffffffffffffffffffffff16815260200190815260200160002060003373ffffffffffffffffffffffffffffffffffffffff1673ffffffffffffffffffffffffffffffffffffffff168152602001908152602001600020546123de90919063ffffffff16565b600660008773ffffffffffffffffffffffffffffffffffffffff1673ffffffffffffffffffffffffffffffffffffffff16815260200190815260200160002060003373ffffffffffffffffffffffffffffffffffffffff1673ffffffffffffffffffffffffffffffffffffffff168152602001908152602001600020819055506131008473ffffffffffffffffffffffffffffffffffffffff166123cb565b156131185761311185858585613607565b9050613127565b61312485858585612413565b90505b949350505050565b60008073ffffffffffffffffffffffffffffffffffffffff168473ffffffffffffffffffffffffffffffffffffffff161415151561316c57600080fd5b6000831415151561317c57600080fd5b600560003373ffffffffffffffffffffffffffffffffffffffff1673ffffffffffffffffffffffffffffffffffffffff1681526020019081526020016000205483111515156131ca57600080fd5b6131e98473ffffffffffffffffffffffffffffffffffffffff166123cb565b15613201576131fa33858585613607565b9050613210565b61320d33858585612413565b90505b9392505050565b60008073ffffffffffffffffffffffffffffffffffffffff168573ffffffffffffffffffffffffffffffffffffffff161415151561325457600080fd5b6000841415151561326457600080fd5b600560003373ffffffffffffffffffffffffffffffffffffffff1673ffffffffffffffffffffffffffffffffffffffff1681526020019081526020016000205484111515156132b257600080fd5b6132d18573ffffffffffffffffffffffffffffffffffffffff166123cb565b156135f05761332884600560003373ffffffffffffffffffffffffffffffffffffffff1673ffffffffffffffffffffffffffffffffffffffff168152602001908152602001600020546123de90919063ffffffff16565b600560003373ffffffffffffffffffffffffffffffffffffffff1673ffffffffffffffffffffffffffffffffffffffff168152602001908152602001600020819055506133bd84600560008873ffffffffffffffffffffffffffffffffffffffff1673ffffffffffffffffffffffffffffffffffffffff168152602001908152602001600020546123f790919063ffffffff16565b600560008773ffffffffffffffffffffffffffffffffffffffff1673ffffffffffffffffffffffffffffffffffffffff168152602001908152602001600020819055508473ffffffffffffffffffffffffffffffffffffffff166108fc6000846040518082805190602001908083835b602083101515613452578051825260208201915060208101905060208303925061342d565b6001836020036101000a03801982511681845116808217855250505050505090500191505060405180910390207c0100000000000000000000000000000000000000000000000000000000900491903388886040518663ffffffff167c0100000000000000000000000000000000000000000000000000000000028152600401808473ffffffffffffffffffffffffffffffffffffffff1673ffffffffffffffffffffffffffffffffffffffff168152602001838152602001828051906020019080838360005b83811015613534578082015181840152602081019050613519565b50505050905090810190601f1680156135615780820380516001836020036101000a031916815260200191505b509350505050600060405180830381858988f1945050505050151561358257fe5b8473ffffffffffffffffffffffffffffffffffffffff163373ffffffffffffffffffffffffffffffffffffffff167fddf252ad1be2c89b69c2b068fc378daa952ba7f163c4a11628f55a4df523b3ef866040518082815260200191505060405180910390a3600190506135ff565b6135fc33868686612413565b90505b949350505050565b60008061365c84600560008973ffffffffffffffffffffffffffffffffffffffff1673ffffffffffffffffffffffffffffffffffffffff168152602001908152602001600020546123de90919063ffffffff16565b600560008873ffffffffffffffffffffffffffffffffffffffff1673ffffffffffffffffffffffffffffffffffffffff168152602001908152602001600020819055506136f184600560008873ffffffffffffffffffffffffffffffffffffffff1673ffffffffffffffffffffffffffffffffffffffff168152602001908152602001600020546123f790919063ffffffff16565b600560008773ffffffffffffffffffffffffffffffffffffffff1673ffffffffffffffffffffffffffffffffffffffff168152602001908152602001600020819055508490508073ffffffffffffffffffffffffffffffffffffffff1663c0ee0b8a8786866040518463ffffffff167c0100000000000000000000000000000000000000000000000000000000028152600401808473ffffffffffffffffffffffffffffffffffffffff1673ffffffffffffffffffffffffffffffffffffffff16815260200183815260200180602001828103825283818151815260200191508051906020019080838360005b838110156137f95780820151818401526020810190506137de565b50505050905090810190601f1680156138265780820380516001836020036101000a031916815260200191505b50945050505050600060405180830381600087803b15801561384757600080fd5b505af115801561385b573d6000803e3d6000fd5b505050508473ffffffffffffffffffffffffffffffffffffffff168673ffffffffffffffffffffffffffffffffffffffff167fddf252ad1be2c89b69c2b068fc378daa952ba7f163c4a11628f55a4df523b3ef866040518082815260200191505060405180910390a36001915050949350505050565b606060405190810160405280600081526020016000815260200160001515815250905600a165627a7a7230582053e5371d9b0172cc9ce96e9c73d2d597b621c1c47a2040cce9bceb67a8467cef0029",
  "source": "pragma solidity ^0.4.23;\r\n\r\nimport \"./BurnableToken.sol\";\r\n// import \"../../ownership/Heritable.sol\";\r\n\r\n/**\r\n * @title woxToken contract\r\n * @dev woxToken is an ERC223 Token compatible with ERC20 Tokens.\r\n */\r\ncontract woxToken is BurnableToken {\r\n    constructor() public {\r\n        name = \"WOX.Network\";\r\n        symbol = \"WOX\";\r\n        decimals = 18;\r\n        totalSupply = 1e9 * 10 ** decimals;\r\n        balances[owner] = totalSupply;\r\n    }\r\n    \r\n    struct Lock {\r\n        uint256 amount;\r\n        uint256 until;\r\n        bool isLocked;\r\n    }\r\n    mapping(address => Lock[]) Locks;\r\n\r\n    /**\r\n     * @dev Transfers a specified number of tokens from msg.sender balance to a specified address \r\n     * @dev And locks these tokens so as not to be spent by receiver until lock time expires.\r\n     * @param _to Address to which tokens will be transfered.\r\n     * @param _amount Number of tokens to be transfered.\r\n     * @param _until Due time the tokens are locked.\r\n     * @return A bool that shows success or failure of process.\r\n     */\r\n    function transferLockedAmount(address _to, uint256 _amount, uint256 _until) \r\n    public returns (bool) {\r\n        require(_to != address(0));\r\n        require(_amount > 0);\r\n        require(_amount <= balances[msg.sender]);\r\n        \r\n        Lock memory newLock;\r\n        newLock.amount = _amount;\r\n        newLock.until = _until;\r\n        newLock.isLocked = true;\r\n        Locks[_to].push(newLock);\r\n\r\n        return transfer(_to, _amount);\r\n    }\r\n\r\n    /**\r\n     * @dev Transfers a specified number of tokens from msg.sender balance to a specified address \r\n     * @dev And locks these tokens so as not to be spent by receiver until lock time expires.\r\n     * @param _to Address to which tokens will be transfered.\r\n     * @param _amount Number of tokens to be transfered.\r\n     * @param _until Due time the tokens are locked.\r\n     * @param _data Specified data should be sent to the address.\r\n     * @return A bool that shows success or failure of process.\r\n     */\r\n    function transferLockedAmount(address _to, uint256 _amount, uint256 _until, bytes _data) \r\n    public returns (bool) {\r\n        require(_to != address(0));\r\n        require(_amount > 0);\r\n        require(_amount <= balances[msg.sender]);\r\n        \r\n        Lock memory newLock;\r\n        newLock.amount = _amount;\r\n        newLock.until = _until;\r\n        newLock.isLocked = true;\r\n        Locks[_to].push(newLock);\r\n\r\n        return transfer(_to, _amount, _data);\r\n    }\r\n\r\n    /**\r\n     * @dev Transfers a specified number of tokens from msg.sender balance to a specified address \r\n     * @dev And locks these tokens so as not to be spent by receiver until lock time expires.\r\n     * @param _to Address to which tokens will be transfered.\r\n     * @param _amount Number of tokens to be transfered.\r\n     * @param _until Due time the tokens are locked.\r\n     * @param _data Specified data should be sent to the address.\r\n     * @param _custom_fallback Receiver Contract fallback function interface must be called to inform the transaction.\r\n     * @return A bool that shows success or failure of process.\r\n     */\r\n    function transferLockedAmount(address _to, uint256 _amount, uint256 _until, bytes _data, string _custom_fallback) \r\n    public returns (bool) {\r\n        require(_to != address(0));\r\n        require(_amount > 0);\r\n        require(_amount <= balances[msg.sender]);\r\n        \r\n        Lock memory newLock;\r\n        newLock.amount = _amount;\r\n        newLock.until = _until;\r\n        newLock.isLocked = true;\r\n        Locks[_to].push(newLock);\r\n\r\n        if(_to.isContract()) {\r\n            balances[msg.sender] = balances[msg.sender].sub(_amount);\r\n            balances[_to] = balances[_to].add(_amount);\r\n            assert(_to.call.gas(2300).value(0)(_custom_fallback, msg.sender, _amount, _data));\r\n            emit Transfer(msg.sender, _to, _amount);\r\n            return true;\r\n        }\r\n        else {\r\n            return _transferToAddress(msg.sender, _to, _amount, _data);\r\n        }\r\n    }\r\n\r\n    /**\r\n     * @dev Returns the freed number of tokens owned by an address at this moment.\r\n     * @param _address The address whose freed balance must be returned.\r\n     * @return A uint256 specifying freed balacne of passed address.\r\n     */\r\n    function getFreeBalance(address _address) public view returns (uint256) {\r\n        Lock[] memory AllLocks = Locks[_address];\r\n        uint256 lockedBalance = 0;\r\n        for (uint256 i = 0; i < AllLocks.length; i++) {\r\n            if (AllLocks[i].until > now && AllLocks[i].isLocked == true) {\r\n                lockedBalance = lockedBalance.add(AllLocks[i].amount);\r\n            }\r\n        }\r\n        assert(balances[_address].sub(lockedBalance) >= 0);\r\n        return balances[_address].sub(lockedBalance);\r\n    }\r\n\r\n    /**\r\n     * @dev Overrides parent by transfering tokens of freed balance.\r\n     * @param _to The address which tokens should be transfered to.\r\n     * @param _value Number of tokens should be transfered.\r\n     * @return A bool that shows success or failure of process.\r\n     */\r\n    function transfer(address _to, uint256 _value) public returns (bool) {\r\n        require(_value <= getFreeBalance(msg.sender));\r\n        super.transfer(_to, _value);\r\n    }\r\n\r\n    /**\r\n     * @dev Overrides parent by transfering tokens of freed balance.\r\n     * @param _to The address which tokens should be transfered to.\r\n     * @param _value Number of tokens should be transfered.\r\n     * @param _data Specified data should be sent to the address.\r\n     * @return A bool that shows success or failure of process.\r\n     */\r\n    function transfer(address _to, uint256 _value, bytes _data) public returns (bool) {\r\n        require(_value <= getFreeBalance(msg.sender));\r\n        super.transfer(_to, _value, _data);\r\n    }\r\n\r\n    /**\r\n     * @dev Overrides parent by transfering tokens of freed balance.\r\n     * @param _to The address which tokens should be transfered to.\r\n     * @param _value Number of tokens should be transfered.\r\n     * @param _data Specified data should be sent to the address.\r\n     * @param _custom_fallback Receiver Contract fallback function interface must be called to inform the transaction.\r\n     * @return A bool that shows success or failure of process.\r\n     */\r\n    function transfer(address _to, uint256 _value, bytes _data, string _custom_fallback) public returns (bool) {\r\n        require(_value <= getFreeBalance(msg.sender));\r\n        super.transfer(_to, _value, _data, _custom_fallback);\r\n    }\r\n\r\n    /**\r\n     * @dev Overrides parent by transfering tokens of freed balance.\r\n     * @param _from The address will send tokens.\r\n     * @param _to The address which tokens should be transfered to.\r\n     * @param _value Number of tokens should be transfered.\r\n     * @return A bool that shows success or failure of process.\r\n     */\r\n    function transferFrom(address _from, address _to, uint256 _value) public returns (bool) {\r\n        require(_value <= getFreeBalance(_from));\r\n        super.transferFrom(_from, _to, _value);\r\n    }\r\n\r\n    /**\r\n     * @dev Overrides parent by transfering tokens of freed balance.\r\n     * @param _from The address will send tokens.\r\n     * @param _to The address which tokens should be transfered to.\r\n     * @param _value Number of tokens should be transfered.\r\n     * @param _data Specified data should be sent to the address.\r\n     * @return A bool that shows success or failure of process.\r\n     */\r\n    function transferFrom(address _from, address _to, uint256 _value, bytes _data) public returns (bool) {\r\n        require(_value <= getFreeBalance(_from));\r\n        super.transferFrom(_from, _to, _value, _data);\r\n    }\r\n\r\n    /**\r\n     * @dev Overrides parent by transfering tokens of freed balance.\r\n     * @param _from The address will send tokens.\r\n     * @param _to The address which tokens should be transfered to.\r\n     * @param _value Number of tokens should be transfered.\r\n     * @param _data Specified data should be sent to the address.\r\n     * @param _custom_fallback Receiver Contract fallback function interface must be called to inform the transaction.\r\n     * @return A bool that shows success or failure of process.\r\n     */\r\n    function transferFrom(address _from, address _to, uint256 _value, bytes _data, string _custom_fallback) public returns (bool) {\r\n        require(_value <= getFreeBalance(_from));\r\n        super.transferFrom(_from, _to, _value, _data, _custom_fallback);\r\n    }\r\n\r\n}",
  "sourcePath": "G:\\Root\\Blockchain\\WOX\\contracts\\Token\\ERC223\\woxToken.sol",
  "compiler": {
    "name": "solc",
    "version": "0.4.23+commit.124ca40d.Emscripten.clang"
  },
  "schemaVersion": "2.0.0",
  "updatedAt": "2018-06-27T04:19:57.198Z"
}