{
  "contractName": "woxToken",
  "abi": [
    {
      "constant": true,
      "inputs": [],
      "name": "name",
      "outputs": [
        {
          "name": "",
          "type": "string"
        }
      ],
      "payable": false,
      "stateMutability": "view",
      "type": "function"
    },
    {
      "constant": false,
      "inputs": [
        {
          "name": "_spender",
          "type": "address"
        },
        {
          "name": "_value",
          "type": "uint256"
        }
      ],
      "name": "approve",
      "outputs": [
        {
          "name": "",
          "type": "bool"
        }
      ],
      "payable": false,
      "stateMutability": "nonpayable",
      "type": "function"
    },
    {
      "constant": true,
      "inputs": [],
      "name": "totalSupply",
      "outputs": [
        {
          "name": "",
          "type": "uint256"
        }
      ],
      "payable": false,
      "stateMutability": "view",
      "type": "function"
    },
    {
      "constant": false,
      "inputs": [],
      "name": "claimHeirOwnership",
      "outputs": [],
      "payable": false,
      "stateMutability": "nonpayable",
      "type": "function"
    },
    {
      "constant": false,
      "inputs": [
        {
          "name": "newHeir",
          "type": "address"
        }
      ],
      "name": "setHeir",
      "outputs": [],
      "payable": false,
      "stateMutability": "nonpayable",
      "type": "function"
    },
    {
      "constant": false,
      "inputs": [],
      "name": "proclaimDeath",
      "outputs": [],
      "payable": false,
      "stateMutability": "nonpayable",
      "type": "function"
    },
    {
      "constant": true,
      "inputs": [],
      "name": "decimals",
      "outputs": [
        {
          "name": "",
          "type": "uint256"
        }
      ],
      "payable": false,
      "stateMutability": "view",
      "type": "function"
    },
    {
      "constant": false,
      "inputs": [],
      "name": "heartbeat",
      "outputs": [],
      "payable": false,
      "stateMutability": "nonpayable",
      "type": "function"
    },
    {
      "constant": false,
      "inputs": [
        {
          "name": "_spender",
          "type": "address"
        },
        {
          "name": "_subtractedValue",
          "type": "uint256"
        }
      ],
      "name": "decreaseApproval",
      "outputs": [
        {
          "name": "",
          "type": "bool"
        }
      ],
      "payable": false,
      "stateMutability": "nonpayable",
      "type": "function"
    },
    {
      "constant": true,
      "inputs": [
        {
          "name": "_owner",
          "type": "address"
        }
      ],
      "name": "balanceOf",
      "outputs": [
        {
          "name": "",
          "type": "uint256"
        }
      ],
      "payable": false,
      "stateMutability": "view",
      "type": "function"
    },
    {
      "constant": false,
      "inputs": [],
      "name": "renounceOwnership",
      "outputs": [],
      "payable": false,
      "stateMutability": "nonpayable",
      "type": "function"
    },
    {
      "constant": true,
      "inputs": [],
      "name": "heartbeatTimeout",
      "outputs": [
        {
          "name": "",
          "type": "uint256"
        }
      ],
      "payable": false,
      "stateMutability": "view",
      "type": "function"
    },
    {
      "constant": true,
      "inputs": [],
      "name": "owner",
      "outputs": [
        {
          "name": "",
          "type": "address"
        }
      ],
      "payable": false,
      "stateMutability": "view",
      "type": "function"
    },
    {
      "constant": true,
      "inputs": [],
      "name": "heir",
      "outputs": [
        {
          "name": "",
          "type": "address"
        }
      ],
      "payable": false,
      "stateMutability": "view",
      "type": "function"
    },
    {
      "constant": true,
      "inputs": [],
      "name": "symbol",
      "outputs": [
        {
          "name": "",
          "type": "string"
        }
      ],
      "payable": false,
      "stateMutability": "view",
      "type": "function"
    },
    {
      "constant": true,
      "inputs": [],
      "name": "timeOfDeath",
      "outputs": [
        {
          "name": "",
          "type": "uint256"
        }
      ],
      "payable": false,
      "stateMutability": "view",
      "type": "function"
    },
    {
      "constant": false,
      "inputs": [
        {
          "name": "_burnAmount",
          "type": "uint256"
        }
      ],
      "name": "Burn",
      "outputs": [],
      "payable": false,
      "stateMutability": "nonpayable",
      "type": "function"
    },
    {
      "constant": false,
      "inputs": [
        {
          "name": "_spender",
          "type": "address"
        },
        {
          "name": "_addedValue",
          "type": "uint256"
        }
      ],
      "name": "increaseApproval",
      "outputs": [
        {
          "name": "",
          "type": "bool"
        }
      ],
      "payable": false,
      "stateMutability": "nonpayable",
      "type": "function"
    },
    {
      "constant": true,
      "inputs": [
        {
          "name": "_owner",
          "type": "address"
        },
        {
          "name": "_spender",
          "type": "address"
        }
      ],
      "name": "allowance",
      "outputs": [
        {
          "name": "",
          "type": "uint256"
        }
      ],
      "payable": false,
      "stateMutability": "view",
      "type": "function"
    },
    {
      "constant": false,
      "inputs": [],
      "name": "removeHeir",
      "outputs": [],
      "payable": false,
      "stateMutability": "nonpayable",
      "type": "function"
    },
    {
      "constant": false,
      "inputs": [
        {
          "name": "newOwner",
          "type": "address"
        }
      ],
      "name": "transferOwnership",
      "outputs": [],
      "payable": false,
      "stateMutability": "nonpayable",
      "type": "function"
    },
    {
      "inputs": [],
      "payable": false,
      "stateMutability": "nonpayable",
      "type": "constructor"
    },
    {
      "anonymous": false,
      "inputs": [
        {
          "indexed": true,
          "name": "owner",
          "type": "address"
        },
        {
          "indexed": true,
          "name": "newHeir",
          "type": "address"
        }
      ],
      "name": "HeirChanged",
      "type": "event"
    },
    {
      "anonymous": false,
      "inputs": [
        {
          "indexed": true,
          "name": "owner",
          "type": "address"
        }
      ],
      "name": "OwnerHeartbeated",
      "type": "event"
    },
    {
      "anonymous": false,
      "inputs": [
        {
          "indexed": true,
          "name": "owner",
          "type": "address"
        },
        {
          "indexed": true,
          "name": "heir",
          "type": "address"
        },
        {
          "indexed": false,
          "name": "timeOfDeath",
          "type": "uint256"
        }
      ],
      "name": "OwnerProclaimedDead",
      "type": "event"
    },
    {
      "anonymous": false,
      "inputs": [
        {
          "indexed": true,
          "name": "previousOwner",
          "type": "address"
        },
        {
          "indexed": true,
          "name": "newOwner",
          "type": "address"
        }
      ],
      "name": "HeirOwnershipClaimed",
      "type": "event"
    },
    {
      "anonymous": false,
      "inputs": [
        {
          "indexed": false,
          "name": "burner",
          "type": "address"
        },
        {
          "indexed": false,
          "name": "burnAmount",
          "type": "uint256"
        }
      ],
      "name": "Burned",
      "type": "event"
    },
    {
      "anonymous": false,
      "inputs": [
        {
          "indexed": true,
          "name": "previousOwner",
          "type": "address"
        }
      ],
      "name": "OwnershipRenounced",
      "type": "event"
    },
    {
      "anonymous": false,
      "inputs": [
        {
          "indexed": true,
          "name": "previousOwner",
          "type": "address"
        },
        {
          "indexed": true,
          "name": "newOwner",
          "type": "address"
        }
      ],
      "name": "OwnershipTransferred",
      "type": "event"
    },
    {
      "anonymous": false,
      "inputs": [
        {
          "indexed": true,
          "name": "_from",
          "type": "address"
        },
        {
          "indexed": true,
          "name": "_to",
          "type": "address"
        },
        {
          "indexed": false,
          "name": "_value",
          "type": "uint256"
        }
      ],
      "name": "Transfer",
      "type": "event"
    },
    {
      "anonymous": false,
      "inputs": [
        {
          "indexed": true,
          "name": "_owner",
          "type": "address"
        },
        {
          "indexed": true,
          "name": "_spender",
          "type": "address"
        },
        {
          "indexed": false,
          "name": "_value",
          "type": "uint256"
        }
      ],
      "name": "Approval",
      "type": "event"
    },
    {
      "constant": false,
      "inputs": [
        {
          "name": "_to",
          "type": "address"
        },
        {
          "name": "_amount",
          "type": "uint256"
        },
        {
          "name": "_until",
          "type": "uint256"
        },
        {
          "name": "_data",
          "type": "bytes"
        },
        {
          "name": "_custom_fallback",
          "type": "string"
        }
      ],
      "name": "transferLockedAmount",
      "outputs": [
        {
          "name": "",
          "type": "bool"
        }
      ],
      "payable": false,
      "stateMutability": "nonpayable",
      "type": "function"
    },
    {
      "constant": false,
      "inputs": [
        {
          "name": "_to",
          "type": "address"
        },
        {
          "name": "_amount",
          "type": "uint256"
        },
        {
          "name": "_until",
          "type": "uint256"
        }
      ],
      "name": "transferLockedAmount",
      "outputs": [
        {
          "name": "",
          "type": "bool"
        }
      ],
      "payable": false,
      "stateMutability": "nonpayable",
      "type": "function"
    },
    {
      "constant": false,
      "inputs": [
        {
          "name": "_to",
          "type": "address"
        },
        {
          "name": "_amount",
          "type": "uint256"
        },
        {
          "name": "_until",
          "type": "uint256"
        },
        {
          "name": "_data",
          "type": "bytes"
        }
      ],
      "name": "transferLockedAmount",
      "outputs": [
        {
          "name": "",
          "type": "bool"
        }
      ],
      "payable": false,
      "stateMutability": "nonpayable",
      "type": "function"
    },
    {
      "constant": true,
      "inputs": [
        {
          "name": "_address",
          "type": "address"
        }
      ],
      "name": "getFreeBalance",
      "outputs": [
        {
          "name": "",
          "type": "uint256"
        }
      ],
      "payable": false,
      "stateMutability": "view",
      "type": "function"
    },
    {
      "constant": false,
      "inputs": [
        {
          "name": "_to",
          "type": "address"
        },
        {
          "name": "_value",
          "type": "uint256"
        }
      ],
      "name": "transfer",
      "outputs": [
        {
          "name": "",
          "type": "bool"
        }
      ],
      "payable": false,
      "stateMutability": "nonpayable",
      "type": "function"
    },
    {
      "constant": false,
      "inputs": [
        {
          "name": "_to",
          "type": "address"
        },
        {
          "name": "_value",
          "type": "uint256"
        },
        {
          "name": "_data",
          "type": "bytes"
        }
      ],
      "name": "transfer",
      "outputs": [
        {
          "name": "",
          "type": "bool"
        }
      ],
      "payable": false,
      "stateMutability": "nonpayable",
      "type": "function"
    },
    {
      "constant": false,
      "inputs": [
        {
          "name": "_to",
          "type": "address"
        },
        {
          "name": "_value",
          "type": "uint256"
        },
        {
          "name": "_data",
          "type": "bytes"
        },
        {
          "name": "_custom_fallback",
          "type": "string"
        }
      ],
      "name": "transfer",
      "outputs": [
        {
          "name": "",
          "type": "bool"
        }
      ],
      "payable": false,
      "stateMutability": "nonpayable",
      "type": "function"
    },
    {
      "constant": false,
      "inputs": [
        {
          "name": "_from",
          "type": "address"
        },
        {
          "name": "_to",
          "type": "address"
        },
        {
          "name": "_value",
          "type": "uint256"
        }
      ],
      "name": "transferFrom",
      "outputs": [
        {
          "name": "",
          "type": "bool"
        }
      ],
      "payable": false,
      "stateMutability": "nonpayable",
      "type": "function"
    },
    {
      "constant": false,
      "inputs": [
        {
          "name": "_from",
          "type": "address"
        },
        {
          "name": "_to",
          "type": "address"
        },
        {
          "name": "_value",
          "type": "uint256"
        },
        {
          "name": "_data",
          "type": "bytes"
        },
        {
          "name": "_custom_fallback",
          "type": "string"
        }
      ],
      "name": "transferFrom",
      "outputs": [
        {
          "name": "",
          "type": "bool"
        }
      ],
      "payable": false,
      "stateMutability": "nonpayable",
      "type": "function"
    },
    {
      "constant": false,
      "inputs": [
        {
          "name": "_from",
          "type": "address"
        },
        {
          "name": "_to",
          "type": "address"
        },
        {
          "name": "_value",
          "type": "uint256"
        },
        {
          "name": "_data",
          "type": "bytes"
        }
      ],
      "name": "transferFrom",
      "outputs": [
        {
          "name": "",
          "type": "bool"
        }
      ],
      "payable": false,
      "stateMutability": "nonpayable",
      "type": "function"
    }
  ],
  "bytecode": "0x60806040523480156200001157600080fd5b50336000806101000a81548173ffffffffffffffffffffffffffffffffffffffff021916908373ffffffffffffffffffffffffffffffffffffffff1602179055506040805190810160405280600b81526020017f574f582e4e6574776f726b000000000000000000000000000000000000000000815250600190805190602001906200009f92919062000175565b506040805190810160405280600381526020017f574f58000000000000000000000000000000000000000000000000000000000081525060029080519060200190620000ed92919062000175565b506012600381905550600354600a0a633b9aca0002600481905550600454600560008060009054906101000a900473ffffffffffffffffffffffffffffffffffffffff1673ffffffffffffffffffffffffffffffffffffffff1673ffffffffffffffffffffffffffffffffffffffff1681526020019081526020016000208190555062000224565b828054600181600116156101000203166002900490600052602060002090601f016020900481019282601f10620001b857805160ff1916838001178555620001e9565b82800160010185558215620001e9579182015b82811115620001e8578251825591602001919060010190620001cb565b5b509050620001f89190620001fc565b5090565b6200022191905b808211156200021d57600081600090555060010162000203565b5090565b90565b61414280620002346000396000f30060806040526004361061018b576000357c0100000000000000000000000000000000000000000000000000000000900463ffffffff16806306fdde0314610190578063095ea7b31461022057806318160ddd146102855780631b0dfde5146102b05780631c921e16146103ab57806323b872dd146103c257806323defc7714610447578063248451311461048a578063313ce567146104a15780633defb962146104cc57806343af57d6146104e35780634e2ab93314610552578063661884631461066357806370a08231146106c8578063715018a61461071f5780637bca38be146107365780638870985b146107615780638da5cb5b146107b857806391f2ebb81461080f57806395d89b4114610866578063a7b8d223146108f6578063a9059cbb146109ab578063ab67aa5814610a10578063b4a8f3e614610adb578063b90306ad14610b06578063be45fd6214610b33578063d73dd62314610bde578063dd62ed3e14610c43578063ebf88de414610cba578063f2fde38b14610cd1578063f6368f8a14610d14575b600080fd5b34801561019c57600080fd5b506101a5610e05565b6040518080602001828103825283818151815260200191508051906020019080838360005b838110156101e55780820151818401526020810190506101ca565b50505050905090810190601f1680156102125780820380516001836020036101000a031916815260200191505b509250505060405180910390f35b34801561022c57600080fd5b5061026b600480360381019080803573ffffffffffffffffffffffffffffffffffffffff16906020019092919080359060200190929190505050610ea7565b604051808215151515815260200191505060405180910390f35b34801561029157600080fd5b5061029a610fd4565b6040518082815260200191505060405180910390f35b3480156102bc57600080fd5b50610391600480360381019080803573ffffffffffffffffffffffffffffffffffffffff1690602001909291908035906020019092919080359060200190929190803590602001908201803590602001908080601f0160208091040260200160405190810160405280939291908181526020018383808284378201915050505050509192919290803590602001908201803590602001908080601f0160208091040260200160405190810160405280939291908181526020018383808284378201915050505050509192919290505050610fde565b604051808215151515815260200191505060405180910390f35b3480156103b757600080fd5b506103c0611446565b005b3480156103ce57600080fd5b5061042d600480360381019080803573ffffffffffffffffffffffffffffffffffffffff169060200190929190803573ffffffffffffffffffffffffffffffffffffffff16906020019092919080359060200190929190505050611671565b604051808215151515815260200191505060405180910390f35b34801561045357600080fd5b50610488600480360381019080803573ffffffffffffffffffffffffffffffffffffffff16906020019092919050505061169d565b005b34801561049657600080fd5b5061049f61181b565b005b3480156104ad57600080fd5b506104b661193d565b6040518082815260200191505060405180910390f35b3480156104d857600080fd5b506104e1611947565b005b3480156104ef57600080fd5b50610538600480360381019080803573ffffffffffffffffffffffffffffffffffffffff1690602001909291908035906020019092919080359060200190929190505050611a10565b604051808215151515815260200191505060405180910390f35b34801561055e57600080fd5b50610649600480360381019080803573ffffffffffffffffffffffffffffffffffffffff169060200190929190803573ffffffffffffffffffffffffffffffffffffffff16906020019092919080359060200190929190803590602001908201803590602001908080601f0160208091040260200160405190810160405280939291908181526020018383808284378201915050505050509192919290803590602001908201803590602001908080601f0160208091040260200160405190810160405280939291908181526020018383808284378201915050505050509192919290505050611b8e565b604051808215151515815260200191505060405180910390f35b34801561066f57600080fd5b506106ae600480360381019080803573ffffffffffffffffffffffffffffffffffffffff16906020019092919080359060200190929190505050611bbe565b604051808215151515815260200191505060405180910390f35b3480156106d457600080fd5b50610709600480360381019080803573ffffffffffffffffffffffffffffffffffffffff169060200190929190505050611f08565b6040518082815260200191505060405180910390f35b34801561072b57600080fd5b50610734611f51565b005b34801561074257600080fd5b5061074b612053565b6040518082815260200191505060405180910390f35b34801561076d57600080fd5b506107a2600480360381019080803573ffffffffffffffffffffffffffffffffffffffff16906020019092919050505061205d565b6040518082815260200191505060405180910390f35b3480156107c457600080fd5b506107cd612283565b604051808273ffffffffffffffffffffffffffffffffffffffff1673ffffffffffffffffffffffffffffffffffffffff16815260200191505060405180910390f35b34801561081b57600080fd5b506108246122a8565b604051808273ffffffffffffffffffffffffffffffffffffffff1673ffffffffffffffffffffffffffffffffffffffff16815260200191505060405180910390f35b34801561087257600080fd5b5061087b6122d2565b6040518080602001828103825283818151815260200191508051906020019080838360005b838110156108bb5780820151818401526020810190506108a0565b50505050905090810190601f1680156108e85780820380516001836020036101000a031916815260200191505b509250505060405180910390f35b34801561090257600080fd5b50610991600480360381019080803573ffffffffffffffffffffffffffffffffffffffff1690602001909291908035906020019092919080359060200190929190803590602001908201803590602001908080601f0160208091040260200160405190810160405280939291908181526020018383808284378201915050505050509192919290505050612374565b604051808215151515815260200191505060405180910390f35b3480156109b757600080fd5b506109f6600480360381019080803573ffffffffffffffffffffffffffffffffffffffff169060200190929190803590602001909291905050506124f4565b604051808215151515815260200191505060405180910390f35b348015610a1c57600080fd5b50610ac1600480360381019080803573ffffffffffffffffffffffffffffffffffffffff169060200190929190803573ffffffffffffffffffffffffffffffffffffffff16906020019092919080359060200190929190803590602001908201803590602001908080601f016020809104026020016040519081016040528093929190818152602001838380828437820191505050505050919291929050505061251e565b604051808215151515815260200191505060405180910390f35b348015610ae757600080fd5b50610af061254c565b6040518082815260200191505060405180910390f35b348015610b1257600080fd5b50610b3160048036038101908080359060200190929190505050612556565b005b348015610b3f57600080fd5b50610bc4600480360381019080803573ffffffffffffffffffffffffffffffffffffffff16906020019092919080359060200190929190803590602001908201803590602001908080601f01602080910402602001604051908101604052809392919081815260200183838082843782019150505050505091929192905050506126d3565b604051808215151515815260200191505060405180910390f35b348015610bea57600080fd5b50610c29600480360381019080803573ffffffffffffffffffffffffffffffffffffffff169060200190929190803590602001909291905050506126ff565b604051808215151515815260200191505060405180910390f35b348015610c4f57600080fd5b50610ca4600480360381019080803573ffffffffffffffffffffffffffffffffffffffff169060200190929190803573ffffffffffffffffffffffffffffffffffffffff169060200190929190505050612936565b6040518082815260200191505060405180910390f35b348015610cc657600080fd5b50610ccf6129bd565b005b348015610cdd57600080fd5b50610d12600480360381019080803573ffffffffffffffffffffffffffffffffffffffff169060200190929190505050612a64565b005b348015610d2057600080fd5b50610deb600480360381019080803573ffffffffffffffffffffffffffffffffffffffff16906020019092919080359060200190929190803590602001908201803590602001908080601f0160208091040260200160405190810160405280939291908181526020018383808284378201915050505050509192919290803590602001908201803590602001908080601f0160208091040260200160405190810160405280939291908181526020018383808284378201915050505050509192919290505050612bb9565b604051808215151515815260200191505060405180910390f35b606060018054600181600116156101000203166002900480601f016020809104026020016040519081016040528092919081815260200182805460018160011615610100020316600290048015610e9d5780601f10610e7257610100808354040283529160200191610e9d565b820191906000526020600020905b815481529060010190602001808311610e8057829003601f168201915b5050505050905090565b60008073ffffffffffffffffffffffffffffffffffffffff168373ffffffffffffffffffffffffffffffffffffffff1614151515610ee457600080fd5b81600660003373ffffffffffffffffffffffffffffffffffffffff1673ffffffffffffffffffffffffffffffffffffffff16815260200190815260200160002060008573ffffffffffffffffffffffffffffffffffffffff1673ffffffffffffffffffffffffffffffffffffffff168152602001908152602001600020819055508273ffffffffffffffffffffffffffffffffffffffff163373ffffffffffffffffffffffffffffffffffffffff167f8c5be1e5ebec7d5bd14f71427d1e84f3dd0314c0f7b2291e5b200ac8c7c3b925846040518082815260200191505060405180910390a36001905092915050565b6000600454905090565b6000610fe86140f2565b600073ffffffffffffffffffffffffffffffffffffffff168773ffffffffffffffffffffffffffffffffffffffff161415151561102457600080fd5b60008611151561103357600080fd5b600560003373ffffffffffffffffffffffffffffffffffffffff1673ffffffffffffffffffffffffffffffffffffffff16815260200190815260200160002054861115151561108157600080fd5b85816000018181525050848160200181815250506001816040019015159081151581525050600a60008873ffffffffffffffffffffffffffffffffffffffff1673ffffffffffffffffffffffffffffffffffffffff1681526020019081526020016000208190806001815401808255809150509060018203906000526020600020906003020160009091929091909150600082015181600001556020820151816001015560408201518160020160006101000a81548160ff0219169083151502179055505050506111678773ffffffffffffffffffffffffffffffffffffffff16612be7565b1561142e576111be86600560003373ffffffffffffffffffffffffffffffffffffffff1673ffffffffffffffffffffffffffffffffffffffff16815260200190815260200160002054612bfa90919063ffffffff16565b600560003373ffffffffffffffffffffffffffffffffffffffff1673ffffffffffffffffffffffffffffffffffffffff1681526020019081526020016000208190555061125386600560008a73ffffffffffffffffffffffffffffffffffffffff1673ffffffffffffffffffffffffffffffffffffffff16815260200190815260200160002054612c1390919063ffffffff16565b600560008973ffffffffffffffffffffffffffffffffffffffff1673ffffffffffffffffffffffffffffffffffffffff168152602001908152602001600020819055508673ffffffffffffffffffffffffffffffffffffffff166108fc600085338a8960405180858051906020019080838360005b838110156112e35780820151818401526020810190506112c8565b50505050905090810190601f1680156113105780820380516001836020036101000a031916815260200191505b508473ffffffffffffffffffffffffffffffffffffffff1673ffffffffffffffffffffffffffffffffffffffff168152602001838152602001828051906020019080838360005b83811015611372578082015181840152602081019050611357565b50505050905090810190601f16801561139f5780820380516001836020036101000a031916815260200191505b50945050505050600060405180830381858888f1935050505015156113c057fe5b8673ffffffffffffffffffffffffffffffffffffffff163373ffffffffffffffffffffffffffffffffffffffff167fddf252ad1be2c89b69c2b068fc378daa952ba7f163c4a11628f55a4df523b3ef886040518082815260200191505060405180910390a36001915061143c565b611439338888612c2f565b91505b5095945050505050565b600760009054906101000a900473ffffffffffffffffffffffffffffffffffffffff1673ffffffffffffffffffffffffffffffffffffffff163373ffffffffffffffffffffffffffffffffffffffff161415156114a257600080fd5b6114aa612dcb565b1515156114b657600080fd5b6008546009540142101515156114cb57600080fd5b600760009054906101000a900473ffffffffffffffffffffffffffffffffffffffff1673ffffffffffffffffffffffffffffffffffffffff166000809054906101000a900473ffffffffffffffffffffffffffffffffffffffff1673ffffffffffffffffffffffffffffffffffffffff167f8be0079c531659141344cd1fd0a4f28419497f9722a3daafe3b4186f6b6457e060405160405180910390a3600760009054906101000a900473ffffffffffffffffffffffffffffffffffffffff1673ffffffffffffffffffffffffffffffffffffffff166000809054906101000a900473ffffffffffffffffffffffffffffffffffffffff1673ffffffffffffffffffffffffffffffffffffffff167f1017a357e19071e4408dbd385f24e591aa5bcee52b444dc0c8abddbe6ad29de660405160405180910390a3600760009054906101000a900473ffffffffffffffffffffffffffffffffffffffff166000806101000a81548173ffffffffffffffffffffffffffffffffffffffff021916908373ffffffffffffffffffffffffffffffffffffffff1602179055506000600981905550565b600061167c8461205d565b821115151561168a57600080fd5b611695848484612dd7565b509392505050565b6000809054906101000a900473ffffffffffffffffffffffffffffffffffffffff1673ffffffffffffffffffffffffffffffffffffffff163373ffffffffffffffffffffffffffffffffffffffff161415156116f857600080fd5b6000809054906101000a900473ffffffffffffffffffffffffffffffffffffffff1673ffffffffffffffffffffffffffffffffffffffff168173ffffffffffffffffffffffffffffffffffffffff161415151561175457600080fd5b61175c611947565b8073ffffffffffffffffffffffffffffffffffffffff166000809054906101000a900473ffffffffffffffffffffffffffffffffffffffff1673ffffffffffffffffffffffffffffffffffffffff167f4e6093f85fa64484abd692810d8a44d508792ff7b7a021d9fbd69fa1c6ff18a060405160405180910390a380600760006101000a81548173ffffffffffffffffffffffffffffffffffffffff021916908373ffffffffffffffffffffffffffffffffffffffff16021790555050565b600760009054906101000a900473ffffffffffffffffffffffffffffffffffffffff1673ffffffffffffffffffffffffffffffffffffffff163373ffffffffffffffffffffffffffffffffffffffff1614151561187757600080fd5b61187f612dcb565b151561188a57600080fd5b600760009054906101000a900473ffffffffffffffffffffffffffffffffffffffff1673ffffffffffffffffffffffffffffffffffffffff166000809054906101000a900473ffffffffffffffffffffffffffffffffffffffff1673ffffffffffffffffffffffffffffffffffffffff167f66389f1f3251c39e71cb18351daefea45bda23e98df0767266b8aed4ff9382776009546040518082815260200191505060405180910390a342600981905550565b6000600354905090565b6000809054906101000a900473ffffffffffffffffffffffffffffffffffffffff1673ffffffffffffffffffffffffffffffffffffffff163373ffffffffffffffffffffffffffffffffffffffff161415156119a257600080fd5b6000809054906101000a900473ffffffffffffffffffffffffffffffffffffffff1673ffffffffffffffffffffffffffffffffffffffff167fd40b9d9a7572411aff4bbb95ba7bd9a9d4e9b70747ec46f8fe7913c309b6845260405160405180910390a26000600981905550565b6000611a1a6140f2565b600073ffffffffffffffffffffffffffffffffffffffff168573ffffffffffffffffffffffffffffffffffffffff1614151515611a5657600080fd5b600084111515611a6557600080fd5b600560003373ffffffffffffffffffffffffffffffffffffffff1673ffffffffffffffffffffffffffffffffffffffff168152602001908152602001600020548411151515611ab357600080fd5b83816000018181525050828160200181815250506001816040019015159081151581525050600a60008673ffffffffffffffffffffffffffffffffffffffff1673ffffffffffffffffffffffffffffffffffffffff1681526020019081526020016000208190806001815401808255809150509060018203906000526020600020906003020160009091929091909150600082015181600001556020820151816001015560408201518160020160006101000a81548160ff021916908315150217905550505050611b8485856124f4565b9150509392505050565b6000611b998661205d565b8411151515611ba757600080fd5b611bb4868686868661305c565b5095945050505050565b600080600073ffffffffffffffffffffffffffffffffffffffff168473ffffffffffffffffffffffffffffffffffffffff1614151515611bfd57600080fd5b600660003373ffffffffffffffffffffffffffffffffffffffff1673ffffffffffffffffffffffffffffffffffffffff16815260200190815260200160002060008573ffffffffffffffffffffffffffffffffffffffff1673ffffffffffffffffffffffffffffffffffffffff1681526020019081526020016000205490508281111515611d0c576000600660003373ffffffffffffffffffffffffffffffffffffffff1673ffffffffffffffffffffffffffffffffffffffff16815260200190815260200160002060008673ffffffffffffffffffffffffffffffffffffffff1673ffffffffffffffffffffffffffffffffffffffff16815260200190815260200160002081905550611e1c565b611d9b83600660003373ffffffffffffffffffffffffffffffffffffffff1673ffffffffffffffffffffffffffffffffffffffff16815260200190815260200160002060008773ffffffffffffffffffffffffffffffffffffffff1673ffffffffffffffffffffffffffffffffffffffff16815260200190815260200160002054612bfa90919063ffffffff16565b600660003373ffffffffffffffffffffffffffffffffffffffff1673ffffffffffffffffffffffffffffffffffffffff16815260200190815260200160002060008673ffffffffffffffffffffffffffffffffffffffff1673ffffffffffffffffffffffffffffffffffffffff168152602001908152602001600020819055505b8373ffffffffffffffffffffffffffffffffffffffff163373ffffffffffffffffffffffffffffffffffffffff167f8c5be1e5ebec7d5bd14f71427d1e84f3dd0314c0f7b2291e5b200ac8c7c3b925600660003373ffffffffffffffffffffffffffffffffffffffff1673ffffffffffffffffffffffffffffffffffffffff16815260200190815260200160002060008873ffffffffffffffffffffffffffffffffffffffff1673ffffffffffffffffffffffffffffffffffffffff168152602001908152602001600020546040518082815260200191505060405180910390a3600191505092915050565b6000600560008373ffffffffffffffffffffffffffffffffffffffff1673ffffffffffffffffffffffffffffffffffffffff168152602001908152602001600020549050919050565b6000809054906101000a900473ffffffffffffffffffffffffffffffffffffffff1673ffffffffffffffffffffffffffffffffffffffff163373ffffffffffffffffffffffffffffffffffffffff16141515611fac57600080fd5b6000809054906101000a900473ffffffffffffffffffffffffffffffffffffffff1673ffffffffffffffffffffffffffffffffffffffff167ff8df31144d9c2f0f6b59d69b8b98abd5459d07f2742c4df920b25aae33c6482060405160405180910390a260008060006101000a81548173ffffffffffffffffffffffffffffffffffffffff021916908373ffffffffffffffffffffffffffffffffffffffff160217905550565b6000600854905090565b60006060600080600a60008673ffffffffffffffffffffffffffffffffffffffff1673ffffffffffffffffffffffffffffffffffffffff168152602001908152602001600020805480602002602001604051908101604052809291908181526020016000905b8282101561212557838290600052602060002090600302016060604051908101604052908160008201548152602001600182015481526020016002820160009054906101000a900460ff161515151581525050815260200190600101906120c3565b50505050925060009150600090505b82518110156121c95742838281518110151561214c57fe5b9060200190602002015160200151118015612186575060011515838281518110151561217457fe5b90602001906020020151604001511515145b156121bc576121b9838281518110151561219c57fe5b906020019060200201516000015183612c1390919063ffffffff16565b91505b8080600101915050612134565b600061221d83600560008973ffffffffffffffffffffffffffffffffffffffff1673ffffffffffffffffffffffffffffffffffffffff16815260200190815260200160002054612bfa90919063ffffffff16565b1015151561222757fe5b61227982600560008873ffffffffffffffffffffffffffffffffffffffff1673ffffffffffffffffffffffffffffffffffffffff16815260200190815260200160002054612bfa90919063ffffffff16565b9350505050919050565b6000809054906101000a900473ffffffffffffffffffffffffffffffffffffffff1681565b6000600760009054906101000a900473ffffffffffffffffffffffffffffffffffffffff16905090565b606060028054600181600116156101000203166002900480601f01602080910402602001604051908101604052809291908181526020018280546001816001161561010002031660029004801561236a5780601f1061233f5761010080835404028352916020019161236a565b820191906000526020600020905b81548152906001019060200180831161234d57829003601f168201915b5050505050905090565b600061237e6140f2565b600073ffffffffffffffffffffffffffffffffffffffff168673ffffffffffffffffffffffffffffffffffffffff16141515156123ba57600080fd5b6000851115156123c957600080fd5b600560003373ffffffffffffffffffffffffffffffffffffffff1673ffffffffffffffffffffffffffffffffffffffff16815260200190815260200160002054851115151561241757600080fd5b84816000018181525050838160200181815250506001816040019015159081151581525050600a60008773ffffffffffffffffffffffffffffffffffffffff1673ffffffffffffffffffffffffffffffffffffffff1681526020019081526020016000208190806001815401808255809150509060018203906000526020600020906003020160009091929091909150600082015181600001556020820151816001015560408201518160020160006101000a81548160ff0219169083151502179055505050506124e98686856126d3565b915050949350505050565b60006124ff3361205d565b821115151561250d57600080fd5b61251783836135e6565b5092915050565b60006125298561205d565b831115151561253757600080fd5b612543858585856136d0565b50949350505050565b6000600954905090565b600454811115151561256757600080fd5b600560003373ffffffffffffffffffffffffffffffffffffffff1673ffffffffffffffffffffffffffffffffffffffff1681526020019081526020016000205481111515156125b557600080fd5b61260781600560003373ffffffffffffffffffffffffffffffffffffffff1673ffffffffffffffffffffffffffffffffffffffff16815260200190815260200160002054612bfa90919063ffffffff16565b600560003373ffffffffffffffffffffffffffffffffffffffff1673ffffffffffffffffffffffffffffffffffffffff1681526020019081526020016000208190555061265f81600454612bfa90919063ffffffff16565b6004819055507f696de425f79f4a40bc6d2122ca50507f0efbeabbff86a84871b7196ab8ea8df73382604051808373ffffffffffffffffffffffffffffffffffffffff1673ffffffffffffffffffffffffffffffffffffffff1681526020018281526020019250505060405180910390a150565b60006126de3361205d565b83111515156126ec57600080fd5b6126f7848484613952565b509392505050565b60008073ffffffffffffffffffffffffffffffffffffffff168373ffffffffffffffffffffffffffffffffffffffff161415151561273c57600080fd5b6127cb82600660003373ffffffffffffffffffffffffffffffffffffffff1673ffffffffffffffffffffffffffffffffffffffff16815260200190815260200160002060008673ffffffffffffffffffffffffffffffffffffffff1673ffffffffffffffffffffffffffffffffffffffff16815260200190815260200160002054612c1390919063ffffffff16565b600660003373ffffffffffffffffffffffffffffffffffffffff1673ffffffffffffffffffffffffffffffffffffffff16815260200190815260200160002060008573ffffffffffffffffffffffffffffffffffffffff1673ffffffffffffffffffffffffffffffffffffffff168152602001908152602001600020819055508273ffffffffffffffffffffffffffffffffffffffff163373ffffffffffffffffffffffffffffffffffffffff167f8c5be1e5ebec7d5bd14f71427d1e84f3dd0314c0f7b2291e5b200ac8c7c3b925600660003373ffffffffffffffffffffffffffffffffffffffff1673ffffffffffffffffffffffffffffffffffffffff16815260200190815260200160002060008773ffffffffffffffffffffffffffffffffffffffff1673ffffffffffffffffffffffffffffffffffffffff168152602001908152602001600020546040518082815260200191505060405180910390a36001905092915050565b6000600660008473ffffffffffffffffffffffffffffffffffffffff1673ffffffffffffffffffffffffffffffffffffffff16815260200190815260200160002060008373ffffffffffffffffffffffffffffffffffffffff1673ffffffffffffffffffffffffffffffffffffffff16815260200190815260200160002054905092915050565b6000809054906101000a900473ffffffffffffffffffffffffffffffffffffffff1673ffffffffffffffffffffffffffffffffffffffff163373ffffffffffffffffffffffffffffffffffffffff16141515612a1857600080fd5b612a20611947565b6000600760006101000a81548173ffffffffffffffffffffffffffffffffffffffff021916908373ffffffffffffffffffffffffffffffffffffffff160217905550565b6000809054906101000a900473ffffffffffffffffffffffffffffffffffffffff1673ffffffffffffffffffffffffffffffffffffffff163373ffffffffffffffffffffffffffffffffffffffff16141515612abf57600080fd5b600073ffffffffffffffffffffffffffffffffffffffff168173ffffffffffffffffffffffffffffffffffffffff1614151515612afb57600080fd5b8073ffffffffffffffffffffffffffffffffffffffff166000809054906101000a900473ffffffffffffffffffffffffffffffffffffffff1673ffffffffffffffffffffffffffffffffffffffff167f8be0079c531659141344cd1fd0a4f28419497f9722a3daafe3b4186f6b6457e060405160405180910390a3806000806101000a81548173ffffffffffffffffffffffffffffffffffffffff021916908373ffffffffffffffffffffffffffffffffffffffff16021790555050565b6000612bc43361205d565b8411151515612bd257600080fd5b612bde85858585613a39565b50949350505050565b600080823b905060008111915050919050565b6000828211151515612c0857fe5b818303905092915050565b60008183019050828110151515612c2657fe5b80905092915050565b6000612c8382600560008773ffffffffffffffffffffffffffffffffffffffff1673ffffffffffffffffffffffffffffffffffffffff16815260200190815260200160002054612bfa90919063ffffffff16565b600560008673ffffffffffffffffffffffffffffffffffffffff1673ffffffffffffffffffffffffffffffffffffffff16815260200190815260200160002081905550612d1882600560008673ffffffffffffffffffffffffffffffffffffffff1673ffffffffffffffffffffffffffffffffffffffff16815260200190815260200160002054612c1390919063ffffffff16565b600560008573ffffffffffffffffffffffffffffffffffffffff1673ffffffffffffffffffffffffffffffffffffffff168152602001908152602001600020819055508273ffffffffffffffffffffffffffffffffffffffff168473ffffffffffffffffffffffffffffffffffffffff167fddf252ad1be2c89b69c2b068fc378daa952ba7f163c4a11628f55a4df523b3ef846040518082815260200191505060405180910390a3600190509392505050565b60008060095414905090565b60006060600073ffffffffffffffffffffffffffffffffffffffff168473ffffffffffffffffffffffffffffffffffffffff1614151515612e1757600080fd5b60008314151515612e2757600080fd5b600560008673ffffffffffffffffffffffffffffffffffffffff1673ffffffffffffffffffffffffffffffffffffffff168152602001908152602001600020548311151515612e7557600080fd5b600660008673ffffffffffffffffffffffffffffffffffffffff1673ffffffffffffffffffffffffffffffffffffffff16815260200190815260200160002060003373ffffffffffffffffffffffffffffffffffffffff1673ffffffffffffffffffffffffffffffffffffffff168152602001908152602001600020548311151515612f0057600080fd5b612f8f83600660008873ffffffffffffffffffffffffffffffffffffffff1673ffffffffffffffffffffffffffffffffffffffff16815260200190815260200160002060003373ffffffffffffffffffffffffffffffffffffffff1673ffffffffffffffffffffffffffffffffffffffff16815260200190815260200160002054612bfa90919063ffffffff16565b600660008773ffffffffffffffffffffffffffffffffffffffff1673ffffffffffffffffffffffffffffffffffffffff16815260200190815260200160002060003373ffffffffffffffffffffffffffffffffffffffff1673ffffffffffffffffffffffffffffffffffffffff1681526020019081526020016000208190555061302e8473ffffffffffffffffffffffffffffffffffffffff16612be7565b156130465761303f85858584613e28565b9150613054565b613051858585612c2f565b91505b509392505050565b60008073ffffffffffffffffffffffffffffffffffffffff168573ffffffffffffffffffffffffffffffffffffffff161415151561309957600080fd5b600084141515156130a957600080fd5b600560008773ffffffffffffffffffffffffffffffffffffffff1673ffffffffffffffffffffffffffffffffffffffff1681526020019081526020016000205484111515156130f757600080fd5b600660008773ffffffffffffffffffffffffffffffffffffffff1673ffffffffffffffffffffffffffffffffffffffff16815260200190815260200160002060003373ffffffffffffffffffffffffffffffffffffffff1673ffffffffffffffffffffffffffffffffffffffff16815260200190815260200160002054841115151561318257600080fd5b61321184600660008973ffffffffffffffffffffffffffffffffffffffff1673ffffffffffffffffffffffffffffffffffffffff16815260200190815260200160002060003373ffffffffffffffffffffffffffffffffffffffff1673ffffffffffffffffffffffffffffffffffffffff16815260200190815260200160002054612bfa90919063ffffffff16565b600660008873ffffffffffffffffffffffffffffffffffffffff1673ffffffffffffffffffffffffffffffffffffffff16815260200190815260200160002060003373ffffffffffffffffffffffffffffffffffffffff1673ffffffffffffffffffffffffffffffffffffffff168152602001908152602001600020819055506132b08573ffffffffffffffffffffffffffffffffffffffff16612be7565b156135cf5761330784600560008973ffffffffffffffffffffffffffffffffffffffff1673ffffffffffffffffffffffffffffffffffffffff16815260200190815260200160002054612bfa90919063ffffffff16565b600560008873ffffffffffffffffffffffffffffffffffffffff1673ffffffffffffffffffffffffffffffffffffffff1681526020019081526020016000208190555061339c84600560008873ffffffffffffffffffffffffffffffffffffffff1673ffffffffffffffffffffffffffffffffffffffff16815260200190815260200160002054612c1390919063ffffffff16565b600560008773ffffffffffffffffffffffffffffffffffffffff1673ffffffffffffffffffffffffffffffffffffffff168152602001908152602001600020819055508473ffffffffffffffffffffffffffffffffffffffff166108fc6000846040518082805190602001908083835b602083101515613431578051825260208201915060208101905060208303925061340c565b6001836020036101000a03801982511681845116808217855250505050505090500191505060405180910390207c0100000000000000000000000000000000000000000000000000000000900491903388886040518663ffffffff167c0100000000000000000000000000000000000000000000000000000000028152600401808473ffffffffffffffffffffffffffffffffffffffff1673ffffffffffffffffffffffffffffffffffffffff168152602001838152602001828051906020019080838360005b838110156135135780820151818401526020810190506134f8565b50505050905090810190601f1680156135405780820380516001836020036101000a031916815260200191505b509350505050600060405180830381858988f1945050505050151561356157fe5b8473ffffffffffffffffffffffffffffffffffffffff168673ffffffffffffffffffffffffffffffffffffffff167fddf252ad1be2c89b69c2b068fc378daa952ba7f163c4a11628f55a4df523b3ef866040518082815260200191505060405180910390a3600190506135dd565b6135da868686612c2f565b90505b95945050505050565b60006060600073ffffffffffffffffffffffffffffffffffffffff168473ffffffffffffffffffffffffffffffffffffffff161415151561362657600080fd5b6000831415151561363657600080fd5b600560003373ffffffffffffffffffffffffffffffffffffffff1673ffffffffffffffffffffffffffffffffffffffff16815260200190815260200160002054831115151561368457600080fd5b6136a38473ffffffffffffffffffffffffffffffffffffffff16612be7565b156136bb576136b433858584613e28565b91506136c9565b6136c6338585612c2f565b91505b5092915050565b60008073ffffffffffffffffffffffffffffffffffffffff168473ffffffffffffffffffffffffffffffffffffffff161415151561370d57600080fd5b6000831415151561371d57600080fd5b600560008673ffffffffffffffffffffffffffffffffffffffff1673ffffffffffffffffffffffffffffffffffffffff16815260200190815260200160002054831115151561376b57600080fd5b600660008673ffffffffffffffffffffffffffffffffffffffff1673ffffffffffffffffffffffffffffffffffffffff16815260200190815260200160002060003373ffffffffffffffffffffffffffffffffffffffff1673ffffffffffffffffffffffffffffffffffffffff1681526020019081526020016000205483111515156137f657600080fd5b61388583600660008873ffffffffffffffffffffffffffffffffffffffff1673ffffffffffffffffffffffffffffffffffffffff16815260200190815260200160002060003373ffffffffffffffffffffffffffffffffffffffff1673ffffffffffffffffffffffffffffffffffffffff16815260200190815260200160002054612bfa90919063ffffffff16565b600660008773ffffffffffffffffffffffffffffffffffffffff1673ffffffffffffffffffffffffffffffffffffffff16815260200190815260200160002060003373ffffffffffffffffffffffffffffffffffffffff1673ffffffffffffffffffffffffffffffffffffffff168152602001908152602001600020819055506139248473ffffffffffffffffffffffffffffffffffffffff16612be7565b1561393c5761393585858585613e28565b905061394a565b613947858585612c2f565b90505b949350505050565b60008073ffffffffffffffffffffffffffffffffffffffff168473ffffffffffffffffffffffffffffffffffffffff161415151561398f57600080fd5b6000831415151561399f57600080fd5b600560003373ffffffffffffffffffffffffffffffffffffffff1673ffffffffffffffffffffffffffffffffffffffff1681526020019081526020016000205483111515156139ed57600080fd5b613a0c8473ffffffffffffffffffffffffffffffffffffffff16612be7565b15613a2457613a1d33858585613e28565b9050613a32565b613a2f338585612c2f565b90505b9392505050565b60008073ffffffffffffffffffffffffffffffffffffffff168573ffffffffffffffffffffffffffffffffffffffff1614151515613a7657600080fd5b60008414151515613a8657600080fd5b600560003373ffffffffffffffffffffffffffffffffffffffff1673ffffffffffffffffffffffffffffffffffffffff168152602001908152602001600020548411151515613ad457600080fd5b613af38573ffffffffffffffffffffffffffffffffffffffff16612be7565b15613e1257613b4a84600560003373ffffffffffffffffffffffffffffffffffffffff1673ffffffffffffffffffffffffffffffffffffffff16815260200190815260200160002054612bfa90919063ffffffff16565b600560003373ffffffffffffffffffffffffffffffffffffffff1673ffffffffffffffffffffffffffffffffffffffff16815260200190815260200160002081905550613bdf84600560008873ffffffffffffffffffffffffffffffffffffffff1673ffffffffffffffffffffffffffffffffffffffff16815260200190815260200160002054612c1390919063ffffffff16565b600560008773ffffffffffffffffffffffffffffffffffffffff1673ffffffffffffffffffffffffffffffffffffffff168152602001908152602001600020819055508473ffffffffffffffffffffffffffffffffffffffff166108fc6000846040518082805190602001908083835b602083101515613c745780518252602082019150602081019050602083039250613c4f565b6001836020036101000a03801982511681845116808217855250505050505090500191505060405180910390207c0100000000000000000000000000000000000000000000000000000000900491903388886040518663ffffffff167c0100000000000000000000000000000000000000000000000000000000028152600401808473ffffffffffffffffffffffffffffffffffffffff1673ffffffffffffffffffffffffffffffffffffffff168152602001838152602001828051906020019080838360005b83811015613d56578082015181840152602081019050613d3b565b50505050905090810190601f168015613d835780820380516001836020036101000a031916815260200191505b509350505050600060405180830381858988f19450505050501515613da457fe5b8473ffffffffffffffffffffffffffffffffffffffff163373ffffffffffffffffffffffffffffffffffffffff167fddf252ad1be2c89b69c2b068fc378daa952ba7f163c4a11628f55a4df523b3ef866040518082815260200191505060405180910390a360019050613e20565b613e1d338686612c2f565b90505b949350505050565b600080613e7d84600560008973ffffffffffffffffffffffffffffffffffffffff1673ffffffffffffffffffffffffffffffffffffffff16815260200190815260200160002054612bfa90919063ffffffff16565b600560008873ffffffffffffffffffffffffffffffffffffffff1673ffffffffffffffffffffffffffffffffffffffff16815260200190815260200160002081905550613f1284600560008873ffffffffffffffffffffffffffffffffffffffff1673ffffffffffffffffffffffffffffffffffffffff16815260200190815260200160002054612c1390919063ffffffff16565b600560008773ffffffffffffffffffffffffffffffffffffffff1673ffffffffffffffffffffffffffffffffffffffff168152602001908152602001600020819055508490508073ffffffffffffffffffffffffffffffffffffffff1663c0ee0b8a8786866040518463ffffffff167c0100000000000000000000000000000000000000000000000000000000028152600401808473ffffffffffffffffffffffffffffffffffffffff1673ffffffffffffffffffffffffffffffffffffffff16815260200183815260200180602001828103825283818151815260200191508051906020019080838360005b8381101561401a578082015181840152602081019050613fff565b50505050905090810190601f1680156140475780820380516001836020036101000a031916815260200191505b50945050505050600060405180830381600087803b15801561406857600080fd5b505af115801561407c573d6000803e3d6000fd5b505050508473ffffffffffffffffffffffffffffffffffffffff168673ffffffffffffffffffffffffffffffffffffffff167fddf252ad1be2c89b69c2b068fc378daa952ba7f163c4a11628f55a4df523b3ef866040518082815260200191505060405180910390a36001915050949350505050565b606060405190810160405280600081526020016000815260200160001515815250905600a165627a7a723058203ad237f33c29793389e14013241ce20b3874f27d48bcd4ac7543c3113405b6bb0029",
  "source": "pragma solidity ^0.4.23;\r\n\r\nimport \"./BurnableToken.sol\";\r\nimport \"../../ownership/Heritable.sol\";\r\n\r\n/**\r\n * @title woxToken contract\r\n * @dev woxToken is an ERC223 Token compatible with ERC20 Tokens.\r\n */\r\ncontract woxToken is BurnableToken, Heritable {\r\n    constructor() public {\r\n        name = \"WOX.Network\";\r\n        symbol = \"WOX\";\r\n        decimals = 18;\r\n        totalSupply = 1e9 * 10 ** decimals;\r\n        balances[owner] = totalSupply;\r\n    }\r\n    \r\n    struct Lock {\r\n        uint256 amount;\r\n        uint256 until;\r\n        bool isLocked;\r\n    }\r\n    mapping(address => Lock[]) Locks;\r\n\r\n    /**\r\n     * @dev Transfers a specified number of tokens from msg.sender balance to a specified address \r\n     * @dev And locks these tokens so as not to be spent by receiver until lock time expires.\r\n     * @param _to Address to which tokens will be transfered.\r\n     * @param _amount Number of tokens to be transfered.\r\n     * @param _until Due time the tokens are locked.\r\n     * @return A bool that shows success or failure of process.\r\n     */\r\n    function transferLockedAmount(address _to, uint256 _amount, uint256 _until) \r\n    public returns (bool) {\r\n        require(_to != address(0));\r\n        require(_amount > 0);\r\n        require(_amount <= balances[msg.sender]);\r\n        \r\n        Lock memory newLock;\r\n        newLock.amount = _amount;\r\n        newLock.until = _until;\r\n        newLock.isLocked = true;\r\n        Locks[_to].push(newLock);\r\n\r\n        return transfer(_to, _amount);\r\n    }\r\n\r\n    /**\r\n     * @dev Transfers a specified number of tokens from msg.sender balance to a specified address \r\n     * @dev And locks these tokens so as not to be spent by receiver until lock time expires.\r\n     * @param _to Address to which tokens will be transfered.\r\n     * @param _amount Number of tokens to be transfered.\r\n     * @param _until Due time the tokens are locked.\r\n     * @param _data Specified data should be sent to the address.\r\n     * @return A bool that shows success or failure of process.\r\n     */\r\n    function transferLockedAmount(address _to, uint256 _amount, uint256 _until, bytes _data) \r\n    public returns (bool) {\r\n        require(_to != address(0));\r\n        require(_amount > 0);\r\n        require(_amount <= balances[msg.sender]);\r\n        \r\n        Lock memory newLock;\r\n        newLock.amount = _amount;\r\n        newLock.until = _until;\r\n        newLock.isLocked = true;\r\n        Locks[_to].push(newLock);\r\n\r\n        return transfer(_to, _amount, _data);\r\n    }\r\n\r\n    /**\r\n     * @dev Transfers a specified number of tokens from msg.sender balance to a specified address \r\n     * @dev And locks these tokens so as not to be spent by receiver until lock time expires.\r\n     * @param _to Address to which tokens will be transfered.\r\n     * @param _amount Number of tokens to be transfered.\r\n     * @param _until Due time the tokens are locked.\r\n     * @param _data Specified data should be sent to the address.\r\n     * @param _custom_fallback Receiver Contract fallback function interface must be called to inform the transaction.\r\n     * @return A bool that shows success or failure of process.\r\n     */\r\n    function transferLockedAmount(address _to, uint256 _amount, uint256 _until, bytes _data, string _custom_fallback) \r\n    public returns (bool) {\r\n        require(_to != address(0));\r\n        require(_amount > 0);\r\n        require(_amount <= balances[msg.sender]);\r\n        \r\n        Lock memory newLock;\r\n        newLock.amount = _amount;\r\n        newLock.until = _until;\r\n        newLock.isLocked = true;\r\n        Locks[_to].push(newLock);\r\n\r\n        if(_to.isContract()) {\r\n            balances[msg.sender] = balances[msg.sender].sub(_amount);\r\n            balances[_to] = balances[_to].add(_amount);\r\n            assert(_to.call.gas(2300).value(0)(_custom_fallback, msg.sender, _amount, _data));\r\n            emit Transfer(msg.sender, _to, _amount);\r\n            return true;\r\n        }\r\n        else {\r\n            return _transferToAddress(msg.sender, _to, _amount);\r\n        }\r\n    }\r\n\r\n    /**\r\n     * @dev Returns the freed number of tokens owned by an address at this moment.\r\n     * @param _address The address whose freed balance must be returned.\r\n     * @return A uint256 specifying freed balacne of passed address.\r\n     */\r\n    function getFreeBalance(address _address) public view returns (uint256) {\r\n        Lock[] memory AllLocks = Locks[_address];\r\n        uint256 lockedBalance = 0;\r\n        for (uint256 i = 0; i < AllLocks.length; i++) {\r\n            if (AllLocks[i].until > now && AllLocks[i].isLocked == true) {\r\n                lockedBalance = lockedBalance.add(AllLocks[i].amount);\r\n            }\r\n        }\r\n        assert(balances[_address].sub(lockedBalance) >= 0);\r\n        return balances[_address].sub(lockedBalance);\r\n    }\r\n\r\n    /**\r\n     * @dev Overrides parent by transfering tokens of freed balance.\r\n     * @param _to The address which tokens should be transfered to.\r\n     * @param _value Number of tokens should be transfered.\r\n     * @return A bool that shows success or failure of process.\r\n     */\r\n    function transfer(address _to, uint256 _value) public returns (bool) {\r\n        require(_value <= getFreeBalance(msg.sender));\r\n        super.transfer(_to, _value);\r\n    }\r\n\r\n    /**\r\n     * @dev Overrides parent by transfering tokens of freed balance.\r\n     * @param _to The address which tokens should be transfered to.\r\n     * @param _value Number of tokens should be transfered.\r\n     * @param _data Specified data should be sent to the address.\r\n     * @return A bool that shows success or failure of process.\r\n     */\r\n    function transfer(address _to, uint256 _value, bytes _data) public returns (bool) {\r\n        require(_value <= getFreeBalance(msg.sender));\r\n        super.transfer(_to, _value, _data);\r\n    }\r\n\r\n    /**\r\n     * @dev Overrides parent by transfering tokens of freed balance.\r\n     * @param _to The address which tokens should be transfered to.\r\n     * @param _value Number of tokens should be transfered.\r\n     * @param _data Specified data should be sent to the address.\r\n     * @param _custom_fallback Receiver Contract fallback function interface must be called to inform the transaction.\r\n     * @return A bool that shows success or failure of process.\r\n     */\r\n    function transfer(address _to, uint256 _value, bytes _data, string _custom_fallback) public returns (bool) {\r\n        require(_value <= getFreeBalance(msg.sender));\r\n        super.transfer(_to, _value, _data, _custom_fallback);\r\n    }\r\n\r\n    /**\r\n     * @dev Overrides parent by transfering tokens of freed balance.\r\n     * @param _from The address will send tokens.\r\n     * @param _to The address which tokens should be transfered to.\r\n     * @param _value Number of tokens should be transfered.\r\n     * @return A bool that shows success or failure of process.\r\n     */\r\n    function transferFrom(address _from, address _to, uint256 _value) public returns (bool) {\r\n        require(_value <= getFreeBalance(_from));\r\n        super.transferFrom(_from, _to, _value);\r\n    }\r\n\r\n    /**\r\n     * @dev Overrides parent by transfering tokens of freed balance.\r\n     * @param _from The address will send tokens.\r\n     * @param _to The address which tokens should be transfered to.\r\n     * @param _value Number of tokens should be transfered.\r\n     * @param _data Specified data should be sent to the address.\r\n     * @return A bool that shows success or failure of process.\r\n     */\r\n    function transferFrom(address _from, address _to, uint256 _value, bytes _data) public returns (bool) {\r\n        require(_value <= getFreeBalance(_from));\r\n        super.transferFrom(_from, _to, _value, _data);\r\n    }\r\n\r\n    /**\r\n     * @dev Overrides parent by transfering tokens of freed balance.\r\n     * @param _from The address will send tokens.\r\n     * @param _to The address which tokens should be transfered to.\r\n     * @param _value Number of tokens should be transfered.\r\n     * @param _data Specified data should be sent to the address.\r\n     * @param _custom_fallback Receiver Contract fallback function interface must be called to inform the transaction.\r\n     * @return A bool that shows success or failure of process.\r\n     */\r\n    function transferFrom(address _from, address _to, uint256 _value, bytes _data, string _custom_fallback) public returns (bool) {\r\n        require(_value <= getFreeBalance(_from));\r\n        super.transferFrom(_from, _to, _value, _data, _custom_fallback);\r\n    }\r\n\r\n}",
  "sourcePath": "G:\\Root\\Blockchain\\WOX\\contracts\\Token\\ERC223\\woxToken.sol",
  "compiler": {
    "name": "solc",
    "version": "0.4.23+commit.124ca40d.Emscripten.clang"
  },
  "schemaVersion": "2.0.0",
  "updatedAt": "2018-06-27T06:56:02.089Z"
}